:020000040804EE
:100000000000032015A004087FF505088DF50508FC
:10001000F5F5050815F6050835F605080000000099
:10002000000000000000000000000000810705083B
:1000300055F60508000000009109050863F605085B
:1000400071F6050865A0040865A0040865A0040809
:1000500065A0040865A0040865A0040865A004085C
:1000600065A0040865A0040865A0040865A004084C
:1000700065A0040865A0040871F9050865A00408D6
:1000800065A0040865A0040865A0040865A004082C
:1000900065A0040865A0040865A0040865A004081C
:1000A00065A0040885F9050865A0040865A0040892
:1000B00065A0040865A0040865A00408C1F9050846
:1000C000D5F90508E9F90508FDF9050865A0040852
:1000D00065A00408CDF6050865A0040865A004081D
:1000E00085F6050865A0040865A0040865A0040855
:1000F00065A0040865A0040865A0040865A00408BC
:1001000065A00408B9F6050865A0040865A0040800
:1001100055F7050865A0040865A0040865A0040853
:1001200065A0040865A0040865A0040899F90508FD
:1001300065A0040865A0040865A0040865A004087B
:1001400065A0040865A0040865A0040865A004086B
:1001500065A00408ADF9050865A00408E1F70508E5
:1001600011FA050825FA050865A0040865A0040829
:1001700065A0040865A0040865A00408000000004C
:1001800065A0040865A004086DF8050865A00408CA
:1001900065A0040865A0040865A0040865A004081B
:0C01A000000000000000000065A0040842
:1001B00010B5054C237833B9044B13B10448AFF3A1
:1001C00000800123237010BD840700200000000080
:1001D0004481060808B5034B1BB103490348AFF33C
:1001E000008008BD00000000880700204481060848
:1001F00081F0004102E000BF83F0004330B54FEAD8
:1002000041044FEA430594EA050F08BF90EA020F44
:100210001FBF54EA000C55EA020C7FEA645C7FEAD7
:10022000655C00F0E2804FEA5454D4EB5555B8BFFA
:100230006D420CDD2C4480EA020281EA030382EA6B
:10024000000083EA010180EA020281EA0303362DFD
:1002500088BF30BD11F0004F4FEA01314FF4801CD0
:100260004CEA113102D0404261EB410113F0004FE2
:100270004FEA03334CEA133302D0524263EB430399
:1002800094EA050F00F0A780A4F10104D5F1200E37
:100290000DDB02FA0EFC22FA05F2801841F1000192
:1002A00003FA0EF2801843FA05F359410EE0A5F166
:1002B00020050EF1200E012A03FA0EFC28BF4CF097
:1002C000020C43FA05F3C01851EBE37101F000454D
:1002D00007D54FF0000EDCF1000C7EEB00006EEB5A
:1002E0000101B1F5801F1BD3B1F5001F0CD34908E4
:1002F0005FEA30004FEA3C0C04F101044FEA44523B
:1003000012F5800F80F09A80BCF1004F08BF5FEAC1
:10031000500C50F1000041EB045141EA050130BDA1
:100320005FEA4C0C404141EB010111F4801FA4F144
:100330000104E9D191F0000F04BF01460020B1FA99
:1003400081F308BF2033A3F10B03B3F120020CDAD1
:100350000C3208DD02F1140CC2F10C0201FA0CF0AF
:1003600021FA02F10CE002F11402D8BFC2F1200C14
:1003700001FA02F120FA0CFCDCBF41EA0C019040CA
:10038000E41AA2BF01EB0451294330BD6FEA040413
:100390001F3C1CDA0C340EDC04F11404C4F12002FE
:1003A00020FA04F001FA02F340EA030021FA04F310
:1003B00045EA030130BDC4F10C04C4F1200220FA67
:1003C00002F001FA04F340EA0300294630BD21FAA5
:1003D00004F0294630BD94F0000F83F4801306BF6B
:1003E00081F480110134013D4EE77FEA645C18BF5F
:1003F0007FEA655C29D094EA050F08BF90EA020FF6
:1004000005D054EA000C04BF1946104630BD91EAED
:10041000030F1EBF0021002030BD5FEA545C05D1F0
:100420004000494128BF41F0004130BD14F580042F
:100430003CBF01F5801130BD01F0004545F0FE41A3
:1004400041F470014FF0000030BD7FEA645C1ABFD8
:10045000194610467FEA655C1CBF0B46024650EA0F
:10046000013406BF52EA033591EA030F41F400213B
:1004700030BD00BF90F0000F04BF0021704730B5C1
:100480004FF4806404F132044FF000054FF0000196
:1004900050E700BF90F0000F04BF0021704730B557
:1004A0004FF4806404F1320410F0004548BF40422C
:1004B0004FF000013EE700BF42004FEAE2014FEA81
:1004C00031014FEA02701FBF12F07F4393F07F4F5C
:1004D00081F06051704732F07F4208BF704793F05F
:1004E0007F4F04BF41F40021704730B54FF4607472
:1004F00001F0004521F000411CE700BF50EA010275
:1005000008BF704730B54FF000050AE050EA01021D
:1005100008BF704730B511F0004502D5404261EB8D
:1005200041014FF4806404F132045FEA915C3FF4CE
:10053000D8AE4FF003025FEADC0C18BF03325FEA6B
:10054000DC0C18BF033202EBDC02C2F1200300FA1C
:1005500003FC20FA02F001FA03FE40EA0E0021FA41
:1005600002F11444BDE600BF70B54FF0FF0C4CF42F
:10057000E06C1CEA11541DBF1CEA135594EA0C0FE1
:1005800095EA0C0F00F0DEF82C4481EA030621EA1C
:100590004C5123EA4C5350EA013518BF52EA033557
:1005A00041F4801143F4801338D0A0FB02CE4FF009
:1005B0000005E1FB02E506F00042E0FB03E54FF039
:1005C0000006E1FB03569CF0000F18BF4EF0010E31
:1005D000A4F1FF04B6F5007F64F5407404D25FEA2D
:1005E0004E0E6D4146EB060642EAC62141EA5551E0
:1005F0004FEAC52040EA5E504FEACE2EB4F1FD0C22
:1006000088BFBCF5E06F1ED8BEF1004F08BF5FEA9F
:10061000500E50F1000041EB045170BD06F0004651
:1006200046EA010140EA020081EA0301B4EB5C04FE
:10063000C2BFD4EB0C0541EA045170BD41F48011F6
:100640004FF0000E013C00F3AB8014F1360FDEBF1B
:10065000002001F0004170BDC4F10004203C35DAF7
:100660000C341BDC04F11404C4F1200500FA05F37A
:1006700020FA04F001FA05F240EA020001F000421B
:1006800021F0004110EBD37021FA04F642EB060191
:100690005EEA430E08BF20EAD37070BDC4F10C04BB
:1006A000C4F1200500FA04F320FA05F001FA04F27F
:1006B00040EA020001F0004110EBD37041F100016B
:1006C0005EEA430E08BF20EAD37070BDC4F1200576
:1006D00000FA05F24EEA020E20FA04F301FA05F2DE
:1006E00043EA020321FA04F001F0004121FA04F286
:1006F00020EA020000EBD3705EEA430E08BF20EA56
:10070000D37070BD94F0000F0FD101F0004640008F
:1007100041EB010111F4801F08BF013CF7D041EA11
:10072000060195F0000F18BF704703F00046520015
:1007300043EB030313F4801F08BF013DF7D043EAE6
:100740000603704794EA0C0F0CEA135518BF95EA9C
:100750000C0F0CD050EA410618BF52EA4306D1D123
:1007600081EA030101F000414FF0000070BD50EA42
:10077000410606BF1046194652EA430619D094EACC
:100780000C0F02D150EA013613D195EA0C0F05D1B6
:1007900052EA03361CBF104619460AD181EA03010A
:1007A00001F0004141F0FE4141F470014FF00000C2
:1007B00070BD41F0FE4141F4780170BD70B54FF05D
:1007C000FF0C4CF4E06C1CEA11541DBF1CEA1355DD
:1007D00094EA0C0F95EA0C0F00F0A7F8A4EB0504BF
:1007E00081EA030E52EA03354FEA013100F08880B6
:1007F0004FEA03334FF0805545EA131343EA12637F
:100800004FEA022245EA111545EA10654FEA002633
:100810000EF000419D4208BF964244F1FD0404F5EC
:10082000407402D25B084FEA3202B61A65EB030548
:100830005B084FEA32024FF480104FF4002CB6EB05
:10084000020E75EB030E22BFB61A754640EA0C0085
:100850005B084FEA3202B6EB020E75EB030E22BFC5
:10086000B61A754640EA5C005B084FEA3202B6EB06
:10087000020E75EB030E22BFB61A754640EA9C00C5
:100880005B084FEA3202B6EB020E75EB030E22BF95
:10089000B61A754640EADC0055EA060E18D04FEA53
:1008A000051545EA16754FEA06164FEAC30343EAF3
:1008B00052734FEAC2025FEA1C1CC0D111F4801FC0
:1008C0000BD141EA00014FF000004FF0004CB6E7B9
:1008D00011F4801F04BF01430020B4F1FD0C88BF58
:1008E000BCF5E06F3FF6AFAEB5EB030C04BFB6EB63
:1008F000020C5FEA500C50F1000041EB045170BD56
:100900000EF0004E4EEA113114EB5C04C2BFD4EB82
:100910000C0541EA045170BD41F480114FF0000E06
:10092000013C90E645EA060E8DE60CEA135594EA82
:100930000C0F08BF95EA0C0F3FF43BAF94EA0C0F85
:100940000AD150EA01347FF434AF95EA0C0F7FF4FA
:1009500025AF104619462CE795EA0C0F06D152EA4E
:1009600003353FF4FDAE1046194622E750EA410632
:1009700018BF52EA43067FF4C5AE50EA41047FF443
:100980000DAF52EA43057FF4EBAE12E74FF0FF3CA8
:1009900006E000BF4FF0010C02E000BF4FF0010C79
:1009A0004DF804CD4FEA410C7FEA6C5C4FEA430CF2
:1009B00018BF7FEA6C5C1BD001B050EA410C0CBF41
:1009C00052EA430C91EA030F02BF90EA020F0020A3
:1009D000704710F1000F91EA030F58BF994208BF0A
:1009E00090422CBFD8176FEAE37040F001007047C7
:1009F0004FEA410C7FEA6C5C02D150EA013C07D11E
:100A00004FEA430C7FEA6C5CD6D152EA033CD3D068
:100A10005DF8040B704700BF8446104662468C4662
:100A20001946634600E000BF01B5FFF7B7FF002895
:100A300048BF10F1000F01BD4DF808EDFFF7F4FFBE
:100A40000CBF012000205DF808FB00BF4DF808ED49
:100A5000FFF7EAFF34BF012000205DF808FB00BF6C
:100A60004DF808EDFFF7E0FF94BF012000205DF88E
:100A700008FB00BF4DF808EDFFF7CEFF94BF012043
:100A800000205DF808FB00BF4DF808EDFFF7C4FF3C
:100A900034BF012000205DF808FB00BF4FEA410C85
:100AA0007FEA6C5C02D150EA013C0AD14FEA430C68
:100AB0007FEA6C5C02D152EA033C02D14FF00000A5
:100AC00070474FF0010070474FEA410212F50012E3
:100AD00015D211D56FF47873B3EB625212D94FEA85
:100AE000C12343F0004343EA505311F0004F23FA6F
:100AF00002F018BF404270474FF00000704750EAC4
:100B0000013005D111F0004008BF6FF00040704780
:100B10004FF00000704700BF034613F8012B002A76
:100B2000FBD1181A013870470000000000000000D7
:100B300001F0FF01102A2BDB10F0070F08D010F88E
:100B4000013B013A8B422DD010F0070F42B3F6D192
:100B5000F0B441EA012141EA014122F007047FF0AB
:100B600000070023F0E80256083C85EA010586EA02
:100B7000010685FA47F5A3FA87F586FA47F6A5FA3E
:100B800087F68EB9EED1F0BC01F0FF0102F007024A
:100B900032B110F8013B013A83EA010313B1F8D1F5
:100BA0000020704701387047002D06BF35460338D6
:100BB000073815F0010F07D1013015F4807F02BF0F
:100BC000013015F4C03F0130F0BC0138704700BF60
:100BD00080B582B000AF786038200AF05CFA034636
:100BE000002B0ED19B4B1B680D2201219A480AF065
:100BF0005BFC9A4B1B680D22012197480AF054FCBC
:100C00000DE0944B1B680C22012195480AF04CFC26
:100C1000924B1B680C22012191480AF045FC3C20B4
:100C20000AF039FA0346002B0ED18A4B1B680D22BD
:100C300001218C480AF038FC884B1B680D220121E9
:100C400088480AF031FC0DE0824B1B680C22012120
:100C500085480AF029FC814B1B680C22012182483F
:100C60000AF022FC302009F0A1FA0346012B0ED134
:100C7000784B1B680D2201217C480AF015FC774B4C
:100C80001B680D22012179480AF00EFC02E0784829
:100C900008F03EFD322009F089FA0346012B0ED1FF
:100CA0006C4B1B680D22012172480AF0FDFB6B4B57
:100CB0001B680D2201216F480AF0F6FB02E06C4828
:100CC00008F026FD0EF0E0FE0122002103200EF0C8
:100CD00091FF0346012B0DD15E4B1B680122664933
:100CE00018460AF081FA5D4B1B68012262491846DA
:100CF0000AF07AFA0122002104200EF07BFF03465D
:100D0000012B0DD1534B1B6802225B4918460AF098
:100D10006BFA524B1B680222574918460AF064FAD4
:100D20000122002105200EF065FF0346012B0DD1A5
:100D3000484B1B680322504918460AF055FA474BA6
:100D40001B6803224C4918460AF04EFA03200FF0A4
:100D500023F90346012B0ED13E4B1B680122474964
:100D600018460AF041FA3D4B1B68012243491846D8
:100D70000AF03AFA0DE0374B1B6801224049184649
:100D80000AF032FA354B1B6801223D4918460AF039
:100D90002BFA04200FF000F90346012B0ED12D4B46
:100DA0001B680222354918460AF01EFA2B4B1B68B5
:100DB0000222324918460AF017FA0DE0254B1B684B
:100DC00002222F4918460AF00FFA244B1B68022210
:100DD0002B4918460AF008FA05200FF0DDF8034603
:100DE000012B0ED11B4B1B680322244918460AF025
:100DF000FBF91A4B1B680322204918460AF0F4F944
:100E00000DE0144B1B6803221D4918460AF0ECF94B
:100E1000124B1B6803221A4918460AF0E5F9012013
:100E20001FF0CCFE01201FF0ADFE164B5B69154A8A
:100E300043F010035361322009F090FF114B5B69BE
:100E4000104A23F0100353614FF47A7009F086FFC3
:100E5000E8E700BF080000206081060800000020CD
:100E6000708106088081060890810608A081060826
:100E700028E60020B0810608C0810608D481060853
:100E8000E481060800080240B0B590B000AF404BC6
:100E9000404A1A6008F03AFF3F4B5B6A3E4A43F40F
:100EA000E023536272B63C4B3C4A9A6062B600F053
:100EB000D3F81EF00BFB08F025F908F0A5F908F0AF
:100EC0004BFE08F009FB08F041FB08F0C5FB08F0F9
:100ED000F1FB08F07DFC08F0B1FC08F0E7FC08F03D
:100EE0001BFD08F0E5FD08F08BFD08F00BFE08F097
:100EF00083FE10F023FC21F0D7F8294B1B6818461D
:100F000000F0CEFB274B1B68184600F0C9FB264BB0
:100F10005B69254A23F020035361244B07F12C041D
:100F20001D460FCD0FC42B68236007F12C03002151
:100F3000184609F0ECFE02461D4B1A6000F0DAF983
:100F40001FF0B2FD1B4B07F118041D460FCD0FC457
:100F50002B68236007F118030021184609F0D7FE1B
:100F60000246154B1A60154B3C1D1D460FCD0FC494
:100F70002B6823603B1D0021184609F0C8FE0122A2
:100F800040210F4815F0DAFD09F09EFEFEE700BF94
:100F9000280400205028004000ED00E00000040874
:100FA0000800002000000020000802400C82060813
:100FB000E0DC002030820608E4DC002054820608D1
:100FC0000018024080B582B000AF78607B681B6873
:100FD000044A934201D11EF09BFA00BF0837BD4678
:100FE00080BD00BF0000014080B500AF104B5B69C1
:100FF0000F4A43F0100353610D4B5B690C4A43F0F9
:10100000200353614FF4FA601EF09CFA084B5B69B1
:10101000074A23F010035361054B5B69044A23F030
:10102000200353614FF4FA601EF08CFADEE700BF34
:101030000008024080B500AFFFF7D6FF00BF80BDBB
:1010400080B582B000AF78603960FFF7CDFF00BF98
:101050000837BD4680BD000080B500AF00F00CF938
:1010600002460E4B1A600D4B1B68002B0CD14FF43F
:10107000806200210A4824F033FB094B094A1A60B8
:10108000064B094A1A6007E0044B1B684FF4806264
:101090001946034824F019FB00BF80BDE8E000209A
:1010A000E8DC00202143AA5500001E0890B58FB04F
:1010B00000AF002387F82F3015F00EF900F098F8F4
:1010C00078637B6B002B16D100237B6001233B618F
:1010D0001723FB6002237B6107F118023B1D1146B9
:1010E000184614F05BFF0346002B02D015F00EF9F2
:1010F00043E0234B7B63234B234A1A6007F11C0315
:101100001946204800F046F8FB691E4AC2F8FC3335
:101110000023BB621D4BF322DA6000233B631CE01B
:10112000184A3B6B13441B78DBB24FF00004C7E94D
:1011300008347A6B3B6BD118D7E90823B86A15F0ED
:1011400077F8034687F82F3097F82F30002B0ED111
:10115000BA6A3B6B134401333B63BB6A01334FF400
:101160008062B2FBF3F33A6B9A42D9D300E000BF3E
:1011700015F0CCF8064A7B6B13603C37BD4690BD3A
:1011800000001E08E8DC00202143AA55003C024074
:10119000E8E0002080B582B000AF786039607B68FD
:1011A000104A934203D97B680F4A934209D97B685E
:1011B000B3F1005F11D37B6803F580630B4A934260
:1011C0000BD83B68002B08D04FF47F727968002061
:1011D0000AF06EFA02463B681A6000BF0837BD4647
:1011E00080BD00BFFFFF1D0800FC1F08FAFF0220A2
:1011F00080B483B000AF0023BB801E4B1B683B60F4
:101200000023FB800DE0B7F904309B023A681344D9
:101210001A46FB8813441B78FF2B07D1FB88013348
:10122000FB80FB88B3F5806FEDD300E000BFFB8847
:10123000B3F5806F06D2B7F904309BB201339BB28D
:10124000BB8005E0B7F904309B023A6813440AE01A
:10125000B7F904309B023A68134403F58063B3F195
:10126000026FCDD3002318460C37BD465DF8047BD2
:10127000704700BFE8E0002080B584B000AF7F2356
:10128000FB811A4BBB60B7F90E309B02BA6813445E
:101290001B68174A934219D1B7F90E309B02BA68FE
:1012A00013443A1D11461846FFF774FFB7F90E3084
:1012B0009B02BA681344D3F8FC237B689A4205D199
:1012C000B7F90E309B02BA6813440AE0B7F90E3042
:1012D0009BB2013B9BB2FB81B7F90E30002BD2DCF5
:1012E000002318461037BD4680BD00BF00001E0811
:1012F0002143AA55B0B586B000AF0023FB752EE0A0
:10130000FB7D3A4A4FF40C7101FB03F313440022B6
:101310001A60FB7D364A002142F82310FB7D354AD6
:10132000002142F82310FB7D334A002142F82310AC
:10133000FB7D324A002142F82310FB7D304A002118
:1013400042F82310FB7D2F4A002122F81310FB7D69
:101350002D4A002122F81310FB7D0133FB75FB7D24
:10136000022BCDD9294B2A4A1A602A4B2A4A1A60E5
:101370002A4B2B4A1A60254B1B6801222949184623
:101380001DF04AFA0346BB75BB7D002B01D0FFF769
:101390002BFE204B1B680122224918461DF03CFA07
:1013A0000346BB75BB7D002B01D0FFF71DFE1B4B19
:1013B0001B6801221B4918461DF02EFA0346BB7517
:1013C000BB7D002B01D0FFF70FFE174B3C461D469F
:1013D0000FCD0FC42B6823603B460021184609F04F
:1013E00096FC00BF1837BD46B0BD00BF1C0E0020E4
:1013F00004E40020F8E30020ECE00020A40D00202D
:10140000B00D00200C0E0020140E00200000002063
:1014100008E8002004000020A4E9002008000020C3
:1014200064E900203CEA0020E88206082DE9F0414A
:10143000ADF5207D08AF3B1D1860002387F85F32B3
:1014400008F07EFC0346012B40F09E80132387F8B2
:101450005E32654B1B681A46644965481AF029F8E4
:10146000614B1B681A46634961481AF035F907F168
:101470000C031322604918460CF0BEF8034687F8A7
:101480005E3297F85E32002B09D107F50F731946CB
:1014900059480DF095F9034687F85E3205E097F854
:1014A0005E32012B01D108F04BFC97F85E32002B25
:1014B0006AD1D7F83C2207F10C03114618460CF00C
:1014C0002AFE034687F85E3297F85E32002B4BD136
:1014D00097F85E32002B41D10021454819F036FEC5
:1014E000C7F85802454B1B68C7F85432414BDB78AC
:1014F0009C46404B5B789E463E4B9B781A463B4B46
:101500001B781946394B5B781C46384B9B781D4637
:10151000D7F858321B0C9BB21E46D7F858329BB2F4
:101520003B60D7F854321B0C9BB2D7F8540280B200
:1015300007F10C08079006933B6805930496039502
:10154000029401910092734662462D49404609F08B
:101550004BFE07F10C03184600F0A2F807F10C034C
:1015600018460CF0A9FD0FE0264B1B6897F85E2289
:101570002549184609F038FE244B1B6897F85E226F
:101580002149184609F030FE00201FF017FB00200B
:101590001FF0F8FA002000F0AFF803461A4697F85B
:1015A0005F32134387F85F32012000F0A5F803464D
:1015B0001A4697F85F32134387F85F32022000F033
:1015C0009BF803461A4697F85F32134387F85F3259
:1015D00097F85F32002B02D10A2009F0BFFB0023ED
:1015E00087F85F32D3E700BFA007002008E600209D
:1015F0004CE8002048E80020FC82060854280040FF
:101600000883060808000020508306080000002018
:1016100080B584B000AF786039603B68002B0BD098
:101620003868FFF779FA0346FB81FB891A46396867
:10163000786800F007F801E0FFF7D6FC00BF10372C
:10164000BD4680BD80B586B000AFF860B960134676
:10165000FB80FB88FB82BB68002B18D0FB8A1A46F4
:10166000B96800200AF024F83861FB8ABA6813448C
:101670003A690A49184624F097FCFB8A0A33FB8230
:10168000FA8AFB680021B86809F00EFF01E0FFF755
:10169000ABFC00BF1837BD4680BD00BF64830608A1
:1016A00080B584B002AF78600C4B01930C4B009373
:1016B000592301220B49786809F096FD0A4B1A68F4
:1016C0000A4B19680A4B1B6800930B460949786856
:1016D00009F08AFD00BF0837BD4680BD9483060827
:1016E000A08306086C830608107AFF1F147AFF1F78
:1016F000187AFF1FAC830608F0B5B7B008AF0346F1
:10170000FB73002387F8AF30FB7B022B01D9FFF777
:101710006BFCFB7B1B02BD4A9818FB7B0D22FF2153
:1017200007F020FB0346002B07F04E82FB7BB84AF4
:1017300052F82330C7F88C30FB7B1B02B34A1344AA
:10174000B449184624F084FCC7F88800D7F88830DC
:10175000002B07F07082012387F8AF30D7F888009C
:10176000FFF7DAF9C7F88400D7F88430B3F5807F43
:1017700007F20C82FB7B1B02A74A1344D7F88810A0
:10178000184624F05DFC0423C7F8B4300423C7F8DE
:10179000B03028E0FB7BA04A1B021A44D7F8B430D3
:1017A00013441878FA7BD7F8B43001339A491202FF
:1017B0000A4413441B78FC7B194607F025FB0346BB
:1017C0001946954A23021A44D7F8B03013440A4602
:1017D0001A70D7F8B4300233C7F8B430D7F8B03045
:1017E0000133C7F8B030D7F8B420D7F884309A4224
:1017F000D0D3FB7B884A1B02134404331B78112B84
:1018000008D0FB7B844A1B02134404331B78402B13
:1018100040F03481FB7B804A1B02134404331B7865
:10182000112B55D1FB7B7C4A1B02134403331B78DD
:10183000522B0DD1FB7B784A1B02134405331B78D6
:101840001946002007F008FB0346A7F8AC309DE0DE
:10185000FB7B714A1B02134403331B78572B0DD1BA
:10186000FB7B6D4A1B02134405331B78194601208C
:1018700007F0F2FA0346A7F8AC3087E0FB7B664A34
:101880001B02134403331B78442B04D1D7F8843054
:10189000A7F8AC307AE0FB7B4FF4867202FB03F3CF
:1018A0005E4A13445E491A460B4603CB10605160F2
:1018B000FB7B4FF4867202FB03F3584A134419462C
:1018C000D7F88C00FFF7A4FE97F8AF3007F0B5B952
:1018D000FB7B514A1B02134404331B78402B55D128
:1018E000FB7B4D4A1B02134403331B78522B0DD153
:1018F000FB7B494A1B02134405331B78194602201F
:1019000007F0AAFA0346A7F8AC303FE0FB7B424A57
:101910001B02134403331B78572B0DD1FB7B3E4A2C
:101920001B02134405331B781946032007F094FA71
:101930000346A7F8AC3029E0FB7B374A1B0213446F
:1019400003331B78442B04D1D7F88430A7F8AC308C
:101950001CE0FB7B4FF4867202FB03F32F4A134417
:101960002F491A460B4603CB10605160FB7B4FF4A6
:10197000867202FB03F3294A13441946D7F88C00F8
:10198000FFF746FE97F8AF3007F057B9B7F8AC301D
:1019900009331A46D7F88430934245D1D7F88430BA
:1019A000093B1A46D7F88810002009F081FEC7F8D5
:1019B0008000B7F8AC300133D7F8882013441846BC
:1019C00007F00CFBF867D7F88020FB6F9A4255D0E0
:1019D000FB7B4FF4867202FB03F3104A1344D7F8E3
:1019E00080201049184624F0DFFAFB7B4FF4867202
:1019F00002FB03F3094A13441946D7F88C00FFF79A
:101A000007FE97F8AF3007F018B900BFA40A00200E
:101A100010000020CC830608A407002048150020F1
:101A2000D0830608D8830608B7F8AC30D7F88420EE
:101A30009A4223D0FB7B4FF4867202FB03F3B64A33
:101A40001344B64A1C4615460FCD20606160A26063
:101A5000E3600FCD20616161A261E361FB7B4FF424
:101A6000867202FB03F3AC4A13441946D7F88C0084
:101A7000FFF7CEFD97F8AF3007F0DFB8FB7BA84A41
:101A80001B02134403331B78522B42F0FA82FB7B78
:101A9000A34A1B02134404331B78402B40F0C78039
:101AA000FB7B9F4A1B02134406331B789BB21B022D
:101AB0009AB2FB7B9A491B020B4407331B789BB2FB
:101AC0001344A7F84A30FB7B954A1B0213440533A5
:101AD0001B78012BC0F28E800B2B02DD402B40F0D7
:101AE0008980B7F84A30B3F5005F30D3B7F84A3091
:101AF000B3F5405F2BD2FB7B4FF4867202FB03F3FE
:101B0000854A9818FB7B864A1B02134405331B78D1
:101B10001A46844924F048FAFB7B4FF4867202FB94
:101B200003F37D4A13441946D7F88C00FFF770FD84
:101B3000FB7B7B4A1B02134405331978B7F84A0034
:101B4000002300930023522212F0AAFD50E0B7F8C0
:101B50004A30B3F5805F30D3B7F84A30B3F5005F51
:101B60002BD2FB7B4FF4867202FB03F36A4A981870
:101B7000FB7B6B4A1B02134405331B781A466A49E8
:101B800024F012FAFB7B4FF4867202FB03F3624AE5
:101B900013441946D7F88C00FFF73AFDFB7B604AE7
:101BA0001B02134405331978B7F84A000023009349
:101BB0000023522223F0BCFB1AE0FB7B4FF4867219
:101BC00002FB03F3544A1344B7F84A205749184616
:101BD00024F0EAF9FB7B4FF4867202FB03F34E4AD2
:101BE00013441946D7F88C00FFF712FD07F023B80D
:101BF00007F021B8FB7B4FF4867202FB03F3464AE1
:101C000013444B4A1C4615460FCD20606160A2600C
:101C1000E360FB7B4FF4867202FB03F33E4A1344FE
:101C20001946D7F88C00FFF7F3FC07F004B8FB7BEC
:101C30003B4A1B02134404331B78182B40F03881B5
:101C4000002387F8AB300A23A7F8AC30B7F8AC30E4
:101C500009331A46D7F88430934236D1D7F8843006
:101C6000093B1A46D7F88810002009F021FDC7F873
:101C70008000B7F8AC300133D7F8882013441846F9
:101C800007F0ACF9F867D7F88020FB6F9A4255D07F
:101C9000FB7B4FF4867202FB03F31F4A1344D7F811
:101CA00080202449184624F07FF9FB7B4FF486728C
:101CB00002FB03F3184A13441946D7F88C00FFF7C8
:101CC000A7FC97F8AF3006F0B8BFB7F8AC30D7F83C
:101CD00084209A4232D0FB7B4FF4867202FB03F3DE
:101CE0000D4A1344144A1C46134607CB206061601A
:101CF000A2601B782373FB7B4FF4867202FB03F315
:101D0000054A13441946D7F88C00FFF781FC97F871
:101D1000AF3006F092BF00BF48150020F0830608E0
:101D2000A4070020108406083084060850840608A2
:101D300064840608D883060874840608FB7BB24ACC
:101D40001B02134406331B78302B00F29480FB7B7C
:101D5000AD4A1B02134406331B78002B00F08B8026
:101D600007F04CFC97F8AB30002B1BD097F8AA304B
:101D7000012B0DD097F8AA30032B09D097F8AA3081
:101D8000022B08D1A14B93F83D30DBB2202B02D1BE
:101D90009E4807F0BDFC052008F0E0FF97F8AB3047
:101DA000092B1FD8FB7B984A1B02134406331B7870
:101DB0009AB20A2302930223019307F114030093BA
:101DC00001233021914815F043FC034687F8AA30DF
:101DD00097F8AB30013387F8AB3097F8AA30002B77
:101DE000C0D100E000BF894814F0BAFF97F8AA30CC
:101DF000002B23D13B7D9BB21B029AB27B7D9BB211
:101E00001344A7F84C30FB7B4FF4867202FB03F3BC
:101E10007F4A1344B7F84C207E49184624F0C4F892
:101E2000FB7B4FF4867202FB03F3794A1344194695
:101E3000D7F88C00FFF7ECFB06F0FDBEFB7B4FF400
:101E4000867202FB03F3724A1344734A1C4615461A
:101E50000FCD20606160A260E360FB7B4FF486726F
:101E600002FB03F36A4A13441946D7F88C00FFF7C4
:101E7000CFFB06F0E0BEFB7B4FF4867202FB03F360
:101E8000634A1344654A1C4615460FCD20606160C5
:101E9000A260E360FB7B4FF4867202FB03F35C4AB3
:101EA00013441946D7F88C00FFF7B2FB06F0C3BE07
:101EB000FB7B554A1B02134404331B78332B40F041
:101EC0001881002387F8A8300823A7F8AC30B7F8AA
:101ED000AC3009331A46D7F88430934236D1D7F85C
:101EE0008430093B1A46D7F88810002009F0E0FB3F
:101EF000C7F88000B7F8AC300133D7F88820134416
:101F0000184607F06BF8F867D7F88020FB6F9A4205
:101F100042D0FB7B4FF4867202FB03F33C4A13442E
:101F2000D7F880203E49184624F03EF8FB7B4FF45A
:101F3000867202FB03F3364A13441946D7F88C0025
:101F4000FFF766FB97F8AF3006F077BEB7F8AC3016
:101F5000D7F884209A421FD0FB7B4FF4867202FB95
:101F600003F32B4A13442F4A1C46134607CB206029
:101F70006160A2601B782373FB7B4FF4867202FBC7
:101F800003F3234A13441946D7F88C00FFF740FBAC
:101F900097F8AF3006F051BE07F030FB97F8A83045
:101FA000002B1BD097F8A930012B0DD097F8A93042
:101FB000032B09D097F8A930022B08D1134B93F8C3
:101FC0003D30DBB2202B02D1104807F0A1FB0520E9
:101FD00008F0C4FE97F8A830092B25D807F11002A5
:101FE0000A23009304236621084814F0F7FF0346F0
:101FF00087F8A93097F8A830013387F8A83097F808
:10200000A930002BCAD110E0A4070020B4E50020BD
:1020100048150020848406088C8406089C840608E1
:10202000D88306087484060800BFE24814F098FEBE
:1020300097F8A930002B32D13A7CDF4B1A707A7CAA
:10204000DD4B5A70BA7CDC4B9A70FA7CDA4BDA7052
:10205000FB7B4FF4867202FB03F3D84A9818D64BE9
:102060001B781946D44B5B781C46D34B9B781A4699
:10207000D14BDB780193009223460A46D04923F0E6
:1020800093FFFB7B4FF4867202FB03F3CB4A1344AE
:102090001946D7F88C00FFF7BBFA06F0CCBDFB7BE6
:1020A0004FF4867202FB03F3C44A1344C54A144634
:1020B0009C4604F1200E654626460FCE28606960D6
:1020C000AA60EB6010340CF1100C7445F3D1624639
:1020D00023461B881380FB7B4FF4867202FB03F3BD
:1020E000B64A13441946D7F88C00FFF791FA06F068
:1020F000A2BDFB7BB44A1B02134404331B78112B93
:1021000041F0A287FB7BB04A1B02134405331B78C6
:102110007F2B01F27B8701A252F823F01D230408D4
:10212000132404080D250408E12504080D270408DC
:10213000EB270408DD280408E5290408D72A040849
:10214000972B0408572C0408572D0408172E040851
:10215000D72E0408AF2F0408993004085931040819
:102160000D4004080D4004080D40040831320408F5
:1021700089330408B1340408D93504082D3704081C
:10218000553804087D3904081D3A0408893A0408C2
:10219000F53A0408613B0408CD3B0408393C0408C7
:1021A0000D4004080D4004080D4004080D400408CB
:1021B0000D4004080D4004080D4004080D400408BB
:1021C0000D4004080D4004080D4004080D400408AB
:1021D0000D4004080D4004080D4004080D4004089B
:1021E000253D04080D400408EB3D04080D4004089B
:1021F000A53E04080D4004080D4004080D400408E5
:102200000D4004080D4004080D4004080D4004086A
:102210000D4004080D4004080D4004080D4004085A
:102220000D4004080D4004080D4004080D4004084A
:102230000D4004080D4004080D4004080D4004083A
:102240000D4004080D4004080D4004080D4004082A
:102250000D4004080D4004080D4004080D4004081A
:102260000D4004080D4004080D4004080D4004080A
:102270000D4004080D4004080D4004080D400408FA
:102280000D4004080D4004080D4004080D400408EA
:102290000D4004080D4004080D4004080D400408DA
:1022A000F33E04080D4004080D4004080D400408E6
:1022B0000D4004080D4004080D4004080D400408BA
:1022C0000D4004080D4004080D4004080D400408AA
:1022D0000D4004080D4004080D4004080D4004089A
:1022E0000D4004080D4004080D4004080D4004088A
:1022F0000D4004080D4004080D4004080D4004087A
:102300000D4004080D4004080D4004080D40040869
:102310000D4004080D400408893F040807F120031C
:102320001946302008F0A9F80346012B52D1FB7B57
:102330004FF4867202FB03F3204A9818B7F9203055
:102340001A46B7F922301946B7F9243000930B46E4
:102350001E4923F029FEFB7B4FF4867202FB03F338
:10236000164A13441946D7F88C00FFF751F9FB7B46
:102370004FF4867202FB03F3104A9818B7F9203025
:102380001A46B7F922301946B7F9243000930B46A4
:102390000F4923F009FEFB7B4FF4867202FB03F327
:1023A000064A13441946D7F88C00FFF731F906F0B6
:1023B00042BC00BFB4E5002040EA002048150020E0
:1023C000AC840608C0840608A4070020E48406083C
:1023D000F4840608C14807F09BF9FB7B4FF4867232
:1023E00002FB03F3BE4A1344BE4A18461146542367
:1023F0001A4623F06AF9FB7B4FF4867202FB03F363
:10240000B74A13441946D7F88C00FFF701F906F0D4
:1024100012BCFB7BB44A1B02134406331978FB7BC6
:102420001B020733B04A13441A46302007F0FCFE63
:102430000346012B49D1FB7B4FF4867202FB03F369
:10244000A74A9818FB7BA84A1B02134406331B7843
:102450001946FB7BA44A1B02134407331B780A4628
:10246000A24923F0A1FDFB7B4FF4867202FB03F32C
:102470009B4A13441946D7F88C00FFF7C9F8FB7B39
:102480004FF4867202FB03F3954A9818FB7B964A39
:102490001B02134406331B781946FB7B924A1B022E
:1024A000134407331B780A46914923F07DFDFB7BDB
:1024B0004FF4867202FB03F3894A13441946D7F896
:1024C0008C00FFF7A5F806F0B6BBFB7B4FF48672D5
:1024D00002FB03F3824A1344864A1D4614460FCC7E
:1024E00028606960AA60EB6007CC28616961AA6115
:1024F000FB7B4FF4867202FB03F3794A13441946BF
:10250000D7F88C00FFF784F806F095BB07F120039D
:102510001946322007F0B1FF0346012B41D1FB7B66
:102520004FF4867202FB03F36D4A9818B7F9203016
:102530001A46B7F922301946B7F9243000930B46F2
:102540006D4923F031FDFB7B4FF4867202FB03F3F0
:10255000634A13441946D7F88C00FFF759F8FB7B00
:102560004FF4867202FB03F35D4A9818B7F92030E6
:102570001A46B7F922301946B7F9243000930B46B2
:102580005E4923F011FDFB7B4FF4867202FB03F3DF
:10259000534A13441946D7F88C00FFF739F806F070
:1025A0004ABB4E4807F0B4F8FB7B4FF4867202FB3F
:1025B00003F34B4A1344524A184611464E231A4617
:1025C00023F083F8FB7B4FF4867202FB03F3444A4B
:1025D00013441946D7F88C00FFF71AF806F02BBB06
:1025E000FB7B414A1B02134406331978FB7B1B0219
:1025F00007333D4A13441A46322007F015FE0346BE
:10260000012B49D1FB7B4FF4867202FB03F3344A62
:102610009818FB7B344A1B02134406331B78194677
:10262000FB7B314A1B02134407331B780A463549AA
:1026300023F0BAFCFB7B4FF4867202FB03F3284ABB
:1026400013441946D7F88C00FEF7E2FFFB7B4FF4EA
:10265000867202FB03F3224A9818FB7B224A1B0274
:10266000134406331B781946FB7B1F4A1B02134495
:1026700007331B780A46244923F096FCFB7B4FF472
:10268000867202FB03F3164A13441946D7F88C00EE
:10269000FEF7BEFF06F0CFBAFB7B4FF4867202FB5B
:1026A00003F30F4A1344134A1D4614460FCC286007
:1026B0006960AA60EB6007CC28616961AA61FB7B55
:1026C0004FF4867202FB03F3054A13441946D7F808
:1026D0008C00FEF79DFF06F0AEBA00BF28E6002092
:1026E0004815002014850608A40700206885060800
:1026F00078850608A4850608C0850608D0850608E2
:10270000F0850608408606085086060807F128036B
:102710003821184608F0FAFC0346002B1FD0A748C2
:1027200006F0F6FFFB7B4FF4867202FB03F3A44A2C
:102730001344A44A1C4615460FCD20606160A26078
:10274000E360FB7B4FF4867202FB03F39C4A134465
:102750001946D7F88C00FEF75BFF06F06CBAFB7BDE
:102760004FF4867202FB03F3954A9818D7E90A568C
:10277000D7E90C34D7E90E12CDE90212CDE90034C5
:102780002A463346904923F00FFCFB7B4FF48672B8
:1027900002FB03F38A4A13441946D7F88C00FEF76C
:1027A00037FFFB7B4FF4867202FB03F3844A9818D1
:1027B000D7E90A56D7E90C34D7E90E12CDE902124F
:1027C000CDE900342A463346804923F0EDFBFB7BFC
:1027D0004FF4867202FB03F3794A13441946D7F883
:1027E0008C00FEF715FF06F026BAFB7B784A1B0229
:1027F000134406331978FB7B1B020733744A1344D6
:102800001A4638200CF08EFF0346012B49D1FB7B82
:102810004FF4867202FB03F3694A9818FB7B6C4AFB
:102820001B02134406331B781946FB7B684A1B02C4
:10283000134407331B780A46664923F0B5FBFB7B3C
:102840004FF4867202FB03F35D4A13441946D7F82E
:102850008C00FEF7DDFEFB7B4FF4867202FB03F378
:10286000574A9818FB7B5A4A1B02134406331B78BD
:102870001946FB7B564A1B02134407331B780A4652
:10288000554923F091FBFB7B4FF4867202FB03F367
:102890004B4A13441946D7F88C00FEF7B9FE06F0F0
:1028A000CAB9FB7B4FF4867202FB03F3444A13441C
:1028B000444A1C4615460FCD20606160A260E3606B
:1028C000FB7B4FF4867202FB03F33D4A1344194627
:1028D000D7F88C00FEF79CFE06F0ADB93C2008F05E
:1028E000DAFB07F128033C21184608F00FFC0346E9
:1028F000002B1CD0FB7B4FF4867202FB03F3304AA3
:102900001344304A1C4615460FCD20606160A2601A
:10291000E360FB7B4FF4867202FB03F3284A134407
:102920001946D7F88C00FEF773FE06F084B9FB7BDE
:102930004FF4867202FB03F3214A9818D7E90A562E
:10294000D7E90C34D7E90E12CDE90212CDE90034F3
:102950002A463346214923F027FBFB7B4FF486723E
:1029600002FB03F3164A13441946D7F88C00FEF70E
:102970004FFEFB7B4FF4867202FB03F3104A98185C
:10298000D7E90A56D7E90C34D7E90E12CDE902127D
:10299000CDE900342A463346114923F005FBFB7B81
:1029A0004FF4867202FB03F3054A13441946D7F825
:1029B0008C00FEF72DFE06F03EB900BF28E6002091
:1029C000481500208C8406087C8606089486060834
:1029D000A407002068850608E08606080887060820
:1029E00020870608FB7BC34A1B0213440633197871
:1029F000FB7B1B020733BF4A13441A463C200CF0F2
:102A000091FE0346012B49D1FB7B4FF4867202FBFA
:102A100003F3B94A9818FB7BB64A1B0213440633EA
:102A20001B781946FB7BB34A1B02134407331B7800
:102A30000A46B24923F0B8FAFB7B4FF4867202FBD8
:102A400003F3AD4A13441946D7F88C00FEF7E0FDB6
:102A5000FB7B4FF4867202FB03F3A74A9818FB7BBB
:102A6000A44A1B02134406331B781946FB7BA14A78
:102A70001B02134407331B780A46A14923F094FA3A
:102A8000FB7B4FF4867202FB03F39B4A1344194607
:102A9000D7F88C00FEF7BCFD06F0CDB8FB7B4FF4F9
:102AA000867202FB03F3944A1344964A1C46154669
:102AB0000FCD20606160A260E360FB7B4FF4867203
:102AC00002FB03F38C4A13441946D7F88C00FEF737
:102AD0009FFD06F0B0B807F12003194600200DF065
:102AE000CDFA0346012B39D1B7F9203047F6FF72F2
:102AF000934233D0FB7B4FF4867202FB03F37E4A92
:102B00001344B7F920208049184623F04DFAFB7B87
:102B10004FF4867202FB03F3774A13441946D7F841
:102B20008C00FEF775FDFB7B4FF4867202FB03F30E
:102B3000714A1344B7F920207449184623F034FA37
:102B4000FB7B4FF4867202FB03F36B4A1344194676
:102B5000D7F88C00FEF75CFD06F06DB8FB7B4FF4F8
:102B6000867202FB03F3644A1344664A1C46154608
:102B70000FCD20606160A260E360FB7B4FF4867242
:102B800002FB03F35C4A13441946D7F88C00FEF7A6
:102B90003FFD06F050B807F12003194600200DF064
:102BA0003FFB0346012B39D1B7F9203047F6FF72BE
:102BB000934233D0FB7B4FF4867202FB03F34E4A01
:102BC0001344B7F920205049184623F0EDF9FB7B58
:102BD0004FF4867202FB03F3474A13441946D7F8B1
:102BE0008C00FEF715FDFB7B4FF4867202FB03F3AE
:102BF000414A1344B7F920204549184623F0D4F937
:102C0000FB7B4FF4867202FB03F33B4A13441946E5
:102C1000D7F88C00FEF7FCFC06F00DB8FB7B4FF4F8
:102C2000867202FB03F3344A1344364A1C461546A7
:102C30000FCD20606160A260E360FB7B4FF4867281
:102C400002FB03F32C4A13441946D7F88C00FEF715
:102C5000DFFC05F0F0BFFB7B264A1B021344063362
:102C60001B7807F14801032218460DF043F903468B
:102C7000012B53D1FB7B4FF4867202FB03F31E4AF8
:102C80009818FB7B1B4A1B02134406331B781A4619
:102C9000B7F848301F4923F087F9FB7B4FF4867261
:102CA00002FB03F3144A13441946D7F88C00FEF7CD
:102CB000AFFCFB7B4FF4867202FB03F30E4A9818BD
:102CC000FB7B0C4A1B02134406331B781A46B7F8E9
:102CD0004830114923F068F9FB7B4FF4867202FB00
:102CE00003F3054A13441946D7F88C00FEF790FC0D
:102CF00005F0A1BFA4070020481500204086060863
:102D00006C8706088C840608948706089C8706084A
:102D1000B487060868850608CC870608FB7B4FF455
:102D2000867202FB03F3D24A1344D24A1C4615466C
:102D30000FCD20606160A260E360FB7B4FF4867280
:102D400002FB03F3CA4A13441946D7F88C00FEF776
:102D50005FFC05F070BF07F12003194601200DF05C
:102D60008DF90346012B39D1B7F9223047F6FF72AE
:102D7000934233D0FB7B4FF4867202FB03F3BC4AD1
:102D80001344B7F92220BC49184623F00DF9FB7B08
:102D90004FF4867202FB03F3B54A13441946D7F881
:102DA0008C00FEF735FCFB7B4FF4867202FB03F3CD
:102DB000AF4A1344B7F92220B049184623F0F4F87B
:102DC000FB7B4FF4867202FB03F3A94A13441946B6
:102DD000D7F88C00FEF71CFC05F02DBFFB7B4FF4F1
:102DE000867202FB03F3A24A1344A24A1C4615460C
:102DF0000FCD20606160A260E360FB7B4FF48672C0
:102E000002FB03F39A4A13441946D7F88C00FEF7E5
:102E1000FFFB05F010BF07F12003194601200DF05C
:102E2000FFF90346012B39D1B7F9223047F6FF727B
:102E3000934233D0FB7B4FF4867202FB03F38C4A40
:102E40001344B7F922208C49184623F0ADF8FB7BD8
:102E50004FF4867202FB03F3854A13441946D7F8F0
:102E60008C00FEF7D5FBFB7B4FF4867202FB03F36D
:102E70007F4A1344B7F922208149184623F094F879
:102E8000FB7B4FF4867202FB03F3794A1344194625
:102E9000D7F88C00FEF7BCFB05F0CDBEFB7B4FF4F2
:102EA000867202FB03F3724A1344724A1C461546AB
:102EB0000FCD20606160A260E360FB7B4FF48672FF
:102EC00002FB03F36A4A13441946D7F88C00FEF755
:102ED0009FFB05F0B0BEFB7B6A4A1B02134406331E
:102EE0001B7807F14801042218460DF003F8034649
:102EF000012B3FD1FB7B4FF4867202FB03F35C4A4C
:102F00009818FB7B5F4A1B02134406331B781A4652
:102F1000B7F848305C4923F047F8FB7B4FF48672E2
:102F200002FB03F3524A13441946D7F88C00FEF70C
:102F30006FFBFB7B4FF4867202FB03F34C4A98183D
:102F4000FB7B504A1B02134406331B781A46B7F822
:102F500048304E4923F028F8FB7B4FF4867202FB81
:102F600003F3434A13441946D7F88C00FEF750FB8D
:102F700005F061BEFB7B4FF4867202FB03F33C4A13
:102F800013443C4A1C4615460FCD20606160A26088
:102F9000E360FB7B4FF4867202FB03F3344A134475
:102FA0001946D7F88C00FEF733FB05F044BE07F155
:102FB0002003194602200DF061F80346012B39D198
:102FC000B7F9243047F6FF72934233D0FB7B4FF4BE
:102FD000867202FB03F3264A1344B7F924202C49D6
:102FE000184622F0E1FFFB7B4FF4867202FB03F3ED
:102FF0001F4A13441946D7F88C00FEF709FBFB7BE8
:103000004FF4867202FB03F3194A1344B7F92420E4
:103010002049184622F0C8FFFB7B4FF4867202FB62
:1030200003F3134A13441946D7F88C00FEF7F0FA5D
:1030300005F001BEFB7B4FF4867202FB03F30C4AE2
:1030400013440C4A1C4615460FCD20606160A260F7
:10305000E360FB7B4FF4867202FB03F3044A1344E4
:103060001946D7F88C00FEF7D3FA05F0E4BD00BF8F
:10307000481500208C840608F0870608F8870608A3
:1030800010880608A407002040860608288806083D
:103090004C8806085488060807F1200319460220C8
:1030A0000DF0BEF80346012B39D1B7F9243047F6AD
:1030B000FF72934233D0FB7B4FF4867202FB03F323
:1030C000A54A1344B7F92420A449184622F06CFFFE
:1030D000FB7B4FF4867202FB03F39F4A13441946AD
:1030E000D7F88C00FEF794FAFB7B4FF4867202FB54
:1030F00003F3994A1344B7F924209949184622F05A
:1031000053FFFB7B4FF4867202FB03F3924A134496
:103110001946D7F88C00FEF77BFA05F08CBDFB7BD7
:103120004FF4867202FB03F38B4A13448D4A1C460C
:1031300015460FCD20606160A260E360FB7B4FF419
:10314000867202FB03F3844A13441946D7F88C00B5
:10315000FEF75EFA05F06FBDFB7B834A1B0213444A
:1031600006331B7807F14801052218460CF0C2FE11
:103170000346012B3FD1FB7B4FF4867202FB03F326
:10318000754A9818FB7B784A1B02134406331B7858
:103190001A46B7F84830754922F006FFFB7B4FF41A
:1031A000867202FB03F36C4A13441946D7F88C006D
:1031B000FEF72EFAFB7B4FF4867202FB03F3664A9E
:1031C0009818FB7B684A1B02134406331B781A4687
:1031D000B7F84830664922F0E7FEFB7B4FF4867271
:1031E00002FB03F35C4A13441946D7F88C00FEF740
:1031F0000FFA05F020BDFB7B4FF4867202FB03F350
:10320000554A1344574A1C4615460FCD206061604D
:10321000A260E360FB7B4FF4867202FB03F34E4A2D
:1032200013441946D7F88C00FEF7F2F905F003BDF8
:103230000CF02AFC07F1180318460DF0DFF80346DE
:10324000012B63D14B4B1B78DBB203F00103002B46
:103250005CD0B7F91830002B00DA0733DB101BB253
:103260001A4613469B0013445B00002B00DA0F3311
:103270001B11A7F84E30FB7B4FF4867202FB03F361
:10328000354A1344B7F9182092B23B49184622F048
:103290008BFEFB7B4FF4867202FB03F32E4A134432
:1032A0001946D7F88C00FEF7B3F9FB7B4FF4867212
:1032B00002FB03F3284A9818B7F94E302F4A82FBD5
:1032C00003129210DB17D31A1BB21C46B7F94E201B
:1032D0002A4B83FB02139910D317C91A0B469B0084
:1032E0000B445B00D31A1BB22246254922F05CFE38
:1032F000FB7B4FF4867202FB03F3174A1344194613
:10330000D7F88C00FEF784F905F095BCFB7B4FF4F1
:10331000867202FB03F3104A13441A4A1D461446F0
:103320000FCC28606960AA60EB6007CC28616961F6
:10333000AA612388A278AB831346AB77FB7B4FF45B
:10334000867202FB03F3044A13441946D7F88C0033
:10335000FEF75EF905F06FBC481500204C880608A2
:103360006C8806088C840608A40700208488060858
:103370009488060800CF0020B8880608676666664D
:10338000C4880608E88806080CF07EFB07F11803DD
:1033900018460DF033F80346012B63D1C54B1B785B
:1033A000DBB203F00203002B5CD0B7F91A30002B1C
:1033B00000DA0733DB101BB21A4613469B00134496
:1033C0005B00002B00DA0F331B11A7F84E30FB7B9C
:1033D0004FF4867202FB03F3B74A1344B7F91A207D
:1033E00092B2B649184622F0DFFDFB7B4FF486729D
:1033F00002FB03F3B04A13441946D7F88C00FEF7DA
:1034000007F9FB7B4FF4867202FB03F3AA4A981874
:10341000B7F94E30AA4A82FB03129210DB17D31A77
:103420001BB21C46B7F94E20A54B83FB0213991023
:10343000D317C91A0B469B000B445B00D31A1BB26F
:103440002246A04922F0B0FDFB7B4FF4867202FBBE
:1034500003F3994A13441946D7F88C00FEF7D8F8BD
:1034600005F0E9BBFB7B4FF4867202FB03F3924A43
:103470001344954A1D4614460FCC28606960AA6023
:10348000EB6007CC28616961AA612388A278AB83CD
:103490001346AB77FB7B4FF4867202FB03F3864A3D
:1034A00013441946D7F88C00FEF7B2F805F0C3BBF9
:1034B0000CF0EAFA07F1180318460CF09FFF0346D8
:1034C000012B63D17B4B1B78DBB203F00403002B91
:1034D0005CD0B7F91C30002B00DA0733DB101BB2CD
:1034E0001A4613469B0013445B00002B00DA0F338F
:1034F0001B11A7F84E30FB7B4FF4867202FB03F3DF
:103500006D4A1344B7F91C2092B27049184622F054
:103510004BFDFB7B4FF4867202FB03F3664A1344B8
:103520001946D7F88C00FEF773F8FB7B4FF48672D0
:1035300002FB03F3604A9818B7F94E30604A82FBE9
:1035400003129210DB17D31A1BB21C46B7F94E2098
:103550005B4B83FB02139910D317C91A0B469B00D0
:103560000B445B00D31A1BB22246594922F01CFDC2
:10357000FB7B4FF4867202FB03F34F4A1344194658
:10358000D7F88C00FEF744F805F055BBFB7B4FF4F1
:10359000867202FB03F3484A13444E4A1D46144602
:1035A0000FCC28606960AA60EB6007CC2861696174
:1035B000AA612388A278AB831346AB77FB7B4FF4D9
:1035C000867202FB03F33C4A13441946D7F88C0079
:1035D000FEF71EF805F02FBB0CF056FA07F11803A2
:1035E00018460CF071FF0346012B79D1314B1B7843
:1035F000DBB203F00803002B72D0B7F91830002BB0
:1036000000DA0733DB101BB21A4613469B00134443
:103610005B00002B00DA0F331B11A7F84E30FB7B49
:103620004FF4867202FB03F3234A1344B7F91820C0
:1036300092B22949184622F0B7FCFB7B4FF4867200
:1036400002FB03F31C4A13441946D7F88C00FDF71C
:10365000DFFFFB7B4FF4867202FB03F3164A9818D8
:10366000B7F94E30164A82FB03129210DB17D31AB9
:103670001BB21C46B7F94E20114B83FB0213991065
:10368000D317C91A0B469B000B445B00D31A1BB21D
:103690002246124922F088FCFB7B4FF4867202FB23
:1036A00003F3054A13441946D7F88C00FDF7B0FF21
:1036B00005F0C1BA00CF002048150020088906088F
:1036C00067666666148906083889060858890608F8
:1036D0006489060888890608A8890608B489060846
:1036E000FB7B4FF4867202FB03F3BF4A1344BF4ACD
:1036F0001D4614460FCC28606960AA60EB6007CCB9
:1037000028616961AA612388A278AB831346AB77ED
:10371000FB7B4FF4867202FB03F3B34A1344194652
:10372000D7F88C00FDF774FF05F085BA0CF0ACF902
:1037300007F1180318460CF0C7FE0346012B63D1AE
:10374000AB4B1B78DBB203F01003002B5CD0B7F956
:103750001A30002B00DA0733DB101BB21A4613466F
:103760009B0013445B00002B00DA0F331B11A7F8FA
:103770004E30FB7B4FF4867202FB03F39A4A1344EC
:10378000B7F91A2092B29B49184622F00DFCFB7B38
:103790004FF4867202FB03F3934A13441946D7F899
:1037A0008C00FDF735FFFB7B4FF4867202FB03F3C1
:1037B0008D4A9818B7F94E308F4A82FB0312921047
:1037C000DB17D31A1BB21C46B7F94E208A4B83FB7A
:1037D00002139910D317C91A0B469B000B445B00C8
:1037E000D31A1BB22246854922F0DEFBFB7B4FF445
:1037F000867202FB03F37C4A13441946D7F88C0007
:10380000FDF706FF05F017BAFB7B4FF4867202FB4B
:1038100003F3754A13447A4A1D4614460FCC2860B8
:103820006960AA60EB6007CC28616961AA6123889E
:10383000A278AB831346AB77FB7B4FF4867202FB17
:1038400003F3694A13441946D7F88C00FDF7E0FEEC
:1038500005F0F1B90CF018F907F1180318460CF04F
:1038600033FE0346012B63D1614B1B78DBB203F0BF
:103870002003002B5CD0B7F91C30002B00DA073393
:10388000DB101BB21A4613469B0013445B00002B4F
:1038900000DA0F331B11A7F84E30FB7B4FF4867212
:1038A00002FB03F3504A1344B7F91C2092B2554966
:1038B000184622F079FBFB7B4FF4867202FB03F380
:1038C000494A13441946D7F88C00FDF7A1FEFB7B4B
:1038D0004FF4867202FB03F3434A9818B7F94E304F
:1038E000454A82FB03129210DB17D31A1BB21C4607
:1038F000B7F94E20404B83FB02139910D317C91A16
:103900000B469B000B445B00D31A1BB222463E4978
:1039100022F04AFBFB7B4FF4867202FB03F3324A30
:1039200013441946D7F88C00FDF772FE05F083B9F1
:10393000FB7B4FF4867202FB03F32B4A1344334A9A
:103940001D4614460FCC28606960AA60EB6007CC66
:1039500028616961AA612388A278AB831346AB779B
:10396000FB7B4FF4867202FB03F31F4A1344194694
:10397000D7F88C00FDF74CFE05F05DB90CF01CFA91
:10398000FB7B4FF4867202FB03F3174A9818204B17
:103990001B881A461F4922F007FBFB7B4FF48672F7
:1039A00002FB03F3104A13441946D7F88C00FDF7C5
:1039B0002FFEFB7B4FF4867202FB03F30A4A981832
:1039C000134B1B881A46144922F0EEFAFB7B4FF486
:1039D000867202FB03F3044A13441946D7F88C009D
:1039E000FDF716FE05F027B948150020D88906080E
:1039F00000CF0020F889060867666666048A060814
:103A0000288A0608488A0608548A0608788A06081A
:103A100004CF0020988A0608A48A06080CF0CCF986
:103A2000FB7B4FF4867202FB03F3AF4A9818AF4B4F
:103A30005B881A46AE4922F0B7FAFB7B4FF48672D8
:103A400002FB03F3A84A13441946D7F88C00FDF78C
:103A5000DFFDFB7B4FF4867202FB03F3A24A98184A
:103A6000A24B5B881A46A34922F09EFAFB7B4FF4D7
:103A7000867202FB03F39C4A13441946D7F88C0064
:103A8000FDF7C6FD05F0D7B80CF096F9FB7B4FF4B7
:103A9000867202FB03F3944A9818944B9B881A464B
:103AA000954922F081FAFB7B4FF4867202FB03F307
:103AB0008D4A13441946D7F88C00FDF7A9FDFB7B0E
:103AC0004FF4867202FB03F3874A9818874B9B8852
:103AD0001A468A4922F068FAFB7B4FF4867202FB91
:103AE00003F3814A13441946D7F88C00FDF790FD83
:103AF00005F0A1B80CF060F9FB7B4FF4867202FB75
:103B000003F3794A9818794BDB881A467C4922F0EE
:103B10004BFAFB7B4FF4867202FB03F3724A1344A9
:103B20001946D7F88C00FDF773FDFB7B4FF48672C6
:103B300002FB03F36C4A98186C4BDB881A467149F8
:103B400022F032FAFB7B4FF4867202FB03F3664AE3
:103B500013441946D7F88C00FDF75AFD05F06BB8F1
:103B60000CF02AF9FB7B4FF4867202FB03F35E4AEA
:103B700098185E4B1B891A46634922F015FAFB7BA5
:103B80004FF4867202FB03F3574A13441946D7F8E1
:103B90008C00FDF73DFDFB7B4FF4867202FB03F3C7
:103BA000514A9818514B1B891A46584922F0FCF982
:103BB000FB7B4FF4867202FB03F34B4A1344194616
:103BC000D7F88C00FDF724FD05F035B80CF0F4F8BB
:103BD000FB7B4FF4867202FB03F3434A9818434B76
:103BE0005B891A464A4922F0DFF9FB7B4FF4867263
:103BF00002FB03F33C4A13441946D7F88C00FDF747
:103C000007FDFB7B4FF4867202FB03F3364A9818DC
:103C1000364B5B891A463F4922F0C6F9FB7B4FF4CD
:103C2000867202FB03F3304A13441946D7F88C001E
:103C3000FDF7EEFC04F0FFBF4FF40061364812F0D0
:103C400065FF0346FB754FF48061334812F05EFF59
:103C500003465B005AB2FB7D5BB213435BB2DBB23F
:103C6000FB754FF400712C4812F050FF03469B0087
:103C70005AB2FB7D5BB213435BB2DBB2FB754021F2
:103C8000254812F043FF0346DB005AB2FB7D5BB2CE
:103C900013435BB2DBB2FB754021204812F036FFC4
:103CA00003461B015AB2FB7D5BB213435BB2DBB22E
:103CB000FB75FB7B4FF4867202FB03F30A4A134445
:103CC000FA7D1749184622F06FF9FB7B4FF4867294
:103CD00002FB03F3044A13441946D7F88C00FDF79E
:103CE00097FC04F0A8BF00BF4815002004CF0020B7
:103CF000C08A0608CC8A0608E88A0608F48A0608FC
:103D0000108B06081C8B0608388B0608448B0608A7
:103D1000608B06086C8B060800180240000C0240FD
:103D2000888B0608A74817F026FDA74B1B681A4684
:103D3000A649A44817F0BDFBA34B1B681A46A4492B
:103D4000A04817F0C9FC012007F008F89E4B1B683B
:103D50001A469E499B4817F0ACFB0346002B20D126
:103D6000FB7B4FF4867202FB03F39A4A9818974B39
:103D70001B781A46954B5B781946944B9B780093B9
:103D80000B46954922F010F9FB7B4FF4867202FB3B
:103D900003F3904A13441946D7F88C00FDF738FC1A
:103DA0001AE0FB7B4FF4867202FB03F3894A13444B
:103DB0008A4A1C4615460FCD20606160A260E36010
:103DC000FB7B4FF4867202FB03F3824A13441946CD
:103DD000D7F88C00FDF71CFC7B4B1B681A467C490E
:103DE000784817F079FC04F026BF764817F0C3FC3A
:103DF000754B1B681A467549724817F05AFB724B8F
:103E00001B681A4672496F4817F066FC012006F0DD
:103E1000A5FF6D4B1B681A466D496A4817F05CFC9C
:103E20000346002B21D1FB7B4FF4867202FB03F388
:103E3000684A9818664BDB781A46654B5B781946DA
:103E4000634B9B7800930B46654922F0ADF8FB7BF2
:103E50004FF4867202FB03F35E4A13441946D7F807
:103E60008C00FDF7D5FB04F0E6BEFB7B4FF48672B9
:103E700002FB03F3574A1344584A1C4615460FCD1C
:103E800020606160A260E360FB7B4FF4867202FBFE
:103E900003F3504A13441946D7F88C00FDF7B8FBDA
:103EA00004F0C9BEFB7B4FF4867202FB03F3494A60
:103EB00098184C4B1B6819464B4B1B781C464B4BB8
:103EC0001B781A464A4B1B780193009223460A46F8
:103ED000484922F069F8FB7B4FF4867202FB03F33A
:103EE0003C4A13441946D7F88C00FDF791FB04F0C7
:103EF000A2BEFB7B4FF4867202FB03F3354A98188F
:103F00003D4B1B689B689C463B4B1B68DB689E4691
:103F1000394B1B681B691A46374B1B685B6919468E
:103F2000354B1B689B691C46334B1B68DB691D4680
:103F3000314B1B681B6A1E462F4B1B685B6ABB60BC
:103F40002D4B1B689B6A7B602B4B1B68DB6A0793BE
:103F50007B680693BB6805930496039502940191D0
:103F6000009273466246254922F01EF8FB7B4FF40F
:103F7000867202FB03F3174A13441946D7F88C00E4
:103F8000FDF746FB04F057BEFB7B4FF4867202FB45
:103F900003F3104A98181A4B01931A4B00935923B4
:103FA0000122194922F000F8FB7B4FF4867202FBD4
:103FB00003F3084A13441946D7F88C00FDF728FB91
:103FC00004F039BE4CE80020A007002008E60020DD
:103FD00048E80020481500209C8B06088C840608C1
:103FE000B48B0608A41A0020A21A0020A11A0020EF
:103FF000A01A0020D88B060828040020088C060888
:1040000094830608A0830608C48C0608FB7B4FF443
:10401000867202FB03F3CF4A1344CF4A1C4615466F
:104020000FCD20606160A260E360FB7B4FF486727D
:1040300002FB03F3C74A13441946D7F88C00FDF777
:10404000E7FA00BF04F0F7BDFB7B4FF4867202FB7A
:1040500003F3C04A1344C1491A460B4603CB106010
:1040600051601B781372FB7B4FF4867202FB03F3E3
:10407000B84A13441946D7F88C00FDF7C9FA04F082
:10408000DABDFB7BB64A1B02134403331B78572B64
:1040900042F0BD85FB7BB24A1B02134404331B78FC
:1040A000402B40F09B82FB7BAD4A1B02134407333D
:1040B0001B789BB21B029AB2FB7BA9491B020B44E3
:1040C00008331B789BB21344A7F85030B7F8503030
:1040D000B3F5005F2ED3B7F85030B3F5405F29D267
:1040E000FB7B9F4A1B02134406331B78043B87F873
:1040F000A730002387F8A630FB7B4FF4867202FBC3
:1041000003F3944A9818FB7B954A1B02134405332A
:104110001B781A46934921F047FFFB7B4FF48672C8
:1041200002FB03F38B4A13441946D7F88C00FDF7C2
:104130006FFA4CE0B7F85030B3F5805F2ED3B7F884
:104140005030B3F5005F29D2FB7B854A1B02134434
:1041500006331B78043B87F8A730012387F8A63085
:10416000FB7B4FF4867202FB03F37A4A9818FB7BC1
:104170007B4A1B02134405331B781A467A4921F007
:1041800013FFFB7B4FF4867202FB03F3714A134467
:104190001946D7F88C00FDF73BFA18E0FB7B4FF48B
:1041A000867202FB03F36B4A1344B7F850206F4941
:1041B000184621F0F9FEFB7B4FF4867202FB03F3F5
:1041C000644A13441946D7F88C00FDF721FAFB7BAB
:1041D000634A1B02134405331B78013B312B00F269
:1041E000DE8101A252F823F0B1420408B142040872
:1041F000B9430408B1420408B1420408B1420408BA
:10420000B14204085B440408FD4404089F450408C7
:104210009F450408B14204089F4504089F450408CF
:104220009F4504089F4504089F4504089F450408CE
:104230009F4504089F4504089F4504089F450408BE
:104240009F4504089F4504089F4504089F450408AE
:104250009F4504089F4504089F4504089F4504089E
:104260009F4504089F4504089F4504089F4504088E
:104270009F4504089F4504089F4504089F4504087E
:104280009F4504089F4504089F4504089F4504086E
:104290009F4504089F4504089F4504089F4504085E
:1042A0009F450408714304087143040871430408DE
:1042B000002387F8A53018E097F8A5300E331A468A
:1042C000D7F8883013441978FA7B97F8A53009336A
:1042D0003039C8B2224912020A44134402461A7005
:1042E00097F8A530013387F8A53097F8A530012B52
:1042F000E2D997F8A630002B15D1FB7B184A1B0298
:10430000134405331978FB7B1B020933144A134409
:1043100097F8A720B7F8500000931346572210F0E3
:10432000BFF904F088BCFB7B0D4A1B021344053324
:104330001978FB7B1B020933094A134497F8A7201D
:10434000B7F8500000931346572220F0F1FF04F015
:1043500072BC00BF481500209C840608E08C06084B
:10436000A40700201084060830840608508406083C
:1043700097F8A630002B0FD1FB7BBF4A1B021344DA
:1043800005331978B7F85000002300930023572213
:1043900010F086F904F04FBCFB7BB74A1B021344B4
:1043A00005331978B7F850000023009300235722F3
:1043B00020F0BEFF04F03FBC002387F8A43018E0D3
:1043C00097F8A4300E331A46D7F88830134419787A
:1043D000FA7B97F8A43009333039C8B2A6491202E3
:1043E0000A44134402461A7097F8A430013387F840
:1043F000A43097F8A430072BE2D997F8A630002B09
:1044000015D1FB7B9C4A1B02134405331978FB7BB7
:104410001B020933984A134497F8A720B7F85000B5
:1044200000931346572210F03BF904F004BCFB7BC9
:10443000914A1B02134405331978FB7B1B02093395
:104440008D4A134497F8A720B7F8500000931346FD
:10445000572220F06DFF04F0EEBB002387F8A33055
:1044600018E097F8A3300E331A46D7F88830134473
:104470001978FA7B97F8A33009333039C8B27E49EE
:1044800012020A44134402461A7097F8A33001330B
:1044900087F8A33097F8A330032BE2D997F8A6301A
:1044A000002B15D1FB7B744A1B021344053319788A
:1044B000FB7B1B020933704A134497F8A720B7F817
:1044C000500000931346572210F0EAF804F0B3BBF3
:1044D000FB7B694A1B02134405331978FB7B1B02E3
:1044E0000933654A134497F8A720B7F850000093A2
:1044F0001346572220F01CFF04F09DBB002387F8D1
:10450000A23018E097F8A2300E331A46D7F8883058
:1045100013441978FA7B97F8A23009333039C8B2BE
:10452000554912020A44134402461A7097F8A23001
:10453000013387F8A23097F8A230172BE2D997F809
:10454000A630002B15D1FB7B4B4A1B0213440533CD
:104550001978FB7B1B020933474A134497F8A720BD
:10456000B7F8500000931346572210F099F804F062
:1045700062BBFB7B404A1B02134405331978FB7B6B
:104580001B0209333C4A134497F8A720B7F85000A0
:1045900000931346572220F0CBFE04F04CBBFB7B6C
:1045A0004FF4867202FB03F3344A1344344A1D4627
:1045B00014460FCC28606960AA60EB6023882B82C8
:1045C000FB7B4FF4867202FB03F32C4A134419461B
:1045D000D7F88C00FDF71CF804F02DBBFB7B264AB6
:1045E0001B02134404331B78182B40F01F81002357
:1045F00087F8A1300E23A7F8AC30B7F8AC300933F8
:104600001A46D7F8843093423ED1D7F88430093B1C
:104610001A46D7F88810002007F04AF8C7F880003B
:10462000B7F8AC300133D7F888201344184604F0AB
:10463000D5FCF867D7F88020FB6F9A424AD0FB7B05
:104640004FF4867202FB03F30C4A1344D7F8802020
:104650000C49184621F0A8FCFB7B4FF4867202FB44
:1046600003F3064A13441946D7F88C00FCF7D0FF31
:1046700097F8AF3004F0E1BAA407002048150020F5
:10468000EC8C0608D8830608B7F8AC30D7F884203D
:104690009A421FD0FB7B4FF4867202FB03F3BB4AA6
:1046A0001344BB4A1C46134607CB20606160A260DE
:1046B0001B782373FB7B4FF4867202FB03F3B34A30
:1046C00013441946D7F88C00FCF7A2FF97F8AF30D7
:1046D00004F0B3BAFB7BAF4A1B02134407331B78C9
:1046E000122B00F2868004F089FF97F8A130002B8E
:1046F0001BD097F8A030012B0DD097F8A030032BDA
:1047000009D097F8A030022B08D1A34B93F83D3085
:10471000DBB2202B02D1A04804F0FAFF052006F0FE
:104720001DFB97F8A130092B18D8FB7B1B02073320
:10473000984A1A440A23009302233021964812F023
:104740003FFB034687F8A03097F8A130013387F884
:10475000A13097F8A030002BC7D100E000BF8E48F1
:1047600012F0FEFA97F8A030002B25D1FB7B4FF416
:10477000867202FB03F3854A9818FB7B854A1B026D
:10478000134405331B781946FB7B824A1B021344F2
:1047900007331B780A46814921F006FCFB7B4FF466
:1047A000867202FB03F3794A13441946D7F88C004A
:1047B000FCF72EFF04F03FBAFB7B4FF4867202FB3E
:1047C00003F3724A1344764A1C4615460FCD206007
:1047D0006160A260E360FB7B4FF4867202FB03F32F
:1047E0006A4A13441946D7F88C00FCF711FF04F00D
:1047F00022BAFB7B4FF4867202FB03F3634A134435
:10480000684A1C4615460FCD20606160A260E360D7
:10481000FB7B4FF4867202FB03F35C4A1344194698
:10482000D7F88C00FCF7F4FE04F005BAFB7B594A7C
:104830001B02134404331B78332B40F00281002306
:1048400087F89F300C23A7F8AC30B7F8AC300933A9
:104850001A46D7F88430934236D1D7F88430093BD2
:104860001A46D7F88810002006F022FFC7F880000B
:10487000B7F8AC300133D7F888201344184604F059
:10488000ADFBF867D7F88020FB6F9A4242D0FB7BE4
:104890004FF4867202FB03F33C4A1344D7F880209E
:1048A0004149184621F080FBFB7B4FF4867202FBE6
:1048B00003F3364A13441946D7F88C00FCF7A8FED8
:1048C00097F8AF3004F0B9B9B7F8AC30D7F8842016
:1048D0009A421FD0FB7B4FF4867202FB03F32B4AF4
:1048E00013442B4A1C46134607CB20606160A2602C
:1048F0001B782373FB7B4FF4867202FB03F3234A7E
:1049000013441946D7F88C00FCF782FE97F8AF30B5
:1049100004F093B904F072FE97F89F30002B1BD07F
:1049200097F89E30012B0DD097F89E30032B09D0BD
:1049300097F89E30022B08D1174B93F83D30DBB22D
:10494000202B02D1144804F0E3FE052006F006FAFD
:1049500097F89F30092B29D8FB7B1B0207330D4AA0
:104960001A440A230093012366210B4812F028FA07
:10497000034687F89E3097F89F30013387F89F30C1
:1049800097F89E30002BC7D111E000BF48150020DA
:1049900074840608A4070020B4E50020008D0608F2
:1049A0008C8406089C840608D883060800BFB34898
:1049B00012F0D6F997F89E30002B25D1FB7B4FF4EF
:1049C000867202FB03F3AE4A9818FB7BAD4A1B02CA
:1049D000134405331B781946FB7BAA4A1B02134478
:1049E00007331B780A46A84921F0DEFAFB7B4FF417
:1049F000867202FB03F3A24A13441946D7F88C00CF
:104A0000FCF706FE04F017B9FB7B4FF4867202FB3D
:104A100003F39B4A13449D4A1C4615460FCD206064
:104A20006160A260E360FB7B4FF4867202FB03F3DC
:104A3000934A13441946D7F88C00FCF7E9FD04F0BB
:104A4000FAB8FB7B8F4A1B02134404331B78112BEB
:104A500041F04C87FB7B8B4A1B02134405331B78C8
:104A6000802B01F22687FB7B864A1B021344053309
:104A70001B78013B7E2B01F2FE8601A252F823F047
:104A8000914C0408776804088D4D04087768040881
:104A9000894E040877680408A14F04087768040861
:104AA0007768040895500408776804087768040854
:104AB000955104087768040877680408B55204081B
:104AC000B5530408A9550408735704087768040807
:104AD000776804087768040877680408776804082A
:104AE000776804087768040877680408776804081A
:104AF000776804087768040877680408615904082F
:104B000077680408776804087768040877680408F9
:104B100077680408776804087768040877680408E9
:104B200077680408776804087768040877680408D9
:104B300077680408776804087768040877680408C9
:104B400077680408755B0408776804080F5D04083B
:104B5000D15E040877680408776804087768040859
:104B60007768040877680408776804087768040899
:104B70007768040877680408776804087768040889
:104B80007768040877680408776804087768040879
:104B90007768040877680408576004087768040891
:104BA0007768040877680408776804087768040859
:104BB0007768040877680408776804087768040849
:104BC0007768040877680408776804087768040839
:104BD0007768040877680408776804087768040829
:104BE0007768040877680408776804087768040819
:104BF0007768040877680408776804087768040809
:104C00009762040855660408776804087768040802
:104C100077680408776804087768040877680408E8
:104C200077680408776804087768040877680408D8
:104C300077680408776804087768040877680408C8
:104C400077680408776804087768040877680408B8
:104C500077680408776804087768040877680408A8
:104C60007768040877680408776804087768040898
:104C700077680408776804082D670408B4E5002005
:104C800048150020A4070020188D06088C8406080B
:104C9000FB7BBA4A1B02134407331978FB7BB74AE4
:104CA0001B02134408331B781A46302005F0DEFA45
:104CB0000346012B49D1FB7B4FF4867202FB03F3C1
:104CC000AF4A9818FB7BAD4A1B02134407331B788D
:104CD0001946FB7BA94A1B02134408331B780A467A
:104CE000A84921F061F9FB7B4FF4867202FB03F3C4
:104CF000A34A13441946D7F88C00FCF789FCFB7BC8
:104D00004FF4867202FB03F39D4A9818FB7B9B4A83
:104D10001B02134407331B781946FB7B974A1B027F
:104D2000134408331B780A46974921F03DF9FB7B71
:104D30004FF4867202FB03F3914A13441946D7F8E5
:104D40008C00FCF765FC03F076BFFB7B4FF48672AA
:104D500002FB03F38A4A13448C4A1D4614460FCCC7
:104D600028606960AA60EB6007CC28616961AA616C
:104D7000FB7B4FF4867202FB03F3814A134419460E
:104D8000D7F88C00FCF744FC03F055BFFB7B7B4A53
:104D90001B02134407331978FB7B784A1B02134428
:104DA00008331B781A46322005F060FA0346012BBF
:104DB00049D1FB7B4FF4867202FB03F3704A9818CB
:104DC000FB7B6E4A1B02134407331B781946FB7B9F
:104DD0006A4A1B02134408331B780A466C4921F0C7
:104DE000E3F8FB7B4FF4867202FB03F3644A13443F
:104DF0001946D7F88C00FCF70BFCFB7B4FF486724E
:104E000002FB03F35E4A9818FB7B5C4A1B021344C7
:104E100007331B781946FB7B584A1B02134408339F
:104E20001B780A465B4921F0BFF8FB7B4FF4867282
:104E300002FB03F3524A13441946D7F88C00FCF7DF
:104E4000E7FB03F0F8BEFB7B4FF4867202FB03F333
:104E50004B4A13444D4A1D4614460FCC28606960E6
:104E6000AA60EB6007CC28616961AA61FB7B4FF403
:104E7000867202FB03F3424A13441946D7F88C00AA
:104E8000FCF7C6FB03F0D7BEFB7B3C4A1B02134476
:104E900007331978FB7B394A1B02134408331B780C
:104EA0001A4638200AF01AFC0346012B49D1FB7B35
:104EB0004FF4867202FB03F3314A9818FB7B2F4AAA
:104EC0001B02134407331B781946FB7B2B4A1B023A
:104ED000134408331B780A462A4921F065F8FB7B06
:104EE0004FF4867202FB03F3254A13441946D7F8A0
:104EF0008C00FCF78DFBFB7B4FF4867202FB03F307
:104F00001F4A9818FB7B1D4A1B02134407331B786A
:104F10001946FB7B194A1B02134408331B780A46C7
:104F20001D4921F041F8FB7B4FF4867202FB03F32D
:104F3000134A13441946D7F88C00FCF769FB03F0B9
:104F40007ABEFB7B4FF4867202FB03F30C4A1344D8
:104F5000124A1C4615460FCD20606160A260E360D6
:104F6000FB7B4FF4867202FB03F3054A1344194698
:104F7000D7F88C00FCF74CFB03F05DBEA4070020C3
:104F80004815002068850608308D0608A4850608A7
:104F900040860608648D0608988D06088C840608ED
:104FA000FB7BBC4A1B02134407331978FB7BB94ACD
:104FB0001B02134408331B781A463C200AF08EFB70
:104FC0000346012B49D1FB7B4FF4867202FB03F3AE
:104FD000B14A9818FB7BAF4A1B02134407331B7876
:104FE0001946FB7BAB4A1B02134408331B780A4665
:104FF000AA4920F0D9FFFB7B4FF4867202FB03F332
:10500000A54A13441946D7F88C00FCF701FBFB7B3B
:105010004FF4867202FB03F39F4A9818FB7B9D4A6C
:105020001B02134407331B781946FB7B994A1B026A
:10503000134408331B780A46994920F0B5FFFB7BDF
:105040004FF4867202FB03F3934A13441946D7F8D0
:105050008C00FCF7DDFA03F0EEBDFB7B4FF48672AB
:1050600002FB03F38C4A13448E4A1C4615460FCDAF
:1050700020606160A260E360FB7B4FF4867202FBFC
:1050800003F3854A13441946D7F88C00FCF7C0FA9D
:1050900003F0D1BDFB7B7F4A1B02134408331B780E
:1050A0009BB21B029AB2FB7B7A491B020B44093369
:1050B0001B789BB213449BB2A7F84830FB7B754A20
:1050C0001B02134407331B78B7F848100322184615
:1050D0000AF0AAFE0346012B3FD1FB7B4FF48672F8
:1050E00002FB03F36C4A9818FB7B6A4A1B021344C9
:1050F00007331B781A46B7F848306B4920F054FF45
:10510000FB7B4FF4867202FB03F3634A1344194698
:10511000D7F88C00FCF77CFAFB7B4FF4867202FB1D
:1051200003F35D4A9818FB7B5A4A1B02134407336A
:105130001B781A46B7F848305C4920F035FFFB7BF6
:105140004FF4867202FB03F3534A13441946D7F80F
:105150008C00FCF75DFA03F06EBDFB7B4FF48672AA
:1051600002FB03F34C4A13444E4A1C4615460FCD2E
:1051700020606160A260E360FB7B4FF4867202FBFB
:1051800003F3454A13441946D7F88C00FCF740FA5C
:1051900003F051BDFB7B3F4A1B02134408331B78CD
:1051A0009BB21B029AB2FB7B3A491B020B440933A8
:1051B0001B789BB213449BB2A7F84830FB7B354A5F
:1051C0001B02134407331B78B7F848100422184613
:1051D0000AF02AFE0346012B3FD1FB7B4FF4867277
:1051E00002FB03F32C4A9818FB7B2A4A1B02134448
:1051F00007331B781A46B7F84830284920F0D4FE08
:10520000FB7B4FF4867202FB03F3234A13441946D7
:10521000D7F88C00FCF7FCF9FB7B4FF4867202FB9D
:1052200003F31D4A9818FB7B1A4A1B0213440733E9
:105230001B781A46B7F848301D4920F0B5FEFB7BB5
:105240004FF4867202FB03F3134A13441946D7F84E
:105250008C00FCF7DDF903F0EEBCFB7B4FF48672AB
:1052600002FB03F30C4A13440E4A1C4615460FCDAD
:1052700020606160A260E360FB7B4FF4867202FBFA
:1052800003F3054A13441946D7F88C00FCF7C0F91C
:1052900003F0D1BCA4070020481500204086060872
:1052A000C48D06088C84060868850608F08D0608FB
:1052B000188E0608FB7BB24A1B02134408331B7886
:1052C0009BB21B029AB2FB7BAD491B020B44093314
:1052D0001B789BB213449BB2A7F84830FB7BA84ACB
:1052E0001B02134407331B78B7F8481005221846F1
:1052F0000AF09AFD0346012B3FD1FB7B4FF48672E7
:1053000002FB03F39F4A9818FB7B9D4A1B02134440
:1053100007331B781A46B7F848309B4920F044FE03
:10532000FB7B4FF4867202FB03F3964A1344194643
:10533000D7F88C00FCF76CF9FB7B4FF4867202FB0C
:1053400003F3904A9818FB7B8D4A1B0213440733E2
:105350001B781A46B7F848308C4920F025FEFB7BB5
:105360004FF4867202FB03F3864A13441946D7F8BA
:105370008C00FCF74DF903F05EBCFB7B4FF48672AA
:1053800002FB03F37F4A1344814A1C4615460FCDA6
:1053900020606160A260E360FB7B4FF4867202FBD9
:1053A00003F3784A13441946D7F88C00FCF730F918
:1053B00003F041BCFB7B724A1B02134407331B788A
:1053C000642B06D9FB7B6E4A1B021344083364220C
:1053D0001A70FB7B6A4A1B02134408331B78012BAB
:1053E00006D9FB7B664A1B021344093301221A705B
:1053F000FB7B634A1B02134407331978FB7B604A2B
:105400001B02134408331B781A4603200AF0F2FBF0
:105410000346012B40F09280FB7B4FF4867202FB27
:1054200003F3584A9818FB7B554A1B021344073371
:105430001B781A46574920F0B7FDFB7B504A1B02E8
:10544000134408331B78002B11D1FB7B4FF4867279
:1054500002FB03F34B4A9C182046FBF75DFB034617
:1054600023444D491A460B461B88138010E0FB7BF2
:105470004FF4867202FB03F3424A9C182046FBF766
:105480004BFB0346234445491A460B461B881380B1
:10549000FB7B4FF4867202FB03F33A4A134419462E
:1054A000D7F88C00FCF7B4F8FB7B4FF4867202FB54
:1054B00003F3344A9818FB7B314A1B021344073329
:1054C0001B781A46364920F06FFDFB7B2C4A1B02E5
:1054D000134408331B78002B11D1FB7B4FF48672E9
:1054E00002FB03F3274A9C182046FBF715FB0346F3
:1054F000234429491A460B461B88138010E0FB7B86
:105500004FF4867202FB03F31E4A9C182046FBF7F9
:1055100003FB0346234421491A460B461B8813808C
:10552000FB7B4FF4867202FB03F3164A13441946C1
:10553000D7F88C00FCF76CF803F07DBBFB7B4FF4D5
:10554000867202FB03F30F4A1344164A1D461446A3
:105550000FCC28606960AA60EB6007CC28616961A4
:10556000AA61FB7B4FF4867202FB03F3054A1344E6
:105570001946D7F88C00FCF74BF803F05CBB00BF72
:10558000A40700204815002084880608408E0608DD
:105590008C840608688E0608748E0608788E0608C5
:1055A0007C8E0608A4850608FB7BC44A1B021344B4
:1055B00007331B78642B06D9FB7BC04A1B021344BC
:1055C000083364221A70FB7BBC4A1B021344083365
:1055D0001B78012B06D9FB7BB84A1B021344093305
:1055E00001221A70FB7BB54A1B021344073319785A
:1055F000FB7BB24A1B02134408331B781A46042073
:105600000AF0F8FA0346012B40F09280FB7B4FF43E
:10561000867202FB03F3AA4A9818FB7BA74A1B0277
:10562000134407331B781A46A64920F0BDFCFB7BC8
:10563000A24A1B02134408331B78002B11D1FB7BB9
:105640004FF4867202FB03F39D4A9C182046FBF739
:1056500063FA034623449C491A460B461B88138071
:1056600010E0FB7B4FF4867202FB03F3944A9C1814
:105670002046FBF751FA0346234494491A460B4649
:105680001B881380FB7B4FF4867202FB03F38C4A6A
:1056900013441946D7F88C00FBF7BAFFFB7B4FF495
:1056A000867202FB03F3864A9818FB7B834A1B022F
:1056B000134407331B781A46854920F075FCFB7BA1
:1056C0007E4A1B02134408331B78002B11D1FB7B4D
:1056D0004FF4867202FB03F3794A9C182046FBF7CD
:1056E0001BFA0346234478491A460B461B8813804D
:1056F00010E0FB7B4FF4867202FB03F3704A9C18A8
:105700002046FBF709FA0346234470491A460B4624
:105710001B881380FB7B4FF4867202FB03F3684AFD
:1057200013441946D7F88C00FBF772FF03F083BAD5
:10573000FB7B4FF4867202FB03F3614A1344654A14
:105740001D4614460FCC28606960AA60EB6007CC48
:1057500028616961AA61FB7B4FF4867202FB03F347
:10576000574A13441946D7F88C00FBF751FF03F052
:1057700062BAFB7B514A1B02134407331B78642B2C
:1057800006D9FB7B4D4A1B021344083364221A706E
:10579000FB7B4A4A1B02134408331B78012B06D9B2
:1057A000FB7B464A1B021344093301221A70FB7B20
:1057B000424A1B02134407331978FB7B3F4A1B0202
:1057C000134408331B781A4605200AF013FA0346DF
:1057D000012B40F0A480FB7B4FF4867202FB03F3A5
:1057E000374A9818FB7B354A1B02134407331B7852
:1057F0001A46394920F0D8FBFB7B304A1B02134480
:1058000008331B78002B11D1FB7B4FF4867202FB0F
:1058100003F32B4A9C182046FBF77EF903462344EA
:1058200029491A460B461B88138010E0FB7B4FF476
:10583000867202FB03F3224A9C182046FBF76CF9A0
:105840000346234421491A460B461B881380FB7BE1
:105850004FF4867202FB03F3194A13441946D7F832
:105860008C00FBF7D5FEFB7B4FF4867202FB03F343
:10587000134A9818FB7B114A1B02134407331B7809
:105880001A46164920F090FBFB7B0C4A1B0213447E
:1058900008331B78002B23D1FB7B4FF4867202FB6D
:1058A00003F3074A9C182046FBF736F903462344C6
:1058B00005491A460B461B88138022E0A4070020E6
:1058C00048150020C08E0608748E0608788E0608DB
:1058D000CC8E0608A4850608108F06081C8F0608C3
:1058E000FB7B4FF4867202FB03F3994A9C18204617
:1058F000FBF712F90346234496491A460B461B88C8
:105900001380FB7B4FF4867202FB03F3904A13442F
:105910001946D7F88C00FBF77BFE03F08CB9FB7BB4
:105920004FF4867202FB03F3894A13448A4A1D46E8
:1059300014460FCC28606960AA60EB6007CC286130
:105940006961AA61FB7B4FF4867202FB03F3804A14
:1059500013441946D7F88C00FBF75AFE03F06BB9D5
:10596000FB7B7E4A1B02134408331B78012B00F299
:10597000CE80FB7B794A1B02134407331B78013B23
:10598000052B4ED801A252F823F000BFA5590408F8
:10599000BF590408D9590408235A0408F3590408C4
:1059A0000B5A0408FB7B6D4A1B02134408331B7817
:1059B0001A464FF400616A4811F0C0F850E0FB7BD2
:1059C000664A1B02134408331B781A464FF4806161
:1059D000634811F0B3F843E0FB7B604A1B021344B9
:1059E00008331B781A464FF400715D4811F0A6F891
:1059F00036E0FB7B594A1B02134408331B781A46D6
:105A00004021574811F09AF82AE0FB7B534A1B02C9
:105A1000134408331B781A464021524811F08EF87F
:105A20001EE0FB7B4FF4867202FB03F3484A1344EB
:105A30004D4A1D4614460FCC28606960AA60EB6091
:105A400020682861A388AB82FB7B4FF4867202FB3F
:105A500003F33F4A13441946D7F88C00FBF7D8FDEF
:105A60004FF400613E4811F051F80346FB754FF4C6
:105A700080613B4811F04AF803465B005AB2FB7D57
:105A80005BB213435BB2DBB2FB754FF40071344879
:105A900011F03CF803469B005AB2FB7D5BB2134306
:105AA0005BB2DBB2FB7540212D4811F02FF80346A5
:105AB000DB005AB2FB7D5BB213435BB2DBB2FB751A
:105AC0004021284811F022F803461B015AB2FB7D01
:105AD0005BB213435BB2DBB2FB75FB7B4FF48672A8
