:020000040804EE
:100000000000032011C20408CBE70508D9E7050862
:1000100041E8050861E8050881E8050800000000DE
:10002000000000000000000000000000212C050876
:10003000A1E8050800000000312E0508AFE805081A
:10004000BDE8050861C2040861C2040861C2040871
:1000500061C2040861C2040861C2040861C20408E4
:1000600061C2040861C2040861C2040861C20408D4
:1000700061C2040861C20408BDEB050861C204083E
:1000800061C2040861C2040861C2040861C20408B4
:1000900061C2040861C2040861C2040861C20408A4
:1000A00061C20408D1EB050861C2040861C20408FA
:1000B00061C2040861C2040861C204080DEC0508AD
:1000C00021EC050835EC050849EC050861C2040877
:1000D00061C2040819E9050861C2040861C2040884
:1000E000D1E8050861C2040861C2040861C20408BD
:1000F00061C2040861C2040861C2040861C2040844
:1001000061C2040805E9050861C2040861C2040867
:10011000A1E9050861C2040861C2040861C20408BB
:1001200061C2040861C2040861C20408E5EB050865
:1001300061C2040861C2040861C2040861C2040803
:1001400061C2040861C2040861C2040861C20408F3
:1001500061C20408F9EB050861C204082DEA05082C
:100160005DEC050871EC050861C2040861C2040871
:1001700061C2040861C2040861C2040800000000F2
:1001800061C2040861C20408B9EA050861C2040832
:1001900061C2040861C2040861C2040861C20408A3
:0C01A000000000000000000061C2040824
:1001B00010B5054C237833B9044B13B10448AFF3A1
:1001C00000800123237010BD900700200000000074
:1001D000443E060808B5034B1BB103490348AFF37F
:1001E000008008BD0000000094070020443E06087F
:1001F00081F0004102E000BF83F0004330B54FEAD8
:1002000041044FEA430594EA050F08BF90EA020F44
:100210001FBF54EA000C55EA020C7FEA645C7FEAD7
:10022000655C00F0E2804FEA5454D4EB5555B8BFFA
:100230006D420CDD2C4480EA020281EA030382EA6B
:10024000000083EA010180EA020281EA0303362DFD
:1002500088BF30BD11F0004F4FEA01314FF4801CD0
:100260004CEA113102D0404261EB410113F0004FE2
:100270004FEA03334CEA133302D0524263EB430399
:1002800094EA050F00F0A780A4F10104D5F1200E37
:100290000DDB02FA0EFC22FA05F2801841F1000192
:1002A00003FA0EF2801843FA05F359410EE0A5F166
:1002B00020050EF1200E012A03FA0EFC28BF4CF097
:1002C000020C43FA05F3C01851EBE37101F000454D
:1002D00007D54FF0000EDCF1000C7EEB00006EEB5A
:1002E0000101B1F5801F1BD3B1F5001F0CD34908E4
:1002F0005FEA30004FEA3C0C04F101044FEA44523B
:1003000012F5800F80F09A80BCF1004F08BF5FEAC1
:10031000500C50F1000041EB045141EA050130BDA1
:100320005FEA4C0C404141EB010111F4801FA4F144
:100330000104E9D191F0000F04BF01460020B1FA99
:1003400081F308BF2033A3F10B03B3F120020CDAD1
:100350000C3208DD02F1140CC2F10C0201FA0CF0AF
:1003600021FA02F10CE002F11402D8BFC2F1200C14
:1003700001FA02F120FA0CFCDCBF41EA0C019040CA
:10038000E41AA2BF01EB0451294330BD6FEA040413
:100390001F3C1CDA0C340EDC04F11404C4F12002FE
:1003A00020FA04F001FA02F340EA030021FA04F310
:1003B00045EA030130BDC4F10C04C4F1200220FA67
:1003C00002F001FA04F340EA0300294630BD21FAA5
:1003D00004F0294630BD94F0000F83F4801306BF6B
:1003E00081F480110134013D4EE77FEA645C18BF5F
:1003F0007FEA655C29D094EA050F08BF90EA020FF6
:1004000005D054EA000C04BF1946104630BD91EAED
:10041000030F1EBF0021002030BD5FEA545C05D1F0
:100420004000494128BF41F0004130BD14F580042F
:100430003CBF01F5801130BD01F0004545F0FE41A3
:1004400041F470014FF0000030BD7FEA645C1ABFD8
:10045000194610467FEA655C1CBF0B46024650EA0F
:10046000013406BF52EA033591EA030F41F400213B
:1004700030BD00BF90F0000F04BF0021704730B5C1
:100480004FF4806404F132044FF000054FF0000196
:1004900050E700BF90F0000F04BF0021704730B557
:1004A0004FF4806404F1320410F0004548BF40422C
:1004B0004FF000013EE700BF42004FEAE2014FEA81
:1004C00031014FEA02701FBF12F07F4393F07F4F5C
:1004D00081F06051704732F07F4208BF704793F05F
:1004E0007F4F04BF41F40021704730B54FF4607472
:1004F00001F0004521F000411CE700BF50EA010275
:1005000008BF704730B54FF000050AE050EA01021D
:1005100008BF704730B511F0004502D5404261EB8D
:1005200041014FF4806404F132045FEA915C3FF4CE
:10053000D8AE4FF003025FEADC0C18BF03325FEA6B
:10054000DC0C18BF033202EBDC02C2F1200300FA1C
:1005500003FC20FA02F001FA03FE40EA0E0021FA41
:1005600002F11444BDE600BF70B54FF0FF0C4CF42F
:10057000E06C1CEA11541DBF1CEA135594EA0C0FE1
:1005800095EA0C0F00F0DEF82C4481EA030621EA1C
:100590004C5123EA4C5350EA013518BF52EA033557
:1005A00041F4801143F4801338D0A0FB02CE4FF009
:1005B0000005E1FB02E506F00042E0FB03E54FF039
:1005C0000006E1FB03569CF0000F18BF4EF0010E31
:1005D000A4F1FF04B6F5007F64F5407404D25FEA2D
:1005E0004E0E6D4146EB060642EAC62141EA5551E0
:1005F0004FEAC52040EA5E504FEACE2EB4F1FD0C22
:1006000088BFBCF5E06F1ED8BEF1004F08BF5FEA9F
:10061000500E50F1000041EB045170BD06F0004651
:1006200046EA010140EA020081EA0301B4EB5C04FE
:10063000C2BFD4EB0C0541EA045170BD41F48011F6
:100640004FF0000E013C00F3AB8014F1360FDEBF1B
:10065000002001F0004170BDC4F10004203C35DAF7
:100660000C341BDC04F11404C4F1200500FA05F37A
:1006700020FA04F001FA05F240EA020001F000421B
:1006800021F0004110EBD37021FA04F642EB060191
:100690005EEA430E08BF20EAD37070BDC4F10C04BB
:1006A000C4F1200500FA04F320FA05F001FA04F27F
:1006B00040EA020001F0004110EBD37041F100016B
:1006C0005EEA430E08BF20EAD37070BDC4F1200576
:1006D00000FA05F24EEA020E20FA04F301FA05F2DE
:1006E00043EA020321FA04F001F0004121FA04F286
:1006F00020EA020000EBD3705EEA430E08BF20EA56
:10070000D37070BD94F0000F0FD101F0004640008F
:1007100041EB010111F4801F08BF013CF7D041EA11
:10072000060195F0000F18BF704703F00046520015
:1007300043EB030313F4801F08BF013DF7D043EAE6
:100740000603704794EA0C0F0CEA135518BF95EA9C
:100750000C0F0CD050EA410618BF52EA4306D1D123
:1007600081EA030101F000414FF0000070BD50EA42
:10077000410606BF1046194652EA430619D094EACC
:100780000C0F02D150EA013613D195EA0C0F05D1B6
:1007900052EA03361CBF104619460AD181EA03010A
:1007A00001F0004141F0FE4141F470014FF00000C2
:1007B00070BD41F0FE4141F4780170BD70B54FF05D
:1007C000FF0C4CF4E06C1CEA11541DBF1CEA1355DD
:1007D00094EA0C0F95EA0C0F00F0A7F8A4EB0504BF
:1007E00081EA030E52EA03354FEA013100F08880B6
:1007F0004FEA03334FF0805545EA131343EA12637F
:100800004FEA022245EA111545EA10654FEA002633
:100810000EF000419D4208BF964244F1FD0404F5EC
:10082000407402D25B084FEA3202B61A65EB030548
:100830005B084FEA32024FF480104FF4002CB6EB05
:10084000020E75EB030E22BFB61A754640EA0C0085
:100850005B084FEA3202B6EB020E75EB030E22BFC5
:10086000B61A754640EA5C005B084FEA3202B6EB06
:10087000020E75EB030E22BFB61A754640EA9C00C5
:100880005B084FEA3202B6EB020E75EB030E22BF95
:10089000B61A754640EADC0055EA060E18D04FEA53
:1008A000051545EA16754FEA06164FEAC30343EAF3
:1008B00052734FEAC2025FEA1C1CC0D111F4801FC0
:1008C0000BD141EA00014FF000004FF0004CB6E7B9
:1008D00011F4801F04BF01430020B4F1FD0C88BF58
:1008E000BCF5E06F3FF6AFAEB5EB030C04BFB6EB63
:1008F000020C5FEA500C50F1000041EB045170BD56
:100900000EF0004E4EEA113114EB5C04C2BFD4EB82
:100910000C0541EA045170BD41F480114FF0000E06
:10092000013C90E645EA060E8DE60CEA135594EA82
:100930000C0F08BF95EA0C0F3FF43BAF94EA0C0F85
:100940000AD150EA01347FF434AF95EA0C0F7FF4FA
:1009500025AF104619462CE795EA0C0F06D152EA4E
:1009600003353FF4FDAE1046194622E750EA410632
:1009700018BF52EA43067FF4C5AE50EA41047FF443
:100980000DAF52EA43057FF4EBAE12E74FF0FF3CA8
:1009900006E000BF4FF0010C02E000BF4FF0010C79
:1009A0004DF804CD4FEA410C7FEA6C5C4FEA430CF2
:1009B00018BF7FEA6C5C1BD001B050EA410C0CBF41
:1009C00052EA430C91EA030F02BF90EA020F0020A3
:1009D000704710F1000F91EA030F58BF994208BF0A
:1009E00090422CBFD8176FEAE37040F001007047C7
:1009F0004FEA410C7FEA6C5C02D150EA013C07D11E
:100A00004FEA430C7FEA6C5CD6D152EA033CD3D068
:100A10005DF8040B704700BF8446104662468C4662
:100A20001946634600E000BF01B5FFF7B7FF002895
:100A300048BF10F1000F01BD4DF808EDFFF7F4FFBE
:100A40000CBF012000205DF808FB00BF4DF808ED49
:100A5000FFF7EAFF34BF012000205DF808FB00BF6C
:100A60004DF808EDFFF7E0FF94BF012000205DF88E
:100A700008FB00BF4DF808EDFFF7CEFF94BF012043
:100A800000205DF808FB00BF4DF808EDFFF7C4FF3C
:100A900034BF012000205DF808FB00BF4FEA410C85
:100AA0007FEA6C5C02D150EA013C0AD14FEA430C68
:100AB0007FEA6C5C02D152EA033C02D14FF00000A5
:100AC00070474FF0010070474FEA410212F50012E3
:100AD00015D211D56FF47873B3EB625212D94FEA85
:100AE000C12343F0004343EA505311F0004F23FA6F
:100AF00002F018BF404270474FF00000704750EAC4
:100B0000013005D111F0004008BF6FF00040704780
:100B10004FF00000704700BF4A0011D212F50012DA
:100B200011D20DD56FF47873B3EB62520ED44FEA45
:100B3000C12343F0004343EA505323FA02F07047C5
:100B40004FF00000704750EA013002D14FF0FF3003
:100B500070474FF000007047034613F8012B002A3E
:100B6000FBD1181A01387047000000000000000097
:100B700001F0FF01102A2BDB10F0070F08D010F84E
:100B8000013B013A8B422DD010F0070F42B3F6D152
:100B9000F0B441EA012141EA014122F007047FF06B
:100BA00000070023F0E80256083C85EA010586EAC2
:100BB000010685FA47F5A3FA87F586FA47F6A5FAFE
:100BC00087F68EB9EED1F0BC01F0FF0102F007020A
:100BD00032B110F8013B013A83EA010313B1F8D1B5
:100BE0000020704701387047002D06BF3546033896
:100BF000073815F0010F07D1013015F4807F02BFCF
:100C0000013015F4C03F0130F0BC0138704700BF1F
:100C100080B582B000AF786038200CF09AFA0346B5
:100C2000002B0ED19F4B1B680D2201219E480CF01A
:100C300099FC9E4B1B680D2201219B480CF092FCF5
:100C40000DE0984B1B680C22012199480CF08AFC9E
:100C5000964B1B680C22012195480CF083FC3C202C
:100C60000CF077FA0346002B0ED18E4B1B680D2239
:100C7000012190480CF076FC8C4B1B680D22012161
:100C80008C480CF06FFC0DE0864B1B680C22012198
:100C900089480CF067FC854B1B680C2201218648B3
:100CA0000CF060FC30200BF0DCFA0346012B0ED177
:100CB0007C4B1B680D22012180480CF053FC7B4BC0
:100CC0001B680D2201217D480CF04CFC02E07C48A1
:100CD0000AF014FE32200BF0C4FA0346012B0ED1A9
:100CE000704B1B680D22012176480CF03BFC6F4BCA
:100CF0001B680D22012173480CF034FC02E070489F
:100D00000AF0FCFD11F010F901220021032011F07E
:100D1000C1F90346012B0DD1624B1B6801226A49C0
:100D200018460CF0BFFA614B1B6801226649184651
:100D30000CF0B8FA01220021042011F0ABF90346AF
:100D4000012B0DD1574B1B6802225F4918460CF04E
:100D5000A9FA564B1B6802225B4918460CF0A2FA0E
:100D600001220021052011F095F90346012B0DD138
:100D70004C4B1B680322544918460CF093FA4B4B1A
:100D80001B680322504918460CF08CFA032011F01E
:100D900053FB0346012B0ED1424B1B6801224B49EA
:100DA00018460CF07FFA414B1B6801224749184650
:100DB0000CF078FA0DE03B4B1B68012244491846C1
:100DC0000CF070FA394B1B680122414918460CF0AF
:100DD00069FA042011F030FB0346012B0ED1314B90
:100DE0001B680222394918460CF05CFA2F4B1B682D
:100DF0000222364918460CF055FA0DE0294B1B68C3
:100E00000222334918460CF04DFA284B1B68022287
:100E10002F4918460CF046FA052011F00DFB034649
:100E2000012B0ED11F4B1B680322284918460CF0DA
:100E300039FA1E4B1B680322244918460CF032FA7B
:100E40000DE0184B1B680322214918460CF02AFAC2
:100E5000164B1B6803221E4918460CF023FA01208A
:100E60001EF0A8FF01201EF0A5FF01201EF086FF46
:100E7000002001F0A9FD01201EF080FF154B5B69E9
:100E8000144A43F01003536132200BF0C5FF114B9D
:100E90005B69104A23F0100353614FF47A700BF032
:100EA000BBFFE8E714000020603E06080C000020AD
:100EB000703E0608803E0608903E0608A03E0608E2
:100EC0004CE60020B03E0608C03E0608D43E0608A8
:100ED000E43E06080008024090B5DDB000AF07F11F
:100EE000680318464FF482731A46002120F070FA06
:100EF00007F1500300221A605A609A60DA601A61A2
:100F00009A820023A7F86E3107F15003184600F0CB
:100F1000B5FA07F14E0207F150031146184600F0EA
:100F200091F907F14E031B881846FFF7B3FA4FF00B
:100F300000023C4BFFF718FB03460C4618462146BF
:100F4000FFF7EAFD0346A7F86C3107F1380207F115
:100F500044031146184601F0B9FB07F14403184653
:100F600001F064FE07F13803184601F05FFE07F157
:100F700044023B1D2C49184620F046FF3B1D1846F5
:100F800001F0AEFA3CE007F16803184600F062FC9D
:100F900007F1680107F144034FF48272184601F02B
:100FA000F9FE07F15003184600F068FA07F14E0207
:100FB00007F150031146184600F044F907F15001BB
:100FC00007F138031622184601F090FEB7F86E219B
:100FD000164BA3FB021319090B461B015B1A5B009E
:100FE000D31A9BB2002B06D101201EF0C7FE0121AF
:100FF000012001F02DF8B7F86E310133A7F86E31FA
:1010000007F14E031B88002B05D0B7F86E21B7F807
:101010006C319A42B7D30023184607F5BA77BD461C
:1010200090BD00BF0000F83FF83E06088988888818
:1010300080B582B000AF01201EF0A0FE0122102179
:10104000204814F07FFE0121022000F087FF00F00D
:10105000C9F80323BB710023FB710BE01A4801F0B0
:101060003FFA1A4801F03CFA01201EF087FEFB7996
:101070000133FB7100F0CFF80346002B03D0FA795F
:10108000BB799A42EAD3FA79BB799A4204D10E48E5
:1010900001F026FA012311E00121002000F082FD79
:1010A0000B4801F01DFA01201EF068FE00211020FF
:1010B00000F078FD074801F013FA002318460837BE
:1010C000BD4680BD000002400C3F0608283F0608D0
:1010D0004C3F0608643F060880B500AF012102209E
:1010E00000F060FD0346002B04D0044801F0F8F93D
:1010F000012300E00023184680BD00BF2041060800
:1011000080B590B000AF0346FB71FB79002B07D18F
:101110000121032000F046FD0E4801F0E1F916E040
:10112000FB799BB21946012000F03CFD0021032011
:1011300000F038FDFA7907F10C030749184620F052
:1011400063FE07F10C03184601F0CAF900BF4037EF
:10115000BD4680BD4C4106086441060880B500AF1D
:101160000E4B1B68132201210D480CF0FBF90121E5
:10117000062001F0FBF80121052000F0EFFE01211F
:10118000052001F0F3F80121052000F0E7FE012120
:10119000012000F05DFF00BF80BD00BF14000020F3
:1011A000DC41060880B500AF0C4B1B681222012100
:1011B0000B480CF0D7F90021052001F0D7F80121E8
:1011C000052000F0CBFE0021062001F0CFF8012120
:1011D000012000F03DFF00BF80BD00BF14000020D3
:1011E000F041060880B500AF01201EF0C7FDFFF7F3
:1011F000B5FF0121052000F0B1FE01201EF0BEFD6B
:10120000FFF7D0FF01211E2000F0A8FE01201EF0F4
:10121000B5FD00BF80BD80B500AF00F09FFB034669
:10122000002B01D001230BE00121052000F096FEE8
:1012300000F094FB0346002B01D0022300E00023C2
:10124000184680BDB0B5A4B000AF786039607B6847
:101250009B7887F88F307B6803331B781B021AB2A8
:101260007B6804331B781BB213431BB2A7F88C3086
:101270007B6805331B781B021AB27B6806331B7828
:101280001BB213431BB2A7F88A307B6807331B7865
:101290001A067B6808331B781B041A437B680933E2
:1012A0001B781B0213437A680A3212781343C7F87B
:1012B000843097F88F30002B0FD007F12003664A57
:1012C0001C4615460FCD0FC495E80300206004347A
:1012D000218002340B0C23700AE007F120035F4ADF
:1012E0001C4615460FCD0FC495E8030084E80300A3
:1012F000B7F88C3003F00103002B0FD007F1200367
:101300001846FFF729FC03461A4607F12003134449
:1013100053491A460B4603CB10605160B7F88C3026
:1013200003F00203002B10D007F120031846FFF74B
:1013300013FC03461A4607F120031344494A1C468E
:10134000134607CB20606160A260B7F88C3003F0D1
:101350000803002B12D007F120031846FFF7FCFB0F
:1013600003461A4607F1200313443F4A1C4613461E
:1013700007CB20606160A2601B782373B7F88C30C4
:1013800003F01003002B24D007F120031846FFF7C9
:10139000E3FB03461A4607F12003134433491A4678
:1013A0000B4603CB106051601B78137207F10803E2
:1013B00000221A605A609A60DA601A619A8207F114
:1013C0000803184600F0C4F807F10803184600F0B7
:1013D00065F9B7F88C3003F02003002B13D007F128
:1013E00020031846FFF7B8FB03461A4607F120030F
:1013F00013441F491A460B4603CB106051601988ED
:101400009B781181937207F12003184601F068F868
:101410003B68B7F88A201A80B7F88A2007F12003C2
:101420001449184620F0F0FC07F12003184601F09B
:1014300057F807F12003D7F884200F49184620F009
:10144000E3FC07F12003184601F04AF8B7F88C30A6
:1014500018469037BD46B0BD044206081C42060837
:10146000344206083C42060848420608584206082C
:1014700064420608704206088842060880B584B0B7
:1014800000AF78600023BB600023FB7307E0FB7BA9
:101490007A68134400221A70FB7B0133FB73FB7BD9
:1014A000152BF4D991233B7201237B7207F10803BA
:1014B0000421184600F0E0FB214B1B681B22012190
:1014C00020480CF04FF807F108030421184600F0FB
:1014D00081FC0346002B01D001232DE003200BF0FB
:1014E0009BFC01221621786800F0ACFC0346002B1F
:1014F00001D0022320E0124B1B680A22012112486E
:101500000CF030F80023FB730CE00D4B1868FB7BEC
:101510007A6813441B781A460C490BF0C3FEFB7B18
:101520000133FB73FB7B152BEFD9054B1B68194669
:101530000D200CF029F8002318461037BD4680BD59
:10154000140000209C420608B8420608C44206085F
:1015500080B5A0B000AF786007F1780300221A6070
:101560001A71942387F87830012387F8793015238E
:1015700087F87A3007F178030521184600F07CFBE4
:10158000002387F87F300AE097F87F307A681344A9
:1015900000221A7097F87F30013387F87F3097F870
:1015A0007F30152BF0D9374800F09AFF07F1780308
:1015B0000521184600F00EFC0346002B04D03248EB
:1015C00000F08EFF012359E003200BF025FC0122DF
:1015D0001621786800F036FC0346002B04D02B4817
:1015E00000F07EFF022349E007F114031846FFF7DD
:1015F000B3FA03461A4607F11403134424491A4662
:101600000B4603CB1060516019889B78118193724F
:10161000002387F87F3018E097F87F307A6813440A
:101620001B781A4607F10C031A49184620F0ECFB08
:1016300007F10C0207F114031146184620F030FCA4
:1016400097F87F30013387F87F3097F87F30152B7C
:10165000E2D907F114031846FFF77EFA03461A464B
:1016600007F1140313440C4A1188927819809A7078
:1016700007F11403184600F033FF002318468037A3
:10168000BD4680BDCC420608E84206080043060875
:10169000B8420608C442060814430608F0B5B7B0BD
:1016A00000AF7860644800F01BFF7B6802331B7852
:1016B0001B021AB27B6803331B781BB213431BB2A5
:1016C000A7F8D630B7F8D63003F00103002B18D0B6
:1016D00007F10C031846FFF73FFA03461A4607F1D5
:1016E0000C031344554A1C4615460FCD206061601B
:1016F000A260E36028682061AB88AA79A3821346C0
:10170000A375B7F8D63003F00203002B16D007F10B
:101710000C031846FFF720FA03461A4607F10C039C
:101720001344474A1D4614460FCC28606960AA60DE
:10173000EB6003CC2861696123782B76B7F8D6304B
:1017400003F00303002B11D007F10C031846FFF739
:1017500003FA03461A4607F10C031344394A1C46A0
:1017600015460FCD20606160A260E360B7F8D63007
:1017700003F00503002B15D007F10C031846FFF703
:10178000EBF903461A4607F10C0313442E4A1D4693
:1017900014460FCC28606960AA60EB60206828615D
:1017A00023792B75B7F8D63003F00603002B13D03E
:1017B00007F10C031846FFF7CFF903461A4607F165
:1017C0000C031344214A1D4614460FCC286069605F
:1017D000AA60EB6020682861B7F8D63003F00703F1
:1017E000002B1ED007F10C031846FFF7B5F903468E
:1017F0001A4607F10C031344154A14469C4604F19B
:10180000200E654626460FCE28606960AA60EB6010
:1018100010340CF1100C7445F3D163462246127853
:101820001A7007F10C03184600F05AFEB7F8D630CC
:101830001846DC37BD46F0BD184306083443060899
:101840004C43060868430608784306089043060898
:10185000A443060880B584B000AF786007F10803A0
:1018600000221A601A7197233B7201237B720023B6
:10187000BB7207F108030521184600F0FDF9314B52
:101880001B681E22012130480BF06CFE07F1080393
:101890000521184600F09EFA0346002B01D00123D3
:1018A0004BE003200BF0B8FA00221021274814F077
:1018B00049FA40F6B8334FF48272796824481AF036
:1018C000F5FD0346FB7301221021204814F03AFA7B
:1018D000FB7B002B0DD01B4B1B68242201211D48D4
:1018E0000BF040FEFB7B0021184600F049FF02236D
:1018F00023E007F1080301220021184600F0A2FAB4
:101900000346002B01D0032317E04FF4827178685F
:1019100000F0D5F9034683F00103DBB2002B06D0BB
:10192000084B1B68242201210B480BF01BFE4FF4CF
:101930008271786800F070FB002318461037BD46AE
:1019400080BD00BF14000020C8430608000002400C
:1019500008EA0020E84306081044060880B500AFF6
:101960000021012000F044F80346184680BD000025
:1019700080B500AF184B1B881946002000F012F903
:10198000164B1B881946122000F00CF9134B1B88CC
:101990001946122000F006F9114B1B8819460B203E
:1019A00000F000F90F4B1B881946132000F0FAF8DD
:1019B0000D4B1B881946072000F0F4F80B4B1B88D1
:1019C0001946082000F0EEF80121002000F010F880
:1019D0000346184680BD00BF000000200200002022
:1019E000B0070020AE070020B2070020B407002097
:1019F000B0B596B004AF03460A46FB711346BB71FF
:101A000007F1280300221A605A609A60DA601A61AE
:101A10005A611A7607F1200300221A601A71FB79C5
:101A2000002B0AD0554B1B681622012154480BF09D
:101A300099FD902387F8283009E0504B1B68162247
:101A4000012150480BF08EFD922387F828300123A6
:101A500087F82930BB79002B0AD0484B1B681C2221
:101A6000012149480BF07EFD012387F82A3009E067
:101A7000424B1B681C22012144480BF073FD0023DC
:101A800087F82A30424B1A6807F10C03194641487F
:101A900018F06FFE3E4B1A6807F1080319463D48DF
:101AA00018F07AFF354B18687B7A1C46BB7A1D46C6
:101AB0003B7B7A7BB97B0291019200932B462246B5
:101AC00035490BF0EFFBBB7B19467B7B1A4613466F
:101AD0001B019B1A9B00CA183B7B19464FF461639C
:101AE00003FB01F31A44BB7A19462C4B03FB01F3A9
:101AF0001A447B7A19462A4B03FB01F313447B6497
:101B00007B6C1B0EDBB287F82D307B6C1B0CDBB2C1
:101B100087F82E307B6C1B0ADBB287F82F307B6C8A
:101B2000DBB287F8303007F128031921184600F09E
:101B3000A3F807F128031921184600F04BF90346D2
:101B4000002B01D0012315E003200BF065F907F10C
:101B5000200300220521184600F074F90346002BEB
:101B600001D0022306E007F120030521184600F00A
:101B700053FA002318464837BD46B0BD1400002074
:101B8000604406087844060890440608B0440608F5
:101B9000B807002070E80020D044060880510100FA
:101BA000008D270080B586B000AF03460A46FB7162
:101BB0001346BB8007F1100300221A60C3F803200C
:101BC00007F1080300221A601A7193233B74012362
:101BD0007B74FB79BB74BB881B0A9BB2DBB2FB74C2
:101BE000BB88DBB23B7507F110030721184600F0F4
:101BF00043F81D4B1868FA79BB881C490BF052FB5F
:101C000007F110030721184600F0E4F80346002B03
:101C100008D0154B1B681C22012115480BF0A2FCB3
:101C200001231CE003200BF0F7F807F10803002262
:101C30000521184600F006F90346002B08D00A4B90
:101C40001B681D2201210B480BF08CFC022306E0CF
:101C500007F108030521184600F0DEF900231846B5
:101C60001837BD4680BD00BF14000020004506089F
:101C7000204506084045060880B584B000AF78606E
:101C800039603B68023B1A4679684FF6FF7000F0F6
:101C900043F80346FB81FB891B0A99B23B68023B70
:101CA0007A681344CAB21A703B68013B7A681344DD
:101CB000FA89D2B21A7000BF1037BD4680BD80B518
:101CC00084B000AF786039603B68023B1A4679689F
:101CD0004FF6FF7000F020F80346FB81FB891B0ADA
:101CE0009BB27B73FB893B733B68023B7A6813446E
:101CF0001B787A7B9A4209D13B68013B7A6813448E
:101D00001B783A7B9A4201D1012300E00023184658
:101D10001037BD4680BD000080B5ADF5087D00AF31
:101D200007F1080319603B1D1A6007F10E03024614
:101D30001A8007F11003264A184611464FF4007323
:101D40001A461FF03AFB4FF6FF73A7F81E32002326
:101D5000A7F81C322EE0B7F81C3207F1080212680F
:101D600013441B78A7F81A32B7F81E321B0AA7F8DB
:101D70001832B7F81822B7F81A325340A7F81632BB
:101D8000B7F81632DBB2A7F81432B7F81E321B02CE
:101D9000A7F81232B7F8142207F1100333F8122013
:101DA000B7F812325340A7F81E32B7F81C3201338D
:101DB000A7F81C32B7F81C323A1D12689A42CADCE6
:101DC000B7F81E32184607F50877BD4680BD00BF3C
:101DD0006045060880B586B002AF7860396001239F
:101DE000FB733B689AB26423009313467A68CC2154
:101DF000104814F0E9F80346FB73FB7B002B13D06B
:101E00000D4B1B68262201210C480BF0ABFB0A4B43
:101E10001B681A2201210A480BF0A4FBFB7B184621
:101E200000F0AEFCFB7B00E0002318461037BD46F7
:101E300080BD00BF94E40020140000206047060825
:101E40008847060880B588B002AFF860B9601346CD
:101E5000FB713C4B1B680F2201213B480BF082FBBE
:101E60000123FB7507F1100300221A601A71BB6889
:101E7000002B36D0BB689AB2642300931346FA68ED
:101E8000CC21324814F0AEF90346FB75FB7D002BE4
:101E90000CD02C4B1B68252201212D480BF062FB36
:101EA000FB7D184600F06CFCFB7D46E0BB68B3F59B
:101EB000827F05D1FB6891221A70FB6895221A7007
:101EC000B968F868FFF7FBFE034683F00103DBB255
:101ED000002B06D01B4B1B68242201211D480BF050
:101EE00041FBFB79002B27D0FB681B783B74012357
:101EF0007B747E23BB7407F1100305211846FFF79E
:101F0000BBFE07F11002642300930523CC210F4888
:101F100014F05AF80346FB75FB7D002B0CD0094BDF
:101F20001B681C2201210C480BF01CFBFB7D184692
:101F300000F026FC022300E0002318461837BD46B7
:101F400080BD00BF14000020A447060894E40020D0
:101F5000B447060810440608DC47060880B584B07C
:101F600000AF03460A46FB8013467B717B79002B4A
:101F700006D0244B1B68FA88234918460BF092F9C7
:101F800001201DF0FBFE0023FB8124E064200AF009
:101F900043FF01201DF0F2FE7B79002B18D0FA8957
:101FA0001A4BA3FB0213D9080B469B000B445B00A2
:101FB000D31A9BB2002B0BD1124B1868FB89134A22
:101FC000A2FB0323DB089BB21A4611490BF06AF906
:101FD000FB890133FB81F989FA8813469B0013447E
:101FE0005B009942D2DB7B79002B06D0054B1B6846
:101FF0000222012107480BF0B5FA00BF1037BD4699
:1020000080BD00BF14000020FC470608CDCCCCCC1E
:10201000144806081C48060880B582B000AF7860F6
:1020200039603B68052B0BD17B6802331B787E2B14
:1020300006D1054B1B680F22012104480BF092FAD0
:1020400000BF0837BD4680BD1400002020480608A8
:10205000F0B5ADF5497D06AF07F10C03186007F147
:10206000080319607F4BC7F804337F4BC7F8003370
:1020700007F114037D4A07CA83E8070007F53E739A
:102080001946012000F00EF907F53D7319460220AC
:1020900000F008F907F53C7319460B2000F002F92F
:1020A00007F53B731946102000F0FCF807F53A736A
:1020B0001946112000F0F6F86D4B1B681A466D4961
:1020C0006D4818F056FB6A4B1B681A466B496A4804
:1020D00018F062FC694BDB781D46684B5B781E4646
:1020E000664B9B781A46634B1B781946614B5B78AD
:1020F0001C46604B9B7807F51A700393029401917C
:10210000009233462A465E491FF07EFED7F8F83229
:102110007B60D7F8F83207EE903AB8EEE77AD7ED61
:10212000C17A67EE277A17EE900AFEF7C5F90446E2
:102130000D46D7F8F462D7F8F43207EE903AB8EECD
:10214000E77AD7EDC07A67EE277A17EE900AFEF7A6
:10215000B3F902460B4607F51A7107F52170CDE970
:1021600004230296CDE900457B680A4645491FF0E5
:102170004BFE07F10C031B68012B5FD107F1140123
:1021800007F13803132218460DF05CFB034687F86D
:10219000FF3297F8FF32002B41D13B4B1B682922BD
:1021A00001213A480BF0DEF907F1200207F1140390
:1021B000114618460EF02AFC034687F8FF3297F8BE
:1021C000FF32002B25D1304B1B68302201213048D3
:1021D0000BF0C8F907F120031A6807F1380311461C
:1021E00018460EF0BEF8034687F8FF3297F8FF3224
:1021F000002B0ED1244B1B683122012125480BF006
:10220000B1F907F5217207F13803114618460BF0B2
:1022100049F807F1380318460EF074F80EE01A4B2F
:102220001B682F2201211C480BF09CF9164B1B68E0
:1022300097F8FF22194918460BF034F807F1080304
:102240001B68012B08D1104B1868D7F8EC22D7F87F
:10225000E83213490BF026F800BF07F54377BD4677
:10226000F0BD00BFDD2416403333434090490608DB
:10227000B80700202CE6002070E800206CE8002061
:102280003048060850480608140000208C4806080C
:10229000B8480608EC4806082049060850490608D0
:1022A0006C49060880B588B004AF03463960FB80EE
:1022B0000023BB733B68294A1A6009F095FABB7B7F
:1022C000002B17D0FB7B012B0BD0FB7B032B08D003
:1022D000FB7B022B08D1224B93F83D30DBB2202B45
:1022E00002D11F4809F00AFB05200AF095FDBB7BCF
:1022F000092B15D8FA880A2302930223019307F1C8
:102300000803009301233021154814F0A5FA034671
:10231000FB73BB7B0133BB73FB7B002BCFD100E096
:1023200000BF0F4813F020FEFB7B002B0BD13B7A44
:102330009BB21B029AB27B7A9BB21344BB81BA89CF
:102340003B681A6006E0074B1B6813220121064810
:102350000BF008F900BF1037BD4680BDF1D8FFFF74
:10236000D8E50020140000209C49060880B588B0FC
:1023700002AF03460A46FB8013467B710023BB7500
:1023800007F10C033B6109F02FFABB7D002B17D03E
:10239000FB7D012B0BD0FB7D032B08D0FB7D022B9B
:1023A00008D11B4B93F83D30DBB2202B02D11848EB
:1023B00009F0A4FA05200AF02FFDBB7D092B15D8E2
:1023C000FB88DBB23B737B797B730A230093022388
:1023D0003A6930210E4813F0F7FD0346FB75BB7DCB
:1023E0000133BB75FB7D002BCFD100E000BF084857
:1023F00013F0BAFDFB7D002B06D0064B1B681422A0
:10240000012105480BF0AEF800BF1837BD4680BD6E
:10241000D8E5002014000020B049060880B500AFC0
:1024200001201DF0ABFC00F009FD0346002B04D099
:10243000164800F055F8012325E001201DF09EFC10
:10244000134800F0F9F80346002B04D0114800F0BF
:1024500047F8022317E001201DF090FC0C4800F023
:1024600023F80346002B04D00B4800F039F803236F
:1024700009E00A4800F034F8094800F031F8094B47
:1024800001221A700023184680BD00BFC849060803
:10249000F8DC0020E8490608144A06082C4A060819
:1024A000484A0608B607002080B582B000AF7860C1
:1024B000786800F0BBFB0346002B04D0064800F010
:1024C0000FF8012303E0054800F00AF8002318463E
:1024D0000837BD4680BD00BF144A06082C4A0608CE
:1024E00080B584B000AF78600023FB73094B1B7884
:1024F000002B04D0786800F011F80123FB73064B21
:102500001B68796818460AF0CDFEFB7B1846103729
:10251000BD4680BDB607002014000020F0B5A1B074
:1025200004AF7860394B1B681A463949394818F0AE
:1025300020F9364B1B681A463749364818F02CFAF2
:10254000354BDB781D46344B5B781E46324B9B780F
:102550001A462F4B1B7819462D4B5B781C462C4B8B
:102560009B7807F10C00039302940191009233468B
:102570002A462A491FF048FC07F10C031846FEF7CB
:10258000EBFA03461A4607F10C031344244A118858
:10259000927819809A7007F10C03796818461FF039
:1025A0007FFC07F10C031846FEF7D6FA03461A46DD
:1025B00007F10C0313441B4A1188927819809A7012
:1025C00007F10C031846FEF7C7FA03469AB207F163
:1025D0000C031946144800F089FB0346002B08D071
:1025E000124B1B681B22012111480AF0BBFF01237B
:1025F00007E00E4B1B681F2201210E480AF0B2FFB4
:10260000002318467437BD46F0BD00BFB807002050
:102610002CE6002070E800206CE800206C4A0608D8
:102620008C4A0608904A0608F8DC002014000020B6
:10263000944A0608B04A060880B594B000AF7860A6
:102640000023A7F84E30002387F84D3017E0B7F885
:102650004E2007F140031B4918461FF0D5FB07F138
:102660004003184600F0B4FC0346002B02D10123BE
:1026700087F84D30B7F84E300133A7F84E3097F851
:102680004D3083F00103DBB2002BE0D101201DF0BF
:1026900075FB07F1400207F10C030B4918461FF0C8
:1026A000B3FB07F10C031846FFF71AFF07F14003CD
:1026B000194678681FF003FC002318465037BD46C2
:1026C00080BD00BFD04A0608D84A060880B596B03B
:1026D00000AF78603960002387F85730002387F80F
:1026E000563016E097F8572007F14C032149184659
:1026F0001FF08AFB002000F06BFC0346002B03D088
:10270000012387F8563004E097F85730013387F8F3
:10271000573097F8563083F00103DBB2002BE1D13C
:1027200001201DF02BFB97F8572007F140031249B9
:1027300018461FF069FB07F14C0207F10C030F4923
:1027400018461FF061FB07F10C031846FFF7C8FE9F
:1027500007F14C03194678681FF0B1FB07F14003FD
:10276000194638681FF0ABFB002318465837BD46A2
:1027700080BD00BFF44A0608004B0608D84A060888
:1027800080B582B000AF0346FB710B46BB711346A8
:102790007B717B79052B07D9FB79002B04D010487E
:1027A000FFF79EFE00F0FEF8FB79002B03D10D48E9
:1027B000FFF796FE10E0BB79002B06D07A79FB7903
:1027C0001146184600F05AF806E07A79FB7911466E
:1027D000184600F009F800BF0837BD4680BD00BFAD
:1027E0000C4B0608444B060880B582B000AF034688
:1027F0000A46FB711346BB71BB79052B08D91A48F1
:10280000FFF76EFEBA79FB7900211846FFF7B8FF93
:10281000FB79012B07D11548FFF762FEBB791846FB
:1028200000F09EF81BE0FB79022B07D11048FFF760
:1028300057FEBB79184600F093F810E0FB79032BA4
:1028400007D10C48FFF74CFEBB79184600F088F81A
:1028500005E0FB79002B02D10748FFF741FE00BFDE
:102860000837BD4680BD00BF7C4B0608B84B060844
:10287000D04B0608FC4B0608104C060880B582B009
:1028800000AF03460A46FB711346BB71BB79052BAB
:1028900008D91D48FFF724FEBA79FB7901211846B3
:1028A000FFF76EFFFB79012B07D11848FFF718FEE1
:1028B000BB79184600F032F821E0FB79022B07D1F2
:1028C0001348FFF70DFEBB79184600F027F816E015
:1028D000FB79032B07D10F48FFF702FEBB7918469F
:1028E00000F01CF80BE0FB79002B08D10A48FFF739
:1028F000F7FDBA79FB7901211846FFF741FF00BFC8
:102900000837BD4680BD00BF244C0608604C060851
:10291000784C0608A44C0608B84C060880B584B06C
:1029200000AF0346FB710C48FFF7DAFD0B4813F0CC
:102930001BFB0A4813F038FA0346FB73FB7901339B
:10294000FB71FA79FB7B11461846FFF797FF00BF32
:102950001037BD4680BD00BFCC4C060894E4002073
:1029600080B584B000AF0346FB710C48FFF7B8FD9B
:102970000B4819F036FC0A4819F0C7FB0346FB73F5
:10298000FB790133FB71FA79FB7B11461846FFF79F
:102990002BFF00BF1037BD4680BD00BFCC4C0608E2
:1029A00008EA002080B500AF0548FFF799FD002236
:1029B000002104480CF0E2FE11F0CFFF00BF80BD03
:1029C000F04C0608A4EC002080B59AB000AF034696
:1029D000FB71032387F86530FA7997F865309A42DE
:1029E00001D9FFF7DFFF07F1480300221A605A60A0
:1029F0009A60DA601A619A82042387F864300023AF
:102A000087F84030012387F841301E2387F8423091
:102A10009E2387F84330FFF701FD0346002B02D0C9
:102A20007748FFF75DFD01201DF0A8F9FEF700FBD8
:102A30000346002B0ED07348FFF752FD7248FFF794
:102A40004FFD01201DF09AF9FB795A1CFA711846C6
:102A5000FFF7BAFF002387F8673097F8672097F8E9
:102A600064309A4202D9002387F8673097F86730BC
:102A700007F16802134413F8283C1846FEF740FBA0
:102A8000042387F86330002387F8623008E05F484A
:102A9000FFF726FD5E48FFF723FD01201DF06EF9CC
:102AA000FEF766FF0346002B05D097F8622097F8E3
:102AB00063309A42EBD397F8622097F863309A42DA
:102AC0000ED15248FFF70CFD4F48FFF709FD0120DA
:102AD0001DF054F9FB795A1CFA711846FFF774FF80
:102AE00007F148031846FEF7C9FC07F1460207F153
:102AF000480311461846FEF7A5FB01201DF03EF9DC
:102B0000FEF7EAFA01201DF039F9002387F8663054
:102B10005A2387F861302CE03E48FFF7E1FC4FF480
:102B20007A700AF079F907F148031846FEF7A6FC17
:102B300007F1460207F1480311461846FEF782FBEB
:102B400097F86620344BA3FB021319090B469B0030
:102B50000B449B00D31ADBB2002B05D12F48FFF7A3
:102B6000BFFC01201DF00AF997F86630013387F8A1
:102B7000663097F8662097F861309A420CD807F1D2
:102B8000460207F1480311461846FEF75BFB034671
:102B900003F00203002BBFD097F8662097F861304E
:102BA0009A420BD91E48FFF79BFC01201DF0E6F866
:102BB000FB795A1CFA711846FFF706FF1948FFF710
:102BC0008FFC97F8673007F16802134413F8283C2C
:102BD0001A4607F10C03144918461FF015F907F1BE
:102BE0000C031846FFF77CFCFEF776F901201DF078
:102BF000C5F897F86730013387F867302DE700BFD5
:102C0000044D0608184D0608344D0608544D0608B4
:102C1000704D0608804D0608CDCCCCCC984D0608EA
:102C2000B04D0608D84D0608F44D060880B584B0AE
:102C300000AF78601222796825480CF003FE034645
:102C4000FB73FB7B052B09D1786800F049F90A2258
:102C500079681F480CF0F6FD0346FB73FB7B002BE5
:102C600024D01C4B1B68796818460AF01BFB194BD3
:102C70001B681F22012118480AF074FC154B1B68C1
:102C8000FA7B164918460AF00DFB124B1B6802220C
:102C9000012113480AF066FC0E4B1B681222012129
:102CA00010480AF05FFC0223BB730BE008480DF0EC
:102CB00029FB084B1B68222201210B480AF052FC19
:102CC0000023BB73BB7B18461037BD4680BD00BFD9
:102CD00074EA0020140000200C4E06082C4E060852
:102CE000344E0608384E06084C4E060880B586B0AD
:102CF00000AFF860B9601346FB803222F9682048C3
:102D00000CF0A0FD0346002B0BD000F053FA1D4B36
:102D10001B681F2201211C480AF024FC0223FB75BA
:102D200029E0FA8807F11003B96815480DF0BDF8DD
:102D30000346BB753B69002B02D0BB7D002B0ED038
:102D400000F038FA0F4B1B68172201210F480AF0D8
:102D500009FC0B480DF0D6FA0123FB750BE008487F
:102D60000DF0D0FA074B1B682122012108480AF018
:102D7000F9FB0023FB75FB7D18461837BD4680BD67
:102D800074EA0020140000200C4E0608704E06085D
:102D9000884E060880B586B000AFF860B96013466B
:102DA000FB803222F96820480CF04CFD0346002BD2
:102DB0000BD000F0FFF91D4B1B681F2201211C489E
:102DC0000AF0D0FB0223FB7528E0FA8807F1100314
:102DD000B96815480DF069F80346BB75FA883B6978
:102DE0009A4202D1BB7D002B0CD0104B1B681722DE
:102DF000012110480AF0B6FB0B480DF083FA0123BD
:102E0000FB750BE008480DF07DFA084B1B68222289
:102E1000012109480AF0A6FB0023FB75FB7D18463B
:102E20001837BD4680BD00BF74EA002014000020A2
:102E30000C4E0608704E06084C4E060880B5ADF5DF
:102E4000047D02AF002387F807320022124913489D
:102E50000CF094FC0346002B14D01148FFF740FB04
:102E60003A1D4FF4007300931346002207210A48CD
:102E70000DF0CCFF0346002B04D00A48FFF730FBCF
:102E8000012303E00848FFF72BFB0023184607F552
:102E90000277BD4680BD00BF70EA0020A4EC002090
:102EA000C44E0608044F0608584F060880B584B083
:102EB00000AF78607868FDF74FFE0346013318468F
:102EC0001EF05CFA0346FB60FB68002B03D07968B8
:102ED000F8681EF0F4FFFB6818461037BD4680BD49
:102EE00080B586B000AF786001201CF047FF78689D
:102EF000FFF7DCFFF860F868FDF72EFE03463B6144
:102F000002E03B69013B3B613B69002B06D03B691A
:102F1000013BFA6813441B782F2BF2D13B69002B3D
:102F200002D03B69013B3B613B69002B3DD03B69D3
:102F3000FA68134400221A70F8680DF059FE03462F
:102F4000FB75FB7D002B1BD01B4B1B68FA7D1B49BF
:102F500018460AF0A7F9184B1B68022201211848ED
:102F60000AF000FB144B1B681222012115480AF0DD
:102F7000F9FA114B1B68FA68134918460AF092F9DE
:102F8000FB7D052B07D1F868FFF7AAFFF8680DF065
:102F90002FFE0346FB75FB7D002B06D1064B1B68FD
:102FA000FA680A4918460AF07DF9F8681EF0EEF949
:102FB00000BF1837BD4680BD140000202C4E060807
:102FC000344E0608384E06087C4F0608944F060813
:102FD00080B596B000AF7860022387F8573007F1CC
:102FE0003C03194678680DF011FD034687F856300A
:102FF00097F85630002B02D0042B10D01FE007F1B9
:1030000008037A68174918461EF0FEFE07F1080308
:103010001846FFF765FA012387F857301BE007F1E0
:1030200008037A68104918461EF0EEFE07F10803FF
:103030001846FFF755FA002387F857300BE007F1E1
:1030400008037A68094918461EF0DEFE07F10803F6
:103050001846FFF745FA97F8573018465837BD46D7
:1030600080BD00BFA84F0608BC4F0608D44F060815
:10307000B0B58AB000AF3A4B3A4A1A6008F044FF44
:10308000394B5B6A384A43F4E023536272B6364BDD
:10309000364A9A6062B6344B5B69334A43F00403A4
:1030A000536100F0BFF81BF037FB08F021F908F07E
:1030B000A1F908F047FE08F005FB08F03DFB08F019
:1030C000C1FB08F0EDFB08F079FC08F0ADFC08F05E
:1030D000E3FC08F017FD08F0E1FD08F087FD08F0BB
:1030E00007FE08F07FFE224B1B68184600F0CEFB5F
:1030F000204B1B68184600F0C9FB1F4B5B691E4A3A
:1031000023F0200353611D4B07F114041D460FCD1E
:103110000FC42B68236007F114030021184609F03F
:1031200054FE0246164B1A6000F0DAF91CF0B8FDA6
:10313000144B3C461D460FCD0FC42B6823603B4605
:103140000021184609F041FE02460F4B1A60012289
:1031500040210E4812F0F6FD09F014FEFEE700BF14
:10316000340400205028004000ED00E00000040876
:10317000140000200C00002000080240185006082F
:1031800004DD00203C50060808DD00200018024045
:1031900080B582B000AF78607B681B68044A9342B8
:1031A00001D11BF0DBFA00BF0837BD4680BD00BF70
:1031B0000000014080B500AF104B5B690F4A43F03F
:1031C000100353610D4B5B690C4A43F020035361BC
:1031D0004FF4FA601BF0DCFA084B5B69074A23F0F6
:1031E00010035361054B5B69044A23F020035361CC
:1031F0004FF4FA601BF0CCFADEE700BF0008024093
:1032000080B500AFFFF7D6FF00BF80BD80B582B0AC
:1032100000AF78603960FFF7CDFF00BF0837BD46CB
:1032200080BD000080B500AF00F01CF902460E4BD7
:103230001A600D4B1B68002B0CD14FF480620021EB
:103240000A481EF0C5F8094B094A1A60064B094A9C
:103250001A6007E0044B1B684FF48062194603486C
:103260001EF0ABF800BF80BD0CE100200CDD00209B
:103270002143AA5500001E0890B591B000AF00236D
:1032800087F8373012F020F900F0A8F8F863FB6BEC
:10329000002B1BD100237B6001233B611723FB60C4
:1032A00002237B6107F118023B1D1146184611F0FD
:1032B0006DFF0346002B07D012F030F93863FFF79B
:1032C00079FF12F01BF947E0254BFB63254B264A9B
:1032D0001A6007F11C031946224800F04BF8FB69FD
:1032E000204AC2F8FC330023FB62204BF322DA6051
:1032F0000023BB6322E01B4ABB6B13441B78DBB289
:103300004FF00004C7E90834FA6BBB6BD118D7E95A
:103310000823F86A12F084F8034687F8373097F8E4
:103320003730002B05D012F0F9F83863FFF742FF71
:103330000DE0FA6ABB6B13440133BB63FB6A0133D4
:103340004FF48062B2FBF3F3BA6B9A42D3D312F01C
:10335000D5F8074AFB6B13604437BD4690BD00BFEC
:1033600000001E080CDD00202143AA55003C02404D
:103370000CE1002080B582B000AF786039607B68D6
:10338000134A934203D97B68124A934209D97B6856
:10339000B3F1005F15D37B6803F580630E4A934257
:1033A0000FD83B68002B09D04FF47F72796800205A
:1033B0000AF014FA02463B681A6004E0FFF7FAFECE
:1033C00001E0FFF7F7FE00BF0837BD4680BD00BF34
:1033D000FFFF1D0800FC1F08FAFF022080B483B025
:1033E00000AF0023BB801E4B1B683B600023FB80AB
:1033F0000DE0B7F904309B023A6813441A46FB8883
:1034000013441B78FF2B07D1FB880133FB80FB881B
:10341000B3F5806FEDD300E000BFFB88B3F5806F9C
:1034200006D2B7F904309BB201339BB2BB8005E0F2
:10343000B7F904309B023A6813440AE0B7F9043044
:103440009B023A68134403F58063B3F1026FCDD356
:10345000002318460C37BD465DF8047B704700BF5B
:103460000CE1002080B584B000AF7F23FB811A4BB4
:10347000BB60B7F90E309B02BA6813441B68174A49
:10348000934219D1B7F90E309B02BA6813443A1D22
:1034900011461846FFF76EFFB7F90E309B02BA6867
:1034A0001344D3F8FC237B689A4205D1B7F90E3058
:1034B0009B02BA6813440AE0B7F90E309BB2013B95
:1034C0009BB2FB81B7F90E30002BD2DC00231846EB
:1034D0001037BD4680BD00BF00001E082143AA551D
:1034E000B0B586B000AF0023FB752EE0FB7D3A4AF5
:1034F0004FF40C7101FB03F3134400221A60FB7DAF
:10350000364A002142F82310FB7D354A002142F85B
:103510002310FB7D334A002142F82310FB7D324A01
:10352000002142F82310FB7D304A002142F823108D
:10353000FB7D2F4A002122F81310FB7D2D4A00212C
:1035400022F81310FB7D0133FB75FB7D022BCDD9D7
:10355000294B2A4A1A602A4B2A4A1A602A4B2B4ABC
:103560001A60254B1B680122294918461AF0ECFB0A
:103570000346BB75BB7D002B01D0FFF71BFE204B24
:103580001B680122224918461AF0DEFB0346BB7570
:10359000BB7D002B01D0FFF70DFE1B4B1B680122EA
:1035A0001B4918461AF0D0FB0346BB75BB7D002BA8
:1035B00001D0FFF7FFFD174B3C461D460FCD0FC452
:1035C0002B6823603B460021184609F0FEFB00BF34
:1035D0001837BD46B0BD00BF340E002028E40020DF
:1035E0001CE4002010E10020BC0D0020C80D0020CC
:1035F000240E00202C0E00200C0000202CE80020BF
:1036000010000020C8E900201400002088E90020F4
:1036100060EA0020D05006082DE9F041ADF5207D8C
:1036200008AF3B1D1860002387F85F3208F086FC66
:103630000346012B40F09E80132387F85E32654BD2
:103640001B681A466449654817F093F8614B1B687C
:103650001A466349614817F09FF907F10C031322DA
:10366000604918460CF0EEF8034687F85E3297F88A
:103670005E32002B09D107F50F73194659480DF03A
:10368000C5F9034687F85E3205E097F85E32012BF4
:1036900001D108F053FC97F85E32002B6AD1D7F8BD
:1036A0003C2207F10C03114618460CF05AFE034663
:1036B00087F85E3297F85E32002B4BD197F85E3276
:1036C000002B41D10021454816F0A0FEC7F8580252
:1036D000454B1B68C7F85432414BDB789C46404B46
:1036E0005B789E463E4B9B781A463B4B1B781946AF
:1036F000394B5B781C46384B9B781D46D7F85832BF
:103700001B0C9BB21E46D7F858329BB23B60D7F8D1
:1037100054321B0C9BB2D7F8540280B207F10C084C
:10372000079006933B6805930496039502940191D4
:103730000092734662462D49404609F0B3FD07F1F9
:103740000C03184600F0A2F807F10C0318460CF021
:10375000D9FD0FE0264B1B6897F85E2225491846D5
:1037600009F0A0FD244B1B6897F85E2221491846FA
:1037700009F098FD00201CF01DFB00201CF0FEFA53
:10378000002000F0AFF803461A4697F85F32134363
:1037900087F85F32012000F0A5F803461A4697F833
:1037A0005F32134387F85F32022000F09BF8034634
:1037B0001A4697F85F32134387F85F3297F85F3203
:1037C000002B02D10A2009F027FB002387F85F3283
:1037D000D3E700BFB80700202CE6002070E80020E7
:1037E0006CE80020E450060854280040F050060819
:1037F00014000020385106080C00002080B584B069
:1038000000AF786039603B68002B0BD03868FDF75B
:10381000A3F90346FB81FB891A463968786800F0F2
:1038200007F801E0FFF7C6FC00BF1037BD4680BDBA
:1038300080B586B000AFF860B9601346FB80FB88A6
:10384000FB82BB68002B18D0FB8A1A46B96800209F
:1038500009F0C4FF3861FB8ABA6813443A690A491F
:1038600018461EF0D1FAFB8A0A33FB82FA8AFB68FB
:103870000021B86809F076FE01E0FFF79BFC00BF6D
:103880001837BD4680BD00BF4C51060880B584B0D6
:1038900002AF78600C4B01930C4B0093592301222B
:1038A0000B49786809F0FEFC0A4B1A680A4B196844
:1038B0000A4B1B6800930B460949786809F0F2FC33
:1038C00000BF0837BD4680BD7C51060888510608F8
:1038D00054510608107AFF1F147AFF1F187AFF1F31
:1038E00094510608F0B5B7B008AF0346FB73002348
:1038F00087F8AF30FB7B022B01D9FFF75BFCFB7B2A
:103900001B02BD4A9818FB7B0D22FF2107F020FB0C
:103910000346002B07F04E82FB7BB84A52F8233057
:10392000C7F88C30FB7B1B02B34A1344B4491846DA
:103930001EF0CDFAC7F88800D7F88830002B07F0C2
:103940007082012387F8AF30D7F88800FDF704F9BB
:10395000C7F88400D7F88430B3F5807F07F20C8273
:10396000FB7B1B02A74A1344D7F8881018461EF0A9
:10397000A6FA0423C7F8B4300423C7F8B03028E00F
:10398000FB7BA04A1B021A44D7F8B43013441878C2
:10399000FA7BD7F8B43001339A4912020A4413442F
:1039A0001B78FC7B194607F025FB03461946954A10
:1039B00023021A44D7F8B03013440A461A70D7F8D5
:1039C000B4300233C7F8B430D7F8B0300133C7F899
:1039D000B030D7F8B420D7F884309A42D0D3FB7BEC
:1039E000884A1B02134404331B78112B08D0FB7B3D
:1039F000844A1B02134404331B78402B40F034816B
:103A0000FB7B804A1B02134404331B78112B55D1D6
:103A1000FB7B7C4A1B02134403331B78522B0DD1D2
:103A2000FB7B784A1B02134405331B7819460020A0
:103A300007F008FB0346A7F8AC309DE0FB7B714A1A
:103A40001B02134403331B78572B0DD1FB7B6D4AAC
:103A50001B02134405331B781946012007F0F2FAC4
:103A60000346A7F8AC3087E0FB7B664A1B02134491
:103A700003331B78442B04D1D7F88430A7F8AC303B
:103A80007AE0FB7B4FF4867202FB03F35E4A134439
:103A90005E491A460B4603CB10605160FB7B4FF426
:103AA000867202FB03F3584A13441946D7F88C0078
:103AB000FFF7A4FE97F8AF3007F0B5B9FB7B514A8A
:103AC0001B02134404331B78402B55D1FB7B4D4A1A
:103AD0001B02134403331B78522B0DD1FB7B494A45
:103AE0001B02134405331B781946022007F0AAFA7B
:103AF0000346A7F8AC303FE0FB7B424A1B0213446D
:103B000003331B78572B0DD1FB7B3E4A1B0213441A
:103B100005331B781946032007F094FA0346A7F8EB
:103B2000AC3029E0FB7B374A1B02134403331B787C
:103B3000442B04D1D7F88430A7F8AC301CE0FB7BD1
:103B40004FF4867202FB03F32F4A13442F491A469F
:103B50000B4603CB10605160FB7B4FF4867202FB77
:103B600003F3294A13441946D7F88C00FFF746FEA1
:103B700097F8AF3007F057B9B7F8AC3009331A46A9
:103B8000D7F88430934245D1D7F88430093B1A46A0
:103B9000D7F88810002009F021FEC7F88000B7F898
:103BA000AC300133D7F888201344184607F00CFBDB
:103BB000F867D7F88020FB6F9A4255D0FB7B4FF413
:103BC000867202FB03F3104A1344D7F88020104991
:103BD00018461EF019F9FB7B4FF4867202FB03F3C3
:103BE000094A13441946D7F88C00FFF707FE97F8E7
:103BF000AF3007F018B900BFBC0A00201C0000203D
:103C0000B4510608BC07002060150020B851060812
:103C1000C0510608B7F8AC30D7F884209A4223D0B8
:103C2000FB7B4FF4867202FB03F3B64A1344B64A99
:103C30001C4615460FCD20606160A260E3600FCD89
:103C400020616161A261E361FB7B4FF4867202FB3C
:103C500003F3AC4A13441946D7F88C00FFF7CEFDA6
:103C600097F8AF3007F0DFB8FB7BA84A1B0213447C
:103C700003331B78522B42F0FA82FB7BA34A1B02D0
:103C8000134404331B78402B40F0C780FB7B9F4AD2
:103C90001B02134406331B789BB21B029AB2FB7BB8
:103CA0009A491B020B4407331B789BB21344A7F8B5
:103CB0004A30FB7B954A1B02134405331B78012BCA
:103CC000C0F28E800B2B02DD402B40F08980B7F8CC
:103CD0004A30B3F5005F30D3B7F84A30B3F5405FF0
:103CE0002BD2FB7B4FF4867202FB03F3854A9818B4
:103CF000FB7B864A1B02134405331B781A46844912
:103D00001EF082F8FB7B4FF4867202FB03F37D4AC0
:103D100013441946D7F88C00FFF770FDFB7B7B4AF4
:103D20001B02134405331978B7F84A0000230093A7
:103D3000002352220FF068FF50E0B7F84A30B3F585
:103D4000805F30D3B7F84A30B3F5005F2BD2FB7BEE
:103D50004FF4867202FB03F36A4A9818FB7B6B4AA6
:103D60001B02134405331B781A466A491EF04CF8AF
:103D7000FB7B4FF4867202FB03F3624A134419463D
:103D8000D7F88C00FFF73AFDFB7B604A1B02134417
:103D900005331978B7F84A00002300930023522214
:103DA0001DF094FA1AE0FB7B4FF4867202FB03F3DA
:103DB000544A1344B7F84A20574918461EF024F8CD
:103DC000FB7B4FF4867202FB03F34E4A1344194601
:103DD000D7F88C00FFF712FD07F023B807F021B8E1
:103DE000FB7B4FF4867202FB03F3464A13444B4AB3
:103DF0001C4615460FCD20606160A260E360FB7B2E
:103E00004FF4867202FB03F33E4A13441946D7F877
:103E10008C00FFF7F3FC07F004B8FB7B3B4A1B0266
:103E2000134404331B78182B40F03881002387F8A3
:103E3000AB300A23A7F8AC30B7F8AC3009331A46D8
:103E4000D7F88430934236D1D7F88430093B1A46EC
:103E5000D7F88810002009F0C1FCC7F88000B7F837
:103E6000AC300133D7F888201344184607F0ACF97A
:103E7000F867D7F88020FB6F9A4255D0FB7B4FF450
:103E8000867202FB03F31F4A1344D7F880202449AB
:103E900018461DF0B9FFFB7B4FF4867202FB03F35B
:103EA000184A13441946D7F88C00FFF7A7FC97F877
:103EB000AF3006F0B8BFB7F8AC30D7F884209A42DC
:103EC00032D0FB7B4FF4867202FB03F30D4A13449E
:103ED000144A1C46134607CB20606160A2601B7821
:103EE0002373FB7B4FF4867202FB03F3054A1344F2
:103EF0001946D7F88C00FFF781FC97F8AF3006F031
:103F000092BF00BF60150020D8510608BC070020F2
:103F1000F851060818520608385206084C5206088E
:103F2000C05106085C520608FB7BB24A1B021344D0
:103F300006331B78302B00F29480FB7BAD4A1B02CA
:103F4000134406331B78002B00F08B8007F04CFCE9
:103F500097F8AB30002B1BD097F8AA30012B0DD06F
:103F600097F8AA30032B09D097F8AA30022B08D172
:103F7000A14B93F83D30DBB2202B02D19E4807F0D5
:103F8000BDFC052008F048FF97F8AB30092B1FD87F
:103F9000FB7B984A1B02134406331B789AB20A2310
:103FA00002930223019307F11403009301233021AC
:103FB000914812F051FC034687F8AA3097F8AB30CD
:103FC000013387F8AB3097F8AA30002BC0D100E05E
:103FD00000BF894811F0C8FF97F8AA30002B23D101
:103FE0003B7D9BB21B029AB27B7D9BB21344A7F828
:103FF0004C30FB7B4FF4867202FB03F37F4A134481
:10400000B7F84C207E4918461DF0FEFEFB7B4FF4AE
:10401000867202FB03F3794A13441946D7F88C00E1
:10402000FFF7ECFB06F0FDBEFB7B4FF4867202FB54
:1040300003F3724A1344734A1C4615460FCD2060A1
:104040006160A260E360FB7B4FF4867202FB03F3C6
:104050006A4A13441946D7F88C00FFF7CFFB06F0E5
:10406000E0BEFB7B4FF4867202FB03F3634A13440A
:10407000654A1C4615460FCD20606160A260E36072
:10408000FB7B4FF4867202FB03F35C4A1344194630
:10409000D7F88C00FFF7B2FB06F0C3BEFB7B554A96
:1040A0001B02134404331B78332B40F01881002388
:1040B00087F8A8300823A7F8AC30B7F8AC3009333C
:1040C0001A46D7F88430934236D1D7F88430093B6A
:1040D0001A46D7F88810002009F080FBC7F8800046
:1040E000B7F8AC300133D7F888201344184607F0EE
:1040F0006BF8F867D7F88020FB6F9A4242D0FB7BC1
:104100004FF4867202FB03F33C4A1344D7F8802035
:104110003E4918461DF078FEFB7B4FF4867202FB89
:1041200003F3364A13441946D7F88C00FFF766FBB1
:1041300097F8AF3006F077BEB7F8AC30D7F88420E8
:104140009A421FD0FB7B4FF4867202FB03F32B4A8B
:1041500013442F4A1C46134607CB20606160A260BF
:104160001B782373FB7B4FF4867202FB03F3234A15
:1041700013441946D7F88C00FFF740FB97F8AF308F
:1041800006F051BE07F030FB97F8A830002B1BD08B
:1041900097F8A930012B0DD097F8A930032B09D03F
:1041A00097F8A930022B08D1134B93F83D30DBB2BE
:1041B000202B02D1104807F0A1FB052008F02CFEAF
:1041C00097F8A830092B25D807F110020A2300938D
:1041D00004236621084812F005F8034687F8A93041
:1041E00097F8A830013387F8A83097F8A930002B4A
:1041F000CAD110E0BC070020D8E5002060150020DF
:104200006C5206087452060884520608C05106080B
:104210005C52060800BFE24811F0A6FE97F8A930EC
:10422000002B32D13A7CDF4B1A707A7CDD4B5A700E
:10423000BA7CDC4B9A70FA7CDA4BDA70FB7B4FF479
:10424000867202FB03F3D84A9818D64B1B7819469E
:10425000D44B5B781C46D34B9B781A46D14BDB780A
:104260000193009223460A46D0491DF0CDFDFB7B09
:104270004FF4867202FB03F3CB4A13441946D7F876
:104280008C00FFF7BBFA06F0CCBDFB7B4FF48672C7
:1042900002FB03F3C44A1344C54A14469C4604F186
:1042A000200E654626460FCE28606960AA60EB6046
:1042B00010340CF1100C7445F3D1624623461B8870
:1042C0001380FB7B4FF4867202FB03F3B64A134460
:1042D0001946D7F88C00FFF791FA06F0A2BDFB7BD8
:1042E000B44A1B02134404331B78112B41F0A287FC
:1042F000FB7BB04A1B02134405331B787F2B01F272
:104300007B8701A252F823F009450408FF45040801
:10431000F9460408CD470408F9480408D7490408B9
:10432000C94A0408D14B0408C34C0408834D04084F
:10433000434E0408434F040803500408C3500408C4
:104340009B5104088552040845530408F961040888
:10435000F9610408F96104081D540408755504083E
:104360009D560408C557040819590408415A040801
:10437000695B0408095C0408755C0408E15C0408D6
:104380004D5D0408B95D0408255E0408F961040860
:10439000F9610408F9610408F9610408F961040885
:1043A000F9610408F9610408F9610408F961040875
:1043B000F9610408F9610408F9610408F961040865
:1043C000F9610408F9610408F9610408115F04083F
:1043D000F9610408D75F0408F961040891600408D2
:1043E000F9610408F9610408F9610408F961040835
:1043F000F9610408F9610408F9610408F961040825
:10440000F9610408F9610408F9610408F961040814
:10441000F9610408F9610408F9610408F961040804
:10442000F9610408F9610408F9610408F9610408F4
:10443000F9610408F9610408F9610408F9610408E4
:10444000F9610408F9610408F9610408F9610408D4
:10445000F9610408F9610408F9610408F9610408C4
:10446000F9610408F9610408F9610408F9610408B4
:10447000F9610408F9610408F9610408F9610408A4
:10448000F9610408F9610408F9610408DF600408AF
:10449000F9610408F9610408F9610408F961040884
:1044A000F9610408F9610408F9610408F961040874
:1044B000F9610408F9610408F9610408F961040864
:1044C000F9610408F9610408F9610408F961040854
:1044D000F9610408F9610408F9610408F961040844
:1044E000F9610408F9610408F9610408F961040834
:1044F000F9610408F9610408F9610408F961040824
:10450000F96104087561040807F120031946302099
:1045100008F00FF80346012B52D1FB7B4FF4867253
:1045200002FB03F3204A9818B7F920301A46B7F96E
:1045300022301946B7F9243000930B461E491DF06E
:1045400063FCFB7B4FF4867202FB03F3164A1344B1
:104550001946D7F88C00FFF751F9FB7B4FF48672B0
:1045600002FB03F3104A9818B7F920301A46B7F93E
:1045700022301946B7F9243000930B460F491DF03D
:1045800043FCFB7B4FF4867202FB03F3064A1344A1
:104590001946D7F88C00FFF731F906F042BC00BF8E
:1045A000D8E5002064EA0020601500209452060837
:1045B000A8520608BC070020CC520608DC520608A8
:1045C000C14807F09BF9FB7B4FF4867202FB03F3B3
:1045D000BE4A1344BE4A1846114654231A461CF0DC
:1045E000ECFEFB7B4FF4867202FB03F3B74A1344E5
:1045F0001946D7F88C00FFF701F906F012BCFB7BD7
:10460000B44A1B02134406331978FB7B1B020733A1
:10461000B04A13441A46302007F062FE0346012BCD
:1046200049D1FB7B4FF4867202FB03F3A74A98182B
:10463000FB7BA84A1B02134406331B781946FB7BFD
:10464000A44A1B02134407331B780A46A2491DF0F3
:10465000DBFBFB7B4FF4867202FB03F39B4A1344A4
:104660001946D7F88C00FFF7C9F8FB7B4FF4867228
:1046700002FB03F3954A9818FB7B964A1B021344EE
:1046800006331B781946FB7B924A1B0213440733FF
:104690001B780A4691491DF0B7FBFB7B4FF48672ED
:1046A00002FB03F3894A13441946D7F88C00FFF73D
:1046B000A5F806F0B6BBFB7B4FF4867202FB03F352
:1046C000824A1344864A1D4614460FCC286069600E
:1046D000AA60EB6007CC28616961AA61FB7B4FF49B
:1046E000867202FB03F3794A13441946D7F88C000B
:1046F000FFF784F806F095BB07F120031946322036
:1047000007F017FF0346012B41D1FB7B4FF4867264
:1047100002FB03F36D4A9818B7F920301A46B7F92F
:1047200022301946B7F9243000930B466D491DF02D
:104730006BFBFB7B4FF4867202FB03F3634A13446B
:104740001946D7F88C00FFF759F8FB7B4FF48672B7
:1047500002FB03F35D4A9818B7F920301A46B7F9FF
:1047600022301946B7F9243000930B465E491DF0FC
:104770004BFBFB7B4FF4867202FB03F3534A13445B
:104780001946D7F88C00FFF739F806F04ABB4E48B7
:1047900007F0B4F8FB7B4FF4867202FB03F34B4A3D
:1047A0001344524A184611464E231A461CF005FE81
:1047B000FB7B4FF4867202FB03F3444A1344194611
:1047C000D7F88C00FFF71AF806F02BBBFB7B414AA9
:1047D0001B02134406331978FB7B1B0207333D4A47
:1047E00013441A46322007F07BFD0346012B49D1C2
:1047F000FB7B4FF4867202FB03F3344A9818FB7B71
:10480000344A1B02134406331B781946FB7B314A9A
:104810001B02134407331B780A4635491DF0F4FA8E
:10482000FB7B4FF4867202FB03F3284A13441946BC
:10483000D7F88C00FEF7E2FFFB7B4FF4867202FB99
:1048400003F3224A9818FB7B224A1B0213440633C7
:104850001B781946FB7B1F4A1B02134407331B7846
:104860000A4624491DF0D0FAFB7B4FF4867202FB06
:1048700003F3164A13441946D7F88C00FEF7BEFF1F
:1048800006F0CFBAFB7B4FF4867202FB03F30F4AAC
:104890001344134A1D4614460FCC28606960AA6071
:1048A000EB6007CC28616961AA61FB7B4FF48672DB
:1048B00002FB03F3054A13441946D7F88C00FEF7B0
:1048C0009DFF06F0AEBA00BF4CE600206015002048
:1048D000FC520608BC070020505306086053060827
:1048E0008C530608A8530608B8530608D853060880
:1048F000285406083854060807F1280338211846BA
:1049000008F062FC0346002B1FD0A74806F0F6FF14
:10491000FB7B4FF4867202FB03F3A44A1344A44AC0
:104920001C4615460FCD20606160A260E360FB7BF2
:104930004FF4867202FB03F39C4A13441946D7F8DE
:104940008C00FEF75BFF06F06CBAFB7B4FF48672BF
:1049500002FB03F3954A9818D7E90A56D7E90C34B5
:10496000D7E90E12CDE90212CDE900342A463346CA
:1049700090491DF049FAFB7B4FF4867202FB03F36A
:104980008A4A13441946D7F88C00FEF737FFFB7BA1
:104990004FF4867202FB03F3844A9818D7E90A564B
:1049A000D7E90C34D7E90E12CDE90212CDE9003473
:1049B0002A46334680491DF027FAFB7B4FF4867266
:1049C00002FB03F3794A13441946D7F88C00FEF72B
:1049D00015FF06F026BAFB7B784A1B021344063308
:1049E0001978FB7B1B020733744A13441A4638209C
:1049F0000DF0E8F80346012B49D1FB7B4FF486729A
:104A000002FB03F3694A9818FB7B6C4A1B021344B0
:104A100006331B781946FB7B684A1B021344073395
:104A20001B780A4666491DF0EFF9FB7B4FF486724E
:104A300002FB03F35D4A13441946D7F88C00FEF7D6
:104A4000DDFEFB7B4FF4867202FB03F3574A981896
:104A5000FB7B5A4A1B02134406331B781946FB7B27
:104A6000564A1B02134407331B780A4655491DF06A
:104A7000CBF9FB7B4FF4867202FB03F34B4A1344E2
:104A80001946D7F88C00FEF7B9FE06F0CAB9FB7BD1
:104A90004FF4867202FB03F3444A1344444A1C4613
:104AA00015460FCD20606160A260E360FB7B4FF490
:104AB000867202FB03F33D4A13441946D7F88C0073
:104AC000FEF79CFE06F0ADB93C2008F042FB07F172
:104AD00028033C21184608F077FB0346002B1CD026
:104AE000FB7B4FF4867202FB03F3304A1344304AD7
:104AF0001C4615460FCD20606160A260E360FB7B21
:104B00004FF4867202FB03F3284A13441946D7F880
:104B10008C00FEF773FE06F084B9FB7B4FF48672BF
:104B200002FB03F3214A9818D7E90A56D7E90C3457
:104B3000D7E90E12CDE90212CDE900342A463346F8
:104B400021491DF061F9FB7B4FF4867202FB03F3F0
:104B5000164A13441946D7F88C00FEF74FFEFB7B2C
:104B60004FF4867202FB03F3104A9818D7E90A56ED
:104B7000D7E90C34D7E90E12CDE90212CDE90034A1
:104B80002A46334611491DF03FF9FB7B4FF48672EC
:104B900002FB03F3054A13441946D7F88C00FEF7CD
:104BA0002DFE06F03EB900BF4CE600206015002047
:104BB00074520608645406087C540608BC0700209A
:104BC00050530608C8540608F0540608085506084D
:104BD000FB7BC34A1B02134406331978FB7B1B0281
:104BE0000733BF4A13441A463C200CF0EBFF034640
:104BF000012B49D1FB7B4FF4867202FB03F3B94AC8
:104C00009818FB7BB64A1B02134406331B781946DF
:104C1000FB7BB34A1B02134407331B780A46B24995
:104C20001DF0F2F8FB7B4FF4867202FB03F3AD4AF2
:104C300013441946D7F88C00FEF7E0FDFB7B4FF4D8
:104C4000867202FB03F3A74A9818FB7BA44A1B0257
:104C5000134406331B781946FB7BA14A1B021344FD
:104C600007331B780A46A1491DF0CEF8FB7B4FF4B1
:104C7000867202FB03F39B4A13441946D7F88C0053
:104C8000FEF7BCFD06F0CDB8FB7B4FF4867202FB4D
:104C900003F3944A1344964A1C4615460FCD2060F0
:104CA0006160A260E360FB7B4FF4867202FB03F35A
:104CB0008C4A13441946D7F88C00FEF79FFD06F086
:104CC000B0B807F12003194600200DF027FC034679
:104CD000012B39D1B7F9203047F6FF72934233D018
:104CE000FB7B4FF4867202FB03F37E4A1344B7F951
:104CF0002020804918461DF087F8FB7B4FF4867210
:104D000002FB03F3774A13441946D7F88C00FEF7E9
:104D100075FDFB7B4FF4867202FB03F3714A13446B
:104D2000B7F92020744918461DF06EF8FB7B4FF44C
:104D3000867202FB03F36B4A13441946D7F88C00C2
:104D4000FEF75CFD06F06DB8FB7B4FF4867202FB4C
:104D500003F3644A1344664A1C4615460FCD20608F
:104D60006160A260E360FB7B4FF4867202FB03F399
:104D70005C4A13441946D7F88C00FEF73FFD06F055
:104D800050B807F12003194600200DF099FC0346A6
:104D9000012B39D1B7F9203047F6FF72934233D057
:104DA000FB7B4FF4867202FB03F34E4A1344B7F9C0
:104DB0002020504918461DF027F8FB7B4FF48672DF
:104DC00002FB03F3474A13441946D7F88C00FEF759
:104DD00015FDFB7B4FF4867202FB03F3414A13443B
:104DE000B7F92020454918461DF00EF8FB7B4FF41B
:104DF000867202FB03F33B4A13441946D7F88C0032
:104E0000FEF7FCFC06F00DB8FB7B4FF4867202FB4C
:104E100003F3344A1344364A1C4615460FCD20602E
:104E20006160A260E360FB7B4FF4867202FB03F3D8
:104E30002C4A13441946D7F88C00FEF7DFFC05F026
:104E4000F0BFFB7B264A1B02134406331B7807F195
:104E50004801032218460DF09DFA0346012B53D159
:104E6000FB7B4FF4867202FB03F31E4A9818FB7B10
:104E70001B4A1B02134406331B781A46B7F8483006
:104E80001F491CF0C1FFFB7B4FF4867202FB03F34A
:104E9000144A13441946D7F88C00FEF7AFFCFB7B8D
:104EA0004FF4867202FB03F30E4A9818FB7B0C4A00
:104EB0001B02134406331B781A46B7F848301149D1
:104EC0001CF0A2FFFB7B4FF4867202FB03F3054A42
:104ED00013441946D7F88C00FEF790FC05F0A1BFEB
:104EE000BC07002060150020285406085455060809
:104EF000745206087C550608845506089C55060819
:104F000050530608B4550608FB7B4FF4867202FB2B
:104F100003F3D24A1344D24A1C4615460FCD2060F3
:104F20006160A260E360FB7B4FF4867202FB03F3D7
:104F3000CA4A13441946D7F88C00FEF75FFC05F007
:104F400070BF07F12003194601200DF0E7FA034670
:104F5000012B39D1B7F9223047F6FF72934233D093
:104F6000FB7B4FF4867202FB03F3BC4A1344B7F990
:104F70002220BC4918461CF047FFFB7B4FF4867289
:104F800002FB03F3B54A13441946D7F88C00FEF729
:104F900035FCFB7B4FF4867202FB03F3AF4A1344EC
:104FA000B7F92220B04918461CF02EFFFB7B4FF4C6
:104FB000867202FB03F3A94A13441946D7F88C0002
:104FC000FEF71CFC05F02DBFFB7B4FF4867202FB45
:104FD00003F3A24A1344A24A1C4615460FCD206093
:104FE0006160A260E360FB7B4FF4867202FB03F317
:104FF0009A4A13441946D7F88C00FEF7FFFB05F0D8
:1050000010BF07F12003194601200DF059FB03469C
:10501000012B39D1B7F9223047F6FF72934233D0D2
:10502000FB7B4FF4867202FB03F38C4A1344B7F9FF
:1050300022208C4918461CF0E7FEFB7B4FF4867259
:1050400002FB03F3854A13441946D7F88C00FEF798
:10505000D5FBFB7B4FF4867202FB03F37F4A1344BC
:10506000B7F92220814918461CF0CEFEFB7B4FF495
:10507000867202FB03F3794A13441946D7F88C0071
:10508000FEF7BCFB05F0CDBEFB7B4FF4867202FB46
:1050900003F3724A1344724A1C4615460FCD206032
:1050A0006160A260E360FB7B4FF4867202FB03F356
:1050B0006A4A13441946D7F88C00FEF79FFB05F0A7
:1050C000B0BEFB7B6A4A1B02134406331B7807F110
:1050D0004801042218460DF05DF90346012B3FD12B
:1050E000FB7B4FF4867202FB03F35C4A9818FB7B50
:1050F0005F4A1B02134406331B781A46B7F8483040
:105100005C491CF081FEFB7B4FF4867202FB03F3CB
:10511000524A13441946D7F88C00FEF76FFBFB7B0D
:105120004FF4867202FB03F34C4A9818FB7B504AFB
:105130001B02134406331B781A46B7F848304E4911
:105140001CF062FEFB7B4FF4867202FB03F3434AC2
:1051500013441946D7F88C00FEF750FB05F061BEEA
:10516000FB7B4FF4867202FB03F33C4A13443C4A38
:105170001C4615460FCD20606160A260E360FB7B9A
:105180004FF4867202FB03F3344A13441946D7F8EE
:105190008C00FEF733FB05F044BE07F120031946EF
:1051A00002200DF0BBF90346012B39D1B7F92430A9
:1051B00047F6FF72934233D0FB7B4FF4867202FBBB
:1051C00003F3264A1344B7F924202C4918461CF04F
:1051D0001BFEFB7B4FF4867202FB03F31F4A134452
:1051E0001946D7F88C00FEF709FBFB7B4FF486725B
:1051F00002FB03F3194A1344B7F924202049184647
:105200001CF002FEFB7B4FF4867202FB03F3134A91
:1052100013441946D7F88C00FEF7F0FA05F001BEEA
:10522000FB7B4FF4867202FB03F30C4A13440C4AD7
:105230001C4615460FCD20606160A260E360FB7BD9
:105240004FF4867202FB03F3044A13441946D7F85D
:105250008C00FEF7D3FA05F0E4BD00BF6015002016
:1052600074520608D8550608E0550608F855060891
:10527000BC070020285406081056060834560608B5
:105280003C56060807F12003194602200DF018FAD3
:105290000346012B39D1B7F9243047F6FF72934208
:1052A00033D0FB7B4FF4867202FB03F3A54A134411
:1052B000B7F92420A44918461CF0A6FDFB7B4FF447
:1052C000867202FB03F39F4A13441946D7F88C00F9
:1052D000FEF794FAFB7B4FF4867202FB03F3994AC4
:1052E0001344B7F92420994918461CF08DFDFB7B27
:1052F0004FF4867202FB03F3924A13441946D7F81F
:105300008C00FEF77BFA05F08CBDFB7B4FF48672B8
:1053100002FB03F38B4A13448D4A1C4615460FCDFE
:1053200020606160A260E360FB7B4FF4867202FB49
:1053300003F3844A13441946D7F88C00FEF75EFA4B
:1053400005F06FBDFB7B834A1B02134406331B78B9
:1053500007F14801052218460DF01CF80346012B01
:105360003FD1FB7B4FF4867202FB03F3754A98181A
:10537000FB7B784A1B02134406331B781A46B7F8A6
:10538000483075491CF040FDFB7B4FF4867202FBF0
:1053900003F36C4A13441946D7F88C00FEF72EFA33
:1053A000FB7B4FF4867202FB03F3664A9818FB7B83
:1053B000684A1B02134406331B781A46B7F8483074
:1053C00066491CF021FDFB7B4FF4867202FB03F360
:1053D0005C4A13441946D7F88C00FEF70FFA05F023
:1053E00020BDFB7B4FF4867202FB03F3554A134446
:1053F000574A1C4615460FCD20606160A260E360ED
:10540000FB7B4FF4867202FB03F34E4A13441946AA
:10541000D7F88C00FEF7F2F905F003BD0CF084FD1F
:1054200007F1180318460DF039FA0346012B63D132
:105430004B4B1B78DBB203F00103002B5CD0B7F9B8
:105440001830002B00DA0733DB101BB21A46134664
:105450009B0013445B00002B00DA0F331B11A7F8ED
:105460004E30FB7B4FF4867202FB03F3354A134444
:10547000B7F9182092B23B4918461CF0C5FCFB7BDB
:105480004FF4867202FB03F32E4A13441946D7F8F1
:105490008C00FEF7B3F9FB7B4FF4867202FB03F33B
:1054A000284A9818B7F94E302F4A82FB03129210FF
:1054B000DB17D31A1BB21C46B7F94E202A4B83FBCD
:1054C00002139910D317C91A0B469B000B445B00BB
:1054D000D31A1BB2224625491CF096FCFB7B4FF4E5
:1054E000867202FB03F3174A13441946D7F88C005F
:1054F000FEF784F905F095BCFB7B4FF4867202FB46
:1055000003F3104A13441A4A1D4614460FCC286070
:105510006960AA60EB6007CC28616961AA61238891
:10552000A278AB831346AB77FB7B4FF4867202FB0A
:1055300003F3044A13441946D7F88C00FEF75EF9CA
:1055400005F06FBC60150020345606085456060856
:1055500074520608BC0700206C5606087C560608E4
:1055600018CF0020A056060867666666AC56060887
:10557000D05606080CF0D8FC07F1180318460DF0B9
:105580008DF90346012B63D1C54B1B78DBB203F0C9
:105590000203002B5CD0B7F91A30002B00DA073376
:1055A000DB101BB21A4613469B0013445B00002B12
:1055B00000DA0F331B11A7F84E30FB7B4FF48672D5
:1055C00002FB03F3B74A1344B7F91A2092B2B64963
:1055D00018461CF019FCFB7B4FF4867202FB03F3A8
:1055E000B04A13441946D7F88C00FEF707F9FB7B45
:1055F0004FF4867202FB03F3AA4A9818B7F94E30AB
:10560000AA4A82FB03129210DB17D31A1BB21C4664
:10561000B7F94E20A54B83FB02139910D317C91A73
:105620000B469B000B445B00D31A1BB22246A049D9
:105630001CF0EAFBFB7B4FF4867202FB03F3994AF2
:1056400013441946D7F88C00FEF7D8F805F0E9BBEB
:10565000FB7B4FF4867202FB03F3924A1344954A94
:105660001D4614460FCC28606960AA60EB6007CC29
:1056700028616961AA612388A278AB831346AB775E
:10568000FB7B4FF4867202FB03F3864A13441946F0
:10569000D7F88C00FEF7B2F805F0C3BB0CF044FC61
:1056A00007F1180318460DF0F9F80346012B63D1F2
:1056B0007B4B1B78DBB203F00403002B5CD0B7F903
:1056C0001C30002B00DA0733DB101BB21A461346DE
:1056D0009B0013445B00002B00DA0F331B11A7F86B
:1056E0004E30FB7B4FF4867202FB03F36D4A13448A
:1056F000B7F91C2092B2704918461CF085FBFB7B61
:105700004FF4867202FB03F3664A13441946D7F836
:105710008C00FEF773F8FB7B4FF4867202FB03F3F9
:10572000604A9818B7F94E30604A82FB0312921013
:10573000DB17D31A1BB21C46B7F94E205B4B83FB19
:1057400002139910D317C91A0B469B000B445B0038
:10575000D31A1BB2224659491CF056FBFB7B4FF46F
:10576000867202FB03F34F4A13441946D7F88C00A4
:10577000FEF744F805F055BBFB7B4FF4867202FB45
:1057800003F3484A13444E4A1D4614460FCC286082
:105790006960AA60EB6007CC28616961AA6123880F
:1057A000A278AB831346AB77FB7B4FF4867202FB88
:1057B00003F33C4A13441946D7F88C00FEF71EF851
:1057C00005F02FBB0CF0B0FB07F1180318460DF0E5
:1057D000CBF80346012B79D1314B1B78DBB203F0B8
:1057E0000803002B72D0B7F91830002B00DA07330A
:1057F000DB101BB21A4613469B0013445B00002BC0
:1058000000DA0F331B11A7F84E30FB7B4FF4867282
:1058100002FB03F3234A1344B7F9182092B2294933
:1058200018461CF0F1FAFB7B4FF4867202FB03F37F
:105830001C4A13441946D7F88C00FDF7DFFFFB7BA9
:105840004FF4867202FB03F3164A9818B7F94E30EC
:10585000164A82FB03129210DB17D31A1BB21C46A6
:10586000B7F94E20114B83FB02139910D317C91AB5
:105870000B469B000B445B00D31A1BB22246124915
:105880001CF0C2FAFB7B4FF4867202FB03F3054A5D
:1058900013441946D7F88C00FDF7B0FF05F0C1BAE4
:1058A00018CF002060150020F0560608676666666F
:1058B000FC56060820570608405706084C570608AD
:1058C00070570608905706089C570608FB7B4FF454
:1058D000867202FB03F3BF4A1344BF4A1D461446B7
:1058E0000FCC28606960AA60EB6007CC2861696111
:1058F000AA612388A278AB831346AB77FB7B4FF476
:10590000867202FB03F3B34A13441946D7F88C009E
:10591000FDF774FF05F085BA0CF006FB07F11803DC
:1059200018460DF021F80346012B63D1AB4B1B78D1
:10593000DBB203F01003002B5CD0B7F91A30002B58
:1059400000DA0733DB101BB21A4613469B001344E0
:105950005B00002B00DA0F331B11A7F84E30FB7BE6
:105960004FF4867202FB03F39A4A1344B7F91A20E4
:1059700092B29B4918461CF047FAFB7B4FF48672A3
:1059800002FB03F3934A13441946D7F88C00FDF742
:1059900035FFFB7B4FF4867202FB03F38D4A9818A8
:1059A000B7F94E308F4A82FB03129210DB17D31ADD
:1059B0001BB21C46B7F94E208A4B83FB0213991089
:1059C000D317C91A0B469B000B445B00D31A1BB2BA
:1059D000224685491CF018FAFB7B4FF4867202FBC5
:1059E00003F37C4A13441946D7F88C00FDF706FFF1
:1059F00005F017BAFB7B4FF4867202FB03F3754A7E
:105A000013447A4A1D4614460FCC28606960AA6088
:105A1000EB6007CC28616961AA612388A278AB8317
:105A20001346AB77FB7B4FF4867202FB03F3694AA4
:105A300013441946D7F88C00FDF7E0FE05F0F1B9E4
:105A40000CF072FA07F1180318460CF08DFF0346AC
:105A5000012B63D1614B1B78DBB203F02003002BD9
:105A60005CD0B7F91C30002B00DA0733DB101BB217
:105A70001A4613469B0013445B00002B00DA0F33D9
:105A80001B11A7F84E30FB7B4FF4867202FB03F329
:105A9000504A1344B7F91C2092B2554918461CF0DD
:105AA000B3F9FB7B4FF4867202FB03F3494A1344BC
:105AB0001946D7F88C00FDF7A1FEFB7B4FF48672E8
:105AC00002FB03F3434A9818B7F94E30454A82FB6C
:105AD00003129210DB17D31A1BB21C46B7F94E20E3
