:020000040804EE
:100000000000032031C3040807E8050815E80508C7
:100010007DE805089DE80508BDE80508000000002A
:10002000000000000000000000000000912C050806
:10003000DDE8050800000000A12E0508EBE8050832
:10004000F9E8050881C3040881C3040881C30408D2
:1000500081C3040881C3040881C3040881C3040860
:1000600081C3040881C3040881C3040881C3040850
:1000700081C3040881C30408F9EB050881C304089F
:1000800081C3040881C3040881C3040881C3040830
:1000900081C3040881C3040881C3040881C3040820
:1000A00081C304080DEC050881C3040881C304085A
:1000B00081C3040881C3040881C3040849EC05080E
:1000C0005DEC050871EC050885EC050881C30408A2
:1000D00081C3040855E9050881C3040881C30408E5
:1000E0000DE9050881C3040881C3040881C304081D
:1000F00081C3040881C3040881C3040881C30408C0
:1001000081C3040841E9050881C3040881C30408C8
:10011000DDE9050881C3040881C3040881C304081C
:1001200081C3040881C3040881C3040821EC0508C5
:1001300081C3040881C3040881C3040881C304087F
:1001400081C3040881C3040881C3040881C304086F
:1001500081C3040835EC050881C3040869EA050871
:1001600099EC0508ADEC050881C3040881C30408B7
:1001700081C3040881C3040881C30408000000008F
:1001800081C3040881C30408F5EA050881C3040893
:1001900081C3040881C3040881C3040881C304081F
:0C01A000000000000000000081C3040803
:1001B00010B5054C237833B9044B13B10448AFF3A1
:1001C00000800123237010BD900700200000000074
:1001D0007C3E060808B5034B1BB103490348AFF347
:1001E000008008BD00000000940700207C3E060847
:1001F00081F0004102E000BF83F0004330B54FEAD8
:1002000041044FEA430594EA050F08BF90EA020F44
:100210001FBF54EA000C55EA020C7FEA645C7FEAD7
:10022000655C00F0E2804FEA5454D4EB5555B8BFFA
:100230006D420CDD2C4480EA020281EA030382EA6B
:10024000000083EA010180EA020281EA0303362DFD
:1002500088BF30BD11F0004F4FEA01314FF4801CD0
:100260004CEA113102D0404261EB410113F0004FE2
:100270004FEA03334CEA133302D0524263EB430399
:1002800094EA050F00F0A780A4F10104D5F1200E37
:100290000DDB02FA0EFC22FA05F2801841F1000192
:1002A00003FA0EF2801843FA05F359410EE0A5F166
:1002B00020050EF1200E012A03FA0EFC28BF4CF097
:1002C000020C43FA05F3C01851EBE37101F000454D
:1002D00007D54FF0000EDCF1000C7EEB00006EEB5A
:1002E0000101B1F5801F1BD3B1F5001F0CD34908E4
:1002F0005FEA30004FEA3C0C04F101044FEA44523B
:1003000012F5800F80F09A80BCF1004F08BF5FEAC1
:10031000500C50F1000041EB045141EA050130BDA1
:100320005FEA4C0C404141EB010111F4801FA4F144
:100330000104E9D191F0000F04BF01460020B1FA99
:1003400081F308BF2033A3F10B03B3F120020CDAD1
:100350000C3208DD02F1140CC2F10C0201FA0CF0AF
:1003600021FA02F10CE002F11402D8BFC2F1200C14
:1003700001FA02F120FA0CFCDCBF41EA0C019040CA
:10038000E41AA2BF01EB0451294330BD6FEA040413
:100390001F3C1CDA0C340EDC04F11404C4F12002FE
:1003A00020FA04F001FA02F340EA030021FA04F310
:1003B00045EA030130BDC4F10C04C4F1200220FA67
:1003C00002F001FA04F340EA0300294630BD21FAA5
:1003D00004F0294630BD94F0000F83F4801306BF6B
:1003E00081F480110134013D4EE77FEA645C18BF5F
:1003F0007FEA655C29D094EA050F08BF90EA020FF6
:1004000005D054EA000C04BF1946104630BD91EAED
:10041000030F1EBF0021002030BD5FEA545C05D1F0
:100420004000494128BF41F0004130BD14F580042F
:100430003CBF01F5801130BD01F0004545F0FE41A3
:1004400041F470014FF0000030BD7FEA645C1ABFD8
:10045000194610467FEA655C1CBF0B46024650EA0F
:10046000013406BF52EA033591EA030F41F400213B
:1004700030BD00BF90F0000F04BF0021704730B5C1
:100480004FF4806404F132044FF000054FF0000196
:1004900050E700BF90F0000F04BF0021704730B557
:1004A0004FF4806404F1320410F0004548BF40422C
:1004B0004FF000013EE700BF42004FEAE2014FEA81
:1004C00031014FEA02701FBF12F07F4393F07F4F5C
:1004D00081F06051704732F07F4208BF704793F05F
:1004E0007F4F04BF41F40021704730B54FF4607472
:1004F00001F0004521F000411CE700BF50EA010275
:1005000008BF704730B54FF000050AE050EA01021D
:1005100008BF704730B511F0004502D5404261EB8D
:1005200041014FF4806404F132045FEA915C3FF4CE
:10053000D8AE4FF003025FEADC0C18BF03325FEA6B
:10054000DC0C18BF033202EBDC02C2F1200300FA1C
:1005500003FC20FA02F001FA03FE40EA0E0021FA41
:1005600002F11444BDE600BF70B54FF0FF0C4CF42F
:10057000E06C1CEA11541DBF1CEA135594EA0C0FE1
:1005800095EA0C0F00F0DEF82C4481EA030621EA1C
:100590004C5123EA4C5350EA013518BF52EA033557
:1005A00041F4801143F4801338D0A0FB02CE4FF009
:1005B0000005E1FB02E506F00042E0FB03E54FF039
:1005C0000006E1FB03569CF0000F18BF4EF0010E31
:1005D000A4F1FF04B6F5007F64F5407404D25FEA2D
:1005E0004E0E6D4146EB060642EAC62141EA5551E0
:1005F0004FEAC52040EA5E504FEACE2EB4F1FD0C22
:1006000088BFBCF5E06F1ED8BEF1004F08BF5FEA9F
:10061000500E50F1000041EB045170BD06F0004651
:1006200046EA010140EA020081EA0301B4EB5C04FE
:10063000C2BFD4EB0C0541EA045170BD41F48011F6
:100640004FF0000E013C00F3AB8014F1360FDEBF1B
:10065000002001F0004170BDC4F10004203C35DAF7
:100660000C341BDC04F11404C4F1200500FA05F37A
:1006700020FA04F001FA05F240EA020001F000421B
:1006800021F0004110EBD37021FA04F642EB060191
:100690005EEA430E08BF20EAD37070BDC4F10C04BB
:1006A000C4F1200500FA04F320FA05F001FA04F27F
:1006B00040EA020001F0004110EBD37041F100016B
:1006C0005EEA430E08BF20EAD37070BDC4F1200576
:1006D00000FA05F24EEA020E20FA04F301FA05F2DE
:1006E00043EA020321FA04F001F0004121FA04F286
:1006F00020EA020000EBD3705EEA430E08BF20EA56
:10070000D37070BD94F0000F0FD101F0004640008F
:1007100041EB010111F4801F08BF013CF7D041EA11
:10072000060195F0000F18BF704703F00046520015
:1007300043EB030313F4801F08BF013DF7D043EAE6
:100740000603704794EA0C0F0CEA135518BF95EA9C
:100750000C0F0CD050EA410618BF52EA4306D1D123
:1007600081EA030101F000414FF0000070BD50EA42
:10077000410606BF1046194652EA430619D094EACC
:100780000C0F02D150EA013613D195EA0C0F05D1B6
:1007900052EA03361CBF104619460AD181EA03010A
:1007A00001F0004141F0FE4141F470014FF00000C2
:1007B00070BD41F0FE4141F4780170BD70B54FF05D
:1007C000FF0C4CF4E06C1CEA11541DBF1CEA1355DD
:1007D00094EA0C0F95EA0C0F00F0A7F8A4EB0504BF
:1007E00081EA030E52EA03354FEA013100F08880B6
:1007F0004FEA03334FF0805545EA131343EA12637F
:100800004FEA022245EA111545EA10654FEA002633
:100810000EF000419D4208BF964244F1FD0404F5EC
:10082000407402D25B084FEA3202B61A65EB030548
:100830005B084FEA32024FF480104FF4002CB6EB05
:10084000020E75EB030E22BFB61A754640EA0C0085
:100850005B084FEA3202B6EB020E75EB030E22BFC5
:10086000B61A754640EA5C005B084FEA3202B6EB06
:10087000020E75EB030E22BFB61A754640EA9C00C5
:100880005B084FEA3202B6EB020E75EB030E22BF95
:10089000B61A754640EADC0055EA060E18D04FEA53
:1008A000051545EA16754FEA06164FEAC30343EAF3
:1008B00052734FEAC2025FEA1C1CC0D111F4801FC0
:1008C0000BD141EA00014FF000004FF0004CB6E7B9
:1008D00011F4801F04BF01430020B4F1FD0C88BF58
:1008E000BCF5E06F3FF6AFAEB5EB030C04BFB6EB63
:1008F000020C5FEA500C50F1000041EB045170BD56
:100900000EF0004E4EEA113114EB5C04C2BFD4EB82
:100910000C0541EA045170BD41F480114FF0000E06
:10092000013C90E645EA060E8DE60CEA135594EA82
:100930000C0F08BF95EA0C0F3FF43BAF94EA0C0F85
:100940000AD150EA01347FF434AF95EA0C0F7FF4FA
:1009500025AF104619462CE795EA0C0F06D152EA4E
:1009600003353FF4FDAE1046194622E750EA410632
:1009700018BF52EA43067FF4C5AE50EA41047FF443
:100980000DAF52EA43057FF4EBAE12E74FF0FF3CA8
:1009900006E000BF4FF0010C02E000BF4FF0010C79
:1009A0004DF804CD4FEA410C7FEA6C5C4FEA430CF2
:1009B00018BF7FEA6C5C1BD001B050EA410C0CBF41
:1009C00052EA430C91EA030F02BF90EA020F0020A3
:1009D000704710F1000F91EA030F58BF994208BF0A
:1009E00090422CBFD8176FEAE37040F001007047C7
:1009F0004FEA410C7FEA6C5C02D150EA013C07D11E
:100A00004FEA430C7FEA6C5CD6D152EA033CD3D068
:100A10005DF8040B704700BF8446104662468C4662
:100A20001946634600E000BF01B5FFF7B7FF002895
:100A300048BF10F1000F01BD4DF808EDFFF7F4FFBE
:100A40000CBF012000205DF808FB00BF4DF808ED49
:100A5000FFF7EAFF34BF012000205DF808FB00BF6C
:100A60004DF808EDFFF7E0FF94BF012000205DF88E
:100A700008FB00BF4DF808EDFFF7CEFF94BF012043
:100A800000205DF808FB00BF4DF808EDFFF7C4FF3C
:100A900034BF012000205DF808FB00BF4FEA410C85
:100AA0007FEA6C5C02D150EA013C0AD14FEA430C68
:100AB0007FEA6C5C02D152EA033C02D14FF00000A5
:100AC00070474FF0010070474FEA410212F50012E3
:100AD00015D211D56FF47873B3EB625212D94FEA85
:100AE000C12343F0004343EA505311F0004F23FA6F
:100AF00002F018BF404270474FF00000704750EAC4
:100B0000013005D111F0004008BF6FF00040704780
:100B10004FF00000704700BF4A0011D212F50012DA
:100B200011D20DD56FF47873B3EB62520ED44FEA45
:100B3000C12343F0004343EA505323FA02F07047C5
:100B40004FF00000704750EA013002D14FF0FF3003
:100B500070474FF0000070474FEA4102B2F1E043A6
:100B600024BFB3F5001CDCF1FE5C0DD901F0004C94
:100B70004FEAC0024CEA5070B2F1004F40EB8300E4
:100B800008BF20F00100704711F0804F21D113F110
:100B90003872BCBF01F00040704741F480114FEA49
:100BA0005252C2F11802C2F1200C10FA0CF320FAD2
:100BB00002F018BF40F001004FEAC1234FEAD323EF
:100BC00003FA0CFC40EA0C0023FA02F34FEA430359
:100BD000CCE77FEA625307D150EA01331EBF4FF0E2
:100BE000FE4040F44000704701F0004040F0FE40FD
:100BF00040F40000704700BF034613F8012B002AA1
:100C0000FBD1181A013870470000000000000000F6
:100C100001F0FF01102A2BDB10F0070F08D010F8AD
:100C2000013B013A8B422DD010F0070F42B3F6D1B1
:100C3000F0B441EA012141EA014122F007047FF0CA
:100C400000070023F0E80256083C85EA010586EA21
:100C5000010685FA47F5A3FA87F586FA47F6A5FA5D
:100C600087F68EB9EED1F0BC01F0FF0102F0070269
:100C700032B110F8013B013A83EA010313B1F8D114
:100C80000020704701387047002D06BF35460338F5
:100C9000073815F0010F07D1013015F4807F02BF2E
:100CA000013015F4C03F0130F0BC0138704700BF7F
:100CB00080B582B000AF786038200CF0DAFA0346D5
:100CC000002B0ED19F4B1B680D2201219E480CF07A
:100CD000D9FC9E4B1B680D2201219B480CF0D2FCD5
:100CE0000DE0984B1B680C22012199480CF0CAFCBE
:100CF000964B1B680C22012195480CF0C3FC3C204C
:100D00000CF0B7FA0346002B0ED18E4B1B680D2258
:100D1000012190480CF0B6FC8C4B1B680D22012180
:100D20008C480CF0AFFC0DE0864B1B680C220121B7
:100D300089480CF0A7FC854B1B680C2201218648D2
:100D40000CF0A0FC30200BF01CFB0346012B0ED155
:100D50007C4B1B680D22012180480CF093FC7B4BDF
:100D60001B680D2201217D480CF08CFC02E07C48C0
:100D70000AF054FE32200BF004FB0346012B0ED187
:100D8000704B1B680D22012176480CF07BFC6F4BE9
:100D90001B680D22012173480CF074FC02E07048BE
:100DA0000AF03CFE11F0FCF801220021032011F0B2
:100DB000ADF90346012B0DD1624B1B6801226A4934
:100DC00018460CF0FFFA614B1B6801226649184671
:100DD0000CF0F8FA01220021042011F097F90346E3
:100DE000012B0DD1574B1B6802225F4918460CF0AE
:100DF000E9FA564B1B6802225B4918460CF0E2FAEE
:100E000001220021052011F081F90346012B0DD1AB
:100E10004C4B1B680322544918460CF0D3FA4B4B39
:100E20001B680322504918460CF0CCFA032011F03D
:100E30003FFB0346012B0ED1424B1B6801224B495D
:100E400018460CF0BFFA414B1B680122474918466F
:100E50000CF0B8FA0DE03B4B1B68012244491846E0
:100E60000CF0B0FA394B1B680122414918460CF0CE
:100E7000A9FA042011F01CFB0346012B0ED1314BC3
:100E80001B680222394918460CF09CFA2F4B1B684C
:100E90000222364918460CF095FA0DE0294B1B68E2
:100EA0000222334918460CF08DFA284B1B680222A7
:100EB0002F4918460CF086FA052011F0F9FA03467E
:100EC000012B0ED11F4B1B680322284918460CF03A
:100ED00079FA1E4B1B680322244918460CF072FA5B
:100EE0000DE0184B1B680322214918460CF06AFAE2
:100EF000164B1B6803221E4918460CF063FA0120AA
:100F00001EF076FF01201EF073FF01201EF054FF3B
:100F1000002001F081FD01201EF04EFF154B5B69A2
:100F2000144A43F01003536132200CF005F8114BC2
:100F30005B69104A23F0100353614FF47A700BF091
:100F4000FBFFE8E714000020983E06080C00002094
:100F5000A83E0608B83E0608C83E0608D83E060861
:100F60004CE60020E83E0608F83E06080C3F06085E
:100F70001C3F06080008024090B5DDB000AF07F145
:100F8000680318464FF482731A46002120F03EFA97
:100F900007F1500300221A605A609A60DA601A6101
:100FA0009A820023A7F86E3107F15003184600F02B
:100FB00093FA07F14E0207F150031146184600F06C
:100FC00091F907F14E031B881846FFF763FA4FF0BB
:100FD00000023C4BFFF7C8FA03460C461846214670
:100FE000FFF79AFD0346A7F86C3107F1380207F1C5
:100FF00044031146184601F08DFB07F144031846DF
:1010000001F0DCFE07F13803184601F0D7FE07F1C6
:1010100044023B1D2C49184620F014FF3B1D184686
:1010200001F09CFA3CE007F16803184600F012FC5E
:1010300007F1680107F144034FF48272184601F08A
:101040005FFF07F15003184600F046FA07F14E0221
:1010500007F150031146184600F044F907F150011A
:1010600007F138031622184601F0FEFEB7F86E317C
:10107000164AA2FB031252094FF4FA7101FB02F265
:101080009B1A9BB2002B06D101201EF095FE012178
:10109000012000F0DDFFB7F86E310133A7F86E31A3
:1010A00007F14E031B88002B05D0B7F86E21B7F867
:1010B0006C319A42B7D30023184607F5BA77BD467C
:1010C00090BD00BF0000F83F303F0608D34D6210CE
:1010D00080B582B000AF01201EF06EFE012210210B
:1010E000204814F04DFE0121022000F037FF00F0EF
:1010F000C9F80323BB710023FB710BE01A4801F010
:101100002DFA1A4801F02AFA01201EF055FEFB794B
:101110000133FB7100F0CFF80346002B03D0FA79BE
:10112000BB799A42EAD3FA79BB799A4204D10E4844
:1011300001F014FA012311E00121002000F032FD3A
:101140000B4801F00BFA01201EF036FE00211020A2
:1011500000F028FD074801F001FA0023184608377F
:10116000BD4680BD00000240443F0608603F0608BF
:10117000843F06089C3F060880B500AF012102208D
:1011800000F010FD0346002B04D0044801F0E6F9FE
:10119000012300E00023184680BD00BF5841060827
:1011A00080B590B000AF0346FB71FB79002B07D1EF
:1011B0000121032000F0F6FC0E4801F0CFF916E003
:1011C000FB799BB21946012000F0ECFC00210320C2
:1011D00000F0E8FCFA7907F10C030749184620F003
:1011E00031FE07F10C03184601F0B8F900BF403793
:1011F000BD4680BD844106089C41060880B500AF0D
:101200000E4B1B68132201210D480CF03BFA012103
:10121000062001F0E9F80121052000F09FFE0121E0
:10122000052001F0E1F80121052000F097FE0121E1
:10123000012000F00DFF00BF80BD00BF14000020A2
:101240001442060880B500AF0C4B1B681222012126
:101250000B480CF017FA0021052001F0C5F8012118
:10126000052000F07BFE0021062001F0BDF80121E1
:10127000012000F0EDFE00BF80BD00BF1400002083
:101280002842060880B500AF01201EF095FDFFF74B
:10129000B5FF0121052000F061FE01201EF08CFD4C
:1012A000FFF7D0FF01211E2000F058FE01201EF0A4
:1012B00083FD00BF80BD80B500AF00F04FFB03464B
:1012C000002B01D001230BE00121052000F046FE98
:1012D00000F044FB0346002B01D0022300E0002372
:1012E000184680BDB0B5A4B000AF786039607B68A7
:1012F0009B7887F88F307B6803331B781B021AB208
:101300007B6804331B781BB213431BB2A7F88C30E5
:101310007B6805331B781B021AB27B6806331B7887
:101320001BB213431BB2A7F88A307B6807331B78C4
:101330001A067B6808331B781B041A437B68093341
:101340001B781B0213437A680A3212781343C7F8DA
:10135000843097F88F30002B0FD007F12003574AC5
:101360001C4615460FCD0FC495E8030020600434D9
:10137000218002340B0C23700AE007F12003504A4D
:101380001C4615460FCD0FC495E8030084E8030002
:10139000B7F88C3003F00103002B0FD007F12003C6
:1013A0001846FFF729FC03461A4607F120031344A9
:1013B00044491A460B4603CB10605160B7F88C3095
:1013C00003F00203002B10D007F120031846FFF7AB
:1013D00013FC03461A4607F1200313443A4A1C46FD
:1013E000134607CB20606160A260B7F88C3003F031
:1013F0000803002B12D007F120031846FFF7FCFB6F
:1014000003461A4607F120031344304A1C4613468C
:1014100007CB20606160A2601B782373B7F88C3023
:1014200003F01003002B24D007F120031846FFF728
:10143000E3FB03461A4607F12003134424491A46E6
:101440000B4603CB106051601B78137207F1080341
:1014500000221A605A609A60DA601A619A8207F173
:101460000803184600F074F807F10803184600F066
:1014700015F9B7F88C3003F02003002B13D007F1D7
:1014800020031846FFF7B8FB03461A4607F120036E
:10149000134410491A460B4603CB1060516019885B
:1014A0009B78118193723B68B7F88A201A80B7F84D
:1014B0008C3018469037BD46B0BD00BF3C42060890
:1014C000544206086C420608744206088042060828
:1014D000904206089C42060880B584B000AF786050
:1014E0000023BB600023FB7307E0FB7B7A68134497
:1014F00000221A70FB7B0133FB73FB7B152BF4D9A5
:1015000091233B7201237B7207F1080304211846E3
:1015100000F0B2FB07F108030421184600F05AFC62
:101520000346002B01D001230DE003200BF004FD46
:1015300001221621786800F085FC0346002B01D0BB
:10154000022300E0002318461037BD4680BD00008E
:1015500080B5A0B000AF786007F1780300221A6070
:101560001A71942387F87830012387F8793015238E
:1015700087F87A3007F178030521184600F07CFBE4
:10158000002387F87F300AE097F87F307A681344A9
:1015900000221A7097F87F30013387F87F3097F870
:1015A0007F30152BF0D9374800F0D8FF07F17803CA
:1015B0000521184600F00EFC0346002B04D03248EB
:1015C00000F0CCFF012359E003200BF0B5FC012211
:1015D0001621786800F036FC0346002B04D02B4817
:1015E00000F0BCFF022349E007F114031846FFF79F
:1015F00003FB03461A4607F11403134424491A4611
:101600000B4603CB1060516019889B78118193724F
:10161000002387F87F3018E097F87F307A6813440A
:101620001B781A4607F10C031A49184620F00AFCE9
:1016300007F10C0207F114031146184620F04EFC86
:1016400097F87F30013387F87F3097F87F30152B7C
:10165000E2D907F114031846FFF7CEFA03461A46FB
:1016600007F1140313440C4A1188927819809A7078
:1016700007F11403184600F071FF00231846803765
:10168000BD4680BDA8420608C4420608DC420608E2
:10169000F0420608FC42060804430608F0B5B7B05D
:1016A00000AF7860644800F059FF7B6802331B7814
:1016B0001B021AB27B6803331B781BB213431BB2A5
:1016C000A7F8D630B7F8D63003F00103002B18D0B6
:1016D00007F10C031846FFF78FFA03461A4607F185
:1016E0000C031344554A1C4615460FCD206061601B
:1016F000A260E36028682061AB88AA79A3821346C0
:10170000A375B7F8D63003F00203002B16D007F10B
:101710000C031846FFF770FA03461A4607F10C034C
:101720001344474A1D4614460FCC28606960AA60DE
:10173000EB6003CC2861696123782B76B7F8D6304B
:1017400003F00303002B11D007F10C031846FFF739
:1017500053FA03461A4607F10C031344394A1C4650
:1017600015460FCD20606160A260E360B7F8D63007
:1017700003F00503002B15D007F10C031846FFF703
:101780003BFA03461A4607F10C0313442E4A1D4642
:1017900014460FCC28606960AA60EB60206828615D
:1017A00023792B75B7F8D63003F00603002B13D03E
:1017B00007F10C031846FFF71FFA03461A4607F114
:1017C0000C031344214A1D4614460FCC286069605F
:1017D000AA60EB6020682861B7F8D63003F00703F1
:1017E000002B1ED007F10C031846FFF705FA03463D
:1017F0001A4607F10C031344154A14469C4604F19B
:10180000200E654626460FCE28606960AA60EB6010
:1018100010340CF1100C7445F3D163462246127853
:101820001A7007F10C03184600F098FEB7F8D6308E
:101830001846DC37BD46F0BD0843060824430608B9
:101840003C430608584306086843060880430608D8
:101850009443060880B584B000AF786007F10803B0
:1018600000221A601A7197233B7201237B720023B6
:10187000BB7207F108030521184600F0FDF9314B52
:101880001B681E22012130480BF0FCFE07F1080303
:101890000521184600F09EFA0346002B01D00123D3
:1018A0004BE003200BF048FB00221021274814F0E6
:1018B00067FA40F6B8334FF48272796824481AF018
:1018C00013FE0346FB7301221021204814F058FA3E
:1018D000FB7B002B0DD01B4B1B68242201211D48D4
:1018E0000BF0D0FEFB7B0021184600F06FFF0223B7
:1018F00023E007F1080301220021184600F0A2FAB4
:101900000346002B01D0032317E04FF4827178685F
:1019100000F0D5F9034683F00103DBB2002B06D0BB
:10192000084B1B68242201210B480BF0ABFE4FF43F
:101930008271786800F070FB002318461037BD46AE
:1019400080BD00BF14000020B8430608000002401C
:1019500008EA0020D84306080044060880B500AF16
:101960000021012000F044F80346184680BD000025
:1019700080B500AF184B1B881946002000F012F903
:10198000164B1B881946122000F00CF9134B1B88CC
:101990001946122000F006F9114B1B8819460B203E
:1019A00000F000F90F4B1B881946132000F0FAF8DD
:1019B0000D4B1B881946072000F0F4F80B4B1B88D1
:1019C0001946082000F0EEF80121002000F010F880
:1019D0000346184680BD00BF000000200200002022
:1019E000B0070020AE070020B2070020B407002097
:1019F000B0B596B004AF03460A46FB711346BB71FF
:101A000007F1280300221A605A609A60DA601A61AE
:101A10005A611A7607F1200300221A601A71FB79C5
:101A2000002B0AD0554B1B681622012154480BF09D
:101A300029FE902387F8283009E0504B1B681622B6
:101A4000012150480BF01EFE922387F82830012315
:101A500087F82930BB79002B0AD0484B1B681C2221
:101A6000012149480BF00EFE012387F82A3009E0D6
:101A7000424B1B681C22012144480BF003FE00234B
:101A800087F82A30424B1A6807F10C03194641487F
:101A900018F08DFE3E4B1A6807F1080319463D48C1
:101AA00018F098FF354B18687B7A1C46BB7A1D46A8
:101AB0003B7B7A7BB97B0291019200932B462246B5
:101AC00035490BF07FFCBB7B19467B7B1A461346DE
:101AD0001B019B1A9B00CA183B7B19464FF461639C
:101AE00003FB01F31A44BB7A19462C4B03FB01F3A9
:101AF0001A447B7A19462A4B03FB01F313447B6497
:101B00007B6C1B0EDBB287F82D307B6C1B0CDBB2C1
:101B100087F82E307B6C1B0ADBB287F82F307B6C8A
:101B2000DBB287F8303007F128031921184600F09E
:101B3000A3F807F128031921184600F04BF90346D2
:101B4000002B01D0012315E003200BF0F5F907F17C
:101B5000200300220521184600F074F90346002BEB
:101B600001D0022306E007F120030521184600F00A
:101B700053FA002318464837BD46B0BD1400002074
:101B8000504406086844060880440608A044060835
:101B9000B807002070E80020C0440608805101000A
:101BA000008D270080B586B000AF03460A46FB7162
:101BB0001346BB8007F1100300221A60C3F803200C
:101BC00007F1080300221A601A7193233B74012362
:101BD0007B74FB79BB74BB881B0A9BB2DBB2FB74C2
:101BE000BB88DBB23B7507F110030721184600F0F4
:101BF00043F81D4B1868FA79BB881C490BF0E2FBCF
:101C000007F110030721184600F0E4F80346002B03
:101C100008D0154B1B681C22012115480BF032FD22
:101C200001231CE003200BF087F907F108030022D1
:101C30000521184600F006F90346002B08D00A4B90
:101C40001B681D2201210B480BF01CFD022306E03E
:101C500007F108030521184600F0DEF900231846B5
:101C60001837BD4680BD00BF14000020F0440608B0
:101C7000104506083045060880B584B000AF78608E
:101C800039603B68023B1A4679684FF6FF7000F0F6
:101C900043F80346FB81FB891B0A99B23B68023B70
:101CA0007A681344CAB21A703B68013B7A681344DD
:101CB000FA89D2B21A7000BF1037BD4680BD80B518
:101CC00084B000AF786039603B68023B1A4679689F
:101CD0004FF6FF7000F020F80346FB81FB891B0ADA
:101CE0009BB27B73FB893B733B68023B7A6813446E
:101CF0001B787A7B9A4209D13B68013B7A6813448E
:101D00001B783A7B9A4201D1012300E00023184658
:101D10001037BD4680BD000080B5ADF5087D00AF31
:101D200007F1080319603B1D1A6007F10E03024614
:101D30001A8007F11003264A184611464FF4007323
:101D40001A461FF058FB4FF6FF73A7F81E32002308
:101D5000A7F81C322EE0B7F81C3207F1080212680F
:101D600013441B78A7F81A32B7F81E321B0AA7F8DB
:101D70001832B7F81822B7F81A325340A7F81632BB
:101D8000B7F81632DBB2A7F81432B7F81E321B02CE
:101D9000A7F81232B7F8142207F1100333F8122013
:101DA000B7F812325340A7F81E32B7F81C3201338D
:101DB000A7F81C32B7F81C323A1D12689A42CADCE6
:101DC000B7F81E32184607F50877BD4680BD00BF3C
:101DD0005045060880B586B002AF786039600123AF
:101DE000FB733B689AB26423009313467A68CC2154
:101DF000104814F007F90346FB73FB7B002B13D04C
:101E00000D4B1B68262201210C480BF03BFC0A4BB2
:101E10001B681A2201210A480BF034FCFB7B184690
:101E200000F0D4FCFB7B00E0002318461037BD46D1
:101E300080BD00BF94E40020140000205047060835
:101E40007847060880B588B002AFF860B9601346DD
:101E5000FB713C4B1B680F2201213B480BF012FC2D
:101E60000123FB7507F1100300221A601A71BB6889
:101E7000002B36D0BB689AB2642300931346FA68ED
:101E8000CC21324814F0CCF90346FB75FB7D002BC6
:101E90000CD02C4B1B68252201212D480BF0F2FBA6
:101EA000FB7D184600F092FCFB7D46E0BB68B3F575
:101EB000827F05D1FB6891221A70FB6895221A7007
:101EC000B968F868FFF7FBFE034683F00103DBB255
:101ED000002B06D01B4B1B68242201211D480BF050
:101EE000D1FBFB79002B27D0FB681B783B740123C7
:101EF0007B747E23BB7407F1100305211846FFF79E
:101F0000BBFE07F11002642300930523CC210F4888
:101F100014F078F80346FB75FB7D002B0CD0094BC1
:101F20001B681C2201210C480BF0ACFBFB7D184602
:101F300000F04CFC022300E0002318461837BD4691
:101F400080BD00BF140000209447060894E40020E0
:101F5000A447060800440608CC47060880B584B0AC
:101F600000AF03460A46FB8013467B717B79002B4A
:101F700006D0244B1B68FA88234918460BF022FA36
:101F800001201DF019FF0023FB8124E064200AF0EA
:101F9000D3FF01201DF010FF7B79002B18D0FA89A8
:101FA0001A4BA3FB0213D9080B469B000B445B00A2
:101FB000D31A9BB2002B0BD1124B1868FB89134A22
:101FC000A2FB0323DB089BB21A4611490BF0FAF976
:101FD000FB890133FB81F989FA8813469B0013447E
:101FE0005B009942D2DB7B79002B06D0054B1B6846
:101FF0000222012107480BF045FB00BF1037BD4608
:1020000080BD00BF14000020EC470608CDCCCCCC2E
:10201000044806080C48060880B582B000AF786016
:1020200039603B68052B0BD17B6802331B787E2B14
:1020300006D1054B1B680F22012104480BF022FB3F
:1020400000BF0837BD4680BD1400002010480608B8
:10205000F0B5ADF5497D06AF07F10C03186007F147
:1020600008031960864BC7F80433864BC7F8003362
:1020700007F11003844A07CA83E8070007F53E7397
:102080001946012000F04CF907F53D73194602206E
:1020900000F046F907F53C7319460B2000F040F9B3
:1020A00007F5207319462B2000F03AF9774B1B688F
:1020B000D7F88022764918460BF084F907F53B7370
:1020C0001946102000F02CF907F53A731946112033
:1020D00000F026F96F4B1B681A466F496F4818F0DD
:1020E00066FB6C4B1B681A466D496C4818F072FC15
:1020F0006B4BDB781D466A4B5B781E46684B9B78C2
:102100001A46654B1B781946634B5B781C46624B3D
:102110009B7807F51970039302940191009233465E
:102120002A4660491FF08EFED7F8F8327B60D7F858
:10213000F83207EE903AB8EEE77AD7EDC17A67EE5B
:10214000277A17EE900AFEF7B7F904460D46D7F83E
:10215000F462D7F8F43207EE903AB8EEE77AD7EDAA
:10216000C07A67EE277A17EE900AFEF7A5F90246C5
:102170000B4607F5197107F52170CDE90423029686
:10218000CDE900457B680A4647491FF05BFE07F131
:102190000C031B68012B5FD107F1100107F1340319
:1021A000132218460DF0A6FB034687F8FF3297F876
:1021B000FF32002B41D1354B1B68292201213B48BE
:1021C0000BF060FA07F11C0207F1100311461846E4
:1021D0000EF074FC034687F8FF3297F8FF32002BAD
:1021E00025D12A4B1B683022012131480BF04AFAD5
:1021F00007F11C031A6807F13403114618460EF064
:1022000008F9034687F8FF3297F8FF32002B0ED10A
:102210001E4B1B683122012126480BF033FA07F5CB
:10222000217207F13403114618460BF0CBF807F181
:10223000340318460EF0BEF80EE0144B1B682F2234
:1022400001211D480BF01EFA104B1B6897F8FF2266
:102250001A4918460BF0B6F807F108031B68012B62
:1022600008D10A4B1868D7F8EC22D7F8E83214499D
:102270000BF0A8F800BF07F54377BD46F0BD00BFDF
:10228000DD241640333343409449060814000020EF
:1022900020480608B80700202CE6002070E800203F
:1022A0006CE80020344806085448060890480608A0
:1022B000BC480608F04806082449060854490608A0
:1022C000704906080000000090B585B000AF786046
:1022D00007F108031946012000F022F8BB6807EE59
:1022E000903AF8EEE77A17EE900AFEF7E5F80AA3BF
:1022F000D3E90023FEF738F903460C461846214679
:10230000FEF72AFC0346FB607B68FA681A6000BF90
:102310001437BD4690BD00BF5273456B3D2A633FE5
:1023200080B588B004AF03463960FB800023BB73DF
:102330003B68294A1A6009F0E7FABB7B002B17D0EB
:10234000FB7B012B0BD0FB7B032B08D0FB7B022BF1
:1023500008D1224B93F83D30DBB2202B02D11F482D
:1023600009F05CFB05200AF0E7FDBB7B092B15D8C3
:10237000FA880A2302930223019307F108030093CA
:1023800001233021154814F085FA0346FB73BB7B0B
:102390000133BB73FB7B002BCFD100E000BF0F48A4
:1023A00013F000FEFB7B002B0BD13B7A9BB21B0290
:1023B0009AB27B7A9BB21344BB81BA893B681A609C
:1023C00006E0074B1B681322012106480BF05AF95F
:1023D00000BF1037BD4680BDF1D8FFFFD8E5002013
:1023E00014000020A049060880B588B002AF03465B
:1023F0000A46FB8013467B710023BB7507F10C0373
:102400003B6109F081FABB7D002B17D0FB7D012BCE
:102410000BD0FB7D032B08D0FB7D022B08D11B4B7F
:1024200093F83D30DBB2202B02D1184809F0F6FAC0
:1024300005200AF081FDBB7D092B15D8FB88DBB296
:102440003B737B797B730A23009302233A69302123
:102450000E4813F0D7FD0346FB75BB7D0133BB75FA
:10246000FB7D002BCFD100E000BF084813F09AFDA0
:10247000FB7D002B06D0064B1B681422012105486A
:102480000BF000F900BF1837BD4680BDD8E500202D
:1024900014000020B449060880B500AF01201DF0EB
:1024A0008BFC00F077FD0346002B04D0164800F0AB
:1024B00055F8012325E001201DF07EFC134800F0B3
:1024C000DFF80346002B04D0114800F047F8022340
:1024D00017E001201DF070FC0C4800F023F80346C3
:1024E000002B04D00B4800F039F8032309E00A4818
:1024F00000F034F8094800F031F8094B01221A7055
:102500000023184680BD00BFCC490608F8DC002037
:10251000EC490608184A0608304A06084C4A0608DC
:10252000B607002080B582B000AF7860786800F010
:1025300045FC0346002B04D0064800F00FF80123A9
:1025400003E0054800F00AF8002318460837BD46A6
:1025500080BD00BF184A0608304A060880B584B01E
:1025600000AF78600023FB73094B1B78002B04D06D
:10257000786800F011F80123FB73064B1B6879683B
:1025800018460AF01FFFFB7B18461037BD4680BD7A
:10259000B607002014000020F0B5A1B004AF7860A9
:1025A0002E4B1B681A462E492E4818F000F92B4B6B
:1025B0001B681A462C492B4818F00CFA2A4BDB787A
:1025C0001D46294B5B781E46274B9B781A46244BA9
:1025D0001B781946224B5B781C46214B9B7807F1F0
:1025E0000C00039302940191009233462A461F493E
:1025F0001FF028FC07F10C031846FEF7FDFA03460E
:102600001A4607F10C031344194A1188927819806D
:102610009A7007F10C03796818461FF05FFC07F108
:102620000C031846FEF7E8FA03469AB207F10C03CA
:102630001946104800F018FC0346002B08D00E4B3A
:102640001B681B2201210D480BF01CF8012300E040
:10265000002318467437BD46F0BD00BFB807002000
:102660002CE6002070E800206CE80020704A060884
:10267000904A0608F8DC002014000020944A06085E
:1026800080B594B000AF78600023A7F84E300023E7
:1026900087F84D3018E0B7F84E2007F140031B498A
:1026A00018461FF0CFFB07F14003184600F03CFD31
:1026B0000346002B03D1012387F84D3004E0B7F81F
:1026C0004E300133A7F84E3097F84D3083F00103B8
:1026D000DBB2002BDFD101201DF06EFB07F14002C1
:1026E00007F10C030A4918461FF0ACFB07F10C0375
:1026F0001846FFF733FF07F14003194678681FF0CB
:10270000FCFB002318465037BD4680BDB04A060882
:10271000B84A060880B596B000AF786039600023EB
:1027200087F85730002387F8563018E097F857207D
:1027300007F14C03224918461FF084FB07F14C03B4
:10274000184600F0F1FC0346002B03D1012387F863
:10275000563004E097F85730013387F8573097F830
:10276000563083F00103DBB2002BDFD101201DF0D6
:1027700023FB97F8572007F14003124918461FF032
:1027800061FB07F14C0207F10C030F4918461FF0DB
:1027900059FB07F10C031846FFF7E0FE07F14C0365
:1027A000194678681FF0A9FB07F1400319463868FD
:1027B0001FF0A3FB002318465837BD4680BD00BF5D
:1027C000D44A0608E04A0608B84A060880B582B02E
:1027D00000AF0346FB710B46BB7113467B717B79DF
:1027E000052B07D9FB79002B04D01048FFF7B6FE64
:1027F00000F0FEF8FB79002B03D10D48FFF7AEFE89
:1028000010E0BB79002B06D07A79FB791146184687
:1028100000F05AF806E07A79FB791146184600F084
:1028200009F800BF0837BD4680BD00BFEC4A060866
:10283000244B060880B582B000AF03460A46FB7100
:102840001346BB71BB79052B08D91A48FFF786FEE2
:10285000BA79FB7900211846FFF7B8FFFB79012B05
:1028600007D11548FFF77AFEBB79184600F09EF8AD
:102870001BE0FB79022B07D11048FFF76FFEBB79F5
:10288000184600F093F810E0FB79032B07D10C48B1
:10289000FFF764FEBB79184600F088F805E0FB7985
:1028A000002B02D10748FFF759FE00BF0837BD468D
:1028B00080BD00BF5C4B0608984B0608B04B06086D
:1028C000DC4B0608F04B060880B582B000AF03462B
:1028D0000A46FB711346BB71BB79052B08D91D480D
:1028E000FFF73CFEBA79FB7901211846FFF76EFF2E
:1028F000FB79012B07D11848FFF730FEBB7918464A
:1029000000F032F821E0FB79022B07D11348FFF7E2
:1029100025FEBB79184600F027F816E0FB79032B5B
:1029200007D10F48FFF71AFEBB79184600F01CF8D4
:102930000BE0FB79002B08D10A48FFF70FFEBA79AC
:10294000FB7901211846FFF741FF00BF0837BD465C
:1029500080BD00BF044C0608404C0608584C0608D1
:10296000844C0608984C060880B584B000AF034636
:10297000FB710C48FFF7F2FD0B4813F013FB0A48FC
:1029800013F030FA0346FB73FB790133FB71FA79DC
:10299000FB7B11461846FFF797FF00BF1037BD4677
:1029A00080BD00BFAC4C060894E4002080B584B024
:1029B00000AF0346FB710C48FFF7D0FD0B4819F040
:1029C0002EFC0A4819F0BFFB0346FB73FB79013369
:1029D000FB71FA79FB7B11461846FFF72BFF00BF0E
:1029E0001037BD4680BD00BFAC4C060808EA002089
:1029F00080B500AF0648FFF7B1FD00220021054871
:102A00000CF014FF002000F007F800BF80BD00BFED
:102A1000D04C0608A4EC002080B59CB000AF034663
:102A2000FB71042387F86D3001201DF0C5F9FA7998
:102A300097F86D309A4201D9FFF7DAFF012109209A
:102A4000FFF7D2FC01210820FFF7CEFC0121012075
:102A5000FFF7FEFA0A200AF06FFA07F1640318463E
:102A6000FFF732FC7B6E1846FDF726FDC2A3D3E9C3
:102A70000023FDF7EBFF0346002B21D0FEF7BEFB42
:102A800012E0BF48FFF76AFD01201DF095F944F6FA
:102A900020600AF051FA01210120FFF7D9FA07F16D
:102AA00064031846FFF710FCD7ED197AB1EE007AEF
:102AB000F4EEC77AF1EE10FAE3D40020FFF7ACFF92
:102AC00007F14C0300221A605A609A60DA601A61BA
:102AD0009A82042387F86C30002387F8443001235E
:102AE00087F845301E2387F846309E2387F8473005
:102AF000FFF7D2FC0346002B02D0A248FFF72EFDC1
:102B000001201DF059F9FEF7E3FA0346002B0ED021
:102B10009D48FFF723FD9D48FFF720FD01201DF094
:102B20004BF9FB795A1CFA711846FFF775FF984B61
:102B30001B681C22012197480AF0A4FD09200AF015
:102B4000FBF9934B1B680C22012193480AF09AFD74
:102B5000002387F86F3007F13C031846FFF7B4FBFA
:102B6000FB6B1846FDF7A8FC83A3D3E90023FDF710
:102B70006DFF0346002B21D0FEF740FB12E080489A
:102B8000FFF7ECFC01201DF017F944F620600AF075
:102B9000D3F901210120FFF75BFA07F13C03184646
:102BA000FFF792FBD7ED0F7AB1EE007AF4EEC77A19
:102BB000F1EE10FAE3D40020FFF72EFF97F86F2014
:102BC00097F86C309A4202D9002387F86F3097F853
:102BD0006F3007F17002134413F82C3C1846FEF7CF
:102BE000DFFA042387F86B30002387F86A3008E0A7
:102BF0006A48FFF7B3FC6A48FFF7B0FC01201DF0FC
:102C0000DBF8FEF7B5FE0346002B05D097F86A20E7
:102C100097F86B309A42EBD397F86A2097F86B30AD
:102C20009A420ED15D48FFF799FC5848FFF796FC91
:102C300001201DF0C1F8FB795A1CFA711846FFF704
:102C4000EBFE07F14C031846FEF746FC07F1430282
:102C500007F14A0107F14C031846FEF743FB012038
:102C60001DF0AAF8FEF788FA01201DF0A5F8002350
:102C700087F86E305A2387F869302DE04948FFF70E
:102C80006DFC4FF47A700AF057F907F14C031846BF
:102C9000FEF722FC07F1430207F14A0107F14C035A
:102CA0001846FEF71FFB97F86E203F4BA3FB02135D
:102CB00019090B469B000B449B00D31ADBB2002B77
:102CC00005D13A48FFF74AFC01201DF075F897F846
:102CD0006E30013387F86E3097F86E2097F86930C0
:102CE0009A420DD807F1430207F14A0107F14C035C
:102CF0001846FEF7F7FA034603F00203002BBDD097
:102D000097F86E2097F869309A420BD92848FFF758
:102D100025FC01201DF050F8FB795A1CFA71184669
:102D2000FFF77AFE2348FFF719FC97F86F3007F199
:102D30007002134413F82C3C1A4607F108031E498D
:102D400018461FF07FF807F108031846FFF706FC46
:102D500000210020FEF74CFEFEF70EF901210020B5
:102D6000FEF746FE01201DF027F897F86F3001337B
:102D700087F86F30EFE600BF9A99999999990D40BD
:102D8000E44C0608044D0608184D0608344D0608A4
:102D900014000020544D0608744D0608844D0608A2
:102DA000A04D0608B04D0608CDCCCCCCC84D0608C9
:102DB000E04D0608084E0608244E060880B584B08B
:102DC00000AF78601222796821480CF093FD034629
:102DD000FB73FB7B052B09D1786800F02DF90A22E3
:102DE00079681B480CF086FD0346FB73FB7B002BC8
:102DF00024D0184B1B68796818460AF0E3FA154B83
:102E00001B681F22012114480AF03CFC114B1B686F
:102E1000FA7B124918460AF0D5FA0E4B1B680222BB
:102E200001210F480AF02EFC0A4B1B6812220121D7
:102E30000C480AF027FC0223BB7304E004480DF0A1
:102E4000B9FA0023BB73BB7B18461037BD4680BD63
:102E500074EA0020140000203C4E06085C4E060870
:102E6000644E0608684E060880B586B000AFF8606C
:102E7000B9601346FB803222F9681D480CF03AFD18
:102E80000346002B0BD000F025FA1A4B1B681F22BB
:102E9000012119480AF0F6FB0223FB7522E0FA88AB
:102EA00007F11003B96812480DF057F80346BB75D7
:102EB0003B69002B02D0BB7D002B0ED000F00AFA3C
:102EC0000C4B1B68172201210C480AF0DBFB084859
:102ED0000DF070FA0123FB7504E005480DF06AFA65
:102EE0000023FB75FB7D18461837BD4680BD00BF2B
:102EF00074EA0020140000203C4E06087C4E0608B0
:102F000080B586B000AFF860B9601346FB8032220E
:102F1000F9681C480CF0EEFC0346002B0BD000F0C7
:102F2000D9F9194B1B681F22012118480AF0AAFB86
:102F30000223FB7521E0FA8807F11003B9681148F4
:102F40000DF00BF80346BB75FA883B699A4202D133
:102F5000BB7D002B0CD00C4B1B68172201210C48A9
:102F60000AF090FB07480DF025FA0123FB7504E0F9
:102F700004480DF01FFA0023FB75FB7D1846183737
:102F8000BD4680BD74EA0020140000203C4E0608B7
:102F90007C4E060880B5ADF5047D02AF002387F8AE
:102FA00007320022124913480CF040FC0346002B64
:102FB00014D01148FFF7D2FA3A1D4FF40073009372
:102FC0001346002207210A480DF078FF0346002B24
:102FD00004D00A48FFF7C2FA012303E00848FFF7CC
:102FE000BDFA0023184607F50277BD4680BD00BF35
:102FF00070EA0020A4EC0020AC4E0608EC4E060857
:10300000404F060880B584B000AF78607868FDF75F
:10301000F3FD0346013318461EF0CEF90346FB606C
:10302000FB68002B03D07968F8681EF066FFFB6828
:1030300018461037BD4680BD80B586B000AF7860B9
:1030400001201CF0B9FE7868FFF7DCFFF860F86833
:10305000FDF7D2FD03463B6102E03B69013B3B616A
:103060003B69002B06D03B69013BFA6813441B788F
:103070002F2BF2D13B69002B02D03B69013B3B6116
:103080003B69002B3DD03B69FA68134400221A705B
:10309000F8680DF005FE0346FB75FB7D002B1BD089
:1030A0001B4B1B68FA7D1B4918460AF08BF9184B1D
:1030B0001B680222012118480AF0E4FA144B1B682D
:1030C0001222012115480AF0DDFA114B1B68FA683B
:1030D000134918460AF076F9FB7D052B07D1F868ED
:1030E000FFF7AAFFF8680DF0DBFD0346FB75FB7DDB
:1030F000002B06D1064B1B68FA680A4918460AF0ED
:1031000061F9F8681EF060F900BF1837BD4680BD50
:10311000140000205C4E0608644E0608684E06083F
:10312000644F06087C4F060880B596B000AF786003
:10313000022387F8573007F13C03194678680DF0F1
:10314000BDFC034687F8563097F85630002B02D066
:10315000042B04D007E0012387F857300FE0002349
:1031600087F857300BE007F108037A6807491846DB
:103170001EF068FE07F108031846FFF7EFF997F80D
:10318000573018465837BD4680BD00BF904F0608DF
:10319000B0B58AB000AF3A4B3A4A1A6008F044FF23
:1031A000394B5B6A384A43F4E023536272B6364BBC
:1031B000364A9A6062B6344B5B69334A43F0040383
:1031C000536100F0BFF81BF0C5FA08F021F908F0D0
:1031D000A1F908F047FE08F005FB08F03DFB08F0F8
:1031E000C1FB08F0EDFB08F079FC08F0ADFC08F03D
:1031F000E3FC08F017FD08F0E1FD08F087FD08F09A
:1032000007FE08F07FFE224B1B68184600F0CEFB3D
:10321000204B1B68184600F0C9FB1F4B5B691E4A18
:1032200023F0200353611D4B07F114041D460FCDFD
:103230000FC42B68236007F114030021184609F01E
:1032400054FE0246164B1A6000F0DAF91CF046FDF7
:10325000144B3C461D460FCD0FC42B6823603B46E4
:103260000021184609F041FE02460F4B1A60012268
:1032700040210E4812F084FD09F014FEFEE700BF65
:10328000340400205028004000ED00E00000040855
:10329000140000200C00002000080240D44F060853
:1032A00004DD0020F84F060808DD00200018024069
:1032B00080B582B000AF78607B681B68044A934297
:1032C00001D11BF069FA00BF0837BD4680BD00BFC1
:1032D0000000014080B500AF104B5B690F4A43F01E
:1032E000100353610D4B5B690C4A43F0200353619B
:1032F0004FF4FA601BF06AFA084B5B69074A23F047
:1033000010035361054B5B69044A23F020035361AA
:103310004FF4FA601BF05AFADEE700BF00080240E3
:1033200080B500AFFFF7D6FF00BF80BD80B582B08B
:1033300000AF78603960FFF7CDFF00BF0837BD46AA
:1033400080BD000080B500AF00F01CF902460E4BB6
:103350001A600D4B1B68002B0CD14FF480620021CA
:103360000A481EF053F8094B094A1A60064B094AED
:103370001A6007E0044B1B684FF48062194603484B
:103380001EF039F800BF80BD0CE100200CDD0020EC
:103390002143AA5500001E0890B591B000AF00234C
:1033A00087F8373012F0AEF800F0A8F8F863FB6B3E
:1033B000002B1BD100237B6001233B611723FB60A3
:1033C00002237B6107F118023B1D1146184611F0DC
:1033D000FBFE0346002B07D012F0BEF83863FFF760
:1033E00079FF12F0A9F847E0254BFB63254B264AED
:1033F0001A6007F11C031946224800F04BF8FB69DC
:10340000204AC2F8FC330023FB62204BF322DA602F
:103410000023BB6322E01B4ABB6B13441B78DBB267
:103420004FF00004C7E90834FA6BBB6BD118D7E939
:103430000823F86A12F012F8034687F8373097F835
:103440003730002B05D012F087F83863FFF742FFC2
:103450000DE0FA6ABB6B13440133BB63FB6A0133B3
:103460004FF48062B2FBF3F3BA6B9A42D3D312F0FB
:1034700063F8074AFB6B13604437BD4690BD00BF3D
:1034800000001E080CDD00202143AA55003C02402C
:103490000CE1002080B582B000AF786039607B68B5
:1034A000134A934203D97B68124A934209D97B6835
:1034B000B3F1005F15D37B6803F580630E4A934236
:1034C0000FD83B68002B09D04FF47F727968002039
:1034D0000AF0DCF902463B681A6004E0FFF7FAFEE6
:1034E00001E0FFF7F7FE00BF0837BD4680BD00BF13
:1034F000FFFF1D0800FC1F08FAFF022080B483B004
:1035000000AF0023BB801E4B1B683B600023FB8089
:103510000DE0B7F904309B023A6813441A46FB8861
:1035200013441B78FF2B07D1FB880133FB80FB88FA
:10353000B3F5806FEDD300E000BFFB88B3F5806F7B
:1035400006D2B7F904309BB201339BB2BB8005E0D1
:10355000B7F904309B023A6813440AE0B7F9043023
:103560009B023A68134403F58063B3F1026FCDD335
:10357000002318460C37BD465DF8047B704700BF3A
:103580000CE1002080B584B000AF7F23FB811A4B93
:10359000BB60B7F90E309B02BA6813441B68174A28
:1035A000934219D1B7F90E309B02BA6813443A1D01
:1035B00011461846FFF76EFFB7F90E309B02BA6846
:1035C0001344D3F8FC237B689A4205D1B7F90E3037
:1035D0009B02BA6813440AE0B7F90E309BB2013B74
:1035E0009BB2FB81B7F90E30002BD2DC00231846CA
:1035F0001037BD4680BD00BF00001E082143AA55FC
:10360000B0B586B000AF0023FB752EE0FB7D3A4AD3
:103610004FF40C7101FB03F3134400221A60FB7D8D
:10362000364A002142F82310FB7D354A002142F83A
:103630002310FB7D334A002142F82310FB7D324AE0
:10364000002142F82310FB7D304A002142F823106C
:10365000FB7D2F4A002122F81310FB7D2D4A00210B
:1036600022F81310FB7D0133FB75FB7D022BCDD9B6
:10367000294B2A4A1A602A4B2A4A1A602A4B2B4A9B
:103680001A60254B1B680122294918461AF07AFB5B
:103690000346BB75BB7D002B01D0FFF71BFE204B03
:1036A0001B680122224918461AF06CFB0346BB75C1
:1036B000BB7D002B01D0FFF70DFE1B4B1B680122C9
:1036C0001B4918461AF05EFB0346BB75BB7D002BF9
:1036D00001D0FFF7FFFD174B3C461D460FCD0FC431
:1036E0002B6823603B460021184609F0FEFB00BF13
:1036F0001837BD46B0BD00BF340E002028E40020BE
:103700001CE4002010E10020BC0D0020C80D0020AA
:10371000240E00202C0E00200C0000202CE800209D
:1037200010000020C8E900201400002088E90020D3
:1037300060EA00208C5006082DE9F041ADF5207DAF
:1037400008AF3B1D1860002387F85F3208F086FC45
:103750000346012B40F09E80132387F85E32654BB1
:103760001B681A466449654817F021F8614B1B68CD
:103770001A466349614817F02DF907F10C0313222B
:10378000604918460CF0B6F8034687F85E3297F8A1
:103790005E32002B09D107F50F73194659480DF019
:1037A0008DF9034687F85E3205E097F85E32012B0B
:1037B00001D108F053FC97F85E32002B6AD1D7F89C
:1037C0003C2207F10C03114618460CF022FE03467A
:1037D00087F85E3297F85E32002B4BD197F85E3255
:1037E000002B41D10021454816F02EFEC7F85802A3
:1037F000454B1B68C7F85432414BDB789C46404B25
:103800005B789E463E4B9B781A463B4B1B7819468D
:10381000394B5B781C46384B9B781D46D7F858329D
:103820001B0C9BB21E46D7F858329BB23B60D7F8B0
:1038300054321B0C9BB2D7F8540280B207F10C082B
:10384000079006933B6805930496039502940191B3
:103850000092734662462D49404609F0B3FD07F1D8
:103860000C03184600F0A2F807F10C0318460CF000
:10387000A1FD0FE0264B1B6897F85E2225491846EC
:1038800009F0A0FD244B1B6897F85E2221491846D9
:1038900009F098FD00201CF0ABFA00201CF08CFA17
:1038A000002000F0AFF803461A4697F85F32134342
:1038B00087F85F32012000F0A5F803461A4697F812
:1038C0005F32134387F85F32022000F09BF8034613
:1038D0001A4697F85F32134387F85F3297F85F32E2
:1038E000002B02D10A2009F027FB002387F85F3262
:1038F000D3E700BFB80700202CE6002070E80020C6
:103900006CE80020A050060854280040AC5006087F
:1039100014000020F45006080C00002080B584B08C
:1039200000AF786039603B68002B0BD03868FDF73A
:1039300063F90346FB81FB891A463968786800F011
:1039400007F801E0FFF7C6FC00BF1037BD4680BD99
:1039500080B586B000AFF860B9601346FB80FB8885
:10396000FB82BB68002B18D0FB8A1A46B96800207E
:1039700009F08CFF3861FB8ABA6813443A690A4936
:1039800018461EF05FFAFB8A0A33FB82FA8AFB684C
:103990000021B86809F076FE01E0FFF79BFC00BF4C
:1039A0001837BD4680BD00BF0851060880B584B0F9
:1039B00002AF78600C4B01930C4B0093592301220A
:1039C0000B49786809F0FEFC0A4B1A680A4B196823
:1039D0000A4B1B6800930B460949786809F0F2FC12
:1039E00000BF0837BD4680BD38510608445106085F
:1039F00010510608107AFF1F147AFF1F187AFF1F54
:103A000050510608F0B5B7B008AF0346FB7300236A
:103A100087F8AF30FB7B022B01D9FFF75BFCFB7B08
:103A20001B02BD4A9818FB7B0D22FF2107F020FBEB
:103A30000346002B07F04E82FB7BB84A52F8233036
:103A4000C7F88C30FB7B1B02B34A1344B4491846B9
:103A50001EF05BFAC7F88800D7F88830002B07F013
:103A60007082012387F8AF30D7F88800FDF7C4F8DB
:103A7000C7F88400D7F88430B3F5807F07F20C8252
:103A8000FB7B1B02A74A1344D7F8881018461EF088
:103A900034FA0423C7F8B4300423C7F8B03028E060
:103AA000FB7BA04A1B021A44D7F8B43013441878A1
:103AB000FA7BD7F8B43001339A4912020A4413440E
:103AC0001B78FC7B194607F025FB03461946954AEF
:103AD00023021A44D7F8B03013440A461A70D7F8B4
:103AE000B4300233C7F8B430D7F8B0300133C7F878
:103AF000B030D7F8B420D7F884309A42D0D3FB7BCB
:103B0000884A1B02134404331B78112B08D0FB7B1B
:103B1000844A1B02134404331B78402B40F0348149
:103B2000FB7B804A1B02134404331B78112B55D1B5
:103B3000FB7B7C4A1B02134403331B78522B0DD1B1
:103B4000FB7B784A1B02134405331B78194600207F
:103B500007F008FB0346A7F8AC309DE0FB7B714AF9
:103B60001B02134403331B78572B0DD1FB7B6D4A8B
:103B70001B02134405331B781946012007F0F2FAA3
:103B80000346A7F8AC3087E0FB7B664A1B02134470
:103B900003331B78442B04D1D7F88430A7F8AC301A
:103BA0007AE0FB7B4FF4867202FB03F35E4A134418
:103BB0005E491A460B4603CB10605160FB7B4FF405
:103BC000867202FB03F3584A13441946D7F88C0057
:103BD000FFF7A4FE97F8AF3007F0B5B9FB7B514A69
:103BE0001B02134404331B78402B55D1FB7B4D4AF9
:103BF0001B02134403331B78522B0DD1FB7B494A24
:103C00001B02134405331B781946022007F0AAFA59
:103C10000346A7F8AC303FE0FB7B424A1B0213444B
:103C200003331B78572B0DD1FB7B3E4A1B021344F9
:103C300005331B781946032007F094FA0346A7F8CA
:103C4000AC3029E0FB7B374A1B02134403331B785B
:103C5000442B04D1D7F88430A7F8AC301CE0FB7BB0
:103C60004FF4867202FB03F32F4A13442F491A467E
:103C70000B4603CB10605160FB7B4FF4867202FB56
:103C800003F3294A13441946D7F88C00FFF746FE80
:103C900097F8AF3007F057B9B7F8AC3009331A4688
:103CA000D7F88430934245D1D7F88430093B1A467F
:103CB000D7F88810002009F0E9FDC7F88000B7F8B0
:103CC000AC300133D7F888201344184607F00CFBBA
:103CD000F867D7F88020FB6F9A4255D0FB7B4FF4F2
:103CE000867202FB03F3104A1344D7F88020104970
:103CF00018461EF0A7F8FB7B4FF4867202FB03F315
:103D0000094A13441946D7F88C00FFF707FE97F8C5
:103D1000AF3007F018B900BFBC0A00201C0000201B
:103D200070510608BC070020601500207451060879
:103D30007C510608B7F8AC30D7F884209A4223D0DB
:103D4000FB7B4FF4867202FB03F3B64A1344B64A78
:103D50001C4615460FCD20606160A260E3600FCD68
:103D600020616161A261E361FB7B4FF4867202FB1B
:103D700003F3AC4A13441946D7F88C00FFF7CEFD85
:103D800097F8AF3007F0DFB8FB7BA84A1B0213445B
:103D900003331B78522B42F0FA82FB7BA34A1B02AF
:103DA000134404331B78402B40F0C780FB7B9F4AB1
:103DB0001B02134406331B789BB21B029AB2FB7B97
:103DC0009A491B020B4407331B789BB21344A7F894
:103DD0004A30FB7B954A1B02134405331B78012BA9
:103DE000C0F28E800B2B02DD402B40F08980B7F8AB
:103DF0004A30B3F5005F30D3B7F84A30B3F5405FCF
:103E00002BD2FB7B4FF4867202FB03F3854A981892
:103E1000FB7B864A1B02134405331B781A468449F0
:103E20001EF010F8FB7B4FF4867202FB03F37D4A11
:103E300013441946D7F88C00FFF770FDFB7B7B4AD3
:103E40001B02134405331978B7F84A000023009386
:103E5000002352220FF010FF50E0B7F84A30B3F5BC
:103E6000805F30D3B7F84A30B3F5005F2BD2FB7BCD
:103E70004FF4867202FB03F36A4A9818FB7B6B4A85
:103E80001B02134405331B781A466A491DF0DAFFFA
:103E9000FB7B4FF4867202FB03F3624A134419461C
:103EA000D7F88C00FFF73AFDFB7B604A1B021344F6
:103EB00005331978B7F84A000023009300235222F3
:103EC0001DF022FA1AE0FB7B4FF4867202FB03F32B
:103ED000544A1344B7F84A20574918461DF0B2FF18
:103EE000FB7B4FF4867202FB03F34E4A13441946E0
:103EF000D7F88C00FFF712FD07F023B807F021B8C0
:103F0000FB7B4FF4867202FB03F3464A13444B4A91
:103F10001C4615460FCD20606160A260E360FB7B0C
:103F20004FF4867202FB03F33E4A13441946D7F856
:103F30008C00FFF7F3FC07F004B8FB7B3B4A1B0245
:103F4000134404331B78182B40F03881002387F882
:103F5000AB300A23A7F8AC30B7F8AC3009331A46B7
:103F6000D7F88430934236D1D7F88430093B1A46CB
:103F7000D7F88810002009F089FCC7F88000B7F84E
:103F8000AC300133D7F888201344184607F0ACF959
:103F9000F867D7F88020FB6F9A4255D0FB7B4FF42F
:103FA000867202FB03F31F4A1344D7F8802024498A
:103FB00018461DF047FFFB7B4FF4867202FB03F3AC
:103FC000184A13441946D7F88C00FFF7A7FC97F856
:103FD000AF3006F0B8BFB7F8AC30D7F884209A42BB
:103FE00032D0FB7B4FF4867202FB03F30D4A13447D
:103FF000144A1C46134607CB20606160A2601B7800
:104000002373FB7B4FF4867202FB03F3054A1344D0
:104010001946D7F88C00FFF781FC97F8AF3006F00F
:1040200092BF00BF6015002094510608BC07002015
:10403000B4510608D4510608F4510608085206087F
:104040007C51060818520608FB7BB24A1B02134437
:1040500006331B78302B00F29480FB7BAD4A1B02A9
:10406000134406331B78002B00F08B8007F04CFCC8
:1040700097F8AB30002B1BD097F8AA30012B0DD04E
:1040800097F8AA30032B09D097F8AA30022B08D151
:10409000A14B93F83D30DBB2202B02D19E4807F0B4
:1040A000BDFC052008F048FF97F8AB30092B1FD85E
:1040B000FB7B984A1B02134406331B789AB20A23EF
:1040C00002930223019307F114030093012330218B
:1040D000914812F0DFFB034687F8AA3097F8AB301F
:1040E000013387F8AB3097F8AA30002BC0D100E03D
:1040F00000BF894811F056FF97F8AA30002B23D152
:104100003B7D9BB21B029AB27B7D9BB21344A7F806
:104110004C30FB7B4FF4867202FB03F37F4A13445F
:10412000B7F84C207E4918461DF08CFEFB7B4FF4FF
:10413000867202FB03F3794A13441946D7F88C00C0
:10414000FFF7ECFB06F0FDBEFB7B4FF4867202FB33
:1041500003F3724A1344734A1C4615460FCD206080
:104160006160A260E360FB7B4FF4867202FB03F3A5
:104170006A4A13441946D7F88C00FFF7CFFB06F0C4
:10418000E0BEFB7B4FF4867202FB03F3634A1344E9
:10419000654A1C4615460FCD20606160A260E36051
:1041A000FB7B4FF4867202FB03F35C4A134419460F
:1041B000D7F88C00FFF7B2FB06F0C3BEFB7B554A75
:1041C0001B02134404331B78332B40F01881002367
:1041D00087F8A8300823A7F8AC30B7F8AC3009331B
:1041E0001A46D7F88430934236D1D7F88430093B49
:1041F0001A46D7F88810002009F048FBC7F880005D
:10420000B7F8AC300133D7F888201344184607F0CC
:104210006BF8F867D7F88020FB6F9A4242D0FB7B9F
:104220004FF4867202FB03F33C4A1344D7F8802014
:104230003E4918461DF006FEFB7B4FF4867202FBDA
:1042400003F3364A13441946D7F88C00FFF766FB90
:1042500097F8AF3006F077BEB7F8AC30D7F88420C7
:104260009A421FD0FB7B4FF4867202FB03F32B4A6A
:1042700013442F4A1C46134607CB20606160A2609E
:104280001B782373FB7B4FF4867202FB03F3234AF4
:1042900013441946D7F88C00FFF740FB97F8AF306E
:1042A00006F051BE07F030FB97F8A830002B1BD06A
:1042B00097F8A930012B0DD097F8A930032B09D01E
:1042C00097F8A930022B08D1134B93F83D30DBB29D
:1042D000202B02D1104807F0A1FB052008F02CFE8E
:1042E00097F8A830092B25D807F110020A2300936C
:1042F00004236621084811F093FF034687F8A9308C
:1043000097F8A830013387F8A83097F8A930002B28
:10431000CAD110E0BC070020D8E5002060150020BD
:104320002852060830520608405206087C510608FA
:104330001852060800BFE24811F034FE97F8A93081
:10434000002B32D13A7CDF4B1A707A7CDD4B5A70ED
:10435000BA7CDC4B9A70FA7CDA4BDA70FB7B4FF458
:10436000867202FB03F3D84A9818D64B1B7819467D
:10437000D44B5B781C46D34B9B781A46D14BDB78E9
:104380000193009223460A46D0491DF05BFDFB7B5A
:104390004FF4867202FB03F3CB4A13441946D7F855
:1043A0008C00FFF7BBFA06F0CCBDFB7B4FF48672A6
:1043B00002FB03F3C44A1344C54A14469C4604F165
:1043C000200E654626460FCE28606960AA60EB6025
:1043D00010340CF1100C7445F3D1624623461B884F
:1043E0001380FB7B4FF4867202FB03F3B64A13443F
:1043F0001946D7F88C00FFF791FA06F0A2BDFB7BB7
:10440000B44A1B02134404331B78112B41F0A287DA
:10441000FB7BB04A1B02134405331B787F2B01F250
:104420007B8701A252F823F0294604081F4704089D
:1044300019480408ED480408194A0408F74A040812
:10444000E94B0408F14C0408E34D0408A34E0408AA
:10445000634F04086350040823510408E35104081F
:10446000BB520408A55304086554040819630408E2
:1044700019630408196304083D5504089556040897
:10448000BD570408E5580408395A0408615B04085C
:10449000895C0408295D0408955D0408015E040830
:1044A0006D5E0408D95E0408455F040819630408BA
:1044B00019630408196304081963040819630408DC
:1044C00019630408196304081963040819630408CC
:1044D00019630408196304081963040819630408BC
:1044E0001963040819630408196304083160040897
:1044F00019630408F760040819630408B16104082B
:10450000196304081963040819630408196304088B
:10451000196304081963040819630408196304087B
:10452000196304081963040819630408196304086B
:10453000196304081963040819630408196304085B
:10454000196304081963040819630408196304084B
:10455000196304081963040819630408196304083B
:10456000196304081963040819630408196304082B
:10457000196304081963040819630408196304081B
:10458000196304081963040819630408196304080B
:1045900019630408196304081963040819630408FB
:1045A000196304081963040819630408FF61040807
:1045B00019630408196304081963040819630408DB
:1045C00019630408196304081963040819630408CB
:1045D00019630408196304081963040819630408BB
:1045E00019630408196304081963040819630408AB
:1045F000196304081963040819630408196304089B
:10460000196304081963040819630408196304088A
:10461000196304081963040819630408196304087A
:10462000196304089562040807F120031946302035
:1046300008F00FF80346012B52D1FB7B4FF4867232
:1046400002FB03F3204A9818B7F920301A46B7F94D
:1046500022301946B7F9243000930B461E491DF04D
:10466000F1FBFB7B4FF4867202FB03F3164A134403
:104670001946D7F88C00FFF751F9FB7B4FF486728F
:1046800002FB03F3104A9818B7F920301A46B7F91D
:1046900022301946B7F9243000930B460F491DF01C
:1046A000D1FBFB7B4FF4867202FB03F3064A1344F3
:1046B0001946D7F88C00FFF731F906F042BC00BF6D
:1046C000D8E5002064EA002060150020505206085A
:1046D00064520608BC070020885206089852060853
:1046E000C14807F09BF9FB7B4FF4867202FB03F392
:1046F000BE4A1344BE4A1846114654231A461CF0BB
:104700007AFEFB7B4FF4867202FB03F3B74A134435
:104710001946D7F88C00FFF701F906F012BCFB7BB5
:10472000B44A1B02134406331978FB7B1B02073380
:10473000B04A13441A46302007F062FE0346012BAC
:1047400049D1FB7B4FF4867202FB03F3A74A98180A
:10475000FB7BA84A1B02134406331B781946FB7BDC
:10476000A44A1B02134407331B780A46A2491DF0D2
:1047700069FBFB7B4FF4867202FB03F39B4A1344F5
:104780001946D7F88C00FFF7C9F8FB7B4FF4867207
:1047900002FB03F3954A9818FB7B964A1B021344CD
:1047A00006331B781946FB7B924A1B0213440733DE
:1047B0001B780A4691491DF045FBFB7B4FF486723E
:1047C00002FB03F3894A13441946D7F88C00FFF71C
:1047D000A5F806F0B6BBFB7B4FF4867202FB03F331
:1047E000824A1344864A1D4614460FCC28606960ED
:1047F000AA60EB6007CC28616961AA61FB7B4FF47A
:10480000867202FB03F3794A13441946D7F88C00E9
:10481000FFF784F806F095BB07F120031946322014
:1048200007F017FF0346012B41D1FB7B4FF4867243
:1048300002FB03F36D4A9818B7F920301A46B7F90E
:1048400022301946B7F9243000930B466D491DF00C
:10485000F9FAFB7B4FF4867202FB03F3634A1344BD
:104860001946D7F88C00FFF759F8FB7B4FF4867296
:1048700002FB03F35D4A9818B7F920301A46B7F9DE
:1048800022301946B7F9243000930B465E491DF0DB
:10489000D9FAFB7B4FF4867202FB03F3534A1344AD
:1048A0001946D7F88C00FFF739F806F04ABB4E4896
:1048B00007F0B4F8FB7B4FF4867202FB03F34B4A1C
:1048C0001344524A184611464E231A461CF093FDD3
:1048D000FB7B4FF4867202FB03F3444A13441946F0
:1048E000D7F88C00FFF71AF806F02BBBFB7B414A88
:1048F0001B02134406331978FB7B1B0207333D4A26
:1049000013441A46322007F07BFD0346012B49D1A0
:10491000FB7B4FF4867202FB03F3344A9818FB7B4F
:10492000344A1B02134406331B781946FB7B314A79
:104930001B02134407331B780A4635491DF082FADF
:10494000FB7B4FF4867202FB03F3284A134419469B
:10495000D7F88C00FEF7E2FFFB7B4FF4867202FB78
:1049600003F3224A9818FB7B224A1B0213440633A6
:104970001B781946FB7B1F4A1B02134407331B7825
:104980000A4624491DF05EFAFB7B4FF4867202FB57
:1049900003F3164A13441946D7F88C00FEF7BEFFFE
:1049A00006F0CFBAFB7B4FF4867202FB03F30F4A8B
:1049B0001344134A1D4614460FCC28606960AA6050
:1049C000EB6007CC28616961AA61FB7B4FF48672BA
:1049D00002FB03F3054A13441946D7F88C00FEF78F
:1049E0009DFF06F0AEBA00BF4CE600206015002027
:1049F000B8520608BC0700200C5306081C530608D2
:104A0000485306086453060874530608945306086E
:104A1000E4530608F453060807F128033821184622
:104A200008F062FC0346002B1FD0A74806F0F6FFF3
:104A3000FB7B4FF4867202FB03F3A44A1344A44A9F
:104A40001C4615460FCD20606160A260E360FB7BD1
:104A50004FF4867202FB03F39C4A13441946D7F8BD
:104A60008C00FEF75BFF06F06CBAFB7B4FF486729E
:104A700002FB03F3954A9818D7E90A56D7E90C3494
:104A8000D7E90E12CDE90212CDE900342A463346A9
:104A900090491DF0D7F9FB7B4FF4867202FB03F3BC
:104AA0008A4A13441946D7F88C00FEF737FFFB7B80
:104AB0004FF4867202FB03F3844A9818D7E90A562A
:104AC000D7E90C34D7E90E12CDE90212CDE9003452
:104AD0002A46334680491DF0B5F9FB7B4FF48672B8
:104AE00002FB03F3794A13441946D7F88C00FEF70A
:104AF00015FF06F026BAFB7B784A1B0213440633E7
:104B00001978FB7B1B020733744A13441A4638207A
:104B10000DF094F80346012B49D1FB7B4FF48672CC
:104B200002FB03F3694A9818FB7B6C4A1B0213448F
:104B300006331B781946FB7B684A1B021344073374
:104B40001B780A4666491DF07DF9FB7B4FF486729F
:104B500002FB03F35D4A13441946D7F88C00FEF7B5
:104B6000DDFEFB7B4FF4867202FB03F3574A981875
:104B7000FB7B5A4A1B02134406331B781946FB7B06
:104B8000564A1B02134407331B780A4655491DF049
:104B900059F9FB7B4FF4867202FB03F34B4A134433
:104BA0001946D7F88C00FEF7B9FE06F0CAB9FB7BB0
:104BB0004FF4867202FB03F3444A1344444A1C46F2
:104BC00015460FCD20606160A260E360FB7B4FF46F
:104BD000867202FB03F33D4A13441946D7F88C0052
:104BE000FEF79CFE06F0ADB93C2008F042FB07F151
:104BF00028033C21184608F077FB0346002B1CD005
:104C0000FB7B4FF4867202FB03F3304A1344304AB5
:104C10001C4615460FCD20606160A260E360FB7BFF
:104C20004FF4867202FB03F3284A13441946D7F85F
:104C30008C00FEF773FE06F084B9FB7B4FF486729E
:104C400002FB03F3214A9818D7E90A56D7E90C3436
:104C5000D7E90E12CDE90212CDE900342A463346D7
:104C600021491DF0EFF8FB7B4FF4867202FB03F342
:104C7000164A13441946D7F88C00FEF74FFEFB7B0B
:104C80004FF4867202FB03F3104A9818D7E90A56CC
:104C9000D7E90C34D7E90E12CDE90212CDE9003480
:104CA0002A46334611491DF0CDF8FB7B4FF486723E
:104CB00002FB03F3054A13441946D7F88C00FEF7AC
:104CC0002DFE06F03EB900BF4CE600206015002026
:104CD000305206082054060838540608BC07002045
:104CE0000C53060884540608AC540608C45406083D
:104CF000FB7BC34A1B02134406331978FB7B1B0260
:104D00000733BF4A13441A463C200CF097FF034672
:104D1000012B49D1FB7B4FF4867202FB03F3B94AA6
:104D20009818FB7BB64A1B02134406331B781946BE
:104D3000FB7BB34A1B02134407331B780A46B24974
:104D40001DF080F8FB7B4FF4867202FB03F3AD4A43
:104D500013441946D7F88C00FEF7E0FDFB7B4FF4B7
:104D6000867202FB03F3A74A9818FB7BA44A1B0236
:104D7000134406331B781946FB7BA14A1B021344DC
:104D800007331B780A46A1491DF05CF8FB7B4FF402
:104D9000867202FB03F39B4A13441946D7F88C0032
:104DA000FEF7BCFD06F0CDB8FB7B4FF4867202FB2C
:104DB00003F3944A1344964A1C4615460FCD2060CF
:104DC0006160A260E360FB7B4FF4867202FB03F339
:104DD0008C4A13441946D7F88C00FEF79FFD06F065
:104DE000B0B807F12003194600200DF0D3FB0346AD
:104DF000012B39D1B7F9203047F6FF72934233D0F7
:104E0000FB7B4FF4867202FB03F37E4A1344B7F92F
:104E10002020804918461DF015F8FB7B4FF4867260
:104E200002FB03F3774A13441946D7F88C00FEF7C8
:104E300075FDFB7B4FF4867202FB03F3714A13444A
:104E4000B7F92020744918461CF0FCFFFB7B4FF497
:104E5000867202FB03F36B4A13441946D7F88C00A1
:104E6000FEF75CFD06F06DB8FB7B4FF4867202FB2B
:104E700003F3644A1344664A1C4615460FCD20606E
:104E80006160A260E360FB7B4FF4867202FB03F378
:104E90005C4A13441946D7F88C00FEF73FFD06F034
:104EA00050B807F12003194600200DF045FC0346D9
:104EB000012B39D1B7F9203047F6FF72934233D036
:104EC000FB7B4FF4867202FB03F34E4A1344B7F99F
:104ED0002020504918461CF0B5FFFB7B4FF486722A
:104EE00002FB03F3474A13441946D7F88C00FEF738
:104EF00015FDFB7B4FF4867202FB03F3414A13441A
:104F0000B7F92020454918461CF09CFFFB7B4FF465
:104F1000867202FB03F33B4A13441946D7F88C0010
:104F2000FEF7FCFC06F00DB8FB7B4FF4867202FB2B
:104F300003F3344A1344364A1C4615460FCD20600D
:104F40006160A260E360FB7B4FF4867202FB03F3B7
:104F50002C4A13441946D7F88C00FEF7DFFC05F005
:104F6000F0BFFB7B264A1B02134406331B7807F174
:104F70004801032218460DF049FA0346012B53D18C
:104F8000FB7B4FF4867202FB03F31E4A9818FB7BEF
:104F90001B4A1B02134406331B781A46B7F84830E5
:104FA0001F491CF04FFFFB7B4FF4867202FB03F39B
:104FB000144A13441946D7F88C00FEF7AFFCFB7B6C
:104FC0004FF4867202FB03F30E4A9818FB7B0C4ADF
:104FD0001B02134406331B781A46B7F848301149B0
:104FE0001CF030FFFB7B4FF4867202FB03F3054A93
:104FF00013441946D7F88C00FEF790FC05F0A1BFCA
:10500000BC07002060150020E45306081055060870
:105010003052060838550608405506085855060807
:105020000C53060870550608FB7B4FF4867202FB92
:1050300003F3D24A1344D24A1C4615460FCD2060D2
:105040006160A260E360FB7B4FF4867202FB03F3B6
:10505000CA4A13441946D7F88C00FEF75FFC05F0E6
:1050600070BF07F12003194601200DF093FA0346A3
:10507000012B39D1B7F9223047F6FF72934233D072
:10508000FB7B4FF4867202FB03F3BC4A1344B7F96F
:105090002220BC4918461CF0D5FEFB7B4FF48672DB
:1050A00002FB03F3B54A13441946D7F88C00FEF708
:1050B00035FCFB7B4FF4867202FB03F3AF4A1344CB
:1050C000B7F92220B04918461CF0BCFEFB7B4FF418
:1050D000867202FB03F3A94A13441946D7F88C00E1
:1050E000FEF71CFC05F02DBFFB7B4FF4867202FB24
:1050F00003F3A24A1344A24A1C4615460FCD206072
:105100006160A260E360FB7B4FF4867202FB03F3F5
:105110009A4A13441946D7F88C00FEF7FFFB05F0B6
:1051200010BF07F12003194601200DF005FB0346CF
:10513000012B39D1B7F9223047F6FF72934233D0B1
:10514000FB7B4FF4867202FB03F38C4A1344B7F9DE
:1051500022208C4918461CF075FEFB7B4FF48672AA
:1051600002FB03F3854A13441946D7F88C00FEF777
:10517000D5FBFB7B4FF4867202FB03F37F4A13449B
:10518000B7F92220814918461CF05CFEFB7B4FF4E6
:10519000867202FB03F3794A13441946D7F88C0050
:1051A000FEF7BCFB05F0CDBEFB7B4FF4867202FB25
:1051B00003F3724A1344724A1C4615460FCD206011
:1051C0006160A260E360FB7B4FF4867202FB03F335
:1051D0006A4A13441946D7F88C00FEF79FFB05F086
:1051E000B0BEFB7B6A4A1B02134406331B7807F1EF
:1051F0004801042218460DF009F90346012B3FD15E
:10520000FB7B4FF4867202FB03F35C4A9818FB7B2E
:105210005F4A1B02134406331B781A46B7F848301E
:105220005C491CF00FFEFB7B4FF4867202FB03F31C
:10523000524A13441946D7F88C00FEF76FFBFB7BEC
:105240004FF4867202FB03F34C4A9818FB7B504ADA
:105250001B02134406331B781A46B7F848304E49F0
:105260001CF0F0FDFB7B4FF4867202FB03F3434A14
:1052700013441946D7F88C00FEF750FB05F061BEC9
:10528000FB7B4FF4867202FB03F33C4A13443C4A17
:105290001C4615460FCD20606160A260E360FB7B79
:1052A0004FF4867202FB03F3344A13441946D7F8CD
:1052B0008C00FEF733FB05F044BE07F120031946CE
:1052C00002200DF067F90346012B39D1B7F92430DC
:1052D00047F6FF72934233D0FB7B4FF4867202FB9A
:1052E00003F3264A1344B7F924202C4918461CF02E
:1052F000A9FDFB7B4FF4867202FB03F31F4A1344A4
:105300001946D7F88C00FEF709FBFB7B4FF4867239
:1053100002FB03F3194A1344B7F924202049184625
:105320001CF090FDFB7B4FF4867202FB03F3134AE3
:1053300013441946D7F88C00FEF7F0FA05F001BEC9
:10534000FB7B4FF4867202FB03F30C4A13440C4AB6
:105350001C4615460FCD20606160A260E360FB7BB8
:105360004FF4867202FB03F3044A13441946D7F83C
:105370008C00FEF7D3FA05F0E4BD00BF60150020F5
:1053800030520608945506089C550608B455060880
:10539000BC070020E4530608CC550608F055060863
:1053A000F855060807F12003194602200DF0C4F94C
:1053B0000346012B39D1B7F9243047F6FF729342E7
:1053C00033D0FB7B4FF4867202FB03F3A54A1344F0
:1053D000B7F92420A44918461CF034FDFB7B4FF498
:1053E000867202FB03F39F4A13441946D7F88C00D8
:1053F000FEF794FAFB7B4FF4867202FB03F3994AA3
:105400001344B7F92420994918461CF01BFDFB7B77
:105410004FF4867202FB03F3924A13441946D7F8FD
:105420008C00FEF77BFA05F08CBDFB7B4FF4867297
:1054300002FB03F38B4A13448D4A1C4615460FCDDD
:1054400020606160A260E360FB7B4FF4867202FB28
:1054500003F3844A13441946D7F88C00FEF75EFA2A
:1054600005F06FBDFB7B834A1B02134406331B7898
:1054700007F14801052218460CF0C8FF0346012B2E
:105480003FD1FB7B4FF4867202FB03F3754A9818F9
:10549000FB7B784A1B02134406331B781A46B7F885
:1054A000483075491CF0CEFCFB7B4FF4867202FB42
:1054B00003F36C4A13441946D7F88C00FEF72EFA12
:1054C000FB7B4FF4867202FB03F3664A9818FB7B62
:1054D000684A1B02134406331B781A46B7F8483053
:1054E00066491CF0AFFCFB7B4FF4867202FB03F3B2
:1054F0005C4A13441946D7F88C00FEF70FFA05F002
:1055000020BDFB7B4FF4867202FB03F3554A134424
:10551000574A1C4615460FCD20606160A260E360CB
:10552000FB7B4FF4867202FB03F34E4A1344194689
:10553000D7F88C00FEF7F2F905F003BD0CF030FD52
:1055400007F1180318460DF0E5F90346012B63D166
:105550004B4B1B78DBB203F00103002B5CD0B7F997
:105560001830002B00DA0733DB101BB21A46134643
:105570009B0013445B00002B00DA0F331B11A7F8CC
:105580004E30FB7B4FF4867202FB03F3354A134423
:10559000B7F9182092B23B4918461CF053FCFB7B2C
:1055A0004FF4867202FB03F32E4A13441946D7F8D0
:1055B0008C00FEF7B3F9FB7B4FF4867202FB03F31A
:1055C000284A9818B7F94E302F4A82FB03129210DE
:1055D000DB17D31A1BB21C46B7F94E202A4B83FBAC
:1055E00002139910D317C91A0B469B000B445B009A
:1055F000D31A1BB2224625491CF024FCFB7B4FF436
:10560000867202FB03F3174A13441946D7F88C003D
:10561000FEF784F905F095BCFB7B4FF4867202FB24
:1056200003F3104A13441A4A1D4614460FCC28604F
:105630006960AA60EB6007CC28616961AA61238870
:10564000A278AB831346AB77FB7B4FF4867202FBE9
:1056500003F3044A13441946D7F88C00FEF75EF9A9
:1056600005F06FBC60150020F055060810560608BE
:1056700030520608BC07002028560608385606088F
:1056800018CF00205C5606086766666668560608EE
:105690008C5606080CF084FC07F1180318460DF030
:1056A00039F90346012B63D1C54B1B78DBB203F0FC
:1056B0000203002B5CD0B7F91A30002B00DA073355
:1056C000DB101BB21A4613469B0013445B00002BF1
:1056D00000DA0F331B11A7F84E30FB7B4FF48672B4
:1056E00002FB03F3B74A1344B7F91A2092B2B64942
:1056F00018461CF0A7FBFB7B4FF4867202FB03F3FA
:10570000B04A13441946D7F88C00FEF707F9FB7B23
:105710004FF4867202FB03F3AA4A9818B7F94E3089
:10572000AA4A82FB03129210DB17D31A1BB21C4643
:10573000B7F94E20A54B83FB02139910D317C91A52
:105740000B469B000B445B00D31A1BB22246A049B8
:105750001CF078FBFB7B4FF4867202FB03F3994A43
:1057600013441946D7F88C00FEF7D8F805F0E9BBCA
:10577000FB7B4FF4867202FB03F3924A1344954A73
:105780001D4614460FCC28606960AA60EB6007CC08
:1057900028616961AA612388A278AB831346AB773D
:1057A000FB7B4FF4867202FB03F3864A13441946CF
:1057B000D7F88C00FEF7B2F805F0C3BB0CF0F0FB95
:1057C00007F1180318460DF0A5F80346012B63D125
:1057D0007B4B1B78DBB203F00403002B5CD0B7F9E2
:1057E0001C30002B00DA0733DB101BB21A461346BD
:1057F0009B0013445B00002B00DA0F331B11A7F84A
:105800004E30FB7B4FF4867202FB03F36D4A134468
:10581000B7F91C2092B2704918461CF013FBFB7BB1
:105820004FF4867202FB03F3664A13441946D7F815
:105830008C00FEF773F8FB7B4FF4867202FB03F3D8
:10584000604A9818B7F94E30604A82FB03129210F2
:10585000DB17D31A1BB21C46B7F94E205B4B83FBF8
:1058600002139910D317C91A0B469B000B445B0017
:10587000D31A1BB2224659491CF0E4FAFB7B4FF4C1
:10588000867202FB03F34F4A13441946D7F88C0083
:10589000FEF744F805F055BBFB7B4FF4867202FB24
:1058A00003F3484A13444E4A1D4614460FCC286061
:1058B0006960AA60EB6007CC28616961AA612388EE
:1058C000A278AB831346AB77FB7B4FF4867202FB67
:1058D00003F33C4A13441946D7F88C00FEF71EF830
:1058E00005F02FBB0CF05CFB07F1180318460DF018
:1058F00077F80346012B79D1314B1B78DBB203F0EB
:105900000803002B72D0B7F91830002B00DA0733E8
:10591000DB101BB21A4613469B0013445B00002B9E
:1059200000DA0F331B11A7F84E30FB7B4FF4867261
:1059300002FB03F3234A1344B7F9182092B2294912
:1059400018461CF07FFAFB7B4FF4867202FB03F3D0
:105950001C4A13441946D7F88C00FDF7DFFFFB7B88
:105960004FF4867202FB03F3164A9818B7F94E30CB
:10597000164A82FB03129210DB17D31A1BB21C4685
:10598000B7F94E20114B83FB02139910D317C91A94
:105990000B469B000B445B00D31A1BB222461249F4
:1059A0001CF050FAFB7B4FF4867202FB03F3054AAE
:1059B00013441946D7F88C00FDF7B0FF05F0C1BAC3
:1059C00018CF002060150020AC5606086766666692
:1059D000B8560608DC560608FC560608085706089E
:1059E0002C5706084C57060858570608FB7B4FF4FF
:1059F000867202FB03F3BF4A1344BF4A1D46144696
:105A00000FCC28606960AA60EB6007CC28616961EF
:105A1000AA612388A278AB831346AB77FB7B4FF454
:105A2000867202FB03F3B34A13441946D7F88C007D
:105A3000FDF774FF05F085BA0CF0B2FA07F1180310
:105A400018460CF0CDFF0346012B63D1AB4B1B78FE
:105A5000DBB203F01003002B5CD0B7F91A30002B37
:105A600000DA0733DB101BB21A4613469B001344BF
:105A70005B00002B00DA0F331B11A7F84E30FB7BC5
:105A80004FF4867202FB03F39A4A1344B7F91A20C3
:105A900092B29B4918461CF0D5F9FB7B4FF48672F5
:105AA00002FB03F3934A13441946D7F88C00FDF721
:105AB00035FFFB7B4FF4867202FB03F38D4A981887
:105AC000B7F94E308F4A82FB03129210DB17D31ABC
:105AD0001BB21C46B7F94E208A4B83FB0213991068
