:020000040804EE
:100000000000032085C20408E71C0608F51C06084A
:100010005D1D06087D1D06089D1D060800000000E8
:10002000000000000000000000000000B12C0508E6
:10003000BD1D060800000000C12E0508CB1D0608E6
:10004000D91D0608D5C20408D5C20408D5C20408C3
:10005000D5C20408D5C20408D5C20408D5C2040814
:10006000D5C20408D5C20408D5C20408D5C2040804
:10007000D5C20408D5C20408D9200608D5C2040890
:10008000D5C20408D5C20408D5C20408D5C20408E4
:10009000D5C20408D5C20408D5C20408D5C20408D4
:1000A000D5C20408ED200608D5C20408D5C204084C
:1000B000D5C20408D5C20408D5C2040829210608FF
:1000C0003D2106085121060865210608D5C204080D
:1000D000D5C20408351E0608D5C20408D5C20408D6
:1000E000ED1D0608D5C20408D5C20408D5C204080F
:1000F000D5C20408D5C20408D5C20408D5C2040874
:10010000D5C20408211E0608D5C20408D5C20408B9
:10011000BD1E0608D5C20408D5C20408D5C204080D
:10012000D5C20408D5C20408D5C2040801210608B6
:10013000D5C20408D5C20408D5C20408D5C2040833
:10014000D5C20408D5C20408D5C20408D5C2040823
:10015000D5C2040815210608D5C20408491F06089F
:10016000792106088D210608D5C20408D5C20408E5
:10017000D5C20408D5C20408D5C204080000000096
:10018000D5C20408D5C20408D51F0608D5C2040884
:10019000D5C20408D5C20408D5C20408D5C20408D3
:0C01A0000000000000000000D5C20408B0
:1001B00010B5054C237833B9044B13B10448AFF3A1
:1001C00000800123237010BDF8070020000000000C
:1001D00024C2060808B5034B1BB103490348AFF31B
:1001E000008008BD00000000FC07002024C20608B3
:1001F00081F0004102E000BF83F0004330B54FEAD8
:1002000041044FEA430594EA050F08BF90EA020F44
:100210001FBF54EA000C55EA020C7FEA645C7FEAD7
:10022000655C00F0E2804FEA5454D4EB5555B8BFFA
:100230006D420CDD2C4480EA020281EA030382EA6B
:10024000000083EA010180EA020281EA0303362DFD
:1002500088BF30BD11F0004F4FEA01314FF4801CD0
:100260004CEA113102D0404261EB410113F0004FE2
:100270004FEA03334CEA133302D0524263EB430399
:1002800094EA050F00F0A780A4F10104D5F1200E37
:100290000DDB02FA0EFC22FA05F2801841F1000192
:1002A00003FA0EF2801843FA05F359410EE0A5F166
:1002B00020050EF1200E012A03FA0EFC28BF4CF097
:1002C000020C43FA05F3C01851EBE37101F000454D
:1002D00007D54FF0000EDCF1000C7EEB00006EEB5A
:1002E0000101B1F5801F1BD3B1F5001F0CD34908E4
:1002F0005FEA30004FEA3C0C04F101044FEA44523B
:1003000012F5800F80F09A80BCF1004F08BF5FEAC1
:10031000500C50F1000041EB045141EA050130BDA1
:100320005FEA4C0C404141EB010111F4801FA4F144
:100330000104E9D191F0000F04BF01460020B1FA99
:1003400081F308BF2033A3F10B03B3F120020CDAD1
:100350000C3208DD02F1140CC2F10C0201FA0CF0AF
:1003600021FA02F10CE002F11402D8BFC2F1200C14
:1003700001FA02F120FA0CFCDCBF41EA0C019040CA
:10038000E41AA2BF01EB0451294330BD6FEA040413
:100390001F3C1CDA0C340EDC04F11404C4F12002FE
:1003A00020FA04F001FA02F340EA030021FA04F310
:1003B00045EA030130BDC4F10C04C4F1200220FA67
:1003C00002F001FA04F340EA0300294630BD21FAA5
:1003D00004F0294630BD94F0000F83F4801306BF6B
:1003E00081F480110134013D4EE77FEA645C18BF5F
:1003F0007FEA655C29D094EA050F08BF90EA020FF6
:1004000005D054EA000C04BF1946104630BD91EAED
:10041000030F1EBF0021002030BD5FEA545C05D1F0
:100420004000494128BF41F0004130BD14F580042F
:100430003CBF01F5801130BD01F0004545F0FE41A3
:1004400041F470014FF0000030BD7FEA645C1ABFD8
:10045000194610467FEA655C1CBF0B46024650EA0F
:10046000013406BF52EA033591EA030F41F400213B
:1004700030BD00BF90F0000F04BF0021704730B5C1
:100480004FF4806404F132044FF000054FF0000196
:1004900050E700BF90F0000F04BF0021704730B557
:1004A0004FF4806404F1320410F0004548BF40422C
:1004B0004FF000013EE700BF42004FEAE2014FEA81
:1004C00031014FEA02701FBF12F07F4393F07F4F5C
:1004D00081F06051704732F07F4208BF704793F05F
:1004E0007F4F04BF41F40021704730B54FF4607472
:1004F00001F0004521F000411CE700BF50EA010275
:1005000008BF704730B54FF000050AE050EA01021D
:1005100008BF704730B511F0004502D5404261EB8D
:1005200041014FF4806404F132045FEA915C3FF4CE
:10053000D8AE4FF003025FEADC0C18BF03325FEA6B
:10054000DC0C18BF033202EBDC02C2F1200300FA1C
:1005500003FC20FA02F001FA03FE40EA0E0021FA41
:1005600002F11444BDE600BF70B54FF0FF0C4CF42F
:10057000E06C1CEA11541DBF1CEA135594EA0C0FE1
:1005800095EA0C0F00F0DEF82C4481EA030621EA1C
:100590004C5123EA4C5350EA013518BF52EA033557
:1005A00041F4801143F4801338D0A0FB02CE4FF009
:1005B0000005E1FB02E506F00042E0FB03E54FF039
:1005C0000006E1FB03569CF0000F18BF4EF0010E31
:1005D000A4F1FF04B6F5007F64F5407404D25FEA2D
:1005E0004E0E6D4146EB060642EAC62141EA5551E0
:1005F0004FEAC52040EA5E504FEACE2EB4F1FD0C22
:1006000088BFBCF5E06F1ED8BEF1004F08BF5FEA9F
:10061000500E50F1000041EB045170BD06F0004651
:1006200046EA010140EA020081EA0301B4EB5C04FE
:10063000C2BFD4EB0C0541EA045170BD41F48011F6
:100640004FF0000E013C00F3AB8014F1360FDEBF1B
:10065000002001F0004170BDC4F10004203C35DAF7
:100660000C341BDC04F11404C4F1200500FA05F37A
:1006700020FA04F001FA05F240EA020001F000421B
:1006800021F0004110EBD37021FA04F642EB060191
:100690005EEA430E08BF20EAD37070BDC4F10C04BB
:1006A000C4F1200500FA04F320FA05F001FA04F27F
:1006B00040EA020001F0004110EBD37041F100016B
:1006C0005EEA430E08BF20EAD37070BDC4F1200576
:1006D00000FA05F24EEA020E20FA04F301FA05F2DE
:1006E00043EA020321FA04F001F0004121FA04F286
:1006F00020EA020000EBD3705EEA430E08BF20EA56
:10070000D37070BD94F0000F0FD101F0004640008F
:1007100041EB010111F4801F08BF013CF7D041EA11
:10072000060195F0000F18BF704703F00046520015
:1007300043EB030313F4801F08BF013DF7D043EAE6
:100740000603704794EA0C0F0CEA135518BF95EA9C
:100750000C0F0CD050EA410618BF52EA4306D1D123
:1007600081EA030101F000414FF0000070BD50EA42
:10077000410606BF1046194652EA430619D094EACC
:100780000C0F02D150EA013613D195EA0C0F05D1B6
:1007900052EA03361CBF104619460AD181EA03010A
:1007A00001F0004141F0FE4141F470014FF00000C2
:1007B00070BD41F0FE4141F4780170BD70B54FF05D
:1007C000FF0C4CF4E06C1CEA11541DBF1CEA1355DD
:1007D00094EA0C0F95EA0C0F00F0A7F8A4EB0504BF
:1007E00081EA030E52EA03354FEA013100F08880B6
:1007F0004FEA03334FF0805545EA131343EA12637F
:100800004FEA022245EA111545EA10654FEA002633
:100810000EF000419D4208BF964244F1FD0404F5EC
:10082000407402D25B084FEA3202B61A65EB030548
:100830005B084FEA32024FF480104FF4002CB6EB05
:10084000020E75EB030E22BFB61A754640EA0C0085
:100850005B084FEA3202B6EB020E75EB030E22BFC5
:10086000B61A754640EA5C005B084FEA3202B6EB06
:10087000020E75EB030E22BFB61A754640EA9C00C5
:100880005B084FEA3202B6EB020E75EB030E22BF95
:10089000B61A754640EADC0055EA060E18D04FEA53
:1008A000051545EA16754FEA06164FEAC30343EAF3
:1008B00052734FEAC2025FEA1C1CC0D111F4801FC0
:1008C0000BD141EA00014FF000004FF0004CB6E7B9
:1008D00011F4801F04BF01430020B4F1FD0C88BF58
:1008E000BCF5E06F3FF6AFAEB5EB030C04BFB6EB63
:1008F000020C5FEA500C50F1000041EB045170BD56
:100900000EF0004E4EEA113114EB5C04C2BFD4EB82
:100910000C0541EA045170BD41F480114FF0000E06
:10092000013C90E645EA060E8DE60CEA135594EA82
:100930000C0F08BF95EA0C0F3FF43BAF94EA0C0F85
:100940000AD150EA01347FF434AF95EA0C0F7FF4FA
:1009500025AF104619462CE795EA0C0F06D152EA4E
:1009600003353FF4FDAE1046194622E750EA410632
:1009700018BF52EA43067FF4C5AE50EA41047FF443
:100980000DAF52EA43057FF4EBAE12E74FF0FF3CA8
:1009900006E000BF4FF0010C02E000BF4FF0010C79
:1009A0004DF804CD4FEA410C7FEA6C5C4FEA430CF2
:1009B00018BF7FEA6C5C1BD001B050EA410C0CBF41
:1009C00052EA430C91EA030F02BF90EA020F0020A3
:1009D000704710F1000F91EA030F58BF994208BF0A
:1009E00090422CBFD8176FEAE37040F001007047C7
:1009F0004FEA410C7FEA6C5C02D150EA013C07D11E
:100A00004FEA430C7FEA6C5CD6D152EA033CD3D068
:100A10005DF8040B704700BF8446104662468C4662
:100A20001946634600E000BF01B5FFF7B7FF002895
:100A300048BF10F1000F01BD4DF808EDFFF7F4FFBE
:100A40000CBF012000205DF808FB00BF4DF808ED49
:100A5000FFF7EAFF34BF012000205DF808FB00BF6C
:100A60004DF808EDFFF7E0FF94BF012000205DF88E
:100A700008FB00BF4DF808EDFFF7CEFF94BF012043
:100A800000205DF808FB00BF4DF808EDFFF7C4FF3C
:100A900034BF012000205DF808FB00BF4FEA410C85
:100AA0007FEA6C5C02D150EA013C0AD14FEA430C68
:100AB0007FEA6C5C02D152EA033C02D14FF00000A5
:100AC00070474FF0010070474FEA410212F50012E3
:100AD00015D211D56FF47873B3EB625212D94FEA85
:100AE000C12343F0004343EA505311F0004F23FA6F
:100AF00002F018BF404270474FF00000704750EAC4
:100B0000013005D111F0004008BF6FF00040704780
:100B10004FF00000704700BF034613F8012B002A76
:100B2000FBD1181A013870470000000000000000D7
:100B300001F0FF01102A2BDB10F0070F08D010F88E
:100B4000013B013A8B422DD010F0070F42B3F6D192
:100B5000F0B441EA012141EA014122F007047FF0AB
:100B600000070023F0E80256083C85EA010586EA02
:100B7000010685FA47F5A3FA87F586FA47F6A5FA3E
:100B800087F68EB9EED1F0BC01F0FF0102F007024A
:100B900032B110F8013B013A83EA010313B1F8D1F5
:100BA0000020704701387047002D06BF35460338D6
:100BB000073815F0010F07D1013015F4807F02BF0F
:100BC000013015F4C03F0130F0BC0138704700BF60
:100BD00010F8012B11F8013B012A28BF9A42F7D0E7
:100BE000D01A70477BB972B90029BEBF00204FF000
:100BF000004106E008BF00281CBF6FF000414FF025
:100C0000FF3000F0A5B9ADF1080C6DE904CE002964
:100C100009DB002B1ADB00F035F8DDF804E0DDE934
:100C2000022304B07047404261EB4101002B1BDB03
:100C300000F028F8DDF804E0DDE9022304B04042CA
:100C400061EB4101524263EB43037047524263EB55
:100C5000430300F017F8DDF804E0DDE9022304B0F7
:100C6000404261EB41017047524263EB430300F0A5
:100C700009F8DDF804E0DDE9022304B0524263EB39
:100C8000430370472DE9F047089E04468846002B31
:100C90004BD18A42154667D9B2FA82F24AB1C2F103
:100CA000200701FA02F320FA07F7954047EA030804
:100CB00094404FEA154E230CB8FBFEF71FFA85FC53
:100CC0000EFB178843EA084307FB0CF1994209D948
:100CD000EB1807F1FF3080F01B81994240F2188138
:100CE000023F2B445B1AA4B2B3FBFEF00EFB1033A1
:100CF00044EA034400FB0CFCA44509D92C1900F17B
:100D0000FF3380F00781A44540F2048102382C446F
:100D100040EA0740A4EB0C0400271EB1D440002396
:100D2000C6E900433946BDE8F0878B4209D9002E59
:100D300000F0EB800027C6E9000138463946BDE8DF
:100D4000F087B3FA83F7002F47D18B4202D3824258
:100D500000F2FA80841A61EB030301209846002E0A
:100D6000E0D0C6E90048DDE702B9FFDEB2FA82F260
:100D7000002A40F08F80491B4FEA154E1FFA85F874
:100D80000127B1FBFEFC230C0EFB1C1143EA0143BF
:100D900008FB0CF1994207D9EB180CF1FF3002D295
:100DA000994200F2CD808446591AA3B2B1FBFEF0FD
:100DB0000EFB101443EA044408FB00F8A04507D9D1
:100DC0002C1900F1FF3302D2A04500F2B68018467C
:100DD000A4EB080440EA0C409FE7C7F1200CBB409D
:100DE00022FA0CFE4EEA030E01FA07F420FA0CF583
:100DF00021FA0CF34FEA1E482543B3FBF8F92C0CFB
:100E000008FB19331FFA8EFA44EA034309FB0AF47C
:100E10009C4202FA07F200FA07F10BD91EEB03031A
:100E200009F1FF3080F087809C4240F28480A9F174
:100E3000020973441B1BADB2B3FBF8F008FB10337F
:100E400045EA034400FB0AFAA24508D91EEB040454
:100E500000F1FF336BD2A24569D90238744440EAED
:100E60000940A0FB0289A4EB0A044C45C2464B464C
:100E700054D351D0002E69D0B1EB0A0564EB0304C2
:100E800004FA0CFCFD40FC404CEA0505C6E90054A0
:100E9000002747E7C2F1200320FA03F7954001FA43
:100EA00002F021FA03F34FEA154E3843010CB3FB6D
:100EB000FEF71FFA85F80EFB173341EA034107FBE3
:100EC00008F38B4204FA02F407D9691807F1FF3CD2
:100ED0002FD28B422DD9023F2944CB1A81B2B3FBCA
:100EE000FEF00EFB103341EA034100FB08F38B4296
:100EF00007D9691800F1FF3C17D28B4215D9023887
:100F00002944C91A40EA07473BE73746304609E714
:100F10000746E7E61846FBE64145ABD2B8EB020AC6
:100F200069EB0E0201381346A4E76046E9E718466C
:100F300095E76746D1E781467CE702382C4447E7CE
:100F4000ACF1020C2B442FE7384608E73746E9E6B8
:100F5000704700BF80B582B000AF786038200CF0D9
:100F600032F90346002B0ED19C4B1B680D22012148
:100F70009B480CF031FB9B4B1B680D2201219848CC
:100F80000CF02AFB0DE0954B1B680C2201219648C2
:100F90000CF022FB934B1B680C22012192480CF0B1
:100FA0001BFB3C200CF00FF90346002B0ED18B4BA2
:100FB0001B680D2201218D480CF00EFB894B1B682C
:100FC0000D22012189480CF007FB0DE0834B1B68C3
:100FD0000C22012186480CF0FFFA824B1B680C2280
:100FE000012183480CF0F8FA30200BF074F9034625
:100FF000012B0ED1794B1B680D2201217D480CF08D
:10100000EBFA784B1B680D2201217A480CF0E4FAC8
:1010100002E079480AF0ACFC32200BF05CF90346A0
:10102000012B0ED16D4B1B680D22012173480CF072
:10103000D3FA6C4B1B680D22012170480CF0CCFADE
:1010400002E06D480AF094FC10F0BAFF0122002182
:10105000032011F06BF80346012B0DD15F4B1B6889
:101060000122674918460CF057F95E4B1B680122B4
:10107000634918460CF050F901220021042011F0B8
:1010800055F80346012B0DD1544B1B6802225C49D5
:1010900018460CF041F9534B1B6802225849184678
:1010A0000CF03AF901220021052011F03FF8034627
:1010B000012B0DD1494B1B680322514918460CF0F6
:1010C0002BF9484B1B6803224D4918460CF024F9B4
:1010D000032011F0FDF90346012B0ED13F4B1B6895
:1010E0000122484918460CF017F93E4B1B680122B3
:1010F000444918460CF010F90DE0384B1B680122EA
:10110000414918460CF008F9364B1B6801223E494C
:1011100018460CF001F9042011F0DAF90346012B0E
:101120000ED12E4B1B680222364918460CF0F4F8FB
:101130002C4B1B680222334918460CF0EDF80DE0E9
:10114000264B1B680222304918460CF0E5F8254B67
:101150001B6802222C4918460CF0DEF8052011F01D
:10116000B7F90346012B0ED11C4B1B6803222549FE
:1011700018460CF0D1F81B4B1B6803222149184676
:101180000CF0CAF80DE0154B1B6803221E491846E7
:101190000CF0C2F8134B1B6803221B4918460CF0D5
:1011A000BBF8012022F0BEF801F06AFC012022F019
:1011B0009DF8164B5B69154A43F0100353613220CA
:1011C0000BF064FE114B5B69104A23F0100353616E
:1011D0004FF47A700BF05AFEE8E700BF14000020CD
:1011E00040C206080C00002050C2060860C2060873
:1011F00070C2060880C20608E0E6002090C2060819
:10120000A0C20608B4C20608C4C20608000802400C
:1012100080B500AF0121022000F0E0FD0346002B65
:1012200004D0044801F06CFA012300E000231846C2
:1012300080BD00BFD8C2060880B582B000AF0346AB
:10124000FB71FB79012B09D1194B1B68122201217B
:1012500018480CF0C1F900F035F824E0FB79022BB6
:1012600009D1134B1B680D22012113480CF0B4F96E
:1012700000F028F817E0FB79032B09D10C4B1B6811
:101280000E2201210D480CF0A7F900F01BF80AE02E
:10129000FB79002B07D1064B1B684322012108482C
:1012A0000CF09AF900BF00BF0837BD4680BD00BFF3
:1012B0001400002004C3060818C3060828C3060843
:1012C00038C3060880B582B000AF084817F0ECFFBD
:1012D000064817F009FF0346FB71FB791846FFF734
:1012E000ABFF00BF0837BD4680BD00BF28E500202A
:1012F00080B582B000AF0346FB80FB88002B04D191
:101300000121032000F06AFD09E0FB881946012055
:1013100000F064FD0021032000F060FD00BF0837ED
:10132000BD4680BD80B5ADF50C7D00AF07F50573FA
:1013300000221A605A609A60DA601A619A8207F590
:10134000887318464FF482731A46002126F08AFEED
:1013500007F10C0318464FF482731A46002126F059
:1013600081FE01221021784817F08CFE0121022015
:1013700000F010FF00F042F909E0744B1B683022C6
:10138000012173480CF028F9012021F0AFFF00F093
:101390004EF90346002BF0D10121002000F01EFD84
:1013A000012021F0A3FF0021102000F017FD0423ED
:1013B00087F82D323B464FF47A621A803B4640F65E
:1013C000B8325A803B464FF4FA629A803B4600227C
:1013D000DA80002387F82F3297F82F2297F82D32E2
:1013E0009A4202D9002387F82F3297F82F223B46E2
:1013F00033F812301846FFF77BFF00F0D5FB0346A9
:1014000087F82C3297F82C32012B06D14F4B1B68F2
:10141000262201214F480CF0DFF897F82C32022BDE
:1014200006D14A4B1B68252201214B480CF0D4F809
:1014300007F50573184600F0C9F907F10A0207F528
:1014400005731146184600F009F9012021F04EFFFE
:101450000121022000F0C2FC012021F047FF0023FF
:1014600087F82E3234E0394B1B68142201213B48A7
:101470000CF0B2F80121012000F08CFE07F5057395
:10148000184600F0A3F907F10A0207F505731146A3
:10149000184600F0E3F897F82E22314BA3FB021315
:1014A00019090B469B000B449B00D31ADBB2002B9F
:1014B00009D1264B1B68192201212A480CF08CF80F
:1014C000012021F013FF97F82E32013387F82E32D6
:1014D00097F82E325A2B0CD807F10A0207F505733C
:1014E0001146184600F0BAF8034603F00203002B39
:1014F000B9D097F82E321E2B08D9144B1B6827221F
:10150000012119480CF068F8FFF70CFF0F4B1B681E
:101510001122012115480CF05FF8012021F0E6FEB0
:10152000012021F0E3FE094B1B682822012110480D
:101530000CF052F8012021F0D9FE97F82F32013338
:1015400087F82F3248E700BF000002401400002057
:101550007CC30608B0C30608D8C3060800C4060842
:10156000CDCCCCCC18C4060834C406085CC406082C
:1015700070C4060880B500AF0E4B1B681322012112
:101580000D480CF029F80121062001F00BF801218B
:10159000052000F0FFFD0121052001F003F80121E5
:1015A000052000F0F7FD0121012000F06DFE00BFD5
:1015B00080BD00BF14000020B4C4060880B500AF91
:1015C0000C4B1B68122201210B480CF005F800217E
:1015D000052000F0E7FF0121052000F0DBFD0021E0
:1015E000062000F0DFFF0121012000F04DFE00BFCA
:1015F00080BD00BF14000020C8C4060880B500AF3D
:10160000012021F073FEFFF7B5FF0121052000F056
:10161000C1FD012021F06AFEFFF7D0FF01211E204D
:1016200000F0B8FD012021F061FE00BF80BD80B553
:1016300000AF00F0AFFA0346002B01D001230BE00E
:101640000121052000F0A6FD00F0A4FA0346002BBE
:1016500001D0022300E00023184680BD80B58CB085
:1016600000AF786039607B689B7887F82F307B68A3
:1016700003331B781B021AB27B6804331B781BB23E
:1016800013431BB2BB857B6805331B781B021AB260
:101690007B6806331B781BB213431BB27B857B68C8
:1016A00007331B781A067B6808331B781B041A4320
:1016B0007B6809331B781B0213437A680A3212785D
:1016C00013437B6297F82F30002B07D0364B1B68F3
:1016D0001522012135480BF07FFF06E0324B1B68D5
:1016E0001522012132480BF077FFBB8D03F0010377
:1016F000002B06D02C4B1B68072201212D480BF034
:101700006BFFBB8D03F00203002B06D0264B1B683A
:101710000B22012128480BF05FFFBB8D03F008036B
:10172000002B06D0204B1B680C22012123480BF014
:1017300053FFBB8D03F01003002B19D01A4B1B680D
:10174000082201211E480BF047FF07F10C0300227D
:101750001A605A609A60DA601A619A8207F10C0383
:10176000184600F09DF807F10C03184600F01CF92C
:10177000BB8D03F02003002B06D00B4B1B680A2205
:10178000012110480BF028FF3B687A8D1A80064B28
:1017900018687A8D7B6A0C490BF0BEFDBB8D18462C
:1017A0003037BD4680BD00BF14000020DCC40608F1
:1017B000F4C406080CC5060814C5060820C50608AA
:1017C00030C506083CC5060848C5060880B584B083
:1017D00000AF78600023BB600023FB7307E0FB7B56
:1017E0007A68134400221A70FB7B0133FB73FB7B86
:1017F000152BF4D991233B7201237B7207F1080367
:101800000421184600F054FB214B1B681B220121C8
:1018100020480BF0E1FE07F108030421184600F010
:10182000F5FB0346002B01D001232DE003200BF034
:101830002DFB01221621786800F020FC0346002BC6
:1018400001D0022320E0124B1B680A22012112481A
:101850000BF0C2FE0023FB730CE00D4B1868FB7B02
:101860007A6813441B781A460C490BF055FDFB7B34
:101870000133FB73FB7B152BEFD9054B1B68194616
:101880000D200BF0BBFE002318461037BD4680BD6F
:10189000140000206CC5060888C5060894C5060813
:1018A00080B584B000AF786007F1080300221A60A9
:1018B0001A7194233B7201237B721523BB7207F1CB
:1018C00008030521184600F0F3FA0023FB7307E034
:1018D000FB7B7A68134400221A70FB7B0133FB7395
:1018E000FB7B152BF4D9294B1B681A2201212848B0
:1018F0000BF072FE07F108030521184600F086FB85
:101900000346002B08D0214B1B68142201212148DB
:101910000BF062FE012335E003200BF0B7FA012241
:101920001621786800F0AAFB0346002B08D0174B5D
:101930001B681322012118480BF04EFE022321E000
:10194000124B1B680A22012114480BF045FE0023AC
:10195000FB730CE00D4B1868FB7B7A6813441B7813
:101960001A460F490BF0D8FCFB7B0133FB73FB7B62
:10197000152BEFD9054B1B680222012109480BF0FA
:101980002BFE002318461037BD4680BD14000020F2
:101990009CC50608B8C50608D0C5060888C506084F
:1019A00094C50608E4C5060880B584B000AF786029
:1019B0007B6802331B781B021AB27B6803331B78E7
:1019C0001BB213431BB2FB81294B1B681022012160
:1019D00028480BF001FEFB8903F00103002B06D021
:1019E000234B1B681622012123480BF0F5FDFB89D0
:1019F00003F00203002B06D01D4B1B6818220121A7
:101A00001E480BF0E9FDFB8903F00303002B06D011
:101A1000174B1B680F22012119480BF0DDFDFB89D4
:101A200003F00503002B06D0114B1B681422012183
:101A300014480BF0D1FDFB8903F00603002B06D000
:101A40000B4B1B68132201210F480BF0C5FDFB89CE
:101A500003F00703002B06D0054B1B682022012151
:101A60000A480BF0B9FDFB8918461037BD4680BD0A
:101A700014000020E8C50608FCC5060814C60608C0
:101A800030C6060840C6060858C606086CC60608D2
:101A900080B584B000AF786007F1080300221A60B7
:101AA0001A7197233B7201237B720023BB7207F1EB
:101AB00008030521184600F0FBF9304B1B681E2275
:101AC00001212F480BF088FD07F108030521184676
:101AD00000F09CFA0346002B01D001234AE00320CA
:101AE0000BF0D4F900221021264817F0CBFA40F66B
:101AF000B8334FF48272796823481DF0F3FD034632
:101B0000FB73012210211F4817F0BCFAFB7B002B4E
:101B10000CD01A4B1B68242201211C480BF05CFDE1
:101B2000FB7B1846FFF788FB022323E007F108033D
:101B300001220021184600F0A1FA0346002B01D033
:101B4000032317E04FF48271786800F0D4F903465C
:101B500083F00103DBB2002B06D0084B1B68242264
:101B600001210B480BF038FD4FF48271786800F0CA
:101B70006FFB002318461037BD4680BD14000020BF
:101B800090C60608000002409CEA0020B0C6060885
:101B9000D8C6060880B500AF0021012000F044F847
:101BA0000346184680BD000080B500AF184B1B8867
:101BB0001946002000F012F9164B1B881946122016
:101BC00000F00CF9134B1B881946122000F006F99F
:101BD000114B1B8819460B2000F000F90F4B1B8896
:101BE0001946132000F0FAF80D4B1B881946072000
:101BF00000F0F4F80B4B1B881946082000F0EEF8B3
:101C00000121002000F010F80346184680BD00BFF7
:101C10000000002002000020180800201608002004
:101C20001A0800201C080020B0B596B004AF034687
:101C30000A46FB711346BB7107F1280300221A60A4
:101C40005A609A60DA601A615A611A7607F12003C5
:101C500000221A601A71FB79002B0AD0554B1B68C1
:101C60001622012154480BF0B7FC902387F8283046
:101C700009E0504B1B681622012150480BF0ACFCC8
:101C8000922387F82830012387F82930BB79002B6D
:101C90000AD0484B1B681C22012149480BF09CFCD0
:101CA000012387F82A3009E0424B1B681C220121DE
:101CB00044480BF091FC002387F82A30424B1A6805
:101CC00007F10C03194641481BF097FE3E4B1A687A
:101CD00007F1080319463D481BF0A2FF354B186871
:101CE0007B7A1C46BB7A1D463B7B7A7BB97B029193
:101CF000019200932B46224635490BF00DFBBB7B2E
:101D000019467B7B1A4613461B019B1A9B00CA1877
:101D10003B7B19464FF4616303FB01F31A44BB7A22
:101D200019462C4B03FB01F31A447B7A19462A4BC4
:101D300003FB01F313447B647B6C1B0EDBB287F85F
:101D40002D307B6C1B0CDBB287F82E307B6C1B0AB2
:101D5000DBB287F82F307B6CDBB287F8303007F1CD
:101D600028031921184600F0A3F807F128031921C8
:101D7000184600F04BF90346002B01D0012315E073
:101D800003200BF083F807F12003002205211846F9
:101D900000F074F90346002B01D0022306E007F19E
:101DA00020030521184600F053FA0023184648374F
:101DB000BD46B0BD1400002028C7060840C706086D
:101DC00058C7060878C706082408002004E9002040
:101DD00098C7060880510100008D270080B586B0A5
:101DE00000AF03460A46FB711346BB8007F11003A0
:101DF00000221A60C3F8032007F1080300221A60CA
:101E00001A7193233B7401237B74FB79BB74BB88E9
:101E10001B0A9BB2DBB2FB74BB88DBB23B7507F1DC
:101E200010030721184600F043F81D4B1868FA7993
:101E3000BB881C490BF070FA07F110030721184604
:101E400000F0E4F80346002B08D0154B1B681C2259
:101E5000012115480BF0C0FB01231CE003200BF00F
:101E600015F807F1080300220521184600F006F9CD
:101E70000346002B08D00A4B1B681D2201210B488A
:101E80000BF0AAFB022306E007F108030521184620
:101E900000F0DEF9002318461837BD4680BD00BFAC
:101EA00014000020C8C70608E8C7060808C80608C6
:101EB00080B584B000AF786039603B68023B1A4659
:101EC00079684FF6FF7000F043F80346FB81FB8909
:101ED0001B0A99B23B68023B7A681344CAB21A7073
:101EE0003B68013B7A681344FA89D2B21A7000BF8A
:101EF0001037BD4680BD80B584B000AF78603960D2
:101F00003B68023B1A4679684FF6FF7000F020F8F4
:101F10000346FB81FB891B0A9BB27B73FB893B73E6
:101F20003B68023B7A6813441B787A7B9A4209D15A
:101F30003B68013B7A6813441B783A7B9A4201D193
:101F4000012300E0002318461037BD4680BD000085
:101F500080B5ADF5087D00AF07F1080319603B1DA2
:101F60001A6007F10E0302461A8007F11003264A91
:101F7000184611464FF400731A4626F068F84FF6DB
:101F8000FF73A7F81E320023A7F81C322EE0B7F823
:101F90001C3207F10802126813441B78A7F81A32A2
:101FA000B7F81E321B0AA7F81832B7F81822B7F88C
:101FB0001A325340A7F81632B7F81632DBB2A7F838
:101FC0001432B7F81E321B02A7F81232B7F81422E7
:101FD00007F1100333F81220B7F812325340A7F874
:101FE0001E32B7F81C320133A7F81C32B7F81C3286
:101FF0003A1D12689A42CADCB7F81E32184607F535
:102000000877BD4680BD00BF28C8060880B586B0E9
:1020100002AF786039600123FB733B689AB2642396
:10202000009313467A68CC21104817F06DF90346E7
:10203000FB73FB7B002B13D00D4B1B682622012169
:102040000C480BF0C9FA0A4B1B681A2201210A48F6
:102050000BF0C2FAFB7B1846FFF7EEF8FB7B00E0C3
:10206000002318461037BD4680BD00BF28E500207C
:102070001400002028CA060850CA060880B588B097
:1020800002AFF860B9601346FB713C4B1B680F222E
:1020900001213B480BF0A0FA0123FB7507F1100367
:1020A00000221A601A71BB68002B36D0BB689AB246
:1020B000642300931346FA68CC21324817F032FAB1
:1020C0000346FB75FB7D002B0CD02C4B1B68252297
:1020D00001212D480BF080FAFB7D1846FFF7ACF884
:1020E000FB7D46E0BB68B3F5827F05D1FB6891229A
:1020F0001A70FB6895221A70B968F868FFF7FBFE42
:10210000034683F00103DBB2002B06D01B4B1B6898
:10211000242201211D480BF05FFAFB79002B27D008
:10212000FB681B783B7401237B747E23BB7407F12F
:10213000100305211846FFF7BBFE07F110026423C8
:1021400000930523CC210F4817F0DEF80346FB75FA
:10215000FB7D002B0CD0094B1B681C2201210C4875
:102160000BF03AFAFB7D1846FFF766F8022300E011
:10217000002318461837BD4680BD00BF140000205C
:102180006CCA060828E500207CCA0608D8C60608DE
:10219000A4CA060880B584B000AF03460A46FB8097
:1021A00013467B717B79002B06D0244B1B68FA8881
:1021B000234918460BF0B0F8012021F097F80023CE
:1021C000FB8124E064200AF061FE012021F08EF8FA
:1021D0007B79002B18D0FA891A4BA3FB0213D9087C
:1021E0000B469B000B445B00D31A9BB2002B0BD118
:1021F000124B1868FB89134AA2FB0323DB089BB22E
:102200001A4611490BF088F8FB890133FB81F989E3
:10221000FA8813469B0013445B009942D2DB7B791A
:10222000002B06D0054B1B680222012107480BF04A
:10223000D3F900BF1037BD4680BD00BF1400002099
:10224000C4CA0608CDCCCCCCDCCA0608E4CA060851
:1022500080B582B000AF786039603B68052B0BD148
:102260007B6802331B787E2B06D1054B1B680F223F
:10227000012104480BF0B0F900BF0837BD4680BD0E
:1022800014000020E8CA0608F0B5ADF5497D06AF98
:1022900007F10C03186007F1080319607F4BC7F8BA
:1022A00004337F4BC7F8003307F114037D4A07CA94
:1022B00083E8070007F53E731946012000F00EF988
:1022C00007F53D731946022000F008F907F53C7345
:1022D00019460B2000F002F907F53B731946102050
:1022E00000F0FCF807F53A731946112000F0F6F8F3
:1022F0006D4B1B681A466D496D481BF07EFB6A4B9F
:102300001B681A466B496A481BF08AFC694BDB78EC
:102310001D46684B5B781E46664B9B781A46634B9E
:102320001B781946614B5B781C46604B9B7807F520
:102330001A70039302940191009233462A465E4933
:1023400026F040FED7F8F8327B60D7F8F83207EE77
:10235000903AB8EEE77AD7EDC17A67EE277A17EEB2
:10236000900AFEF7A9F804460D46D7F8F462D7F8AC
:10237000F43207EE903AB8EEE77AD7EDC07A67EE1E
:10238000277A17EE900AFEF797F802460B4607F5F4
:102390001A7107F52170CDE904230296CDE90045B5
:1023A0007B680A46454926F00DFE07F10C031B68C1
:1023B000012B5FD107F1140107F1380313221846EE
:1023C0000DF08CFA034687F8FF3297F8FF32002BA6
:1023D00041D13B4B1B68292201213A480BF0FCF804
:1023E00007F1200207F11403114618460EF05AFBBC
:1023F000034687F8FF3297F8FF32002B25D1304B88
:102400001B683022012130480BF0E6F807F1200369
:102410001A6807F13803114618460DF0EEFF03461F
:1024200087F8FF3297F8FF32002B0ED1244B1B6840
:102430003122012125480BF0CFF807F5217207F171
:102440003803114618460AF067FF07F138031846AB
:102450000DF0A4FF0EE01A4B1B682F2201211C482F
:102460000BF0BAF8164B1B6897F8FF22194918466B
:102470000AF052FF07F108031B68012B08D1104B2B
:102480001868D7F8EC22D7F8E83213490AF044FF6D
:1024900000BF07F54377BD46F0BD00BFDD24164001
:1024A0003333434058CC060824080020C0E60020FF
:1024B00004E9002000E90020F8CA060818CB060845
:1024C0001400002054CB060880CB0608B4CB0608C5
:1024D000E8CB060818CC060834CC060880B588B0CE
:1024E00004AF03463960FB800023BB733B68294A75
:1024F0001A6009F0B3F9BB7B002B17D0FB7B012BD3
:102500000BD0FB7B032B08D0FB7B022B08D1224B8B
:1025100093F83D30DBB2202B02D11F4809F028FA96
:1025200005200AF0B3FCBB7B092B15D8FA880A23D7
:1025300002930223019307F1080300930123302142
:10254000154817F029FB0346FB73BB7B0133BB73B4
:10255000FB7B002BCFD100E000BF0F4816F0A4FE9C
:10256000FB7B002B0BD13B7A9BB21B029AB27B7A8E
:102570009BB21344BB81BA893B681A6006E0074BE3
:102580001B681322012106480BF026F800BF103704
:10259000BD4680BDF1D8FFFF6CE60020140000208E
:1025A00064CC060880B588B002AF03460A46FB80BB
:1025B00013467B710023BB7507F10C033B6109F0E7
:1025C0004DF9BB7D002B17D0FB7D012B0BD0FB7D84
:1025D000032B08D0FB7D022B08D11B4B93F83D3019
:1025E000DBB2202B02D1184809F0C2F905200AF00D
:1025F0004DFCBB7D092B15D8FB88DBB23B737B7987
:102600007B730A23009302233A6930210E4816F0A7
:102610007BFE0346FB75BB7D0133BB75FB7D002B49
:10262000CFD100E000BF084816F03EFEFB7D002B36
:1026300006D0064B1B681422012105480AF0CCFF86
:1026400000BF1837BD4680BD6CE600201400002096
:1026500078CC060880B500AF012020F047FE0120AD
:1026600020F044FE012020F041FE0F4B0F4A10687D
:1026700018609188927999809A710B4800F020F83F
:102680000346002B04D00A4800F03AF8032309E07F
:10269000084800F035F8084800F032F8074B0122EE
:1026A0001A700023184680BD8CDD002090CC0608EF
:1026B00098CC0608B0CC0608CCCC06081E08002032
:1026C00080B582B000AF7860786800F003FB034605
:1026D000002B04D0074800F013F8012306E0064859
:1026E00000F00EF8054B01221A7000231846083737
:1026F000BD4680BD98CC0608B0CC06081E08002058
:1027000080B582B000AF7860084B1B78002B02D0F8
:10271000786800F00FF8064B1B68796818460AF0D5
:10272000FBFD002318460837BD4680BD1E0800206B
:102730001400002080B59CB000AF786007F10C0356
:10274000184600F053F807F10C031846FEF7E4F9B9
:1027500003461A4607F10C0313441E4A1188927867
:1027600019809A7007F10C037968184626F076FCF8
:1027700007F10C031846FEF7CFF903461A4607F196
:102780000C031344144A1188927819809A7007F147
:102790000C031846FEF7C0F903469AB207F10C0382
:1027A00019460E4800F012FB0346002B06D00C4BD6
:1027B0001B681B2201210B480AF00EFF084B1B6807
:1027C0001F22012108480AF007FF00BF7037BD46ED
:1027D00080BD00BFF0CC0608F4CC06088CDD0020DC
:1027E00014000020F8CC060814CD060890B595B06A
:1027F00000AF786007F13C030022194626481BF021
:10280000FCF807F138030022194623481BF008FAA8
:1028100097F83B3064333B6297F83930013BFB61FA
:1028200097F83A30BB6197F83C307B6197F83D30C0
:102830003B6197F83E30FB604FF0FF33FB6207F1DE
:102840000C03184625F0F0FC03460C46C7E90C348F
:10285000124B1C6807F13003184625F0DBFA0346DB
:102860001A460F4920460AF057FD0C4B1B680422FC
:102870000C4918460AF050FD07F13003184625F0C0
:10288000C9FA0346084A0421786827F063F900BFB3
:102890005437BD4690BD00BF04E90020140000205D
:1028A000C8CD0608DCCD0608F4CD060880B582B098
:1028B00000AF012020F01AFD012210212B4816F054
:1028C000E1FB01210220FFF765FCFEF797FE0323E1
:1028D000BB710023FB7119E0254B1B681A220121F3
:1028E00024480AF079FE224B1B682022012122484D
:1028F0000AF072FE1F48FFF71DFF2048FFF71AFF7E
:10290000012020F0F3FCFB790133FB71FEF78FFE11
:102910000346002B03D0FA79BB799A42DCD3FA79CB
:10292000BB799A420BD1124B1B681A220121114824
:102930000AF052FE0F48FFF7FDFE012311E00121CE
:102940000020FFF74BFA0E48FFF7F4FE012020F0BD
:10295000CDFC00211020FFF741FA0A48FFF7EAFEFC
:10296000002318460837BD4680BD00BF0000024066
:102970001400002008CE060824CE060848CE06081B
:102980006CCE060884CE060880B5D0B000AF3B1DE3
:10299000186007F1380318464FF482731A46002175
:1029A00025F060FB07F1200300221A605A609A604C
:1029B000DA601A619A8207F120031846FEF706FFD3
:1029C00007F11E0207F1200311461846FEF746FEE6
:1029D0000023A7F83E31274B1B881A4607F1140342
:1029E0002549184626F0EEFA224B1B881A4607F1B5
:1029F00008032249184626F0E5FA07F114031846A1
:102A000000F068F907F10803184600F063F925E0C3
:102A100007F138031846FFF73BF807F1380107F1D3
:102A200014034FF48272184600F044FA07F12003B1
:102A30001846FEF7CBFE07F11E0207F120031146F0
:102A40001846FEF70BFE07F1200107F108031622D6
:102A5000184600F0BBF9012020F048FC07F11E03E6
:102A60001B88002BD4D100BF184607F5A077BD46C0
:102A700080BD00BF2008002040D006084CD00608CA
:102A800080B5ADF51A7D00AF07F5137300221A600B
:102A90005A609A60DA601A619A8207F5A473184640
:102AA0004FF482731A46002125F0DCFA07F1440343
:102AB00018464FF482731A46002125F0D3FA0423F6
:102AC00087F8653207F1380300221A8007F13803CE
:102AD00001225A8007F138031E229A8007F1380339
:102AE0004FF47A62DA80002387F86732FFF7B2FD8D
:102AF0000346002B02D06948FFF702FEFFF7D6FE1F
:102B00000346002B0AD06648FFF7FAFD6548FFF739
:102B1000F7FD012020F0EAFBFFF7B2FF97F86722EC
:102B200097F865329A4202D9002387F8673297F8FE
:102B3000672207F1380333F812301846FEF7D8FB46
:102B4000594B186897F8672207F1380333F81230A9
:102B50001A4656490AF0E0FBFFF726F80346002B19
:102B600005D05348FFF7CCFD012020F0BFFB07F54F
:102B700013731846FEF72AFE07F1420207F5137396
:102B800011461846FEF76AFD4A48FFF7B9FD0120D5
:102B900020F0ACFBFEF73CFB012020F0A7FB00235C
:102BA00087F866325A2387F864322CE04248FFF7F0
:102BB000A7FD01210120FFF7EDFA07F51373184671
:102BC000FEF704FE07F1420207F51373114618469B
:102BD000FEF744FD97F86622384BA3FB0213190950
:102BE0000B469B000B449B00D31ADBB2002B05D194
:102BF0003348FFF785FD012020F078FB97F8663217
:102C0000013387F8663297F8662297F864329A4261
:102C10000CD807F1420207F5137311461846FEF768
:102C20001DFD034603F00203002BBFD097F8662278
:102C300097F864329A4207D92248FFF761FD0120D4
:102C400020F054FBFEF76EFB1F48FFF759FD97F885
:102C5000672207F1380333F812301A463B1D1B492F
:102C6000184626F0AFF93B1D1846FFF749FD07F15E
:102C700044031846FFF788FE154B1B8801339AB2B0
:102C8000134B1A80012020F031FB012020F02EFB95
:102C900097F86732013387F867323FE758D0060864
:102CA00008CE06086CD00608140000208CD0060858
:102CB000A8D00608C4D00608E0D00608CDCCCCCCFD
:102CC000F8D0060810D1060838D1060854D10608F5
:102CD0002008002080B584B000AF78600022314920
:102CE00031480CF097FD0346002B09D02F4B1B6891
:102CF000182201212E480AF06FFC0323BB7347E022
:102D0000122279682B480CF0E9FD0346FB73FB7B2C
:102D1000052B09D1786800F059F90A22796825480D
:102D20000CF0DCFD0346FB73FB7B002B24D01F4B18
:102D30001B68796818460AF0EFFA1C4B1B681F22C3
:102D400001211D480AF048FC184B1B68FA7B1B49FF
:102D500018460AF0E1FA154B1B68022201211848B7
:102D60000AF03AFC114B1B681222012115480AF0A7
:102D700033FC0223BB730BE00E480DF00FFB0B4B33
:102D80001B682222012110480AF026FC0023BB7395
:102D90000022002104480CF03DFDBB7B1846103793
:102DA000BD4680BD04EB002038ED0020140000205B
:102DB0006CD1060808EB002088D10608A8D10608C7
:102DC000B0D10608B4D10608C8D1060880B586B0CF
:102DD00000AFF860B9601346FB8000222D492E48F1
:102DE0000CF018FD0346002B0BD02C4B1B6818224F
:102DF00001212B480AF0F0FB00F016FA0323FB75C3
:102E00003DE03222F96827480CF068FD0346002BAC
:102E10000BD000F009FA214B1B681F220121224828
:102E20000AF0DAFB0223FB7529E0FA8807F11003A8
:102E3000B9681C480DF085F80346BB753B69002B4B
:102E400002D0BB7D002B0ED000F0EEF9134B1B68B7
:102E50001722012115480AF0BFFB12480DF09EFA17
:102E60000123FB750BE00F480DF098FA0B4B1B6824
:102E7000212201210E480AF0AFFB0023FB7500223E
:102E8000002105480CF0C6FCFB7D18461837BD46EE
:102E900080BD00BF04EB002038ED002014000020AE
:102EA0006CD1060808EB002088D10608ECD1060892
:102EB00004D2060880B586B000AFF860B96013464A
:102EC000FB8000222C492D480CF0A4FC0346002B6B
:102ED0000BD02B4B1B68182201212A480AF07CFBDF
:102EE00000F0A2F90323FB753CE03222F968264882
:102EF0000CF0F4FC0346002B0BD000F095F9204BAE
:102F00001B681F22012121480AF066FB0223FB7582
:102F100028E0FA8807F11003B9681B480DF011F892
:102F20000346BB75FA883B699A4202D1BB7D002BF0
:102F30000CD0134B1B681722012115480AF04CFBDB
:102F400011480DF02BFA0123FB750BE00E480DF034
:102F500025FA0B4B1B68222201210E480AF03CFB8C
:102F60000023FB750022002104480CF053FCFB7D7C
:102F700018461837BD4680BD04EB002038ED002010
:102F8000140000206CD1060808EB002088D1060848
:102F9000ECD10608C8D1060880B584B000AF7860CF
:102FA0007868FDF7B9FD03460133184625F030F87F
:102FB0000346FB60FB68002B03D07968F86826F0B5
:102FC0005CF8FB6818461037BD4680BD80B586B0FA
:102FD00000AF7860012020F089F97868FFF7DCFF06
:102FE000F860F868FDF798FD03463B6102E03B6935
:102FF000013B3B613B69002B06D03B69013BFA6812
:1030000013441B782F2BF2D13B69002B02D03B6974
:10301000013B3B613B69002B3DD03B69FA6813449F
:1030200000221A70F8680DF02FFE0346FB75FB7D39
:10303000002B1BD01B4B1B68FA7D1B4918460AF05E
:103040006BF9184B1B680222012118480AF0C4FAD8
:10305000144B1B681222012115480AF0BDFA114BCE
:103060001B68FA68134918460AF056F9FB7D052BD0
:1030700007D1F868FFF7AAFFF8680DF005FE0346D0
:10308000FB75FB7D002B06D1064B1B68FA680A49CD
:1030900018460AF041F9F86824F0C2FF00BF18375B
:1030A000BD4680BD14000020A8D10608B0D1060896
:1030B000B4D106087CD2060894D20608B0B590B008
:1030C00000AF434B434A1A6008F058FF424B5B6A1B
:1030D000414A43F4E023536272B63F4B3F4A9A6041
:1030E00062B63D4B5B693C4A43F00403536100F018
:1030F000D3F81EF09FFD08F035F908F0B5F908F097
:103100005BFE08F019FB08F051FB08F0D5FB08F056
:1031100001FC08F08DFC08F0C1FC08F0F7FC08F099
:103120002BFD08F0F5FD08F09BFD08F01BFE08F0F4
:1031300093FE10F09BFD21F06BFB294B1B6818469A
:1031400000F0DEFB274B1B68184600F0D9FB264B2E
:103150005B69254A23F020035361244B07F12C04BB
:103160001D460FCD0FC42B68236007F12C030021EF
:10317000184609F064FE02461D4B1A6000F0EAF999
:1031800020F046F81B4B07F118041D460FCD0FC465
:103190002B68236007F118030021184609F04FFE41
:1031A0000246154B1A60154B3C1D1D460FCD0FC432
:1031B0002B6823603B1D0021184609F040FE0122C8
:1031C00040210F4815F05EFF09F016FEFEE700BF34
:1031D000340400205028004000ED00E00000040806
:1031E000140000200C00002000080240D0D2060885
:1031F00098DD0020F4D206089CDD002018D30608D4
:103200000018024080B582B000AF78607B681B6810
:10321000044A934201D11EF02FFD00BF0837BD467E
:1032200080BD00BF0000014080B500AF104B5B695E
:103230000F4A43F0100353610D4B5B690C4A43F096
:10324000200353614FF4FA601EF030FD084B5B69B8
:10325000074A23F010035361054B5B69044A23F0CE
:10326000200353614FF4FA601EF020FDDEE700BF3B
:103270000008024080B500AFFFF7D6FF00BF80BD59
:1032800080B582B000AF78603960FFF7CDFF00BF36
:103290000837BD4680BD000080B500AF00F01CF9C6
:1032A00002460E4B1A600D4B1B68002B0CD14FF4DD
:1032B000806200210A4824F0D5FE094B094A1A60B1
:1032C000064B094A1A6007E0044B1B684FF4806202
:1032D0001946034824F0BBFE00BF80BDA0E10020DA
:1032E000A0DD00202143AA5500001E0890B591B032
:1032F00000AF002387F8373015F086FA00F0A8F801
:10330000F863FB6B002B1BD100237B6001233B6127
:103310001723FB6002237B6107F118023B1D114656
:10332000184615F0D3F80346002B07D015F096FA8F
:103330003863FFF779FF15F081FA47E0254BFB630F
:10334000254B264A1A6007F11C031946224800F053
:103350004BF8FB69204AC2F8FC330023FB62204B88
:10336000F322DA600023BB6322E01B4ABB6B1344E9
:103370001B78DBB24FF00004C7E90834FA6BBB6B73
:10338000D118D7E90823F86A15F0EAF9034687F857
:10339000373097F83730002B05D015F05FFA3863D7
:1033A000FFF742FF0DE0FA6ABB6B13440133BB63C6
:1033B000FB6A01334FF48062B2FBF3F3BA6B9A42BB
:1033C000D3D315F03BFA074AFB6B13604437BD4675
:1033D00090BD00BF00001E08A0DD00202143AA55BB
:1033E000003C0240A0E1002080B582B000AF7860D0
:1033F00039607B68134A934203D97B68124A93422F
:1034000009D97B68B3F1005F15D37B6803F580634E
:103410000E4A93420FD83B68002B09D04FF47F72BD
:10342000796800200AF014FA02463B681A6004E04A
:10343000FFF7FAFE01E0FFF7F7FE00BF0837BD46D1
:1034400080BD00BFFFFF1D0800FC1F08FAFF02201F
:1034500080B483B000AF0023BB801E4B1B683B6071
:103460000023FB800DE0B7F904309B023A68134457
:103470001A46FB8813441B78FF2B07D1FB880133C6
:10348000FB80FB88B3F5806FEDD300E000BFFB88C5
:10349000B3F5806F06D2B7F904309BB201339BB20B
:1034A000BB8005E0B7F904309B023A6813440AE098
:1034B000B7F904309B023A68134403F58063B3F113
:1034C000026FCDD3002318460C37BD465DF8047B50
:1034D000704700BFA0E1002080B584B000AF7F231B
:1034E000FB811A4BBB60B7F90E309B02BA681344DC
:1034F0001B68174A934219D1B7F90E309B02BA687C
:1035000013443A1D11461846FFF76EFFB7F90E3007
:103510009B02BA681344D3F8FC237B689A4205D116
:10352000B7F90E309B02BA6813440AE0B7F90E30BF
:103530009BB2013B9BB2FB81B7F90E30002BD2DC72
:10354000002318461037BD4680BD00BF00001E088E
:103550002143AA55B0B586B000AF0023FB752EE01D
:10356000FB7D3A4A4FF40C7101FB03F31344002234
:103570001A60FB7D364A002142F82310FB7D354A54
:10358000002142F82310FB7D334A002142F823102A
:10359000FB7D324A002142F82310FB7D304A002196
:1035A00042F82310FB7D2F4A002122F81310FB7DE7
:1035B0002D4A002122F81310FB7D0133FB75FB7DA2
:1035C000022BCDD9294B2A4A1A602A4B2A4A1A6063
:1035D0002A4B2B4A1A60254B1B68012229491846A1
:1035E0001DF0CEFC0346BB75BB7D002B01D0FFF761
:1035F0001BFE204B1B680122224918461DF0C0FC0F
:103600000346BB75BB7D002B01D0FFF70DFE1B4BA6
:103610001B6801221B4918461DF0B2FC0346BB750E
:10362000BB7D002B01D0FFF7FFFD174B3C461D462D
:103630000FCD0FC42B6823603B460021184609F0CC
:10364000FEFB00BF1837BD46B0BD00BFA00E002076
:10365000BCE40020B0E40020A4E10020280E0020FB
:10366000340E0020900E0020980E00200C00002048
:10367000C0E80020100000205CEA002014000020B8
:103680001CEA0020F4EA0020ACD306082DE9F04142
:10369000ADF5207D08AF3B1D1860002387F85F3231
:1036A00008F086FC0346012B40F09E80132387F828
:1036B0005E32654B1B681A46644965481AF09DF9ED
:1036C000614B1B681A46634961481AF0A9FA07F171
:1036D0000C031322604918460CF000F9034687F8E2
:1036E0005E3297F85E32002B09D107F50F73194649
:1036F00059480DF0D7F9034687F85E3205E097F890
:103700005E32012B01D108F053FC97F85E32002B9A
:103710006AD1D7F83C2207F10C03114618460CF089
:103720006CFE034687F85E3297F85E32002B4BD171
:1037300097F85E32002B41D10021454819F0AAFFCD
:10374000C7F85802454B1B68C7F85432414BDB7829
:103750009C46404B5B789E463E4B9B781A463B4BC3
:103760001B781946394B5B781C46384B9B781D46B5
:10377000D7F858321B0C9BB21E46D7F858329BB272
:103780003B60D7F854321B0C9BB2D7F8540280B27E
:1037900007F10C08079006933B6805930496039580
:1037A000029401910092734662462D49404609F009
:1037B000B3FD07F10C03184600F0A2F807F10C0363
:1037C00018460CF0EBFD0FE0264B1B6897F85E22C5
:1037D0002549184609F0A0FD244B1B6897F85E2286
:1037E0002149184609F098FD00201FF09BFD00209C
:1037F0001FF07CFD002000F0AFF803461A4697F852
:103800005F32134387F85F32012000F0A5F80346CA
:103810001A4697F85F32134387F85F32022000F0B0
:103820009BF803461A4697F85F32134387F85F32D6
:1038300097F85F32002B02D10A2009F027FB002302
:1038400087F85F32D3E700BF24080020C0E60020DD
:1038500004E9002000E90020C0D3060854280040F5
:10386000CCD306081400002014D406080C00002055
:1038700080B584B000AF786039603B68002B0BD016
:103880003868FDF749F90346FB81FB891A46396818
:10389000786800F007F801E0FFF7C6FC00BF1037BA
:1038A000BD4680BD80B586B000AFF860B9601346F4
:1038B000FB80FB88FB82BB68002B18D0FB8A1A4672
:1038C000B968002009F0C4FF3861FB8ABA68134464
:1038D0003A690A49184625F075FBFB8A0A33FB82D0
:1038E000FA8AFB680021B86809F076FE01E0FFF76C
:1038F0009BFC00BF1837BD4680BD00BF28D406081A
:1039000080B584B002AF78600C4B01930C4B0093F0
:10391000592301220B49786809F0FEFC0A4B1A680A
:103920000A4B19680A4B1B6800930B4609497868D3
:1039300009F0F2FC00BF0837BD4680BD58D4060828
:1039400064D4060830D40608107AFF1F147AFF1FCB
:10395000187AFF1F70D40608F0B5B7B008AF034659
:10396000FB73002387F8AF30FB7B022B01D9FFF7F5
:103970005BFCFB7B1B02BD4A9818FB7B0D22FF21E1
:1039800007F020FB0346002B07F04E82FB7BB84A72
:1039900052F82330C7F88C30FB7B1B02B34A134428
:1039A000B449184626F0E8F8C7F88800D7F88830F8
:1039B000002B07F07082012387F8AF30D7F888001A
:1039C000FDF7AAF8C7F88400D7F88430B3F5807FF4
:1039D00007F20C82FB7B1B02A74A1344D7F888101E
:1039E000184625F04AFB0423C7F8B4300423C7F86F
:1039F000B03028E0FB7BA04A1B021A44D7F8B43051
:103A000013441878FA7BD7F8B43001339A4912027C
:103A10000A4413441B78FC7B194607F025FB034638
:103A20001946954A23021A44D7F8B03013440A467F
:103A30001A70D7F8B4300233C7F8B430D7F8B030C2
:103A40000133C7F8B030D7F8B420D7F884309A42A1
:103A5000D0D3FB7B884A1B02134404331B78112B01
:103A600008D0FB7B844A1B02134404331B78402B91
:103A700040F03481FB7B804A1B02134404331B78E3
:103A8000112B55D1FB7B7C4A1B02134403331B785B
:103A9000522B0DD1FB7B784A1B02134405331B7854
:103AA0001946002007F008FB0346A7F8AC309DE05C
:103AB000FB7B714A1B02134403331B78572B0DD138
:103AC000FB7B6D4A1B02134405331B78194601200A
:103AD00007F0F2FA0346A7F8AC3087E0FB7B664AB2
:103AE0001B02134403331B78442B04D1D7F88430D2
:103AF000A7F8AC307AE0FB7B4FF4867202FB03F34D
:103B00005E4A13445E491A460B4603CB106051606F
:103B1000FB7B4FF4867202FB03F3584A13441946A9
:103B2000D7F88C00FFF7A4FE97F8AF3007F0B5B9CF
:103B3000FB7B514A1B02134404331B78402B55D1A5
:103B4000FB7B4D4A1B02134403331B78522B0DD1D0
:103B5000FB7B494A1B02134405331B78194602209C
:103B600007F0AAFA0346A7F8AC303FE0FB7B424AD5
:103B70001B02134403331B78572B0DD1FB7B3E4AAA
:103B80001B02134405331B781946032007F094FAEF
:103B90000346A7F8AC3029E0FB7B374A1B021344ED
:103BA00003331B78442B04D1D7F88430A7F8AC300A
:103BB0001CE0FB7B4FF4867202FB03F32F4A134495
:103BC0002F491A460B4603CB10605160FB7B4FF424
:103BD000867202FB03F3294A13441946D7F88C0076
:103BE000FFF746FE97F8AF3007F057B9B7F8AC309B
:103BF00009331A46D7F88430934245D1D7F8843038
:103C0000093B1A46D7F88810002009F021FEC7F8B2
:103C10008000B7F8AC300133D7F888201344184639
:103C200007F00CFBF867D7F88020FB6F9A4255D05D
:103C3000FB7B4FF4867202FB03F3104A1344D7F860
:103C400080201049184625F0BDF9FB7B4FF48672A1
:103C500002FB03F3094A13441946D7F88C00FFF717
:103C600007FE97F8AF3007F018B900BF280B002007
:103C70001C00002090D4060828080020CC15002045
:103C800094D406089CD40608B7F8AC30D7F8842042
:103C90009A4223D0FB7B4FF4867202FB03F3B64AB1
:103CA0001344B64A1C4615460FCD20606160A260E1
:103CB000E3600FCD20616161A261E361FB7B4FF4A2
:103CC000867202FB03F3AC4A13441946D7F88C0002
:103CD000FFF7CEFD97F8AF3007F0DFB8FB7BA84ABF
:103CE0001B02134403331B78522B42F0FA82FB7BF6
:103CF000A34A1B02134404331B78402B40F0C780B7
:103D0000FB7B9F4A1B02134406331B789BB21B02AA
:103D10009AB2FB7B9A491B020B4407331B789BB278
:103D20001344A7F84A30FB7B954A1B021344053322
:103D30001B78012BC0F28E800B2B02DD402B40F054
:103D40008980B7F84A30B3F5005F30D3B7F84A300E
:103D5000B3F5405F2BD2FB7B4FF4867202FB03F37B
:103D6000854A9818FB7B864A1B02134405331B784F
:103D70001A46844925F026F9FB7B4FF4867202FB34
:103D800003F37D4A13441946D7F88C00FFF770FD02
:103D9000FB7B7B4A1B02134405331978B7F84A00B2
:103DA000002300930023522212F012FF50E0B7F8D4
:103DB0004A30B3F5805F30D3B7F84A30B3F5005FCF
:103DC0002BD2FB7B4FF4867202FB03F36A4A9818EE
:103DD000FB7B6B4A1B02134405331B781A466A4966
:103DE00025F0F0F8FB7B4FF4867202FB03F3624A86
:103DF00013441946D7F88C00FFF73AFDFB7B604A65
:103E00001B02134405331978B7F84A0000230093C6
:103E10000023522223F040FE1AE0FB7B4FF486720F
:103E200002FB03F3544A1344B7F84A205749184693
:103E300025F0C8F8FB7B4FF4867202FB03F34E4A71
:103E400013441946D7F88C00FFF712FD07F023B88A
:103E500007F021B8FB7B4FF4867202FB03F3464A5E
:103E600013444B4A1C4615460FCD20606160A2608A
:103E7000E360FB7B4FF4867202FB03F33E4A13447C
:103E80001946D7F88C00FFF7F3FC07F004B8FB7B6A
:103E90003B4A1B02134404331B78182B40F0388133
:103EA000002387F8AB300A23A7F8AC30B7F8AC3062
:103EB00009331A46D7F88430934236D1D7F8843084
:103EC000093B1A46D7F88810002009F0C1FCC7F852
:103ED0008000B7F8AC300133D7F888201344184677
:103EE00007F0ACF9F867D7F88020FB6F9A4255D0FD
:103EF000FB7B4FF4867202FB03F31F4A1344D7F88F
:103F000080202449184625F05DF8FB7B4FF486722B
:103F100002FB03F3184A13441946D7F88C00FFF745
:103F2000A7FC97F8AF3006F0B8BFB7F8AC30D7F8B9
:103F300084209A4232D0FB7B4FF4867202FB03F35B
:103F40000D4A1344144A1C46134607CB2060616097
:103F5000A2601B782373FB7B4FF4867202FB03F392
:103F6000054A13441946D7F88C00FFF781FC97F8EF
:103F7000AF3006F092BF00BFCC150020B4D40608C5
:103F800028080020D4D40608F4D4060814D506085E
:103F900028D506089CD4060838D50608FB7BB24A0B
:103FA0001B02134406331B78302B00F29480FB7BFA
:103FB000AD4A1B02134406331B78002B00F08B80A4
:103FC00007F04CFC97F8AB30002B1BD097F8AA30C9
:103FD000012B0DD097F8AA30032B09D097F8AA30FF
:103FE000022B08D1A14B93F83D30DBB2202B02D13C
:103FF0009E4807F0BDFC052008F048FF97F8AB305D
:10400000092B1FD8FB7B984A1B02134406331B78ED
:104010009AB20A2302930223019307F11403009337
:1040200001233021914815F0B7FD034687F8AA30E7
:1040300097F8AB30013387F8AB3097F8AA30002BF4
:10404000C0D100E000BF894815F02EF997F8AA30DA
:10405000002B23D13B7D9BB21B029AB27B7D9BB28E
:104060001344A7F84C30FB7B4FF4867202FB03F33A
:104070007F4A1344B7F84C207E49184624F0A2FF2B
:10408000FB7B4FF4867202FB03F3794A1344194613
:10409000D7F88C00FFF7ECFB06F0FDBEFB7B4FF47E
:1040A000867202FB03F3724A1344734A1C46154698
:1040B0000FCD20606160A260E360FB7B4FF48672ED
:1040C00002FB03F36A4A13441946D7F88C00FFF742
:1040D000CFFB06F0E0BEFB7B4FF4867202FB03F3DE
:1040E000634A1344654A1C4615460FCD2060616043
:1040F000A260E360FB7B4FF4867202FB03F35C4A31
:1041000013441946D7F88C00FFF7B2FB06F0C3BE84
:10411000FB7B554A1B02134404331B78332B40F0BE
:104120001881002387F8A8300823A7F8AC30B7F827
:10413000AC3009331A46D7F88430934236D1D7F8D9
:104140008430093B1A46D7F88810002009F080FB1C
:10415000C7F88000B7F8AC300133D7F88820134493
:10416000184607F06BF8F867D7F88020FB6F9A4283
:1041700042D0FB7B4FF4867202FB03F33C4A1344AC
:10418000D7F880203E49184624F01CFFFB7B4FF4F3
:10419000867202FB03F3364A13441946D7F88C00A3
:1041A000FFF766FB97F8AF3006F077BEB7F8AC3094
:1041B000D7F884209A421FD0FB7B4FF4867202FB13
:1041C00003F32B4A13442F4A1C46134607CB2060A7
:1041D0006160A2601B782373FB7B4FF4867202FB45
:1041E00003F3234A13441946D7F88C00FFF740FB2A
:1041F00097F8AF3006F051BE07F030FB97F8A830C3
:10420000002B1BD097F8A930012B0DD097F8A930BF
:10421000032B09D097F8A930022B08D1134B93F840
:104220003D30DBB2202B02D1104807F0A1FB052066
:1042300008F02CFE97F8A830092B25D807F11002BA
:104240000A23009304236621084815F06BF90346FE
:1042500087F8A93097F8A830013387F8A83097F885
:10426000A930002BCAD110E0280800206CE60020FD
:10427000CC15002048D5060850D5060860D506089C
:104280009CD4060838D5060800BFE24815F00CF8A3
:1042900097F8A930002B32D13A7CDF4B1A707A7C28
:1042A000DD4B5A70BA7CDC4B9A70FA7CDA4BDA70D0
:1042B000FB7B4FF4867202FB03F3D84A9818D64B67
:1042C0001B781946D44B5B781C46D34B9B781A4617
:1042D000D14BDB780193009223460A46D04924F063
:1042E00071FEFB7B4FF4867202FB03F3CB4A13444F
:1042F0001946D7F88C00FFF7BBFA06F0CCBDFB7B64
:104300004FF4867202FB03F3C44A1344C54A1446B1
:104310009C4604F1200E654626460FCE2860696053
:10432000AA60EB6010340CF1100C7445F3D16246B6
:1043300023461B881380FB7B4FF4867202FB03F33A
:10434000B64A13441946D7F88C00FFF791FA06F0E5
:10435000A2BDFB7BB44A1B02134404331B78112B10
:1043600041F0A287FB7BB04A1B02134405331B7844
:104370007F2B01F27B8701A252F823F07D450408D0
:10438000734604086D470408414804086D49040851
:104390004B4A04083D4B0408454C0408374D0408BB
:1043A000F74D0408B74E0408B74F040877500408C7
:1043B000375104080F520408F9520408B95304088D
:1043C0006D6204086D6204086D620408915404086B
:1043D000E955040811570408395804088D59040890
:1043E000B55A0408DD5B04087D5C0408E95C040838
:1043F000555D0408C15D04082D5E0408995E04083B
:104400006D6204086D6204086D6204086D62040840
:104410006D6204086D6204086D6204086D62040830
:104420006D6204086D6204086D6204086D62040820
:104430006D6204086D6204086D6204086D62040810
:10444000855F04086D6204084B6004086D6204080F
:10445000056104086D6204086D6204086D62040859
:104460006D6204086D6204086D6204086D620408E0
:104470006D6204086D6204086D6204086D620408D0
:104480006D6204086D6204086D6204086D620408C0
:104490006D6204086D6204086D6204086D620408B0
:1044A0006D6204086D6204086D6204086D620408A0
:1044B0006D6204086D6204086D6204086D62040890
:1044C0006D6204086D6204086D6204086D62040880
:1044D0006D6204086D6204086D6204086D62040870
:1044E0006D6204086D6204086D6204086D62040860
:1044F0006D6204086D6204086D6204086D62040850
:10450000536104086D6204086D6204086D6204085A
:104510006D6204086D6204086D6204086D6204082F
:104520006D6204086D6204086D6204086D6204081F
:104530006D6204086D6204086D6204086D6204080F
:104540006D6204086D6204086D6204086D620408FF
:104550006D6204086D6204086D6204086D620408EF
:104560006D6204086D6204086D6204086D620408DF
:104570006D6204086D620408E961040807F1200314
:104580001946302008F00FF80346012B52D1FB7B6F
:104590004FF4867202FB03F3204A9818B7F92030D3
:1045A0001A46B7F922301946B7F9243000930B4662
:1045B0001E4924F007FDFB7B4FF4867202FB03F3D8
:1045C000164A13441946D7F88C00FFF751F9FB7BC4
:1045D0004FF4867202FB03F3104A9818B7F92030A3
:1045E0001A46B7F922301946B7F9243000930B4622
:1045F0000F4924F0E7FCFB7B4FF4867202FB03F3C8
:10460000064A13441946D7F88C00FFF731F906F033
:1046100042BC00BF6CE60020F8EA0020CC15002068
:1046200070D5060884D5060828080020A8D50608F5
:10463000B8D50608C14807F09BF9FB7B4FF486729A
:1046400002FB03F3BE4A1344BE4A184611465423E4
:104650001A4623F0FCFCFB7B4FF4867202FB03F34B
:10466000B74A13441946D7F88C00FFF701F906F052
:1046700012BCFB7BB44A1B02134406331978FB7B44
:104680001B020733B04A13441A46302007F062FE7B
:104690000346012B49D1FB7B4FF4867202FB03F3E7
:1046A000A74A9818FB7BA84A1B02134406331B78C1
:1046B0001946FB7BA44A1B02134407331B780A46A6
:1046C000A24924F07FFCFB7B4FF4867202FB03F3CC
:1046D0009B4A13441946D7F88C00FFF7C9F8FB7BB7
:1046E0004FF4867202FB03F3954A9818FB7B964AB7
:1046F0001B02134406331B781946FB7B924A1B02AC
:10470000134407331B780A46914924F05BFCFB7B7A
:104710004FF4867202FB03F3894A13441946D7F813
:104720008C00FFF7A5F806F0B6BBFB7B4FF4867252
:1047300002FB03F3824A1344864A1D4614460FCCFB
:1047400028606960AA60EB6007CC28616961AA6192
:10475000FB7B4FF4867202FB03F3794A134419463C
:10476000D7F88C00FFF784F806F095BB07F120031B
:104770001946322007F017FF0346012B41D1FB7B7E
:104780004FF4867202FB03F36D4A9818B7F9203094
:104790001A46B7F922301946B7F9243000930B4670
:1047A0006D4924F00FFCFB7B4FF4867202FB03F390
:1047B000634A13441946D7F88C00FFF759F8FB7B7E
:1047C0004FF4867202FB03F35D4A9818B7F9203064
:1047D0001A46B7F922301946B7F9243000930B4630
:1047E0005E4924F0EFFBFB7B4FF4867202FB03F380
:1047F000534A13441946D7F88C00FFF739F806F0EE
:104800004ABB4E4807F0B4F8FB7B4FF4867202FBBC
:1048100003F34B4A1344524A184611464E231A4694
:1048200023F015FCFB7B4FF4867202FB03F3444A32
:1048300013441946D7F88C00FFF71AF806F02BBB83
:10484000FB7B414A1B02134406331978FB7B1B0296
:1048500007333D4A13441A46322007F07BFD0346D6
:10486000012B49D1FB7B4FF4867202FB03F3344AE0
:104870009818FB7B344A1B02134406331B781946F5
:10488000FB7B314A1B02134407331B780A46354928
:1048900024F098FBFB7B4FF4867202FB03F3284A5B
:1048A00013441946D7F88C00FEF7E2FFFB7B4FF468
:1048B000867202FB03F3224A9818FB7B224A1B02F2
:1048C000134406331B781946FB7B1F4A1B02134413
:1048D00007331B780A46244924F074FBFB7B4FF412
:1048E000867202FB03F3164A13441946D7F88C006C
:1048F000FEF7BEFF06F0CFBAFB7B4FF4867202FBD9
:1049000003F30F4A1344134A1D4614460FCC286084
:104910006960AA60EB6007CC28616961AA61FB7BD2
:104920004FF4867202FB03F3054A13441946D7F885
:104930008C00FEF79DFF06F0AEBA00BFE0E6002057
:10494000CC150020D8D50608280800202CD606084B
:104950003CD6060868D6060884D6060894D606080B
:10496000B4D6060804D7060814D7060807F12803AA
:104970003821184608F062FC0346002B1FD0A748D8
:1049800006F0F6FFFB7B4FF4867202FB03F3A44AAA
:104990001344A44A1C4615460FCD20606160A260F6
:1049A000E360FB7B4FF4867202FB03F39C4A1344E3
:1049B0001946D7F88C00FEF75BFF06F06CBAFB7B5C
:1049C0004FF4867202FB03F3954A9818D7E90A560A
:1049D000D7E90C34D7E90E12CDE90212CDE9003443
:1049E0002A463346904924F0EDFAFB7B4FF4867259
:1049F00002FB03F38A4A13441946D7F88C00FEF7EA
:104A000037FFFB7B4FF4867202FB03F3844A98184E
:104A1000D7E90A56D7E90C34D7E90E12CDE90212CC
:104A2000CDE900342A463346804924F0CBFAFB7B9B
:104A30004FF4867202FB03F3794A13441946D7F800
:104A40008C00FEF715FF06F026BAFB7B784A1B02A6
:104A5000134406331978FB7B1B020733744A134453
:104A60001A4638200DF0FAF80346012B49D1FB7B9A
:104A70004FF4867202FB03F3694A9818FB7B6C4A79
:104A80001B02134406331B781946FB7B684A1B0242
:104A9000134407331B780A46664924F093FAFB7BDC
:104AA0004FF4867202FB03F35D4A13441946D7F8AC
:104AB0008C00FEF7DDFEFB7B4FF4867202FB03F3F6
:104AC000574A9818FB7B5A4A1B02134406331B783B
:104AD0001946FB7B564A1B02134407331B780A46D0
:104AE000554924F06FFAFB7B4FF4867202FB03F307
:104AF0004B4A13441946D7F88C00FEF7B9FE06F06E
:104B0000CAB9FB7B4FF4867202FB03F3444A134499
:104B1000444A1C4615460FCD20606160A260E360E8
:104B2000FB7B4FF4867202FB03F33D4A13441946A4
:104B3000D7F88C00FEF79CFE06F0ADB93C2008F0DB
:104B400042FB07F128033C21184608F077FB034697
:104B5000002B1CD0FB7B4FF4867202FB03F3304A20
:104B60001344304A1C4615460FCD20606160A26098
:104B7000E360FB7B4FF4867202FB03F3284A134485
:104B80001946D7F88C00FEF773FE06F084B9FB7B5C
:104B90004FF4867202FB03F3214A9818D7E90A56AC
:104BA000D7E90C34D7E90E12CDE90212CDE9003471
:104BB0002A463346214924F005FAFB7B4FF48672DE
:104BC00002FB03F3164A13441946D7F88C00FEF78C
:104BD0004FFEFB7B4FF4867202FB03F3104A9818DA
:104BE000D7E90A56D7E90C34D7E90E12CDE90212FB
:104BF000CDE900342A463346114924F0E3F9FB7B22
:104C00004FF4867202FB03F3054A13441946D7F8A2
:104C10008C00FEF72DFE06F03EB900BFE0E6002056
:104C2000CC15002050D5060840D7060858D70608EE
:104C3000280800202CD60608A4D70608CCD70608DA
:104C4000E4D70608FB7BC34A1B02134406331978DA
:104C5000FB7B1B020733BF4A13441A463C200CF06F
:104C6000FDFF0346012B49D1FB7B4FF4867202FB0B
:104C700003F3B94A9818FB7BB64A1B021344063368
:104C80001B781946FB7BB34A1B02134407331B787E
:104C90000A46B24924F096F9FB7B4FF4867202FB78
:104CA00003F3AD4A13441946D7F88C00FEF7E0FD34
:104CB000FB7B4FF4867202FB03F3A74A9818FB7B39
:104CC000A44A1B02134406331B781946FB7BA14AF6
:104CD0001B02134407331B780A46A14924F072F9DA
:104CE000FB7B4FF4867202FB03F39B4A1344194685
:104CF000D7F88C00FEF7BCFD06F0CDB8FB7B4FF477
:104D0000867202FB03F3944A1344964A1C461546E6
:104D10000FCD20606160A260E360FB7B4FF4867280
:104D200002FB03F38C4A13441946D7F88C00FEF7B4
:104D30009FFD06F0B0B807F12003194600200DF0E2
:104D400039FC0346012B39D1B7F9203047F6FF7201
:104D5000934233D0FB7B4FF4867202FB03F37E4A0F
:104D60001344B7F920208049184624F02BF9FB7B27
:104D70004FF4867202FB03F3774A13441946D7F8BF
:104D80008C00FEF775FDFB7B4FF4867202FB03F38C
:104D9000714A1344B7F920207449184624F012F9D7
:104DA000FB7B4FF4867202FB03F36B4A13441946F4
:104DB000D7F88C00FEF75CFD06F06DB8FB7B4FF476
:104DC000867202FB03F3644A1344664A1C46154686
:104DD0000FCD20606160A260E360FB7B4FF48672C0
:104DE00002FB03F35C4A13441946D7F88C00FEF724
:104DF0003FFD06F050B807F12003194600200DF0E2
:104E0000ABFC0346012B39D1B7F9203047F6FF72CE
:104E1000934233D0FB7B4FF4867202FB03F34E4A7E
:104E20001344B7F920205049184624F0CBF8FB7BF7
:104E30004FF4867202FB03F3474A13441946D7F82E
:104E40008C00FEF715FDFB7B4FF4867202FB03F32B
:104E5000414A1344B7F920204549184624F0B2F8D6
:104E6000FB7B4FF4867202FB03F33B4A1344194663
:104E7000D7F88C00FEF7FCFC06F00DB8FB7B4FF476
:104E8000867202FB03F3344A1344364A1C46154625
:104E90000FCD20606160A260E360FB7B4FF48672FF
:104EA00002FB03F32C4A13441946D7F88C00FEF793
:104EB000DFFC05F0F0BFFB7B264A1B0213440633E0
:104EC0001B7807F14801032218460DF0AFFA03469C
:104ED000012B53D1FB7B4FF4867202FB03F31E4A76
:104EE0009818FB7B1B4A1B02134406331B781A4697
:104EF000B7F848301F4924F065F8FB7B4FF4867201
:104F000002FB03F3144A13441946D7F88C00FEF74A
:104F1000AFFCFB7B4FF4867202FB03F30E4A98183A
:104F2000FB7B0C4A1B02134406331B781A46B7F866
:104F30004830114924F046F8FB7B4FF4867202FB9F
:104F400003F3054A13441946D7F88C00FEF790FC8A
:104F500005F0A1BF28080020CC15002004D70608C2
:104F600030D8060850D5060858D8060860D8060874
:104F700078D806082CD6060890D80608FB7B4FF494
:104F8000867202FB03F3D24A1344D24A1C461546EA
:104F90000FCD20606160A260E360FB7B4FF48672FE
:104FA00002FB03F3CA4A13441946D7F88C00FEF7F4
:104FB0005FFC05F070BF07F12003194601200DF0DA
:104FC000F9FA0346012B39D1B7F9223047F6FF72BF
:104FD000934233D0FB7B4FF4867202FB03F3BC4A4F
:104FE0001344B7F92220BC49184623F0EBFFFB7BA2
:104FF0004FF4867202FB03F3B54A13441946D7F8FF
:105000008C00FEF735FCFB7B4FF4867202FB03F34A
:10501000AF4A1344B7F92220B049184623F0D2FF13
:10502000FB7B4FF4867202FB03F3A94A1344194633
:10503000D7F88C00FEF71CFC05F02DBFFB7B4FF46E
:10504000867202FB03F3A24A1344A24A1C46154689
:105050000FCD20606160A260E360FB7B4FF486723D
:1050600002FB03F39A4A13441946D7F88C00FEF763
:10507000FFFB05F010BF07F12003194601200DF0DA
:105080006BFB0346012B39D1B7F9223047F6FF728B
:10509000934233D0FB7B4FF4867202FB03F38C4ABE
:1050A0001344B7F922208C49184623F08BFFFB7B71
:1050B0004FF4867202FB03F3854A13441946D7F86E
:1050C0008C00FEF7D5FBFB7B4FF4867202FB03F3EB
:1050D0007F4A1344B7F922208149184623F072FF12
:1050E000FB7B4FF4867202FB03F3794A13441946A3
:1050F000D7F88C00FEF7BCFB05F0CDBEFB7B4FF470
:10510000867202FB03F3724A1344724A1C46154628
:105110000FCD20606160A260E360FB7B4FF486727C
:1051200002FB03F36A4A13441946D7F88C00FEF7D2
:105130009FFB05F0B0BEFB7B6A4A1B02134406339B
:105140001B7807F14801042218460DF06FF9034659
:10515000012B3FD1FB7B4FF4867202FB03F35C4AC9
:105160009818FB7B5F4A1B02134406331B781A46D0
:10517000B7F848305C4923F025FFFB7B4FF486727B
:1051800002FB03F3524A13441946D7F88C00FEF78A
:105190006FFBFB7B4FF4867202FB03F34C4A9818BB
:1051A000FB7B504A1B02134406331B781A46B7F8A0
:1051B00048304E4923F006FFFB7B4FF4867202FB1A
:1051C00003F3434A13441946D7F88C00FEF750FB0B
:1051D00005F061BEFB7B4FF4867202FB03F33C4A91
:1051E00013443C4A1C4615460FCD20606160A26006
:1051F000E360FB7B4FF4867202FB03F3344A1344F3
:105200001946D7F88C00FEF733FB05F044BE07F1D2
:105210002003194602200DF0CDF90346012B39D1A8
:10522000B7F9243047F6FF72934233D0FB7B4FF43B
:10523000867202FB03F3264A1344B7F924202C4953
:10524000184623F0BFFEFB7B4FF4867202FB03F38C
:105250001F4A13441946D7F88C00FEF709FBFB7B65
:105260004FF4867202FB03F3194A1344B7F9242062
:105270002049184623F0A6FEFB7B4FF4867202FB02
:1052800003F3134A13441946D7F88C00FEF7F0FADB
:1052900005F001BEFB7B4FF4867202FB03F30C4A60
:1052A00013440C4A1C4615460FCD20606160A26075
:1052B000E360FB7B4FF4867202FB03F3044A134462
:1052C0001946D7F88C00FEF7D3FA05F0E4BD00BF0D
:1052D000CC15002050D50608B4D80608BCD806085E
:1052E000D4D806082808002004D70608ECD80608F9
:1052F00010D9060818D9060807F12003194602201C
:105300000DF02AFA0346012B39D1B7F9243047F6BC
:10531000FF72934233D0FB7B4FF4867202FB03F3A0
:10532000A54A1344B7F92420A449184623F04AFE9D
:10533000FB7B4FF4867202FB03F39F4A134419462A
:10534000D7F88C00FEF794FAFB7B4FF4867202FBD1
:1053500003F3994A1344B7F924209949184623F0D6
:1053600031FEFB7B4FF4867202FB03F3924A134437
:105370001946D7F88C00FEF77BFA05F08CBDFB7B55
:105380004FF4867202FB03F38B4A13448D4A1C468A
:1053900015460FCD20606160A260E360FB7B4FF497
:1053A000867202FB03F3844A13441946D7F88C0033
:1053B000FEF75EFA05F06FBDFB7B834A1B021344C8
:1053C00006331B7807F14801052218460DF02EF828
:1053D0000346012B3FD1FB7B4FF4867202FB03F3A4
:1053E000754A9818FB7B784A1B02134406331B78D6
:1053F0001A46B7F84830754923F0E4FDFB7B4FF4BB
:10540000867202FB03F36C4A13441946D7F88C00EA
:10541000FEF72EFAFB7B4FF4867202FB03F3664A1B
:105420009818FB7B684A1B02134406331B781A4604
:10543000B7F84830664923F0C5FDFB7B4FF4867210
:1054400002FB03F35C4A13441946D7F88C00FEF7BD
:105450000FFA05F020BDFB7B4FF4867202FB03F3CD
:10546000554A1344574A1C4615460FCD20606160CB
:10547000A260E360FB7B4FF4867202FB03F34E4AAB
:1054800013441946D7F88C00FEF7F2F905F003BD76
:105490000CF096FD07F1180318460DF04BFA034681
:1054A000012B63D14B4B1B78DBB203F00103002BC4
:1054B0005CD0B7F91830002B00DA0733DB101BB2D1
:1054C0001A4613469B0013445B00002B00DA0F338F
:1054D0001B11A7F84E30FB7B4FF4867202FB03F3DF
:1054E000354A1344B7F9182092B23B49184623F0C5
:1054F00069FDFB7B4FF4867202FB03F32E4A1344D3
:105500001946D7F88C00FEF7B3F9FB7B4FF486728F
:1055100002FB03F3284A9818B7F94E302F4A82FB52
:1055200003129210DB17D31A1BB21C46B7F94E2098
:105530002A4B83FB02139910D317C91A0B469B0001
:105540000B445B00D31A1BB22246254923F03AFDD7
:10555000FB7B4FF4867202FB03F3174A1344194690
:10556000D7F88C00FEF784F905F095BCFB7B4FF46F
:10557000867202FB03F3104A13441A4A1D4614466E
:105580000FCC28606960AA60EB6007CC2861696174
:10559000AA612388A278AB831346AB77FB7B4FF4D9
:1055A000867202FB03F3044A13441946D7F88C00B1
:1055B000FEF75EF905F06FBCCC15002010D9060887
:1055C00030D9060850D506082808002048D9060812
:1055D00058D9060884CF00207CD90608676666661D
:1055E00088D90608ACD906080CF0EAFC07F11803C4
:1055F00018460DF09FF90346012B63D1C54B1B786C
:10560000DBB203F00203002B5CD0B7F91A30002B99
:1056100000DA0733DB101BB21A4613469B00134413
:105620005B00002B00DA0F331B11A7F84E30FB7B19
:105630004FF4867202FB03F3B74A1344B7F91A20FA
:1056400092B2B649184623F0BDFCFB7B4FF486723C
:1056500002FB03F3B04A13441946D7F88C00FEF757
:1056600007F9FB7B4FF4867202FB03F3AA4A9818F2
:10567000B7F94E30AA4A82FB03129210DB17D31AF5
:105680001BB21C46B7F94E20A54B83FB02139910A1
:10569000D317C91A0B469B000B445B00D31A1BB2ED
:1056A0002246A04923F08EFCFB7B4FF4867202FB5E
:1056B00003F3994A13441946D7F88C00FEF7D8F83B
:1056C00005F0E9BBFB7B4FF4867202FB03F3924AC1
:1056D0001344954A1D4614460FCC28606960AA60A1
:1056E000EB6007CC28616961AA612388A278AB834B
:1056F0001346AB77FB7B4FF4867202FB03F3864ABB
:1057000013441946D7F88C00FEF7B2F805F0C3BB76
:105710000CF056FC07F1180318460DF00BF9034680
:10572000012B63D17B4B1B78DBB203F00403002B0E
:105730005CD0B7F91C30002B00DA0733DB101BB24A
:105740001A4613469B0013445B00002B00DA0F330C
:105750001B11A7F84E30FB7B4FF4867202FB03F35C
:105760006D4A1344B7F91C2092B27049184623F0D1
:1057700029FCFB7B4FF4867202FB03F3664A134459
:105780001946D7F88C00FEF773F8FB7B4FF486724E
:1057900002FB03F3604A9818B7F94E30604A82FB67
:1057A00003129210DB17D31A1BB21C46B7F94E2016
:1057B0005B4B83FB02139910D317C91A0B469B004E
:1057C0000B445B00D31A1BB22246594923F0FAFB63
:1057D000FB7B4FF4867202FB03F34F4A13441946D6
:1057E000D7F88C00FEF744F805F055BBFB7B4FF46F
:1057F000867202FB03F3484A13444E4A1D46144680
:105800000FCC28606960AA60EB6007CC28616961F1
:10581000AA612388A278AB831346AB77FB7B4FF456
:10582000867202FB03F33C4A13441946D7F88C00F6
:10583000FEF71EF805F02FBB0CF0C2FB07F11803B2
:1058400018460DF0DDF80346012B79D1314B1B785A
:10585000DBB203F00803002B72D0B7F91830002B2D
:1058600000DA0733DB101BB21A4613469B001344C1
:105870005B00002B00DA0F331B11A7F84E30FB7BC7
:105880004FF4867202FB03F3234A1344B7F918203E
:1058900092B22949184623F095FBFB7B4FF48672A0
:1058A00002FB03F31C4A13441946D7F88C00FDF79A
:1058B000DFFFFB7B4FF4867202FB03F3164A981856
:1058C000B7F94E30164A82FB03129210DB17D31A37
:1058D0001BB21C46B7F94E20114B83FB02139910E3
:1058E000D317C91A0B469B000B445B00D31A1BB29B
:1058F0002246124923F066FBFB7B4FF4867202FBC3
:1059000003F3054A13441946D7F88C00FDF7B0FF9E
:1059100005F0C1BA84CF0020CC150020CCD90608F0
:1059200067666666D8D90608FCD906081CDA060838
:1059300028DA06084CDA06086CDA060878DA06086F
:10594000FB7B4FF4867202FB03F3BF4A1344BF4A4A
:105950001D4614460FCC28606960AA60EB6007CC36
:1059600028616961AA612388A278AB831346AB776B
:10597000FB7B4FF4867202FB03F3B34A13441946D0
:10598000D7F88C00FDF774FF05F085BA0CF018FB12
:1059900007F1180318460DF033F80346012B63D1C5
:1059A000AB4B1B78DBB203F01003002B5CD0B7F9D4
:1059B0001A30002B00DA0733DB101BB21A461346ED
:1059C0009B0013445B00002B00DA0F331B11A7F878
:1059D0004E30FB7B4FF4867202FB03F39A4A13446A
:1059E000B7F91A2092B29B49184623F0EBFAFB7BD9
:1059F0004FF4867202FB03F3934A13441946D7F817
:105A00008C00FDF735FFFB7B4FF4867202FB03F33E
:105A10008D4A9818B7F94E308F4A82FB03129210C4
:105A2000DB17D31A1BB21C46B7F94E208A4B83FBF7
:105A300002139910D317C91A0B469B000B445B0045
:105A4000D31A1BB22246854923F0BCFAFB7B4FF4E4
:105A5000867202FB03F37C4A13441946D7F88C0084
:105A6000FDF706FF05F017BAFB7B4FF4867202FBC9
:105A700003F3754A13447A4A1D4614460FCC286036
:105A80006960AA60EB6007CC28616961AA6123881C
:105A9000A278AB831346AB77FB7B4FF4867202FB95
:105AA00003F3694A13441946D7F88C00FDF7E0FE6A
:105AB00005F0F1B90CF084FA07F1180318460CF060
:105AC0009FFF0346012B63D1614B1B78DBB203F0D0
:105AD0002003002B5CD0B7F91C30002B00DA073311
