:020000040804EE
:100000000000032009C20408E7E60508F5E6050834
:100010005DE705087DE705089DE70508000000008D
:10002000000000000000000000000000712B050827
:10003000BDE7050800000000812D0508CBE7050895
:10004000D9E7050859C2040859C2040859C204086E
:1000500059C2040859C2040859C2040859C2040804
:1000600059C2040859C2040859C2040859C20408F4
:1000700059C2040859C20408D9EA050859C204083B
:1000800059C2040859C2040859C2040859C20408D4
:1000900059C2040859C2040859C2040859C20408C4
:1000A00059C20408EDEA050859C2040859C20408F7
:1000B00059C2040859C2040859C2040829EB0508AA
:1000C0003DEB050851EB050865EB050859C204082E
:1000D00059C2040835E8050859C2040859C2040881
:1000E000EDE7050859C2040859C2040859C20408BA
:1000F00059C2040859C2040859C2040859C2040864
:1001000059C2040821E8050859C2040859C2040864
:10011000BDE8050859C2040859C2040859C20408B8
:1001200059C2040859C2040859C2040801EB050861
:1001300059C2040859C2040859C2040859C2040823
:1001400059C2040859C2040859C2040859C2040813
:1001500059C2040815EB050859C2040849E9050805
:1001600079EB05088DEB050859C2040859C204084B
:1001700059C2040859C2040859C20408000000000A
:1001800059C2040859C20408D5E9050859C204082F
:1001900059C2040859C2040859C2040859C20408C3
:0C01A000000000000000000059C204082C
:1001B00010B5054C237833B9044B13B10448AFF3A1
:1001C00000800123237010BD900700200000000074
:1001D0005C3D060808B5034B1BB103490348AFF368
:1001E000008008BD00000000940700205C3D060868
:1001F00081F0004102E000BF83F0004330B54FEAD8
:1002000041044FEA430594EA050F08BF90EA020F44
:100210001FBF54EA000C55EA020C7FEA645C7FEAD7
:10022000655C00F0E2804FEA5454D4EB5555B8BFFA
:100230006D420CDD2C4480EA020281EA030382EA6B
:10024000000083EA010180EA020281EA0303362DFD
:1002500088BF30BD11F0004F4FEA01314FF4801CD0
:100260004CEA113102D0404261EB410113F0004FE2
:100270004FEA03334CEA133302D0524263EB430399
:1002800094EA050F00F0A780A4F10104D5F1200E37
:100290000DDB02FA0EFC22FA05F2801841F1000192
:1002A00003FA0EF2801843FA05F359410EE0A5F166
:1002B00020050EF1200E012A03FA0EFC28BF4CF097
:1002C000020C43FA05F3C01851EBE37101F000454D
:1002D00007D54FF0000EDCF1000C7EEB00006EEB5A
:1002E0000101B1F5801F1BD3B1F5001F0CD34908E4
:1002F0005FEA30004FEA3C0C04F101044FEA44523B
:1003000012F5800F80F09A80BCF1004F08BF5FEAC1
:10031000500C50F1000041EB045141EA050130BDA1
:100320005FEA4C0C404141EB010111F4801FA4F144
:100330000104E9D191F0000F04BF01460020B1FA99
:1003400081F308BF2033A3F10B03B3F120020CDAD1
:100350000C3208DD02F1140CC2F10C0201FA0CF0AF
:1003600021FA02F10CE002F11402D8BFC2F1200C14
:1003700001FA02F120FA0CFCDCBF41EA0C019040CA
:10038000E41AA2BF01EB0451294330BD6FEA040413
:100390001F3C1CDA0C340EDC04F11404C4F12002FE
:1003A00020FA04F001FA02F340EA030021FA04F310
:1003B00045EA030130BDC4F10C04C4F1200220FA67
:1003C00002F001FA04F340EA0300294630BD21FAA5
:1003D00004F0294630BD94F0000F83F4801306BF6B
:1003E00081F480110134013D4EE77FEA645C18BF5F
:1003F0007FEA655C29D094EA050F08BF90EA020FF6
:1004000005D054EA000C04BF1946104630BD91EAED
:10041000030F1EBF0021002030BD5FEA545C05D1F0
:100420004000494128BF41F0004130BD14F580042F
:100430003CBF01F5801130BD01F0004545F0FE41A3
:1004400041F470014FF0000030BD7FEA645C1ABFD8
:10045000194610467FEA655C1CBF0B46024650EA0F
:10046000013406BF52EA033591EA030F41F400213B
:1004700030BD00BF90F0000F04BF0021704730B5C1
:100480004FF4806404F132044FF000054FF0000196
:1004900050E700BF90F0000F04BF0021704730B557
:1004A0004FF4806404F1320410F0004548BF40422C
:1004B0004FF000013EE700BF42004FEAE2014FEA81
:1004C00031014FEA02701FBF12F07F4393F07F4F5C
:1004D00081F06051704732F07F4208BF704793F05F
:1004E0007F4F04BF41F40021704730B54FF4607472
:1004F00001F0004521F000411CE700BF50EA010275
:1005000008BF704730B54FF000050AE050EA01021D
:1005100008BF704730B511F0004502D5404261EB8D
:1005200041014FF4806404F132045FEA915C3FF4CE
:10053000D8AE4FF003025FEADC0C18BF03325FEA6B
:10054000DC0C18BF033202EBDC02C2F1200300FA1C
:1005500003FC20FA02F001FA03FE40EA0E0021FA41
:1005600002F11444BDE600BF70B54FF0FF0C4CF42F
:10057000E06C1CEA11541DBF1CEA135594EA0C0FE1
:1005800095EA0C0F00F0DEF82C4481EA030621EA1C
:100590004C5123EA4C5350EA013518BF52EA033557
:1005A00041F4801143F4801338D0A0FB02CE4FF009
:1005B0000005E1FB02E506F00042E0FB03E54FF039
:1005C0000006E1FB03569CF0000F18BF4EF0010E31
:1005D000A4F1FF04B6F5007F64F5407404D25FEA2D
:1005E0004E0E6D4146EB060642EAC62141EA5551E0
:1005F0004FEAC52040EA5E504FEACE2EB4F1FD0C22
:1006000088BFBCF5E06F1ED8BEF1004F08BF5FEA9F
:10061000500E50F1000041EB045170BD06F0004651
:1006200046EA010140EA020081EA0301B4EB5C04FE
:10063000C2BFD4EB0C0541EA045170BD41F48011F6
:100640004FF0000E013C00F3AB8014F1360FDEBF1B
:10065000002001F0004170BDC4F10004203C35DAF7
:100660000C341BDC04F11404C4F1200500FA05F37A
:1006700020FA04F001FA05F240EA020001F000421B
:1006800021F0004110EBD37021FA04F642EB060191
:100690005EEA430E08BF20EAD37070BDC4F10C04BB
:1006A000C4F1200500FA04F320FA05F001FA04F27F
:1006B00040EA020001F0004110EBD37041F100016B
:1006C0005EEA430E08BF20EAD37070BDC4F1200576
:1006D00000FA05F24EEA020E20FA04F301FA05F2DE
:1006E00043EA020321FA04F001F0004121FA04F286
:1006F00020EA020000EBD3705EEA430E08BF20EA56
:10070000D37070BD94F0000F0FD101F0004640008F
:1007100041EB010111F4801F08BF013CF7D041EA11
:10072000060195F0000F18BF704703F00046520015
:1007300043EB030313F4801F08BF013DF7D043EAE6
:100740000603704794EA0C0F0CEA135518BF95EA9C
:100750000C0F0CD050EA410618BF52EA4306D1D123
:1007600081EA030101F000414FF0000070BD50EA42
:10077000410606BF1046194652EA430619D094EACC
:100780000C0F02D150EA013613D195EA0C0F05D1B6
:1007900052EA03361CBF104619460AD181EA03010A
:1007A00001F0004141F0FE4141F470014FF00000C2
:1007B00070BD41F0FE4141F4780170BD70B54FF05D
:1007C000FF0C4CF4E06C1CEA11541DBF1CEA1355DD
:1007D00094EA0C0F95EA0C0F00F0A7F8A4EB0504BF
:1007E00081EA030E52EA03354FEA013100F08880B6
:1007F0004FEA03334FF0805545EA131343EA12637F
:100800004FEA022245EA111545EA10654FEA002633
:100810000EF000419D4208BF964244F1FD0404F5EC
:10082000407402D25B084FEA3202B61A65EB030548
:100830005B084FEA32024FF480104FF4002CB6EB05
:10084000020E75EB030E22BFB61A754640EA0C0085
:100850005B084FEA3202B6EB020E75EB030E22BFC5
:10086000B61A754640EA5C005B084FEA3202B6EB06
:10087000020E75EB030E22BFB61A754640EA9C00C5
:100880005B084FEA3202B6EB020E75EB030E22BF95
:10089000B61A754640EADC0055EA060E18D04FEA53
:1008A000051545EA16754FEA06164FEAC30343EAF3
:1008B00052734FEAC2025FEA1C1CC0D111F4801FC0
:1008C0000BD141EA00014FF000004FF0004CB6E7B9
:1008D00011F4801F04BF01430020B4F1FD0C88BF58
:1008E000BCF5E06F3FF6AFAEB5EB030C04BFB6EB63
:1008F000020C5FEA500C50F1000041EB045170BD56
:100900000EF0004E4EEA113114EB5C04C2BFD4EB82
:100910000C0541EA045170BD41F480114FF0000E06
:10092000013C90E645EA060E8DE60CEA135594EA82
:100930000C0F08BF95EA0C0F3FF43BAF94EA0C0F85
:100940000AD150EA01347FF434AF95EA0C0F7FF4FA
:1009500025AF104619462CE795EA0C0F06D152EA4E
:1009600003353FF4FDAE1046194622E750EA410632
:1009700018BF52EA43067FF4C5AE50EA41047FF443
:100980000DAF52EA43057FF4EBAE12E74FF0FF3CA8
:1009900006E000BF4FF0010C02E000BF4FF0010C79
:1009A0004DF804CD4FEA410C7FEA6C5C4FEA430CF2
:1009B00018BF7FEA6C5C1BD001B050EA410C0CBF41
:1009C00052EA430C91EA030F02BF90EA020F0020A3
:1009D000704710F1000F91EA030F58BF994208BF0A
:1009E00090422CBFD8176FEAE37040F001007047C7
:1009F0004FEA410C7FEA6C5C02D150EA013C07D11E
:100A00004FEA430C7FEA6C5CD6D152EA033CD3D068
:100A10005DF8040B704700BF8446104662468C4662
:100A20001946634600E000BF01B5FFF7B7FF002895
:100A300048BF10F1000F01BD4DF808EDFFF7F4FFBE
:100A40000CBF012000205DF808FB00BF4DF808ED49
:100A5000FFF7EAFF34BF012000205DF808FB00BF6C
:100A60004DF808EDFFF7E0FF94BF012000205DF88E
:100A700008FB00BF4DF808EDFFF7CEFF94BF012043
:100A800000205DF808FB00BF4DF808EDFFF7C4FF3C
:100A900034BF012000205DF808FB00BF4FEA410C85
:100AA0007FEA6C5C02D150EA013C0AD14FEA430C68
:100AB0007FEA6C5C02D152EA033C02D14FF00000A5
:100AC00070474FF0010070474FEA410212F50012E3
:100AD00015D211D56FF47873B3EB625212D94FEA85
:100AE000C12343F0004343EA505311F0004F23FA6F
:100AF00002F018BF404270474FF00000704750EAC4
:100B0000013005D111F0004008BF6FF00040704780
:100B10004FF00000704700BF4FEA4102B2F1E043DE
:100B200024BFB3F5001CDCF1FE5C0DD901F0004CD4
:100B30004FEAC0024CEA5070B2F1004F40EB830024
:100B400008BF20F00100704711F0804F21D113F150
:100B50003872BCBF01F00040704741F480114FEA89
:100B60005252C2F11802C2F1200C10FA0CF320FA12
:100B700002F018BF40F001004FEAC1234FEAD3232F
:100B800003FA0CFC40EA0C0023FA02F34FEA430399
:100B9000CCE77FEA625307D150EA01331EBF4FF022
:100BA000FE4040F44000704701F0004040F0FE403D
:100BB00040F40000704700BF034613F8012B002AE1
:100BC000FBD1181A01387047000000000000000037
:100BD00001F0FF01102A2BDB10F0070F08D010F8EE
:100BE000013B013A8B422DD010F0070F42B3F6D1F2
:100BF000F0B441EA012141EA014122F007047FF00B
:100C000000070023F0E80256083C85EA010586EA61
:100C1000010685FA47F5A3FA87F586FA47F6A5FA9D
:100C200087F68EB9EED1F0BC01F0FF0102F00702A9
:100C300032B110F8013B013A83EA010313B1F8D154
:100C40000020704701387047002D06BF3546033835
:100C5000073815F0010F07D1013015F4807F02BF6E
:100C6000013015F4C03F0130F0BC0138704700BFBF
:100C700080B582B000AF786038200CF066FA034689
:100C8000002B0ED1944B1B680D22012193480CF0D0
:100C900065FC934B1B680D22012190480CF05EFC13
:100CA0000DE08D4B1B680C2201218E480CF056FC88
:100CB0008B4B1B680C2201218A480CF04FFC3C2016
:100CC0000CF043FA0346002B0ED1834B1B680D2218
:100CD000012185480CF042FC814B1B680D2201214B
:100CE00081480CF03BFC0DE07B4B1B680C22012182
:100CF0007E480CF033FC7A4B1B680C2201217B48A8
:100D00000CF02CFC30200BF0A8FA0346012B0ED17E
:100D1000714B1B680D22012175480CF01FFC704BB4
:100D20001B680D22012172480CF018FC02E071488A
:100D30000AF0E0FD32200BF090FA0346012B0ED1B1
:100D4000654B1B680D2201216B480CF007FC644BBE
:100D50001B680D22012168480CF000FC02E0654888
:100D60000AF0C8FD11F088F801220021032011F0DB
:100D700039F90346012B0DD1574B1B6801225F49FE
:100D800018460CF08BFA564B1B6801225B4918463B
:100D90000CF084FA01220021042011F023F903460B
:100DA000012B0DD14C4B1B680222544918460CF004
:100DB00075FA4B4B1B680222504918460CF06EFA2C
:100DC00001220021052011F00DF90346012B0DD160
:100DD000414B1B680322494918460CF05FFA404B0F
:100DE0001B680322454918460CF058FA032011F0FD
:100DF000CBFA0346012B0ED1374B1B680122404929
:100E000018460CF04BFA364B1B6801223C49184639
:100E10000CF044FA0DE0304B1B68012239491846AA
:100E20000CF03CFA2E4B1B680122364918460CF098
:100E300035FA042011F0A8FA0346012B0ED1264BF7
:100E40001B6802222E4918460CF028FA244B1B6816
:100E500002222B4918460CF021FA0DE01E4B1B68AC
:100E60000222284918460CF019FA1D4B1B68022271
:100E7000244918460CF012FA052011F085FA0346B1
:100E8000012B0ED1144B1B6803221D4918460CF090
:100E900005FA134B1B680322194918460CF0FEF99A
:100EA0000DE00D4B1B680322164918460CF0F6F9AD
:100EB0000B4B1B680322134918460CF0EFF9012075
:100EC0001EF006FF01201EF003FF01201EF0E4FECD
:100ED00001F07EFDFCE700BF14000020783D06080D
:100EE0000C000020883D0608983D0608A83D06082D
:100EF000B83D06086CB10120C83D0608D83D06087B
:100F0000EC3D0608FC3D060880B59CB000AF07F13B
:100F1000540300221A605A609A60DA601A619A8259
:100F2000002387F8513007F15403184600F09CFA6B
:100F300007F1510207F1520107F15403184600F07E
:100F40008FF997F85130002B01D001237BE000236B
:100F5000A7F86A3007F1380207F144031146184632
:100F600001F018FC07F14403184601F093FE07F165
:100F70003803184601F08EFE07F144023B1D344948
:100F8000184620F0CFFE3B1D184601F027FB00233A
:100F9000A7F86E3050E007F15403184600F064FAE9
:100FA00007F1510207F1520107F15403184600F00E
:100FB00057F9284B1B68B7F85220274918460CF000
:100FC0006DF9B7F85230002B3BD0B7F85230C82B30
:100FD00028BFC823A7F86A300023A7F86C3010E0B8
:100FE000B7F86C2013469B0113449B001A461B4B19
:100FF0001344184600F03CFCB7F86C300133A7F8F6
:101000006C30B7F86C20B7F86A309A42E8D3012008
:101010001EF042FEB7F86A2013469B0113449B0062
:101020001A4607F144030D49184601F0D5FEB7F8FA
:101030006E300133A7F86E30B7F86E30232BAAD983
:1010400000E000BF002318467037BD4680BD00BFDA
:10105000103E060814000020243E0608AC070020BD
:1010600080B582B000AF01201EF016FE01221021D3
:10107000234814F0F5FD00F0AFF801F035FC002333
:10108000FB710023BB710023FB7116E001201EF0F1
:1010900003FE00F0CDF80346BB71BB79002B10D0E6
:1010A000184801F09BFA184801F098FA4FF4FA70CA
:1010B0000BF0AEFEFB790133FB71FB79032BE5D915
:1010C00000E000BFBB79002B04D00E4801F086FA87
:1010D000012311E00121002000F040FD0B4801F048
:1010E0007DFA01201EF0D8FD0021102000F036FD11
:1010F000074801F073FA002318460837BD4680BD43
:10110000000002403C3E0608583E06087C3E0608A9
:10111000943E060880B500AF0121022000F01EFDBC
:101120000346002B04D0044801F058FA012300E0E4
:101130000023184680BD00BFAC3E060880B590B0C5
:1011400000AF0346FB80FB88002B07D10121032061
:1011500000F004FD0E4801F041FA15E0FB88194645
:10116000012000F0FBFC0021032000F0F7FCFA88CE
:1011700007F10C030749184620F0D4FD07F10C03D2
:10118000184601F02BFA00BF4037BD4680BD00BFB6
:10119000D83E0608F03E060880B500AF0B4B1B6832
:1011A000142201210A480CF0D9F90121062001F08E
:1011B0005BF9064B1B681522012106480CF0CEF99D
:1011C0000121052001F050F900BF80BD140000206E
:1011D000683F0608803F060880B500AF114B1B68CA
:1011E0001422012110480CF0B9F90021052001F06A
:1011F0003BF90121062000F05FFE0A4B1B68132219
:1012000001210A480CF0AAF90021062001F02CF96E
:101210000121062000F050FE0121012000F0C6FE51
:1012200000BF80BD14000020983F0608B03F0608AC
:1012300080B500AF00F092FB0346002B01D00123E4
:101240000BE00121052000F037FE00F087FB03468C
:10125000002B01D0022300E00023184680BD0000CF
:10126000B0B5B4B000AFF860B9607A60FB689B7845
:1012700087F8CF30FB6803331B781B021AB2FB6878
:1012800004331B781BB213431BB2A7F8CC30FB68A6
:1012900005331B781B021AB2FB6806331B781BB29E
:1012A00013431BB2A7F8CA30FB6807331B781A0632
:1012B000FB6808331B781B041A43FB6809331B784F
:1012C0001B021343FA680A3212781343C7F8C4307A
:1012D0007B6800221A7097F8CF30002B0FD007F1EF
:1012E0002C035A4A1C4615460FCD0FC495E803003F
:1012F00020600434218002340B0C23700AE007F1D3
:101300002C03534A1C4615460FCD0FC495E8030025
:1013100084E80300B7F8CC3003F00103002B0FD0B2
:1013200007F12C031846FFF747FC03461A4607F15E
:101330002C03134447491A460B4603CB10605160F7
:10134000B7F8CC3003F00203002B10D007F12C03C8
:101350001846FFF731FC03461A4607F12C031344E5
:101360003D4A1C46134607CB20606160A260B7F877
:10137000CC3003F00803002B12D007F12C031846E1
:10138000FFF71AFC03461A4607F12C031344334AAD
:101390001C46134607CB20606160A2601B78237354
:1013A000B7F8CC3003F01003002B27D007F12C0343
:1013B0001846FFF701FC03461A4607F12C031344B5
:1013C00027491A460B4603CB106051601B781372F5
:1013D00007F1140300221A605A609A60DA601A61F9
:1013E0009A8207F11403184600F0A2F807F11403DB
:1013F000184600F045F97B6801221A70B7F8CC3026
:1014000003F02003002B16D007F12C031846FFF73A
:10141000D3FB03461A4607F12C03134411491A461D
:101420000B4603CB1060516019889B781181937231
:101430007B6801221A70BB68B7F8CA201A80B7F817
:10144000CC301846D037BD46B0BD00BFC43F0608FB
:10145000DC3F0608F43F0608FC3F06080840060883
:10146000184006082440060880B584B000AF7860B4
:101470000023BB600023FB7307E0FB7B7A68134407
:1014800000221A70FB7B0133FB73FB7B152BF4D915
:1014900091233B7201237B7207F108030421184654
:1014A00000F0BCFB03200BF0B3FC0122162178688E
:1014B00000F08CFC0346002B01D0022329E07B685E
:1014C00004331B78922B02D1144801F087F8144B97
:1014D0001B680A22012113480CF040F80023FB731B
:1014E0000CE00F4B1868FB7B7A6813441B781A4694
:1014F0000D490BF0D3FEFB7B0133FB73FB7B152BFC
:10150000EFD9074B1B680222012108480CF026F88E
:10151000002318461037BD4680BD00BF3040060886
:101520001400002038400608444006084C400608D5
:1015300080B5ACB000AF786007F1A80300221A6054
:101540001A7107F110039622002118461FF0CEFEF3
:10155000942387F8A830012387F8A930152387F84A
:10156000AA3007F1A8030521184600F057FB002315
:1015700087F8AF300AE097F8AF307A68134400225A
:101580001A7097F8AF30013387F8AF3097F8AF3063
:10159000152BF0D907F1A8030521184600F0ECFB44
:1015A0000346002B04D0314801F018F8012359E01C
:1015B00004200BF02DFC01221621786800F006FCB7
:1015C0000346002B04D02A4801F008F8022349E022
:1015D00007F110031846FFF7EFFA03461A4607F122
:1015E0001003134423491A460B4603CB1060516085
:1015F00019889B7811819372002387F8AF3018E027
:1016000097F8AF307A6813441B781A4607F108033D
:101610001949184620F086FB07F1080207F110036C
:101620001146184620F0CAFB97F8AF30013387F80F
:10163000AF3097F8AF30152BE2D907F110031846F9
:10164000FFF7BAFA03461A4607F1100313440B4A90
:101650001188927819809A7007F11003184600F0EB
:10166000BDFF00231846B037BD4680BD5040060878
:101670006840060838400608444006084C40060802
:10168000F0B5B7B000AF786007F10C03C8220021B5
:1016900018461FF02BFE07F10C031846FFF78CFAD3
:1016A00003461A4607F10C0313446A4A1D461446C2
:1016B0000FCC28606960AA60EB6003CC2861696187
:1016C00023782B767B6802331B781B021AB27B6867
:1016D00003331B781BB213431BB2A7F8D630B7F8FD
:1016E000D63003F00103002B18D007F10C03184685
:1016F000FFF762FA03461A4607F10C031344564AF1
:101700001C4615460FCD20606160A260E36028682A
:101710002061AB88AA79A3821346A375B7F8D630A7
:1017200003F00203002B16D007F10C031846FFF755
:1017300043FA03461A4607F10C031344474A1D4671
:1017400014460FCC28606960AA60EB6003CC286166
:10175000696123782B76B7F8D63003F00303002BAA
:1017600011D007F10C031846FFF726FA03461A4674
:1017700007F10C0313443A4A1C4615460FCD20606E
:101780006160A260E360B7F8D63003F00503002B78
:1017900015D007F10C031846FFF70EFA03461A4658
:1017A00007F10C0313442F4A1D4614460FCC286042
:1017B0006960AA60EB602068286123792B75B7F80F
:1017C000D63003F00603002B13D007F10C031846A4
:1017D000FFF7F2F903461A4607F10C031344224AB5
:1017E0001D4614460FCC28606960AA60EB60206833
:1017F0002861B7F8D63003F00703002B1ED007F19D
:101800000C031846FFF7D8F903461A4607F10C03F4
:101810001344164A14469C4604F1200E654626469B
:101820000FCE28606960AA60EB6010340CF1100CD8
:101830007445F3D16346224612781A7007F10C03FF
:10184000184600F0CBFEB7F8D6301846DC37BD4658
:10185000F0BD00BF7C40060898400608B04006086E
:10186000CC400608DC400608F4400608084106089B
:1018700080B584B000AF786007F1080300221A60D9
:101880001A7197233B7201237B720023BB7207F10D
:1018900008030521184600F0C1F907F108030521E6
:1018A000184600F069FA0346002B01D0012347E0F7
:1018B00004200BF0ADFA00221021234814F0D0F9D7
:1018C00040F6B8334FF48272796820481AF07CFDF4
:1018D0000346FB73012210211B4814F0C1F9FB7B66
:1018E000002B08D01A4B1B682422012119480BF049
:1018F00035FE022324E007F10803012200211846E7
:1019000000F064FA0346002B01D0032318E04FF4E3
:101910008271786800F0A5F9034683F00103DBB219
:10192000002B07D00A4B18687B681B781A460A49B7
:101930000BF0B4FC4FF48271786800F01BFB0023BD
:1019400018461037BD4680BD0000024028B5012072
:10195000140000202C4106085441060880B500AF51
:101960000021012000F044F80346184680BD000025
:1019700080B500AF184B1B881946002000F0EEF828
:10198000164B1B881946122000F0E8F8134B1B88F1
:101990001946122000F0E2F8114B1B8819460B2063
:1019A00000F0DCF80F4B1B881946132000F0D6F826
:1019B0000D4B1B881946072000F0D0F80B4B1B88F5
:1019C0001946082000F0CAF80121002000F010F8A4
:1019D0000346184680BD00BF000000200200002022
:1019E000D0D20020CED20020D2D20020D4D20020EB
:1019F000B0B596B004AF03460A46FB711346BB71FF
:101A000007F1280300221A605A609A60DA601A61AE
:101A10005A611A7607F1200300221A601A71FB79C5
:101A2000002B03D0902387F8283002E0922387F818
:101A30002830012387F82930BB79002B03D00123FC
:101A400087F82A3002E0002387F82A303D4B1A68D5
:101A500007F10C0319463C4818F019FE394B1A6877
:101A600007F108031946384818F024FF374B186867
:101A70007B7A1C46BB7A1D463B7B7A7BB97B029105
:101A8000019200932B46224631490BF007FCBB7BA9
:101A900019467B7B1A4613461B019B1A9B00CA18EA
:101AA0003B7B19464FF4616303FB01F31A44BB7A95
:101AB0001946284B03FB01F31A447B7A1946264B3F
:101AC00003FB01F313447B647B6C1B0EDBB287F8D2
:101AD0002D307B6C1B0CDBB287F82E307B6C1B0A25
:101AE000DBB287F82F307B6CDBB287F8303007F140
:101AF00028031921184600F091F807F1280319214D
:101B0000184600F039F90346002B01D0012315E0F7
:101B100003200BF07DF907F1200300220521184670
:101B200000F054F90346002B01D0022306E007F130
:101B300020030521184600F01DFA002318464837F7
:101B4000BD46B0BDD8D2002090B3012014000020C3
:101B50006441060880510100008D270080B586B0E1
:101B600000AF03460A46FB711346BB8007F1100322
:101B700000221A60C3F8032007F1080300221A604C
:101B80001A7193233B7401237B74FB79BB74BB886C
:101B90001B0A9BB2DBB2FB74BB88DBB23B7507F15F
:101BA00010030721184600F039F807F11003072148
:101BB000184600F0E1F80346002B08D0144B1B68D0
:101BC0001C22012113480BF0C9FC01231CE0032057
:101BD0000BF01EF907F1080300220521184600F05A
:101BE000F5F80346002B08D0094B1B681D22012184
:101BF00009480BF0B3FC022306E007F108030521B6
:101C0000184600F0B7F9002318461837BD4680BDC6
:101C10001400002094410608B441060880B584B041
:101C200000AF786039603B68023B1A4679684FF62E
:101C3000FF7000F043F80346FB81FB891B0A99B251
:101C40003B68023B7A681344CAB21A703B68013B96
:101C50007A681344FA89D2B21A7000BF1037BD46B1
:101C600080BD80B584B000AF786039603B68023BCE
:101C70001A4679684FF6FF7000F020F80346FB81A2
:101C8000FB891B0A9BB27B73FB893B733B68023B5E
:101C90007A6813441B787A7B9A4209D13B68013BEE
:101CA0007A6813441B783A7B9A4201D1012300E001
:101CB000002318461037BD4680BD000080B5ADF545
:101CC000087D00AF07F1080319603B1D1A6007F19A
:101CD0000E0302461A8007F11003264A18461146E1
:101CE0004FF400731A461FF0F6FA4FF6FF73A7F889
:101CF0001E320023A7F81C322EE0B7F81C3207F181
:101D00000802126813441B78A7F81A32B7F81E327B
:101D10001B0AA7F81832B7F81822B7F81A3253403E
:101D2000A7F81632B7F81632DBB2A7F81432B7F8B4
:101D30001E321B02A7F81232B7F8142207F1100363
:101D400033F81220B7F812325340A7F81E32B7F812
:101D50001C320133A7F81C32B7F81C323A1D126846
:101D60009A42CADCB7F81E32184607F50877BD4616
:101D700080BD00BFD441060880B586B002AF786050
:101D800039600123FB733B689AB2642300931346C6
:101D90007A68CC210A4814F0A5F80346FB73FB7B54
:101DA000002B08D0074B1B682622012106480BF0A8
:101DB000D5FBFB7B00E0002318461037BD4680BDF5
:101DC000B4AF012014000020D443060880B588B0C9
:101DD00002AFF860B9601346FB710123FB7507F190
:101DE000100300221A601A71BB68002B2ED0BB684A
:101DF0009AB2642300931346FA68CC21294814F060
:101E00007FF90346FB75FB7D002B08D0264B1B6832
:101E10002522012125480BF0A1FBFB7D3EE0BB689C
:101E2000B3F5827F05D1FB6891221A70FB68952279
:101E30001A70B968F868FFF714FF034683F00103CE
:101E4000DBB2002B02D01A4800F0C8FBFB79002B54
:101E500023D0FB681B783B7401237B747E23BB7407
:101E600007F1100305211846FFF7D8FE07F110020D
:101E7000642300930523CC210A4814F033F8034669
:101E8000FB75FB7D002B08D0074B1B681C22012132
:101E900008480BF063FB022300E0002318461837C4
:101EA000BD4680BDB4AF012014000020FC430608ED
:101EB000244406084C44060880B584B000AF0346AD
:101EC0000A46FB8013467B717B79002B06D0244B9E
:101ED0001B68FA88234918460BF0E0F901201DF031
:101EE000DBFE0023FB8124E064200AF091FF012047
:101EF0001DF0D2FE7B79002B18D0FA891A4BA3FB78
:101F00000213D9080B469B000B445B00D31A9BB20B
:101F1000002B0BD1124B1868FB89134AA2FB032339
:101F2000DB089BB21A4611490BF0B8F9FB89013363
:101F3000FB81F989FA8813469B0013445B009942A0
:101F4000D2DB7B79002B06D0054B1B6802220121D6
:101F500007480BF003FB00BF1037BD4680BD00BF34
:101F6000140000206C440608CDCCCCCC8444060878
:101F70008C44060880B582B000AF786039603B6859
:101F8000052B0BD17B6802331B787E2B06D1054BCA
:101F90001B680F22012104480BF0E0FA00BF08374C
:101FA000BD4680BD14000020904406082DE9F04F86
:101FB000ADF23C5D18AF07F13403186007F1300350
:101FC0001960D04B07F2D4421360CF4B07F59A62E9
:101FD0001360CE4B07F2CC421360CD4B07F59962EC
:101FE0001360CC4B07F2C442136007F13803CA4AAE
:101FF00007CA83E8070007F2BC431946012000F036
:10200000CFF907F597631946022000F0C9F907F5E3
:1020100095631946032000F0C3F907F2AC43194653
:10202000042000F0BDF907F2B44319460E2000F079
:10203000B7F907F5966319460F2000F0B1F907F2DA
:10204000BC431946012000F0ABF907F5946319462B
:10205000102000F0A5F907F2A4431946112000F062
:102060009FF907F52A7319462B2000F099F9AB4B1D
:10207000186807F52A731B681A46A9490BF00EF970
:1020800007F2A4431946102000F08AF907F594637B
:102090001946112000F084F9A24B1B681A46A24988
:1020A000A24818F0F4FA9F4B1B681A46A0499F48B3
:1020B00018F000FC9E4BDB781D469D4B5B781E465E
:1020C0009B4B9B781A46984B1B781946964B5B782E
:1020D0001C46954B9B7807F523700393029401915E
:1020E000009233462A4693491FF01CFED7F8BC34B1
:1020F000FB62D7F8BC3407EE903AB8EEE77A07F205
:10210000D442D2ED007A67EE277A17EE900AFEF7F6
:10211000D3F9C7E90801D7F8B824BA62D7F8B834B8
:1021200007EE903AB8EEE77A07F59A64D4ED007AB4
:1021300067EE277A17EE900AFEF7BEF9C7E90601A7
:10214000D7F8B4447C61D7F8B43407EE903AB8EECF
:10215000E77A07F2CC45D5ED007A67EE277A17EEDD
:10216000900AFEF7A9F9C7E90201D7F8B0543D611A
:10217000D7F8B03407EE903AB8EEE77A07F2CC46DB
:10218000D6ED007A67EE277A17EE900AFEF794F9FB
:1021900082468B46D7F8A0647E60D7F8A4243A60C4
:1021A000D7F8AC64D7F8AC3407EE903AB8EEE77ADB
:1021B00007F2C44CDCED007A67EE277A17EE900A3E
:1021C000FEF77AF980468946D7F8A854D7F8A8349C
:1021D00007EE903AB8EEE77A07F5996CDCED007AF5
:1021E00067EE277A17EE900AFEF766F903460C466B
:1021F00007F5237207F52B70CDE916341495CDE958
:102200001289109639680F917E680E96CDE90CAB55
:102210003D690A9597ED027B8DED087B7C690694FC
:1022200097ED067B8DED047BB96A029197ED087BF3
:102230008DED007BFB6A40491FF074FD07F134030C
:102240001B68012B4AD107F1380107F15C03132207
:1022500018460DF0BBFA034687F8C33497F8C33429
:10226000002B2CD107F1440207F138031146184620
:102270000EF090FB034687F8C33497F8C334002B65
:1022800017D107F144031A6807F15C031146184699
:102290000EF02BF8034687F8C33497F8C334002BAD
:1022A00007D107F52B7207F15C03114618460AF0B7
:1022B000F5FF07F15C0318460DF0E8FF0EE0174B41
:1022C0001B682F2201211D480BF048F9134B1B6896
:1022D00097F8C3241A4918460AF0E0FF07F13003C3
:1022E0001B68012B08D10D4B1868D7F8A424D7F828
:1022F000A03414490AF0D2FF00BF07F2DC47BD4604
:10230000BDE8F08FDD24164033334340713D024079
:102310008FC21540AAF1C23F0C46060814000020E7
:10232000A0440608D8D200204CB1012090B301206F
:102330008CB30120B4440608D44406089C45060822
:10234000CC450608E845060890B585B000AF786032
:1023500007F108031946012000F022F8BB6807EED8
:10236000903AF8EEE77A17EE900AFEF7A5F80AA37E
:10237000D3E90023FEF7F8F803460C461846214639
:10238000FEF7CAFB0346FB607B68FA681A6000BF71
:102390001437BD4690BD00BF5273456B3D2A633F65
:1023A00080B588B004AF03463960FB800023BB735F
:1023B0003B68294A1A6009F013FABB7B002B17D03F
:1023C000FB7B012B0BD0FB7B032B08D0FB7B022B71
:1023D00008D1224B93F83D30DBB2202B02D11F48AD
:1023E00009F088FA05200AF013FDBB7B092B15D8EC
:1023F000FA880A2302930223019307F1080300934A
:1024000001233021154814F0B5F90346FB73BB7B5B
:102410000133BB73FB7B002BCFD100E000BF0F4823
:1024200013F030FDFB7B002B0BD13B7A9BB21B02E0
:102430009AB27B7A9BB21344BB81BA893B681A601B
:1024400006E0074B1B681322012106480BF086F8B3
:1024500000BF1037BD4680BDF1D8FFFFF8B00120A6
:10246000140000201846060880B588B002AF034665
:102470000A46FB8013467B710023BB7507F10C03F2
:102480003B6109F0ADF9BB7D002B17D0FB7D012B23
:102490000BD0FB7D032B08D0FB7D022B08D11B4BFF
:1024A00093F83D30DBB2202B02D1184809F022FA14
:1024B00005200AF0ADFCBB7D092B15D8FB88DBB2EB
:1024C0003B737B797B730A23009302233A693021A3
:1024D0000E4813F007FD0346FB75BB7D0133BB754A
:1024E000FB7D002BCFD100E000BF084813F0CAFCF1
:1024F000FB7D002B06D0064B1B68142201210548EA
:102500000BF02CF800BF1837BD4680BDF8B0012095
:10251000140000202C46060880B500AF01201DF0F5
:10252000BBFB00F0A3FC0346002B04D0164800F0D0
:1025300055F8012325E001201DF0AEFB134800F003
:10254000DFF80346002B04D0114800F047F80223BF
:1025500017E001201DF0A0FB0C4800F023F8034613
:10256000002B04D00B4800F039F8032309E00A4897
:1025700000F034F8094800F031F8094B01221A70D4
:102580000023184680BD00BF4446060818A8012055
:102590006446060890460608A8460608C44606088B
:1025A000D6D2002080B582B000AF7860786800F0A5
:1025B00071FB0346002B04D0064800F00FF80123FE
:1025C00003E0054800F00AF8002318460837BD4626
:1025D00080BD00BF90460608A846060880B584B0B6
:1025E00000AF78600023FB73094B1B78002B04D0ED
:1025F000786800F011F80123FB73064B1B687968BB
:1026000018460AF04BFEFB7B18461037BD4680BDCE
:10261000D6D2002014000020F0B5A1B004AF78603D
:102620002E4B1B681A462E492E4818F030F82B4BBB
:102630001B681A462C492B4818F03CF92A4BDB78CA
:102640001D46294B5B781E46274B9B781A46244B28
:102650001B781946224B5B781C46214B9B7807F16F
:102660000C00039302940191009233462A461F49BD
:102670001FF058FB07F10C031846FEF79DFA0346BE
:102680001A4607F10C031344194A118892781980ED
:102690009A7007F10C03796818461FF08FFB07F159
:1026A0000C031846FEF788FA03469AB207F10C03AA
:1026B0001946104800F044FB0346002B08D00E4B8F
:1026C0001B681B2201210D480AF048FF012300E08E
:1026D000002318467437BD46F0BD00BFD8D2002095
:1026E0004CB1012090B301208CB30120E8460608CC
:1026F0000847060818A80120140000200C47060807
:1027000080B594B000AF78600023A7F84E30002366
:1027100087F84D3018E0B7F84E2007F140031B4909
:1027200018461FF0FFFA07F14003184600F068FC56
:102730000346002B03D1012387F84D3004E0B7F89E
:102740004E300133A7F84E3097F84D3083F0010337
:10275000DBB2002BDFD101201DF09EFA07F1400211
:1027600007F10C030A4918461FF0DCFA07F10C03C5
:102770001846FFF733FF07F14003194678681FF04A
:102780002CFB002318465037BD4680BD284706085D
:102790003047060880B596B000AF786039600023F6
:1027A000A7F856300023BB6407F14C0300221A60DF
:1027B0009A800023FB6307F1400300221A609A808D
:1027C000002387F855301BE0B7F8562007F148037F
:1027D000284918461FF0A6FA07F14803184600F0EA
:1027E0000FFC0346002B03D1012387F8553007E087
:1027F00001201DF051FAB7F856300133A7F85630D2
:1028000097F8553083F00103DBB2002BDCD10120B7
:102810001DF042FA0023BB6007F10C032E220021B9
:1028200018461EF063FDB7F8562007F13C03124925
:1028300018461FF077FA07F1480207F108030F491D
:1028400018461FF06FFA07F108031846FFF7C6FE97
:1028500007F14803194678681FF0BFFA07F13C03F7
:10286000194638681FF0B9FA002318465837BD4694
:1028700080BD00BF4C470608584706083047060889
:1028800080B582B000AF1348FFF7A8FE124813F0DE
:10289000F9FA4FF4FA700AF0BBFA0F4813F012FA83
:1028A0000346FB710D48FFF799FE0D4819F027FC10
:1028B0004FF4FA700AF0ACFA094819F0B4FB034679
:1028C000FB714FF4FA700AF0A3FA00BF0837BD4657
:1028D00080BD00BF64470608B4AF012074470608F6
:1028E00028B501200000000090B59BB000AF4FF06C
:1028F00000037B6601201DF0CFF907F16403184641
:10290000FFF722FD01210120FFF750FB7B6E1846E7
:10291000FDF7D2FD03460C4638461A4623462A499F
:102920001FF000FA3B461846FFF758FE7B6E18462C
:10293000FDF7C2FD22A3D3E90023FEF787F8034683
:10294000002B00D136E001210120FFF72FFBFEF71D
:1029500023FC01210120FFF729FB22E01B48FFF7A0
:102960003DFE01201DF098F944F620600AF050FA6F
:102970007B6E1846FDF7A0FD03460C4638461A4606
:10298000234611491FF0CEF93B461846FFF726FEB5
:1029900001210120FFF70AFB07F164031846FFF746
:1029A000D3FCD7ED197AB1EE007AF4EEC77AF1EEE6
:1029B00010FAD3D400BF6C37BD4690BDAFF3008092
:1029C0006666666666660C4084490608A049060885
:1029D00080B5A2B002AF012387F87C3007F158031D
:1029E0002222002118461EF081FCFEF7D5FB0023B1
:1029F00087F8573007F1400300221A605A609A6046
:102A0000DA601A619A820023FB87052387F87B30FE
:102A100007F1340300221A605A601A810023BB8632
:102A20005023FB869F233B87EE237B8740F23D1399
:102A3000BB8701210920FFF717FD01210820FFF7BF
:102A400013FD01210120FFF7B1FAFFF765FD0346F1
:102A5000002B02D08248FFF7C1FD01201DF01CF9B8
:102A60004FF47A700AF0D4F9FEF7FAFA0346002B15
:102A70000BD001201DF010F97A48FFF7AFFD7A481E
:102A8000FFF7ACFDFFF7FCFEE7E0002387F87D30A1
:102A9000D7E007F158026423009320238C21734868
:102AA00013F02EFB034687F87C303B463222002190
:102AB00018461EF01BFC07F158023B466C491846AD
:102AC0001FF030F93B461846FFF788FD09200AF051
:102AD0009FF9FFF709FF01210120FFF767FA654B16
:102AE0001B785B0007F18002134433F84C3C184616
:102AF000FEF724FB002387F87F301AE001201DF049
:102B0000CBF8FEF735FF034687F87E3097F87E3026
:102B1000002B13D05848FFF761FD4FF47A700AF08C
:102B200077F95648FFF75AFD97F87F30013387F859
:102B30007F3097F87F30032BE0D900E000BF97F893
:102B40007E30002B40F0888007F140031846FEF7E6
:102B50008BFC07F1570207F13E0107F140031846CD
:102B6000FEF77EFB01201DF097F8FEF7D3FA012057
:102B70001DF092F8002387F87F302FE007F157020D
:102B800007F13E0107F140031846FEF769FB0346D3
:102B900003F00203002B03D03948FFF71FFD21E0AB
:102BA0003848FFF71BFD4FF47A700AF031F907F14E
:102BB00040031846FEF758FC0346002B06D0324867
:102BC000FFF70CFD4FF47A700AF022F901201DF096
:102BD00063F897F87F30013387F87F3097F87F30BC
:102BE000592BCBD92948FFF7F9FC224B1B785B0006
:102BF00007F18002134433F84C3C1A463B46244903
:102C000018461FF08FF83B461846FFF7E7FC0021F7
:102C10000020FEF7EDFEFEF777F9164B1B78013327
:102C2000DAB2144B1A70134B1B78042B02D9114BD8
:102C300000221A7001210020FEF7DAFE01201DF0AB
:102C40002BF897F87D30013387F87D3097F87D3089
:102C50001D2B7FF61EAF00E000BF8037BD4680BD54
:102C6000C4490608D8490608F4490608B4AF01204B
:102C7000144A0608D7D20020204A06083C4A060813
:102C80004C4A0608804A0608984A0608B44A0608CC
:102C9000D04A060880B584B000AF78601222796807
:102CA00021480CF093FD0346FB73FB7B052B09D1F8
:102CB000786800F02DF90A2279681B480CF086FD2F
:102CC0000346FB73FB7B002B24D0184B1B687968F1
:102CD00018460AF0E3FA154B1B681F22012114481D
:102CE0000AF03CFC114B1B68FA7B124918460AF0AB
:102CF000D5FA0E4B1B68022201210F480AF02EFC68
:102D00000A4B1B68122201210C480AF027FC0223FF
:102D1000BB7304E004480DF0B9FA0023BB73BB7B1E
:102D200018461037BD4680BD94B501201400002020
:102D3000E84A0608084B0608104B0608144B06081C
:102D400080B586B000AFF860B9601346FB803222D0
:102D5000F9681D480CF03AFD0346002B0BD000F03B
:102D600025FA1A4B1B681F22012119480AF0F6FBAD
:102D70000223FB7522E0FA8807F11003B9681248B4
:102D80000DF057F80346BB753B69002B02D0BB7DA5
:102D9000002B0ED000F00AFA0C4B1B681722012101
:102DA0000C480AF0DBFB08480DF070FA0123FB75B4
:102DB00004E005480DF06AFA0023FB75FB7D184618
:102DC0001837BD4680BD00BF94B501201400002017
:102DD000E84A0608284B060880B586B000AFF860C0
:102DE000B9607A603222F9681C480CF0EFFC0346A7
:102DF000002B0BD000F0DAF9194B1B681F220121C0
:102E000018480AF0ABFB0223FB7521E007F1100321
:102E10007A68B96811480DF00CF80346BB753B6938
:102E20007A689A4202D1BB7D002B0CD00C4B1B68F8
:102E3000172201210C480AF091FB08480DF026FAF0
:102E40000123FB7504E005480DF020FA0023FB7513
:102E5000FB7D18461837BD4680BD00BF94B50120E4
:102E600014000020E84A0608284B060880B5ADF596
:102E7000047D02AF002387F807320022124913486D
:102E80000CF040FC0346002B14D01148FFF7A6FBC2
:102E90003A1D4FF4007300931346002207210A489D
:102EA0000DF078FF0346002B04D00A48FFF796FB8D
:102EB000012303E00848FFF791FB0023184607F5BC
:102EC0000277BD4680BD00BF90B50120C4B7012088
:102ED000584B0608984B0608EC4B060880B584B0A2
:102EE00000AF78607868FDF767FE03460133184647
:102EF0001EF0D2F90346FB60FB68002B03D0796813
:102F0000F8681EF06AFFFB6818461037BD4680BDA2
:102F100080B586B000AF786001201CF0BDFE7868F7
:102F2000FFF7DCFFF860F868FDF746FE03463B61FB
:102F300002E03B69013B3B613B69002B06D03B69EA
:102F4000013BFA6813441B782F2BF2D13B69002B0D
:102F500002D03B69013B3B613B69002B3DD03B69A3
:102F6000FA68134400221A70F8680DF005FE034653
:102F7000FB75FB7D002B1BD01B4B1B68FA7D1B498F
:102F800018460AF08BF9184B1B68022201211848D9
:102F90000AF0E4FA144B1B681222012115480AF0CA
:102FA000DDFA114B1B68FA68134918460AF076F9E6
:102FB000FB7D052B07D1F868FFF7AAFFF8680DF035
:102FC000DBFD0346FB75FB7D002B06D1064B1B6822
:102FD000FA680A4918460AF061F9F8681EF064F9BF
:102FE00000BF1837BD4680BD14000020084B0608FE
:102FF000104B0608144B0608104C0608284C06080F
:1030000080B596B000AF7860022387F8573007F19B
:103010003C03194678680DF0BDFC034687F856302E
:1030200097F85630002B02D0042B04D007E0012380
:1030300087F857300FE0002387F857300BE007F18F
:1030400008037A68074918461EF06CFE07F108036A
:103050001846FFF7C3FA97F8573018465837BD4659
:1030600080BD00BF3C4C0608B0B58AB000AF3A4BFB
:103070003A4A1A6008F044FF394B5B6A384A43F415
:10308000E023536272B6364B364A9A6062B6344BCE
:103090005B69334A43F00403536100F0BFF81BF04F
:1030A000C9FA08F021F908F0A1F908F047FE08F084
:1030B00005FB08F03DFB08F0C1FB08F0EDFB08F054
:1030C00079FC08F0ADFC08F0E3FC08F017FD08F00F
:1030D000E1FD08F087FD08F007FE08F07FFE224BB7
:1030E0001B68184600F0CEFB204B1B68184600F00A
:1030F000C9FB1F4B5B691E4A23F0200353611D4B24
:1031000007F114041D460FCD0FC42B68236007F18F
:1031100014030021184609F054FE0246164B1A60AB
:1031200000F0DAF91CF04AFD144B3C461D460FCD69
:103130000FC42B6823603B460021184609F041FE6E
:1031400002460F4B1A60012240210E4812F088FD02
:1031500009F014FEFEE700BF3404002050280040B0
:1031600000ED00E000000408140000200C00002026
:1031700000080240804C060824A80120A44C060840
:1031800028A801200018024080B582B000AF786006
:103190007B681B68044A934201D11BF06DFA00BFA3
:1031A0000837BD4680BD00BF0000014080B500AFBC
:1031B000104B5B690F4A43F0100353610D4B5B6981
:1031C0000C4A43F0200353614FF4FA601BF06EFA8F
:1031D000084B5B69074A23F010035361054B5B6999
:1031E000044A23F0200353614FF4FA601BF05EFAA7
:1031F000DEE700BF0008024080B500AFFFF7D6FF52
:1032000000BF80BD80B582B000AF78603960FFF745
:10321000CDFF00BF0837BD4680BD000080B500AFC0
:1032200000F01CF902460E4B1A600D4B1B68002B78
:103230000CD14FF4806200210A481EF057F8094B68
:10324000094A1A60064B094A1A6007E0044B1B68DA
:103250004FF48062194603481EF03DF800BF80BD60
:103260002CAC01202CA801202143AA5500001E08E7
:1032700090B591B000AF002387F8373012F0B2F864
:1032800000F0A8F8F863FB6B002B1BD100237B60D8
:1032900001233B611723FB6002237B6107F11802C6
:1032A0003B1D1146184611F0FFFE0346002B07D0C8
:1032B00012F0C2F83863FFF779FF12F0ADF847E07B
:1032C000254BFB63254B264A1A6007F11C03194660
:1032D000224800F04BF8FB69204AC2F8FC33002377
:1032E000FB62204BF322DA600023BB6322E01B4A1F
:1032F000BB6B13441B78DBB24FF00004C7E9083402
:10330000FA6BBB6BD118D7E90823F86A12F016F8EC
:10331000034687F8373097F83730002B05D012F086
:103320008BF83863FFF742FF0DE0FA6ABB6B13447A
:103330000133BB63FB6A01334FF48062B2FBF3F3EA
:10334000BA6B9A42D3D312F067F8074AFB6B13604B
:103350004437BD4690BD00BF00001E082CA80120C8
:103360002143AA55003C02402CAC012080B582B01C
:1033700000AF786039607B68134A934203D97B6859
:10338000124A934209D97B68B3F1005F15D37B6879
:1033900003F580630E4A93420FD83B68002B09D097
:1033A0004FF47F72796800200AF0DCF902463B682E
:1033B0001A6004E0FFF7FAFE01E0FFF7F7FE00BF36
:1033C0000837BD4680BD00BFFFFF1D0800FC1F0879
:1033D000FAFF022080B483B000AF0023BB801E4BF5
:1033E0001B683B600023FB800DE0B7F904309B02B3
:1033F0003A6813441A46FB8813441B78FF2B07D105
:10340000FB880133FB80FB88B3F5806FEDD300E0D0
:1034100000BFFB88B3F5806F06D2B7F904309BB2CA
:1034200001339BB2BB8005E0B7F904309B023A68D8
:1034300013440AE0B7F904309B023A68134403F5D9
:103440008063B3F1026FCDD3002318460C37BD461D
:103450005DF8047B704700BF2CAC012080B584B0C0
:1034600000AF7F23FB811A4BBB60B7F90E309B0284
:10347000BA6813441B68174A934219D1B7F90E3042
:103480009B02BA6813443A1D11461846FFF76EFFB7
:10349000B7F90E309B02BA681344D3F8FC237B685B
:1034A0009A4205D1B7F90E309B02BA6813440AE07C
:1034B000B7F90E309BB2013B9BB2FB81B7F90E30DE
:1034C000002BD2DC002318461037BD4680BD00BF5C
:1034D00000001E082143AA55B0B586B000AF0023F6
:1034E000FB752EE0FB7D3A4A4FF40C7101FB03F3B0
:1034F000134400221A60FB7D364A002142F8231053
:10350000FB7D354A002142F82310FB7D334A002120
:1035100042F82310FB7D324A002142F82310FB7D44
:10352000304A002142F82310FB7D2F4A002122F867
:103530001310FB7D2D4A002122F81310FB7D01336F
:10354000FB75FB7D022BCDD9294B2A4A1A602A4BE9
:103550002A4A1A602A4B2B4A1A60254B1B68012203
:10356000294918461AF07EFB0346BB75BB7D002B2C
:1035700001D0FFF71BFE204B1B6801222249184691
:103580001AF070FB0346BB75BB7D002B01D0FFF723
:103590000DFE1B4B1B6801221B4918461AF062FBEB
:1035A0000346BB75BB7D002B01D0FFF7FFFD174B1A
:1035B0003C461D460FCD0FC42B6823603B460021BF
:1035C000184609F0FEFB00BF1837BD46B0BD00BF6E
:1035D00054D9002048AF01203CAF012030AC01207D
:1035E000DCD80020E8D8002044D900204CD90020A5
:1035F0000C0000204CB3012010000020E8B4012092
:1036000014000020A8B4012080B50120384D060820
:103610002DE9F041ADF5207D08AF3B1D186000237A
:1036200087F85F3208F086FC0346012B40F09E804D
:10363000132387F85E32654B1B681A466449654858
:1036400017F025F8614B1B681A466349614817F06B
:1036500031F907F10C031322604918460CF0B6F853
:10366000034687F85E3297F85E32002B09D107F5E2
:103670000F73194659480DF08DF9034687F85E32ED
:1036800005E097F85E32012B01D108F053FC97F862
:103690005E32002B6AD1D7F83C2207F10C031146A9
:1036A00018460CF022FE034687F85E3297F85E3229
:1036B000002B4BD197F85E32002B41D100214548B9
:1036C00016F032FEC7F85802454B1B68C7F8543253
:1036D000414BDB789C46404B5B789E463E4B9B784B
:1036E0001A463B4B1B781946394B5B781C46384BC6
:1036F0009B781D46D7F858321B0C9BB21E46D7F854
:1037000058329BB23B60D7F854321B0C9BB2D7F8AF
:10371000540280B207F10C08079006933B680593AA
:1037200004960395029401910092734662462D49D6
:10373000404609F0B3FD07F10C03184600F0A2F86B
:1037400007F10C0318460CF0A1FD0FE0264B1B6897
:1037500097F85E222549184609F0A0FD244B1B6806
:1037600097F85E222149184609F098FD00201CF0C8
:10377000AFFA00201CF090FA002000F0AFF80346EA
:103780001A4697F85F32134387F85F32012000F042
:10379000A5F803461A4697F85F32134387F85F325D
:1037A000022000F09BF803461A4697F85F32134355
:1037B00087F85F3297F85F32002B02D10A2009F0B8
:1037C00027FB002387F85F32D3E700BFD8D2002061
:1037D0004CB1012090B301208CB301204C4D060860
:1037E00054280040584D060814000020A04D06083B
:1037F0000C00002080B584B000AF786039603B6871
:10380000002B0BD03868FDF7D7F90346FB81FB8905
:103810001A463968786800F007F801E0FFF7C6FC3F
:1038200000BF1037BD4680BD80B586B000AFF860E0
:10383000B9601346FB80FB88FB82BB68002B18D065
:10384000FB8A1A46B968002009F08CFF3861FB8AB0
:10385000BA6813443A690A4918461EF063FAFB8AAB
:103860000A33FB82FA8AFB680021B86809F076FE09
:1038700001E0FFF79BFC00BF1837BD4680BD00BFCD
:10388000B44D060880B584B002AF78600C4B01934C
:103890000C4B0093592301220B49786809F0FEFC78
:1038A0000A4B1A680A4B19680A4B1B6800930B46AF
:1038B0000949786809F0F2FC00BF0837BD4680BDB1
:1038C000E44D0608F04D0608BC4D0608107AFF1FAF
:1038D000147AFF1F187AFF1FFC4D0608F0B5B7B029
:1038E00008AF0346FB73002387F8AF30FB7B022B46
:1038F00001D9FFF75BFCFB7B1B02BD4A9818FB7BE1
:103900000D22FF2107F020FB0346002B07F04E821B
:10391000FB7BB84A52F82330C7F88C30FB7B1B0284
:10392000B34A1344B44918461EF05FFAC7F888003A
:10393000D7F88830002B07F07082012387F8AF306A
:10394000D7F88800FDF738F9C7F88400D7F8843035
:10395000B3F5807F07F20C82FB7B1B02A74A13445E
:10396000D7F8881018461EF038FA0423C7F8B43088
:103970000423C7F8B03028E0FB7BA04A1B021A449E
:10398000D7F8B43013441878FA7BD7F8B430013341
:103990009A4912020A4413441B78FC7B194607F02B
:1039A00025FB03461946954A23021A44D7F8B0303E
:1039B00013440A461A70D7F8B4300233C7F8B4304B
:1039C000D7F8B0300133C7F8B030D7F8B420D7F803
:1039D00084309A42D0D3FB7B884A1B0213440433C1
:1039E0001B78112B08D0FB7B844A1B021344043341
:1039F0001B78402B40F03481FB7B804A1B02134430
:103A000004331B78112B55D1FB7B7C4A1B021344DA
:103A100003331B78522B0DD1FB7B784A1B021344D6
:103A200005331B781946002007F008FB0346A7F86A
:103A3000AC309DE0FB7B714A1B02134403331B78BF
:103A4000572B0DD1FB7B6D4A1B02134405331B78AA
:103A50001946012007F0F2FA0346A7F8AC3087E0D8
:103A6000FB7B664A1B02134403331B78442B04D1AF
:103A7000D7F88430A7F8AC307AE0FB7B4FF486723D
:103A800002FB03F35E4A13445E491A460B4603CB1E
:103A900010605160FB7B4FF4867202FB03F3584ABF
:103AA00013441946D7F88C00FFF7A4FE97F8AF30FF
:103AB00007F0B5B9FB7B514A1B02134404331B7852
:103AC000402B55D1FB7B4D4A1B02134403331B781B
:103AD000522B0DD1FB7B494A1B02134405331B7843
:103AE0001946022007F0AAFA0346A7F8AC303FE0D7
:103AF000FB7B424A1B02134403331B78572B0DD127
:103B0000FB7B3E4A1B02134405331B7819460320F6
:103B100007F094FA0346A7F8AC3029E0FB7B374A5C
:103B20001B02134403331B78442B04D1D7F8843091
:103B3000A7F8AC301CE0FB7B4FF4867202FB03F36A
:103B40002F4A13442F491A460B4603CB106051608D
:103B5000FB7B4FF4867202FB03F3294A1344194698
:103B6000D7F88C00FFF746FE97F8AF3007F057B94B
:103B7000B7F8AC3009331A46D7F88430934245D1B0
:103B8000D7F88430093B1A46D7F88810002009F08E
:103B9000E9FDC7F88000B7F8AC300133D7F88820CA
:103BA0001344184607F00CFBF867D7F88020FB6F2A
:103BB0009A4255D0FB7B4FF4867202FB03F3104A06
:103BC0001344D7F88020104918461EF0ABF8FB7B51
:103BD0004FF4867202FB03F3094A13441946D7F8DF
:103BE0008C00FFF707FE97F8AF3007F018B900BF59
:103BF000DCD500201C0000201C4E0608DCD2002072
:103C000080E00020204E0608284E0608B7F8AC30A9
:103C1000D7F884209A4223D0FB7B4FF4867202FBB4
:103C200003F3B64A1344B64A1C4615460FCD20602E
:103C30006160A260E3600FCD20616161A261E36118
:103C4000FB7B4FF4867202FB03F3AC4A1344194624
:103C5000D7F88C00FFF7CEFD97F8AF3007F0DFB84C
:103C6000FB7BA84A1B02134403331B78522B42F000
:103C7000FA82FB7BA34A1B02134404331B78402BBC
:103C800040F0C780FB7B9F4A1B02134406331B781E
:103C90009BB21B029AB2FB7B9A491B020B4407336F
:103CA0001B789BB21344A7F84A30FB7B954A1B0252
:103CB000134405331B78012BC0F28E800B2B02DDE1
:103CC000402B40F08980B7F84A30B3F5005F30D31D
:103CD000B7F84A30B3F5405F2BD2FB7B4FF48672C6
:103CE00002FB03F3854A9818FB7B864A1B021344A8
:103CF00005331B781A4684491EF014F8FB7B4FF4F9
:103D0000867202FB03F37D4A13441946D7F88C00F0
:103D1000FFF770FDFB7B7B4A1B02134405331978C8
:103D2000B7F84A0000230093002352220FF014FF3B
:103D300050E0B7F84A30B3F5805F30D3B7F84A3077
:103D4000B3F5005F2BD2FB7B4FF4867202FB03F3CB
:103D50006A4A9818FB7B6B4A1B02134405331B7895
:103D60001A466A491DF0DEFFFB7B4FF4867202FBA8
:103D700003F3624A13441946D7F88C00FFF73AFD63
:103D8000FB7B604A1B02134405331978B7F84A00DD
:103D900000230093002352221DF026FA1AE0FB7B39
:103DA0004FF4867202FB03F3544A1344B7F84A20D7
:103DB000574918461DF0B6FFFB7B4FF4867202FB95
:103DC00003F34E4A13441946D7F88C00FFF712FD4F
:103DD00007F023B807F021B8FB7B4FF4867202FB93
:103DE00003F3464A13444B4A1C4615460FCD206048
:103DF0006160A260E360FB7B4FF4867202FB03F319
:103E00003E4A13441946D7F88C00FFF7F3FC07F03D
:103E100004B8FB7B3B4A1B02134404331B78182B6A
:103E200040F03881002387F8AB300A23A7F8AC3084
:103E3000B7F8AC3009331A46D7F88430934236D1FC
:103E4000D7F88430093B1A46D7F88810002009F0CB
:103E500089FCC7F88000B7F8AC300133D7F8882068
:103E60001344184607F0ACF9F867D7F88020FB6FC9
:103E70009A4255D0FB7B4FF4867202FB03F31F4A34
:103E80001344D7F88020244918461DF04BFFFB7BD4
:103E90004FF4867202FB03F3184A13441946D7F80D
:103EA0008C00FFF7A7FC97F8AF3006F0B8BFB7F863
:103EB000AC30D7F884209A4232D0FB7B4FF4867224
:103EC00002FB03F30D4A1344144A1C46134607CB66
:103ED00020606160A2601B782373FB7B4FF48672C5
:103EE00002FB03F3054A13441946D7F88C00FFF789
:103EF00081FC97F8AF3006F092BF00BF80E0002051
:103F0000404E0608DCD20020604E0608804E0608AF
:103F1000A04E0608B44E0608284E0608C44E0608F1
:103F2000FB7BB24A1B02134406331B78302B00F292
:103F30009480FB7BAD4A1B02134406331B78002B95
:103F400000F08B8007F04CFC97F8AB30002B1BD0B7
:103F500097F8AA30012B0DD097F8AA30032B09D07F
:103F600097F8AA30022B08D1A14B93F83D30DBB271
:103F7000202B02D19E4807F0BDFC052008F048FF29
:103F800097F8AB30092B1FD8FB7B984A1B021344D0
:103F900006331B789AB20A2302930223019307F196
:103FA0001403009301233021914812F0E3FB0346F0
:103FB00087F8AA3097F8AB30013387F8AB3097F821
:103FC000AA30002BC0D100E000BF894811F05AFF91
:103FD00097F8AA30002B23D13B7D9BB21B029AB2EB
:103FE0007B7D9BB21344A7F84C30FB7B4FF4867269
:103FF00002FB03F37F4A1344B7F84C207E4918466E
:104000001DF090FEFB7B4FF4867202FB03F3794AAE
:1040100013441946D7F88C00FFF7ECFB06F0FDBE01
:10402000FB7B4FF4867202FB03F3724A1344734A1C
:104030001C4615460FCD20606160A260E360FB7BEB
:104040004FF4867202FB03F36A4A13441946D7F809
:104050008C00FFF7CFFB06F0E0BEFB7B4FF48672CF
:1040600002FB03F3634A1344654A1C4615460FCD11
:1040700020606160A260E360FB7B4FF4867202FB0C
:1040800003F35C4A13441946D7F88C00FFF7B2FBE0
:1040900006F0C3BEFB7B554A1B02134404331B7856
:1040A000332B40F01881002387F8A8300823A7F8A5
:1040B000AC30B7F8AC3009331A46D7F884309342A5
:1040C00036D1D7F88430093B1A46D7F8881000203B
:1040D00009F048FBC7F88000B7F8AC300133D7F8D7
:1040E00088201344184607F06BF8F867D7F880204B
:1040F000FB6F9A4242D0FB7B4FF4867202FB03F3C4
:104100003C4A1344D7F880203E4918461DF00AFE69
:10411000FB7B4FF4867202FB03F3364A13441946C5
:10412000D7F88C00FFF766FB97F8AF3006F077BE44
:10413000B7F8AC30D7F884209A421FD0FB7B4FF4FD
:10414000867202FB03F32B4A13442F4A1C46134684
:1041500007CB20606160A2601B782373FB7B4FF468
:10416000867202FB03F3234A13441946D7F88C00E6
:10417000FFF740FB97F8AF3006F051BE07F030FB79
:1041800097F8A830002B1BD097F8A930012B0DD041
:1041900097F8A930032B09D097F8A930022B08D142
:1041A000134B93F83D30DBB2202B02D1104807F0BF
:1041B000A1FB052008F02CFE97F8A830092B25D884
:1041C00007F110020A23009304236621084811F026
:1041D00097FF034687F8A93097F8A830013387F88E
:1041E000A83097F8A930002BCAD110E0DCD200200B
:1041F000F8B0012080E00020D44E0608DC4E06080E
:10420000EC4E0608284E0608C44E060800BFE248D9
:1042100011F038FE97F8A930002B32D13A7CDF4BF1
:104220001A707A7CDD4B5A70BA7CDC4B9A70FA7C3F
:10423000DA4BDA70FB7B4FF4867202FB03F3D84A49
:104240009818D64B1B781946D44B5B781C46D34B39
:104250009B781A46D14BDB780193009223460A469D
:10426000D0491DF05FFDFB7B4FF4867202FB03F328
:10427000CB4A13441946D7F88C00FFF7BBFA06F077
:10428000CCBDFB7B4FF4867202FB03F3C44A13449C
:10429000C54A14469C4604F1200E654626460FCEBC
:1042A00028606960AA60EB6010340CF1100C744552
:1042B000F3D1624623461B881380FB7B4FF4867242
:1042C00002FB03F3B64A13441946D7F88C00FFF7F4
:1042D00091FA06F0A2BDFB7BB44A1B0213440433DF
:1042E0001B78112B41F0A287FB7BB04A1B021344C1
:1042F00005331B787F2B01F27B8701A252F823F054
:1043000001450408F7450408F1460408C5470408B8
:10431000F1480408CF490408C14A0408C94B0408FD
:10432000BB4C04087B4D04083B4E04083B4F04087B
:10433000FB4F0408BB500408935104087D52040845
:104340003D530408F1610408F1610408F1610408B7
:10435000155404086D55040895560408BD57040803
:1043600011590408395A0408615B0408015C040807
:104370006D5C0408D95C0408455D0408B15D04085F
:104380001D5E0408F1610408F1610408F16104088C
:10439000F1610408F1610408F1610408F1610408A5
:1043A000F1610408F1610408F1610408F161040895
:1043B000F1610408F1610408F1610408F161040885
:1043C000F1610408095F0408F1610408CF5F040883
:1043D000F161040889600408F1610408F1610408CE
:1043E000F1610408F1610408F1610408F161040855
:1043F000F1610408F1610408F1610408F161040845
:10440000F1610408F1610408F1610408F161040834
:10441000F1610408F1610408F1610408F161040824
:10442000F1610408F1610408F1610408F161040814
:10443000F1610408F1610408F1610408F161040804
:10444000F1610408F1610408F1610408F1610408F4
:10445000F1610408F1610408F1610408F1610408E4
:10446000F1610408F1610408F1610408F1610408D4
:10447000F1610408F1610408F1610408F1610408C4
:10448000F1610408D7600408F1610408F1610408CF
:10449000F1610408F1610408F1610408F1610408A4
:1044A000F1610408F1610408F1610408F161040894
:1044B000F1610408F1610408F1610408F161040884
:1044C000F1610408F1610408F1610408F161040874
:1044D000F1610408F1610408F1610408F161040864
:1044E000F1610408F1610408F1610408F161040854
:1044F000F1610408F1610408F16104086D610408C8
:1045000007F120031946302008F00FF80346012B6D
:1045100052D1FB7B4FF4867202FB03F3204A9818BA
:10452000B7F920301A46B7F922301946B7F92430C6
:1045300000930B461E491DF0F5FBFB7B4FF4867282
:1045400002FB03F3164A13441946D7F88C00FFF711
:1045500051F9FB7B4FF4867202FB03F3104A981863
:10456000B7F920301A46B7F922301946B7F9243086
:1045700000930B460F491DF0D5FBFB7B4FF4867271
:1045800002FB03F3064A13441946D7F88C00FFF7E1
:1045900031F906F042BC00BFF8B0012084B501201B
:1045A00080E00020FC4E0608104F0608DCD20020F8
:1045B000344F0608444F0608C14807F09BF9FB7BBF
:1045C0004FF4867202FB03F3BE4A1344BE4A1846F8
:1045D000114654231A461CF07EFEFB7B4FF4867274
:1045E00002FB03F3B74A13441946D7F88C00FFF7D0
:1045F00001F906F012BCFB7BB44A1B0213440633DC
:104600001978FB7B1B020733B04A13441A4630204B
:1046100007F062FE0346012B49D1FB7B4FF4867203
:1046200002FB03F3A74A9818FB7BA84A1B0213441A
:1046300006331B781946FB7BA44A1B02134407333D
:104640001B780A46A2491DF06DFBFB7B4FF4867276
:1046500002FB03F39B4A13441946D7F88C00FFF77B
:10466000C9F8FB7B4FF4867202FB03F3954A981856
:10467000FB7B964A1B02134406331B781946FB7BCF
:10468000924A1B02134407331B780A4691491DF0D6
:1046900049FBFB7B4FF4867202FB03F3894A134408
:1046A0001946D7F88C00FFF7A5F806F0B6BBFB7BE0
:1046B0004FF4867202FB03F3824A1344864A1D4676
:1046C00014460FCC28606960AA60EB6007CC2861B3
:1046D0006961AA61FB7B4FF4867202FB03F3794A9E
:1046E00013441946D7F88C00FFF784F806F095BB01
:1046F00007F120031946322007F017FF0346012B6C
:1047000041D1FB7B4FF4867202FB03F36D4A98188C
:10471000B7F920301A46B7F922301946B7F92430D4
:1047200000930B466D491DF0FDFAFB7B4FF486723A
:1047300002FB03F3634A13441946D7F88C00FFF7D2
:1047400059F8FB7B4FF4867202FB03F35D4A98181D
:10475000B7F920301A46B7F922301946B7F9243094
:1047600000930B465E491DF0DDFAFB7B4FF4867229
:1047700002FB03F3534A13441946D7F88C00FFF7A2
:1047800039F806F04ABB4E4807F0B4F8FB7B4FF40B
:10479000867202FB03F34B4A1344524A18461146F1
:1047A0004E231A461CF097FDFB7B4FF4867202FBEA
:1047B00003F3444A13441946D7F88C00FFF71AF85C
:1047C00006F02BBBFB7B414A1B02134406331978CE
:1047D000FB7B1B0207333D4A13441A46322007F085
:1047E0007BFD0346012B49D1FB7B4FF4867202FB14
:1047F00003F3344A9818FB7B344A1B0213440633F4
:104800001B781946FB7B314A1B02134407331B7884
:104810000A4635491DF086FAFB7B4FF4867202FB8F
:1048200003F3284A13441946D7F88C00FEF7E2FF39
:10483000FB7B4FF4867202FB03F3224A9818FB7B42
:10484000224A1B02134406331B781946FB7B1F4A7E
:104850001B02134407331B780A4624491DF062FAF1
:10486000FB7B4FF4867202FB03F3164A134419468E
:10487000D7F88C00FEF7BEFF06F0CFBAFB7B4FF4F3
:10488000867202FB03F30F4A1344134A1D46144673
:104890000FCC28606960AA60EB6007CC2861696171
:1048A000AA61FB7B4FF4867202FB03F3054A1344B3
:1048B0001946D7F88C00FEF79DFF06F0AEBA00BF90
:1048C0006CB1012080E00020644F0608DCD200209B
:1048D000B84F0608C84F0608F44F060810500608DF
:1048E000205006084050060890500608A0500608C0
:1048F00007F128033821184608F062FC0346002B14
:104900001FD0A74806F0F6FFFB7B4FF4867202FB30
:1049100003F3A44A1344A44A1C4615460FCD206055
:104920006160A260E360FB7B4FF4867202FB03F3DD
:104930009C4A13441946D7F88C00FEF75BFF06F03B
:104940006CBAFB7B4FF4867202FB03F3954A98180E
:10495000D7E90A56D7E90C34D7E90E12CDE902128D
:10496000CDE900342A46334690491DF0DBF9FB7B44
:104970004FF4867202FB03F38A4A13441946D7F8B0
:104980008C00FEF737FFFB7B4FF4867202FB03F3CC
:10499000844A9818D7E90A56D7E90C34D7E90E1299
:1049A000CDE90212CDE900342A46334680491DF094
:1049B000B9F9FB7B4FF4867202FB03F3794A134487
:1049C0001946D7F88C00FEF715FF06F026BAFB7BD8
:1049D000784A1B02134406331978FB7B1B0207330A
:1049E000744A13441A4638200DF094F80346012BFC
:1049F00049D1FB7B4FF4867202FB03F3694A981896
:104A0000FB7B6C4A1B02134406331B781946FB7B65
:104A1000684A1B02134407331B780A4666491DF097
:104A200081F9FB7B4FF4867202FB03F35D4A13446A
:104A30001946D7F88C00FEF7DDFEFB7B4FF486723B
:104A400002FB03F3574A9818FB7B5A4A1B02134494
:104A500006331B781946FB7B564A1B021344073367
:104A60001B780A4655491DF05DF9FB7B4FF48672B1
:104A700002FB03F34B4A13441946D7F88C00FEF7A8
:104A8000B9FE06F0CAB9FB7B4FF4867202FB03F352
:104A9000444A1344444A1C4615460FCD20606160C9
:104AA000A260E360FB7B4FF4867202FB03F33D4A96
:104AB00013441946D7F88C00FEF79CFE06F0ADB9FA
:104AC0003C2008F042FB07F128033C21184608F07F
:104AD00077FB0346002B1CD0FB7B4FF4867202FB56
:104AE00003F3304A1344304A1C4615460FCD20606C
:104AF0006160A260E360FB7B4FF4867202FB03F30C
:104B0000284A13441946D7F88C00FEF773FE06F0C6
:104B100084B9FB7B4FF4867202FB03F3214A981899
:104B2000D7E90A56D7E90C34D7E90E12CDE90212BB
:104B3000CDE900342A46334621491DF0F3F8FB7BCA
:104B40004FF4867202FB03F3164A13441946D7F852
:104B50008C00FEF74FFEFB7B4FF4867202FB03F3E3
:104B6000104A9818D7E90A56D7E90C34D7E90E123B
:104B7000CDE90212CDE900342A46334611491DF031
:104B8000D1F8FB7B4FF4867202FB03F3054A134412
:104B90001946D7F88C00FEF72DFE06F03EB900BF8F
:104BA0006CB1012080E00020DC4E0608CC500608E5
:104BB000E4500608DCD20020B84F06083051060841
:104BC0005851060870510608FB7BC34A1B02134468
:104BD00006331978FB7B1B020733BF4A13441A467E
:104BE0003C200CF097FF0346012B49D1FB7B4FF48F
:104BF000867202FB03F3B94A9818FB7BB64A1B0284
:104C0000134406331B781946FB7BB34A1B0213443B
:104C100007331B780A46B2491DF084F8FB7B4FF43A
:104C2000867202FB03F3AD4A13441946D7F88C0091
:104C3000FEF7E0FDFB7B4FF4867202FB03F3A74A0D
:104C40009818FB7BA44A1B02134406331B781946B1
:104C5000FB7BA14A1B02134407331B780A46A14978
:104C60001DF060F8FB7B4FF4867202FB03F39B4A56
:104C700013441946D7F88C00FEF7BCFD06F0CDB8FA
:104C8000FB7B4FF4867202FB03F3944A1344964A6B
:104C90001C4615460FCD20606160A260E360FB7B7F
:104CA0004FF4867202FB03F38C4A13441946D7F87B
:104CB0008C00FEF79FFD06F0B0B807F120031946FF
:104CC00000200DF0D3FB0346012B39D1B7F920307A
:104CD00047F6FF72934233D0FB7B4FF4867202FBA0
:104CE00003F37E4A1344B7F92020804918461DF08B
:104CF00019F8FB7B4FF4867202FB03F3774A1344E7
:104D00001946D7F88C00FEF775FDFB7B4FF48672D1
:104D100002FB03F3714A1344B7F920207449184683
:104D20001DF000F8FB7B4FF4867202FB03F36B4A25
:104D300013441946D7F88C00FEF75CFD06F06DB8F9
:104D4000FB7B4FF4867202FB03F3644A1344664A0A
:104D50001C4615460FCD20606160A260E360FB7BBE
:104D60004FF4867202FB03F35C4A13441946D7F8EA
:104D70008C00FEF73FFD06F050B807F120031946FE
:104D800000200DF045FC0346012B39D1B7F9203046
:104D900047F6FF72934233D0FB7B4FF4867202FBDF
:104DA00003F34E4A1344B7F92020504918461CF02B
:104DB000B9FFFB7B4FF4867202FB03F3474A1344AF
:104DC0001946D7F88C00FEF715FDFB7B4FF4867271
:104DD00002FB03F3414A1344B7F920204549184622
:104DE0001CF0A0FFFB7B4FF4867202FB03F33B4AEF
:104DF00013441946D7F88C00FEF7FCFC06F00DB8FA
:104E0000FB7B4FF4867202FB03F3344A1344364AA9
:104E10001C4615460FCD20606160A260E360FB7BFD
:104E20004FF4867202FB03F32C4A13441946D7F859
:104E30008C00FEF7DFFC05F0F0BFFB7B264A1B026F
:104E4000134406331B7807F14801032218460DF07E
:104E500049FA0346012B53D1FB7B4FF4867202FBC8
:104E600003F31E4A9818FB7B1B4A1B0213440633AC
:104E70001B781A46B7F848301F491CF053FFFB7BDC
:104E80004FF4867202FB03F3144A13441946D7F811
:104E90008C00FEF7AFFCFB7B4FF4867202FB03F342
:104EA0000E4A9818FB7B0C4A1B02134406331B78EE
:104EB0001A46B7F8483011491CF034FFFB7B4FF419
:104EC000867202FB03F3054A13441946D7F88C0097
:104ED000FEF790FC05F0A1BFDCD2002080E00020AE
:104EE00090500608BC510608DC4E0608E45106083E
:104EF000EC51060804520608B84F06081C52060872
:104F0000FB7B4FF4867202FB03F3D24A1344D24A6E
:104F10001C4615460FCD20606160A260E360FB7BFC
:104F20004FF4867202FB03F3CA4A13441946D7F8BA
:104F30008C00FEF75FFC05F070BF07F120031946F7
:104F400001200DF093FA0346012B39D1B7F9223035
:104F500047F6FF72934233D0FB7B4FF4867202FB1D
:104F600003F3BC4A1344B7F92220BC4918461CF08D
:104F7000D9FEFB7B4FF4867202FB03F3B54A134460
:104F80001946D7F88C00FEF735FCFB7B4FF4867290
:104F900002FB03F3AF4A1344B7F92220B049184685
:104FA0001CF0C0FEFB7B4FF4867202FB03F3A94AA0
:104FB00013441946D7F88C00FEF71CFC05F02DBFF2
:104FC000FB7B4FF4867202FB03F3A24A1344A24A0E
:104FD0001C4615460FCD20606160A260E360FB7B3C
:104FE0004FF4867202FB03F39A4A13441946D7F82A
:104FF0008C00FEF7FFFB05F010BF07F120031946F8
:1050000001200DF005FB0346012B39D1B7F9223001
:1050100047F6FF72934233D0FB7B4FF4867202FB5C
:1050200003F38C4A1344B7F922208C4918461CF02C
:1050300079FEFB7B4FF4867202FB03F3854A13442F
:105040001946D7F88C00FEF7D5FBFB7B4FF4867230
:1050500002FB03F37F4A1344B7F922208149184623
:105060001CF060FEFB7B4FF4867202FB03F3794A6F
:1050700013441946D7F88C00FEF7BCFB05F0CDBEF3
:10508000FB7B4FF4867202FB03F3724A1344724AAD
:105090001C4615460FCD20606160A260E360FB7B7B
:1050A0004FF4867202FB03F36A4A13441946D7F899
:1050B0008C00FEF79FFB05F0B0BEFB7B6A4A1B022B
:1050C000134406331B7807F14801042218460DF0FB
:1050D00009F90346012B3FD1FB7B4FF4867202FB9B
:1050E00003F35C4A9818FB7B5F4A1B0213440633A8
:1050F0001B781A46B7F848305C491CF013FEFB7B5E
:105100004FF4867202FB03F3524A13441946D7F850
:105110008C00FEF76FFBFB7B4FF4867202FB03F300
:105120004C4A9818FB7B504A1B02134406331B78E9
:105130001A46B7F848304E491CF0F4FDFB7B4FF49B
:10514000867202FB03F3434A13441946D7F88C00D6
:10515000FEF750FB05F061BEFB7B4FF4867202FB4D
:1051600003F33C4A13443C4A1C4615460FCD2060CD
:105170006160A260E360FB7B4FF4867202FB03F385
:10518000344A13441946D7F88C00FEF733FB05F078
:1051900044BE07F12003194602200DF067F90346CB
:1051A000012B39D1B7F9243047F6FF72934233D03F
:1051B000FB7B4FF4867202FB03F3264A1344B7F9D4
:1051C00024202C4918461CF0ADFDFB7B4FF4867261
:1051D00002FB03F31F4A13441946D7F88C00FEF76D
:1051E00009FBFB7B4FF4867202FB03F3194A13445D
:1051F000B7F92420204918461CF094FDFB7B4FF49E
:10520000867202FB03F3134A13441946D7F88C0045
:10521000FEF7F0FA05F001BEFB7B4FF4867202FB4D
:1052200003F30C4A13440C4A1C4615460FCD20606C
:105230006160A260E360FB7B4FF4867202FB03F3C4
:10524000044A13441946D7F88C00FEF7D3FA05F048
:10525000E4BD00BF80E00020DC4E06084052060896
:105260004852060860520608DCD20020905006081A
:10527000785206089C520608A452060807F120033B
:10528000194602200DF0C4F90346012B39D1B7F9B4
:10529000243047F6FF72934233D0FB7B4FF4867283
:1052A00002FB03F3A54A1344B7F92420A449184686
:1052B0001CF038FDFB7B4FF4867202FB03F39F4A20
:1052C00013441946D7F88C00FEF794FAFB7B4FF491
:1052D000867202FB03F3994A1344B7F924209949D3
:1052E00018461CF01FFDFB7B4FF4867202FB03F394
:1052F000924A13441946D7F88C00FEF77BFA05F062
:105300008CBDFB7B4FF4867202FB03F38B4A134484
:105310008D4A1C4615460FCD20606160A260E36097
:10532000FB7B4FF4867202FB03F3844A1344194655
:10533000D7F88C00FEF75EFA05F06FBDFB7B834A61
:105340001B02134406331B7807F148010522184657
:105350000CF0C8FF0346012B3FD1FB7B4FF4867254
:1053600002FB03F3754A9818FB7B784A1B0213442F
:1053700006331B781A46B7F8483075491CF0D2FC42
:10538000FB7B4FF4867202FB03F36C4A134419460D
:10539000D7F88C00FEF72EFAFB7B4FF4867202FBE7
:1053A00003F3664A9818FB7B684A1B0213440633D2
:1053B0001B781A46B7F8483066491CF0B3FCFB7BF3
:1053C0004FF4867202FB03F35C4A13441946D7F884
:1053D0008C00FEF70FFA05F020BDFB7B4FF48672C0
:1053E00002FB03F3554A1344574A1C4615460FCD9A
:1053F00020606160A260E360FB7B4FF4867202FB79
:1054000003F34E4A13441946D7F88C00FEF7F2F91D
:1054100005F003BD0CF030FD07F1180318460DF040
:10542000E5F90346012B63D14B4B1B78DBB203F04C
:105430000103002B5CD0B7F91830002B00DA0733DA
:10544000DB101BB21A4613469B0013445B00002B73
:1054500000DA0F331B11A7F84E30FB7B4FF4867236
:1054600002FB03F3354A1344B7F9182092B23B49C3
:1054700018461CF057FCFB7B4FF4867202FB03F3CB
:105480002E4A13441946D7F88C00FEF7B3F9FB7B7C
:105490004FF4867202FB03F3284A9818B7F94E308E
:1054A0002F4A82FB03129210DB17D31A1BB21C4641
:1054B000B7F94E202A4B83FB02139910D317C91A50
:1054C0000B469B000B445B00D31A1BB222462549B6
:1054D0001CF028FCFB7B4FF4867202FB03F3174A97
:1054E00013441946D7F88C00FEF784F905F095BCF3
:1054F000FB7B4FF4867202FB03F3104A13441A4AF3
:105500001D4614460FCC28606960AA60EB6007CC8A
:1055100028616961AA612388A278AB831346AB77BF
:10552000FB7B4FF4867202FB03F3044A13441946D3
:10553000D7F88C00FEF75EF905F06FBC80E0002024
:105540009C520608BC520608DC4E0608DCD200203D
:10555000D4520608E4520608389A01200853060877
:105560006766666614530608385306080CF084FC18
:1055700007F1180318460DF039F90346012B63D1E2
:10558000C54B1B78DBB203F00203002B5CD0B7F9EC
:105590001A30002B00DA0733DB101BB21A46134611
:1055A0009B0013445B00002B00DA0F331B11A7F89C
:1055B0004E30FB7B4FF4867202FB03F3B74A134471
:1055C000B7F91A2092B2B64918461CF0ABFBFB7B28
:1055D0004FF4867202FB03F3B04A13441946D7F81E
:1055E0008C00FEF707F9FB7B4FF4867202FB03F396
:1055F000AA4A9818B7F94E30AA4A82FB03129210B1
:10560000DB17D31A1BB21C46B7F94E20A54B83FB00
:1056100002139910D317C91A0B469B000B445B0069
:10562000D31A1BB22246A0491CF07CFBFB7B4FF433
:10563000867202FB03F3994A13441946D7F88C008B
:10564000FEF7D8F805F0E9BBFB7B4FF4867202FB4E
:1056500003F3924A1344954A1D4614460FCC286022
:105660006960AA60EB6007CC28616961AA61238840
:10567000A278AB831346AB77FB7B4FF4867202FBB9
:1056800003F3864A13441946D7F88C00FEF7B2F8A4
:1056900005F0C3BB0CF0F0FB07F1180318460DF042
:1056A000A5F80346012B63D17B4B1B78DBB203F0DB
:1056B0000403002B5CD0B7F91C30002B00DA073351
:1056C000DB101BB21A4613469B0013445B00002BF1
:1056D00000DA0F331B11A7F84E30FB7B4FF48672B4
:1056E00002FB03F36D4A1344B7F91C2092B27049D0
:1056F00018461CF017FBFB7B4FF4867202FB03F38A
:10570000664A13441946D7F88C00FEF773F8FB7B02
:105710004FF4867202FB03F3604A9818B7F94E30D3
:10572000604A82FB03129210DB17D31A1BB21C468D
:10573000B7F94E205B4B83FB02139910D317C91A9C
:105740000B469B000B445B00D31A1BB222465949FF
:105750001CF0E8FAFB7B4FF4867202FB03F34F4A1E
:1057600013441946D7F88C00FEF744F805F055BBF2
:10577000FB7B4FF4867202FB03F3484A13444E4A04
:105780001D4614460FCC28606960AA60EB6007CC08
:1057900028616961AA612388A278AB831346AB773D
:1057A000FB7B4FF4867202FB03F33C4A1344194619
:1057B000D7F88C00FEF71EF805F02FBB0CF05CFB51
:1057C00007F1180318460DF077F80346012B79D13D
:1057D000314B1B78DBB203F00803002B72D0B7F912
:1057E0001830002B00DA0733DB101BB21A461346C1
:1057F0009B0013445B00002B00DA0F331B11A7F84A
:105800004E30FB7B4FF4867202FB03F3234A1344B2
:10581000B7F9182092B2294918461CF083FAFB7B8D
:105820004FF4867202FB03F31C4A13441946D7F85F
:105830008C00FDF7DFFFFB7B4FF4867202FB03F366
:10584000164A9818B7F94E30164A82FB0312921086
:10585000DB17D31A1BB21C46B7F94E20114B83FB42
:1058600002139910D317C91A0B469B000B445B0017
:10587000D31A1BB2224612491CF054FAFB7B4FF498
:10588000867202FB03F3054A13441946D7F88C00CD
:10589000FDF7B0FF05F0C1BA389A012080E0002082
:1058A00058530608676666666453060888530608F8
:1058B000A8530608B4530608D8530608F853060838
:1058C00004540608FB7B4FF4867202FB03F3BF4AC5
:1058D0001344BF4A1D4614460FCC28606960AA6075
:1058E000EB6007CC28616961AA612388A278AB8349
:1058F0001346AB77FB7B4FF4867202FB03F3B34A8C
:1059000013441946D7F88C00FDF774FF05F085BAEB
:105910000CF0B2FA07F1180318460CF0CDFF03465D
:10592000012B63D1AB4B1B78DBB203F01003002BD0
:105930005CD0B7F91A30002B00DA0733DB101BB24A
:105940001A4613469B0013445B00002B00DA0F330A
:105950001B11A7F84E30FB7B4FF4867202FB03F35A
:105960009A4A1344B7F91A2092B29B4918461CF080
:10597000D9F9FB7B4FF4867202FB03F3934A13447D
:105980001946D7F88C00FDF735FFFB7B4FF4867284
:1059900002FB03F38D4A9818B7F94E308F4A82FB09
:1059A00003129210DB17D31A1BB21C46B7F94E2014
:1059B0008A4B83FB02139910D317C91A0B469B001D
:1059C0000B445B00D31A1BB2224685491CF0AAF98E
:1059D000FB7B4FF4867202FB03F37C4A13441946A7
:1059E000D7F88C00FDF706FF05F017BAFB7B4FF4E4
:1059F000867202FB03F3754A13447A4A1D46144625
:105A00000FCC28606960AA60EB6007CC28616961EF
:105A1000AA612388A278AB831346AB77FB7B4FF454
:105A2000867202FB03F3694A13441946D7F88C00C7
:105A3000FDF7E0FE05F0F1B90CF01EFA07F11803CE
:105A400018460CF039FF0346012B63D1614B1B78DC
:105A5000DBB203F02003002B5CD0B7F91C30002B25
:105A600000DA0733DB101BB21A4613469B001344BF
:105A70005B00002B00DA0F331B11A7F84E30FB7BC5
:105A80004FF4867202FB03F3504A1344B7F91C200B
:105A900092B2554918461CF045F9FB7B4FF48672CB
:105AA00002FB03F3494A13441946D7F88C00FDF76B
:105AB000A1FEFB7B4FF4867202FB03F3434A981866
:105AC000B7F94E30454A82FB03129210DB17D31A06
:105AD0001BB21C46B7F94E20404B83FB02139910B2
