:020000040800F2
:100000000000032081C200083FE701084DE7010816
:10001000B5E70108D5E70108F5E701080000000091
:10002000000000000000000000000000E12B0108BB
:1000300015E8010800000000F12D010823E801087F
:1000400031E80108D1C20008D1C20008D1C20008BD
:10005000D1C20008D1C20008D1C20008D1C2000834
:10006000D1C20008D1C20008D1C20008D1C2000824
:10007000D1C20008D1C2000831EB0108D1C200088A
:10008000D1C20008D1C20008D1C20008D1C2000804
:10009000D1C20008D1C20008D1C20008D1C20008F4
:1000A000D1C2000845EB0108D1C20008D1C2000846
:1000B000D1C20008D1C20008D1C2000881EB0108FA
:1000C00095EB0108A9EB0108BDEB0108D1C20008BE
:1000D000D1C200088DE80108D1C20008D1C20008D1
:1000E00045E80108D1C20008D1C20008D1C2000809
:1000F000D1C20008D1C20008D1C20008D1C2000894
:10010000D1C2000879E80108D1C20008D1C20008B4
:1001100015E90108D1C20008D1C20008D1C2000807
:10012000D1C20008D1C20008D1C2000859EB0108B1
:10013000D1C20008D1C20008D1C20008D1C2000853
:10014000D1C20008D1C20008D1C20008D1C2000843
:10015000D1C200086DEB0108D1C20008A1E9010875
:10016000D1EB0108E5EB0108D1C20008D1C20008BB
:10017000D1C20008D1C20008D1C2000800000000AE
:10018000D1C20008D1C200082DEA0108D1C200087E
:10019000D1C20008D1C20008D1C20008D1C20008F3
:0C01A0000000000000000000D1C20008B8
:1001B00010B5054C237833B9044B13B10448AFF3A1
:1001C00000800123237010BD900700200000000074
:1001D000B43D020808B5034B1BB103490348AFF314
:1001E000008008BD0000000094070020B43D020814
:1001F00081F0004102E000BF83F0004330B54FEAD8
:1002000041044FEA430594EA050F08BF90EA020F44
:100210001FBF54EA000C55EA020C7FEA645C7FEAD7
:10022000655C00F0E2804FEA5454D4EB5555B8BFFA
:100230006D420CDD2C4480EA020281EA030382EA6B
:10024000000083EA010180EA020281EA0303362DFD
:1002500088BF30BD11F0004F4FEA01314FF4801CD0
:100260004CEA113102D0404261EB410113F0004FE2
:100270004FEA03334CEA133302D0524263EB430399
:1002800094EA050F00F0A780A4F10104D5F1200E37
:100290000DDB02FA0EFC22FA05F2801841F1000192
:1002A00003FA0EF2801843FA05F359410EE0A5F166
:1002B00020050EF1200E012A03FA0EFC28BF4CF097
:1002C000020C43FA05F3C01851EBE37101F000454D
:1002D00007D54FF0000EDCF1000C7EEB00006EEB5A
:1002E0000101B1F5801F1BD3B1F5001F0CD34908E4
:1002F0005FEA30004FEA3C0C04F101044FEA44523B
:1003000012F5800F80F09A80BCF1004F08BF5FEAC1
:10031000500C50F1000041EB045141EA050130BDA1
:100320005FEA4C0C404141EB010111F4801FA4F144
:100330000104E9D191F0000F04BF01460020B1FA99
:1003400081F308BF2033A3F10B03B3F120020CDAD1
:100350000C3208DD02F1140CC2F10C0201FA0CF0AF
:1003600021FA02F10CE002F11402D8BFC2F1200C14
:1003700001FA02F120FA0CFCDCBF41EA0C019040CA
:10038000E41AA2BF01EB0451294330BD6FEA040413
:100390001F3C1CDA0C340EDC04F11404C4F12002FE
:1003A00020FA04F001FA02F340EA030021FA04F310
:1003B00045EA030130BDC4F10C04C4F1200220FA67
:1003C00002F001FA04F340EA0300294630BD21FAA5
:1003D00004F0294630BD94F0000F83F4801306BF6B
:1003E00081F480110134013D4EE77FEA645C18BF5F
:1003F0007FEA655C29D094EA050F08BF90EA020FF6
:1004000005D054EA000C04BF1946104630BD91EAED
:10041000030F1EBF0021002030BD5FEA545C05D1F0
:100420004000494128BF41F0004130BD14F580042F
:100430003CBF01F5801130BD01F0004545F0FE41A3
:1004400041F470014FF0000030BD7FEA645C1ABFD8
:10045000194610467FEA655C1CBF0B46024650EA0F
:10046000013406BF52EA033591EA030F41F400213B
:1004700030BD00BF90F0000F04BF0021704730B5C1
:100480004FF4806404F132044FF000054FF0000196
:1004900050E700BF90F0000F04BF0021704730B557
:1004A0004FF4806404F1320410F0004548BF40422C
:1004B0004FF000013EE700BF42004FEAE2014FEA81
:1004C00031014FEA02701FBF12F07F4393F07F4F5C
:1004D00081F06051704732F07F4208BF704793F05F
:1004E0007F4F04BF41F40021704730B54FF4607472
:1004F00001F0004521F000411CE700BF50EA010275
:1005000008BF704730B54FF000050AE050EA01021D
:1005100008BF704730B511F0004502D5404261EB8D
:1005200041014FF4806404F132045FEA915C3FF4CE
:10053000D8AE4FF003025FEADC0C18BF03325FEA6B
:10054000DC0C18BF033202EBDC02C2F1200300FA1C
:1005500003FC20FA02F001FA03FE40EA0E0021FA41
:1005600002F11444BDE600BF70B54FF0FF0C4CF42F
:10057000E06C1CEA11541DBF1CEA135594EA0C0FE1
:1005800095EA0C0F00F0DEF82C4481EA030621EA1C
:100590004C5123EA4C5350EA013518BF52EA033557
:1005A00041F4801143F4801338D0A0FB02CE4FF009
:1005B0000005E1FB02E506F00042E0FB03E54FF039
:1005C0000006E1FB03569CF0000F18BF4EF0010E31
:1005D000A4F1FF04B6F5007F64F5407404D25FEA2D
:1005E0004E0E6D4146EB060642EAC62141EA5551E0
:1005F0004FEAC52040EA5E504FEACE2EB4F1FD0C22
:1006000088BFBCF5E06F1ED8BEF1004F08BF5FEA9F
:10061000500E50F1000041EB045170BD06F0004651
:1006200046EA010140EA020081EA0301B4EB5C04FE
:10063000C2BFD4EB0C0541EA045170BD41F48011F6
:100640004FF0000E013C00F3AB8014F1360FDEBF1B
:10065000002001F0004170BDC4F10004203C35DAF7
:100660000C341BDC04F11404C4F1200500FA05F37A
:1006700020FA04F001FA05F240EA020001F000421B
:1006800021F0004110EBD37021FA04F642EB060191
:100690005EEA430E08BF20EAD37070BDC4F10C04BB
:1006A000C4F1200500FA04F320FA05F001FA04F27F
:1006B00040EA020001F0004110EBD37041F100016B
:1006C0005EEA430E08BF20EAD37070BDC4F1200576
:1006D00000FA05F24EEA020E20FA04F301FA05F2DE
:1006E00043EA020321FA04F001F0004121FA04F286
:1006F00020EA020000EBD3705EEA430E08BF20EA56
:10070000D37070BD94F0000F0FD101F0004640008F
:1007100041EB010111F4801F08BF013CF7D041EA11
:10072000060195F0000F18BF704703F00046520015
:1007300043EB030313F4801F08BF013DF7D043EAE6
:100740000603704794EA0C0F0CEA135518BF95EA9C
:100750000C0F0CD050EA410618BF52EA4306D1D123
:1007600081EA030101F000414FF0000070BD50EA42
:10077000410606BF1046194652EA430619D094EACC
:100780000C0F02D150EA013613D195EA0C0F05D1B6
:1007900052EA03361CBF104619460AD181EA03010A
:1007A00001F0004141F0FE4141F470014FF00000C2
:1007B00070BD41F0FE4141F4780170BD70B54FF05D
:1007C000FF0C4CF4E06C1CEA11541DBF1CEA1355DD
:1007D00094EA0C0F95EA0C0F00F0A7F8A4EB0504BF
:1007E00081EA030E52EA03354FEA013100F08880B6
:1007F0004FEA03334FF0805545EA131343EA12637F
:100800004FEA022245EA111545EA10654FEA002633
:100810000EF000419D4208BF964244F1FD0404F5EC
:10082000407402D25B084FEA3202B61A65EB030548
:100830005B084FEA32024FF480104FF4002CB6EB05
:10084000020E75EB030E22BFB61A754640EA0C0085
:100850005B084FEA3202B6EB020E75EB030E22BFC5
:10086000B61A754640EA5C005B084FEA3202B6EB06
:10087000020E75EB030E22BFB61A754640EA9C00C5
:100880005B084FEA3202B6EB020E75EB030E22BF95
:10089000B61A754640EADC0055EA060E18D04FEA53
:1008A000051545EA16754FEA06164FEAC30343EAF3
:1008B00052734FEAC2025FEA1C1CC0D111F4801FC0
:1008C0000BD141EA00014FF000004FF0004CB6E7B9
:1008D00011F4801F04BF01430020B4F1FD0C88BF58
:1008E000BCF5E06F3FF6AFAEB5EB030C04BFB6EB63
:1008F000020C5FEA500C50F1000041EB045170BD56
:100900000EF0004E4EEA113114EB5C04C2BFD4EB82
:100910000C0541EA045170BD41F480114FF0000E06
:10092000013C90E645EA060E8DE60CEA135594EA82
:100930000C0F08BF95EA0C0F3FF43BAF94EA0C0F85
:100940000AD150EA01347FF434AF95EA0C0F7FF4FA
:1009500025AF104619462CE795EA0C0F06D152EA4E
:1009600003353FF4FDAE1046194622E750EA410632
:1009700018BF52EA43067FF4C5AE50EA41047FF443
:100980000DAF52EA43057FF4EBAE12E74FF0FF3CA8
:1009900006E000BF4FF0010C02E000BF4FF0010C79
:1009A0004DF804CD4FEA410C7FEA6C5C4FEA430CF2
:1009B00018BF7FEA6C5C1BD001B050EA410C0CBF41
:1009C00052EA430C91EA030F02BF90EA020F0020A3
:1009D000704710F1000F91EA030F58BF994208BF0A
:1009E00090422CBFD8176FEAE37040F001007047C7
:1009F0004FEA410C7FEA6C5C02D150EA013C07D11E
:100A00004FEA430C7FEA6C5CD6D152EA033CD3D068
:100A10005DF8040B704700BF8446104662468C4662
:100A20001946634600E000BF01B5FFF7B7FF002895
:100A300048BF10F1000F01BD4DF808EDFFF7F4FFBE
:100A40000CBF012000205DF808FB00BF4DF808ED49
:100A5000FFF7EAFF34BF012000205DF808FB00BF6C
:100A60004DF808EDFFF7E0FF94BF012000205DF88E
:100A700008FB00BF4DF808EDFFF7CEFF94BF012043
:100A800000205DF808FB00BF4DF808EDFFF7C4FF3C
:100A900034BF012000205DF808FB00BF4FEA410C85
:100AA0007FEA6C5C02D150EA013C0AD14FEA430C68
:100AB0007FEA6C5C02D152EA033C02D14FF00000A5
:100AC00070474FF0010070474FEA410212F50012E3
:100AD00015D211D56FF47873B3EB625212D94FEA85
:100AE000C12343F0004343EA505311F0004F23FA6F
:100AF00002F018BF404270474FF00000704750EAC4
:100B0000013005D111F0004008BF6FF00040704780
:100B10004FF00000704700BF4A0011D212F50012DA
:100B200011D20DD56FF47873B3EB62520ED44FEA45
:100B3000C12343F0004343EA505323FA02F07047C5
:100B40004FF00000704750EA013002D14FF0FF3003
:100B500070474FF0000070474FEA4102B2F1E043A6
:100B600024BFB3F5001CDCF1FE5C0DD901F0004C94
:100B70004FEAC0024CEA5070B2F1004F40EB8300E4
:100B800008BF20F00100704711F0804F21D113F110
:100B90003872BCBF01F00040704741F480114FEA49
:100BA0005252C2F11802C2F1200C10FA0CF320FAD2
:100BB00002F018BF40F001004FEAC1234FEAD323EF
:100BC00003FA0CFC40EA0C0023FA02F34FEA430359
:100BD000CCE77FEA625307D150EA01331EBF4FF0E2
:100BE000FE4040F44000704701F0004040F0FE40FD
:100BF00040F40000704700BF034613F8012B002AA1
:100C0000FBD1181A013870470000000000000000F6
:100C100001F0FF01102A2BDB10F0070F08D010F8AD
:100C2000013B013A8B422DD010F0070F42B3F6D1B1
:100C3000F0B441EA012141EA014122F007047FF0CA
:100C400000070023F0E80256083C85EA010586EA21
:100C5000010685FA47F5A3FA87F586FA47F6A5FA5D
:100C600087F68EB9EED1F0BC01F0FF0102F0070269
:100C700032B110F8013B013A83EA010313B1F8D114
:100C80000020704701387047002D06BF35460338F5
:100C9000073815F0010F07D1013015F4807F02BF2E
:100CA000013015F4C03F0130F0BC0138704700BF7F
:100CB00080B582B000AF786038200CF082FA03462D
:100CC000002B0ED19F4B1B680D2201219E480CF07A
:100CD00081FC9E4B1B680D2201219B480CF07AFC85
:100CE0000DE0984B1B680C22012199480CF072FC16
:100CF000964B1B680C22012195480CF06BFC3C20A4
:100D00000CF05FFA0346002B0ED18E4B1B680D22B0
:100D1000012190480CF05EFC8C4B1B680D220121D8
:100D20008C480CF057FC0DE0864B1B680C2201210F
:100D300089480CF04FFC854B1B680C22012186482A
:100D40000CF048FC30200BF0C4FA0346012B0ED106
:100D50007C4B1B680D22012180480CF03BFC7B4B37
:100D60001B680D2201217D480CF034FC02E07C4818
:100D70000AF004FE32200BF0ACFA0346012B0ED130
:100D8000704B1B680D22012176480CF023FC6F4B41
:100D90001B680D22012173480CF01CFC02E0704816
:100DA0000AF0ECFD11F0A4F801220021032011F05B
:100DB00055F90346012B0DD1624B1B6801226A498C
:100DC00018460CF0A7FA614B1B68012266491846C9
:100DD0000CF0A0FA01220021042011F03FF9034693
:100DE000012B0DD1574B1B6802225F4918460CF0AE
:100DF00091FA564B1B6802225B4918460CF08AFA9E
:100E000001220021052011F029F90346012B0DD103
:100E10004C4B1B680322544918460CF07BFA4B4B91
:100E20001B680322504918460CF074FA032011F095
:100E3000E7FA0346012B0ED1424B1B6801224B49B6
:100E400018460CF067FA414B1B68012247491846C7
:100E50000CF060FA0DE03B4B1B6801224449184638
:100E60000CF058FA394B1B680122414918460CF026
:100E700051FA042011F0C4FA0346012B0ED1314B74
:100E80001B680222394918460CF044FA2F4B1B68A4
:100E90000222364918460CF03DFA0DE0294B1B683A
:100EA0000222334918460CF035FA284B1B680222FF
:100EB0002F4918460CF02EFA052011F0A1FA03462E
:100EC000012B0ED11F4B1B680322284918460CF03A
:100ED00021FA1E4B1B680322244918460CF01AFA0B
:100EE0000DE0184B1B680322214918460CF012FA3A
:100EF000164B1B6803221E4918460CF00BFA012002
:100F00001EF012FF01201EF00FFF01201EF0F0FE68
:100F1000002001F0B9FD01201EF0EAFE154B5B69CF
:100F2000144A43F01003536132200BF0ADFF114B14
:100F30005B69104A23F0100353614FF47A700BF091
:100F4000A3FFE8E714000020D03D02080C000020B9
:100F5000E03D0208F03D0208003E0208103E020893
:100F60004CE60020203E0208303E0208443E0208C3
:100F7000543E02080008024090B5DDB000AF07F112
:100F8000680318464FF482731A46002120F0DAF9FC
:100F900007F1500300221A605A609A60DA601A6101
:100FA0009A820023A7F86E3107F14D0300221A70D0
:100FB00007F15003184600F0BBFA07F14D0207F1A4
:100FC0004E0107F15003184600F0A0F907F14D0358
:100FD0001B78002B01D0012382E007F14E031B8810
:100FE0001846FFF757FA4FF00002404BFFF7BCFAE4
:100FF00003460C4618462146FFF78EFD0346A7F828
:101000006C3107F1340207F140031146184601F034
:10101000B9FB07F14003184601F02CFF07F1340338
:10102000184601F027FF07F140023B4630491846B9
:1010300020F0A4FE3B46184601F0C8FA44E007F150
:101040006803184600F046FC07F1680107F1400309
:101050004FF48272184601F0AFFF07F150031846B3
:1010600000F066FA07F14D0207F14E0107F1500357
:10107000184600F04BF907F14D031B78002B01D007
:1010800001232DE007F1500107F134031622184621
:1010900001F046FFB7F86E31164AA2FB031252095F
:1010A0004FF4FA7101FB02F29B1A9BB2002B06D19E
:1010B00001201EF01DFE0121012001F001F8B7F80A
:1010C0006E310133A7F86E3107F14E031B88002BF8
:1010D00005D0B7F86E21B7F86C319A42AFD3002330
:1010E000184607F5BA77BD4690BD00BF0000F83F2F
:1010F000683E0208D34D621080B582B000AF012077
:101100001EF0F6FD01221021204814F0D5FD01212A
:10111000022000F05BFF00F0C9F80323BB7100233D
:10112000FB710BE01A4801F051FA1A4801F04EFA2F
:1011300001201EF0DDFDFB790133FB7100F0CFF8DB
:101140000346002B03D0FA79BB799A42EAD3FA79A5
:10115000BB799A4204D10E4801F038FA012311E01C
:101160000121002000F05AFD0B4801F02FFA012068
:101170001EF0BEFD0021102000F050FD074801F0D8
:1011800025FA002318460837BD4680BD00000240FE
:101190007C3E0208983E0208BC3E0208D43E02088B
:1011A00080B500AF0121022000F038FD0346002B7E
:1011B00004D0044801F00AFA012300E00023184695
:1011C00080BD00BF9040020880B590B000AF0346DC
:1011D000FB71FB79002B07D10121032000F01EFDDC
:1011E0000E4801F0F3F916E0FB799BB21946012095
:1011F00000F014FD0021032000F010FDFA7907F142
:101200000C030749184620F0B9FD07F10C031846F6
:1012100001F0DCF900BF4037BD4680BDBC4002088C
:10122000D440020880B500AF0E4B1B681322012189
:101230000D480CF0CFF90121062001F00DF9012134
:10124000052000F0C3FE0121052001F005F9012170
:10125000052000F0BBFE0121012000F031FF00BF9E
:1012600080BD00BF140000204C41020880B500AFD3
:101270000C4B1B68122201210B480CF0ABF900212A
:10128000052001F0E9F80121052000F09FFE002172
:10129000062001F0E1F80121012000F011FF00BF5C
:1012A00080BD00BF140000206041020880B500AF7F
:1012B00001201EF01DFDFFF7B5FF0121052000F004
:1012C00085FE01201EF014FDFFF7D0FF01211E2036
:1012D00000F07CFE01201EF00BFD00BF80BD80B53C
:1012E00000AF00F077FB0346002B01D001230BE099
:1012F0000121052000F06AFE00F06CFB0346002B84
:1013000001D0022300E00023184680BDB0B5A6B08E
:1013100000AFF860B9607A60FB689B7887F8973017
:10132000FB6803331B781B021AB2FB6804331B787B
:101330001BB213431BB2A7F89430FB6805331B782C
:101340001B021AB2FB6806331B781BB213431BB295
:10135000A7F89230FB6807331B781A06FB6808333E
:101360001B781B041A43FB6809331B781B021343C9
:10137000FA680A3212781343C7F88C307B6800226F
:101380001A7097F89730002B0FD007F12803604AA6
:101390001C4615460FCD0FC495E8030020600434A9
:1013A000218002340B0C23700AE007F12803594A0C
:1013B0001C4615460FCD0FC495E8030084E80300D2
:1013C000B7F8943003F00103002B0FD007F1280386
:1013D0001846FFF711FC03461A4607F12803134489
:1013E0004D491A460B4603CB10605160B7F8943054
:1013F00003F00203002B10D007F128031846FFF773
:10140000FBFB03461A4607F128031344434A1C46D4
:10141000134607CB20606160A260B7F8943003F0F8
:101420000803002B12D007F128031846FFF7E4FB4E
:1014300003461A4607F128031344394A1C4613464B
:1014400007CB20606160A2601B782373B7F89430EB
:1014500003F01003002B27D007F128031846FFF7ED
:10146000CBFB03461A4607F1280313442D491A46BD
:101470000B4603CB106051601B78137207F1100309
:1014800000221A605A609A60DA601A619A8207F143
:101490001003184600F088F807F11003184600F012
:1014A00029F97B6801221A70B7F8943003F0200301
:1014B000002B16D007F128031846FFF79DFB0346C3
:1014C0001A4607F12803134417491A460B4603CB63
:1014D0001060516019889B78118193727B6801229A
:1014E0001A707B681B78002B07D0104801F06EF84B
:1014F00007F12803184601F069F8BB68B7F8922095
:101500001A80B7F8943018469837BD46B0BD00BF72
:10151000744102088C410208A4410208AC4102084F
:10152000B8410208C8410208D4410208E04102085B
:1015300080B584B000AF78600023BB600023FB73EC
:1015400007E0FB7B7A68134400221A70FB7B0133AF
:10155000FB73FB7B152BF4D991233B7201237B7228
:1015600007F108030421184600F0C2FB07F1080345
:101570000421184600F06AFC0346002B01D0012329
:101580000DE003200BF080FC01221621786800F0AA
:1015900095FC0346002B01D0022300E000231846EF
:1015A0001037BD4680BD000080B5A0B000AF7860A8
:1015B00007F1780300221A601A71942387F87830B3
:1015C000012387F87930152387F87A3007F17803FB
:1015D0000521184600F08CFB002387F87F300AE0D5
:1015E00097F87F307A68134400221A7097F87F309A
:1015F000013387F87F3097F87F30152BF0D93748C3
:1016000000F0E4FF07F178030521184600F01EFC06
:101610000346002B04D0324800F0D8FF012359E0E4
:1016200003200BF031FC01221621786800F046FC03
:101630000346002B04D02B4800F0C8FF022349E0EA
:1016400007F114031846FFF7D7FA03461A4607F1C5
:101650001403134424491A460B4603CB106051600F
:1016600019889B7811819372002387F87F3018E0E6
:1016700097F87F307A6813441B781A4607F10C03F9
:101680001A49184620F07AFB07F10C0207F11403FF
:101690001146184620F0BEFB97F87F30013387F8DB
:1016A0007F3097F87F30152BE2D907F114031846E5
:1016B000FFF7A2FA03461A4607F1140313440C4A33
:1016C0001188927819809A7007F11403184600F077
:1016D0007DFF002318468037BD4680BD00420208CA
:1016E0001C420208344202084842020854420208DE
:1016F0005C420208F0B5B7B000AF786007F10C03A8
:101700001846FFF779FA03461A4607F10C0313440B
:10171000694A1D4614460FCC28606960AA60EB60D8
:1017200003CC2861696123782B767B6802331B78B0
:101730001B021AB27B6803331B781BB213431BB224
:10174000A7F8D630B7F8D63003F00103002B18D035
:1017500007F10C031846FFF74FFA03461A4607F144
:101760000C031344554A1C4615460FCD206061609A
:10177000A260E36028682061AB88AA79A38213463F
:10178000A375B7F8D63003F00203002B16D007F18B
:101790000C031846FFF730FA03461A4607F10C030C
:1017A0001344474A1D4614460FCC28606960AA605E
:1017B000EB6003CC2861696123782B76B7F8D630CB
:1017C00003F00303002B11D007F10C031846FFF7B9
:1017D00013FA03461A4607F10C031344394A1C4610
:1017E00015460FCD20606160A260E360B7F8D63087
:1017F00003F00503002B15D007F10C031846FFF783
:10180000FBF903461A4607F10C0313442E4A1D4602
:1018100014460FCC28606960AA60EB6020682861DC
:1018200023792B75B7F8D63003F00603002B13D0BD
:1018300007F10C031846FFF7DFF903461A4607F1D4
:101840000C031344214A1D4614460FCC28606960DE
:10185000AA60EB6020682861B7F8D63003F0070370
:10186000002B1ED007F10C031846FFF7C5F90346FD
:101870001A4607F10C031344154A14469C4604F11A
:10188000200E654626460FCE28606960AA60EB6090
:1018900010340CF1100C7445F3D1634622461278D3
:1018A0001A7007F10C03184600F090FEB7F8D63016
:1018B0001846DC37BD46F0BD604202087C42020893
:1018C00094420208B0420208C0420208D84202080C
:1018D000EC42020880B584B000AF786007F10803DD
:1018E00000221A601A7197233B7201237B72002336
:1018F000BB7207F108030521184600F0F9F92F4BD8
:101900001B681E2201212E480BF064FE07F108031C
:101910000521184600F09AFA0346002B01D0012356
:1019200047E003200BF0B0FA00221021254814F004
:10193000C3F940F6B8334FF48272796822481AF03E
:101940006FFD0346FB73012210211E4814F0B4F909
:10195000FB7B002B0DD0194B1B68242201211B4857
:101960000BF038FEFB7B0021184600F067FF0223D6
:101970001FE007F1080301220021184600F09EFA3B
:101980000346002B01D0032313E04FF482717868E3
:1019900000F0D1F9034683F00103DBB2002B02D043
:1019A0000B4800F013FE4FF48271786800F06CFB76
:1019B000002318461037BD4680BD00BF140000202C
:1019C000104302080000024008EA002030430208E9
:1019D0005843020880B500AF0021012000F044F810
:1019E0000346184680BD000080B500AF184B1B8829
:1019F0001946002000F012F9164B1B8819461220D8
:101A000000F00CF9134B1B881946122000F006F960
:101A1000114B1B8819460B2000F000F90F4B1B8857
:101A20001946132000F0FAF80D4B1B8819460720C1
:101A300000F0F4F80B4B1B881946082000F0EEF874
:101A40000121002000F010F80346184680BD00BFB9
:101A50000000002002000020B0070020AE07002098
:101A6000B2070020B4070020B0B596B004AF03461B
:101A70000A46FB711346BB7107F1280300221A6066
:101A80005A609A60DA601A615A611A7607F1200387
:101A900000221A601A71FB79002B0AD0554B1B6883
:101AA0001622012154480BF095FD902387F8283029
:101AB00009E0504B1B681622012150480BF08AFDAB
:101AC000922387F82830012387F82930BB79002B2F
:101AD0000AD0484B1B681C22012149480BF07AFDB3
:101AE000012387F82A3009E0424B1B681C220121A0
:101AF00044480BF06FFD002387F82A30424B1A68E8
:101B000007F10C031946414818F0EDFD3E4B1A68E9
:101B100007F1080319463D4818F0F8FE354B1868E0
:101B20007B7A1C46BB7A1D463B7B7A7BB97B029154
:101B3000019200932B46224635490BF0EBFBBB7B11
:101B400019467B7B1A4613461B019B1A9B00CA1839
:101B50003B7B19464FF4616303FB01F31A44BB7AE4
:101B600019462C4B03FB01F31A447B7A19462A4B86
:101B700003FB01F313447B647B6C1B0EDBB287F821
:101B80002D307B6C1B0CDBB287F82E307B6C1B0A74
:101B9000DBB287F82F307B6CDBB287F8303007F18F
:101BA00028031921184600F0A3F807F1280319218A
:101BB000184600F04BF90346002B01D0012315E035
:101BC00003200BF061F907F12003002205211846DC
:101BD00000F074F90346002B01D0022306E007F160
:101BE00020030521184600F04FFA00231846483715
:101BF000BD46B0BD14000020A8430208C04302083F
:101C0000D8430208F8430208B807002070E8002013
:101C10001844020880510100008D270080B586B06D
:101C200000AF03460A46FB711346BB8007F1100361
:101C300000221A60C3F8032007F1080300221A608B
:101C40001A7193233B7401237B74FB79BB74BB88AB
:101C50001B0A9BB2DBB2FB74BB88DBB23B7507F19E
:101C600010030721184600F043F81D4B1868FA7955
:101C7000BB881C490BF04EFB07F1100307211846E7
:101C800000F0E4F80346002B08D0154B1B681C221B
:101C9000012115480BF09EFC01231CE003200BF0F2
:101CA000F3F807F1080300220521184600F006F9B1
:101CB0000346002B08D00A4B1B681D2201210B484C
:101CC0000BF088FC022306E007F108030521184603
:101CD00000F0DAF9002318461837BD4680BD00BF72
:101CE000140000204844020868440208884402089E
:101CF00080B584B000AF786039603B68023B1A461B
:101D000079684FF6FF7000F043F80346FB81FB89CA
:101D10001B0A99B23B68023B7A681344CAB21A7034
:101D20003B68013B7A681344FA89D2B21A7000BF4B
:101D30001037BD4680BD80B584B000AF7860396093
:101D40003B68023B1A4679684FF6FF7000F020F8B6
:101D50000346FB81FB891B0A9BB27B73FB893B73A8
:101D60003B68023B7A6813441B787A7B9A4209D11C
:101D70003B68013B7A6813441B783A7B9A4201D155
:101D8000012300E0002318461037BD4680BD000047
:101D900080B5ADF5087D00AF07F1080319603B1D64
:101DA0001A6007F10E0302461A8007F11003264A53
:101DB000184611464FF400731A461FF0B8FA4FF652
:101DC000FF73A7F81E320023A7F81C322EE0B7F8E5
:101DD0001C3207F10802126813441B78A7F81A3264
:101DE000B7F81E321B0AA7F81832B7F81822B7F84E
:101DF0001A325340A7F81632B7F81632DBB2A7F8FA
:101E00001432B7F81E321B02A7F81232B7F81422A8
:101E100007F1100333F81220B7F812325340A7F835
:101E20001E32B7F81C320133A7F81C32B7F81C3247
:101E30003A1D12689A42CADCB7F81E32184607F5F6
:101E40000877BD4680BD00BFA844020880B586B0B3
:101E500002AF786039600123FB733B689AB2642358
:101E6000009313467A68CC21104814F067F80346B3
:101E7000FB73FB7B002B13D00D4B1B68262201212B
:101E80000C480BF0A7FB0A4B1B681A2201210A48D9
:101E90000BF0A0FBFB7B184600F0D0FCFB7B00E0C6
:101EA000002318461037BD4680BD00BF94E40020D3
:101EB00014000020A8460208D046020880B588B069
:101EC00002AFF860B9601346FB713A4B1B680F22F2
:101ED000012139480BF07EFB0123FB7507F110034C
:101EE00000221A601A71BB68002B32D0BB689AB20C
:101EF000642300931346FA68CC21304814F02CF97F
:101F00000346FB75FB7D002B0CD02A4B1B6825225A
:101F100001212B480BF05EFBFB7D184600F08EFC88
:101F2000FB7D42E0BB68B3F5827F05D1FB6891225F
:101F30001A70FB6895221A70B968F868FFF7FBFE03
:101F4000034683F00103DBB2002B02D01D4800F0F2
:101F50003DFBFB79002B27D0FB681B783B740123EA
:101F60007B747E23BB7407F1100305211846FFF72D
:101F7000BFFE07F11002642300930523CC210F4814
:101F800013F0DCFF0346FB75FB7D002B0CD0094BE7
:101F90001B681C2201210C480BF01CFBFB7D184622
:101FA00000F04CFC022300E0002318461837BD4621
:101FB00080BD00BF14000020EC46020894E400201D
:101FC000FC460208584302082447020880B584B042
:101FD00000AF03460A46FB8013467B717B79002BDA
:101FE00006D0244B1B68FA88234918460BF092F957
:101FF00001201DF07DFE0023FB8124E064200AF017
:1020000043FF01201DF074FE7B79002B18D0FA8964
:102010001A4BA3FB0213D9080B469B000B445B0031
:10202000D31A9BB2002B0BD1124B1868FB89134AB1
:10203000A2FB0323DB089BB21A4611490BF06AF995
:10204000FB890133FB81F989FA8813469B0013440D
:102050005B009942D2DB7B79002B06D0054B1B68D5
:102060000222012107480BF0B5FA00BF1037BD4628
:1020700080BD00BF1400002044470208CDCCCCCC6A
:102080005C4702086447020880B582B000AF786000
:1020900039603B68052B0BD17B6802331B787E2BA4
:1020A00006D1054B1B680F22012104480BF092FA60
:1020B00000BF0837BD4680BD1400002068470208F5
:1020C000F0B5ADF5497D06AF07F10C03186007F1D7
:1020D00008031960864BC7F80433864BC7F80033F2
:1020E00007F11003844A07CA83E8070007F53E7327
:1020F0001946012000F04CF907F53D7319460220FE
:1021000000F046F907F53C7319460B2000F040F942
:1021100007F5207319462B2000F03AF9774B1B681E
:10212000D7F88022764918460BF0F4F807F53B7390
:102130001946102000F02CF907F53A7319461120C2
:1021400000F026F96F4B1B681A466F496F4818F06C
:10215000CAFA6C4B1B681A466D496C4818F0D6FBDE
:102160006B4BDB781D466A4B5B781E46684B9B7851
:102170001A46654B1B781946634B5B781C46624BCD
:102180009B7807F5197003930294019100923346EE
:102190002A4660491FF0F2FDD7F8F8327B60D7F885
:1021A000F83207EE903AB8EEE77AD7EDC17A67EEEB
:1021B000277A17EE900AFEF77FF904460D46D7F806
:1021C000F462D7F8F43207EE903AB8EEE77AD7ED3A
:1021D000C07A67EE277A17EE900AFEF76DF902468D
:1021E0000B4607F5197107F52170CDE90423029616
:1021F000CDE900457B680A4647491FF0BFFD07F15E
:102200000C031B68012B5FD107F1100107F13403A8
:10221000132218460DF016FB034687F8FF3297F895
:10222000FF32002B41D1354B1B68292201213B484D
:102230000BF0D0F907F11C0207F110031146184604
:102240000EF0E4FB034687F8FF3297F8FF32002BCD
:1022500025D12A4B1B683022012131480BF0BAF9F5
:1022600007F11C031A6807F13403114618460EF0F3
:1022700078F8034687F8FF3297F8FF32002B0ED12B
:102280001E4B1B683122012126480BF0A3F907F5EC
:10229000217207F13403114618460BF03BF807F1A1
:1022A000340318460EF02EF80EE0144B1B682F2254
:1022B00001211D480BF08EF9104B1B6897F8FF2287
:1022C0001A4918460BF026F807F108031B68012B82
:1022D00008D10A4B1868D7F8EC22D7F8E83214492D
:1022E0000BF018F800BF07F54377BD46F0BD00BFFF
:1022F000DD24164033334340EC480208140000202C
:1023000078470208B80700202CE6002070E800207B
:102310006CE800208C470208AC470208E847020836
:1023200014480208484802087C480208AC480208E1
:10233000C84802080000000090B585B000AF786082
:1023400007F108031946012000F022F8BB6807EEE8
:10235000903AF8EEE77A17EE900AFEF7ADF80AA386
:10236000D3E90023FEF700F903460C461846214640
:10237000FEF7F2FB0346FB607B68FA681A6000BF59
:102380001437BD4690BD00BF5273456B3D2A633F75
:1023900080B588B004AF03463960FB800023BB736F
:1023A0003B68294A1A6009F05FFABB7B002B17D003
:1023B000FB7B012B0BD0FB7B032B08D0FB7B022B81
:1023C00008D1224B93F83D30DBB2202B02D11F48BD
:1023D00009F0D4FA05200AF057FDBB7B092B15D86C
:1023E000FA880A2302930223019307F1080300935A
:1023F00001233021154814F0E9F90346FB73BB7B38
:102400000133BB73FB7B002BCFD100E000BF0F4833
:1024100013F064FDFB7B002B0BD13B7A9BB21B02BC
:102420009AB27B7A9BB21344BB81BA893B681A602B
:1024300006E0074B1B681322012106480BF0CAF87F
:1024400000BF1037BD4680BDF1D8FFFFD8E50020A2
:1024500014000020F848020880B588B002AF034697
:102460000A46FB8013467B710023BB7507F10C0302
:102470003B6109F0F9F9BB7D002B17D0FB7D012BE7
:102480000BD0FB7D032B08D0FB7D022B08D11B4B0F
:1024900093F83D30DBB2202B02D1184809F06EFAD8
:1024A00005200AF0F1FCBB7D092B15D8FB88DBB2B7
:1024B0003B737B797B730A23009302233A693021B3
:1024C0000E4813F03BFD0346FB75BB7D0133BB7526
:1024D000FB7D002BCFD100E000BF084813F0FEFCCD
:1024E000FB7D002B06D0064B1B68142201210548FA
:1024F0000BF070F800BF1837BD4680BDD8E500204E
:10250000140000200C49020880B500AF01201DF026
:10251000EFFB00F09BFD0346002B04D0164800F0B3
:1025200055F8012325E001201DF0E2FB134800F0DF
:10253000DFF80346002B04D0114800F047F80223CF
:1025400017E001201DF0D4FB0C4800F023F80346EF
:10255000002B04D00B4800F039F8032309E00A48A7
:1025600000F034F8094800F031F8094B01221A70E4
:102570000023184680BD00BF24490208F8DC002073
:10258000444902087049020888490208A44902081F
:10259000B607002080B582B000AF7860786800F0A0
:1025A00069FC0346002B04D0064800F00FF8012315
:1025B00003E0054800F00AF8002318460837BD4636
:1025C00080BD00BF704902088849020880B584B008
:1025D00000AF78600023FB73094B1B78002B04D0FD
:1025E000786800F011F80123FB73064B1B687968CB
:1025F00018460AF08FFEFB7B18461037BD4680BD9B
:10260000B607002014000020F0B5A1B004AF786038
:102610002E4B1B681A462E492E4818F064F82B4B97
:102620001B681A462C492B4818F070F92A4BDB78A6
:102630001D46294B5B781E46274B9B781A46244B38
:102640001B781946224B5B781C46214B9B7807F17F
:102650000C00039302940191009233462A461F49CD
:102660001FF08CFB07F10C031846FEF7C5FA034672
:102670001A4607F10C031344194A118892781980FD
:102680009A7007F10C03796818461FF0C3FB07F135
:102690000C031846FEF7B0FA03469AB207F10C0392
:1026A0001946104800F03CFC0346002B08D00E4BA6
:1026B0001B681B2201210D480AF08CFF012300E05A
:1026C000002318467437BD46F0BD00BFB807002090
:1026D0002CE6002070E800206CE80020C8490208C1
:1026E000E8490208F8DC002014000020EC49020848
:1026F00080B594B000AF78600023A7F84E30002377
:1027000087F84D3018E0B7F84E2007F140031B4919
:1027100018461FF033FB07F14003184600F060FD38
:102720000346002B03D1012387F84D3004E0B7F8AE
:102730004E300133A7F84E3097F84D3083F0010347
:10274000DBB2002BDFD101201DF0D2FA07F14002ED
:1027500007F10C030A4918461FF010FB07F10C03A0
:102760001846FFF733FF07F14003194678681FF05A
:1027700060FB002318465037BD4680BD084A02085A
:10278000104A020880B596B000AF78603960002327
:10279000A7F85630002387F8553018E0B7F85620D0
:1027A00007F14803224918461FF0E8FA07F14803E9
:1027B000184600F015FD0346002B03D1012387F8CE
:1027C000553004E0B7F856300133A7F8563097F883
:1027D000553083F00103DBB2002BDFD101201DF067
:1027E00087FAB7F8562007F13C03124918461FF044
:1027F000C5FA07F1480207F108030F4918461FF010
:10280000BDFA07F108031846FFF7E0FE07F1480399
:10281000194678681FF00DFB07F13C03194638682C
:102820001FF007FB002318465837BD4680BD00BF88
:102830002C4A0208384A0208104A020880B582B0C1
:1028400000AF0346FB710B46BB7113467B717B796E
:10285000052B07D9FB79002B04D01048FFF7B6FEF3
:1028600000F0FEF8FB79002B03D10D48FFF7AEFE18
:1028700010E0BB79002B06D07A79FB791146184617
:1028800000F05AF806E07A79FB791146184600F014
:1028900009F800BF0837BD4680BD00BF444A0208A2
:1028A0007C4A020880B582B000AF03460A46FB713D
:1028B0001346BB71BB79052B08D91A48FFF786FE72
:1028C000BA79FB7900211846FFF7B8FFFB79012B95
:1028D00007D11548FFF77AFEBB79184600F09EF83D
:1028E0001BE0FB79022B07D11048FFF76FFEBB7985
:1028F000184600F093F810E0FB79032B07D10C4841
:10290000FFF764FEBB79184600F088F805E0FB7914
:10291000002B02D10748FFF759FE00BF0837BD461C
:1029200080BD00BFB44A0208F04A0208084B020802
:10293000344B0208484B020880B582B000AF034612
:102940000A46FB711346BB71BB79052B08D91D489C
:10295000FFF73CFEBA79FB7901211846FFF76EFFBD
:10296000FB79012B07D11848FFF730FEBB791846D9
:1029700000F032F821E0FB79022B07D11348FFF772
:1029800025FEBB79184600F027F816E0FB79032BEB
:1029900007D10F48FFF71AFEBB79184600F01CF864
:1029A0000BE0FB79002B08D10A48FFF70FFEBA793C
:1029B000FB7901211846FFF741FF00BF0837BD46EC
:1029C00080BD00BF5C4B0208984B0208B04B020868
:1029D000DC4B0208F04B020880B584B000AF034620
:1029E000FB710C48FFF7F2FD0B4813F077FA0A4829
:1029F00013F094F90346FB73FB790133FB71FA7909
:102A0000FB7B11461846FFF797FF00BF1037BD4606
:102A100080BD00BF044C020894E4002080B584B05F
:102A200000AF0346FB710C48FFF7D0FD0B4819F0CF
:102A300092FB0A4819F023FB0346FB73FB79013331
:102A4000FB71FA79FB7B11461846FFF72BFF00BF9D
:102A50001037BD4680BD00BF044C020808EA0020C4
:102A600080B500AF0648FFF7B1FD00220021054800
:102A70000CF084FE002000F007F800BF80BD00BF0E
:102A8000284C0208A4EC002080B59EB000AF03469D
:102A9000FB71042387F8753001201DF029F9FA79BC
:102AA00097F875309A4201D9FFF7DAFF0121092022
:102AB000FFF7D2FC01210820FFF7CEFC0121012005
:102AC000FFF7FEFA0A200AF0DFF907F16C03184657
:102AD000FFF732FCFB6E1846FDF7EEFCD4A3D3E9FA
:102AE0000023FDF7B3FF0346002B21D0FEF79AFB2E
:102AF00012E0D148FFF76AFD01201DF0F9F844F615
:102B000020600AF0C1F901210120FFF7D9FA07F18D
:102B10006C031846FFF710FCD7ED1B7AB1EE007A74
:102B2000F4EEC77AF1EE10FAE3D40020FFF7ACFF21
:102B300007F1540300221A605A609A60DA601A6141
:102B40009A82052387F874300023A7F84830502371
:102B5000A7F84A309F23A7F84C30EE23A7F84E3051
:102B600040F23D13A7F85030FFF7CEFC0346002B90
:102B700002D0B248FFF72AFD01201DF0B9F8FEF798
:102B8000BBFA0346002B0ED0AD48FFF71FFDAD4842
:102B9000FFF71CFD01201DF0ABF8FB795A1CFA7100
:102BA0001846FFF771FFA84B1B681C220121A7489C
:102BB0000AF010FD09200AF067F9A34B1B680C22EC
:102BC0000121A3480AF006FD002387F8773007F1BA
:102BD00040031846FFF7B0FB3B6C1846FDF76CFC52
:102BE00093A3D3E90023FDF731FF0346002B21D047
:102BF000FEF718FB12E09048FFF7E8FC01201DF0FB
:102C000077F844F620600AF03FF901210120FFF730
:102C100057FA07F140031846FFF78EFBD7ED107AFD
:102C2000B1EE007AF4EEC77AF1EE10FAE3D40020A8
:102C3000FFF72AFF97F8772097F874309A4202D965
:102C4000002387F8773097F877305B0007F1780238
:102C5000134433F8303CDBB21846FEF7B5FA0423D0
:102C600087F87330002387F8723008E07948FFF75F
:102C7000ADFC7948FFF7AAFC01201DF039F8FEF7FA
:102C8000B3FE0346002B05D097F8722097F87330F7
:102C90009A42EBD397F8722097F873309A420ED18C
:102CA0006C48FFF793FC6748FFF790FC01201DF08C
:102CB0001FF8FB795A1CFA711846FFF7E5FE07F179
:102CC00054031846FEF734FC07F1470207F152019E
:102CD00007F154031846FEF719FB01201DF008F810
:102CE000FEF75EFA01201DF003F8002387F8763026
:102CF0005A2387F8713049E05848FFF767FC4FF4D2
:102D00007A700AF0C1F807F154031846FEF710FC78
:102D100007F1470207F1520107F154031846FEF785
:102D2000F5FA07F154031846FEF702FC07F14702D3
:102D300007F1520107F154031846FEF7E7FA07F1CD
:102D400054031846FEF7F4FB07F1470207F152015E
:102D500007F154031846FEF7D9FA97F87620404B4E
:102D6000A3FB021319090B469B000B449B00D31ACB
:102D7000DBB2002B05D13B48FFF728FC01201CF0FB
:102D8000B7FF97F87630013387F8763097F87620DA
:102D900097F871309A420DD807F1470207F15201B6
:102DA00007F154031846FEF7B1FA034603F0020395
:102DB000002BA1D097F8762097F871309A420BD962
:102DC0002948FFF703FC01201CF092FFFB795A1CF5
:102DD000FA711846FFF758FE2448FFF7F7FB97F8FB
:102DE00077305B0007F17802134433F8303C1A4621
:102DF00007F10C031E4918461EF0C0FF07F10C0333
:102E00001846FFF7E3FB00210020FEF72DFEFEF73A
:102E1000B3F801210020FEF727FE01201CF068FF17
:102E200097F87730013387F87730D0E6AFF300803A
:102E30009A99999999990D403C4C02085C4C02086A
:102E4000704C02088C4C020814000020AC4C0208A4
:102E5000CC4C0208DC4C0208F84C0208084D020871
:102E6000CDCCCCCC204D0208384D0208604D020874
:102E70007C4D020880B584B000AF7860122279687A
:102E800021480CF0DFFC0346FB73FB7B052B09D1CB
:102E9000786800F02DF90A2279681B480CF0D2FC02
:102EA0000346FB73FB7B002B24D0184B1B6879680F
:102EB00018460AF02FFA154B1B681F2201211448EF
:102EC0000AF088FB114B1B68FA7B124918460AF07E
:102ED00021FA0E4B1B68022201210F480AF07AFBEF
:102EE0000A4B1B68122201210C480AF073FB0223D3
:102EF000BB7304E004480DF005FA0023BB73BB7BF1
:102F000018461037BD4680BD74EA0020140000202A
:102F1000944D0208B44D0208BC4D0208C04D020891
:102F200080B586B000AFF860B9601346FB803222EE
:102F3000F9681D480CF086FC0346002B0BD000F00E
:102F40001DFA1A4B1B681F22012119480AF042FB87
:102F50000223FB7522E0FA8807F11003B9681248D2
:102F60000CF0A3FF0346BB753B69002B02D0BB7D71
:102F7000002B0ED000F002FA0C4B1B681722012127
:102F80000C480AF027FB08480DF0BCF90123FB753B
:102F900004E005480DF0B6F90023FB75FB7D1846EB
:102FA0001837BD4680BD00BF74EA00201400002021
:102FB000944D0208D44D020880B586B000AFF86089
:102FC000B9601346FB803222F9681C480CF03AFCC9
:102FD0000346002B0BD000F0D1F9194B1B681F22C0
:102FE000012118480AF0F6FA0223FB7521E0FA885D
:102FF00007F11003B96811480CF057FF0346BB7581
:10300000FA883B699A4202D1BB7D002B0CD00C4B55
:103010001B68172201210C480AF0DCFA07480DF062
:1030200071F90123FB7504E004480DF06BF90023EE
:10303000FB75FB7D18461837BD4680BD74EA00203D
:1030400014000020944D0208D44D020880B5ADF55F
:10305000047D02AF002387F807320022124913488B
:103060000CF08CFB0346002B14D01148FFF7AEFA8E
:103070003A1D4FF4007300931346002207210A48BB
:103080000DF0C4FE0346002B04D00A48FFF79EFA59
:10309000012303E00848FFF799FA0023184607F5D3
:1030A0000277BD4680BD00BF70EA0020A4EC00207E
:1030B000044E0208444E0208984E020880B584B0BF
:1030C00000AF78607868FDF797FD03460133184636
:1030D0001EF00EF90346FB60FB68002B03D07968F5
:1030E000F8681EF0A6FEFB6818461037BD4680BD86
:1030F00080B586B000AF786001201CF0F9FD7868DB
:10310000FFF7DCFFF860F868FDF776FD03463B61EA
:1031100002E03B69013B3B613B69002B06D03B6908
:10312000013BFA6813441B782F2BF2D13B69002B2B
:1031300002D03B69013B3B613B69002B3DD03B69C1
:10314000FA68134400221A70F8680DF051FD034626
:10315000FB75FB7D002B1BD01B4B1B68FA7D1B49AD
:1031600018460AF0D7F8184B1B68022201211848AC
:103170000AF030FA144B1B681222012115480AF09C
:1031800029FA114B1B68FA68134918460AF0C2F86D
:10319000FB7D052B07D1F868FFF7AAFFF8680DF053
:1031A00027FD0346FB75FB7D002B06D1064B1B68F4
:1031B000FA680A4918460AF0ADF8F8681EF0A0F857
:1031C00000BF1837BD4680BD14000020B44D020872
:1031D000BC4D0208C04D0208BC4E0208D44E020885
:1031E00080B596B000AF7860022387F8573007F1BA
:1031F0003C03194678680DF009FC034687F8563001
:1032000097F85630002B02D0042B04D007E001239E
:1032100087F857300FE0002387F857300BE007F1AD
:1032200008037A68074918461EF0A8FD07F108034D
:103230001846FFF7CBF997F8573018465837BD4670
:1032400080BD00BFE84E0208B0B58AB000AF374B72
:10325000374A1A6008F090FE364B5B6A354A43F4F1
:10326000E023536272B6334B4FF000629A6062B64D
:1032700000F0BCF81BF00AFA08F07AF808F0FAF847
:1032800008F0A0FD08F05EFA08F096FA08F01AFBC4
:1032900008F046FB08F0D2FB08F006FC08F03CFC06
:1032A00008F070FC08F03AFD08F0E0FC08F060FD62
:1032B00008F0D8FD204B1B68184600F0BBFB1F4BE5
:1032C0001B68184600F0B6FB1D4B5B691C4A23F0D7
:1032D000200353611B4B07F114041D460FCD0FC48F
:1032E0002B68236007F114030021184609F0A5FD9F
:1032F0000246154B1A6000F0C7F91CF08BFC134B0B
:103300003C461D460FCD0FC42B6823603B46002171
:10331000184609F092FD02460D4B1A600122402129
:103320000C4812F0C9FC09F065FDFEE734040020EA
:103330005028004000ED00E0140000200C000020A8
:10334000000802402C4F020804DD0020504F020804
:1033500008DD00200018024080B582B000AF786020
:103360007B681B68044A934201D11BF0B1F900BF8E
:103370000837BD4680BD00BF0000014080B500AFEA
:10338000104B5B690F4A43F0100353610D4B5B69AF
:103390000C4A43F0200353614FF4FA601BF0B2F97A
:1033A000084B5B69074A23F010035361054B5B69C7
:1033B000044A23F0200353614FF4FA601BF0A2F992
:1033C000DEE700BF0008024080B500AFFFF7D6FF80
:1033D00000BF80BD80B582B000AF78603960FFF774
:1033E000CDFF00BF0837BD4680BD000080B500AFEF
:1033F00000F00CF902460E4B1A600D4B1B68002BB7
:103400000CD14FF4806200210A481DF09BFF094B4C
:10341000094A1A60064B094A1A6007E0044B1B6808
:103420004FF48062194603481DF081FF00BF80BD44
:103430000CE100200CDD00202143AA5500001E08ED
:1034400090B58FB000AF002387F82F3012F002F84C
:1034500000F098F878637B6B002B16D100237B601B
:1034600001233B611723FB6002237B6107F11802F4
:103470003B1D1146184611F04FFE0346002B02D0AB
:1034800012F002F843E0234B7B63234B234A1A607C
:1034900007F11C031946204800F046F8FB691E4A54
:1034A000C2F8FC330023BB621D4BF322DA60002319
:1034B0003B631CE0184A3B6B13441B78DBB24FF0B4
:1034C0000004C7E908347A6B3B6BD118D7E90823AD
:1034D000B86A11F06BFF034687F82F3097F82F304A
:1034E000002B0ED1BA6A3B6B134401333B63BB6ABA
:1034F00001334FF48062B2FBF3F33A6B9A42D9D3B3
:1035000000E000BF11F0C0FF064A7B6B13603C3740
:10351000BD4690BD00001E080CDD00202143AA55C9
:10352000003C02400CE1002080B582B000AF786022
:1035300039607B68104A934203D97B680F4A9342F3
:1035400009D97B68B3F1005F11D37B6803F5806311
:103550000B4A93420BD83B68002B08D04FF47F7284
:10356000796800200AF03AF902463B681A6000BF09
:103570000837BD4680BD00BFFFFF1D0800FC1F08C7
:10358000FAFF022080B483B000AF0023BB801E4B43
:103590001B683B600023FB800DE0B7F904309B0201
:1035A0003A6813441A46FB8813441B78FF2B07D153
:1035B000FB880133FB80FB88B3F5806FEDD300E01F
:1035C00000BFFB88B3F5806F06D2B7F904309BB219
:1035D00001339BB2BB8005E0B7F904309B023A6827
:1035E00013440AE0B7F904309B023A68134403F528
:1035F0008063B3F1026FCDD3002318460C37BD466C
:103600005DF8047B704700BF0CE1002080B584B0FA
:1036100000AF7F23FB811A4BBB60B7F90E309B02D2
:10362000BA6813441B68174A934219D1B7F90E3090
:103630009B02BA6813443A1D11461846FFF774FFFF
:10364000B7F90E309B02BA681344D3F8FC237B68A9
:103650009A4205D1B7F90E309B02BA6813440AE0CA
:10366000B7F90E309BB2013B9BB2FB81B7F90E302C
:10367000002BD2DC002318461037BD4680BD00BFAA
:1036800000001E082143AA55B0B586B000AF002344
:10369000FB752EE0FB7D3A4A4FF40C7101FB03F3FE
:1036A000134400221A60FB7D364A002142F82310A1
:1036B000FB7D354A002142F82310FB7D334A00216F
:1036C00042F82310FB7D324A002142F82310FB7D93
:1036D000304A002142F82310FB7D2F4A002122F8B6
:1036E0001310FB7D2D4A002122F81310FB7D0133BE
:1036F000FB75FB7D022BCDD9294B2A4A1A602A4B38
:103700002A4A1A602A4B2B4A1A60254B1B68012251
:10371000294918461AF0D2FA0346BB75BB7D002B27
:1037200001D0FFF72BFE204B1B68012222491846CF
:103730001AF0C4FA0346BB75BB7D002B01D0FFF71E
:103740001DFE1B4B1B6801221B4918461AF0B6FAD6
:103750000346BB75BB7D002B01D0FFF70FFE174B57
:103760003C461D460FCD0FC42B6823603B4600210D
:10377000184609F062FB00BF1837BD46B0BD00BF58
:10378000340E002028E400201CE4002010E100207A
:10379000BC0D0020C80D0020240E00202C0E00209F
:1037A0000C0000202CE8002010000020C8E90020B8
:1037B0001400002088E9002060EA0020E44F02089D
:1037C0002DE9F041ADF5207D08AF3B1D18600023C9
:1037D00087F85F3208F0EAFB0346012B40F09E8039
:1037E000132387F85E32654B1B681A4664496548A7
:1037F00016F079FF614B1B681A466349614817F060
:1038000085F807F10C031322604918460CF01AF8EA
:10381000034687F85E3297F85E32002B09D107F530
:103820000F73194659480DF0F1F8034687F85E32D8
:1038300005E097F85E32012B01D108F0B7FB97F84D
:103840005E32002B6AD1D7F83C2207F10C031146F7
:1038500018460CF086FD034687F85E3297F85E3214
:10386000002B4BD197F85E32002B41D10021454807
:1038700016F086FDC7F85802454B1B68C7F854324E
:10388000414BDB789C46404B5B789E463E4B9B7899
:103890001A463B4B1B781946394B5B781C46384B14
:1038A0009B781D46D7F858321B0C9BB21E46D7F8A2
:1038B00058329BB23B60D7F854321B0C9BB2D7F8FE
:1038C000540280B207F10C08079006933B680593F9
:1038D00004960395029401910092734662462D4925
:1038E000404609F017FD07F10C03184600F0A2F856
:1038F00007F10C0318460CF005FD0FE0264B1B6882
:1039000097F85E222549184609F004FD244B1B68F0
:1039100097F85E222149184609F0FCFC00201CF0B3
:1039200003FA00201CF0E4F9002000F0AFF8034691
:103930001A4697F85F32134387F85F32012000F090
:10394000A5F803461A4697F85F32134387F85F32AB
:10395000022000F09BF803461A4697F85F321343A3
:1039600087F85F3297F85F32002B02D10A2009F006
:103970008BFA002387F85F32D3E700BFB807002037
:103980002CE6002070E800206CE80020F84F0208C8
:103990005428004004500208140000204C50020833
:1039A0000C00002080B584B000AF786039603B68BF
:1039B000002B0BD03868FDF71FF90346FB81FB890C
:1039C0001A463968786800F007F801E0FFF7D6FC7E
:1039D00000BF1037BD4680BD80B586B000AFF8602F
:1039E000B9601346FB80FB88FB82BB68002B18D0B4
:1039F000FB8A1A46B968002009F0F0FE3861FB8A9C
:103A0000BA6813443A690A4918461EF0B7F9FB8AA6
:103A10000A33FB82FA8AFB680021B86809F0DAFDF4
:103A200001E0FFF7ABFC00BF1837BD4680BD00BF0B
:103A30006050020880B584B002AF78600C4B0193EF
:103A40000C4B0093592301220B49786809F062FC62
:103A50000A4B1A680A4B19680A4B1B6800930B46FD
:103A60000949786809F056FC00BF0837BD4680BD9B
:103A7000905002089C50020868500208107AFF1FFC
:103A8000147AFF1F187AFF1FA8500208F0B5B7B0CC
:103A900008AF0346FB73002387F8AF30FB7B022B94
:103AA00001D9FFF76BFCFB7B1B02BD4A9818FB7B1F
:103AB0000D22FF2107F08CFA0346002B07F0CE8180
:103AC000FB7BB84A52F82330C7F88C30FB7B1B02D3
:103AD000B34A1344B44918461EF0B3F9C7F8880036
:103AE000D7F88830002B07F0F081012387F8AF303A
:103AF000D7F88800FDF780F8C7F88400D7F884303D
:103B0000B3F5807F07F28C81FB7B1B02A74A13442D
:103B1000D7F8881018461EF08CF90423C7F8B43083
:103B20000423C7F8B03028E0FB7BA04A1B021A44EC
:103B3000D7F8B43013441878FA7BD7F8B43001338F
:103B40009A4912020A4413441B78FC7B194607F079
:103B500091FA03461946954A23021A44D7F8B03021
:103B600013440A461A70D7F8B4300233C7F8B43099
:103B7000D7F8B0300133C7F8B030D7F8B420D7F851
:103B800084309A42D0D3FB7B884A1B02134404330F
:103B90001B78112B08D0FB7B844A1B02134404338F
:103BA0001B78402B40F03481FB7B804A1B0213447E
:103BB00004331B78112B55D1FB7B7C4A1B02134429
:103BC00003331B78522B0DD1FB7B784A1B02134425
:103BD00005331B781946002007F074FA0346A7F84E
:103BE000AC309DE0FB7B714A1B02134403331B780E
:103BF000572B0DD1FB7B6D4A1B02134405331B78F9
:103C00001946012007F05EFA0346A7F8AC3087E0BA
:103C1000FB7B664A1B02134403331B78442B04D1FD
:103C2000D7F88430A7F8AC307AE0FB7B4FF486728B
:103C300002FB03F35E4A13445E491A460B4603CB6C
:103C400010605160FB7B4FF4867202FB03F3584A0D
:103C500013441946D7F88C00FFF7A4FE97F8AF304D
:103C600007F035B9FB7B514A1B02134404331B7820
:103C7000402B55D1FB7B4D4A1B02134403331B7869
:103C8000522B0DD1FB7B494A1B02134405331B7891
:103C90001946022007F016FA0346A7F8AC303FE0B9
:103CA000FB7B424A1B02134403331B78572B0DD175
:103CB000FB7B3E4A1B02134405331B781946032045
:103CC00007F000FA0346A7F8AC3029E0FB7B374A3F
:103CD0001B02134403331B78442B04D1D7F88430E0
:103CE000A7F8AC301CE0FB7B4FF4867202FB03F3B9
:103CF0002F4A13442F491A460B4603CB10605160DC
:103D0000FB7B4FF4867202FB03F3294A13441946E6
:103D1000D7F88C00FFF746FE97F8AF3007F0D7B81A
:103D2000B7F8AC3009331A46D7F88430934245D1FE
:103D3000D7F88430093B1A46D7F88810002009F0DC
:103D40004DFDC7F88000B7F8AC300133D7F88820B4
:103D50001344184607F078FAF867D7F88020FB6F0D
:103D60009A4255D0FB7B4FF4867202FB03F3104A54
:103D70001344D7F88020104918461DF0FFFFFB7B45
:103D80004FF4867202FB03F3094A13441946D7F82D
:103D90008C00FFF707FE97F8AF3007F098B800BF28
:103DA000BC0A00201C000020C8500208BC070020EC
:103DB00060150020CC500208D4500208B7F8AC308F
:103DC000D7F884209A4223D0FB7B4FF4867202FB03
:103DD00003F3B64A1344B64A1C4615460FCD20607D
:103DE0006160A260E3600FCD20616161A261E36167
:103DF000FB7B4FF4867202FB03F3AC4A1344194673
:103E0000D7F88C00FFF7CEFD97F8AF3007F05FB81A
:103E1000FB7BA84A1B02134403331B78522B42F04E
:103E2000FA82FB7BA34A1B02134404331B78402B0A
:103E300040F0C780FB7B9F4A1B02134406331B786C
:103E40009BB21B029AB2FB7B9A491B020B440733BD
:103E50001B789BB21344A7F84A30FB7B954A1B02A0
:103E6000134405331B78012BC0F28E800B2B02DD2F
:103E7000402B40F08980B7F84A30B3F5005F30D36B
:103E8000B7F84A30B3F5405F2BD2FB7B4FF4867214
:103E900002FB03F3854A9818FB7B864A1B021344F6
:103EA00005331B781A4684491DF068FFFB7B4FF4ED
:103EB000867202FB03F37D4A13441946D7F88C003F
:103EC000FFF770FDFB7B7B4A1B0213440533197817
:103ED000B7F84A0000230093002352220FF074FE2B
:103EE00050E0B7F84A30B3F5805F30D3B7F84A30C6
:103EF000B3F5005F2BD2FB7B4FF4867202FB03F31A
:103F00006A4A9818FB7B6B4A1B02134405331B78E3
:103F10001A466A491DF032FFFB7B4FF4867202FBA2
:103F200003F3624A13441946D7F88C00FFF73AFDB1
:103F3000FB7B604A1B02134405331978B7F84A002B
:103F400000230093002352221DF07AF91AE0FB7B34
:103F50004FF4867202FB03F3544A1344B7F84A2025
:103F6000574918461DF00AFFFB7B4FF4867202FB8F
:103F700003F34E4A13441946D7F88C00FFF712FD9D
:103F800006F0A3BF06F0A1BFFB7B4FF4867202FBD5
:103F900003F3464A13444B4A1C4615460FCD206096
:103FA0006160A260E360FB7B4FF4867202FB03F367
:103FB0003E4A13441946D7F88C00FFF7F3FC06F08D
:103FC00084BFFB7B3B4A1B02134404331B78182B32
:103FD00040F03881002387F8AB300A23A7F8AC30D3
:103FE000B7F8AC3009331A46D7F88430934236D14B
:103FF000D7F88430093B1A46D7F88810002009F01A
:10400000EDFBC7F88000B7F8AC300133D7F8882053
:104010001344184607F018F9F867D7F88020FB6FAB
:104020009A4255D0FB7B4FF4867202FB03F31F4A82
:104030001344D7F88020244918461DF09FFEFB7BCF
:104040004FF4867202FB03F3184A13441946D7F85B
:104050008C00FFF7A7FC97F8AF3006F038BFB7F831
:10406000AC30D7F884209A4232D0FB7B4FF4867272
:1040700002FB03F30D4A1344144A1C46134607CBB4
:1040800020606160A2601B782373FB7B4FF4867213
:1040900002FB03F3054A13441946D7F88C00FFF7D7
:1040A00081FC97F8AF3006F012BF00BF601500200A
:1040B000EC500208BC0700200C5102082C510208E9
:1040C0004C51020860510208D45002087051020895
:1040D000FB7BB24A1B02134406331B78302B00F2E1
:1040E0009480FB7BAD4A1B02134406331B78002BE4
:1040F00000F08B8007F0B8FB97F8AB30002B1BD09B
:1041000097F8AA30012B0DD097F8AA30032B09D0CD
:1041100097F8AA30022B08D1A14B93F83D30DBB2BF
:10412000202B02D19E4807F029FC052008F0ACFEA8
:1041300097F8AB30092B1FD8FB7B984A1B0213441E
:1041400006331B789AB20A2302930223019307F1E4
:104150001403009301233021914812F037FB0346EA
:1041600087F8AA3097F8AB30013387F8AB3097F86F
:10417000AA30002BC0D100E000BF894811F0AEFE8C
:1041800097F8AA30002B23D13B7D9BB21B029AB239
:104190007B7D9BB21344A7F84C30FB7B4FF48672B7
:1041A00002FB03F37F4A1344B7F84C207E491846BC
:1041B0001DF0E4FDFB7B4FF4867202FB03F3794AAA
:1041C00013441946D7F88C00FFF7ECFB06F07DBED0
:1041D000FB7B4FF4867202FB03F3724A1344734A6B
:1041E0001C4615460FCD20606160A260E360FB7B3A
:1041F0004FF4867202FB03F36A4A13441946D7F858
:104200008C00FFF7CFFB06F060BEFB7B4FF486729D
:1042100002FB03F3634A1344654A1C4615460FCD5F
:1042200020606160A260E360FB7B4FF4867202FB5A
:1042300003F35C4A13441946D7F88C00FFF7B2FB2E
:1042400006F043BEFB7B554A1B02134404331B7824
:10425000332B40F01881002387F8A8300823A7F8F3
:10426000AC30B7F8AC3009331A46D7F884309342F3
:1042700036D1D7F88430093B1A46D7F88810002089
:1042800009F0ACFAC7F88000B7F8AC300133D7F8C2
:1042900088201344184606F0D7FFF867D7F8802027
:1042A000FB6F9A4242D0FB7B4FF4867202FB03F312
:1042B0003C4A1344D7F880203E4918461DF05EFD65
:1042C000FB7B4FF4867202FB03F3364A1344194614
:1042D000D7F88C00FFF766FB97F8AF3006F0F7BD14
:1042E000B7F8AC30D7F884209A421FD0FB7B4FF44C
:1042F000867202FB03F32B4A13442F4A1C461346D3
:1043000007CB20606160A2601B782373FB7B4FF4B6
:10431000867202FB03F3234A13441946D7F88C0034
:10432000FFF740FB97F8AF3006F0D1BD07F09CFADD
:1043300097F8A830002B1BD097F8A930012B0DD08F
:1043400097F8A930032B09D097F8A930022B08D190
:10435000134B93F83D30DBB2202B02D1104807F00D
:104360000DFB052008F090FD97F8A830092B25D803
:1043700007F110020A23009304236621084811F074
:10438000EBFE034687F8A93097F8A830013387F889
:10439000A83097F8A930002BCAD110E0BC07002044
:1043A000D8E50020601500208051020888510208DD
:1043B00098510208D45002087051020800BFE24828
:1043C00011F08CFD97F8A930002B32D13A7CDF4BED
:1043D0001A707A7CDD4B5A70BA7CDC4B9A70FA7C8E
:1043E000DA4BDA70FB7B4FF4867202FB03F3D84A98
:1043F0009818D64B1B781946D44B5B781C46D34B88
:104400009B781A46D14BDB780193009223460A46EB
:10441000D0491DF0B3FCFB7B4FF4867202FB03F323
:10442000CB4A13441946D7F88C00FFF7BBFA06F0C5
:104430004CBDFB7B4FF4867202FB03F3C44A13446A
:10444000C54A14469C4604F1200E654626460FCE0A
:1044500028606960AA60EB6010340CF1100C7445A0
:10446000F3D1624623461B881380FB7B4FF4867290
:1044700002FB03F3B64A13441946D7F88C00FFF742
:1044800091FA06F022BDFB7BB44A1B0213440433AD
:104490001B78112B41F0A287FB7BB04A1B0213440F
:1044A00005331B787F2B01F27B8701A252F823F0A2
:1044B000B1460008A7470008A14800087549000850
:1044C000A14A00087F4B0008714C0008794D000894
:1044D0006B4E00082B4F0008EB4F0008EB50000814
:1044E000AB5100086B520008435300082D540008DC
:1044F000ED540008A1630008A1630008A16300084F
:10450000C55500081D570008455800086D5900089A
:10451000C15A0008E95B0008115D0008B15D0008A0
:104520001D5E0008895E0008F55E0008615F0008F6
:10453000CD5F0008A1630008A1630008A163000823
:10454000A1630008A1630008A1630008A16300083B
:10455000A1630008A1630008A1630008A16300082B
:10456000A1630008A1630008A1630008A16300081B
:10457000A1630008B9600008A16300087F6100081A
:10458000A163000839620008A1630008A163000864
:10459000A1630008A1630008A1630008A1630008EB
:1045A000A1630008A1630008A1630008A1630008DB
:1045B000A1630008A1630008A1630008A1630008CB
:1045C000A1630008A1630008A1630008A1630008BB
:1045D000A1630008A1630008A1630008A1630008AB
:1045E000A1630008A1630008A1630008A16300089B
:1045F000A1630008A1630008A1630008A16300088B
:10460000A1630008A1630008A1630008A16300087A
:10461000A1630008A1630008A1630008A16300086A
:10462000A1630008A1630008A1630008A16300085A
:10463000A163000887620008A1630008A163000865
:10464000A1630008A1630008A1630008A16300083A
:10465000A1630008A1630008A1630008A16300082A
:10466000A1630008A1630008A1630008A16300081A
:10467000A1630008A1630008A1630008A16300080A
:10468000A1630008A1630008A1630008A1630008FA
:10469000A1630008A1630008A1630008A1630008EA
:1046A000A1630008A1630008A16300081D6300085E
:1046B00007F120031946302007F073FF0346012B52
:1046C00052D1FB7B4FF4867202FB03F3204A981809
:1046D000B7F920301A46B7F922301946B7F9243015
:1046E00000930B461E491DF049FBFB7B4FF486727D
:1046F00002FB03F3164A13441946D7F88C00FFF760
:1047000051F9FB7B4FF4867202FB03F3104A9818B1
:10471000B7F920301A46B7F922301946B7F92430D4
:1047200000930B460F491DF029FBFB7B4FF486726B
:1047300002FB03F3064A13441946D7F88C00FFF72F
:1047400031F906F0C2BB00BFD8E5002064EA0020C2
:1047500060150020A8510208BC510208BC070020C7
:10476000E0510208F0510208C14807F007F9FB7B4D
:104770004FF4867202FB03F3BE4A1344BE4A184646
:10478000114654231A461CF0D2FDFB7B4FF486726F
:1047900002FB03F3B74A13441946D7F88C00FFF71E
:1047A00001F906F092BBFB7BB44A1B0213440633AB
:1047B0001978FB7B1B020733B04A13441A4630209A
:1047C00007F0C6FD0346012B49D1FB7B4FF48672EF
:1047D00002FB03F3A74A9818FB7BA84A1B02134469
:1047E00006331B781946FB7BA44A1B02134407338C
:1047F0001B780A46A2491DF0C1FAFB7B4FF4867272
:1048000002FB03F39B4A13441946D7F88C00FFF7C9
:10481000C9F8FB7B4FF4867202FB03F3954A9818A4
:10482000FB7B964A1B02134406331B781946FB7B1D
:10483000924A1B02134407331B780A4691491DF024
:104840009DFAFB7B4FF4867202FB03F3894A134403
:104850001946D7F88C00FFF7A5F806F036BBFB7BAE
:104860004FF4867202FB03F3824A1344864A1D46C4
:1048700014460FCC28606960AA60EB6007CC286101
:104880006961AA61FB7B4FF4867202FB03F3794AEC
:1048900013441946D7F88C00FFF784F806F015BBCF
:1048A00007F120031946322007F07BFE0346012B57
:1048B00041D1FB7B4FF4867202FB03F36D4A9818DB
:1048C000B7F920301A46B7F922301946B7F9243023
:1048D00000930B466D491DF051FAFB7B4FF4867235
:1048E00002FB03F3634A13441946D7F88C00FFF721
:1048F00059F8FB7B4FF4867202FB03F35D4A98186C
:10490000B7F920301A46B7F922301946B7F92430E2
:1049100000930B465E491DF031FAFB7B4FF4867223
:1049200002FB03F3534A13441946D7F88C00FFF7F0
:1049300039F806F0CABA4E4807F020F8FB7B4FF46E
:10494000867202FB03F34B4A1344524A184611463F
:104950004E231A461CF0EBFCFB7B4FF4867202FBE5
:1049600003F3444A13441946D7F88C00FFF71AF8AA
:1049700006F0ABBAFB7B414A1B021344063319789D
:10498000FB7B1B0207333D4A13441A46322007F0D3
:10499000DFFC0346012B49D1FB7B4FF4867202FBFF
:1049A00003F3344A9818FB7B344A1B021344063342
:1049B0001B781946FB7B314A1B02134407331B78D3
:1049C0000A4635491DF0DAF9FB7B4FF4867202FB8B
:1049D00003F3284A13441946D7F88C00FEF7E2FF88
:1049E000FB7B4FF4867202FB03F3224A9818FB7B91
:1049F000224A1B02134406331B781946FB7B1F4ACD
:104A00001B02134407331B780A4624491DF0B6F9EC
:104A1000FB7B4FF4867202FB03F3164A13441946DC
:104A2000D7F88C00FEF7BEFF06F04FBAFB7B4FF4C1
:104A3000867202FB03F30F4A1344134A1D461446C1
:104A40000FCC28606960AA60EB6007CC28616961BF
:104A5000AA61FB7B4FF4867202FB03F3054A134401
:104A60001946D7F88C00FEF79DFF06F02EBA00BF5E
:104A70004CE600206015002010520208BC07002000
:104A80006452020874520208A0520208BC52020882
:104A9000CC520208EC5202083C5302084C53020864
:104AA00007F128033821184608F0C6FB0346002BFF
:104AB0001FD0A74806F062FFFB7B4FF4867202FB13
:104AC00003F3A44A1344A44A1C4615460FCD2060A4
:104AD0006160A260E360FB7B4FF4867202FB03F32C
:104AE0009C4A13441946D7F88C00FEF75BFF06F08A
:104AF000ECB9FB7B4FF4867202FB03F3954A9818DE
:104B0000D7E90A56D7E90C34D7E90E12CDE90212DB
:104B1000CDE900342A46334690491DF02FF9FB7B3E
:104B20004FF4867202FB03F38A4A13441946D7F8FE
:104B30008C00FEF737FFFB7B4FF4867202FB03F31A
:104B4000844A9818D7E90A56D7E90C34D7E90E12E7
:104B5000CDE90212CDE900342A46334680491DF0E2
:104B60000DF9FB7B4FF4867202FB03F3794A134481
:104B70001946D7F88C00FEF715FF06F0A6B9FB7BA7
:104B8000784A1B02134406331978FB7B1B02073358
:104B9000744A13441A4638200CF0F8FF0346012BE0
:104BA00049D1FB7B4FF4867202FB03F3694A9818E4
:104BB000FB7B6C4A1B02134406331B781946FB7BB4
:104BC000684A1B02134407331B780A4666491DF0E6
:104BD000D5F8FB7B4FF4867202FB03F35D4A134466
:104BE0001946D7F88C00FEF7DDFEFB7B4FF486728A
:104BF00002FB03F3574A9818FB7B5A4A1B021344E3
:104C000006331B781946FB7B564A1B0213440733B5
:104C10001B780A4655491DF0B1F8FB7B4FF48672AC
:104C200002FB03F34B4A13441946D7F88C00FEF7F6
:104C3000B9FE06F04AB9FB7B4FF4867202FB03F320
:104C4000444A1344444A1C4615460FCD2060616017
:104C5000A260E360FB7B4FF4867202FB03F33D4AE4
:104C600013441946D7F88C00FEF79CFE06F02DB9C8
:104C70003C2008F0A6FA07F128033C21184608F06A
:104C8000DBFA0346002B1CD0FB7B4FF4867202FB41
:104C900003F3304A1344304A1C4615460FCD2060BA
:104CA0006160A260E360FB7B4FF4867202FB03F35A
:104CB000284A13441946D7F88C00FEF773FE06F015
:104CC00004B9FB7B4FF4867202FB03F3214A981868
:104CD000D7E90A56D7E90C34D7E90E12CDE902120A
:104CE000CDE900342A46334621491DF047F8FB7BC5
:104CF0004FF4867202FB03F3164A13441946D7F8A1
:104D00008C00FEF74FFEFB7B4FF4867202FB03F331
:104D1000104A9818D7E90A56D7E90C34D7E90E1289
:104D2000CDE90212CDE900342A46334611491DF07F
:104D300025F8FB7B4FF4867202FB03F3054A13440C
:104D40001946D7F88C00FEF72DFE06F0BEB800BF5E
:104D50004CE60020601500208851020878530208B4
:104D600090530208BC07002064520208DC5302087A
:104D7000045402081C540208FB7BC34A1B02134460
:104D800006331978FB7B1B020733BF4A13441A46CC
:104D90003C200CF0FBFE0346012B49D1FB7B4FF47A
:104DA000867202FB03F3B94A9818FB7BB64A1B02D2
:104DB000134406331B781946FB7BB34A1B0213448A
:104DC00007331B780A46B2491CF0D8FFFB7B4FF42F
:104DD000867202FB03F3AD4A13441946D7F88C00E0
:104DE000FEF7E0FDFB7B4FF4867202FB03F3A74A5C
:104DF0009818FB7BA44A1B02134406331B78194600
:104E0000FB7BA14A1B02134407331B780A46A149C6
:104E10001CF0B4FFFB7B4FF4867202FB03F39B4A4A
:104E200013441946D7F88C00FEF7BCFD06F04DB8C8
:104E3000FB7B4FF4867202FB03F3944A1344964AB9
:104E40001C4615460FCD20606160A260E360FB7BCD
:104E50004FF4867202FB03F38C4A13441946D7F8C9
:104E60008C00FEF79FFD06F030B807F120031946CD
:104E700000200DF037FB0346012B39D1B7F9203064
:104E800047F6FF72934233D0FB7B4FF4867202FBEE
:104E900003F37E4A1344B7F92020804918461CF0DA
:104EA0006DFFFB7B4FF4867202FB03F3774A1344DA
:104EB0001946D7F88C00FEF775FDFB7B4FF4867220
:104EC00002FB03F3714A1344B7F9202074491846D2
:104ED0001CF054FFFB7B4FF4867202FB03F36B4A1A
:104EE00013441946D7F88C00FEF75CFD05F0EDBFC2
:104EF000FB7B4FF4867202FB03F3644A1344664A59
:104F00001C4615460FCD20606160A260E360FB7B0C
:104F10004FF4867202FB03F35C4A13441946D7F838
:104F20008C00FEF73FFD05F0D0BF07F120031946C6
:104F300000200DF0A9FB0346012B39D1B7F9203031
:104F400047F6FF72934233D0FB7B4FF4867202FB2D
:104F500003F34E4A1344B7F92020504918461CF079
:104F60000DFFFB7B4FF4867202FB03F3474A1344A9
:104F70001946D7F88C00FEF715FDFB7B4FF48672BF
:104F800002FB03F3414A1344B7F920204549184670
:104F90001CF0F4FEFB7B4FF4867202FB03F33B4AEA
:104FA00013441946D7F88C00FEF7FCFC05F08DBFC2
:104FB000FB7B4FF4867202FB03F3344A1344364AF8
:104FC0001C4615460FCD20606160A260E360FB7B4C
:104FD0004FF4867202FB03F32C4A13441946D7F8A8
:104FE0008C00FEF7DFFC05F070BFFB7B264A1B023E
:104FF000134406331B7807F14801032218460DF0CD
:10500000ADF90346012B53D1FB7B4FF4867202FBB3
:1050100003F31E4A9818FB7B1B4A1B0213440633FA
:105020001B781A46B7F848301F491CF0A7FEFB7BD7
:105030004FF4867202FB03F3144A13441946D7F85F
:105040008C00FEF7AFFCFB7B4FF4867202FB03F390
:105050000E4A9818FB7B0C4A1B02134406331B783C
:105060001A46B7F8483011491CF088FEFB7B4FF414
:10507000867202FB03F3054A13441946D7F88C00E5
:10508000FEF790FC05F021BFBC0700206015002052
:105090003C530208685402088851020890540208E0
:1050A00098540208B054020864520208C854020816
:1050B000FB7B4FF4867202FB03F3D24A1344D24ABD
:1050C0001C4615460FCD20606160A260E360FB7B4B
:1050D0004FF4867202FB03F3CA4A13441946D7F809
:1050E0008C00FEF75FFC05F0F0BE07F120031946C7
:1050F00001200DF0F7F90346012B39D1B7F9223021
:1051000047F6FF72934233D0FB7B4FF4867202FB6B
:1051100003F3BC4A1344B7F92220BC4918461CF0DB
:105120002DFEFB7B4FF4867202FB03F3B54A13445A
:105130001946D7F88C00FEF735FCFB7B4FF48672DE
:1051400002FB03F3AF4A1344B7F92220B0491846D3
:105150001CF014FEFB7B4FF4867202FB03F3A94A9A
:1051600013441946D7F88C00FEF71CFC05F0ADBEC1
:10517000FB7B4FF4867202FB03F3A24A1344A24A5C
:105180001C4615460FCD20606160A260E360FB7B8A
:105190004FF4867202FB03F39A4A13441946D7F878
:1051A0008C00FEF7FFFB05F090BE07F120031946C7
:1051B00001200DF069FA0346012B39D1B7F92230ED
:1051C00047F6FF72934233D0FB7B4FF4867202FBAB
:1051D00003F38C4A1344B7F922208C4918461CF07B
:1051E000CDFDFB7B4FF4867202FB03F3854A13442B
:1051F0001946D7F88C00FEF7D5FBFB7B4FF486727F
:1052000002FB03F37F4A1344B7F922208149184671
:105210001CF0B4FDFB7B4FF4867202FB03F3794A6A
:1052200013441946D7F88C00FEF7BCFB05F04DBEC1
:10523000FB7B4FF4867202FB03F3724A1344724AFB
:105240001C4615460FCD20606160A260E360FB7BC9
:105250004FF4867202FB03F36A4A13441946D7F8E7
:105260008C00FEF79FFB05F030BEFB7B6A4A1B02F9
:10527000134406331B7807F14801042218460DF049
:105280006DF80346012B3FD1FB7B4FF4867202FB86
:1052900003F35C4A9818FB7B5F4A1B0213440633F6
:1052A0001B781A46B7F848305C491CF067FDFB7B59
:1052B0004FF4867202FB03F3524A13441946D7F89F
:1052C0008C00FEF76FFBFB7B4FF4867202FB03F34F
:1052D0004C4A9818FB7B504A1B02134406331B7838
:1052E0001A46B7F848304E491CF048FDFB7B4FF496
:1052F000867202FB03F3434A13441946D7F88C0025
:10530000FEF750FB05F0E1BDFB7B4FF4867202FB1C
:1053100003F33C4A13443C4A1C4615460FCD20601B
:105320006160A260E360FB7B4FF4867202FB03F3D3
:10533000344A13441946D7F88C00FEF733FB05F0C6
:10534000C4BD07F12003194602200DF0CBF8034637
:10535000012B39D1B7F9243047F6FF72934233D08D
:10536000FB7B4FF4867202FB03F3264A1344B7F922
:1053700024202C4918461CF001FDFB7B4FF486725B
:1053800002FB03F31F4A13441946D7F88C00FEF7BB
:1053900009FBFB7B4FF4867202FB03F3194A1344AB
:1053A000B7F92420204918461CF0E8FCFB7B4FF499
:1053B000867202FB03F3134A13441946D7F88C0094
:1053C000FEF7F0FA05F081BDFB7B4FF4867202FB1D
:1053D00003F30C4A13440C4A1C4615460FCD2060BB
:1053E0006160A260E360FB7B4FF4867202FB03F313
:1053F000044A13441946D7F88C00FEF7D3FA05F097
:1054000064BD00BF6015002088510208EC540208FA
:10541000F45402080C550208BC0700203C53020853
:1054200024550208485502085055020807F1200388
:10543000194602200DF028F90346012B39D1B7F99E
:10544000243047F6FF72934233D0FB7B4FF48672D1
:1054500002FB03F3A54A1344B7F92420A4491846D4
:105460001CF08CFCFB7B4FF4867202FB03F39F4A1B
:1054700013441946D7F88C00FEF794FAFB7B4FF4DF
:10548000867202FB03F3994A1344B7F92420994921
:1054900018461CF073FCFB7B4FF4867202FB03F38F
:1054A000924A13441946D7F88C00FEF77BFA05F0B0
:1054B0000CBDFB7B4FF4867202FB03F38B4A134453
:1054C0008D4A1C4615460FCD20606160A260E360E6
:1054D000FB7B4FF4867202FB03F3844A13441946A4
:1054E000D7F88C00FEF75EFA05F0EFBCFB7B834A31
:1054F0001B02134406331B7807F1480105221846A6
:105500000CF02CFF0346012B3FD1FB7B4FF486723E
:1055100002FB03F3754A9818FB7B784A1B0213447D
:1055200006331B781A46B7F8483075491CF026FC3C
:10553000FB7B4FF4867202FB03F36C4A134419465B
:10554000D7F88C00FEF72EFAFB7B4FF4867202FB35
:1055500003F3664A9818FB7B684A1B021344063320
:105560001B781A46B7F8483066491CF007FCFB7BED
:105570004FF4867202FB03F35C4A13441946D7F8D2
:105580008C00FEF70FFA05F0A0BCFB7B4FF486728F
:1055900002FB03F3554A1344574A1C4615460FCDE8
:1055A00020606160A260E360FB7B4FF4867202FBC7
:1055B00003F34E4A13441946D7F88C00FEF7F2F96C
:1055C00005F083BC0CF094FC07F1180318460DF0AD
:1055D00049F90346012B63D14B4B1B78DBB203F037
:1055E0000103002B5CD0B7F91830002B00DA073329
:1055F000DB101BB21A4613469B0013445B00002BC2
:1056000000DA0F331B11A7F84E30FB7B4FF4867284
:1056100002FB03F3354A1344B7F9182092B23B4911
:1056200018461CF0ABFBFB7B4FF4867202FB03F3C6
:105630002E4A13441946D7F88C00FEF7B3F9FB7BCA
:105640004FF4867202FB03F3284A9818B7F94E30DC
:105650002F4A82FB03129210DB17D31A1BB21C468F
:10566000B7F94E202A4B83FB02139910D317C91A9E
:105670000B469B000B445B00D31A1BB22246254904
:105680001CF07CFBFB7B4FF4867202FB03F3174A92
:1056900013441946D7F88C00FEF784F905F015BCC1
:1056A000FB7B4FF4867202FB03F3104A13441A4A41
:1056B0001D4614460FCC28606960AA60EB6007CCD9
:1056C00028616961AA612388A278AB831346AB770E
:1056D000FB7B4FF4867202FB03F3044A1344194622
:1056E000D7F88C00FEF75EF905F0EFBB60150020DF
:1056F000485502086855020888510208BC07002076
:10570000805502089055020818CF0020B4550208B1
:1057100067666666C0550208E45502080CF0E8FBAF
:1057200007F1180318460DF09DF80346012B63D1CD
:10573000C54B1B78DBB203F00203002B5CD0B7F93A
:105740001A30002B00DA0733DB101BB21A4613465F
:105750009B0013445B00002B00DA0F331B11A7F8EA
:105760004E30FB7B4FF4867202FB03F3B74A1344BF
:10577000B7F91A2092B2B64918461CF0FFFAFB7B23
:105780004FF4867202FB03F3B04A13441946D7F86C
:105790008C00FEF707F9FB7B4FF4867202FB03F3E4
:1057A000AA4A9818B7F94E30AA4A82FB03129210FF
:1057B000DB17D31A1BB21C46B7F94E20A54B83FB4F
:1057C00002139910D317C91A0B469B000B445B00B8
:1057D000D31A1BB22246A0491CF0D0FAFB7B4FF42F
:1057E000867202FB03F3994A13441946D7F88C00DA
:1057F000FEF7D8F805F069BBFB7B4FF4867202FB1D
:1058000003F3924A1344954A1D4614460FCC286070
:105810006960AA60EB6007CC28616961AA6123888E
:10582000A278AB831346AB77FB7B4FF4867202FB07
:1058300003F3864A13441946D7F88C00FEF7B2F8F2
:1058400005F043BB0CF054FB07F1180318460DF0AC
:1058500009F80346012B63D17B4B1B78DBB203F0C5
:105860000403002B5CD0B7F91C30002B00DA07339F
:10587000DB101BB21A4613469B0013445B00002B3F
:1058800000DA0F331B11A7F84E30FB7B4FF4867202
:1058900002FB03F36D4A1344B7F91C2092B270491E
:1058A00018461CF06BFAFB7B4FF4867202FB03F385
:1058B000664A13441946D7F88C00FEF773F8FB7B51
:1058C0004FF4867202FB03F3604A9818B7F94E3022
:1058D000604A82FB03129210DB17D31A1BB21C46DC
:1058E000B7F94E205B4B83FB02139910D317C91AEB
:1058F0000B469B000B445B00D31A1BB2224659494E
:105900001CF03CFAFB7B4FF4867202FB03F34F4A18
:1059100013441946D7F88C00FEF744F805F0D5BAC1
:10592000FB7B4FF4867202FB03F3484A13444E4A52
:105930001D4614460FCC28606960AA60EB6007CC56
:1059400028616961AA612388A278AB831346AB778B
:10595000FB7B4FF4867202FB03F33C4A1344194667
:10596000D7F88C00FEF71EF805F0AFBA0CF0C0FABD
:1059700007F1180318460CF0DBFF0346012B79D121
:10598000314B1B78DBB203F00803002B72D0B7F960
:105990001830002B00DA0733DB101BB21A4613460F
:1059A0009B0013445B00002B00DA0F331B11A7F898
:1059B0004E30FB7B4FF4867202FB03F3234A134401
:1059C000B7F9182092B2294918461CF0D7F9FB7B89
:1059D0004FF4867202FB03F31C4A13441946D7F8AE
:1059E0008C00FDF7DFFFFB7B4FF4867202FB03F3B5
:1059F000164A9818B7F94E30164A82FB03129210D5
:105A0000DB17D31A1BB21C46B7F94E20114B83FB90
:105A100002139910D317C91A0B469B000B445B0065
:105A2000D31A1BB2224612491CF0A8F9FB7B4FF493
:105A3000867202FB03F3054A13441946D7F88C001B
:105A4000FDF7B0FF05F041BA18CF00206015002027
:105A50000456020867666666105602083456020845
:105A6000545602086056020884560208A4560208DA
:105A7000B0560208FB7B4FF4867202FB03F3BF4A69
:105A80001344BF4A1D4614460FCC28606960AA60C3
:105A9000EB6007CC28616961AA612388A278AB8397
:105AA0001346AB77FB7B4FF4867202FB03F3B34ADA
:105AB00013441946D7F88C00FDF774FF05F005BABA
:105AC0000CF016FA07F1180318460CF031FF0346E4
:105AD000012B63D1AB4B1B78DBB203F01003002B1F
