:020000040800F2
:1000000000000320ADBF00080FE501081DE5010851
:1000100085E50108A5E50108C5E501080000000027
:10002000000000000000000000000000B1290108ED
:10003000E5E5010800000000C12B0108F3E5010817
:1000400001E60108FDBF0008FDBF0008FDBF000874
:10005000FDBF0008FDBF0008FDBF0008FDBF000890
:10006000FDBF0008FDBF0008FDBF0008FDBF000880
:10007000FDBF0008FDBF000801E90108FDBF000841
:10008000FDBF0008FDBF0008FDBF0008FDBF000860
:10009000FDBF0008FDBF0008FDBF0008FDBF000850
:1000A000FDBF000815E90108FDBF0008FDBF0008FD
:1000B000FDBF0008FDBF0008FDBF000851E90108B1
:1000C00065E9010879E901088DE90108FDBF00082B
:1000D000FDBF00085DE60108FDBF0008FDBF000888
:1000E00015E60108FDBF0008FDBF0008FDBF0008C0
:1000F000FDBF0008FDBF0008FDBF0008FDBF0008F0
:10010000FDBF000849E60108FDBF0008FDBF00086B
:10011000E5E60108FDBF0008FDBF0008FDBF0008BF
:10012000FDBF0008FDBF0008FDBF000829E9010868
:10013000FDBF0008FDBF0008FDBF0008FDBF0008AF
:10014000FDBF0008FDBF0008FDBF0008FDBF00089F
:10015000FDBF00083DE90108FDBF000871E7010887
:10016000A1E90108B5E90108FDBF0008FDBF0008CD
:10017000FDBF0008FDBF0008FDBF00080000000033
:10018000FDBF0008FDBF0008FDE70108FDBF000836
:10019000FDBF0008FDBF0008FDBF0008FDBF00084F
:0C01A0000000000000000000FDBF00088F
:1001B00010B5054C237833B9044B13B10448AFF3A1
:1001C00000800123237010BD900700200000000074
:1001D000843B020808B5034B1BB103490348AFF346
:1001E000008008BD0000000094070020843B020846
:1001F00081F0004102E000BF83F0004330B54FEAD8
:1002000041044FEA430594EA050F08BF90EA020F44
:100210001FBF54EA000C55EA020C7FEA645C7FEAD7
:10022000655C00F0E2804FEA5454D4EB5555B8BFFA
:100230006D420CDD2C4480EA020281EA030382EA6B
:10024000000083EA010180EA020281EA0303362DFD
:1002500088BF30BD11F0004F4FEA01314FF4801CD0
:100260004CEA113102D0404261EB410113F0004FE2
:100270004FEA03334CEA133302D0524263EB430399
:1002800094EA050F00F0A780A4F10104D5F1200E37
:100290000DDB02FA0EFC22FA05F2801841F1000192
:1002A00003FA0EF2801843FA05F359410EE0A5F166
:1002B00020050EF1200E012A03FA0EFC28BF4CF097
:1002C000020C43FA05F3C01851EBE37101F000454D
:1002D00007D54FF0000EDCF1000C7EEB00006EEB5A
:1002E0000101B1F5801F1BD3B1F5001F0CD34908E4
:1002F0005FEA30004FEA3C0C04F101044FEA44523B
:1003000012F5800F80F09A80BCF1004F08BF5FEAC1
:10031000500C50F1000041EB045141EA050130BDA1
:100320005FEA4C0C404141EB010111F4801FA4F144
:100330000104E9D191F0000F04BF01460020B1FA99
:1003400081F308BF2033A3F10B03B3F120020CDAD1
:100350000C3208DD02F1140CC2F10C0201FA0CF0AF
:1003600021FA02F10CE002F11402D8BFC2F1200C14
:1003700001FA02F120FA0CFCDCBF41EA0C019040CA
:10038000E41AA2BF01EB0451294330BD6FEA040413
:100390001F3C1CDA0C340EDC04F11404C4F12002FE
:1003A00020FA04F001FA02F340EA030021FA04F310
:1003B00045EA030130BDC4F10C04C4F1200220FA67
:1003C00002F001FA04F340EA0300294630BD21FAA5
:1003D00004F0294630BD94F0000F83F4801306BF6B
:1003E00081F480110134013D4EE77FEA645C18BF5F
:1003F0007FEA655C29D094EA050F08BF90EA020FF6
:1004000005D054EA000C04BF1946104630BD91EAED
:10041000030F1EBF0021002030BD5FEA545C05D1F0
:100420004000494128BF41F0004130BD14F580042F
:100430003CBF01F5801130BD01F0004545F0FE41A3
:1004400041F470014FF0000030BD7FEA645C1ABFD8
:10045000194610467FEA655C1CBF0B46024650EA0F
:10046000013406BF52EA033591EA030F41F400213B
:1004700030BD00BF90F0000F04BF0021704730B5C1
:100480004FF4806404F132044FF000054FF0000196
:1004900050E700BF90F0000F04BF0021704730B557
:1004A0004FF4806404F1320410F0004548BF40422C
:1004B0004FF000013EE700BF42004FEAE2014FEA81
:1004C00031014FEA02701FBF12F07F4393F07F4F5C
:1004D00081F06051704732F07F4208BF704793F05F
:1004E0007F4F04BF41F40021704730B54FF4607472
:1004F00001F0004521F000411CE700BF50EA010275
:1005000008BF704730B54FF000050AE050EA01021D
:1005100008BF704730B511F0004502D5404261EB8D
:1005200041014FF4806404F132045FEA915C3FF4CE
:10053000D8AE4FF003025FEADC0C18BF03325FEA6B
:10054000DC0C18BF033202EBDC02C2F1200300FA1C
:1005500003FC20FA02F001FA03FE40EA0E0021FA41
:1005600002F11444BDE600BF70B54FF0FF0C4CF42F
:10057000E06C1CEA11541DBF1CEA135594EA0C0FE1
:1005800095EA0C0F00F0DEF82C4481EA030621EA1C
:100590004C5123EA4C5350EA013518BF52EA033557
:1005A00041F4801143F4801338D0A0FB02CE4FF009
:1005B0000005E1FB02E506F00042E0FB03E54FF039
:1005C0000006E1FB03569CF0000F18BF4EF0010E31
:1005D000A4F1FF04B6F5007F64F5407404D25FEA2D
:1005E0004E0E6D4146EB060642EAC62141EA5551E0
:1005F0004FEAC52040EA5E504FEACE2EB4F1FD0C22
:1006000088BFBCF5E06F1ED8BEF1004F08BF5FEA9F
:10061000500E50F1000041EB045170BD06F0004651
:1006200046EA010140EA020081EA0301B4EB5C04FE
:10063000C2BFD4EB0C0541EA045170BD41F48011F6
:100640004FF0000E013C00F3AB8014F1360FDEBF1B
:10065000002001F0004170BDC4F10004203C35DAF7
:100660000C341BDC04F11404C4F1200500FA05F37A
:1006700020FA04F001FA05F240EA020001F000421B
:1006800021F0004110EBD37021FA04F642EB060191
:100690005EEA430E08BF20EAD37070BDC4F10C04BB
:1006A000C4F1200500FA04F320FA05F001FA04F27F
:1006B00040EA020001F0004110EBD37041F100016B
:1006C0005EEA430E08BF20EAD37070BDC4F1200576
:1006D00000FA05F24EEA020E20FA04F301FA05F2DE
:1006E00043EA020321FA04F001F0004121FA04F286
:1006F00020EA020000EBD3705EEA430E08BF20EA56
:10070000D37070BD94F0000F0FD101F0004640008F
:1007100041EB010111F4801F08BF013CF7D041EA11
:10072000060195F0000F18BF704703F00046520015
:1007300043EB030313F4801F08BF013DF7D043EAE6
:100740000603704794EA0C0F0CEA135518BF95EA9C
:100750000C0F0CD050EA410618BF52EA4306D1D123
:1007600081EA030101F000414FF0000070BD50EA42
:10077000410606BF1046194652EA430619D094EACC
:100780000C0F02D150EA013613D195EA0C0F05D1B6
:1007900052EA03361CBF104619460AD181EA03010A
:1007A00001F0004141F0FE4141F470014FF00000C2
:1007B00070BD41F0FE4141F4780170BD70B54FF05D
:1007C000FF0C4CF4E06C1CEA11541DBF1CEA1355DD
:1007D00094EA0C0F95EA0C0F00F0A7F8A4EB0504BF
:1007E00081EA030E52EA03354FEA013100F08880B6
:1007F0004FEA03334FF0805545EA131343EA12637F
:100800004FEA022245EA111545EA10654FEA002633
:100810000EF000419D4208BF964244F1FD0404F5EC
:10082000407402D25B084FEA3202B61A65EB030548
:100830005B084FEA32024FF480104FF4002CB6EB05
:10084000020E75EB030E22BFB61A754640EA0C0085
:100850005B084FEA3202B6EB020E75EB030E22BFC5
:10086000B61A754640EA5C005B084FEA3202B6EB06
:10087000020E75EB030E22BFB61A754640EA9C00C5
:100880005B084FEA3202B6EB020E75EB030E22BF95
:10089000B61A754640EADC0055EA060E18D04FEA53
:1008A000051545EA16754FEA06164FEAC30343EAF3
:1008B00052734FEAC2025FEA1C1CC0D111F4801FC0
:1008C0000BD141EA00014FF000004FF0004CB6E7B9
:1008D00011F4801F04BF01430020B4F1FD0C88BF58
:1008E000BCF5E06F3FF6AFAEB5EB030C04BFB6EB63
:1008F000020C5FEA500C50F1000041EB045170BD56
:100900000EF0004E4EEA113114EB5C04C2BFD4EB82
:100910000C0541EA045170BD41F480114FF0000E06
:10092000013C90E645EA060E8DE60CEA135594EA82
:100930000C0F08BF95EA0C0F3FF43BAF94EA0C0F85
:100940000AD150EA01347FF434AF95EA0C0F7FF4FA
:1009500025AF104619462CE795EA0C0F06D152EA4E
:1009600003353FF4FDAE1046194622E750EA410632
:1009700018BF52EA43067FF4C5AE50EA41047FF443
:100980000DAF52EA43057FF4EBAE12E74FF0FF3CA8
:1009900006E000BF4FF0010C02E000BF4FF0010C79
:1009A0004DF804CD4FEA410C7FEA6C5C4FEA430CF2
:1009B00018BF7FEA6C5C1BD001B050EA410C0CBF41
:1009C00052EA430C91EA030F02BF90EA020F0020A3
:1009D000704710F1000F91EA030F58BF994208BF0A
:1009E00090422CBFD8176FEAE37040F001007047C7
:1009F0004FEA410C7FEA6C5C02D150EA013C07D11E
:100A00004FEA430C7FEA6C5CD6D152EA033CD3D068
:100A10005DF8040B704700BF8446104662468C4662
:100A20001946634600E000BF01B5FFF7B7FF002895
:100A300048BF10F1000F01BD4DF808EDFFF7F4FFBE
:100A40000CBF012000205DF808FB00BF4DF808ED49
:100A5000FFF7EAFF34BF012000205DF808FB00BF6C
:100A60004DF808EDFFF7E0FF94BF012000205DF88E
:100A700008FB00BF4DF808EDFFF7CEFF94BF012043
:100A800000205DF808FB00BF4DF808EDFFF7C4FF3C
:100A900034BF012000205DF808FB00BF4FEA410C85
:100AA0007FEA6C5C02D150EA013C0AD14FEA430C68
:100AB0007FEA6C5C02D152EA033C02D14FF00000A5
:100AC00070474FF0010070474FEA410212F50012E3
:100AD00015D211D56FF47873B3EB625212D94FEA85
:100AE000C12343F0004343EA505311F0004F23FA6F
:100AF00002F018BF404270474FF00000704750EAC4
:100B0000013005D111F0004008BF6FF00040704780
:100B10004FF00000704700BF4FEA4102B2F1E043DE
:100B200024BFB3F5001CDCF1FE5C0DD901F0004CD4
:100B30004FEAC0024CEA5070B2F1004F40EB830024
:100B400008BF20F00100704711F0804F21D113F150
:100B50003872BCBF01F00040704741F480114FEA89
:100B60005252C2F11802C2F1200C10FA0CF320FA12
:100B700002F018BF40F001004FEAC1234FEAD3232F
:100B800003FA0CFC40EA0C0023FA02F34FEA430399
:100B9000CCE77FEA625307D150EA01331EBF4FF022
:100BA000FE4040F44000704701F0004040F0FE403D
:100BB00040F40000704700BF034613F8012B002AE1
:100BC000FBD1181A01387047000000000000000037
:100BD00001F0FF01102A2BDB10F0070F08D010F8EE
:100BE000013B013A8B422DD010F0070F42B3F6D1F2
:100BF000F0B441EA012141EA014122F007047FF00B
:100C000000070023F0E80256083C85EA010586EA61
:100C1000010685FA47F5A3FA87F586FA47F6A5FA9D
:100C200087F68EB9EED1F0BC01F0FF0102F00702A9
:100C300032B110F8013B013A83EA010313B1F8D154
:100C40000020704701387047002D06BF3546033835
:100C5000073815F0010F07D1013015F4807F02BF6E
:100C6000013015F4C03F0130F0BC0138704700BFBF
:100C700080B582B000AF786038200CF038F90346B8
:100C8000002B0ED1944B1B680D22012193480CF0D0
:100C900037FB934B1B680D22012190480CF030FB71
:100CA0000DE08D4B1B680C2201218E480CF028FBB7
:100CB0008B4B1B680C2201218A480CF021FB3C2045
:100CC0000CF015F90346002B0ED1834B1B680D2247
:100CD000012185480CF014FB814B1B680D2201217A
:100CE00081480CF00DFB0DE07B4B1B680C220121B1
:100CF0007E480CF005FB7A4B1B680C2201217B48D7
:100D00000CF0FEFA30200BF07AF90346012B0ED1DD
:100D1000714B1B680D22012175480CF0F1FA704BE4
:100D20001B680D22012172480CF0EAFA02E07148BA
:100D30000AF0BAFC32200BF062F90346012B0ED107
:100D4000654B1B680D2201216B480CF0D9FA644BEE
:100D50001B680D22012168480CF0D2FA02E06548B8
:100D60000AF0A2FC10F0AEFF01220021032011F0D6
:100D70005FF80346012B0DD1574B1B6801225F49D9
:100D800018460CF05DF9564B1B6801225B4918466A
:100D90000CF056F901220021042011F049F8034615
:100DA000012B0DD14C4B1B680222544918460CF004
:100DB00047F94B4B1B680222504918460CF040F98A
:100DC00001220021052011F033F80346012B0DD13B
:100DD000414B1B680322494918460CF031F9404B3E
:100DE0001B680322454918460CF02AF9032011F02C
:100DF000F1F90346012B0ED1374B1B680122404904
:100E000018460CF01DF9364B1B6801223C49184668
:100E10000CF016F90DE0304B1B68012239491846D9
:100E20000CF00EF92E4B1B680122364918460CF0C7
:100E300007F9042011F0CEF90346012B0ED1264B01
:100E40001B6802222E4918460CF0FAF8244B1B6846
:100E500002222B4918460CF0F3F80DE01E4B1B68DC
:100E60000222284918460CF0EBF81D4B1B680222A1
:100E7000244918460CF0E4F8052011F0ABF90346BC
:100E8000012B0ED1144B1B6803221D4918460CF090
:100E9000D7F8134B1B680322194918460CF0D0F8F9
:100EA0000DE00D4B1B680322164918460CF0C8F8DC
:100EB0000B4B1B680322134918460CF0C1F80120A4
:100EC0001EF01AFE01201EF017FE01201EF0F8FD94
:100ED00001F00EFDFCE700BF14000020A03B02085B
:100EE0000C000020B03B0208C03B0208D03B0208C7
:100EF000E03B02086CB10120F03B0208003C020814
:100F0000143C0208243C020880B59CB000AF07F1F5
:100F1000540300221A605A609A60DA601A619A8259
:100F2000002387F8513007F15403184600F0AAFA5D
:100F300007F1510207F1520107F15403184600F07E
:100F40008FF997F85130002B01D001237BE000236B
:100F5000A7F86A3007F1380207F144031146184632
:100F600001F0B4FB07F14403184601F019FE07F144
:100F70003803184601F014FE07F144023B1D3449C2
:100F8000184620F0E3FD3B1D184601F0C3FA00238C
:100F9000A7F86E3050E007F15403184600F072FADB
:100FA00007F1510207F1520107F15403184600F00E
:100FB00057F9284B1B68B7F85220274918460CF000
:100FC0003FF8B7F85230002B3BD0B7F85230C82B5F
:100FD00028BFC823A7F86A300023A7F86C3010E0B8
:100FE000B7F86C2013469B0113449B001A461B4B19
:100FF0001344184600F054FCB7F86C300133A7F8DE
:101000006C30B7F86C20B7F86A309A42E8D3012008
:101010001EF056FDB7F86A2013469B0113449B004F
:101020001A4607F144030D49184601F05BFEB7F874
:101030006E300133A7F86E30B7F86E30232BAAD983
:1010400000E000BF002318467037BD4680BD00BFDA
:10105000383C0208140000204C3C0208AC07002079
:1010600080B582B000AF01201EF02AFD01221021C0
:10107000234814F009FD00F0AFF801F0D1FB002384
:10108000FB710023BB710023FB7116E001201EF0F1
:1010900017FD00F0CDF80346BB71BB79002B10D0D3
:1010A000184801F037FA184801F034FA4FF4FA7092
:1010B0000BF080FDFB790133FB71FB79032BE5D944
:1010C00000E000BFBB79002B04D00E4801F022FAEB
:1010D000012311E00121002000F082FD0B4801F006
:1010E00019FA01201EF0ECFC0021102000F078FD20
:1010F000074801F00FFA002318460837BD4680BDA7
:1011000000000240643C0208803C0208A43C020843
:10111000BC3C020880B500AF0121022000F060FD58
:101120000346002B04D0044801F0F4F9012300E049
:101130000023184680BD00BFD43C020880B590B0A3
:1011400000AF0346FB71FB79002B07D1012103207F
:1011500000F046FD0E4801F0DDF916E0FB799BB288
:101160001946012000F03CFD0021032000F038FD6D
:10117000FA7907F10C030749184620F0E7FC07F15C
:101180000C03184601F0C6F900BF4037BD4680BDCC
:10119000003D0208183D020880B500AF0B4B1B68EC
:1011A000142201210A480CF0ABF80121062001F0BD
:1011B000F7F8064B1B681522012106480CF0A0F831
:1011C0000121052001F0ECF800BF80BD14000020D3
:1011D000903D0208A83D020880B500AF114B1B6886
:1011E0001422012110480CF08BF80021052001F099
:1011F000D7F80121062000F0ABFE0A4B1B68132232
:1012000001210A480CF07CF80021062001F0C8F802
:101210000121062000F09CFE0121012000F012FFB8
:1012200000BF80BD14000020C03D0208D83D020868
:1012300080B500AF00F0B0FB0346002B01D00123C6
:101240000BE00121052000F083FE00F0A5FB034622
:10125000002B01D0022300E00023184680BD0000CF
:10126000B0B5B4B000AFF860B9607A60FB689B7845
:1012700087F8CF30FB6803331B781B021AB2FB6878
:1012800004331B781BB213431BB2A7F8CC30FB68A6
:1012900005331B781B021AB2FB6806331B781BB29E
:1012A00013431BB2A7F8CA30FB6807331B781A0632
:1012B000FB6808331B781B041A43FB6809331B784F
:1012C0001B021343FA680A3212781343C7F8C4307A
:1012D0007B6800221A7097F8CF30002B0FD007F1EF
:1012E0002C03604A1C4615460FCD0FC495E8030039
:1012F00020600434218002340B0C23700AE007F1D3
:101300002C03594A1C4615460FCD0FC495E803001F
:1013100084E80300B7F8CC3003F00103002B0FD0B2
:1013200007F12C031846FFF747FC03461A4607F15E
:101330002C0313444D491A460B4603CB10605160F1
:10134000B7F8CC3003F00203002B10D007F12C03C8
:101350001846FFF731FC03461A4607F12C031344E5
:10136000434A1C46134607CB20606160A260B7F871
:10137000CC3003F00803002B12D007F12C031846E1
:10138000FFF71AFC03461A4607F12C031344394AA7
:101390001C46134607CB20606160A2601B78237354
:1013A000B7F8CC3003F01003002B27D007F12C0343
:1013B0001846FFF701FC03461A4607F12C031344B5
:1013C0002D491A460B4603CB106051601B781372EF
:1013D00007F1140300221A605A609A60DA601A61F9
:1013E0009A8207F11403184600F0BAF807F11403C3
:1013F000184600F05DF97B6801221A70B7F8CC300E
:1014000003F02003002B16D007F12C031846FFF73A
:10141000D3FB03461A4607F12C03134417491A4617
:101420000B4603CB1060516019889B781181937231
:101430007B6801221A707B681B78002B07D010484C
:1014400001F068F807F12C03184601F063F8BB6857
:10145000B7F8CA201A80B7F8CC301846D037BD4646
:10146000B0BD00BFEC3D0208043E02081C3E02086D
:10147000243E0208303E0208403E02084C3E02086C
:10148000583E020880B584B000AF78600023BB608E
:101490000023FB7307E0FB7B7A68134400221A7079
:1014A000FB7B0133FB73FB7B152BF4D991233B7240
:1014B00001237B7207F108030421184600F0FAFBB0
:1014C00007F108030421184600F0A2FC0346002B94
:1014D00001D0012336E003200BF06CFB0122162122
:1014E000786800F0BFFC0346002B01D0022329E0FE
:1014F0007B6804331B78922B02D1144801F00AF860
:10150000134B1B680A22012112480BF0F9FE00233D
:10151000FB730CE00E4B1868FB7B7A6813441B7856
:101520001A460D490BF08CFDFB7B0133FB73FB7BF3
:10153000152BEFD9064B1B680222012107480BF03F
:10154000DFFE002318461037BD4680BD783E0208F6
:1015500014000020803E02088C3E0208943E0208DF
:1015600080B5ACB000AF786007F1A80300221A6024
:101570001A7107F110039622002118461FF0CAFDC8
:10158000942387F8A830012387F8A930152387F81A
:10159000AA3007F1A8030521184600F08BFB0023B1
:1015A00087F8AF300AE097F8AF307A68134400222A
:1015B0001A7097F8AF30013387F8AF3097F8AF3033
:1015C000152BF0D907F1A8030521184600F020FCDF
:1015D0000346002B04D0314800F09CFF012359E062
:1015E00004200BF0E7FA01221621786800F03AFC9B
:1015F0000346002B04D02A4800F08CFF022349E068
:1016000007F110031846FFF7D7FA03461A4607F109
:101610001003134423491A460B4603CB1060516054
:1016200019889B7811819372002387F8AF3018E0F6
:1016300097F8AF307A6813441B781A4607F108030D
:101640001949184620F082FA07F1080207F1100341
:101650001146184620F0C6FA97F8AF30013387F8E4
:10166000AF3097F8AF30152BE2D907F110031846C9
:10167000FFF7A2FA03461A4607F1100313440B4A78
:101680001188927819809A7007F11003184600F0BB
:1016900041FF00231846B037BD4680BD983E020882
:1016A000B03E0208803E02088C3E0208943E0208CA
:1016B000F0B5B7B000AF786007F10C03C822002185
:1016C00018461FF027FD07F10C031846FFF774FAC0
:1016D00003461A4607F10C0313446A4A1D46144692
:1016E0000FCC28606960AA60EB6003CC2861696157
:1016F00023782B767B6802331B781B021AB27B6837
:1017000003331B781BB213431BB2A7F8D630B7F8CC
:10171000D63003F00103002B18D007F10C03184654
:10172000FFF74AFA03461A4607F10C031344564AD8
:101730001C4615460FCD20606160A260E3602868FA
:101740002061AB88AA79A3821346A375B7F8D63077
:1017500003F00203002B16D007F10C031846FFF725
:101760002BFA03461A4607F10C031344474A1D4659
:1017700014460FCC28606960AA60EB6003CC286136
:10178000696123782B76B7F8D63003F00303002B7A
:1017900011D007F10C031846FFF70EFA03461A465C
:1017A00007F10C0313443A4A1C4615460FCD20603E
:1017B0006160A260E360B7F8D63003F00503002B48
:1017C00015D007F10C031846FFF7F6F903461A4641
:1017D00007F10C0313442F4A1D4614460FCC286012
:1017E0006960AA60EB602068286123792B75B7F8DF
:1017F000D63003F00603002B13D007F10C03184674
:10180000FFF7DAF903461A4607F10C031344224A9C
:101810001D4614460FCC28606960AA60EB60206802
:101820002861B7F8D63003F00703002B1ED007F16C
:101830000C031846FFF7C0F903461A4607F10C03DC
:101840001344164A14469C4604F1200E654626466B
:101850000FCE28606960AA60EB6010340CF1100CA8
:101860007445F3D16346224612781A7007F10C03CF
:10187000184600F04FFEB7F8D6301846DC37BD46A4
:10188000F0BD00BFC43E0208E03E0208F83E020878
:10189000143F0208243F02083C3F0208503F020860
:1018A00080B584B000AF786007F1080300221A60A9
:1018B0001A7197233B7201237B720023BB7207F1DD
:1018C00008030521184600F0F5F92E4B1B68194650
:1018D00044200BF027FD07F108030521184600F00E
:1018E00097FA0346002B01D0012347E004200BF0B8
:1018F00061F900221021244814F0C6F840F6B833EC
:101900004FF48272796821481AF072FC0346FB7327
:10191000012210211C4814F0B7F8FB7B002B08D0E3
:10192000184B1B682422012119480BF0E9FC022303
:1019300024E007F1080301220021184600F092FA82
:101940000346002B01D0032318E04FF4827178681E
:1019500000F0D3F9034683F00103DBB2002B07D07C
:10196000084B18687B681B781A460A490BF068FB1D
:101970004FF48271786800F049FB00231846103755
:10198000BD4680BD140000200000024028B50120A3
:10199000743F02089C3F020880B500AF002101207F
:1019A00000F044F80346184680BD000080B500AF43
:1019B000184B1B881946002000F012F9164B1B88A3
:1019C0001946122000F00CF9134B1B8819461220FF
:1019D00000F006F9114B1B8819460B2000F000F9A6
:1019E0000F4B1B881946132000F0FAF80D4B1B888B
:1019F0001946072000F0F4F80B4B1B881946082005
:101A000000F0EEF80121002000F010F8034618461F
:101A100080BD00BF0000002002000020D0D20020C6
:101A2000CED20020D2D20020D4D20020B0B596B0C1
:101A300004AF03460A46FB711346BB7107F1280346
:101A400000221A605A609A60DA601A615A611A7646
:101A500007F1200300221A601A71FB79002B0AD0CB
:101A6000554B1B681622012154480BF049FC90236A
:101A700087F8283009E0504B1B6818220121504894
:101A80000BF03EFC922387F82830012387F8293099
:101A9000BB79002B0AD0484B1B681C220121494806
:101AA0000BF02EFC012387F82A3009E0424B1B681B
:101AB0001C22012144480BF023FC002387F82A3024
:101AC000424B1A6807F10C031946414818F0F3FC21
:101AD0003E4B1A6807F1080319463D4818F0FEFD11
:101AE000354B18687B7A1C46BB7A1D463B7B7A7B5C
:101AF000B97B0291019200932B46224635490BF0A7
:101B00009FFABB7B19467B7B1A4613461B019B1A27
:101B10009B00CA183B7B19464FF4616303FB01F33A
:101B20001A44BB7A19462C4B03FB01F31A447B7A07
:101B300019462A4B03FB01F313447B647B6C1B0E99
:101B4000DBB287F82D307B6C1B0CDBB287F82E30B4
:101B50007B6C1B0ADBB287F82F307B6CDBB287F81B
:101B6000303007F128031921184600F0A3F807F1D7
:101B700028031921184600F04BF90346002B01D029
:101B8000012315E003200BF015F807F120030022D4
:101B90000521184600F066F90346002B01D0022308
:101BA00006E007F120030521184600F02FFA002374
:101BB00018464837BD46B0BD14000020D43F020887
:101BC000EC3F02080840020828400208D8D2002052
:101BD00090B301204840020880510100008D270089
:101BE00080B586B000AF03460A46FB711346BB8042
:101BF00007F1100300221A60C3F8032007F108035D
:101C000000221A601A7193233B7401237B74FB79C1
:101C1000BB74BB881B0A9BB2DBB2FB74BB88DBB214
:101C20003B7507F110030721184600F043F81D4BE0
:101C30001868FA79BB881C490BF002FA07F1100307
:101C40000721184600F0E4F80346002B08D0154B96
:101C50001B681C22012115480BF052FB01231CE0DC
:101C600003200AF0A7FF07F1080300220521184608
:101C700000F0F8F80346002B08D00A4B1B681D2221
:101C800001210B480BF03CFB022306E007F108039F
:101C90000521184600F0BAF9002318461837BD464A
:101CA00080BD00BF14000020784002089840020860
:101CB000B840020880B584B000AF786039603B68F6
:101CC000023B1A4679684FF6FF7000F043F803466E
:101CD000FB81FB891B0A99B23B68023B7A6813447B
:101CE000CAB21A703B68013B7A681344FA89D2B2CF
:101CF0001A7000BF1037BD4680BD80B584B000AFFC
:101D0000786039603B68023B1A4679684FF6FF708D
:101D100000F020F80346FB81FB891B0A9BB27B7312
:101D2000FB893B733B68023B7A6813441B787A7BE0
:101D30009A4209D13B68013B7A6813441B783A7B8D
:101D40009A4201D1012300E0002318461037BD4616
:101D500080BD000080B5ADF5087D00AF07F1080338
:101D600019603B1D1A6007F10E0302461A8007F145
:101D70001003264A184611464FF400731A461FF006
:101D8000BEF94FF6FF73A7F81E320023A7F81C32E6
:101D90002EE0B7F81C3207F10802126813441B78D2
:101DA000A7F81A32B7F81E321B0AA7F81832B7F88C
:101DB0001822B7F81A325340A7F81632B7F816327D
:101DC000DBB2A7F81432B7F81E321B02A7F81232A2
:101DD000B7F8142207F1100333F81220B7F81232C3
:101DE0005340A7F81E32B7F81C320133A7F81C3253
:101DF000B7F81C323A1D12689A42CADCB7F81E3294
:101E0000184607F50877BD4680BD00BFD8400208D8
:101E100080B586B002AF786039600123FB733B6800
:101E20009AB26423009313467A68CC210A4813F0CF
:101E30006DFF0346FB73FB7B002B08D0074B1B6831
:101E40002622012106480BF05BFAFB7B00E0002311
:101E500018461037BD4680BDB4AF012014000020E5
:101E6000D842020880B588B002AFF860B960134666
:101E7000FB710123FB7507F1100300221A601A7130
:101E8000BB68002B2ED0BB689AB264230093134624
:101E9000FA68CC21294814F047F80346FB75FB7D0E
:101EA000002B08D0264B1B682522012125480BF06A
:101EB00027FAFB7D3EE0BB68B3F5827F05D1FB6866
:101EC00091221A70FB6895221A70B968F868FFF7BA
:101ED00014FF034683F00103DBB2002B02D01A4843
:101EE00000F018FBFB79002B23D0FB681B783B74B8
:101EF00001237B747E23BB7407F110030521184670
:101F0000FFF7D8FE07F11002642300930523CC21CC
:101F10000A4813F0FBFE0346FB75FB7D002B08D03F
:101F2000074B1B681C22012108480BF0E9F902232A
:101F300000E0002318461837BD4680BDB4AF01202D
:101F400014000020004302082843020850430208FE
:101F500080B584B000AF03460A46FB8013467B7110
:101F60007B79002B06D0244B1B68FA88234918463E
:101F70000BF066F801201DF0A3FD0023FB8124E097
:101F800064200AF017FE01201DF09AFD7B79002BDA
:101F900018D0FA891A4BA3FB0213D9080B469B00F1
:101FA0000B445B00D31A9BB2002B0BD1124B186869
:101FB000FB89134AA2FB0323DB089BB21A46114993
:101FC0000BF03EF8FB890133FB81F989FA8813464F
:101FD0009B0013445B009942D2DB7B79002B06D037
:101FE000054B1B680222012107480BF089F900BF4D
:101FF0001037BD4680BD00BF1400002070430208AA
:10200000CDCCCCCC884302089043020880B582B086
:1020100000AF786039603B68052B0BD17B680233D9
:102020001B787E2B06D1054B1B680F22012104482B
:102030000BF066F900BF0837BD4680BD14000020D4
:1020400094430208F0B5ADF5497D06AF07F10C03E6
:10205000186007F1080319607B4BC7F804337B4B0A
:10206000C7F8003307F11003794A07CA83E807006D
:1020700007F53E731946012000F02EF907F53D7370
:102080001946022000F028F907F53C7319460B2089
:1020900000F022F907F5207319462B2000F01CF9F7
:1020A0006C4B1B68D7F880226B4918460AF0C8FFB2
:1020B00007F53B731946102000F00EF907F53A7347
:1020C0001946112000F008F9644B1B681A46644950
:1020D000644818F0F0F9614B1B681A466249614880
:1020E00018F0FCFA604BDB781D465F4B5B781E46B0
:1020F0005D4B9B781A465A4B1B781946584B5B78B8
:102100001C46574B9B7807F5197003930294019175
:10211000009233462A4655491FF018FDD7F8F83289
:102120007B60D7F8F83207EE903AB8EEE77AD7ED51
:10213000C17A67EE277A17EE900AFEF7BDF90446DA
:102140000D46D7F8F462D7F8F43207EE903AB8EEBD
:10215000E77AD7EDC07A67EE277A17EE900AFEF796
:10216000ABF902460B4607F5197107F52170CDE969
:1021700004230296CDE900457B680A463C491FF0DE
:10218000E5FC07F10C031B68012B4AD107F1100194
:1021900007F13403132218460DF022FA034687F89C
:1021A000FF3297F8FF32002B2CD107F11C0207F108
:1021B0001003114618460EF0F7FA034687F8FF326F
:1021C00097F8FF32002B17D107F11C031A6807F1AB
:1021D0003403114618460DF092FF034687F8FF328C
:1021E00097F8FF32002B07D107F5217207F134036E
:1021F000114618460AF024FF07F1340318460DF083
:102200004FFF0EE0134B1B682F22012119480BF0E2
:1022100077F8104B1B6897F8FF22174918460AF009
:102220000FFF07F108031B68012B08D1094B186841
:10223000D7F8EC22D7F8E83210490AF001FF00BFC6
:1022400007F54377BD46F0BDDD24164033334340E8
:102250008444020814000020A4430208D8D20020BD
:102260004CB1012090B301208CB30120B843020887
:10227000D843020814440208444402086044020897
:1022800090B585B000AF786007F1080319460120CA
:1022900000F022F8BB6807EE903AF8EEE77A17EE06
:1022A000900AFEF709F90AA3D3E90023FEF75CF9C7
:1022B00003460C4618462146FEF72EFC0346FB60FB
:1022C0007B68FA681A6000BF1437BD4690BD00BF36
:1022D0005273456B3D2A633F80B588B004AF034617
:1022E0003960FB800023BB733B68294A1A6009F000
:1022F00051F9BB7B002B17D0FB7B012B0BD0FB7B59
:10230000032B08D0FB7B022B08D1224B93F83D30E6
:10231000DBB2202B02D11F4809F0C6F905200AF0D4
:1023200049FCBB7B092B15D8FA880A2302930223A8
:10233000019307F10803009301233021154814F09D
:102340002DF90346FB73BB7B0133BB73FB7B002B77
:10235000CFD100E000BF0F4813F0A8FCFB7B002B9F
:102360000BD13B7A9BB21B029AB27B7A9BB213448D
:10237000BB81BA893B681A6006E0074B1B681322D1
:10238000012106480AF0BCFF00BF1037BD4680BDE2
:10239000F1D8FFFFF8B0012014000020904402089B
:1023A00080B588B002AF03460A46FB8013467B71B6
:1023B0000023BB7507F10C033B6109F0EBF8BB7D13
:1023C000002B17D0FB7D012B0BD0FB7D032B08D0FE
:1023D000FB7D022B08D11B4B93F83D30DBB2202B49
:1023E00002D1184809F060F905200AF0E3FBBB7D33
:1023F000092B15D8FB88DBB23B737B797B730A23EF
:10240000009302233A6930210E4813F07FFC034603
:10241000FB75BB7D0133BB75FB7D002BCFD100E08D
:1024200000BF084813F042FCFB7D002B06D0064B92
:102430001B681422012105480AF062FF00BF18370B
:10244000BD4680BDF8B0012014000020A44402085D
:1024500080B500AF01201DF033FB00F08DFC03467A
:10246000002B04D0164800F055F8012325E0012088
:102470001DF026FB134800F0DFF80346002B04D0C4
:10248000114800F047F8022317E001201DF018FB67
:102490000C4800F023F80346002B04D00B4800F052
:1024A00039F8032309E00A4800F034F8094800F03D
:1024B00031F8094B01221A700023184680BD00BF75
:1024C000BC44020818A80120DC44020808450208A0
:1024D000204502083C450208D6D2002080B582B0D3
:1024E00000AF7860786800F05BFB0346002B04D0F7
:1024F000064800F00FF8012303E0054800F00AF851
:10250000002318460837BD4680BD00BF08450208B5
:102510002045020880B584B000AF78600023FB73CB
:10252000094B1B78002B04D0786800F011F80123C8
:10253000FB73064B1B68796818460AF081FDFB7B2C
:1025400018461037BD4680BDD6D2002014000020AA
:10255000F0B5A1B004AF78602E4B1B681A462E4927
:102560002E4817F0A8FF2B4B1B681A462C492B4806
:1025700018F0B4F82A4BDB781D46294B5B781E46D1
:10258000274B9B781A46244B1B781946224B5B78C5
:102590001C46214B9B7807F10C0003930294019198
:1025A000009233462A461F491FF0D0FA07F10C0368
:1025B0001846FEF701FB03461A4607F10C031344C5
:1025C000194A1188927819809A7007F10C0379687A
:1025D00018461FF007FB07F10C031846FEF7ECFA4C
:1025E00003469AB207F10C031946104800F02EFB7F
:1025F0000346002B08D00E4B1B681B2201210D48FF
:102600000AF07EFE012300E0002318467437BD4621
:10261000F0BD00BFD8D200204CB1012090B3012002
:102620008CB30120604502088045020818A80120EB
:10263000140000208445020880B594B000AF786093
:102640000023A7F84E30002387F84D3018E0B7F884
:102650004E2007F140031B4918461FF077FA07F197
:102660004003184600F052FC0346002B03D101231F
:1026700087F84D3004E0B7F84E300133A7F84E30FC
:1026800097F84D3083F00103DBB2002BDFD101203E
:102690001DF016FA07F1400207F10C030A4918462B
:1026A0001FF054FA07F10C031846FFF733FF07F148
:1026B0004003194678681FF0A4FA002318465037E3
:1026C000BD4680BDA0450208A845020880B596B069
:1026D00000AF786039600023A7F856300023BB6450
:1026E00007F14C0300221A609A800023FB6307F174
:1026F000400300221A609A80002387F855301BE0BF
:10270000B7F8562007F14803284918461FF01EFA6B
:1027100007F14803184600F0F9FB0346002B03D1EC
:10272000012387F8553007E001201DF0C9F9B7F8FB
:1027300056300133A7F8563097F8553083F001032F
:10274000DBB2002BDCD101201DF0BAF90023BB6005
:1027500007F10C032E22002118461EF0DBFCB7F80F
:10276000562007F13C03124918461FF0EFF907F114
:10277000480207F108030F4918461FF0E7F907F16F
:1027800008031846FFF7C6FE07F1480319467868A4
:102790001FF037FA07F13C03194638681FF031FA89
:1027A000002318465837BD4680BD00BFC445020807
:1027B000D0450208A845020880B582B000AF134892
:1027C000FFF7A8FE124813F071FA4FF4FA700AF0FE
:1027D000F1F90F4813F08AF90346FB710D48FFF732
:1027E00099FE0D4819F09FFB4FF4FA700AF0E2F9D8
:1027F000094819F02CFB0346FB714FF4FA700AF0FC
:10280000D9F900BF0837BD4680BD00BFDC450208CE
:10281000B4AF0120EC45020828B5012000000000FB
:1028200090B59BB000AF4FF000037B6601201DF018
:1028300047F907F164031846FFF722FD7B6E18463F
:10284000FDF73AFE03460C4638461A46234626490B
:102850001FF07CF93B461846FFF75CFE7B6E18467E
:10286000FDF72AFE1EA3D3E90023FEF7EFF8034687
:10287000002B00D12EE0FEF78FFC22E01B48FFF773
:1028800049FE01201DF01CF944F620600AF092F97F
:102890007B6E1846FDF710FE03460C4638461A4676
:1028A000234611491FF052F93B461846FFF732FE06
:1028B00001210120FFF7C6FB07F164031846FFF76B
:1028C000DFFCD7ED197AB1EE007AF4EEC77AF1EEBB
:1028D00010FAD3D400BF6C37BD4690BDAFF3008073
:1028E0009A99999999990D40FC470208184802084D
:1028F00080B5A2B002AF012387F87C3007F15803FE
:102900002222002118461EF005FCFEF745FC00239C
:1029100087F8573007F1400300221A605A609A6026
:10292000DA601A619A820023FB87052387F87B30DF
:1029300007F1340300221A605A601A810023BB8613
:102940005023FB869F233B87EE237B8740F23D137A
:10295000BB8701210920FFF723FD01210820FFF794
:102960001FFD01210120FFF76DFBFFF771FD0346FD
:10297000002B02D07C48FFF7CDFD01201DF0A0F810
:102980004FF47A700AF016F9FEF76AFB0346002B43
:102990000BD001201DF094F87448FFF7BBFD74487C
:1029A000FFF7B8FDFFF708FFDBE0002387F87D3075
:1029B000CBE007F158026423009320238C216D485B
:1029C00013F0B2FA034687F87C306B4B1B6807F1B3
:1029D00058026A4918460AF033FB09200AF0EAF85F
:1029E000FFF71EFF664B1B785B0007F18002134464
:1029F00033F84C3CDBB21846FEF7A0FB002387F807
:102A00007F301AE001201DF05BF8FEF7CFFF034690
:102A100087F87E3097F87E30002B13D05948FFF7A7
:102A200079FD4FF47A700AF0C5F85748FFF772FD48
:102A300097F87F30013387F87F3097F87F30032B8A
:102A4000E0D900E000BF97F87E30002B40F088808E
:102A500007F140031846FEF715FD07F1570207F18D
:102A60003E0107F140031846FEF7FAFB01201DF076
:102A700027F8FEF74FFB01201DF022F8002387F80E
:102A80007F302FE007F1570207F13E0107F14003C5
:102A90001846FEF7E5FB034603F00203002B03D0C4
:102AA0003A48FFF737FD21E03948FFF733FD4FF48F
:102AB0007A700AF07FF807F140031846FEF7E2FC4F
:102AC0000346002B06D03348FFF724FD4FF47A70FD
:102AD0000AF070F801201CF0F3FF97F87F30013303
:102AE00087F87F3097F87F30592BCBD92A48FFF7EA
:102AF00011FD234B1B785B0007F18002134433F870
:102B00004C3C1A463B46254918461FF01FF83B46E9
:102B10001846FFF7FFFC00210020FEF787FFFEF7B5
:102B2000F3F9174B1B780133DAB2154B1A70144BBB
:102B30001B78042B02D9124B00221A7001210020AD
:102B4000FEF774FF01201CF0BBFF97F87D300133C6
:102B500087F87D3097F87D301D2B7FF62AAF00E097
:102B600000BF8037BD4680BD3C480208504802087F
:102B70006C480208B4AF0120140000208C48020801
:102B8000D7D2002098480208B4480208C448020876
:102B9000F8480208104902082C490208484902086E
:102BA00080B584B000AF78601222796821480CF0BB
:102BB00017FD0346FB73FB7B052B09D1786800F0FA
:102BC0002DF90A2279681B480CF00AFD0346FB73B5
:102BD000FB7B002B24D0184B1B68796818460AF041
:102BE0002FFA154B1B681F22012114480AF088FB9D
:102BF000114B1B68FA7B124918460AF021FA0E4B5A
:102C00001B68022201210F480AF07AFB0A4B1B685D
:102C1000122201210C480AF073FB0223BB7304E06B
:102C200004480DF03DFA0023BB73BB7B18461037F8
:102C3000BD4680BD94B50120140000206049020803
:102C400080490208884902088C49020880B586B08C
:102C500000AFF860B9601346FB803222F9681D4866
:102C60000CF0BEFC0346002B0BD000F01DFA1A4BF3
:102C70001B681F22012119480AF042FB0223FB7541
:102C800022E0FA8807F11003B96812480CF0DBFF64
:102C90000346BB753B69002B02D0BB7D002B0ED0D9
:102CA00000F002FA0C4B1B68172201210C480AF0B5
:102CB00027FB08480DF0F4F90123FB7504E00548F3
:102CC0000DF0EEF90023FB75FB7D18461837BD4665
:102CD00080BD00BF94B501201400002060490208A7
:102CE000A049020880B586B000AFF860B9607A608C
:102CF0003222F9681C480CF073FC0346002B0BD001
:102D000000F0D2F9194B1B681F22012118480AF064
:102D1000F7FA0223FB7521E007F110037A68B9681E
:102D200011480CF090FF0346BB753B697A689A42E4
:102D300002D1BB7D002B0CD00C4B1B68172201214C
:102D40000C480AF0DDFA08480DF0AAF90123FB75DA
:102D500004E005480DF0A4F90023FB75FB7D18463F
:102D60001837BD4680BD00BF94B501201400002077
:102D700060490208A049020880B5ADF5047D02AFA4
:102D8000002387F807320022124913480CF0C4FBD5
:102D90000346002B14D01148FFF7BCFB3A1D4FF43B
:102DA000007300931346002207210A480DF0FCFE31
:102DB0000346002B04D00A48FFF7ACFB012303E0D5
:102DC0000848FFF7A7FB0023184607F50277BD4622
:102DD00080BD00BF90B50120C4B70120D0490208D2
:102DE000104A0208644A020880B584B000AF7860D7
:102DF0007868FDF7E1FE0346013318461EF060F9DE
:102E00000346FB60FB68002B03D07968F8681EF06E
:102E1000F8FEFB6818461037BD4680BD80B586B009
:102E200000AF786001201CF04BFE7868FFF7DCFFF4
:102E3000F860F868FDF7C0FE03463B6102E03B69BD
:102E4000013B3B613B69002B06D03B69013BFA68C3
:102E500013441B782F2BF2D13B69002B02D03B6926
:102E6000013B3B613B69002B3DD03B69FA68134451
:102E700000221A70F8680DF089FD0346FB75FB7D92
:102E8000002B1BD01B4B1B68FA7D1B4918460AF010
:102E9000D7F8184B1B680222012118480AF030FAB3
:102EA000144B1B681222012115480AF029FA114B14
:102EB0001B68FA68134918460AF0C2F8FB7D052B17
:102EC00007D1F868FFF7AAFFF8680DF05FFD034629
:102ED000FB75FB7D002B06D1064B1B68FA680A497F
:102EE00018460AF0ADF8F8681EF0F2F800BF18377F
:102EF000BD4680BD140000208049020888490208B0
:102F00008C490208884A0208A04A020880B596B097
:102F100000AF7860022387F8573007F13C03194669
:102F200078680DF041FC034687F8563097F8563024
:102F3000002B02D0042B04D007E0012387F8573080
:102F40000FE0002387F857300BE007F108037A6899
:102F5000074918461EF0FAFD07F108031846FFF767
:102F6000D9FA97F8573018465837BD4680BD00BF8C
:102F7000B44A0208B0B58AB000AF374B374A1A607E
:102F800008F090FE364B5B6A354A43F4E023536207
:102F900072B6334B4FF000629A6062B600F0BCF834
:102FA0001BF05CFA08F07AF808F0FAF808F0A0FDD7
:102FB00008F05EFA08F096FA08F01AFB08F046FBF3
:102FC00008F0D2FB08F006FC08F03CFC08F070FCAE
:102FD00008F03AFD08F0E0FC08F060FD08F0D8FDCC
:102FE000204B1B68184600F0BBFB1F4B1B681846A4
:102FF00000F0B6FB1D4B5B691C4A23F020035361B4
:103000001B4B07F114041D460FCD0FC42B68236022
:1030100007F114030021184609F0A5FD0246154BDF
:103020001A6000F0C7F91CF0DDFC134B3C461D464E
:103030000FCD0FC42B6823603B460021184609F0D2
:1030400092FD02460D4B1A60012240210C4812F0FD
:103050001BFD09F065FDFEE7340400205028004008
:1030600000ED00E0140000200C00002000080240E9
:10307000F84A020824A801201C4B020828A80120B5
:103080000018024080B582B000AF78607B681B6892
:10309000044A934201D11BF003FA00BF0837BD4632
:1030A00080BD00BF0000014080B500AF104B5B69E0
:1030B0000F4A43F0100353610D4B5B690C4A43F018
:1030C000200353614FF4FA601BF004FA084B5B696C
:1030D000074A23F010035361054B5B69044A23F050
:1030E000200353614FF4FA601BF0F4F9DEE700BFF0
:1030F0000008024080B500AFFFF7D6FF00BF80BDDB
:1031000080B582B000AF78603960FFF7CDFF00BFB7
:103110000837BD4680BD000080B500AF00F00CF957
:1031200002460E4B1A600D4B1B68002B0CD14FF45E
:10313000806200210A481DF0EDFF094B094A1A6020
:10314000064B094A1A6007E0044B1B684FF4806283
:10315000194603481DF0D3FF00BF80BD2CAC0120F1
:103160002CA801202143AA5500001E0890B58FB05D
:1031700000AF002387F82F3012F054F800F098F8D1
:1031800078637B6B002B16D100237B6001233B61AE
:103190001723FB6002237B6107F118023B1D1146D8
:1031A000184611F0A1FE0346002B02D012F054F88D
:1031B00043E0234B7B63234B234A1A6007F11C0334
:1031C0001946204800F046F8FB691E4AC2F8FC3355
:1031D0000023BB621D4BF322DA6000233B631CE03B
:1031E000184A3B6B13441B78DBB24FF00004C7E96D
:1031F00008347A6B3B6BD118D7E90823B86A11F011
:10320000BDFF034687F82F3097F82F30002B0ED1E3
:10321000BA6A3B6B134401333B63BB6A01334FF41F
:103220008062B2FBF3F33A6B9A42D9D300E000BF5D
:1032300012F012F8064A7B6B13603C37BD4690BD16
:1032400000001E082CA801202143AA55003C024082
:103250002CAC012080B582B000AF786039607B680B
:10326000104A934203D97B680F4A934209D97B687D
:10327000B3F1005F11D37B6803F580630B4A93427F
:103280000BD83B68002B08D04FF47F727968002080
:103290000AF072F902463B681A6000BF0837BD4663
:1032A00080BD00BFFFFF1D0800FC1F08FAFF0220C1
:1032B00080B483B000AF0023BB801E4B1B683B6013
:1032C0000023FB800DE0B7F904309B023A681344F9
:1032D0001A46FB8813441B78FF2B07D1FB88013368
:1032E000FB80FB88B3F5806FEDD300E000BFFB8867
:1032F000B3F5806F06D2B7F904309BB201339BB2AD
:10330000BB8005E0B7F904309B023A6813440AE039
:10331000B7F904309B023A68134403F58063B3F1B4
:10332000026FCDD3002318460C37BD465DF8047BF1
:10333000704700BF2CAC012080B584B000AF7F2364
:10334000FB811A4BBB60B7F90E309B02BA6813447D
:103350001B68174A934219D1B7F90E309B02BA681D
:1033600013443A1D11461846FFF774FFB7F90E30A3
:103370009B02BA681344D3F8FC237B689A4205D1B8
:10338000B7F90E309B02BA6813440AE0B7F90E3061
:103390009BB2013B9BB2FB81B7F90E30002BD2DC14
:1033A000002318461037BD4680BD00BF00001E0830
:1033B0002143AA55B0B586B000AF0023FB752EE0BF
:1033C000FB7D3A4A4FF40C7101FB03F313440022D6
:1033D0001A60FB7D364A002142F82310FB7D354AF6
:1033E000002142F82310FB7D334A002142F82310CC
:1033F000FB7D324A002142F82310FB7D304A002138
:1034000042F82310FB7D2F4A002122F81310FB7D88
:103410002D4A002122F81310FB7D0133FB75FB7D43
:10342000022BCDD9294B2A4A1A602A4B2A4A1A6004
:103430002A4B2B4A1A60254B1B6801222949184642
:103440001AF024FB0346BB75BB7D002B01D0FFF7B0
:103450002BFE204B1B680122224918461AF016FB4E
:103460000346BB75BB7D002B01D0FFF71DFE1B4B38
:103470001B6801221B4918461AF008FB0346BB755E
:10348000BB7D002B01D0FFF70FFE174B3C461D46BE
:103490000FCD0FC42B6823603B460021184609F06E
:1034A00062FB00BF1837BD46B0BD00BF54D9002035
:1034B00048AF01203CAF012030AC0120DCD8002017
:1034C000E8D8002044D900204CD900200C0000206E
:1034D0004CB3012010000020E8B4012014000020AB
:1034E000A8B4012080B50120B04B02082DE9F041BD
:1034F000ADF5207D08AF3B1D1860002387F85F32D3
:1035000008F0EAFB0346012B40F09E80132387F866
:103510005E32654B1B681A466449654816F0CBFF5E
:10352000614B1B681A466349614817F0D7F807F1E9
:103530000C031322604918460CF052F8034687F832
:103540005E3297F85E32002B09D107F50F731946EA
:1035500059480DF029F9034687F85E3205E097F8DF
:103560005E32012B01D108F0B7FB97F85E32002BD9
:103570006AD1D7F83C2207F10C03114618460CF02B
:10358000BEFD034687F85E3297F85E32002B4BD1C2
:1035900097F85E32002B41D10021454816F0D8FD46
:1035A000C7F85802454B1B68C7F85432414BDB78CB
:1035B0009C46404B5B789E463E4B9B781A463B4B65
:1035C0001B781946394B5B781C46384B9B781D4657
:1035D000D7F858321B0C9BB21E46D7F858329BB214
:1035E0003B60D7F854321B0C9BB2D7F8540280B220
:1035F00007F10C08079006933B6805930496039522
:10360000029401910092734662462D49404609F0AA
:1036100017FD07F10C03184600F0A2F807F10C03A0
:1036200018460CF03DFD0FE0264B1B6897F85E2214
:103630002549184609F004FD244B1B6897F85E22C3
:103640002149184609F0FCFC00201CF055FA002026
:103650001CF036FA002000F0AFF803461A4697F83F
:103660005F32134387F85F32012000F0A5F803466C
:103670001A4697F85F32134387F85F32022000F052
:103680009BF803461A4697F85F32134387F85F3278
:1036900097F85F32002B02D10A2009F08BFA002341
:1036A00087F85F32D3E700BFD8D200204CB10120A9
:1036B00090B301208CB30120C44B02085428004071
:1036C000D04B020814000020184C02080C00002007
:1036D00080B584B000AF786039603B68002B0BD0B8
:1036E0003868FDF769FA0346FB81FB891A46396899
:1036F000786800F007F801E0FFF7D6FC00BF10374C
:10370000BD4680BD80B586B000AFF860B960134695
:10371000FB80FB88FB82BB68002B18D0FB8A1A4613
:10372000B968002009F028FF3861FB8ABA681344A1
:103730003A690A4918461EF009FAFB8A0A33FB82E5
:10374000FA8AFB680021B86809F0DAFD01E0FFF7AA
:10375000ABFC00BF1837BD4680BD00BF2C4C020833
:1037600080B584B002AF78600C4B01930C4B009392
:10377000592301220B49786809F062FC0A4B1A6848
:103780000A4B19680A4B1B6800930B460949786875
:1037900009F056FC00BF0837BD4680BD5C4C0208EE
:1037A000684C0208344C0208107AFF1F147AFF1F7D
:1037B000187AFF1F744C0208F0B5B7B008AF034683
:1037C000FB73002387F8AF30FB7B022B01D9FFF797
:1037D0006BFCFB7B1B02BD4A9818FB7B0D22FF2173
:1037E00007F08CFA0346002B07F0CE81FB7BB84A2A
:1037F00052F82330C7F88C30FB7B1B02B34A1344CA
:10380000B44918461EF005FAC7F88800D7F8883082
:10381000002B07F0F081012387F8AF30D7F888003C
:10382000FDF7CAF9C7F88400D7F88430B3F5807F74
:1038300007F28C81FB7B1B02A74A1344D7F8881040
:1038400018461EF0DEF90423C7F8B4300423C7F885
:10385000B03028E0FB7BA04A1B021A44D7F8B430F2
:1038600013441878FA7BD7F8B43001339A4912021E
:103870000A4413441B78FC7B194607F091FA03466F
:103880001946954A23021A44D7F8B03013440A4621
:103890001A70D7F8B4300233C7F8B430D7F8B03064
:1038A0000133C7F8B030D7F8B420D7F884309A4243
:1038B000D0D3FB7B884A1B02134404331B78112BA3
:1038C00008D0FB7B844A1B02134404331B78402B33
:1038D00040F03481FB7B804A1B02134404331B7885
:1038E000112B55D1FB7B7C4A1B02134403331B78FD
:1038F000522B0DD1FB7B784A1B02134405331B78F6
:103900001946002007F074FA0346A7F8AC309DE092
:10391000FB7B714A1B02134403331B78572B0DD1D9
:10392000FB7B6D4A1B02134405331B7819460120AB
:1039300007F05EFA0346A7F8AC3087E0FB7B664AE7
:103940001B02134403331B78442B04D1D7F8843073
:10395000A7F8AC307AE0FB7B4FF4867202FB03F3EE
:103960005E4A13445E491A460B4603CB1060516011
:10397000FB7B4FF4867202FB03F3584A134419464B
:10398000D7F88C00FFF7A4FE97F8AF3007F035B9F1
:10399000FB7B514A1B02134404331B78402B55D147
:1039A000FB7B4D4A1B02134403331B78522B0DD172
:1039B000FB7B494A1B02134405331B78194602203E
:1039C00007F016FA0346A7F8AC303FE0FB7B424A0B
:1039D0001B02134403331B78572B0DD1FB7B3E4A4C
:1039E0001B02134405331B781946032007F000FA25
:1039F0000346A7F8AC3029E0FB7B374A1B0213448F
:103A000003331B78442B04D1D7F88430A7F8AC30AB
:103A10001CE0FB7B4FF4867202FB03F32F4A134436
:103A20002F491A460B4603CB10605160FB7B4FF4C5
:103A3000867202FB03F3294A13441946D7F88C0017
:103A4000FFF746FE97F8AF3007F0D7B8B7F8AC30BD
:103A500009331A46D7F88430934245D1D7F88430D9
:103A6000093B1A46D7F88810002009F085FDC7F8F1
:103A70008000B7F8AC300133D7F8882013441846DB
:103A800007F078FAF867D7F88020FB6F9A4255D094
:103A9000FB7B4FF4867202FB03F3104A1344D7F802
:103AA0008020104918461EF051F8FB7B4FF48672B7
:103AB00002FB03F3094A13441946D7F88C00FFF7B9
:103AC00007FE97F8AF3007F098B800BFDCD50020AC
:103AD0001C000020944C0208DCD2002080E0002072
:103AE000984C0208A04C0208B7F8AC30D7F88420F4
:103AF0009A4223D0FB7B4FF4867202FB03F3B64A53
:103B00001344B64A1C4615460FCD20606160A26082
:103B1000E3600FCD20616161A261E361FB7B4FF443
:103B2000867202FB03F3AC4A13441946D7F88C00A3
:103B3000FFF7CEFD97F8AF3007F05FB8FB7BA84AE0
:103B40001B02134403331B78522B42F0FA82FB7B97
:103B5000A34A1B02134404331B78402B40F0C78058
:103B6000FB7B9F4A1B02134406331B789BB21B024C
:103B70009AB2FB7B9A491B020B4407331B789BB21A
:103B80001344A7F84A30FB7B954A1B0213440533C4
:103B90001B78012BC0F28E800B2B02DD402B40F0F6
:103BA0008980B7F84A30B3F5005F30D3B7F84A30B0
:103BB000B3F5405F2BD2FB7B4FF4867202FB03F31D
:103BC000854A9818FB7B864A1B02134405331B78F1
:103BD0001A4684491DF0BAFFFB7B4FF4867202FB44
:103BE00003F37D4A13441946D7F88C00FFF770FDA4
:103BF000FB7B7B4A1B02134405331978B7F84A0054
:103C000000230093002352220FF0C6FE50E0B7F8C5
:103C10004A30B3F5805F30D3B7F84A30B3F5005F70
:103C20002BD2FB7B4FF4867202FB03F36A4A98188F
:103C3000FB7B6B4A1B02134405331B781A466A4907
:103C40001DF084FFFB7B4FF4867202FB03F3624A94
:103C500013441946D7F88C00FFF73AFDFB7B604A06
:103C60001B02134405331978B7F84A000023009368
:103C7000002352221DF0CCF91AE0FB7B4FF4867230
:103C800002FB03F3544A1344B7F84A205749184635
:103C90001DF05CFFFB7B4FF4867202FB03F34E4A80
:103CA00013441946D7F88C00FFF712FD06F0A3BFA6
:103CB00006F0A1BFFB7B4FF4867202FB03F3464A7A
:103CC00013444B4A1C4615460FCD20606160A2602C
:103CD000E360FB7B4FF4867202FB03F33E4A13441E
:103CE0001946D7F88C00FFF7F3FC06F084BFFB7B86
:103CF0003B4A1B02134404331B78182B40F03881D5
:103D0000002387F8AB300A23A7F8AC30B7F8AC3003
:103D100009331A46D7F88430934236D1D7F8843025
:103D2000093B1A46D7F88810002009F025FCC7F88F
:103D30008000B7F8AC300133D7F888201344184618
:103D400007F018F9F867D7F88020FB6F9A4255D032
:103D5000FB7B4FF4867202FB03F31F4A1344D7F830
:103D60008020244918461DF0F1FEFB7B4FF486723B
:103D700002FB03F3184A13441946D7F88C00FFF7E7
:103D8000A7FC97F8AF3006F038BFB7F8AC30D7F8DB
:103D900084209A4232D0FB7B4FF4867202FB03F3FD
:103DA0000D4A1344144A1C46134607CB2060616039
:103DB000A2601B782373FB7B4FF4867202FB03F334
:103DC000054A13441946D7F88C00FFF781FC97F891
:103DD000AF3006F012BF00BF80E00020B84C0208F0
:103DE000DCD20020D84C0208F84C0208184D02081A
:103DF0002C4D0208A04C02083C4D0208FB7BB24A45
:103E00001B02134406331B78302B00F29480FB7B9B
:103E1000AD4A1B02134406331B78002B00F08B8045
:103E200007F0B8FB97F8AB30002B1BD097F8AA30FF
:103E3000012B0DD097F8AA30032B09D097F8AA30A0
:103E4000022B08D1A14B93F83D30DBB2202B02D1DD
:103E50009E4807F029FC052008F0ACFE97F8AB302F
:103E6000092B1FD8FB7B984A1B02134406331B788F
:103E70009AB20A2302930223019307F114030093D9
:103E800001233021914812F089FB034687F8AA30BC
:103E900097F8AB30013387F8AB3097F8AA30002B96
:103EA000C0D100E000BF894811F000FF97F8AA30A8
:103EB000002B23D13B7D9BB21B029AB27B7D9BB230
:103EC0001344A7F84C30FB7B4FF4867202FB03F3DC
:103ED0007F4A1344B7F84C207E4918461DF036FE41
:103EE000FB7B4FF4867202FB03F3794A13441946B5
:103EF000D7F88C00FFF7ECFB06F07DBEFB7B4FF4A0
:103F0000867202FB03F3724A1344734A1C46154639
:103F10000FCD20606160A260E360FB7B4FF486728E
:103F200002FB03F36A4A13441946D7F88C00FFF7E3
:103F3000CFFB06F060BEFB7B4FF4867202FB03F3FF
:103F4000634A1344654A1C4615460FCD20606160E4
:103F5000A260E360FB7B4FF4867202FB03F35C4AD2
:103F600013441946D7F88C00FFF7B2FB06F043BEA6
:103F7000FB7B554A1B02134404331B78332B40F060
:103F80001881002387F8A8300823A7F8AC30B7F8C9
:103F9000AC3009331A46D7F88430934236D1D7F87B
:103FA0008430093B1A46D7F88810002009F0E4FA5B
:103FB000C7F88000B7F8AC300133D7F88820134435
:103FC000184606F0D7FFF867D7F88020FB6F9A42B3
:103FD00042D0FB7B4FF4867202FB03F33C4A13444E
:103FE000D7F880203E4918461DF0B0FDFB7B4FF40A
:103FF000867202FB03F3364A13441946D7F88C0045
:10400000FFF766FB97F8AF3006F0F7BDB7F8AC30B6
:10401000D7F884209A421FD0FB7B4FF4867202FBB4
:1040200003F32B4A13442F4A1C46134607CB206048
:104030006160A2601B782373FB7B4FF4867202FBE6
:1040400003F3234A13441946D7F88C00FFF740FBCB
:1040500097F8AF3006F0D1BD07F09CFA97F8A8307A
:10406000002B1BD097F8A930012B0DD097F8A93061
:10407000032B09D097F8A930022B08D1134B93F8E2
:104080003D30DBB2202B02D1104807F00DFB05209C
:1040900008F090FD97F8A830092B25D807F11002F9
:1040A0000A23009304236621084811F03DFF0346CC
:1040B00087F8A93097F8A830013387F8A83097F827
:1040C000A930002BCAD110E0DCD20020F8B00120CA
:1040D00080E000204C4D0208544D0208644D020857
:1040E000A04C02083C4D020800BFE24811F0DEFD82
:1040F00097F8A930002B32D13A7CDF4B1A707A7CCA
:10410000DD4B5A70BA7CDC4B9A70FA7CDA4BDA7071
:10411000FB7B4FF4867202FB03F3D84A9818D64B08
:104120001B781946D44B5B781C46D34B9B781A46B8
:10413000D14BDB780193009223460A46D0491DF00B
:1041400005FDFB7B4FF4867202FB03F3CB4A13445D
:104150001946D7F88C00FFF7BBFA06F04CBDFB7B85
:104160004FF4867202FB03F3C44A1344C54A144653
:104170009C4604F1200E654626460FCE28606960F5
:10418000AA60EB6010340CF1100C7445F3D1624658
:1041900023461B881380FB7B4FF4867202FB03F3DC
:1041A000B64A13441946D7F88C00FFF791FA06F087
:1041B00022BDFB7BB44A1B02134404331B78112B32
:1041C00041F0A287FB7BB04A1B02134405331B78E6
:1041D0007F2B01F27B8701A252F823F0DD43000818
:1041E000D3440008CD450008A1460008CD4700088B
:1041F000AB4800089D490008A54A0008974B0008F5
:10420000574C0008174D0008174E0008D74E0008FD
:10421000974F00086F5000085951000819520008C4
:10422000CD600008CD600008CD600008F1520008A4
:10423000495400087155000899560008ED570008C8
:10424000155900083D5A0008DD5A0008495B00086E
:10425000B55B0008215C00088D5C0008F95C000873
:10426000CD600008CD600008CD600008CD6000087A
:10427000CD600008CD600008CD600008CD6000086A
:10428000CD600008CD600008CD600008CD6000085A
:10429000CD600008CD600008CD600008CD6000084A
:1042A000E55D0008CD600008AB5E0008CD60000849
:1042B000655F0008CD600008CD600008CD60000893
:1042C000CD600008CD600008CD600008CD6000081A
:1042D000CD600008CD600008CD600008CD6000080A
:1042E000CD600008CD600008CD600008CD600008FA
:1042F000CD600008CD600008CD600008CD600008EA
:10430000CD600008CD600008CD600008CD600008D9
:10431000CD600008CD600008CD600008CD600008C9
:10432000CD600008CD600008CD600008CD600008B9
:10433000CD600008CD600008CD600008CD600008A9
:10434000CD600008CD600008CD600008CD60000899
:10435000CD600008CD600008CD600008CD60000889
:10436000B35F0008CD600008CD600008CD60000894
:10437000CD600008CD600008CD600008CD60000869
:10438000CD600008CD600008CD600008CD60000859
:10439000CD600008CD600008CD600008CD60000849
:1043A000CD600008CD600008CD600008CD60000839
:1043B000CD600008CD600008CD600008CD60000829
:1043C000CD600008CD600008CD600008CD60000819
:1043D000CD600008CD6000084960000807F12003A7
:1043E0001946302007F073FF0346012B52D1FB7BA7
:1043F0004FF4867202FB03F3204A9818B7F9203075
:104400001A46B7F922301946B7F9243000930B4603
:104410001E491DF09BFBFB7B4FF4867202FB03F3EE
:10442000164A13441946D7F88C00FFF751F9FB7B65
:104430004FF4867202FB03F3104A9818B7F9203044
:104440001A46B7F922301946B7F9243000930B46C3
:104450000F491DF07BFBFB7B4FF4867202FB03F3DD
:10446000064A13441946D7F88C00FFF731F906F0D5
:10447000C2BB00BFF8B0012084B5012080E000205D
:10448000744D0208884D0208DCD20020AC4D0208B1
:10449000BC4D0208C14807F007F9FB7B4FF4867258
:1044A00002FB03F3BE4A1344BE4A18461146542386
:1044B0001A461CF024FEFB7B4FF4867202FB03F3CA
:1044C000B74A13441946D7F88C00FFF701F906F0F4
:1044D00092BBFB7BB44A1B02134406331978FB7B67
:1044E0001B020733B04A13441A46302007F0C6FDBA
:1044F0000346012B49D1FB7B4FF4867202FB03F389
:10450000A74A9818FB7BA84A1B02134406331B7862
:104510001946FB7BA44A1B02134407331B780A4647
:10452000A2491DF013FBFB7B4FF4867202FB03F3E1
:104530009B4A13441946D7F88C00FFF7C9F8FB7B58
:104540004FF4867202FB03F3954A9818FB7B964A58
:104550001B02134406331B781946FB7B924A1B024D
:10456000134407331B780A4691491DF0EFFAFB7B91
:104570004FF4867202FB03F3894A13441946D7F8B5
:104580008C00FFF7A5F806F036BBFB7B4FF4867274
:1045900002FB03F3824A1344864A1D4614460FCC9D
:1045A00028606960AA60EB6007CC28616961AA6134
:1045B000FB7B4FF4867202FB03F3794A13441946DE
:1045C000D7F88C00FFF784F806F015BB07F120033D
:1045D0001946322007F07BFE0346012B41D1FB7BBD
:1045E0004FF4867202FB03F36D4A9818B7F9203036
:1045F0001A46B7F922301946B7F9243000930B4612
:104600006D491DF0A3FAFB7B4FF4867202FB03F3A6
:10461000634A13441946D7F88C00FFF759F8FB7B1F
:104620004FF4867202FB03F35D4A9818B7F9203005
:104630001A46B7F922301946B7F9243000930B46D1
:104640005E491DF083FAFB7B4FF4867202FB03F395
:10465000534A13441946D7F88C00FFF739F806F08F
:10466000CABA4E4807F020F8FB7B4FF4867202FB73
:1046700003F34B4A1344524A184611464E231A4636
:104680001CF03DFDFB7B4FF4867202FB03F3444AB2
:1046900013441946D7F88C00FFF71AF806F0ABBAA6
:1046A000FB7B414A1B02134406331978FB7B1B0238
:1046B00007333D4A13441A46322007F0DFFC034615
:1046C000012B49D1FB7B4FF4867202FB03F3344A82
:1046D0009818FB7B344A1B02134406331B78194697
:1046E000FB7B314A1B02134407331B780A463549CA
:1046F0001DF02CFAFB7B4FF4867202FB03F3284A71
:1047000013441946D7F88C00FEF7E2FFFB7B4FF409
:10471000867202FB03F3224A9818FB7B224A1B0293
:10472000134406331B781946FB7B1F4A1B021344B4
:1047300007331B780A4624491DF008FAFB7B4FF427
:10474000867202FB03F3164A13441946D7F88C000D
:10475000FEF7BEFF06F04FBAFB7B4FF4867202FBFA
:1047600003F30F4A1344134A1D4614460FCC286026
:104770006960AA60EB6007CC28616961AA61FB7B74
:104780004FF4867202FB03F3054A13441946D7F827
:104790008C00FEF79DFF06F02EBA00BF6CB1012021
:1047A00080E00020DC4D0208DCD20020304E020800
:1047B000404E02086C4E0208884E0208984E0208CD
:1047C000B84E0208084F0208184F020807F12803E4
:1047D0003821184608F0C6FB0346002B1FD0A74817
:1047E00006F062FFFB7B4FF4867202FB03F3A44AE0
:1047F0001344A44A1C4615460FCD20606160A26098
:10480000E360FB7B4FF4867202FB03F39C4A134484
:104810001946D7F88C00FEF75BFF06F0ECB9FB7B7E
:104820004FF4867202FB03F3954A9818D7E90A56AB
:10483000D7E90C34D7E90E12CDE90212CDE90034E4
:104840002A46334690491DF081F9FB7B4FF486726E
:1048500002FB03F38A4A13441946D7F88C00FEF78B
:1048600037FFFB7B4FF4867202FB03F3844A9818F0
:10487000D7E90A56D7E90C34D7E90E12CDE902126E
:10488000CDE900342A46334680491DF05FF9FB7BB1
:104890004FF4867202FB03F3794A13441946D7F8A2
:1048A0008C00FEF715FF06F0A6B9FB7B784A1B02C9
:1048B000134406331978FB7B1B020733744A1344F5
:1048C0001A4638200DF04CF80346012B49D1FB7BEA
:1048D0004FF4867202FB03F3694A9818FB7B6C4A1B
:1048E0001B02134406331B781946FB7B684A1B02E4
:1048F000134407331B780A4666491DF027F9FB7BF2
:104900004FF4867202FB03F35D4A13441946D7F84D
:104910008C00FEF7DDFEFB7B4FF4867202FB03F397
:10492000574A9818FB7B5A4A1B02134406331B78DC
:104930001946FB7B564A1B02134407331B780A4671
:1049400055491DF003F9FB7B4FF4867202FB03F31C
:104950004B4A13441946D7F88C00FEF7B9FE06F00F
:104960004AB9FB7B4FF4867202FB03F3444A1344BB
:10497000444A1C4615460FCD20606160A260E3608A
:10498000FB7B4FF4867202FB03F33D4A1344194646
:10499000D7F88C00FEF79CFE06F02DB93C2008F0FD
:1049A000A6FA07F128033C21184608F0DBFA034673
:1049B000002B1CD0FB7B4FF4867202FB03F3304AC2
:1049C0001344304A1C4615460FCD20606160A2603A
:1049D000E360FB7B4FF4867202FB03F3284A134427
:1049E0001946D7F88C00FEF773FE06F004B9FB7B7E
:1049F0004FF4867202FB03F3214A9818D7E90A564E
:104A0000D7E90C34D7E90E12CDE90212CDE9003412
:104A10002A46334621491DF099F8FB7B4FF48672F4
:104A200002FB03F3164A13441946D7F88C00FEF72D
:104A30004FFEFB7B4FF4867202FB03F3104A98187B
:104A4000D7E90A56D7E90C34D7E90E12CDE902129C
:104A5000CDE900342A46334611491DF077F8FB7B37
:104A60004FF4867202FB03F3054A13441946D7F844
:104A70008C00FEF72DFE06F0BEB800BF6CB1012021
:104A800080E00020544D0208444F02085C4F0208A9
:104A9000DCD20020304E0208A84F0208D04F020896
:104AA000E84F0208FB7BC34A1B0213440633197804
:104AB000FB7B1B020733BF4A13441A463C200CF011
:104AC0004FFF0346012B49D1FB7B4FF4867202FB5B
:104AD00003F3B94A9818FB7BB64A1B02134406330A
:104AE0001B781946FB7BB34A1B02134407331B7820
:104AF0000A46B2491DF02AF8FB7B4FF4867202FB8E
:104B000003F3AD4A13441946D7F88C00FEF7E0FDD5
:104B1000FB7B4FF4867202FB03F3A74A9818FB7BDA
:104B2000A44A1B02134406331B781946FB7BA14A97
:104B30001B02134407331B780A46A1491DF006F8EF
:104B4000FB7B4FF4867202FB03F39B4A1344194626
:104B5000D7F88C00FEF7BCFD06F04DB8FB7B4FF498
:104B6000867202FB03F3944A1344964A1C46154688
:104B70000FCD20606160A260E360FB7B4FF4867222
:104B800002FB03F38C4A13441946D7F88C00FEF756
:104B90009FFD06F030B807F12003194600200DF004
:104BA0008BFB0346012B39D1B7F9203047F6FF7252
:104BB000934233D0FB7B4FF4867202FB03F37E4AB1
:104BC0001344B7F92020804918461CF0BFFFFB7B37
:104BD0004FF4867202FB03F3774A13441946D7F861
:104BE0008C00FEF775FDFB7B4FF4867202FB03F32E
:104BF000714A1344B7F92020744918461CF0A6FFE7
:104C0000FB7B4FF4867202FB03F36B4A1344194695
:104C1000D7F88C00FEF75CFD05F0EDBFFB7B4FF491
:104C2000867202FB03F3644A1344664A1C46154627
:104C30000FCD20606160A260E360FB7B4FF4867261
:104C400002FB03F35C4A13441946D7F88C00FEF7C5
:104C50003FFD05F0D0BF07F12003194600200DF0FD
:104C6000FDFB0346012B39D1B7F9203047F6FF721F
:104C7000934233D0FB7B4FF4867202FB03F34E4A20
:104C80001344B7F92020504918461CF05FFFFB7B06
:104C90004FF4867202FB03F3474A13441946D7F8D0
:104CA0008C00FEF715FDFB7B4FF4867202FB03F3CD
:104CB000414A1344B7F92020454918461CF046FFE5
:104CC000FB7B4FF4867202FB03F33B4A1344194605
:104CD000D7F88C00FEF7FCFC05F08DBFFB7B4FF492
:104CE000867202FB03F3344A1344364A1C461546C7
:104CF0000FCD20606160A260E360FB7B4FF48672A1
:104D000002FB03F32C4A13441946D7F88C00FEF734
:104D1000DFFC05F070BFFB7B264A1B021344063301
:104D20001B7807F14801032218460DF001FA0346EB
:104D3000012B53D1FB7B4FF4867202FB03F31E4A17
:104D40009818FB7B1B4A1B02134406331B781A4638
:104D5000B7F848301F491CF0F9FEFB7B4FF4867210
:104D600002FB03F3144A13441946D7F88C00FEF7EC
:104D7000AFFCFB7B4FF4867202FB03F30E4A9818DC
:104D8000FB7B0C4A1B02134406331B781A46B7F808
:104D9000483011491CF0DAFEFB7B4FF4867202FBAF
:104DA00003F3054A13441946D7F88C00FEF790FC2C
:104DB00005F021BFDCD2002080E00020084F02086F
:104DC00034500208544D02085C5002086450020836
:104DD0007C500208304E020894500208FB7B4FF4CE
:104DE000867202FB03F3D24A1344D24A1C4615468C
:104DF0000FCD20606160A260E360FB7B4FF48672A0
:104E000002FB03F3CA4A13441946D7F88C00FEF795
:104E10005FFC05F0F0BE07F12003194601200DF0FC
:104E20004BFA0346012B39D1B7F9223047F6FF720E
:104E3000934233D0FB7B4FF4867202FB03F3BC4AF0
:104E40001344B7F92220BC4918461CF07FFEFB7BB7
:104E50004FF4867202FB03F3B54A13441946D7F8A0
:104E60008C00FEF735FCFB7B4FF4867202FB03F3EC
:104E7000AF4A1344B7F92220B04918461CF066FE29
:104E8000FB7B4FF4867202FB03F3A94A13441946D5
:104E9000D7F88C00FEF71CFC05F0ADBEFB7B4FF491
:104EA000867202FB03F3A24A1344A24A1C4615462B
:104EB0000FCD20606160A260E360FB7B4FF48672DF
:104EC00002FB03F39A4A13441946D7F88C00FEF705
:104ED000FFFB05F090BE07F12003194601200DF0FD
:104EE000BDFA0346012B39D1B7F9223047F6FF72DC
:104EF000934233D0FB7B4FF4867202FB03F38C4A60
:104F00001344B7F922208C4918461CF01FFEFB7B86
:104F10004FF4867202FB03F3854A13441946D7F80F
:104F20008C00FEF7D5FBFB7B4FF4867202FB03F38C
:104F30007F4A1344B7F92220814918461CF006FE27
:104F4000FB7B4FF4867202FB03F3794A1344194644
:104F5000D7F88C00FEF7BCFB05F04DBEFB7B4FF491
:104F6000867202FB03F3724A1344724A1C461546CA
:104F70000FCD20606160A260E360FB7B4FF486721E
:104F800002FB03F36A4A13441946D7F88C00FEF774
:104F90009FFB05F030BEFB7B6A4A1B0213440633BD
:104FA0001B7807F14801042218460DF0C1F80346AA
:104FB000012B3FD1FB7B4FF4867202FB03F35C4A6B
:104FC0009818FB7B5F4A1B02134406331B781A4672
:104FD000B7F848305C491CF0B9FDFB7B4FF4867292
:104FE00002FB03F3524A13441946D7F88C00FEF72C
:104FF0006FFBFB7B4FF4867202FB03F34C4A98185D
:10500000FB7B504A1B02134406331B781A46B7F841
:1050100048304E491CF09AFDFB7B4FF4867202FB30
:1050200003F3434A13441946D7F88C00FEF750FBAC
:1050300005F0E1BDFB7B4FF4867202FB03F33C4AB3
:1050400013443C4A1C4615460FCD20606160A260A7
:10505000E360FB7B4FF4867202FB03F3344A134494
:105060001946D7F88C00FEF733FB05F0C4BD07F1F5
:105070002003194602200DF01FF90346012B39D1F8
:10508000B7F9243047F6FF72934233D0FB7B4FF4DD
:10509000867202FB03F3264A1344B7F924202C49F5
:1050A00018461CF053FDFB7B4FF4867202FB03F3A2
:1050B0001F4A13441946D7F88C00FEF709FBFB7B07
:1050C0004FF4867202FB03F3194A1344B7F9242004
:1050D000204918461CF03AFDFB7B4FF4867202FB18
:1050E00003F3134A13441946D7F88C00FEF7F0FA7D
:1050F00005F081BDFB7B4FF4867202FB03F30C4A83
:1051000013440C4A1C4615460FCD20606160A26016
:10511000E360FB7B4FF4867202FB03F3044A134403
:105120001946D7F88C00FEF7D3FA05F064BD00BF2E
:1051300080E00020544D0208B8500208C050020818
:10514000D8500208DCD20020084F0208F0500208B4
:10515000145102081C51020807F1200319460220CD
:105160000DF07CF90346012B39D1B7F9243047F60D
:10517000FF72934233D0FB7B4FF4867202FB03F342
:10518000A54A1344B7F92420A44918461CF0DEFCB4
:10519000FB7B4FF4867202FB03F39F4A13441946CC
:1051A000D7F88C00FEF794FAFB7B4FF4867202FB73
:1051B00003F3994A1344B7F92420994918461CF07F
:1051C000C5FCFB7B4FF4867202FB03F3924A134447
:1051D0001946D7F88C00FEF77BFA05F00CBDFB7B77
:1051E0004FF4867202FB03F38B4A13448D4A1C462C
:1051F00015460FCD20606160A260E360FB7B4FF439
:10520000867202FB03F3844A13441946D7F88C00D4
:10521000FEF75EFA05F0EFBCFB7B834A1B021344EA
:1052200006331B7807F14801052218460CF080FF71
:105230000346012B3FD1FB7B4FF4867202FB03F345
:10524000754A9818FB7B784A1B02134406331B7877
:105250001A46B7F8483075491CF078FCFB7B4FF4D0
:10526000867202FB03F36C4A13441946D7F88C008C
:10527000FEF72EFAFB7B4FF4867202FB03F3664ABD
:105280009818FB7B684A1B02134406331B781A46A6
:10529000B7F8483066491CF059FCFB7B4FF4867226
:1052A00002FB03F35C4A13441946D7F88C00FEF75F
:1052B0000FFA05F0A0BCFB7B4FF4867202FB03F3F0
:1052C000554A1344574A1C4615460FCD206061606D
:1052D000A260E360FB7B4FF4867202FB03F34E4A4D
:1052E00013441946D7F88C00FEF7F2F905F083BC99
:1052F0000CF0E8FC07F1180318460DF09DF9034681
:10530000012B63D14B4B1B78DBB203F00103002B65
:105310005CD0B7F91830002B00DA0733DB101BB272
:105320001A4613469B0013445B00002B00DA0F3330
:105330001B11A7F84E30FB7B4FF4867202FB03F380
:10534000354A1344B7F9182092B23B4918461CF06D
:10535000FDFBFB7B4FF4867202FB03F32E4A1344E2
:105360001946D7F88C00FEF7B3F9FB7B4FF4867231
:1053700002FB03F3284A9818B7F94E302F4A82FBF4
:1053800003129210DB17D31A1BB21C46B7F94E203A
:105390002A4B83FB02139910D317C91A0B469B00A3
:1053A0000B445B00D31A1BB2224625491CF0CEFBEE
:1053B000FB7B4FF4867202FB03F3174A1344194632
:1053C000D7F88C00FEF784F905F015BCFB7B4FF491
:1053D000867202FB03F3104A13441A4A1D46144610
:1053E0000FCC28606960AA60EB6007CC2861696116
:1053F000AA612388A278AB831346AB77FB7B4FF47B
:10540000867202FB03F3044A13441946D7F88C0052
:10541000FEF75EF905F0EFBB80E0002014510208B2
:1054200034510208544D0208DCD200204C510208CD
:105430005C510208389A012080510208676666664E
:105440008C510208B05102080CF03CFC07F1180323
:1054500018460DF0F1F80346012B63D1C54B1B78BC
:10546000DBB203F00203002B5CD0B7F91A30002B3B
:1054700000DA0733DB101BB21A4613469B001344B5
:105480005B00002B00DA0F331B11A7F84E30FB7BBB
:105490004FF4867202FB03F3B74A1344B7F91A209C
:1054A00092B2B64918461CF051FBFB7B4FF4867252
:1054B00002FB03F3B04A13441946D7F88C00FEF7F9
:1054C00007F9FB7B4FF4867202FB03F3AA4A981894
:1054D000B7F94E30AA4A82FB03129210DB17D31A97
:1054E0001BB21C46B7F94E20A54B83FB0213991043
:1054F000D317C91A0B469B000B445B00D31A1BB28F
:105500002246A0491CF022FBFB7B4FF4867202FB73
:1055100003F3994A13441946D7F88C00FEF7D8F8DC
:1055200005F069BBFB7B4FF4867202FB03F3924AE2
:105530001344954A1D4614460FCC28606960AA6042
:10554000EB6007CC28616961AA612388A278AB83EC
:105550001346AB77FB7B4FF4867202FB03F3864A5C
:1055600013441946D7F88C00FEF7B2F805F043BB98
:105570000CF0A8FB07F1180318460DF05DF8034680
:10558000012B63D17B4B1B78DBB203F00403002BB0
:105590005CD0B7F91C30002B00DA0733DB101BB2EC
:1055A0001A4613469B0013445B00002B00DA0F33AE
:1055B0001B11A7F84E30FB7B4FF4867202FB03F3FE
:1055C0006D4A1344B7F91C2092B2704918461CF07A
:1055D000BDFAFB7B4FF4867202FB03F3664A134469
:1055E0001946D7F88C00FEF773F8FB7B4FF48672F0
:1055F00002FB03F3604A9818B7F94E30604A82FB09
:1056000003129210DB17D31A1BB21C46B7F94E20B7
:105610005B4B83FB02139910D317C91A0B469B00EF
:105620000B445B00D31A1BB2224659491CF08EFA78
:10563000FB7B4FF4867202FB03F34F4A1344194677
:10564000D7F88C00FEF744F805F0D5BAFB7B4FF491
:10565000867202FB03F3484A13444E4A1D46144621
:105660000FCC28606960AA60EB6007CC2861696193
:10567000AA612388A278AB831346AB77FB7B4FF4F8
:10568000867202FB03F33C4A13441946D7F88C0098
:10569000FEF71EF805F0AFBA0CF014FB07F1180383
:1056A00018460DF02FF80346012B79D1314B1B78AA
:1056B000DBB203F00803002B72D0B7F91830002BCF
:1056C00000DA0733DB101BB21A4613469B00134463
:1056D0005B00002B00DA0F331B11A7F84E30FB7B69
:1056E0004FF4867202FB03F3234A1344B7F91820E0
:1056F00092B2294918461CF029FAFB7B4FF48672B6
:1057000002FB03F31C4A13441946D7F88C00FDF73B
:10571000DFFFFB7B4FF4867202FB03F3164A9818F7
:10572000B7F94E30164A82FB03129210DB17D31AD8
:105730001BB21C46B7F94E20114B83FB0213991084
:10574000D317C91A0B469B000B445B00D31A1BB23C
:10575000224612491CF0FAF9FB7B4FF4867202FBD9
:1057600003F3054A13441946D7F88C00FDF7B0FF40
:1057700005F041BA389A012080E00020D05102089B
:1057800067666666DC510208005202082052020871
:105790002C52020850520208705202087C52020831
:1057A000FB7B4FF4867202FB03F3BF4A1344BF4AEC
:1057B0001D4614460FCC28606960AA60EB6007CCD8
:1057C00028616961AA612388A278AB831346AB770D
:1057D000FB7B4FF4867202FB03F3B34A1344194672
:1057E000D7F88C00FDF774FF05F005BA0CF06AFAE3
:1057F00007F1180318460CF085FF0346012B63D10F
:10580000AB4B1B78DBB203F01003002B5CD0B7F975
:105810001A30002B00DA0733DB101BB21A4613468E
:105820009B0013445B00002B00DA0F331B11A7F819
:105830004E30FB7B4FF4867202FB03F39A4A13440B
:10584000B7F91A2092B29B4918461CF07FF9FB7BEE
:105850004FF4867202FB03F3934A13441946D7F8B8
:105860008C00FDF735FFFB7B4FF4867202FB03F3E0
:105870008D4A9818B7F94E308F4A82FB0312921066
:10588000DB17D31A1BB21C46B7F94E208A4B83FB99
:1058900002139910D317C91A0B469B000B445B00E7
:1058A000D31A1BB2224685491CF050F9FB7B4FF4FA
:1058B000867202FB03F37C4A13441946D7F88C0026
:1058C000FDF706FF05F097B9FB7B4FF4867202FBEC
:1058D00003F3754A13447A4A1D4614460FCC2860D8
:1058E0006960AA60EB6007CC28616961AA612388BE
:1058F000A278AB831346AB77FB7B4FF4867202FB37
:1059000003F3694A13441946D7F88C00FDF7E0FE0B
:1059100005F071B90CF0D6F907F1180318460CF030
:10592000F1FE0346012B63D1614B1B78DBB203F020
:105930002003002B5CD0B7F91C30002B00DA0733B2
:10594000DB101BB21A4613469B0013445B00002B6E
:1059500000DA0F331B11A7F84E30FB7B4FF4867231
:1059600002FB03F3504A1344B7F91C2092B2554985
:1059700018461CF0EBF8FB7B4FF4867202FB03F336
:10598000494A13441946D7F88C00FDF7A1FEFB7B6A
:105990004FF4867202FB03F3434A9818B7F94E306E
:1059A000454A82FB03129210DB17D31A1BB21C4626
:1059B000B7F94E20404B83FB02139910D317C91A35
:1059C0000B469B000B445B00D31A1BB222463E4998
:1059D0001CF0BCF8FB7B4FF4867202FB03F3324AE7
:1059E00013441946D7F88C00FDF772FE05F003B991
:1059F000FB7B4FF4867202FB03F32B4A1344334ABA
:105A00001D4614460FCC28606960AA60EB6007CC85
:105A100028616961AA612388A278AB831346AB77BA
:105A2000FB7B4FF4867202FB03F31F4A13441946B3
:105A3000D7F88C00FDF74CFE05F0DDB80CF0DAFA73
:105A4000FB7B4FF4867202FB03F3174A9818204B36
:105A50001B881A461F491CF079F8FB7B4FF48672AD
:105A600002FB03F3104A13441946D7F88C00FDF7E4
:105A70002FFEFB7B4FF4867202FB03F30A4A981851
:105A8000134B1B881A4614491CF060F8FB7B4FF43B
:105A9000867202FB03F3044A13441946D7F88C00BC
:105AA000FDF716FE05F0A7B880E00020A05202081E
:105AB000389A0120C052020867666666CC52020816
:105AC000F0520208105302081C5302084053020807
:105AD0003C9A0120605302086C5302080CF08AFAC9
