:020000040800F2
:1000000000000320ADC40008FF1E02080D1F0208F7
:10001000751F0208951F0208B51F020800000000A6
:10002000000000000000000000000000E12E0108B8
:10003000D51F020800000000F1300108E31F02088C
:10004000F11F0208FDC40008FDC40008FDC400083B
:10005000FDC40008FDC40008FDC40008FDC400087C
:10006000FDC40008FDC40008FDC40008FDC400086C
:10007000FDC40008FDC40008F1220208FDC4000808
:10008000FDC40008FDC40008FDC40008FDC400084C
:10009000FDC40008FDC40008FDC40008FDC400083C
:1000A000FDC4000805230208FDC40008FDC40008C3
:1000B000FDC40008FDC40008FDC400084123020877
:1000C00055230208692302087D230208FDC40008A5
:1000D000FDC400084D200208FDC40008FDC400084E
:1000E00005200208FDC40008FDC40008FDC4000886
:1000F000FDC40008FDC40008FDC40008FDC40008DC
:10010000FDC4000839200208FDC40008FDC4000831
:10011000D5200208FDC40008FDC40008FDC4000885
:10012000FDC40008FDC40008FDC40008192302082E
:10013000FDC40008FDC40008FDC40008FDC400089B
:10014000FDC40008FDC40008FDC40008FDC400088B
:10015000FDC400082D230208FDC400086121020827
:1001600091230208A5230208FDC40008FDC400086D
:10017000FDC40008FDC40008FDC400080000000024
:10018000FDC40008FDC40008ED210208FDC40008FC
:10019000FDC40008FDC40008FDC40008FDC400083B
:0C01A0000000000000000000FDC400088A
:1001B00010B5054C237833B9044B13B10448AFF3A1
:1001C00000800123237010BDF8070020000000000C
:1001D00074C4020808B5034B1BB103490348AFF3CD
:1001E000008008BD00000000FC07002074C4020865
:1001F00081F0004102E000BF83F0004330B54FEAD8
:1002000041044FEA430594EA050F08BF90EA020F44
:100210001FBF54EA000C55EA020C7FEA645C7FEAD7
:10022000655C00F0E2804FEA5454D4EB5555B8BFFA
:100230006D420CDD2C4480EA020281EA030382EA6B
:10024000000083EA010180EA020281EA0303362DFD
:1002500088BF30BD11F0004F4FEA01314FF4801CD0
:100260004CEA113102D0404261EB410113F0004FE2
:100270004FEA03334CEA133302D0524263EB430399
:1002800094EA050F00F0A780A4F10104D5F1200E37
:100290000DDB02FA0EFC22FA05F2801841F1000192
:1002A00003FA0EF2801843FA05F359410EE0A5F166
:1002B00020050EF1200E012A03FA0EFC28BF4CF097
:1002C000020C43FA05F3C01851EBE37101F000454D
:1002D00007D54FF0000EDCF1000C7EEB00006EEB5A
:1002E0000101B1F5801F1BD3B1F5001F0CD34908E4
:1002F0005FEA30004FEA3C0C04F101044FEA44523B
:1003000012F5800F80F09A80BCF1004F08BF5FEAC1
:10031000500C50F1000041EB045141EA050130BDA1
:100320005FEA4C0C404141EB010111F4801FA4F144
:100330000104E9D191F0000F04BF01460020B1FA99
:1003400081F308BF2033A3F10B03B3F120020CDAD1
:100350000C3208DD02F1140CC2F10C0201FA0CF0AF
:1003600021FA02F10CE002F11402D8BFC2F1200C14
:1003700001FA02F120FA0CFCDCBF41EA0C019040CA
:10038000E41AA2BF01EB0451294330BD6FEA040413
:100390001F3C1CDA0C340EDC04F11404C4F12002FE
:1003A00020FA04F001FA02F340EA030021FA04F310
:1003B00045EA030130BDC4F10C04C4F1200220FA67
:1003C00002F001FA04F340EA0300294630BD21FAA5
:1003D00004F0294630BD94F0000F83F4801306BF6B
:1003E00081F480110134013D4EE77FEA645C18BF5F
:1003F0007FEA655C29D094EA050F08BF90EA020FF6
:1004000005D054EA000C04BF1946104630BD91EAED
:10041000030F1EBF0021002030BD5FEA545C05D1F0
:100420004000494128BF41F0004130BD14F580042F
:100430003CBF01F5801130BD01F0004545F0FE41A3
:1004400041F470014FF0000030BD7FEA645C1ABFD8
:10045000194610467FEA655C1CBF0B46024650EA0F
:10046000013406BF52EA033591EA030F41F400213B
:1004700030BD00BF90F0000F04BF0021704730B5C1
:100480004FF4806404F132044FF000054FF0000196
:1004900050E700BF90F0000F04BF0021704730B557
:1004A0004FF4806404F1320410F0004548BF40422C
:1004B0004FF000013EE700BF42004FEAE2014FEA81
:1004C00031014FEA02701FBF12F07F4393F07F4F5C
:1004D00081F06051704732F07F4208BF704793F05F
:1004E0007F4F04BF41F40021704730B54FF4607472
:1004F00001F0004521F000411CE700BF50EA010275
:1005000008BF704730B54FF000050AE050EA01021D
:1005100008BF704730B511F0004502D5404261EB8D
:1005200041014FF4806404F132045FEA915C3FF4CE
:10053000D8AE4FF003025FEADC0C18BF03325FEA6B
:10054000DC0C18BF033202EBDC02C2F1200300FA1C
:1005500003FC20FA02F001FA03FE40EA0E0021FA41
:1005600002F11444BDE600BF70B54FF0FF0C4CF42F
:10057000E06C1CEA11541DBF1CEA135594EA0C0FE1
:1005800095EA0C0F00F0DEF82C4481EA030621EA1C
:100590004C5123EA4C5350EA013518BF52EA033557
:1005A00041F4801143F4801338D0A0FB02CE4FF009
:1005B0000005E1FB02E506F00042E0FB03E54FF039
:1005C0000006E1FB03569CF0000F18BF4EF0010E31
:1005D000A4F1FF04B6F5007F64F5407404D25FEA2D
:1005E0004E0E6D4146EB060642EAC62141EA5551E0
:1005F0004FEAC52040EA5E504FEACE2EB4F1FD0C22
:1006000088BFBCF5E06F1ED8BEF1004F08BF5FEA9F
:10061000500E50F1000041EB045170BD06F0004651
:1006200046EA010140EA020081EA0301B4EB5C04FE
:10063000C2BFD4EB0C0541EA045170BD41F48011F6
:100640004FF0000E013C00F3AB8014F1360FDEBF1B
:10065000002001F0004170BDC4F10004203C35DAF7
:100660000C341BDC04F11404C4F1200500FA05F37A
:1006700020FA04F001FA05F240EA020001F000421B
:1006800021F0004110EBD37021FA04F642EB060191
:100690005EEA430E08BF20EAD37070BDC4F10C04BB
:1006A000C4F1200500FA04F320FA05F001FA04F27F
:1006B00040EA020001F0004110EBD37041F100016B
:1006C0005EEA430E08BF20EAD37070BDC4F1200576
:1006D00000FA05F24EEA020E20FA04F301FA05F2DE
:1006E00043EA020321FA04F001F0004121FA04F286
:1006F00020EA020000EBD3705EEA430E08BF20EA56
:10070000D37070BD94F0000F0FD101F0004640008F
:1007100041EB010111F4801F08BF013CF7D041EA11
:10072000060195F0000F18BF704703F00046520015
:1007300043EB030313F4801F08BF013DF7D043EAE6
:100740000603704794EA0C0F0CEA135518BF95EA9C
:100750000C0F0CD050EA410618BF52EA4306D1D123
:1007600081EA030101F000414FF0000070BD50EA42
:10077000410606BF1046194652EA430619D094EACC
:100780000C0F02D150EA013613D195EA0C0F05D1B6
:1007900052EA03361CBF104619460AD181EA03010A
:1007A00001F0004141F0FE4141F470014FF00000C2
:1007B00070BD41F0FE4141F4780170BD70B54FF05D
:1007C000FF0C4CF4E06C1CEA11541DBF1CEA1355DD
:1007D00094EA0C0F95EA0C0F00F0A7F8A4EB0504BF
:1007E00081EA030E52EA03354FEA013100F08880B6
:1007F0004FEA03334FF0805545EA131343EA12637F
:100800004FEA022245EA111545EA10654FEA002633
:100810000EF000419D4208BF964244F1FD0404F5EC
:10082000407402D25B084FEA3202B61A65EB030548
:100830005B084FEA32024FF480104FF4002CB6EB05
:10084000020E75EB030E22BFB61A754640EA0C0085
:100850005B084FEA3202B6EB020E75EB030E22BFC5
:10086000B61A754640EA5C005B084FEA3202B6EB06
:10087000020E75EB030E22BFB61A754640EA9C00C5
:100880005B084FEA3202B6EB020E75EB030E22BF95
:10089000B61A754640EADC0055EA060E18D04FEA53
:1008A000051545EA16754FEA06164FEAC30343EAF3
:1008B00052734FEAC2025FEA1C1CC0D111F4801FC0
:1008C0000BD141EA00014FF000004FF0004CB6E7B9
:1008D00011F4801F04BF01430020B4F1FD0C88BF58
:1008E000BCF5E06F3FF6AFAEB5EB030C04BFB6EB63
:1008F000020C5FEA500C50F1000041EB045170BD56
:100900000EF0004E4EEA113114EB5C04C2BFD4EB82
:100910000C0541EA045170BD41F480114FF0000E06
:10092000013C90E645EA060E8DE60CEA135594EA82
:100930000C0F08BF95EA0C0F3FF43BAF94EA0C0F85
:100940000AD150EA01347FF434AF95EA0C0F7FF4FA
:1009500025AF104619462CE795EA0C0F06D152EA4E
:1009600003353FF4FDAE1046194622E750EA410632
:1009700018BF52EA43067FF4C5AE50EA41047FF443
:100980000DAF52EA43057FF4EBAE12E74FF0FF3CA8
:1009900006E000BF4FF0010C02E000BF4FF0010C79
:1009A0004DF804CD4FEA410C7FEA6C5C4FEA430CF2
:1009B00018BF7FEA6C5C1BD001B050EA410C0CBF41
:1009C00052EA430C91EA030F02BF90EA020F0020A3
:1009D000704710F1000F91EA030F58BF994208BF0A
:1009E00090422CBFD8176FEAE37040F001007047C7
:1009F0004FEA410C7FEA6C5C02D150EA013C07D11E
:100A00004FEA430C7FEA6C5CD6D152EA033CD3D068
:100A10005DF8040B704700BF8446104662468C4662
:100A20001946634600E000BF01B5FFF7B7FF002895
:100A300048BF10F1000F01BD4DF808EDFFF7F4FFBE
:100A40000CBF012000205DF808FB00BF4DF808ED49
:100A5000FFF7EAFF34BF012000205DF808FB00BF6C
:100A60004DF808EDFFF7E0FF94BF012000205DF88E
:100A700008FB00BF4DF808EDFFF7CEFF94BF012043
:100A800000205DF808FB00BF4DF808EDFFF7C4FF3C
:100A900034BF012000205DF808FB00BF4FEA410C85
:100AA0007FEA6C5C02D150EA013C0AD14FEA430C68
:100AB0007FEA6C5C02D152EA033C02D14FF00000A5
:100AC00070474FF0010070474FEA410212F50012E3
:100AD00015D211D56FF47873B3EB625212D94FEA85
:100AE000C12343F0004343EA505311F0004F23FA6F
:100AF00002F018BF404270474FF00000704750EAC4
:100B0000013005D111F0004008BF6FF00040704780
:100B10004FF00000704700BF034613F8012B002A76
:100B2000FBD1181A013870470000000000000000D7
:100B300001F0FF01102A2BDB10F0070F08D010F88E
:100B4000013B013A8B422DD010F0070F42B3F6D192
:100B5000F0B441EA012141EA014122F007047FF0AB
:100B600000070023F0E80256083C85EA010586EA02
:100B7000010685FA47F5A3FA87F586FA47F6A5FA3E
:100B800087F68EB9EED1F0BC01F0FF0102F007024A
:100B900032B110F8013B013A83EA010313B1F8D1F5
:100BA0000020704701387047002D06BF35460338D6
:100BB000073815F0010F07D1013015F4807F02BF0F
:100BC000013015F4C03F0130F0BC0138704700BF60
:100BD00010F8012B11F8013B012A28BF9A42F7D0E7
:100BE000D01A70477BB972B90029BEBF00204FF000
:100BF000004106E008BF00281CBF6FF000414FF025
:100C0000FF3000F0A5B9ADF1080C6DE904CE002964
:100C100009DB002B1ADB00F035F8DDF804E0DDE934
:100C2000022304B07047404261EB4101002B1BDB03
:100C300000F028F8DDF804E0DDE9022304B04042CA
:100C400061EB4101524263EB43037047524263EB55
:100C5000430300F017F8DDF804E0DDE9022304B0F7
:100C6000404261EB41017047524263EB430300F0A5
:100C700009F8DDF804E0DDE9022304B0524263EB39
:100C8000430370472DE9F047089E04468846002B31
:100C90004BD18A42154667D9B2FA82F24AB1C2F103
:100CA000200701FA02F320FA07F7954047EA030804
:100CB00094404FEA154E230CB8FBFEF71FFA85FC53
:100CC0000EFB178843EA084307FB0CF1994209D948
:100CD000EB1807F1FF3080F01B81994240F2188138
:100CE000023F2B445B1AA4B2B3FBFEF00EFB1033A1
:100CF00044EA034400FB0CFCA44509D92C1900F17B
:100D0000FF3380F00781A44540F2048102382C446F
:100D100040EA0740A4EB0C0400271EB1D440002396
:100D2000C6E900433946BDE8F0878B4209D9002E59
:100D300000F0EB800027C6E9000138463946BDE8DF
:100D4000F087B3FA83F7002F47D18B4202D3824258
:100D500000F2FA80841A61EB030301209846002E0A
:100D6000E0D0C6E90048DDE702B9FFDEB2FA82F260
:100D7000002A40F08F80491B4FEA154E1FFA85F874
:100D80000127B1FBFEFC230C0EFB1C1143EA0143BF
:100D900008FB0CF1994207D9EB180CF1FF3002D295
:100DA000994200F2CD808446591AA3B2B1FBFEF0FD
:100DB0000EFB101443EA044408FB00F8A04507D9D1
:100DC0002C1900F1FF3302D2A04500F2B68018467C
:100DD000A4EB080440EA0C409FE7C7F1200CBB409D
:100DE00022FA0CFE4EEA030E01FA07F420FA0CF583
:100DF00021FA0CF34FEA1E482543B3FBF8F92C0CFB
:100E000008FB19331FFA8EFA44EA034309FB0AF47C
:100E10009C4202FA07F200FA07F10BD91EEB03031A
:100E200009F1FF3080F087809C4240F28480A9F174
:100E3000020973441B1BADB2B3FBF8F008FB10337F
:100E400045EA034400FB0AFAA24508D91EEB040454
:100E500000F1FF336BD2A24569D90238744440EAED
:100E60000940A0FB0289A4EB0A044C45C2464B464C
:100E700054D351D0002E69D0B1EB0A0564EB0304C2
:100E800004FA0CFCFD40FC404CEA0505C6E90054A0
:100E9000002747E7C2F1200320FA03F7954001FA43
:100EA00002F021FA03F34FEA154E3843010CB3FB6D
:100EB000FEF71FFA85F80EFB173341EA034107FBE3
:100EC00008F38B4204FA02F407D9691807F1FF3CD2
:100ED0002FD28B422DD9023F2944CB1A81B2B3FBCA
:100EE000FEF00EFB103341EA034100FB08F38B4296
:100EF00007D9691800F1FF3C17D28B4215D9023887
:100F00002944C91A40EA07473BE73746304609E714
:100F10000746E7E61846FBE64145ABD2B8EB020AC6
:100F200069EB0E0201381346A4E76046E9E718466C
:100F300095E76746D1E781467CE702382C4447E7CE
:100F4000ACF1020C2B442FE7384608E73746E9E6B8
:100F5000704700BF80B582B000AF786038200CF0D9
:100F600046FA0346002B0ED19C4B1B680D22012133
:100F70009B480CF045FC9B4B1B680D2201219848B7
:100F80000CF03EFC0DE0954B1B680C2201219648AD
:100F90000CF036FC934B1B680C22012192480CF09C
:100FA0002FFC3C200CF023FA0346002B0ED18B4B78
:100FB0001B680D2201218D480CF022FC894B1B6817
:100FC0000D22012189480CF01BFC0DE0834B1B68AE
:100FD0000C22012186480CF013FC824B1B680C226A
:100FE000012183480CF00CFC30200BF088FA0346FA
:100FF000012B0ED1794B1B680D2201217D480CF08D
:10100000FFFB784B1B680D2201217A480CF0F8FB9E
:1010100002E079480AF0C8FD32200BF070FA03466E
:10102000012B0ED16D4B1B680D22012173480CF072
:10103000E7FB6C4B1B680D22012170480CF0E0FBB4
:1010400002E06D480AF0B0FD11F0CEF80122002157
:10105000032011F07FF90346012B0DD15F4B1B6874
:101060000122674918460CF06BFA5E4B1B6801229F
:10107000634918460CF064FA01220021042011F0A3
:1010800069F90346012B0DD1544B1B6802225C49C0
:1010900018460CF055FA534B1B6802225849184663
:1010A0000CF04EFA01220021052011F053F90346FD
:1010B000012B0DD1494B1B680322514918460CF0F6
:1010C0003FFA484B1B6803224D4918460CF038FA8A
:1010D000032011F011FB0346012B0ED13F4B1B687F
:1010E0000122484918460CF02BFA3E4B1B6801229E
:1010F000444918460CF024FA0DE0384B1B680122D5
:10110000414918460CF01CFA364B1B6801223E4937
:1011100018460CF015FA042011F0EEFA0346012BE4
:101120000ED12E4B1B680222364918460CF008FAE5
:101130002C4B1B680222334918460CF001FA0DE0D3
:10114000264B1B680222304918460CF0F9F9254B52
:101150001B6802222C4918460CF0F2F9052011F008
:10116000CBFA0346012B0ED11C4B1B6803222549E9
:1011700018460CF0E5F91B4B1B6803222149184661
:101180000CF0DEF90DE0154B1B6803221E491846D2
:101190000CF0D6F9134B1B6803221B4918460CF0C0
:1011A000CFF9012022F0CAF901F0DEFD012022F082
:1011B000A9F9164B5B69154A43F0100353613220BD
:1011C0000BF078FF114B5B69104A23F01003536159
:1011D0004FF47A700BF06EFFE8E700BF14000020B8
:1011E00090C402080C000020A0C40208B0C4020889
:1011F000C0C40208D0C40208DCE60020E0C4020833
:10120000F0C4020804C5020814C502080008024020
:1012100080B500AF0121022000F0E0FD0346002B65
:1012200004D0044801F09EFA012300E00023184690
:1012300080BD00BF28C5020880B582B000AF03465C
:10124000FB71FB79012B09D1194B1B68122201217B
:1012500018480CF0D5FA00F035F824E0FB79022BA1
:1012600009D1134B1B680D22012113480CF0C8FA59
:1012700000F028F817E0FB79032B09D10C4B1B6811
:101280000E2201210D480CF0BBFA00F01BF80AE019
:10129000FB79002B07D1064B1B684322012108482C
:1012A0000CF0AEFA00BF00BF0837BD4680BD00BFDE
:1012B0001400002054C5020868C5020878C5020859
:1012C00088C5020880B582B000AF084818F0F8F869
:1012D000064818F015F80346FB71FB791846FFF72E
:1012E000ABFF00BF0837BD4680BD00BF24E500202E
:1012F00080B582B000AF0346FB80FB88002B04D191
:101300000121032000F06AFD09E0FB881946012055
:1013100000F064FD0021032000F060FD00BF0837ED
:10132000BD4680BD80B5ADF50C7D00AF07F50573FA
:1013300000221A605A609A60DA601A619A8207F590
:10134000887318464FF482731A46002126F09AFFDC
:1013500007F10C0318464FF482731A46002126F059
:1013600091FF01221021784817F098FF01210220F7
:1013700000F010FF00F042F909E0744B1B683022C6
:10138000012173480CF03CFA012022F0BBF800F078
:101390004EF90346002BF0D10121002000F01EFD84
:1013A000012022F0AFF80021102000F017FD0423E7
:1013B00087F82D323B464FF47A621A803B4640F65E
:1013C000B8325A803B464FF4FA629A803B4600227C
:1013D000DA80002387F82F3297F82F2297F82D32E2
:1013E0009A4202D9002387F82F3297F82F223B46E2
:1013F00033F812301846FFF77BFF00F0D5FB0346A9
:1014000087F82C3297F82C32012B06D14F4B1B68F2
:10141000262201214F480CF0F3F997F82C32022BC9
:1014200006D14A4B1B68252201214B480CF0E8F9F4
:1014300007F50573184600F0C9F907F10A0207F528
:1014400005731146184600F009F9012022F05AF8F8
:101450000121022000F0C2FC012022F053F80023F9
:1014600087F82E3234E0394B1B68142201213B48A7
:101470000CF0C6F90121012000F08CFE07F5057380
:10148000184600F0A3F907F10A0207F505731146A3
:10149000184600F0E3F897F82E22314BA3FB021315
:1014A00019090B469B000B449B00D31ADBB2002B9F
:1014B00009D1264B1B68192201212A480CF0A0F9FA
:1014C000012022F01FF897F82E32013387F82E32D0
:1014D00097F82E325A2B0CD807F10A0207F505733C
:1014E0001146184600F0BAF8034603F00203002B39
:1014F000B9D097F82E321E2B08D9144B1B6827221F
:10150000012119480CF07CF9FFF70CFF0F4B1B6809
:101510001122012115480CF073F9012021F0F2FF8E
:10152000012021F0EFFF094B1B6828220121104800
:101530000CF066F9012021F0E5FF97F82F32013316
:1015400087F82F3248E700BF000002401400002057
:10155000CCC5020800C6020828C6020850C6020808
:10156000CDCCCCCC68C6020884C60208ACC6020842
:10157000C0C6020880B500AF0E4B1B6813220121C4
:101580000D480CF03DF90121062001F035F801214C
:10159000052000F0FFFD0121052001F02DF80121BB
:1015A000052000F0F7FD0121012000F097FE00BFAB
:1015B00080BD00BF1400002004C7020880B500AF42
:1015C0000C4B1B68122201210B480CF019F9002169
:1015D000052001F011F80121052000F0DBFD0021BC
:1015E000062001F009F80121012000F077FE00BF7C
:1015F00080BD00BF1400002018C7020880B500AFEE
:10160000012021F07FFFFFF7B5FF0121052000F049
:10161000C1FD012021F076FFFFF7D0FF01211E2040
:1016200000F0B8FD012021F06DFF00BF80BD80B546
:1016300000AF00F0AFFA0346002B01D001230BE00E
:101640000121052000F0A6FD00F0A4FA0346002BBE
:1016500001D0022300E00023184680BD80B58CB085
:1016600000AF786039607B689B7887F82F307B68A3
:1016700003331B781B021AB27B6804331B781BB23E
:1016800013431BB2BB857B6805331B781B021AB260
:101690007B6806331B781BB213431BB27B857B68C8
:1016A00007331B781A067B6808331B781B041A4320
:1016B0007B6809331B781B0213437A680A3212785D
:1016C00013437B6297F82F30002B07D0364B1B68F3
:1016D0001522012135480CF093F806E0324B1B68C7
:1016E0001522012132480CF08BF8BB8D03F0010369
:1016F000002B06D02C4B1B68072201212D480CF033
:101700007FF8BB8D03F00203002B06D0264B1B682D
:101710000B22012128480CF073F8BB8D03F008035D
:10172000002B06D0204B1B680C22012123480CF013
:1017300067F8BB8D03F01003002B19D01A4B1B6800
:10174000082201211E480CF05BF807F10C0300226F
:101750001A605A609A60DA601A619A8207F10C0383
:10176000184600F09DF807F10C03184600F01CF92C
:10177000BB8D03F02003002B06D00B4B1B680A2205
:10178000012110480CF03CF83B687A8D1A80064B1A
:1017900018687A8D7B6A0C490BF0D2FEBB8D184617
:1017A0003037BD4680BD00BF140000202CC70208A2
:1017B00044C702085CC7020864C7020870C7020871
:1017C00080C702088CC7020898C7020880B584B099
:1017D00000AF78600023BB600023FB7307E0FB7B56
:1017E0007A68134400221A70FB7B0133FB73FB7B86
:1017F000152BF4D991233B7201237B7207F1080367
:101800000421184600F054FB214B1B681B220121C8
:1018100020480BF0F5FF07F108030421184600F0FB
:10182000F5FB0346002B01D001232DE003200BF034
:1018300041FC01221621786800F020FC0346002BB1
:1018400001D0022320E0124B1B680A22012112481A
:101850000BF0D6FF0023FB730CE00D4B1868FB7BED
:101860007A6813441B781A460C490BF069FEFB7B1F
:101870000133FB73FB7B152BEFD9054B1B68194616
:101880000D200BF0CFFF002318461037BD4680BD5A
:1018900014000020BCC70208D8C70208E4C7020829
:1018A00080B584B000AF786007F1080300221A60A9
:1018B0001A7194233B7201237B721523BB7207F1CB
:1018C00008030521184600F0F3FA0023FB7307E034
:1018D000FB7B7A68134400221A70FB7B0133FB7395
:1018E000FB7B152BF4D9294B1B681A2201212848B0
:1018F0000BF086FF07F108030521184600F086FB70
:101900000346002B08D0214B1B68142201212148DB
:101910000BF076FF012335E003200BF0CBFB012217
:101920001621786800F0AAFB0346002B08D0174B5D
:101930001B681322012118480BF062FF022321E0EB
:10194000124B1B680A22012114480BF059FF002397
:10195000FB730CE00D4B1868FB7B7A6813441B7813
:101960001A460F490BF0ECFDFB7B0133FB73FB7B4D
:10197000152BEFD9054B1B680222012109480BF0FA
:101980003FFF002318461037BD4680BD14000020DD
:10199000ECC7020808C8020820C80208D8C7020815
:1019A000E4C7020834C8020880B584B000AF78608C
:1019B0007B6802331B781B021AB27B6803331B78E7
:1019C0001BB213431BB2FB81294B1B681022012160
:1019D00028480BF015FFFB8903F00103002B06D00C
:1019E000234B1B681622012123480BF009FFFB89BA
:1019F00003F00203002B06D01D4B1B6818220121A7
:101A00001E480BF0FDFEFB8903F00303002B06D0FC
:101A1000174B1B680F22012119480BF0F1FEFB89BF
:101A200003F00503002B06D0114B1B681422012183
:101A300014480BF0E5FEFB8903F00603002B06D0EB
:101A40000B4B1B68132201210F480BF0D9FEFB89B9
:101A500003F00703002B06D0054B1B682022012151
:101A60000A480BF0CDFEFB8918461037BD4680BDF5
:101A70001400002038C802084CC8020864C80208D4
:101A800080C8020890C80208A8C80208BCC802089A
:101A900080B584B000AF786007F1080300221A60B7
:101AA0001A7197233B7201237B720023BB7207F1EB
:101AB00008030521184600F0FBF9304B1B681E2275
:101AC00001212F480BF09CFE07F108030521184661
:101AD00000F09CFA0346002B01D001234AE00320CA
:101AE0000BF0E8FA00221021264817F0D7FB40F649
:101AF000B8334FF48272796823481DF0FFFE034625
:101B0000FB73012210211F4817F0C8FBFB7B002B41
:101B10000CD01A4B1B68242201211C480BF070FECC
:101B2000FB7B1846FFF788FB022323E007F108033D
:101B300001220021184600F0A1FA0346002B01D033
:101B4000032317E04FF48271786800F0D4F903465C
:101B500083F00103DBB2002B06D0084B1B68242264
:101B600001210B480BF04CFE4FF48271786800F0B5
:101B70006FFB002318461037BD4680BD14000020BF
:101B8000E0C802080000024098EA002000C90208EC
:101B900028C9020880B500AF0021012000F044F8F8
:101BA0000346184680BD000080B500AF184B1B8867
:101BB0001946002000F012F9164B1B881946122016
:101BC00000F00CF9134B1B881946122000F006F99F
:101BD000114B1B8819460B2000F000F90F4B1B8896
:101BE0001946132000F0FAF80D4B1B881946072000
:101BF00000F0F4F80B4B1B881946082000F0EEF8B3
:101C00000121002000F010F80346184680BD00BFF7
:101C10000000002002000020180800201608002004
:101C20001A0800201C080020B0B596B004AF034687
:101C30000A46FB711346BB7107F1280300221A60A4
:101C40005A609A60DA601A615A611A7607F12003C5
:101C500000221A601A71FB79002B0AD0554B1B68C1
:101C60001622012154480BF0CBFD902387F8283031
:101C700009E0504B1B681622012150480BF0C0FDB3
:101C8000922387F82830012387F82930BB79002B6D
:101C90000AD0484B1B681C22012149480BF0B0FDBB
:101CA000012387F82A3009E0424B1B681C220121DE
:101CB00044480BF0A5FD002387F82A30424B1A68F0
:101CC00007F10C03194641481BF0A3FF3E4B1A686D
:101CD00007F1080319463D481CF0AEF8354B18686B
:101CE0007B7A1C46BB7A1D463B7B7A7BB97B029193
:101CF000019200932B46224635490BF021FCBB7B19
:101D000019467B7B1A4613461B019B1A9B00CA1877
:101D10003B7B19464FF4616303FB01F31A44BB7A22
:101D200019462C4B03FB01F31A447B7A19462A4BC4
:101D300003FB01F313447B647B6C1B0EDBB287F85F
:101D40002D307B6C1B0CDBB287F82E307B6C1B0AB2
:101D5000DBB287F82F307B6CDBB287F8303007F1CD
:101D600028031921184600F0A3F807F128031921C8
:101D7000184600F04BF90346002B01D0012315E073
:101D800003200BF097F907F12003002205211846E4
:101D900000F074F90346002B01D0022306E007F19E
:101DA00020030521184600F053FA0023184648374F
:101DB000BD46B0BD1400002078C9020890C90208D1
:101DC000A8C90208C8C902082008002000E90020AC
:101DD000E8C9020880510100008D270080B586B057
:101DE00000AF03460A46FB711346BB8007F11003A0
:101DF00000221A60C3F8032007F1080300221A60CA
:101E00001A7193233B7401237B74FB79BB74BB88E9
:101E10001B0A9BB2DBB2FB74BB88DBB23B7507F1DC
:101E200010030721184600F043F81D4B1868FA7993
:101E3000BB881C490BF084FB07F1100307211846EF
:101E400000F0E4F80346002B08D0154B1B681C2259
:101E5000012115480BF0D4FC01231CE003200BF0FA
:101E600029F907F1080300220521184600F006F9B8
:101E70000346002B08D00A4B1B681D2201210B488A
:101E80000BF0BEFC022306E007F10803052118460B
:101E900000F0DEF9002318461837BD4680BD00BFAC
:101EA0001400002018CA020838CA020858CA0208DA
:101EB00080B584B000AF786039603B68023B1A4659
:101EC00079684FF6FF7000F043F80346FB81FB8909
:101ED0001B0A99B23B68023B7A681344CAB21A7073
:101EE0003B68013B7A681344FA89D2B21A7000BF8A
:101EF0001037BD4680BD80B584B000AF78603960D2
:101F00003B68023B1A4679684FF6FF7000F020F8F4
:101F10000346FB81FB891B0A9BB27B73FB893B73E6
:101F20003B68023B7A6813441B787A7B9A4209D15A
:101F30003B68013B7A6813441B783A7B9A4201D193
:101F4000012300E0002318461037BD4680BD000085
:101F500080B5ADF5087D00AF07F1080319603B1DA2
:101F60001A6007F10E0302461A8007F11003264A91
:101F7000184611464FF400731A4626F078F94FF6CA
:101F8000FF73A7F81E320023A7F81C322EE0B7F823
:101F90001C3207F10802126813441B78A7F81A32A2
:101FA000B7F81E321B0AA7F81832B7F81822B7F88C
:101FB0001A325340A7F81632B7F81632DBB2A7F838
:101FC0001432B7F81E321B02A7F81232B7F81422E7
:101FD00007F1100333F81220B7F812325340A7F874
:101FE0001E32B7F81C320133A7F81C32B7F81C3286
:101FF0003A1D12689A42CADCB7F81E32184607F535
:102000000877BD4680BD00BF78CA020880B586B09B
:1020100002AF786039600123FB733B689AB2642396
:10202000009313467A68CC21104817F079FA0346DA
:10203000FB73FB7B002B13D00D4B1B682622012169
:102040000C480BF0DDFB0A4B1B681A2201210A48E1
:102050000BF0D6FBFB7B1846FFF7EEF8FB7B00E0AE
:10206000002318461037BD4680BD00BF24E5002080
:102070001400002078CC0208A0CC020880B588B0FB
:1020800002AFF860B9601346FB713C4B1B680F222E
:1020900001213B480BF0B4FB0123FB7507F1100352
:1020A00000221A601A71BB68002B36D0BB689AB246
:1020B000642300931346FA68CC21324817F03EFBA4
:1020C0000346FB75FB7D002B0CD02C4B1B68252297
:1020D00001212D480BF094FBFB7D1846FFF7ACF86F
:1020E000FB7D46E0BB68B3F5827F05D1FB6891229A
:1020F0001A70FB6895221A70B968F868FFF7FBFE42
:10210000034683F00103DBB2002B06D01B4B1B6898
:10211000242201211D480BF073FBFB79002B27D0F3
:10212000FB681B783B7401237B747E23BB7407F12F
:10213000100305211846FFF7BBFE07F110026423C8
:1021400000930523CC210F4817F0EAF90346FB75ED
:10215000FB7D002B0CD0094B1B681C2201210C4875
:102160000BF04EFBFB7D1846FFF766F8022300E0FC
:10217000002318461837BD4680BD00BF140000205C
:10218000BCCC020824E50020CCCC020828C90208F7
:10219000F4CC020880B584B000AF03460A46FB8049
:1021A00013467B717B79002B06D0244B1B68FA8881
:1021B000234918460BF0C4F9012021F0A3F90023AC
:1021C000FB8124E064200AF075FF012021F09AF9D8
:1021D0007B79002B18D0FA891A4BA3FB0213D9087C
:1021E0000B469B000B445B00D31A9BB2002B0BD118
:1021F000124B1868FB89134AA2FB0323DB089BB22E
:102200001A4611490BF09CF9FB890133FB81F989CE
:10221000FA8813469B0013445B009942D2DB7B791A
:10222000002B06D0054B1B680222012107480BF04A
:10223000E7FA00BF1037BD4680BD00BF1400002084
:1022400014CD0208CDCCCCCC2CCD020834CD020864
:1022500080B584B000AF786039603B68052B0CD145
:102260007B6802331B787E2B07D1174B1B680F222C
:10227000012116480BF0C4FA21E0134B1B680C2215
:10228000012113480BF0BCFA0023FB810CE00E4B3C
:102290001868FB897A6813441B781A460D490BF0BD
:1022A0004FF9FB890133FB81FB893A689A42EED8EA
:1022B000054B1B680222012107480BF0A1FA00BF61
:1022C0001037BD4680BD00BF1400002038CD020885
:1022D00048CD0208E4C7020834CD0208F0B5ADF5D8
:1022E000497D06AF07F10C03186007F10803196078
:1022F0007F4BC7F804337F4BC7F8003307F1140353
:102300007D4A07CA83E8070007F53E731946012096
:1023100000F00EF907F53D731946022000F008F9A8
:1023200007F53C7319460B2000F002F907F53B73E3
:102330001946102000F0FCF807F53A7319461120F1
:1023400000F0F6F86D4B1B681A466D496D481BF09E
:1023500060FC6A4B1B681A466B496A481BF06CFDAF
:10236000694BDB781D46684B5B781E46664B9B7855
:102370001A46634B1B781946614B5B781C46604BD1
:102380009B7807F51A7003930294019100923346EB
:102390002A465E4926F026FFD7F8F8327B60D7F848
:1023A000F83207EE903AB8EEE77AD7EDC17A67EEE9
:1023B000277A17EE900AFEF77FF804460D46D7F805
:1023C000F462D7F8F43207EE903AB8EEE77AD7ED38
:1023D000C07A67EE277A17EE900AFEF76DF802468C
:1023E0000B4607F51A7107F52170CDE90423029613
:1023F000CDE900457B680A46454926F0F3FE07F122
:102400000C031B68012B5FD107F1140107F138039E
:10241000132218460DF076FB034687F8FF3297F833
:10242000FF32002B41D13B4B1B68292201213A4846
:102430000BF0E6F907F1200207F1140311461846E4
:102440000EF044FC034687F8FF3297F8FF32002B6A
:1024500025D1304B1B683022012130480BF0D0F9D8
:1024600007F120031A6807F13803114618460EF0E9
:10247000D8F8034687F8FF3297F8FF32002B0ED1C9
:10248000244B1B683122012125480BF0B9F907F5CF
:10249000217207F13803114618460BF051F807F185
:1024A000380318460EF08EF80EE01A4B1B682F22E8
:1024B00001211C480BF0A4F9164B1B6897F8FF226A
:1024C000194918460BF03CF807F108031B68012B6B
:1024D00008D1104B1868D7F8EC22D7F8E832134926
:1024E0000BF02EF800BF07F54377BD46F0BD00BFE7
:1024F000DD24164033334340B8CE020820080020C4
:10250000BCE6002000E90020FCE8002058CD0208CD
:1025100078CD020814000020B4CD0208E0CD0208F6
:1025200014CE020848CE020878CE020894CE0208E3
:1025300080B588B004AF03463960FB800023BB73CD
:102540003B68294A1A6009F0A5FABB7B002B17D01B
:10255000FB7B012B0BD0FB7B032B08D0FB7B022BDF
:1025600008D1224B93F83D30DBB2202B02D11F481B
:1025700009F01AFB05200AF09DFDBB7B092B15D83D
:10258000FA880A2302930223019307F108030093B8
:1025900001233021154817F00BFC0346FB73BB7B6E
:1025A0000133BB73FB7B002BCFD100E000BF0F4892
:1025B00016F086FFFB7B002B0BD13B7A9BB21B02F4
:1025C0009AB27B7A9BB21344BB81BA893B681A608A
:1025D00006E0074B1B681322012106480BF010F997
:1025E00000BF1037BD4680BDF1D8FFFF68E6002070
:1025F00014000020C4CE020880B588B002AF0346A4
:102600000A46FB8013467B710023BB7507F10C0360
:102610003B6109F03FFABB7D002B17D0FB7D012BFE
:102620000BD0FB7D032B08D0FB7D022B08D11B4B6D
:1026300093F83D30DBB2202B02D1184809F0B4FAF0
:1026400005200AF037FDBB7D092B15D8FB88DBB2CE
:102650003B737B797B730A23009302233A69302111
:102660000E4816F05DFF0346FB75BB7D0133BB755D
:10267000FB7D002BCFD100E000BF084816F020FF03
:10268000FB7D002B06D0064B1B6814220121054858
:102690000BF0B6F800BF1837BD4680BD68E60020D5
:1026A00014000020D8CE020880B582B000AF2F23DE
:1026B000BB80012020F026FF012020F023FF1348DB
:1026C00000F0C6F80346002B04D0114800F04AF889
:1026D000022317E0012020F015FF0C4800F022F83B
:1026E0000346002B04D00B4800F03CF8032309E01C
:1026F000094800F037F8094800F034F8084B012287
:102700001A70002318460837BD4680BD88DD0020BA
:10271000F0CE02081CCF020834CF020850CF0208C6
:102720001E08002080B582B000AF7860786800F0A5
:1027300025FC0346002B04D0074800F013F80123C2
:1027400006E0064800F00EF8054B01221A7000233F
:1027500018460837BD4680BD1CCF020834CF02089A
:102760001E08002080B582B000AF7860084B1B784F
:10277000002B02D0786800F00FF8064B1B687968D0
:1027800018460AF0DDFE002318460837BD4680BD16
:102790001E0800201400002080B59CB000AF7860B7
:1027A00007F10C03184600F09FF907F10C031846D7
:1027B000FEF7B2F903461A4607F10C0313441E4A0A
:1027C0001188927819809A7007F10C03796818467D
:1027D00026F054FD07F10C031846FEF79DF9034659
:1027E0001A4607F10C031344144A11889278198091
:1027F0009A7007F10C031846FEF78EF903469AB259
:1028000007F10C0319460E4800F038FC0346002B74
:1028100006D00C4B1B681B2201210B480AF0F0FF6D
:10282000084B1B681F22012108480AF0E9FF00BF7E
:102830007037BD4680BD00BF74CF020878CF020854
:1028400088DD0020140000207CCF020898CF020809
:1028500080B5ADF5FE6D00AF3B1D1860012020F086
:1028600051FE07F1080300221A609A8007F1100355
:10287000184600F07BFD0346002B04D03C48FFF7D0
:1028800071FF01236EE0042387F8E6373948FFF72C
:1028900069FF0023C7F8E837002387F8EF374AE0DD
:1028A000012020F02FFE97F8EF2707F1100353F8CF
:1028B00022303149184627F06FFA0346002B35D0F5
:1028C000002387F8E73713E097F8EF2707F11003A5
:1028D00053F8221097F8E72797F8EF370A44517A10
:1028E00007F10802D15497F8E737013387F8E73743
:1028F00097F8E737052BE7D907F1080300229A710B
:1029000007F108031846FFF72DFF07F108031846E3
:1029100025F068FBC7F8E007D7F8E027D7F8E837D5
:102920009A4203DDD7F8E037C7F8E83797F8EF3772
:10293000013387F8EF3797F8EF2797F8E6379A4291
:10294000AED3D7F8E8370133C7F8E8373B1DD7F8DF
:10295000E8270A49186826F045FC3B1D1868FFF770
:1029600001FF0023184607F5FE67BD4680BD00BF86
:10297000B8CF0208D4CF0208E4CF0208E8CF02089B
:1029800080B5ADF57C6D00AF3B1D18603B4619600E
:10299000012020F0B7FD07F1080300221A609A8099
:1029A00007F11003184600F0E1FC0346002B04D0A9
:1029B0004548FFF7D7FE012381E0A02387F8B63F03
:1029C00097F8B63F1846FFF7CDFE0023C7F8B83F8B
:1029D000002387F8BF3F4AE097F8BF2F07F11003A5
:1029E00053F822303949184627F0D6F90346002B10
:1029F00038D0002387F8B73F13E097F8BF2F07F1CF
:102A0000100353F8222097F8B73F1A4497F8BF3FB6
:102A1000117807F10802D15497F8B73F013387F8CE
:102A2000B73F97F8B73F042BE7D907F10803002217
:102A30005A7107F10803184625F0D4FAC7F8B00F09
:102A4000234B1B6807F10802224918460AF078FD5B
:102A5000D7F8B02FD7F8B83F9A4203DDD7F8B03F88
:102A6000C7F8B83F97F8BF3F013387F8BF3F97F8E3
:102A7000BF2F97F8B63F9A42AED3D7F8B83F01338D
:102A8000C7F8B83F3B1DD7F8B82F1349186826F090
:102A9000A9FB3B46D7F8B82F1049186826F0A2FBCF
:102AA0000B4B18683B1D1A680D490AF049FD084B8D
:102AB00018683B461A680B490AF042FD0023184685
:102AC00007F57C67BD4680BDB8CF0208F0CF02088D
:102AD00014000020F4CF0208F8CF020804D0020846
:102AE00010D002082CD0020890B595B000AF7860E5
:102AF00007F13C030022194626481BF08AF807F12B
:102B000038030022194623481BF096F997F83B300A
:102B100064333B6297F83930013BFB6197F83A30F8
:102B2000BB6197F83C307B6197F83D303B6197F88B
:102B30003E30FB604FF0FF33FB6207F10C03184699
:102B400025F082FC03460C46C7E90C34124B1C6886
:102B500007F13003184625F06DFA03461A460F496F
:102B600020460AF0EDFC0C4B1B6804220C49184669
:102B70000AF0E6FC07F13003184625F05BFA03463D
:102B8000084A0421786827F0F5F800BF5437BD469D
:102B900090BD00BF00E90020140000204CD00208C6
:102BA00060D0020878D0020880B582B000AF012062
:102BB00020F0A8FC012210212B4816F06FFB012108
:102BC0000220FFF7E7FAFEF719FD0323BB7100238C
:102BD000FB7119E0254B1B681A22012124480AF0D9
:102BE0000FFE224B1B682022012122480AF008FE1A
:102BF0001F48FFF7D1FD2048FFF7CEFD012020F050
:102C000081FCFB790133FB71FEF711FD0346002BBC
:102C100003D0FA79BB799A42DCD3FA79BB799A422C
:102C20000BD1124B1B681A22012111480AF0E8FD52
:102C30000F48FFF7B1FD012311E001210020FFF74C
:102C4000CDF80E48FFF7A8FD012020F05BFC002125
:102C50001020FFF7C3F80A48FFF79EFD002318462F
:102C60000837BD4680BD00BF0000024014000020B0
:102C70008CD00208A8D00208CCD00208F0D00208FC
:102C800008D1020880B5D0B000AF3B1D186007F135
:102C9000380318464FF482731A46002125F0F2FAE1
:102CA00007F1200300221A605A609A60DA601A6104
:102CB0009A8207F120031846FEF788FD07F11E02ED
:102CC00007F1200311461846FEF7C8FC0023A7F8B9
:102CD0003E3107F1080207F1140311461846FFF7C9
:102CE0004FFE07F11403184600F048F907F10803F6
:102CF000184600F043F929E007F138031846FEF7BB
:102D0000C7FE07F1380107F114034FF48272184629
:102D100000F028FA07F120031846FEF757FD07F1E7
:102D20001E0207F1200311461846FEF797FC07F133
:102D3000200107F108034FF48272184600F09EF953
:102D40000848FFF70FFD012020F0DCFB07F11E0310
:102D50001B88002BD0D100BF184607F5A077BD46D1
:102D600080BD00BFC4D2020880B5ADF50C7D00AFB8
:102D700007F5057300221A605A609A60DA601A61DA
:102D80009A8207F5887318464FF482731A46002119
:102D900025F078FA07F10C0318464FF482731A46AF
:102DA000002125F06FFA042387F82D323B460022DC
:102DB0001A803B463F225A803B461E229A803B4661
:102DC0007822DA80002387F82F32FFF76DFC034664
:102DD000002B02D05D48FFF7C5FCFFF7E5FE034678
:102DE000002B0AD05A48FFF7BDFC5A48FFF7BAFC3F
:102DF000012020F087FBFFF7B7FF97F82F2297F805
:102E00002D329A4202D9002387F82F3297F82F22C9
:102E10003B4633F812301846FEF76AFA4E4B1868F4
:102E200097F82F223B4633F812301A464B490AF0E6
:102E300087FBFEF7B9FE0346002B05D04848FFF795
:102E400091FC012020F05EFB07F505731846FEF7A4
:102E5000BDFC07F10A0207F5057311461846FEF797
:102E6000FDFB4048FFF77EFC012020F04BFBFEF706
:102E7000CFF9012020F046FB002387F82E325A2399
:102E800087F82C322CE03848FFF76CFC0121012038
:102E9000FFF780F907F505731846FEF797FC07F171
:102EA0000A0207F5057311461846FEF7D7FB97F897
:102EB0002E222E4BA3FB021319090B469B000B4439
:102EC0009B00D31ADBB2002B05D12948FFF74AFC3F
:102ED000012020F017FB97F82E32013387F82E32AD
:102EE00097F82E2297F82C329A420CD807F10A0252
:102EF00007F5057311461846FEF7B0FB034603F0CD
:102F00000203002BBFD097F82E2297F82C329A425A
:102F100007D91848FFF726FC012020F0F3FAFEF746
:102F200001FA1548FFF71EFC07F10C031846FFF7DE
:102F3000A9FE012020F0E6FA012020F0E3FA97F83C
:102F40002F32013387F82F3257E700BFD8D202085B
:102F50008CD00208ECD20208140000200CD3020826
:102F600028D3020844D3020860D30208CDCCCCCCCD
:102F700078D3020890D30208B8D3020880B584B091
:102F800000AF78600022324932480CF057FD03460A
:102F9000002B09D0304B1B68182201212F480AF062
:102FA0002FFC0323BB7349E02D4B7B601222796811
:102FB0002C480CF0A7FD0346FB73FB7B052B09D1C6
:102FC000786800F05BF90A22796826480CF09AFDCF
:102FD0000346FB73FB7B002B24D01F4B1B687968D7
:102FE00018460AF0ADFA1C4B1B681F2201211E482F
:102FF0000AF006FC184B1B68FA7B1C4918460AF0BD
:103000009FFA154B1B680222012119480AF0F8FBB0
:10301000114B1B681222012116480AF0F1FB022312
:10302000BB730BE00F480DF0CDFA0B4B1B6822224F
:10303000012111480AF0E4FB0023BB7300220021A8
:1030400004480CF0FBFCBB7B18461037BD4680BD26
:1030500000EB002034ED002014000020D4D302083F
:10306000F0D3020804EB0020F8D3020818D40208B9
:1030700020D4020824D4020838D4020880B586B0CF
:1030800000AFF860B9601346FB8000222D492E483E
:103090000CF0D4FC0346002B0BD02C4B1B681822E1
:1030A00001212B480AF0ACFB00F07EFA0323FB75EC
:1030B0003DE03222F96827480CF024FD0346002B3E
:1030C0000BD000F071FA214B1B681F22012122480E
:1030D0000AF096FB0223FB7529E0FA8807F110033A
:1030E000B9681C480DF041F80346BB753B69002BDD
:1030F00002D0BB7D002B0ED000F056FA134B1B689C
:103100001722012115480AF07BFB12480DF05AFAEC
:103110000123FB750BE00F480DF054FA0B4B1B68B5
:10312000212201210E480AF06BFB0023FB750022CF
:10313000002105480CF082FCFB7D18461837BD467F
:1031400080BD00BF00EB002034ED00201400002003
:10315000D4D3020804EB0020F8D302085CD40208A0
:1031600074D4020880B586B000AFF860B960134629
:10317000FB8000222C492D480CF060FC0346002BFC
:103180000BD02B4B1B68182201212A480AF038FB70
:1031900000F00AFA0323FB753CE03222F968264866
:1031A0000CF0B0FC0346002B0BD000F0FDF9204BD7
:1031B0001B681F22012121480AF022FB0223FB7514
:1031C00028E0FA8807F11003B9681B480CF0CDFF1E
:1031D0000346BB75FA883B699A4202D1BB7D002B3E
:1031E0000CD0134B1B681722012115480AF008FB6D
:1031F00011480DF0E7F90123FB750BE00E480DF0C7
:10320000E1F90B4B1B68222201210E480AF0F8FA63
:103210000023FB750022002104480CF00FFCFB7D0D
:1032200018461837BD4680BD00EB002034ED002065
:1032300014000020D4D3020804EB0020F8D30208C5
:103240005CD4020838D4020880B584B000AF78603E
:103250007868FDF761FC03460133184624F0E8FF67
:103260000346FB60FB68002B03D07968F86826F002
:1032700014F8FB6818461037BD4680BD80B586B08F
:1032800000AF7860012020F03DF97868FFF7DCFF9F
:10329000F860F868FDF740FC03463B6102E03B69DB
:1032A000013B3B613B69002B06D03B69013BFA685F
:1032B00013441B782F2BF2D13B69002B02D03B69C2
:1032C000013B3B613B69002B3DD03B69FA681344ED
:1032D00000221A70F8680DF0EBFD0346FB75FB7DCC
:1032E000002B1BD01B4B1B68FA7D1B4918460AF0AC
:1032F00027F9184B1B680222012118480AF080FAAE
:10330000144B1B681222012115480AF079FA114B5F
:103310001B68FA68134918460AF012F9FB7D052B61
:1033200007D1F868FFF7AAFFF8680DF0C1FD034662
:10333000FB75FB7D002B06D1064B1B68FA680A491A
:1033400018460AF0FDF8F86824F07AFF00BF183735
:10335000BD4680BD1400002018D4020820D4020805
:1033600024D40208ECD4020804D50208B0B596B003
:1033700000AF7860002387F8553000222E492F488F
:103380000CF05CFB0346002B08D02D4B1B68182269
:1033900001212C480AF034FA022349E007F108031E
:1033A000254918460DF090FB034687F8543000235A
:1033B000A7F8563007F13C0207F1080311461846FA
:1033C0000DF0FBFB034687F8543097F85430002B80
:1033D00023D197F84530002B1FD0194B186807F1FF
:1033E0003C0309331A4618490AF0AAF8B7F85620E0
:1033F00013465B001344DB001A467B6813441D46EA
:1034000007F13C040FCC0FC594E8030085E80300E6
:10341000B7F856300133A7F8563097F84530002BEF
:10342000C8D10022002105480CF008FB97F8553060
:1034300018465837BD46B0BD00EB002034ED0020E3
:1034400014000020D4D3020818D50208B0B590B0FB
:1034500000AF404B404A1A6008F0A4FE3F4B5B6A45
:103460003E4A43F4E023536272B63C4B4FF0006295
:103470009A6062B600F0D0F81EF0E8FC08F08EF812
:1034800008F00EF908F0B4FD08F072FA08F0AAFA94
:1034900008F02EFB08F05AFB08F0E6FB08F01AFCD7
:1034A00008F050FC08F084FC08F04EFD08F0F4FC35
:1034B00008F074FD08F0ECFD10F0F0FC21F0B4FA17
:1034C000274B1B68184600F0CBFB264B1B681846A1
:1034D00000F0C6FB244B5B69234A23F020035361B1
:1034E000224B07F12C041D460FCD0FC42B6823601F
:1034F00007F12C030021184609F0B5FD02461C4BCC
:103500001A6000F0D7F91FF08FFF1A4B07F118046B
:103510001D460FCD0FC42B68236007F1180300214F
:10352000184609F0A0FD0246134B1A60134B3C1DD0
:103530001D460FCD0FC42B6823603B1D002118468C
:1035400009F091FD012240210D4815F0A7FE09F078
:1035500067FDFEE7340400205028004000ED00E045
:10356000140000200C000020000802403CD5020896
:1035700094DD002060D5020898DD002084D5020883
:103580000018024080B582B000AF78607B681B688D
:10359000044A934201D11EF07BFC00BF0837BD46B0
:1035A00080BD00BF0000014080B500AF104B5B69DB
:1035B0000F4A43F0100353610D4B5B690C4A43F013
:1035C000200353614FF4FA601EF07CFC084B5B69EA
:1035D000074A23F010035361054B5B69044A23F04B
:1035E000200353614FF4FA601EF06CFCDEE700BF6D
:1035F0000008024080B500AFFFF7D6FF00BF80BDD6
:1036000080B582B000AF78603960FFF7CDFF00BFB2
:103610000837BD4680BD000080B500AF00F00CF952
:1036200002460E4B1A600D4B1B68002B0CD14FF459
:10363000806200210A4824F025FE094B094A1A60DD
:10364000064B094A1A6007E0044B1B684FF480627E
:103650001946034824F00BFE00BF80BD9CE100200A
:103660009CDD00202143AA5500001E0890B58FB0B4
:1036700000AF002387F82F3015F0DEF900F098F83E
:1036800078637B6B002B16D100237B6001233B61A9
:103690001723FB6002237B6107F118023B1D1146D3
:1036A000184615F02BF80346002B02D015F0DEF972
:1036B00043E0234B7B63234B234A1A6007F11C032F
:1036C0001946204800F046F8FB691E4AC2F8FC3350
:1036D0000023BB621D4BF322DA6000233B631CE036
:1036E000184A3B6B13441B78DBB24FF00004C7E968
:1036F00008347A6B3B6BD118D7E90823B86A15F008
:1037000047F9034687F82F3097F82F30002B0ED15A
:10371000BA6A3B6B134401333B63BB6A01334FF41A
:103720008062B2FBF3F33A6B9A42D9D300E000BF58
:1037300015F09CF9064A7B6B13603C37BD4690BD83
:1037400000001E089CDD00202143AA55003C0240D9
:103750009CE1002080B582B000AF786039607B6862
:10376000104A934203D97B680F4A934209D97B6878
:10377000B3F1005F11D37B6803F580630B4A93427A
:103780000BD83B68002B08D04FF47F72796800207B
:103790000AF072F902463B681A6000BF0837BD465E
:1037A00080BD00BFFFFF1D0800FC1F08FAFF0220BC
:1037B00080B483B000AF0023BB801E4B1B683B600E
:1037C0000023FB800DE0B7F904309B023A681344F4
:1037D0001A46FB8813441B78FF2B07D1FB88013363
:1037E000FB80FB88B3F5806FEDD300E000BFFB8862
:1037F000B3F5806F06D2B7F904309BB201339BB2A8
:10380000BB8005E0B7F904309B023A6813440AE034
:10381000B7F904309B023A68134403F58063B3F1AF
:10382000026FCDD3002318460C37BD465DF8047BEC
:10383000704700BF9CE1002080B584B000AF7F23BB
:10384000FB811A4BBB60B7F90E309B02BA68134478
:103850001B68174A934219D1B7F90E309B02BA6818
:1038600013443A1D11461846FFF774FFB7F90E309E
:103870009B02BA681344D3F8FC237B689A4205D1B3
:10388000B7F90E309B02BA6813440AE0B7F90E305C
:103890009BB2013B9BB2FB81B7F90E30002BD2DC0F
:1038A000002318461037BD4680BD00BF00001E082B
:1038B0002143AA55B0B586B000AF0023FB752EE0BA
:1038C000FB7D3A4A4FF40C7101FB03F313440022D1
:1038D0001A60FB7D364A002142F82310FB7D354AF1
:1038E000002142F82310FB7D334A002142F82310C7
:1038F000FB7D324A002142F82310FB7D304A002133
:1039000042F82310FB7D2F4A002122F81310FB7D83
:103910002D4A002122F81310FB7D0133FB75FB7D3E
:10392000022BCDD9294B2A4A1A602A4B2A4A1A60FF
:103930002A4B2B4A1A60254B1B680122294918463D
:103940001DF02AFC0346BB75BB7D002B01D0FFF7A1
:103950002BFE204B1B680122224918461DF01CFC3F
:103960000346BB75BB7D002B01D0FFF71DFE1B4B33
:103970001B6801221B4918461DF00EFC0346BB754F
:10398000BB7D002B01D0FFF70FFE174B3C461D46B9
:103990000FCD0FC42B6823603B460021184609F069
:1039A00062FB00BF1837BD46B0BD00BF9C0E0020B3
:1039B000B8E40020ACE40020A0E10020240E0020A8
:1039C000300E00208C0E0020940E00200C000020F1
:1039D000BCE800201000002058EA0020140000205D
:1039E00018EA0020F0EA002018D602082DE9F0417C
:1039F000ADF5207D08AF3B1D1860002387F85F32CE
:103A000008F0EAFB0346012B40F09E80132387F861
:103A10005E32654B1B681A46644965481AF0F9F82E
:103A2000614B1B681A46634961481AF005FA07F1B1
:103A30000C031322604918460CF064F8034687F81B
:103A40005E3297F85E32002B09D107F50F731946E5
:103A500059480DF03BF9034687F85E3205E097F8C8
:103A60005E32012B01D108F0B7FB97F85E32002BD4
:103A70006AD1D7F83C2207F10C03114618460CF026
:103A8000D0FD034687F85E3297F85E32002B4BD1AB
:103A900097F85E32002B41D10021454819F006FF0E
:103AA000C7F85802454B1B68C7F85432414BDB78C6
:103AB0009C46404B5B789E463E4B9B781A463B4B60
:103AC0001B781946394B5B781C46384B9B781D4652
:103AD000D7F858321B0C9BB21E46D7F858329BB20F
:103AE0003B60D7F854321B0C9BB2D7F8540280B21B
:103AF00007F10C08079006933B680593049603951D
:103B0000029401910092734662462D49404609F0A5
:103B100017FD07F10C03184600F0A2F807F10C039B
:103B200018460CF04FFD0FE0264B1B6897F85E22FD
:103B30002549184609F004FD244B1B6897F85E22BE
:103B40002149184609F0FCFC00201FF0F7FC00207A
:103B50001FF0D8FC002000F0AFF803461A4697F893
:103B60005F32134387F85F32012000F0A5F8034667
:103B70001A4697F85F32134387F85F32022000F04D
:103B80009BF803461A4697F85F32134387F85F3273
:103B900097F85F32002B02D10A2009F08BFA00233C
:103BA00087F85F32D3E700BF20080020BCE6002082
:103BB00000E90020FCE800202CD602085428004030
:103BC00038D602081400002080D602080C0000201D
:103BD00080B584B000AF786039603B68002B0BD0B3
:103BE0003868FCF799FF0346FB81FB891A46396860
:103BF000786800F007F801E0FFF7D6FC00BF103747
:103C0000BD4680BD80B586B000AFF860B960134690
:103C1000FB80FB88FB82BB68002B18D0FB8A1A460E
:103C2000B968002009F028FF3861FB8ABA6813449C
:103C30003A690A49184625F0D5FAFB8A0A33FB820D
:103C4000FA8AFB680021B86809F0DAFD01E0FFF7A5
:103C5000ABFC00BF1837BD4680BD00BF94D602083C
:103C600080B584B002AF78600C4B01930C4B00938D
:103C7000592301220B49786809F062FC0A4B1A6843
:103C80000A4B19680A4B1B6800930B460949786870
:103C900009F056FC00BF0837BD4680BDC4D60208F7
:103CA000D0D602089CD60208107AFF1F147AFF1F94
:103CB000187AFF1FDCD60208F0B5B7B008AF03468C
:103CC000FB73002387F8AF30FB7B022B01D9FFF792
:103CD0006BFCFB7B1B02BD4A9818FB7B0D22FF216E
:103CE00007F08CFA0346002B07F0CE81FB7BB84A25
:103CF00052F82330C7F88C30FB7B1B02B34A1344C5
:103D0000B449184626F048F8C7F88800D7F8883034
:103D1000002B07F0F081012387F8AF30D7F8880037
:103D2000FCF7FAFEC7F88400D7F88430B3F5807F3B
:103D300007F28C81FB7B1B02A74A1344D7F888103B
:103D4000184625F0AAFA0423C7F8B4300423C7F8AC
:103D5000B03028E0FB7BA04A1B021A44D7F8B430ED
:103D600013441878FA7BD7F8B43001339A49120219
:103D70000A4413441B78FC7B194607F091FA03466A
:103D80001946954A23021A44D7F8B03013440A461C
:103D90001A70D7F8B4300233C7F8B430D7F8B0305F
:103DA0000133C7F8B030D7F8B420D7F884309A423E
:103DB000D0D3FB7B884A1B02134404331B78112B9E
:103DC00008D0FB7B844A1B02134404331B78402B2E
:103DD00040F03481FB7B804A1B02134404331B7880
:103DE000112B55D1FB7B7C4A1B02134403331B78F8
:103DF000522B0DD1FB7B784A1B02134405331B78F1
:103E00001946002007F074FA0346A7F8AC309DE08D
:103E1000FB7B714A1B02134403331B78572B0DD1D4
:103E2000FB7B6D4A1B02134405331B7819460120A6
:103E300007F05EFA0346A7F8AC3087E0FB7B664AE2
:103E40001B02134403331B78442B04D1D7F884306E
:103E5000A7F8AC307AE0FB7B4FF4867202FB03F3E9
:103E60005E4A13445E491A460B4603CB106051600C
:103E7000FB7B4FF4867202FB03F3584A1344194646
:103E8000D7F88C00FFF7A4FE97F8AF3007F035B9EC
:103E9000FB7B514A1B02134404331B78402B55D142
:103EA000FB7B4D4A1B02134403331B78522B0DD16D
:103EB000FB7B494A1B02134405331B781946022039
:103EC00007F016FA0346A7F8AC303FE0FB7B424A06
:103ED0001B02134403331B78572B0DD1FB7B3E4A47
:103EE0001B02134405331B781946032007F000FA20
:103EF0000346A7F8AC3029E0FB7B374A1B0213448A
:103F000003331B78442B04D1D7F88430A7F8AC30A6
:103F10001CE0FB7B4FF4867202FB03F32F4A134431
:103F20002F491A460B4603CB10605160FB7B4FF4C0
:103F3000867202FB03F3294A13441946D7F88C0012
:103F4000FFF746FE97F8AF3007F0D7B8B7F8AC30B8
:103F500009331A46D7F88430934245D1D7F88430D4
:103F6000093B1A46D7F88810002009F085FDC7F8EC
:103F70008000B7F8AC300133D7F8882013441846D6
:103F800007F078FAF867D7F88020FB6F9A4255D08F
:103F9000FB7B4FF4867202FB03F3104A1344D7F8FD
:103FA00080201049184625F01DF9FB7B4FF48672DE
:103FB00002FB03F3094A13441946D7F88C00FFF7B4
:103FC00007FE97F8AF3007F098B800BF240B002029
:103FD0001C000020FCD6020824080020C815002080
:103FE00000D7020808D70208B7F8AC30D7F8842009
:103FF0009A4223D0FB7B4FF4867202FB03F3B64A4E
:104000001344B64A1C4615460FCD20606160A2607D
:10401000E3600FCD20616161A261E361FB7B4FF43E
:10402000867202FB03F3AC4A13441946D7F88C009E
:10403000FFF7CEFD97F8AF3007F05FB8FB7BA84ADB
:104040001B02134403331B78522B42F0FA82FB7B92
:10405000A34A1B02134404331B78402B40F0C78053
:10406000FB7B9F4A1B02134406331B789BB21B0247
:104070009AB2FB7B9A491B020B4407331B789BB215
:104080001344A7F84A30FB7B954A1B0213440533BF
:104090001B78012BC0F28E800B2B02DD402B40F0F1
:1040A0008980B7F84A30B3F5005F30D3B7F84A30AB
:1040B000B3F5405F2BD2FB7B4FF4867202FB03F318
:1040C000854A9818FB7B864A1B02134405331B78EC
:1040D0001A46844925F086F8FB7B4FF4867202FB72
:1040E00003F37D4A13441946D7F88C00FFF770FD9F
:1040F000FB7B7B4A1B02134405331978B7F84A004F
:10410000002300930023522212F07AFE50E0B7F809
:104110004A30B3F5805F30D3B7F84A30B3F5005F6B
:104120002BD2FB7B4FF4867202FB03F36A4A98188A
:10413000FB7B6B4A1B02134405331B781A466A4902
:1041400025F050F8FB7B4FF4867202FB03F3624AC2
:1041500013441946D7F88C00FFF73AFDFB7B604A01
:104160001B02134405331978B7F84A000023009363
:104170000023522223F09CFD1AE0FB7B4FF4867251
:1041800002FB03F3544A1344B7F84A205749184630
:1041900025F028F8FB7B4FF4867202FB03F34E4AAE
:1041A00013441946D7F88C00FFF712FD06F0A3BFA1
:1041B00006F0A1BFFB7B4FF4867202FB03F3464A75
:1041C00013444B4A1C4615460FCD20606160A26027
:1041D000E360FB7B4FF4867202FB03F33E4A134419
:1041E0001946D7F88C00FFF7F3FC06F084BFFB7B81
:1041F0003B4A1B02134404331B78182B40F03881D0
:10420000002387F8AB300A23A7F8AC30B7F8AC30FE
:1042100009331A46D7F88430934236D1D7F8843020
:10422000093B1A46D7F88810002009F025FCC7F88A
:104230008000B7F8AC300133D7F888201344184613
:1042400007F018F9F867D7F88020FB6F9A4255D02D
:10425000FB7B4FF4867202FB03F31F4A1344D7F82B
:1042600080202449184624F0BDFFFB7B4FF4867262
:1042700002FB03F3184A13441946D7F88C00FFF7E2
:10428000A7FC97F8AF3006F038BFB7F8AC30D7F8D6
:1042900084209A4232D0FB7B4FF4867202FB03F3F8
:1042A0000D4A1344144A1C46134607CB2060616034
:1042B000A2601B782373FB7B4FF4867202FB03F32F
:1042C000054A13441946D7F88C00FFF781FC97F88C
:1042D000AF3006F012BF00BFC815002020D702087B
:1042E0002408002040D7020860D7020880D70208BF
:1042F00094D7020808D70208A4D70208FB7BB24A69
:104300001B02134406331B78302B00F29480FB7B96
:10431000AD4A1B02134406331B78002B00F08B8040
:1043200007F0B8FB97F8AB30002B1BD097F8AA30FA
:10433000012B0DD097F8AA30032B09D097F8AA309B
:10434000022B08D1A14B93F83D30DBB2202B02D1D8
:104350009E4807F029FC052008F0ACFE97F8AB302A
:10436000092B1FD8FB7B984A1B02134406331B788A
:104370009AB20A2302930223019307F114030093D4
:1043800001233021914815F013FD034687F8AA3028
:1043900097F8AB30013387F8AB3097F8AA30002B91
:1043A000C0D100E000BF894815F08AF897F8AA301C
:1043B000002B23D13B7D9BB21B029AB27B7D9BB22B
:1043C0001344A7F84C30FB7B4FF4867202FB03F3D7
:1043D0007F4A1344B7F84C207E49184624F002FF68
:1043E000FB7B4FF4867202FB03F3794A13441946B0
:1043F000D7F88C00FFF7ECFB06F07DBEFB7B4FF49B
:10440000867202FB03F3724A1344734A1C46154634
:104410000FCD20606160A260E360FB7B4FF4867289
:1044200002FB03F36A4A13441946D7F88C00FFF7DE
:10443000CFFB06F060BEFB7B4FF4867202FB03F3FA
:10444000634A1344654A1C4615460FCD20606160DF
:10445000A260E360FB7B4FF4867202FB03F35C4ACD
:1044600013441946D7F88C00FFF7B2FB06F043BEA1
:10447000FB7B554A1B02134404331B78332B40F05B
:104480001881002387F8A8300823A7F8AC30B7F8C4
:10449000AC3009331A46D7F88430934236D1D7F876
:1044A0008430093B1A46D7F88810002009F0E4FA56
:1044B000C7F88000B7F8AC300133D7F88820134430
:1044C000184606F0D7FFF867D7F88020FB6F9A42AE
:1044D00042D0FB7B4FF4867202FB03F33C4A134449
:1044E000D7F880203E49184624F07CFEFB7B4FF431
:1044F000867202FB03F3364A13441946D7F88C0040
:10450000FFF766FB97F8AF3006F0F7BDB7F8AC30B1
:10451000D7F884209A421FD0FB7B4FF4867202FBAF
:1045200003F32B4A13442F4A1C46134607CB206043
:104530006160A2601B782373FB7B4FF4867202FBE1
:1045400003F3234A13441946D7F88C00FFF740FBC6
:1045500097F8AF3006F0D1BD07F09CFA97F8A83075
:10456000002B1BD097F8A930012B0DD097F8A9305C
:10457000032B09D097F8A930022B08D1134B93F8DD
:104580003D30DBB2202B02D1104807F00DFB052097
:1045900008F090FD97F8A830092B25D807F11002F4
:1045A0000A23009304236621084815F0C7F8034640
:1045B00087F8A93097F8A830013387F8A83097F822
:1045C000A930002BCAD110E02408002068E60020A2
:1045D000C8150020B4D70208BCD70208CCD70208FF
:1045E00008D70208A4D7020800BFE24814F068FF09
:1045F00097F8A930002B32D13A7CDF4B1A707A7CC5
:10460000DD4B5A70BA7CDC4B9A70FA7CDA4BDA706C
:10461000FB7B4FF4867202FB03F3D84A9818D64B03
:104620001B781946D44B5B781C46D34B9B781A46B3
:10463000D14BDB780193009223460A46D04924F0FF
:10464000D1FDFB7B4FF4867202FB03F3CB4A13448C
:104650001946D7F88C00FFF7BBFA06F04CBDFB7B80
:104660004FF4867202FB03F3C44A1344C54A14464E
:104670009C4604F1200E654626460FCE28606960F0
:10468000AA60EB6010340CF1100C7445F3D1624653
:1046900023461B881380FB7B4FF4867202FB03F3D7
:1046A000B64A13441946D7F88C00FFF791FA06F082
:1046B00022BDFB7BB44A1B02134404331B78112B2D
:1046C00041F0A287FB7BB04A1B02134405331B78E1
:1046D0007F2B01F27B8701A252F823F0DD4800080E
:1046E000D3490008CD4A0008A14B0008CD4C000872
:1046F000AB4D00089D4E0008A54F000897500008DC
:10470000575100081752000817530008D7530008E4
:10471000975400086F5500085956000819570008AB
:10472000CD650008CD650008CD650008F15700088B
:1047300049590008715A0008995B0008ED5C0008AF
:10474000155E00083D5F0008DD5F00084960000855
:10475000B5600008216100088D610008F96100085A
:10476000CD650008CD650008CD650008CD65000861
:10477000CD650008CD650008CD650008CD65000851
:10478000CD650008CD650008CD650008CD65000841
:10479000CD650008CD650008CD650008CD65000831
:1047A000E5620008CD650008AB630008CD65000830
:1047B00065640008CD650008CD650008CD6500087A
:1047C000CD650008CD650008CD650008CD65000801
:1047D000CD650008CD650008CD650008CD650008F1
:1047E000CD650008CD650008CD650008CD650008E1
:1047F000CD650008CD650008CD650008CD650008D1
:10480000CD650008CD650008CD650008CD650008C0
:10481000CD650008CD650008CD650008CD650008B0
:10482000CD650008CD650008CD650008CD650008A0
:10483000CD650008CD650008CD650008CD65000890
:10484000CD650008CD650008CD650008CD65000880
:10485000CD650008CD650008CD650008CD65000870
:10486000B3640008CD650008CD650008CD6500087B
:10487000CD650008CD650008CD650008CD65000850
:10488000CD650008CD650008CD650008CD65000840
:10489000CD650008CD650008CD650008CD65000830
:1048A000CD650008CD650008CD650008CD65000820
:1048B000CD650008CD650008CD650008CD65000810
:1048C000CD650008CD650008CD650008CD65000800
:1048D000CD650008CD6500084965000807F1200393
:1048E0001946302007F073FF0346012B52D1FB7BA2
:1048F0004FF4867202FB03F3204A9818B7F9203070
:104900001A46B7F922301946B7F9243000930B46FE
:104910001E4924F067FCFB7B4FF4867202FB03F315
:10492000164A13441946D7F88C00FFF751F9FB7B60
:104930004FF4867202FB03F3104A9818B7F920303F
:104940001A46B7F922301946B7F9243000930B46BE
:104950000F4924F047FCFB7B4FF4867202FB03F304
:10496000064A13441946D7F88C00FFF731F906F0D0
:10497000C2BB00BF68E60020F4EA0020C815002092
:10498000DCD70208F0D702082408002014D8020857
:1049900024D80208C14807F007F9FB7B4FF4867260
:1049A00002FB03F3BE4A1344BE4A18461146542381
:1049B0001A4623F05CFCFB7B4FF4867202FB03F388
:1049C000B74A13441946D7F88C00FFF701F906F0EF
:1049D00092BBFB7BB44A1B02134406331978FB7B62
:1049E0001B020733B04A13441A46302007F0C6FDB5
:1049F0000346012B49D1FB7B4FF4867202FB03F384
:104A0000A74A9818FB7BA84A1B02134406331B785D
:104A10001946FB7BA44A1B02134407331B780A4642
:104A2000A24924F0DFFBFB7B4FF4867202FB03F309
:104A30009B4A13441946D7F88C00FFF7C9F8FB7B53
:104A40004FF4867202FB03F3954A9818FB7B964A53
:104A50001B02134406331B781946FB7B924A1B0248
:104A6000134407331B780A46914924F0BBFBFB7BB8
:104A70004FF4867202FB03F3894A13441946D7F8B0
:104A80008C00FFF7A5F806F036BBFB7B4FF486726F
:104A900002FB03F3824A1344864A1D4614460FCC98
:104AA00028606960AA60EB6007CC28616961AA612F
:104AB000FB7B4FF4867202FB03F3794A13441946D9
:104AC000D7F88C00FFF784F806F015BB07F1200338
:104AD0001946322007F07BFE0346012B41D1FB7BB8
:104AE0004FF4867202FB03F36D4A9818B7F9203031
:104AF0001A46B7F922301946B7F9243000930B460D
:104B00006D4924F06FFBFB7B4FF4867202FB03F3CD
:104B1000634A13441946D7F88C00FFF759F8FB7B1A
:104B20004FF4867202FB03F35D4A9818B7F9203000
:104B30001A46B7F922301946B7F9243000930B46CC
:104B40005E4924F04FFBFB7B4FF4867202FB03F3BC
:104B5000534A13441946D7F88C00FFF739F806F08A
:104B6000CABA4E4807F020F8FB7B4FF4867202FB6E
:104B700003F34B4A1344524A184611464E231A4631
:104B800023F075FBFB7B4FF4867202FB03F3444A70
:104B900013441946D7F88C00FFF71AF806F0ABBAA1
:104BA000FB7B414A1B02134406331978FB7B1B0233
:104BB00007333D4A13441A46322007F0DFFC034610
:104BC000012B49D1FB7B4FF4867202FB03F3344A7D
:104BD0009818FB7B344A1B02134406331B78194692
:104BE000FB7B314A1B02134407331B780A463549C5
:104BF00024F0F8FAFB7B4FF4867202FB03F3284A99
:104C000013441946D7F88C00FEF7E2FFFB7B4FF404
:104C1000867202FB03F3224A9818FB7B224A1B028E
:104C2000134406331B781946FB7B1F4A1B021344AF
:104C300007331B780A46244924F0D4FAFB7B4FF44F
:104C4000867202FB03F3164A13441946D7F88C0008
:104C5000FEF7BEFF06F04FBAFB7B4FF4867202FBF5
:104C600003F30F4A1344134A1D4614460FCC286021
:104C70006960AA60EB6007CC28616961AA61FB7B6F
:104C80004FF4867202FB03F3054A13441946D7F822
:104C90008C00FEF79DFF06F02EBA00BFDCE6002078
:104CA000C815002044D802082408002098D802081B
:104CB000A8D80208D4D80208F0D8020800D90208FF
:104CC00020D9020870D9020880D9020807F1280308
:104CD0003821184608F0C6FB0346002B1FD0A74812
:104CE00006F062FFFB7B4FF4867202FB03F3A44ADB
:104CF0001344A44A1C4615460FCD20606160A26093
:104D0000E360FB7B4FF4867202FB03F39C4A13447F
:104D10001946D7F88C00FEF75BFF06F0ECB9FB7B79
:104D20004FF4867202FB03F3954A9818D7E90A56A6
:104D3000D7E90C34D7E90E12CDE90212CDE90034DF
:104D40002A463346904924F04DFAFB7B4FF4867295
:104D500002FB03F38A4A13441946D7F88C00FEF786
:104D600037FFFB7B4FF4867202FB03F3844A9818EB
:104D7000D7E90A56D7E90C34D7E90E12CDE9021269
:104D8000CDE900342A463346804924F02BFAFB7BD8
:104D90004FF4867202FB03F3794A13441946D7F89D
:104DA0008C00FEF715FF06F0A6B9FB7B784A1B02C4
:104DB000134406331978FB7B1B020733744A1344F0
:104DC0001A4638200DF05EF80346012B49D1FB7BD3
:104DD0004FF4867202FB03F3694A9818FB7B6C4A16
:104DE0001B02134406331B781946FB7B684A1B02DF
:104DF000134407331B780A46664924F0F3F9FB7B1A
:104E00004FF4867202FB03F35D4A13441946D7F848
:104E10008C00FEF7DDFEFB7B4FF4867202FB03F392
:104E2000574A9818FB7B5A4A1B02134406331B78D7
:104E30001946FB7B564A1B02134407331B780A466C
:104E4000554924F0CFF9FB7B4FF4867202FB03F344
:104E50004B4A13441946D7F88C00FEF7B9FE06F00A
:104E60004AB9FB7B4FF4867202FB03F3444A1344B6
:104E7000444A1C4615460FCD20606160A260E36085
:104E8000FB7B4FF4867202FB03F33D4A1344194641
:104E9000D7F88C00FEF79CFE06F02DB93C2008F0F8
:104EA000A6FA07F128033C21184608F0DBFA03466E
:104EB000002B1CD0FB7B4FF4867202FB03F3304ABD
:104EC0001344304A1C4615460FCD20606160A26035
:104ED000E360FB7B4FF4867202FB03F3284A134422
:104EE0001946D7F88C00FEF773FE06F004B9FB7B79
:104EF0004FF4867202FB03F3214A9818D7E90A5649
:104F0000D7E90C34D7E90E12CDE90212CDE900340D
:104F10002A463346214924F065F9FB7B4FF486721B
:104F200002FB03F3164A13441946D7F88C00FEF728
:104F30004FFEFB7B4FF4867202FB03F3104A981876
:104F4000D7E90A56D7E90C34D7E90E12CDE9021297
:104F5000CDE900342A463346114924F043F9FB7B5E
:104F60004FF4867202FB03F3054A13441946D7F83F
:104F70008C00FEF72DFE06F0BEB800BFDCE6002078
:104F8000C8150020BCD70208ACD90208C4D9020851
:104F90002408002098D8020810DA020838DA02083B
:104FA00050DA0208FB7BC34A1B021344063319780C
:104FB000FB7B1B020733BF4A13441A463C200CF00C
:104FC00061FF0346012B49D1FB7B4FF4867202FB44
:104FD00003F3B94A9818FB7BB64A1B021344063305
:104FE0001B781946FB7BB34A1B02134407331B781B
:104FF0000A46B24924F0F6F8FB7B4FF4867202FBB6
:1050000003F3AD4A13441946D7F88C00FEF7E0FDD0
:10501000FB7B4FF4867202FB03F3A74A9818FB7BD5
:10502000A44A1B02134406331B781946FB7BA14A92
:105030001B02134407331B780A46A14924F0D2F817
:10504000FB7B4FF4867202FB03F39B4A1344194621
:10505000D7F88C00FEF7BCFD06F04DB8FB7B4FF493
:10506000867202FB03F3944A1344964A1C46154683
:105070000FCD20606160A260E360FB7B4FF486721D
:1050800002FB03F38C4A13441946D7F88C00FEF751
:105090009FFD06F030B807F12003194600200DF0FF
:1050A0009DFB0346012B39D1B7F9203047F6FF723B
:1050B000934233D0FB7B4FF4867202FB03F37E4AAC
:1050C0001344B7F920208049184624F08BF8FB7B65
:1050D0004FF4867202FB03F3774A13441946D7F85C
:1050E0008C00FEF775FDFB7B4FF4867202FB03F329
:1050F000714A1344B7F920207449184624F072F815
:10510000FB7B4FF4867202FB03F36B4A1344194690
:10511000D7F88C00FEF75CFD05F0EDBFFB7B4FF48C
:10512000867202FB03F3644A1344664A1C46154622
:105130000FCD20606160A260E360FB7B4FF486725C
:1051400002FB03F35C4A13441946D7F88C00FEF7C0
:105150003FFD05F0D0BF07F12003194600200DF0F8
:105160000FFC0346012B39D1B7F9203047F6FF7207
:10517000934233D0FB7B4FF4867202FB03F34E4A1B
:105180001344B7F920205049184624F02BF8FB7B34
:105190004FF4867202FB03F3474A13441946D7F8CB
:1051A0008C00FEF715FDFB7B4FF4867202FB03F3C8
:1051B000414A1344B7F920204549184624F012F813
:1051C000FB7B4FF4867202FB03F33B4A1344194600
:1051D000D7F88C00FEF7FCFC05F08DBFFB7B4FF48D
:1051E000867202FB03F3344A1344364A1C461546C2
:1051F0000FCD20606160A260E360FB7B4FF486729C
:1052000002FB03F32C4A13441946D7F88C00FEF72F
:10521000DFFC05F070BFFB7B264A1B0213440633FC
:105220001B7807F14801032218460DF013FA0346D4
:10523000012B53D1FB7B4FF4867202FB03F31E4A12
:105240009818FB7B1B4A1B02134406331B781A4633
:10525000B7F848301F4923F0C5FFFB7B4FF4867237
:1052600002FB03F3144A13441946D7F88C00FEF7E7
:10527000AFFCFB7B4FF4867202FB03F30E4A9818D7
:10528000FB7B0C4A1B02134406331B781A46B7F803
:105290004830114923F0A6FFFB7B4FF4867202FBD6
:1052A00003F3054A13441946D7F88C00FEF790FC27
:1052B00005F021BF24080020C815002070D902087D
:1052C0009CDA0208BCD70208C4DA0208CCDA020869
:1052D000E4DA020898D80208FCDA0208FB7B4FF4F3
:1052E000867202FB03F3D24A1344D24A1C46154687
:1052F0000FCD20606160A260E360FB7B4FF486729B
:1053000002FB03F3CA4A13441946D7F88C00FEF790
:105310005FFC05F0F0BE07F12003194601200DF0F7
:105320005DFA0346012B39D1B7F9223047F6FF72F7
:10533000934233D0FB7B4FF4867202FB03F3BC4AEB
:105340001344B7F92220BC49184623F04BFFFB7BDE
:105350004FF4867202FB03F3B54A13441946D7F89B
:105360008C00FEF735FCFB7B4FF4867202FB03F3E7
:10537000AF4A1344B7F92220B049184623F032FF50
:10538000FB7B4FF4867202FB03F3A94A13441946D0
:10539000D7F88C00FEF71CFC05F0ADBEFB7B4FF48C
:1053A000867202FB03F3A24A1344A24A1C46154626
:1053B0000FCD20606160A260E360FB7B4FF48672DA
:1053C00002FB03F39A4A13441946D7F88C00FEF700
:1053D000FFFB05F090BE07F12003194601200DF0F8
:1053E000CFFA0346012B39D1B7F9223047F6FF72C5
:1053F000934233D0FB7B4FF4867202FB03F38C4A5B
:105400001344B7F922208C49184623F0EBFEFB7BAE
:105410004FF4867202FB03F3854A13441946D7F80A
:105420008C00FEF7D5FBFB7B4FF4867202FB03F387
:105430007F4A1344B7F922208149184623F0D2FE4F
:10544000FB7B4FF4867202FB03F3794A134419463F
:10545000D7F88C00FEF7BCFB05F04DBEFB7B4FF48C
:10546000867202FB03F3724A1344724A1C461546C5
:105470000FCD20606160A260E360FB7B4FF4867219
:1054800002FB03F36A4A13441946D7F88C00FEF76F
:105490009FFB05F030BEFB7B6A4A1B0213440633B8
:1054A0001B7807F14801042218460DF0D3F8034693
:1054B000012B3FD1FB7B4FF4867202FB03F35C4A66
:1054C0009818FB7B5F4A1B02134406331B781A466D
:1054D000B7F848305C4923F085FEFB7B4FF48672B9
:1054E00002FB03F3524A13441946D7F88C00FEF727
:1054F0006FFBFB7B4FF4867202FB03F34C4A981858
:10550000FB7B504A1B02134406331B781A46B7F83C
:1055100048304E4923F066FEFB7B4FF4867202FB57
:1055200003F3434A13441946D7F88C00FEF750FBA7
:1055300005F0E1BDFB7B4FF4867202FB03F33C4AAE
:1055400013443C4A1C4615460FCD20606160A260A2
:10555000E360FB7B4FF4867202FB03F3344A13448F
:105560001946D7F88C00FEF733FB05F0C4BD07F1F0
:105570002003194602200DF031F90346012B39D1E1
:10558000B7F9243047F6FF72934233D0FB7B4FF4D8
:10559000867202FB03F3264A1344B7F924202C49F0
:1055A000184623F01FFEFB7B4FF4867202FB03F3C9
:1055B0001F4A13441946D7F88C00FEF709FBFB7B02
:1055C0004FF4867202FB03F3194A1344B7F92420FF
:1055D0002049184623F006FEFB7B4FF4867202FB3F
:1055E00003F3134A13441946D7F88C00FEF7F0FA78
:1055F00005F081BDFB7B4FF4867202FB03F30C4A7E
:1056000013440C4A1C4615460FCD20606160A26011
:10561000E360FB7B4FF4867202FB03F3044A1344FE
:105620001946D7F88C00FEF7D3FA05F064BD00BF29
:10563000C8150020BCD7020820DB020828DB0208BE
:1056400040DB02082408002070D9020858DB020859
:105650007CDB020884DB020807F1200319460220E4
:105660000DF08EF90346012B39D1B7F9243047F6F6
:10567000FF72934233D0FB7B4FF4867202FB03F33D
:10568000A54A1344B7F92420A449184623F0AAFDDB
:10569000FB7B4FF4867202FB03F39F4A13441946C7
:1056A000D7F88C00FEF794FAFB7B4FF4867202FB6E
:1056B00003F3994A1344B7F924209949184623F073
:1056C00091FDFB7B4FF4867202FB03F3924A134475
:1056D0001946D7F88C00FEF77BFA05F00CBDFB7B72
:1056E0004FF4867202FB03F38B4A13448D4A1C4627
:1056F00015460FCD20606160A260E360FB7B4FF434
:10570000867202FB03F3844A13441946D7F88C00CF
:10571000FEF75EFA05F0EFBCFB7B834A1B021344E5
:1057200006331B7807F14801052218460CF092FF5A
:105730000346012B3FD1FB7B4FF4867202FB03F340
:10574000754A9818FB7B784A1B02134406331B7872
:105750001A46B7F84830754923F044FDFB7B4FF4F7
:10576000867202FB03F36C4A13441946D7F88C0087
:10577000FEF72EFAFB7B4FF4867202FB03F3664AB8
:105780009818FB7B684A1B02134406331B781A46A1
:10579000B7F84830664923F025FDFB7B4FF486724D
:1057A00002FB03F35C4A13441946D7F88C00FEF75A
:1057B0000FFA05F0A0BCFB7B4FF4867202FB03F3EB
:1057C000554A1344574A1C4615460FCD2060616068
:1057D000A260E360FB7B4FF4867202FB03F34E4A48
:1057E00013441946D7F88C00FEF7F2F905F083BC94
:1057F0000CF0FAFC07F1180318460DF0AFF9034658
:10580000012B63D14B4B1B78DBB203F00103002B60
:105810005CD0B7F91830002B00DA0733DB101BB26D
:105820001A4613469B0013445B00002B00DA0F332B
:105830001B11A7F84E30FB7B4FF4867202FB03F37B
:10584000354A1344B7F9182092B23B49184623F061
:10585000C9FCFB7B4FF4867202FB03F32E4A134410
:105860001946D7F88C00FEF7B3F9FB7B4FF486722C
:1058700002FB03F3284A9818B7F94E302F4A82FBEF
:1058800003129210DB17D31A1BB21C46B7F94E2035
:105890002A4B83FB02139910D317C91A0B469B009E
:1058A0000B445B00D31A1BB22246254923F09AFC15
:1058B000FB7B4FF4867202FB03F3174A134419462D
:1058C000D7F88C00FEF784F905F015BCFB7B4FF48C
:1058D000867202FB03F3104A13441A4A1D4614460B
:1058E0000FCC28606960AA60EB6007CC2861696111
:1058F000AA612388A278AB831346AB77FB7B4FF476
:10590000867202FB03F3044A13441946D7F88C004D
:10591000FEF75EF905F0EFBBC81500207CDB02083E
:105920009CDB0208BCD7020824080020B4DB020874
:10593000C4DB020880CF0020E8DB020867666666E9
:10594000F4DB020818DC02080CF04EFC07F1180327
:1059500018460DF003F90346012B63D1C54B1B78A4
:10596000DBB203F00203002B5CD0B7F91A30002B36
:1059700000DA0733DB101BB21A4613469B001344B0
:105980005B00002B00DA0F331B11A7F84E30FB7BB6
:105990004FF4867202FB03F3B74A1344B7F91A2097
:1059A00092B2B649184623F01DFCFB7B4FF4867279
:1059B00002FB03F3B04A13441946D7F88C00FEF7F4
:1059C00007F9FB7B4FF4867202FB03F3AA4A98188F
:1059D000B7F94E30AA4A82FB03129210DB17D31A92
:1059E0001BB21C46B7F94E20A54B83FB021399103E
:1059F000D317C91A0B469B000B445B00D31A1BB28A
:105A00002246A04923F0EEFBFB7B4FF4867202FB9B
:105A100003F3994A13441946D7F88C00FEF7D8F8D7
:105A200005F069BBFB7B4FF4867202FB03F3924ADD
:105A30001344954A1D4614460FCC28606960AA603D
:105A4000EB6007CC28616961AA612388A278AB83E7
:105A50001346AB77FB7B4FF4867202FB03F3864A57
:105A600013441946D7F88C00FEF7B2F805F043BB93
:105A70000CF0BAFB07F1180318460DF06FF8034657
:105A8000012B63D17B4B1B78DBB203F00403002BAB
:105A90005CD0B7F91C30002B00DA0733DB101BB2E7
:105AA0001A4613469B0013445B00002B00DA0F33A9
:105AB0001B11A7F84E30FB7B4FF4867202FB03F3F9
:105AC0006D4A1344B7F91C2092B27049184623F06E
:105AD00089FBFB7B4FF4867202FB03F3664A134497
