:020000040800F2
:10000000000003209DC0000833E6010841E6010816
:10001000A9E60108C9E60108E9E6010800000000B8
:10002000000000000000000000000000A12A0108FC
:1000300009E7010800000000B12C010817E70108DA
:1000400025E70108EDC00008EDC00008EDC000087C
:10005000EDC00008EDC00008EDC00008EDC00008CC
:10006000EDC00008EDC00008EDC00008EDC00008BC
:10007000EDC00008EDC0000825EA0108EDC0000849
:10008000EDC00008EDC00008EDC00008EDC000089C
:10009000EDC00008EDC00008EDC00008EDC000088C
:1000A000EDC0000839EA0108EDC00008EDC0000805
:1000B000EDC00008EDC00008EDC0000875EA0108B9
:1000C00089EA01089DEA0108B1EA0108EDC00008CB
:1000D000EDC0000881E70108EDC00008EDC0000890
:1000E00039E70108EDC00008EDC00008EDC00008C8
:1000F000EDC00008EDC00008EDC00008EDC000082C
:10010000EDC000086DE70108EDC00008EDC0000873
:1001100009E80108EDC00008EDC00008EDC00008C6
:10012000EDC00008EDC00008EDC000084DEA010870
:10013000EDC00008EDC00008EDC00008EDC00008EB
:10014000EDC00008EDC00008EDC00008EDC00008DB
:10015000EDC0000861EA0108EDC0000895E801085B
:10016000C5EA0108D9EA0108EDC00008EDC00008A1
:10017000EDC00008EDC00008EDC000080000000060
:10018000EDC00008EDC0000821E90108EDC000083D
:10019000EDC00008EDC00008EDC00008EDC000088B
:0C01A0000000000000000000EDC000089E
:1001B00010B5054C237833B9044B13B10448AFF3A1
:1001C00000800123237010BD900700200000000074
:1001D000AC3C020808B5034B1BB103490348AFF31D
:1001E000008008BD0000000094070020AC3C02081D
:1001F00081F0004102E000BF83F0004330B54FEAD8
:1002000041044FEA430594EA050F08BF90EA020F44
:100210001FBF54EA000C55EA020C7FEA645C7FEAD7
:10022000655C00F0E2804FEA5454D4EB5555B8BFFA
:100230006D420CDD2C4480EA020281EA030382EA6B
:10024000000083EA010180EA020281EA0303362DFD
:1002500088BF30BD11F0004F4FEA01314FF4801CD0
:100260004CEA113102D0404261EB410113F0004FE2
:100270004FEA03334CEA133302D0524263EB430399
:1002800094EA050F00F0A780A4F10104D5F1200E37
:100290000DDB02FA0EFC22FA05F2801841F1000192
:1002A00003FA0EF2801843FA05F359410EE0A5F166
:1002B00020050EF1200E012A03FA0EFC28BF4CF097
:1002C000020C43FA05F3C01851EBE37101F000454D
:1002D00007D54FF0000EDCF1000C7EEB00006EEB5A
:1002E0000101B1F5801F1BD3B1F5001F0CD34908E4
:1002F0005FEA30004FEA3C0C04F101044FEA44523B
:1003000012F5800F80F09A80BCF1004F08BF5FEAC1
:10031000500C50F1000041EB045141EA050130BDA1
:100320005FEA4C0C404141EB010111F4801FA4F144
:100330000104E9D191F0000F04BF01460020B1FA99
:1003400081F308BF2033A3F10B03B3F120020CDAD1
:100350000C3208DD02F1140CC2F10C0201FA0CF0AF
:1003600021FA02F10CE002F11402D8BFC2F1200C14
:1003700001FA02F120FA0CFCDCBF41EA0C019040CA
:10038000E41AA2BF01EB0451294330BD6FEA040413
:100390001F3C1CDA0C340EDC04F11404C4F12002FE
:1003A00020FA04F001FA02F340EA030021FA04F310
:1003B00045EA030130BDC4F10C04C4F1200220FA67
:1003C00002F001FA04F340EA0300294630BD21FAA5
:1003D00004F0294630BD94F0000F83F4801306BF6B
:1003E00081F480110134013D4EE77FEA645C18BF5F
:1003F0007FEA655C29D094EA050F08BF90EA020FF6
:1004000005D054EA000C04BF1946104630BD91EAED
:10041000030F1EBF0021002030BD5FEA545C05D1F0
:100420004000494128BF41F0004130BD14F580042F
:100430003CBF01F5801130BD01F0004545F0FE41A3
:1004400041F470014FF0000030BD7FEA645C1ABFD8
:10045000194610467FEA655C1CBF0B46024650EA0F
:10046000013406BF52EA033591EA030F41F400213B
:1004700030BD00BF90F0000F04BF0021704730B5C1
:100480004FF4806404F132044FF000054FF0000196
:1004900050E700BF90F0000F04BF0021704730B557
:1004A0004FF4806404F1320410F0004548BF40422C
:1004B0004FF000013EE700BF42004FEAE2014FEA81
:1004C00031014FEA02701FBF12F07F4393F07F4F5C
:1004D00081F06051704732F07F4208BF704793F05F
:1004E0007F4F04BF41F40021704730B54FF4607472
:1004F00001F0004521F000411CE700BF50EA010275
:1005000008BF704730B54FF000050AE050EA01021D
:1005100008BF704730B511F0004502D5404261EB8D
:1005200041014FF4806404F132045FEA915C3FF4CE
:10053000D8AE4FF003025FEADC0C18BF03325FEA6B
:10054000DC0C18BF033202EBDC02C2F1200300FA1C
:1005500003FC20FA02F001FA03FE40EA0E0021FA41
:1005600002F11444BDE600BF70B54FF0FF0C4CF42F
:10057000E06C1CEA11541DBF1CEA135594EA0C0FE1
:1005800095EA0C0F00F0DEF82C4481EA030621EA1C
:100590004C5123EA4C5350EA013518BF52EA033557
:1005A00041F4801143F4801338D0A0FB02CE4FF009
:1005B0000005E1FB02E506F00042E0FB03E54FF039
:1005C0000006E1FB03569CF0000F18BF4EF0010E31
:1005D000A4F1FF04B6F5007F64F5407404D25FEA2D
:1005E0004E0E6D4146EB060642EAC62141EA5551E0
:1005F0004FEAC52040EA5E504FEACE2EB4F1FD0C22
:1006000088BFBCF5E06F1ED8BEF1004F08BF5FEA9F
:10061000500E50F1000041EB045170BD06F0004651
:1006200046EA010140EA020081EA0301B4EB5C04FE
:10063000C2BFD4EB0C0541EA045170BD41F48011F6
:100640004FF0000E013C00F3AB8014F1360FDEBF1B
:10065000002001F0004170BDC4F10004203C35DAF7
:100660000C341BDC04F11404C4F1200500FA05F37A
:1006700020FA04F001FA05F240EA020001F000421B
:1006800021F0004110EBD37021FA04F642EB060191
:100690005EEA430E08BF20EAD37070BDC4F10C04BB
:1006A000C4F1200500FA04F320FA05F001FA04F27F
:1006B00040EA020001F0004110EBD37041F100016B
:1006C0005EEA430E08BF20EAD37070BDC4F1200576
:1006D00000FA05F24EEA020E20FA04F301FA05F2DE
:1006E00043EA020321FA04F001F0004121FA04F286
:1006F00020EA020000EBD3705EEA430E08BF20EA56
:10070000D37070BD94F0000F0FD101F0004640008F
:1007100041EB010111F4801F08BF013CF7D041EA11
:10072000060195F0000F18BF704703F00046520015
:1007300043EB030313F4801F08BF013DF7D043EAE6
:100740000603704794EA0C0F0CEA135518BF95EA9C
:100750000C0F0CD050EA410618BF52EA4306D1D123
:1007600081EA030101F000414FF0000070BD50EA42
:10077000410606BF1046194652EA430619D094EACC
:100780000C0F02D150EA013613D195EA0C0F05D1B6
:1007900052EA03361CBF104619460AD181EA03010A
:1007A00001F0004141F0FE4141F470014FF00000C2
:1007B00070BD41F0FE4141F4780170BD70B54FF05D
:1007C000FF0C4CF4E06C1CEA11541DBF1CEA1355DD
:1007D00094EA0C0F95EA0C0F00F0A7F8A4EB0504BF
:1007E00081EA030E52EA03354FEA013100F08880B6
:1007F0004FEA03334FF0805545EA131343EA12637F
:100800004FEA022245EA111545EA10654FEA002633
:100810000EF000419D4208BF964244F1FD0404F5EC
:10082000407402D25B084FEA3202B61A65EB030548
:100830005B084FEA32024FF480104FF4002CB6EB05
:10084000020E75EB030E22BFB61A754640EA0C0085
:100850005B084FEA3202B6EB020E75EB030E22BFC5
:10086000B61A754640EA5C005B084FEA3202B6EB06
:10087000020E75EB030E22BFB61A754640EA9C00C5
:100880005B084FEA3202B6EB020E75EB030E22BF95
:10089000B61A754640EADC0055EA060E18D04FEA53
:1008A000051545EA16754FEA06164FEAC30343EAF3
:1008B00052734FEAC2025FEA1C1CC0D111F4801FC0
:1008C0000BD141EA00014FF000004FF0004CB6E7B9
:1008D00011F4801F04BF01430020B4F1FD0C88BF58
:1008E000BCF5E06F3FF6AFAEB5EB030C04BFB6EB63
:1008F000020C5FEA500C50F1000041EB045170BD56
:100900000EF0004E4EEA113114EB5C04C2BFD4EB82
:100910000C0541EA045170BD41F480114FF0000E06
:10092000013C90E645EA060E8DE60CEA135594EA82
:100930000C0F08BF95EA0C0F3FF43BAF94EA0C0F85
:100940000AD150EA01347FF434AF95EA0C0F7FF4FA
:1009500025AF104619462CE795EA0C0F06D152EA4E
:1009600003353FF4FDAE1046194622E750EA410632
:1009700018BF52EA43067FF4C5AE50EA41047FF443
:100980000DAF52EA43057FF4EBAE12E74FF0FF3CA8
:1009900006E000BF4FF0010C02E000BF4FF0010C79
:1009A0004DF804CD4FEA410C7FEA6C5C4FEA430CF2
:1009B00018BF7FEA6C5C1BD001B050EA410C0CBF41
:1009C00052EA430C91EA030F02BF90EA020F0020A3
:1009D000704710F1000F91EA030F58BF994208BF0A
:1009E00090422CBFD8176FEAE37040F001007047C7
:1009F0004FEA410C7FEA6C5C02D150EA013C07D11E
:100A00004FEA430C7FEA6C5CD6D152EA033CD3D068
:100A10005DF8040B704700BF8446104662468C4662
:100A20001946634600E000BF01B5FFF7B7FF002895
:100A300048BF10F1000F01BD4DF808EDFFF7F4FFBE
:100A40000CBF012000205DF808FB00BF4DF808ED49
:100A5000FFF7EAFF34BF012000205DF808FB00BF6C
:100A60004DF808EDFFF7E0FF94BF012000205DF88E
:100A700008FB00BF4DF808EDFFF7CEFF94BF012043
:100A800000205DF808FB00BF4DF808EDFFF7C4FF3C
:100A900034BF012000205DF808FB00BF4FEA410C85
:100AA0007FEA6C5C02D150EA013C0AD14FEA430C68
:100AB0007FEA6C5C02D152EA033C02D14FF00000A5
:100AC00070474FF0010070474FEA410212F50012E3
:100AD00015D211D56FF47873B3EB625212D94FEA85
:100AE000C12343F0004343EA505311F0004F23FA6F
:100AF00002F018BF404270474FF00000704750EAC4
:100B0000013005D111F0004008BF6FF00040704780
:100B10004FF00000704700BF4A0011D212F50012DA
:100B200011D20DD56FF47873B3EB62520ED44FEA45
:100B3000C12343F0004343EA505323FA02F07047C5
:100B40004FF00000704750EA013002D14FF0FF3003
:100B500070474FF000007047034613F8012B002A3E
:100B6000FBD1181A01387047000000000000000097
:100B700001F0FF01102A2BDB10F0070F08D010F84E
:100B8000013B013A8B422DD010F0070F42B3F6D152
:100B9000F0B441EA012141EA014122F007047FF06B
:100BA00000070023F0E80256083C85EA010586EAC2
:100BB000010685FA47F5A3FA87F586FA47F6A5FAFE
:100BC00087F68EB9EED1F0BC01F0FF0102F007020A
:100BD00032B110F8013B013A83EA010313B1F8D1B5
:100BE0000020704701387047002D06BF3546033896
:100BF000073815F0010F07D1013015F4807F02BFCF
:100C0000013015F4C03F0130F0BC0138704700BF1F
:100C100080B582B000AF786038200CF0E0F9034670
:100C2000002B0ED19F4B1B680D2201219E480CF01A
:100C3000DFFB9E4B1B680D2201219B480CF0D8FB6B
:100C40000DE0984B1B680C22012199480CF0D0FB59
:100C5000964B1B680C22012195480CF0C9FB3C20E7
:100C60000CF0BDF90346002B0ED18E4B1B680D22F4
:100C7000012190480CF0BCFB8C4B1B680D2201211C
:100C80008C480CF0B5FB0DE0864B1B680C22012153
:100C900089480CF0ADFB854B1B680C22012186486E
:100CA0000CF0A6FB30200BF022FA0346012B0ED1EC
:100CB0007C4B1B680D22012180480CF099FB7B4B7B
:100CC0001B680D2201217D480CF092FB02E07C485C
:100CD0000AF062FD32200BF00AFA0346012B0ED116
:100CE000704B1B680D22012176480CF081FB6F4B85
:100CF0001B680D22012173480CF07AFB02E070485A
:100D00000AF04AFD11F056F801220021032011F0EB
:100D100007F90346012B0DD1624B1B6801226A497A
:100D200018460CF005FA614B1B680122664918460B
:100D30000CF0FEF901220021042011F0F1F8034625
:100D4000012B0DD1574B1B6802225F4918460CF04E
:100D5000EFF9564B1B6802225B4918460CF0E8F984
:100D600001220021052011F0DBF80346012B0DD1F3
:100D70004C4B1B680322544918460CF0D9F94B4BD5
:100D80001B680322504918460CF0D2F9032011F0D9
:100D900099FA0346012B0ED1424B1B6801224B49A5
:100DA00018460CF0C5F9414B1B680122474918460B
:100DB0000CF0BEF90DE03B4B1B680122444918467C
:100DC0000CF0B6F9394B1B680122414918460CF06A
:100DD000AFF9042011F076FA0346012B0ED1314B06
:100DE0001B680222394918460CF0A2F92F4B1B68E8
:100DF0000222364918460CF09BF90DE0294B1B687E
:100E00000222334918460CF093F9284B1B68022242
:100E10002F4918460CF08CF9052011F053FA0346BF
:100E2000012B0ED11F4B1B680322284918460CF0DA
:100E30007FF91E4B1B680322244918460CF078F9F1
:100E40000DE0184B1B680322214918460CF070F97D
:100E5000164B1B6803221E4918460CF069F9012045
:100E60001EF0DCFE01201EF0D9FE01201EF0BAFEAD
:100E7000002001F0A3FD01201EF0B4FE154B5B69BC
:100E8000144A43F01003536132200BF00BFF114B57
:100E90005B69104A23F0100353614FF47A700BF032
:100EA00001FFE8E714000020C83C02080C00002005
:100EB000D83C0208E83C0208F83C0208083D020859
:100EC0004CE60020183D0208283D02083C3D02087F
:100ED0004C3D02080008024090B5DDB000AF07F1BC
:100EE000680318464FF482731A46002120F0A4F9D3
:100EF00007F1500300221A605A609A60DA601A61A2
:100F00009A820023A7F86E3107F15003184600F0CB
:100F1000B5FA07F14E0207F150031146184600F0EA
:100F200091F907F14E031B881846FFF7B3FA4FF00B
:100F300000023C4BFFF718FB03460C4618462146BF
:100F4000FFF7EAFD0346A7F86C3107F1380207F115
:100F500044031146184601F0B3FB07F14403184659
:100F600001F05EFE07F13803184601F059FE07F163
:100F700044023B1D2C49184620F07AFE3B1D1846C2
:100F800001F0AEFA3CE007F16803184600F062FC9D
:100F900007F1680107F144034FF48272184601F02B
:100FA000F3FE07F15003184600F068FA07F14E020D
:100FB00007F150031146184600F044F907F15001BB
:100FC00007F138031622184601F08AFEB7F86E21A1
:100FD000164BA3FB021319090B461B015B1A5B009E
:100FE000D31A9BB2002B06D101201EF0FBFD01217C
:100FF000012001F02DF8B7F86E310133A7F86E31FA
:1010000007F14E031B88002B05D0B7F86E21B7F807
:101010006C319A42B7D30023184607F5BA77BD461C
:1010200090BD00BF0000F83F603D020889888888B5
:1010300080B582B000AF01201EF0D4FD0122102146
:10104000204814F0B3FD0121022000F087FF00F0DA
:10105000C9F80323BB710023FB710BE01A4801F0B0
:101060003FFA1A4801F03CFA01201EF0BBFDFB7963
:101070000133FB7100F0CFF80346002B03D0FA795F
:10108000BB799A42EAD3FA79BB799A4204D10E48E5
:1010900001F026FA012311E00121002000F082FD79
:1010A0000B4801F01DFA01201EF09CFD00211020CC
:1010B00000F078FD074801F013FA002318460837BE
:1010C000BD4680BD00000240743D0208903D02080C
:1010D000B43D0208CC3D020880B500AF01210220DA
:1010E00000F060FD0346002B04D0044801F0F8F93D
:1010F000012300E00023184680BD00BF883F02089E
:1011000080B590B000AF0346FB71FB79002B07D18F
:101110000121032000F046FD0E4801F0E1F916E040
:10112000FB799BB21946012000F03CFD0021032011
:1011300000F038FDFA7907F10C030749184620F052
:1011400097FD07F10C03184601F0CAF900BF4037BC
:10115000BD4680BDB43F0208CC3F020880B500AF59
:101160000E4B1B68132201210D480CF041F901219F
:10117000062001F0FBF80121052000F0EFFE01211F
:10118000052001F0F3F80121052000F0E7FE012120
:10119000012000F05DFF00BF80BD00BF14000020F3
:1011A0004440020880B500AF0C4B1B68122201219D
:1011B0000B480CF01DF90021052001F0D7F80121A2
:1011C000052000F0CBFE0021062001F0CFF8012120
:1011D000012000F03DFF00BF80BD00BF14000020D3
:1011E0005840020880B500AF01201EF0FBFCFFF75D
:1011F000B5FF0121052000F0B1FE01201EF0F2FC38
:10120000FFF7D0FF01211E2000F0A8FE01201EF0F4
:10121000E9FC00BF80BD80B500AF00F09FFB034636
:10122000002B01D001230BE00121052000F096FEE8
:1012300000F094FB0346002B01D0022300E00023C2
:10124000184680BDB0B5A4B000AF786039607B6847
:101250009B7887F88F307B6803331B781B021AB2A8
:101260007B6804331B781BB213431BB2A7F88C3086
:101270007B6805331B781B021AB27B6806331B7828
:101280001BB213431BB2A7F88A307B6807331B7865
:101290001A067B6808331B781B041A437B680933E2
:1012A0001B781B0213437A680A3212781343C7F87B
:1012B000843097F88F30002B0FD007F12003664A57
:1012C0001C4615460FCD0FC495E80300206004347A
:1012D000218002340B0C23700AE007F120035F4ADF
:1012E0001C4615460FCD0FC495E8030084E80300A3
:1012F000B7F88C3003F00103002B0FD007F1200367
:101300001846FFF729FC03461A4607F12003134449
:1013100053491A460B4603CB10605160B7F88C3026
:1013200003F00203002B10D007F120031846FFF74B
:1013300013FC03461A4607F120031344494A1C468E
:10134000134607CB20606160A260B7F88C3003F0D1
:101350000803002B12D007F120031846FFF7FCFB0F
:1013600003461A4607F1200313443F4A1C4613461E
:1013700007CB20606160A2601B782373B7F88C30C4
:1013800003F01003002B24D007F120031846FFF7C9
:10139000E3FB03461A4607F12003134433491A4678
:1013A0000B4603CB106051601B78137207F10803E2
:1013B00000221A605A609A60DA601A619A8207F114
:1013C0000803184600F0C4F807F10803184600F0B7
:1013D00065F9B7F88C3003F02003002B13D007F128
:1013E00020031846FFF7B8FB03461A4607F120030F
:1013F00013441F491A460B4603CB106051601988ED
:101400009B781181937207F12003184601F068F868
:101410003B68B7F88A201A80B7F88A2007F12003C2
:101420001449184620F024FC07F12003184601F067
:1014300057F807F12003D7F884200F49184620F009
:1014400017FC07F12003184601F04AF8B7F88C3072
:1014500018469037BD46B0BD6C4002088440020873
:101460009C400208A4400208B0400208C0400208A4
:10147000CC400208D8400208F040020880B584B091
:1014800000AF78600023BB600023FB7307E0FB7BA9
:101490007A68134400221A70FB7B0133FB73FB7BD9
:1014A000152BF4D991233B7201237B7207F10803BA
:1014B0000421184600F0E0FB214B1B681B22012190
:1014C00020480BF095FF07F108030421184600F0AF
:1014D00081FC0346002B01D001232DE003200BF0FB
:1014E000E1FB01221621786800F0ACFC0346002BDA
:1014F00001D0022320E0124B1B680A22012112486E
:101500000BF076FF0023FB730CE00D4B1868FB7BA0
:101510007A6813441B781A460C490BF009FEFB7BD2
:101520000133FB73FB7B152BEFD9054B1B68194669
:101530000D200BF06FFF002318461037BD4680BD0D
:101540001400002004410208204102082C41020836
:1015500080B5A0B000AF786007F1780300221A6070
:101560001A71942387F87830012387F8793015238E
:1015700087F87A3007F178030521184600F07CFBE4
:10158000002387F87F300AE097F87F307A681344A9
:1015900000221A7097F87F30013387F87F3097F870
:1015A0007F30152BF0D9374800F09AFF07F1780308
:1015B0000521184600F00EFC0346002B04D03248EB
:1015C00000F08EFF012359E003200BF06BFB01229A
:1015D0001621786800F036FC0346002B04D02B4817
:1015E00000F07EFF022349E007F114031846FFF7DD
:1015F000B3FA03461A4607F11403134424491A4662
:101600000B4603CB1060516019889B78118193724F
:10161000002387F87F3018E097F87F307A6813440A
:101620001B781A4607F10C031A49184620F020FBD4
:1016300007F10C0207F114031146184620F064FB71
:1016400097F87F30013387F87F3097F87F30152B7C
:10165000E2D907F114031846FFF77EFA03461A464B
:1016600007F1140313440C4A1188927819809A7078
:1016700007F11403184600F033FF002318468037A3
:10168000BD4680BD3441020850410208684102084D
:10169000204102082C4102087C410208F0B5B7B095
:1016A00000AF7860644800F01BFF7B6802331B7852
:1016B0001B021AB27B6803331B781BB213431BB2A5
:1016C000A7F8D630B7F8D63003F00103002B18D0B6
:1016D00007F10C031846FFF73FFA03461A4607F1D5
:1016E0000C031344554A1C4615460FCD206061601B
:1016F000A260E36028682061AB88AA79A3821346C0
:10170000A375B7F8D63003F00203002B16D007F10B
:101710000C031846FFF720FA03461A4607F10C039C
:101720001344474A1D4614460FCC28606960AA60DE
:10173000EB6003CC2861696123782B76B7F8D6304B
:1017400003F00303002B11D007F10C031846FFF739
:1017500003FA03461A4607F10C031344394A1C46A0
:1017600015460FCD20606160A260E360B7F8D63007
:1017700003F00503002B15D007F10C031846FFF703
:10178000EBF903461A4607F10C0313442E4A1D4693
:1017900014460FCC28606960AA60EB60206828615D
:1017A00023792B75B7F8D63003F00603002B13D03E
:1017B00007F10C031846FFF7CFF903461A4607F165
:1017C0000C031344214A1D4614460FCC286069605F
:1017D000AA60EB6020682861B7F8D63003F00703F1
:1017E000002B1ED007F10C031846FFF7B5F903468E
:1017F0001A4607F10C031344154A14469C4604F19B
:10180000200E654626460FCE28606960AA60EB6010
:1018100010340CF1100C7445F3D163462246127853
:101820001A7007F10C03184600F05AFEB7F8D630CC
:101830001846DC37BD46F0BD804102089C410208D5
:10184000B4410208D0410208E0410208F841020810
:101850000C42020880B584B000AF786007F108033D
:1018600000221A601A7197233B7201237B720023B6
:10187000BB7207F108030521184600F0FDF9314B52
:101880001B681E22012130480BF0B2FD07F108034E
:101890000521184600F09EFA0346002B01D00123D3
:1018A0004BE003200BF0FEF900221021274814F032
:1018B0007DF940F6B8334FF48272796824481AF003
:1018C00029FD0346FB7301221021204814F06EF914
:1018D000FB7B002B0DD01B4B1B68242201211D48D4
:1018E0000BF086FDFB7B0021184600F043FF02232E
:1018F00023E007F1080301220021184600F0A2FAB4
:101900000346002B01D0032317E04FF4827178685F
:1019100000F0D5F9034683F00103DBB2002B06D0BB
:10192000084B1B68242201210B480BF061FD4FF48A
:101930008271786800F070FB002318461037BD46AE
:1019400080BD00BF140000203042020800000240A9
:1019500008EA0020504202087842020880B500AF31
:101960000021012000F044F80346184680BD000025
:1019700080B500AF184B1B881946002000F012F903
:10198000164B1B881946122000F00CF9134B1B88CC
:101990001946122000F006F9114B1B8819460B203E
:1019A00000F000F90F4B1B881946132000F0FAF8DD
:1019B0000D4B1B881946072000F0F4F80B4B1B88D1
:1019C0001946082000F0EEF80121002000F010F880
:1019D0000346184680BD00BF000000200200002022
:1019E000B0070020AE070020B2070020B407002097
:1019F000B0B596B004AF03460A46FB711346BB71FF
:101A000007F1280300221A605A609A60DA601A61AE
:101A10005A611A7607F1200300221A601A71FB79C5
:101A2000002B0AD0554B1B681622012154480BF09D
:101A3000DFFC902387F8283009E0504B1B68162202
:101A4000012150480BF0D4FC922387F82830012361
:101A500087F82930BB79002B0AD0484B1B681C2221
:101A6000012149480BF0C4FC012387F82A3009E022
:101A7000424B1B681C22012144480BF0B9FC002397
:101A800087F82A30424B1A6807F10C03194641487F
:101A900018F0A3FD3E4B1A6807F1080319463D48AC
:101AA00018F0AEFE354B18687B7A1C46BB7A1D4693
:101AB0003B7B7A7BB97B0291019200932B462246B5
:101AC00035490BF035FBBB7B19467B7B1A46134629
:101AD0001B019B1A9B00CA183B7B19464FF461639C
:101AE00003FB01F31A44BB7A19462C4B03FB01F3A9
:101AF0001A447B7A19462A4B03FB01F313447B6497
:101B00007B6C1B0EDBB287F82D307B6C1B0CDBB2C1
:101B100087F82E307B6C1B0ADBB287F82F307B6C8A
:101B2000DBB287F8303007F128031921184600F09E
:101B3000A3F807F128031921184600F04BF90346D2
:101B4000002B01D0012315E003200BF0ABF807F1C7
:101B5000200300220521184600F074F90346002BEB
:101B600001D0022306E007F120030521184600F00A
:101B700053FA002318464837BD46B0BD1400002074
:101B8000C8420208E0420208F8420208184302086C
:101B9000B807002070E80020384302088051010097
:101BA000008D270080B586B000AF03460A46FB7162
:101BB0001346BB8007F1100300221A60C3F803200C
:101BC00007F1080300221A601A7193233B74012362
:101BD0007B74FB79BB74BB881B0A9BB2DBB2FB74C2
:101BE000BB88DBB23B7507F110030721184600F0F4
:101BF00043F81D4B1868FA79BB881C490BF098FA1A
:101C000007F110030721184600F0E4F80346002B03
:101C100008D0154B1B681C22012115480BF0E8FB6E
:101C200001231CE003200BF03DF807F1080300221C
:101C30000521184600F006F90346002B08D00A4B90
:101C40001B681D2201210B480BF0D2FB022306E08A
:101C500007F108030521184600F0DEF900231846B5
:101C60001837BD4680BD00BF14000020684302083D
:101C700088430208A843020880B584B000AF7860AA
:101C800039603B68023B1A4679684FF6FF7000F0F6
:101C900043F80346FB81FB891B0A99B23B68023B70
:101CA0007A681344CAB21A703B68013B7A681344DD
:101CB000FA89D2B21A7000BF1037BD4680BD80B518
:101CC00084B000AF786039603B68023B1A4679689F
:101CD0004FF6FF7000F020F80346FB81FB891B0ADA
:101CE0009BB27B73FB893B733B68023B7A6813446E
:101CF0001B787A7B9A4209D13B68013B7A6813448E
:101D00001B783A7B9A4201D1012300E00023184658
:101D10001037BD4680BD000080B5ADF5087D00AF31
:101D200007F1080319603B1D1A6007F10E03024614
:101D30001A8007F11003264A184611464FF4007323
:101D40001A461FF06EFA4FF6FF73A7F81E320023F3
:101D5000A7F81C322EE0B7F81C3207F1080212680F
:101D600013441B78A7F81A32B7F81E321B0AA7F8DB
:101D70001832B7F81822B7F81A325340A7F81632BB
:101D8000B7F81632DBB2A7F81432B7F81E321B02CE
:101D9000A7F81232B7F8142207F1100333F8122013
:101DA000B7F812325340A7F81E32B7F81C3201338D
:101DB000A7F81C32B7F81C323A1D12689A42CADCE6
:101DC000B7F81E32184607F50877BD4680BD00BF3C
:101DD000C843020880B586B002AF7860396001233D
:101DE000FB733B689AB26423009313467A68CC2154
:101DF000104814F01DF80346FB73FB7B002B13D037
:101E00000D4B1B68262201210C480BF0F1FA0A4BFE
:101E10001B681A2201210A480BF0EAFAFB7B1846DC
:101E200000F0A8FCFB7B00E0002318461037BD46FD
:101E300080BD00BF94E4002014000020C8450208C3
:101E4000F045020880B588B002AFF860B96013466B
:101E5000FB713C4B1B680F2201213B480BF0C8FA79
:101E60000123FB7507F1100300221A601A71BB6889
:101E7000002B36D0BB689AB2642300931346FA68ED
:101E8000CC21324814F0E2F80346FB75FB7D002BB1
:101E90000CD02C4B1B68252201212D480BF0A8FAF1
:101EA000FB7D184600F066FCFB7D46E0BB68B3F5A1
:101EB000827F05D1FB6891221A70FB6895221A7007
:101EC000B968F868FFF7FBFE034683F00103DBB255
:101ED000002B06D01B4B1B68242201211D480BF050
:101EE00087FAFB79002B27D0FB681B783B74012312
:101EF0007B747E23BB7407F1100305211846FFF79E
:101F0000BBFE07F11002642300930523CC210F4888
:101F100013F08EFF0346FB75FB7D002B0CD0094BA5
:101F20001B681C2201210C480BF062FAFB7D18464D
:101F300000F020FC022300E0002318461837BD46BD
:101F400080BD00BF140000200C46020894E400206D
:101F50001C460208784202084446020880B584B054
:101F600000AF03460A46FB8013467B717B79002B4A
:101F700006D0244B1B68FA88234918460BF0D8F882
:101F800001201DF02FFE0023FB8124E064200AF0D5
:101F900089FE01201DF026FE7B79002B18D0FA89DE
:101FA0001A4BA3FB0213D9080B469B000B445B00A2
:101FB000D31A9BB2002B0BD1124B1868FB89134A22
:101FC000A2FB0323DB089BB21A4611490BF0B0F8C1
:101FD000FB890133FB81F989FA8813469B0013447E
:101FE0005B009942D2DB7B79002B06D0054B1B6846
:101FF0000222012107480BF0FBF900BF1037BD4654
:1020000080BD00BF1400002064460208CDCCCCCCBB
:102010007C4602088446020880B582B000AF786032
:1020200039603B68052B0BD17B6802331B787E2B14
:1020300006D1054B1B680F22012104480BF0D8F98B
:1020400000BF0837BD4680BD140000208846020846
:10205000F0B5ADF5497D06AF07F10C03186007F147
:10206000080319607F4BC7F804337F4BC7F8003370
:1020700007F114037D4A07CA83E8070007F53E739A
:102080001946012000F00EF907F53D7319460220AC
:1020900000F008F907F53C7319460B2000F002F92F
:1020A00007F53B731946102000F0FCF807F53A736A
:1020B0001946112000F0F6F86D4B1B681A466D4961
:1020C0006D4818F08AFA6A4B1B681A466B496A48D1
:1020D00018F096FB694BDB781D46684B5B781E4613
:1020E000664B9B781A46634B1B781946614B5B78AD
:1020F0001C46604B9B7807F51A700393029401917C
:10210000009233462A465E491FF0B2FDD7F8F832F6
:102110007B60D7F8F83207EE903AB8EEE77AD7ED61
:10212000C17A67EE277A17EE900AFEF7C5F90446E2
:102130000D46D7F8F462D7F8F43207EE903AB8EECD
:10214000E77AD7EDC07A67EE277A17EE900AFEF7A6
:10215000B3F902460B4607F51A7107F52170CDE970
:1021600004230296CDE900457B680A4645491FF0E5
:102170007FFD07F10C031B68012B5FD107F11401F0
:1021800007F13803132218460DF0A2FA034687F828
:10219000FF3297F8FF32002B41D13B4B1B682922BD
:1021A00001213A480BF024F907F1200207F114034A
:1021B000114618460EF070FB034687F8FF3297F879
:1021C000FF32002B25D1304B1B68302201213048D3
:1021D0000BF00EF907F120031A6807F138031146D6
:1021E00018460EF004F8034687F8FF3297F8FF32DE
:1021F000002B0ED1244B1B683122012125480BF006
:10220000F7F807F5217207F13803114618460AF06E
:102210008FFF07F1380318460DF0BAFF0EE01A4B96
:102220001B682F2201211C480BF0E2F8164B1B689B
:1022300097F8FF22194918460AF07AFF07F10803B8
:102240001B68012B08D1104B1868D7F8EC22D7F87F
:10225000E83213490AF06CFF00BF07F54377BD462B
:10226000F0BD00BFDD24164033334340F847020879
:10227000B80700202CE6002070E800206CE8002061
:1022800098460208B846020814000020F4460208E6
:10229000204702085447020888470208B847020846
:1022A000D447020880B588B004AF03463960FB808C
:1022B0000023BB733B68294A1A6009F0E3F9BB7B32
:1022C000002B17D0FB7B012B0BD0FB7B032B08D003
:1022D000FB7B022B08D1224B93F83D30DBB2202B45
:1022E00002D11F4809F058FA05200AF0DBFCBB7B3D
:1022F000092B15D8FA880A2302930223019307F1C8
:102300000803009301233021154814F0D9F903463E
:10231000FB73BB7B0133BB73FB7B002BCFD100E096
:1023200000BF0F4813F054FDFB7B002B0BD13B7A11
:102330009BB21B029AB27B7A9BB21344BB81BA89CF
:102340003B681A6006E0074B1B6813220121064810
:102350000BF04EF800BF1037BD4680BDF1D8FFFF2F
:10236000D8E50020140000200448020880B588B099
:1023700002AF03460A46FB8013467B710023BB7500
:1023800007F10C033B6109F07DF9BB7D002B17D0F1
:10239000FB7D012B0BD0FB7D032B08D0FB7D022B9B
:1023A00008D11B4B93F83D30DBB2202B02D11848EB
:1023B00009F0F2F905200AF075FCBB7D092B15D850
:1023C000FB88DBB23B737B797B730A230093022388
:1023D0003A6930210E4813F02BFD0346FB75BB7D97
:1023E0000133BB75FB7D002BCFD100E000BF084857
:1023F00013F0EEFCFB7D002B06D0064B1B6814226D
:10240000012105480AF0F4FF00BF1837BD4680BD22
:10241000D8E50020140000201848020880B500AF5D
:1024200001201DF0DFFB00F003FD0346002B04D06C
:10243000164800F055F8012325E001201DF0D2FBDD
:10244000134800F0F9F80346002B04D0114800F0BF
:1024500047F8022317E001201DF0C4FB0C4800F0F0
:1024600023F80346002B04D00B4800F039F803236F
:1024700009E00A4800F034F8094800F031F8094B47
:1024800001221A700023184680BD00BF30480208A0
:10249000F8DC0020504802087C48020894480208F2
:1024A000B0480208B607002080B582B000AF78605F
:1024B000786800F0B5FB0346002B04D0064800F016
:1024C0000FF8012303E0054800F00AF8002318463E
:1024D0000837BD4680BD00BF7C480208944802080A
:1024E00080B584B000AF78600023FB73094B1B7884
:1024F000002B04D0786800F011F80123FB73064B21
:102500001B68796818460AF013FEFB7B18461037E3
:10251000BD4680BDB607002014000020F0B5A1B074
:1025200004AF7860394B1B681A463949394818F0AE
:1025300054F8364B1B681A463749364818F060F98C
:10254000354BDB781D46344B5B781E46324B9B780F
:102550001A462F4B1B7819462D4B5B781C462C4B8B
:102560009B7807F10C00039302940191009233468B
:102570002A462A491FF07CFB07F10C031846FEF798
:10258000EBFA03461A4607F10C031344244A118858
:10259000927819809A7007F10C03796818461FF039
:1025A000B3FB07F10C031846FEF7D6FA03461A46AA
:1025B00007F10C0313441B4A1188927819809A7012
:1025C00007F10C031846FEF7C7FA03469AB207F163
:1025D0000C031946144800F083FB0346002B08D077
:1025E000124B1B681B22012111480AF001FF012335
:1025F00007E00E4B1B681F2201210E480AF0F8FE6F
:10260000002318467437BD46F0BD00BFB807002050
:102610002CE6002070E800206CE80020D448020876
:10262000F4480208F8480208F8DC002014000020F2
:10263000FC4802081849020880B592B000AF7860E3
:10264000002387F84630002387F8473012E097F8D8
:10265000462007F13C03184918461FF009FB07F113
:102660003C03184600F0AEFC0346002B02D10123C8
:1026700087F8473097F8473083F00103DBB2002B2F
:10268000E5D101201DF0AEFA07F13C0207F1080385
:102690000A4918461FF0ECFA07F108031846FFF73D
:1026A0001FFF07F13C03194678681FF03CFB00232D
:1026B00018464837BD4680BD3849020840490208DF
:1026C00080B596B000AF78603960002387F8573046
:1026D000002387F8563016E097F8572007F14C038F
:1026E000214918461FF0C4FA002000F06BFC034695
:1026F000002B03D0012387F8563004E097F85730B9
:10270000013387F8573097F8563083F00103DBB276
:10271000002BE1D101201DF065FA97F8572007F151
:102720004003124918461FF0A3FA07F14C0207F1C3
:102730000C030F4918461FF09BFA07F10C031846CB
:10274000FFF7CEFE07F14C03194678681FF0EBFA4D
:1027500007F14003194638681FF0E5FA00231846D0
:102760005837BD4680BD00BF5C4902086849020871
:102770004049020880B582B000AF0346FB710B46AA
:10278000BB7113467B717B79052B07D9FB79002B35
:1027900004D01048FFF7A4FE00F0FEF8FB79002BF0
:1027A00003D10D48FFF79CFE10E0BB79002B06D04B
:1027B0007A79FB791146184600F05AF806E07A79E2
:1027C000FB791146184600F009F800BF0837BD46EE
:1027D00080BD00BF74490208AC49020880B582B0D0
:1027E00000AF03460A46FB711346BB71BB79052B4C
:1027F00008D91A48FFF774FEBA79FB790021184608
:10280000FFF7B8FFFB79012B07D11548FFF768FEEA
:10281000BB79184600F09EF81BE0FB79022B07D12C
:102820001048FFF75DFEBB79184600F093F810E002
:10283000FB79032B07D10C48FFF752FEBB791846F2
:1028400000F088F805E0FB79002B02D10748FFF77C
:1028500047FE00BF0837BD4680BD00BFE4490208FF
:10286000204A0208384A0208644A0208784A0208E4
:1028700080B582B000AF03460A46FB711346BB71B8
:10288000BB79052B08D91D48FFF72AFEBA79FB79D9
:1028900001211846FFF76EFFFB79012B07D118487D
:1028A000FFF71EFEBB79184600F032F821E0FB79F5
:1028B000022B07D11348FFF713FEBB79184600F02F
:1028C00027F816E0FB79032B07D10F48FFF708FE26
:1028D000BB79184600F01CF80BE0FB79002B08D1FF
:1028E0000A48FFF7FDFDBA79FB7901211846FFF789
:1028F00041FF00BF0837BD4680BD00BF8C4A0208BB
:10290000C84A0208E04A02080C4B0208204B0208A1
:1029100080B584B000AF0346FB710C48FFF7E0FDC3
:102920000B4813F055FA0A4813F072F90346FB738B
:10293000FB790133FB71FA79FB7B11461846FFF7EF
:1029400097FF00BF1037BD4680BD00BF344B020863
:1029500094E4002080B584B000AF0346FB710C48BE
:10296000FFF7BEFD0B4819F070FB0A4819F001FB98
:102970000346FB73FB790133FB71FA79FB7B11464C
:102980001846FFF72BFF00BF1037BD4680BD00BFC4
:10299000344B020808EA002080B500AF0548FFF775
:1029A0009FFD0022002104480CF02EFE11F015FFBF
:1029B00000BF80BD584B0208A4EC002080B59AB03F
:1029C00000AF0346FB71032387F86530FA7997F867
:1029D00065309A4201D9FFF7DFFF07F14803002273
:1029E0001A605A609A60DA601A619A82042387F842
:1029F0006430002387F84030012387F841301E23DC
:102A000087F842309E2387F84330FFF707FD0346DF
:102A1000002B02D07748FFF763FD01201DF0E2F89C
:102A2000FEF706FB0346002B0ED07348FFF758FD58
:102A30007248FFF755FD01201DF0D4F8FB795A1CB0
:102A4000FA711846FFF7BAFF002387F8673097F846
:102A5000672097F864309A4202D9002387F86730DC
:102A600097F8673007F16802134413F8283C1846BA
:102A7000FEF746FB042387F86330002387F86230B3
:102A800008E05F48FFF72CFD5E48FFF729FD0120B5
:102A90001DF0A8F8FEF76CFF0346002B05D097F851
:102AA000622097F863309A42EBD397F8622097F848
:102AB00063309A420ED15248FFF712FD4F48FFF79C
:102AC0000FFD01201DF08EF8FB795A1CFA71184693
:102AD000FFF774FF07F148031846FEF7CFFC07F134
:102AE000460207F1480311461846FEF7ABFB0120EA
:102AF0001DF078F8FEF7F0FA01201DF073F80023BE
:102B000087F866305A2387F861302CE03E48FFF79B
:102B1000E7FC4FF47A700AF0C5F807F1480318464D
:102B2000FEF7ACFC07F1460207F1480311461846D0
:102B3000FEF788FB97F86620344BA3FB02131909B4
:102B40000B469B000B449B00D31ADBB2002B05D134
:102B50002F48FFF7C5FC01201DF044F897F86630B8
:102B6000013387F8663097F8662097F861309A420B
:102B70000CD807F1460207F1480311461846FEF744
:102B800061FB034603F00203002BBFD097F86620D9
:102B900097F861309A420BD91E48FFF7A1FC01203B
:102BA0001DF020F8FB795A1CFA711846FFF706FF52
:102BB0001948FFF795FC97F8673007F1680213444E
:102BC00013F8283C1A4607F10C03144918461FF065
:102BD0004FF807F10C031846FFF782FCFEF77CF96B
:102BE00001201CF0FFFF97F86730013387F867304A
:102BF0002DE700BF6C4B0208804B02089C4B02087B
:102C0000BC4B0208D84B0208E84B0208CDCCCCCC18
:102C1000004C0208184C0208404C02085C4C0208A8
:102C200080B584B000AF78601222796825480CF036
:102C30004FFD0346FB73FB7B052B09D1786800F041
:102C400049F90A2279681F480CF042FD0346FB73DC
:102C5000FB7B002B24D01C4B1B68796818460AF0BC
:102C600067FA194B1B681F22012118480AF0C0FBA4
:102C7000154B1B68FA7B164918460AF059FA124B95
:102C80001B680222012113480AF0B2FB0E4B1B689D
:102C90001222012110480AF0ABFB0223BB730BE0A8
:102CA00008480DF075FA084B1B68222201210B48D9
:102CB0000AF09EFB0023BB73BB7B18461037BD4652
:102CC00080BD00BF74EA002014000020744C02088C
:102CD000944C02089C4C0208A04C0208B44C020818
:102CE00080B586B000AFF860B9601346FB80322231
:102CF000F96820480CF0ECFC0346002B0BD000F0E8
:102D00004BFA1D4B1B681F2201211C480AF070FB67
:102D10000223FB7529E0FA8807F11003B96815480A
:102D20000DF009F80346BB753B69002B02D0BB7D53
:102D3000002B0ED000F030FA0F4B1B681722012138
:102D40000F480AF055FB0B480DF022FA0123FB75E2
:102D50000BE008480DF01CFA074B1B6821220121EB
:102D600008480AF045FB0023FB75FB7D1846183721
:102D7000BD4680BD74EA002014000020744C020897
:102D8000D84C0208F04C020880B586B000AFF8605D
:102D9000B9601346FB803222F96820480CF098FC99
:102DA0000346002B0BD000F0F7F91D4B1B681F22C8
:102DB00001211C480AF01CFB0223FB7528E0FA885D
:102DC00007F11003B96815480CF0B5FF0346BB7551
:102DD000FA883B699A4202D1BB7D002B0CD0104B84
:102DE0001B681722012110480AF002FB0B480DF066
:102DF000CFF90123FB750BE008480DF0C9F9084B2A
:102E00001B682222012109480AF0F2FA0023FB750F
:102E1000FB7D18461837BD4680BD00BF74EA002010
:102E200014000020744C0208D84C0208B44C02086C
:102E300080B5ADF5047D02AF002387F8073200228C
:102E4000124913480CF0E0FB0346002B14D0114844
:102E5000FFF746FB3A1D4FF4007300931346002220
:102E600007210A480DF018FF0346002B04D00A483A
:102E7000FFF736FB012303E00848FFF731FB00238F
:102E8000184607F50277BD4680BD00BF70EA0020F6
:102E9000A4EC00202C4D02086C4D0208C04D020825
:102EA00080B584B000AF78607868FDF755FE0346C2
:102EB000013318461EF096F90346FB60FB68002BB1
:102EC00003D07968F8681EF02EFFFB6818461037AB
:102ED000BD4680BD80B586B000AF786001201CF093
:102EE00081FE7868FFF7DCFFF860F868FDF734FED4
:102EF00003463B6102E03B69013B3B613B69002BC0
:102F000006D03B69013BFA6813441B782F2BF2D1A2
:102F10003B69002B02D03B69013B3B613B69002BC5
:102F20003DD03B69FA68134400221A70F8680DF02E
:102F3000A5FD0346FB75FB7D002B1BD01B4B1B68BF
:102F4000FA7D1B4918460AF0F3F8184B1B68022259
:102F5000012118480AF04CFA144B1B681222012177
:102F600015480AF045FA114B1B68FA6813491846D0
:102F70000AF0DEF8FB7D052B07D1F868FFF7AAFF02
:102F8000F8680DF07BFD0346FB75FB7D002B06D139
:102F9000064B1B68FA680A4918460AF0C9F8F8682F
:102FA0001EF028F900BF1837BD4680BD1400002070
:102FB000944C02089C4C0208A04C0208E44D020804
:102FC000FC4D020880B596B000AF7860022387F808
:102FD000573007F13C03194678680DF05DFC034655
:102FE00087F8563097F85630002B02D0042B10D0BB
:102FF0001FE007F108037A68174918461EF038FEEB
:1030000007F108031846FFF76BFA012387F85730DA
:103010001BE007F108037A68104918461EF028FEE5
:1030200007F108031846FFF75BFA002387F85730CB
:103030000BE007F108037A68094918461EF018FEEC
:1030400007F108031846FFF74BFA97F85730184670
:103050005837BD4680BD00BF104E0208244E0208FE
:103060003C4E0208B0B58AB000AF374B374A1A6001
:1030700008F090FE364B5B6A354A43F4E023536216
:1030800072B6334B4FF000629A6062B600F0BCF843
:103090001BF076FA08F07AF808F0FAF808F0A0FDCC
:1030A00008F05EFA08F096FA08F01AFB08F046FB02
:1030B00008F0D2FB08F006FC08F03CFC08F070FCBD
:1030C00008F03AFD08F0E0FC08F060FD08F0D8FDDB
:1030D000204B1B68184600F0BBFB1F4B1B681846B3
:1030E00000F0B6FB1D4B5B691C4A23F020035361C3
:1030F0001B4B07F114041D460FCD0FC42B68236032
:1031000007F114030021184609F0A5FD0246154BEE
:103110001A6000F0C7F91CF0F7FC134B3C461D4643
:103120000FCD0FC42B6823603B460021184609F0E1
:1031300092FD02460D4B1A60012240210C4812F00C
:1031400035FD09F065FDFEE73404002050280040FD
:1031500000ED00E0140000200C00002000080240F8
:10316000804E020804DD0020A44E020808DD002085
:103170000018024080B582B000AF78607B681B68A1
:10318000044A934201D11BF01DFA00BF0837BD4627
:1031900080BD00BF0000014080B500AF104B5B69EF
:1031A0000F4A43F0100353610D4B5B690C4A43F027
:1031B000200353614FF4FA601BF01EFA084B5B6961
:1031C000074A23F010035361054B5B69044A23F05F
:1031D000200353614FF4FA601BF00EFADEE700BFE4
:1031E0000008024080B500AFFFF7D6FF00BF80BDEA
:1031F00080B582B000AF78603960FFF7CDFF00BFC7
:103200000837BD4680BD000080B500AF00F00CF966
:1032100002460E4B1A600D4B1B68002B0CD14FF46D
:10322000806200210A481EF007F8094B094A1A601B
:10323000064B094A1A6007E0044B1B684FF4806292
:10324000194603481DF0EDFF00BF80BD0CE10020D2
:103250000CDD00202143AA5500001E0890B58FB058
:1032600000AF002387F82F3012F06EF800F098F8C6
:1032700078637B6B002B16D100237B6001233B61BD
:103280001723FB6002237B6107F118023B1D1146E7
:10329000184611F0BBFE0346002B02D012F06EF868
:1032A00043E0234B7B63234B234A1A6007F11C0343
:1032B0001946204800F046F8FB691E4AC2F8FC3364
:1032C0000023BB621D4BF322DA6000233B631CE04A
:1032D000184A3B6B13441B78DBB24FF00004C7E97C
:1032E00008347A6B3B6BD118D7E90823B86A11F020
:1032F000D7FF034687F82F3097F82F30002B0ED1D9
:10330000BA6A3B6B134401333B63BB6A01334FF42E
:103310008062B2FBF3F33A6B9A42D9D300E000BF6C
:1033200012F02CF8064A7B6B13603C37BD4690BD0B
:1033300000001E080CDD00202143AA55003C02407D
:103340000CE1002080B582B000AF786039607B6806
:10335000104A934203D97B680F4A934209D97B688C
:10336000B3F1005F11D37B6803F580630B4A93428E
:103370000BD83B68002B08D04FF47F72796800208F
:103380000AF072F902463B681A6000BF0837BD4672
:1033900080BD00BFFFFF1D0800FC1F08FAFF0220D0
:1033A00080B483B000AF0023BB801E4B1B683B6022
:1033B0000023FB800DE0B7F904309B023A68134408
:1033C0001A46FB8813441B78FF2B07D1FB88013377
:1033D000FB80FB88B3F5806FEDD300E000BFFB8876
:1033E000B3F5806F06D2B7F904309BB201339BB2BC
:1033F000BB8005E0B7F904309B023A6813440AE049
:10340000B7F904309B023A68134403F58063B3F1C3
:10341000026FCDD3002318460C37BD465DF8047B00
:10342000704700BF0CE1002080B584B000AF7F235F
:10343000FB811A4BBB60B7F90E309B02BA6813448C
:103440001B68174A934219D1B7F90E309B02BA682C
:1034500013443A1D11461846FFF774FFB7F90E30B2
:103460009B02BA681344D3F8FC237B689A4205D1C7
:10347000B7F90E309B02BA6813440AE0B7F90E3070
:103480009BB2013B9BB2FB81B7F90E30002BD2DC23
:10349000002318461037BD4680BD00BF00001E083F
:1034A0002143AA55B0B586B000AF0023FB752EE0CE
:1034B000FB7D3A4A4FF40C7101FB03F313440022E5
:1034C0001A60FB7D364A002142F82310FB7D354A05
:1034D000002142F82310FB7D334A002142F82310DB
:1034E000FB7D324A002142F82310FB7D304A002147
:1034F00042F82310FB7D2F4A002122F81310FB7D98
:103500002D4A002122F81310FB7D0133FB75FB7D52
:10351000022BCDD9294B2A4A1A602A4B2A4A1A6013
:103520002A4B2B4A1A60254B1B6801222949184651
:103530001AF03EFB0346BB75BB7D002B01D0FFF7A5
:103540002BFE204B1B680122224918461AF030FB43
:103550000346BB75BB7D002B01D0FFF71DFE1B4B47
:103560001B6801221B4918461AF022FB0346BB7553
:10357000BB7D002B01D0FFF70FFE174B3C461D46CD
:103580000FCD0FC42B6823603B460021184609F07D
:1035900062FB00BF1837BD46B0BD00BF340E00202F
:1035A00028E400201CE4002010E10020BC0D0020D5
:1035B000C80D0020240E00202C0E00200C0000203E
:1035C0002CE8002010000020C8E900201400002092
:1035D00088E9002060EA0020384F02082DE9F04118
:1035E000ADF5207D08AF3B1D1860002387F85F32E2
:1035F00008F0EAFB0346012B40F09E80132387F876
:103600005E32654B1B681A466449654816F0E5FF53
:10361000614B1B681A466349614817F0F1F807F1DE
:103620000C031322604918460CF052F8034687F841
:103630005E3297F85E32002B09D107F50F731946F9
:1036400059480DF029F9034687F85E3205E097F8EE
:103650005E32012B01D108F0B7FB97F85E32002BE8
:103660006AD1D7F83C2207F10C03114618460CF03A
:10367000BEFD034687F85E3297F85E32002B4BD1D1
:1036800097F85E32002B41D10021454816F0F2FD3B
:10369000C7F85802454B1B68C7F85432414BDB78DA
:1036A0009C46404B5B789E463E4B9B781A463B4B74
:1036B0001B781946394B5B781C46384B9B781D4666
:1036C000D7F858321B0C9BB21E46D7F858329BB223
:1036D0003B60D7F854321B0C9BB2D7F8540280B22F
:1036E00007F10C08079006933B6805930496039531
:1036F000029401910092734662462D49404609F0BA
:1037000017FD07F10C03184600F0A2F807F10C03AF
:1037100018460CF03DFD0FE0264B1B6897F85E2223
:103720002549184609F004FD244B1B6897F85E22D2
:103730002149184609F0FCFC00201CF06FFA00201B
:103740001CF050FA002000F0AFF803461A4697F834
:103750005F32134387F85F32012000F0A5F803467B
:103760001A4697F85F32134387F85F32022000F061
:103770009BF803461A4697F85F32134387F85F3287
:1037800097F85F32002B02D10A2009F08BFA002350
:1037900087F85F32D3E700BFB80700202CE600208F
:1037A00070E800206CE800204C4F020854280040CC
:1037B000584F020814000020A04F02080C000020FF
:1037C00080B584B000AF786039603B68002B0BD0C7
:1037D0003868FDF7C1F90346FB81FB891A46396851
:1037E000786800F007F801E0FFF7D6FC00BF10375B
:1037F000BD4680BD80B586B000AFF860B9601346A5
:10380000FB80FB88FB82BB68002B18D0FB8A1A4622
:10381000B968002009F028FF3861FB8ABA681344B0
:103820003A690A4918461EF023FAFB8A0A33FB82DA
:10383000FA8AFB680021B86809F0DAFD01E0FFF7B9
:10384000ABFC00BF1837BD4680BD00BFB44F0208B7
:1038500080B584B002AF78600C4B01930C4B0093A1
:10386000592301220B49786809F062FC0A4B1A6857
:103870000A4B19680A4B1B6800930B460949786884
:1038800009F056FC00BF0837BD4680BDE44F020872
:10389000F04F0208BC4F0208107AFF1F147AFF1F76
:1038A000187AFF1FFC4F0208F0B5B7B008AF034607
:1038B000FB73002387F8AF30FB7B022B01D9FFF7A6
:1038C0006BFCFB7B1B02BD4A9818FB7B0D22FF2182
:1038D00007F08CFA0346002B07F0CE81FB7BB84A39
:1038E00052F82330C7F88C30FB7B1B02B34A1344D9
:1038F000B44918461EF01FFAC7F88800D7F8883078
:10390000002B07F0F081012387F8AF30D7F888004B
:10391000FDF722F9C7F88400D7F88430B3F5807F2B
:1039200007F28C81FB7B1B02A74A1344D7F888104F
:1039300018461EF0F8F90423C7F8B4300423C7F87A
:10394000B03028E0FB7BA04A1B021A44D7F8B43001
:1039500013441878FA7BD7F8B43001339A4912022D
:103960000A4413441B78FC7B194607F091FA03467E
:103970001946954A23021A44D7F8B03013440A4630
:103980001A70D7F8B4300233C7F8B430D7F8B03073
:103990000133C7F8B030D7F8B420D7F884309A4252
:1039A000D0D3FB7B884A1B02134404331B78112BB2
:1039B00008D0FB7B844A1B02134404331B78402B42
:1039C00040F03481FB7B804A1B02134404331B7894
:1039D000112B55D1FB7B7C4A1B02134403331B780C
:1039E000522B0DD1FB7B784A1B02134405331B7805
:1039F0001946002007F074FA0346A7F8AC309DE0A2
:103A0000FB7B714A1B02134403331B78572B0DD1E8
:103A1000FB7B6D4A1B02134405331B7819460120BA
:103A200007F05EFA0346A7F8AC3087E0FB7B664AF6
:103A30001B02134403331B78442B04D1D7F8843082
:103A4000A7F8AC307AE0FB7B4FF4867202FB03F3FD
:103A50005E4A13445E491A460B4603CB1060516020
:103A6000FB7B4FF4867202FB03F3584A134419465A
:103A7000D7F88C00FFF7A4FE97F8AF3007F035B900
:103A8000FB7B514A1B02134404331B78402B55D156
:103A9000FB7B4D4A1B02134403331B78522B0DD181
:103AA000FB7B494A1B02134405331B78194602204D
:103AB00007F016FA0346A7F8AC303FE0FB7B424A1A
:103AC0001B02134403331B78572B0DD1FB7B3E4A5B
:103AD0001B02134405331B781946032007F000FA34
:103AE0000346A7F8AC3029E0FB7B374A1B0213449E
:103AF00003331B78442B04D1D7F88430A7F8AC30BB
:103B00001CE0FB7B4FF4867202FB03F32F4A134445
:103B10002F491A460B4603CB10605160FB7B4FF4D4
:103B2000867202FB03F3294A13441946D7F88C0026
:103B3000FFF746FE97F8AF3007F0D7B8B7F8AC30CC
:103B400009331A46D7F88430934245D1D7F88430E8
:103B5000093B1A46D7F88810002009F085FDC7F800
:103B60008000B7F8AC300133D7F8882013441846EA
:103B700007F078FAF867D7F88020FB6F9A4255D0A3
:103B8000FB7B4FF4867202FB03F3104A1344D7F811
:103B90008020104918461EF06BF8FB7B4FF48672AC
:103BA00002FB03F3094A13441946D7F88C00FFF7C8
:103BB00007FE97F8AF3007F098B800BFBC0A0020A6
:103BC0001C0000201C500208BC07002060150020CB
:103BD0002050020828500208B7F8AC30D7F88420EB
:103BE0009A4223D0FB7B4FF4867202FB03F3B64A62
:103BF0001344B64A1C4615460FCD20606160A26092
:103C0000E3600FCD20616161A261E361FB7B4FF452
:103C1000867202FB03F3AC4A13441946D7F88C00B2
:103C2000FFF7CEFD97F8AF3007F05FB8FB7BA84AEF
:103C30001B02134403331B78522B42F0FA82FB7BA6
:103C4000A34A1B02134404331B78402B40F0C78067
:103C5000FB7B9F4A1B02134406331B789BB21B025B
:103C60009AB2FB7B9A491B020B4407331B789BB229
:103C70001344A7F84A30FB7B954A1B0213440533D3
:103C80001B78012BC0F28E800B2B02DD402B40F005
:103C90008980B7F84A30B3F5005F30D3B7F84A30BF
:103CA000B3F5405F2BD2FB7B4FF4867202FB03F32C
:103CB000854A9818FB7B864A1B02134405331B7800
:103CC0001A4684491DF0D4FFFB7B4FF4867202FB39
:103CD00003F37D4A13441946D7F88C00FFF770FDB3
:103CE000FB7B7B4A1B02134405331978B7F84A0063
:103CF00000230093002352220FF0C6FE50E0B7F8D5
:103D00004A30B3F5805F30D3B7F84A30B3F5005F7F
:103D10002BD2FB7B4FF4867202FB03F36A4A98189E
:103D2000FB7B6B4A1B02134405331B781A466A4916
:103D30001DF09EFFFB7B4FF4867202FB03F3624A89
:103D400013441946D7F88C00FFF73AFDFB7B604A15
:103D50001B02134405331978B7F84A000023009377
:103D6000002352221DF0E6F91AE0FB7B4FF4867225
:103D700002FB03F3544A1344B7F84A205749184644
:103D80001DF076FFFB7B4FF4867202FB03F34E4A75
:103D900013441946D7F88C00FFF712FD06F0A3BFB5
:103DA00006F0A1BFFB7B4FF4867202FB03F3464A89
:103DB00013444B4A1C4615460FCD20606160A2603B
:103DC000E360FB7B4FF4867202FB03F33E4A13442D
:103DD0001946D7F88C00FFF7F3FC06F084BFFB7B95
:103DE0003B4A1B02134404331B78182B40F03881E4
:103DF000002387F8AB300A23A7F8AC30B7F8AC3013
:103E000009331A46D7F88430934236D1D7F8843034
:103E1000093B1A46D7F88810002009F025FCC7F89E
:103E20008000B7F8AC300133D7F888201344184627
:103E300007F018F9F867D7F88020FB6F9A4255D041
:103E4000FB7B4FF4867202FB03F31F4A1344D7F83F
:103E50008020244918461DF00BFFFB7B4FF486722F
:103E600002FB03F3184A13441946D7F88C00FFF7F6
:103E7000A7FC97F8AF3006F038BFB7F8AC30D7F8EA
:103E800084209A4232D0FB7B4FF4867202FB03F30C
:103E90000D4A1344144A1C46134607CB2060616048
:103EA000A2601B782373FB7B4FF4867202FB03F343
:103EB000054A13441946D7F88C00FFF781FC97F8A0
:103EC000AF3006F012BF00BF60150020405002085E
:103ED000BC0700206050020880500208A050020871
:103EE000B450020828500208C4500208FB7BB24AB2
:103EF0001B02134406331B78302B00F29480FB7BAB
:103F0000AD4A1B02134406331B78002B00F08B8054
:103F100007F0B8FB97F8AB30002B1BD097F8AA300E
:103F2000012B0DD097F8AA30032B09D097F8AA30AF
:103F3000022B08D1A14B93F83D30DBB2202B02D1EC
:103F40009E4807F029FC052008F0ACFE97F8AB303E
:103F5000092B1FD8FB7B984A1B02134406331B789E
:103F60009AB20A2302930223019307F114030093E8
:103F700001233021914812F0A3FB034687F8AA30B1
:103F800097F8AB30013387F8AB3097F8AA30002BA5
:103F9000C0D100E000BF894811F01AFF97F8AA309D
:103FA000002B23D13B7D9BB21B029AB27B7D9BB23F
:103FB0001344A7F84C30FB7B4FF4867202FB03F3EB
:103FC0007F4A1344B7F84C207E4918461DF050FE36
:103FD000FB7B4FF4867202FB03F3794A13441946C4
:103FE000D7F88C00FFF7ECFB06F07DBEFB7B4FF4AF
:103FF000867202FB03F3724A1344734A1C46154649
:104000000FCD20606160A260E360FB7B4FF486729D
:1040100002FB03F36A4A13441946D7F88C00FFF7F2
:10402000CFFB06F060BEFB7B4FF4867202FB03F30E
:10403000634A1344654A1C4615460FCD20606160F3
:10404000A260E360FB7B4FF4867202FB03F35C4AE1
:1040500013441946D7F88C00FFF7B2FB06F043BEB5
:10406000FB7B554A1B02134404331B78332B40F06F
:104070001881002387F8A8300823A7F8AC30B7F8D8
:10408000AC3009331A46D7F88430934236D1D7F88A
:104090008430093B1A46D7F88810002009F0E4FA6A
:1040A000C7F88000B7F8AC300133D7F88820134444
:1040B000184606F0D7FFF867D7F88020FB6F9A42C2
:1040C00042D0FB7B4FF4867202FB03F33C4A13445D
:1040D000D7F880203E4918461DF0CAFDFB7B4FF4FF
:1040E000867202FB03F3364A13441946D7F88C0054
:1040F000FFF766FB97F8AF3006F0F7BDB7F8AC30C6
:10410000D7F884209A421FD0FB7B4FF4867202FBC3
:1041100003F32B4A13442F4A1C46134607CB206057
:104120006160A2601B782373FB7B4FF4867202FBF5
:1041300003F3234A13441946D7F88C00FFF740FBDA
:1041400097F8AF3006F0D1BD07F09CFA97F8A83089
:10415000002B1BD097F8A930012B0DD097F8A93070
:10416000032B09D097F8A930022B08D1134B93F8F1
:104170003D30DBB2202B02D1104807F00DFB0520AB
:1041800008F090FD97F8A830092B25D807F1100208
:104190000A23009304236621084811F057FF0346C1
:1041A00087F8A93097F8A830013387F8A83097F836
:1041B000A930002BCAD110E0BC070020D8E50020B0
:1041C00060150020D4500208DC500208EC500208B0
:1041D00028500208C450020800BFE24811F0F8FD60
:1041E00097F8A930002B32D13A7CDF4B1A707A7CD9
:1041F000DD4B5A70BA7CDC4B9A70FA7CDA4BDA7081
:10420000FB7B4FF4867202FB03F3D84A9818D64B17
:104210001B781946D44B5B781C46D34B9B781A46C7
:10422000D14BDB780193009223460A46D0491DF01A
:104230001FFDFB7B4FF4867202FB03F3CB4A134452
:104240001946D7F88C00FFF7BBFA06F04CBDFB7B94
:104250004FF4867202FB03F3C44A1344C54A144662
:104260009C4604F1200E654626460FCE2860696004
:10427000AA60EB6010340CF1100C7445F3D1624667
:1042800023461B881380FB7B4FF4867202FB03F3EB
:10429000B64A13441946D7F88C00FFF791FA06F096
:1042A00022BDFB7BB44A1B02134404331B78112B41
:1042B00041F0A287FB7BB04A1B02134405331B78F5
:1042C0007F2B01F27B8701A252F823F0CD44000836
:1042D000C3450008BD46000891470008BD480008D6
:1042E0009B4900088D4A0008954B0008874C000840
:1042F000474D0008074E0008074F0008C74F000849
:10430000875000085F51000849520008095300080F
:10431000BD610008BD610008BD610008E1530008EF
:10432000395500086156000889570008DD58000813
:10433000055A00082D5B0008CD5B0008395C0008B9
:10434000A55C0008115D00087D5D0008E95D0008BE
:10435000BD610008BD610008BD610008BD610008C5
:10436000BD610008BD610008BD610008BD610008B5
:10437000BD610008BD610008BD610008BD610008A5
:10438000BD610008BD610008BD610008BD61000895
:10439000D55E0008BD6100089B5F0008BD61000894
:1043A00055600008BD610008BD610008BD610008DE
:1043B000BD610008BD610008BD610008BD61000865
:1043C000BD610008BD610008BD610008BD61000855
:1043D000BD610008BD610008BD610008BD61000845
:1043E000BD610008BD610008BD610008BD61000835
:1043F000BD610008BD610008BD610008BD61000825
:10440000BD610008BD610008BD610008BD61000814
:10441000BD610008BD610008BD610008BD61000804
:10442000BD610008BD610008BD610008BD610008F4
:10443000BD610008BD610008BD610008BD610008E4
:10444000BD610008BD610008BD610008BD610008D4
:10445000A3600008BD610008BD610008BD610008DF
:10446000BD610008BD610008BD610008BD610008B4
:10447000BD610008BD610008BD610008BD610008A4
:10448000BD610008BD610008BD610008BD61000894
:10449000BD610008BD610008BD610008BD61000884
:1044A000BD610008BD610008BD610008BD61000874
:1044B000BD610008BD610008BD610008BD61000864
:1044C000BD610008BD6100083961000807F12003E3
:1044D0001946302007F073FF0346012B52D1FB7BB6
:1044E0004FF4867202FB03F3204A9818B7F9203084
:1044F0001A46B7F922301946B7F9243000930B4613
:104500001E491DF0B5FBFB7B4FF4867202FB03F3E3
:10451000164A13441946D7F88C00FFF751F9FB7B74
:104520004FF4867202FB03F3104A9818B7F9203053
:104530001A46B7F922301946B7F9243000930B46D2
:104540000F491DF095FBFB7B4FF4867202FB03F3D2
:10455000064A13441946D7F88C00FFF731F906F0E4
:10456000C2BB00BFD8E5002064EA0020601500202F
:10457000FC50020810510208BC0700203451020808
:1045800044510208C14807F007F9FB7B4FF48672DB
:1045900002FB03F3BE4A1344BE4A18461146542395
:1045A0001A461CF03EFEFB7B4FF4867202FB03F3BF
:1045B000B74A13441946D7F88C00FFF701F906F003
:1045C00092BBFB7BB44A1B02134406331978FB7B76
:1045D0001B020733B04A13441A46302007F0C6FDC9
:1045E0000346012B49D1FB7B4FF4867202FB03F398
:1045F000A74A9818FB7BA84A1B02134406331B7872
:104600001946FB7BA44A1B02134407331B780A4656
:10461000A2491DF02DFBFB7B4FF4867202FB03F3D6
:104620009B4A13441946D7F88C00FFF7C9F8FB7B67
:104630004FF4867202FB03F3954A9818FB7B964A67
:104640001B02134406331B781946FB7B924A1B025C
:10465000134407331B780A4691491DF009FBFB7B85
:104660004FF4867202FB03F3894A13441946D7F8C4
:104670008C00FFF7A5F806F036BBFB7B4FF4867283
:1046800002FB03F3824A1344864A1D4614460FCCAC
:1046900028606960AA60EB6007CC28616961AA6143
:1046A000FB7B4FF4867202FB03F3794A13441946ED
:1046B000D7F88C00FFF784F806F015BB07F120034C
:1046C0001946322007F07BFE0346012B41D1FB7BCC
:1046D0004FF4867202FB03F36D4A9818B7F9203045
:1046E0001A46B7F922301946B7F9243000930B4621
:1046F0006D491DF0BDFAFB7B4FF4867202FB03F39C
:10470000634A13441946D7F88C00FFF759F8FB7B2E
:104710004FF4867202FB03F35D4A9818B7F9203014
:104720001A46B7F922301946B7F9243000930B46E0
:104730005E491DF09DFAFB7B4FF4867202FB03F38A
:10474000534A13441946D7F88C00FFF739F806F09E
:10475000CABA4E4807F020F8FB7B4FF4867202FB82
:1047600003F34B4A1344524A184611464E231A4645
:104770001CF057FDFB7B4FF4867202FB03F3444AA7
:1047800013441946D7F88C00FFF71AF806F0ABBAB5
:10479000FB7B414A1B02134406331978FB7B1B0247
:1047A00007333D4A13441A46322007F0DFFC034624
:1047B000012B49D1FB7B4FF4867202FB03F3344A91
:1047C0009818FB7B344A1B02134406331B781946A6
:1047D000FB7B314A1B02134407331B780A463549D9
:1047E0001DF046FAFB7B4FF4867202FB03F3284A66
:1047F00013441946D7F88C00FEF7E2FFFB7B4FF419
:10480000867202FB03F3224A9818FB7B224A1B02A2
:10481000134406331B781946FB7B1F4A1B021344C3
:1048200007331B780A4624491DF022FAFB7B4FF41C
:10483000867202FB03F3164A13441946D7F88C001C
:10484000FEF7BEFF06F04FBAFB7B4FF4867202FB09
:1048500003F30F4A1344134A1D4614460FCC286035
:104860006960AA60EB6007CC28616961AA61FB7B83
:104870004FF4867202FB03F3054A13441946D7F836
:104880008C00FEF79DFF06F02EBA00BF4CE600201C
:104890006015002064510208BC070020B8510208CE
:1048A000C8510208F45102081052020820520208AE
:1048B0004052020890520208A052020807F1280351
:1048C0003821184608F0C6FB0346002B1FD0A74826
:1048D00006F062FFFB7B4FF4867202FB03F3A44AEF
:1048E0001344A44A1C4615460FCD20606160A260A7
:1048F000E360FB7B4FF4867202FB03F39C4A134494
:104900001946D7F88C00FEF75BFF06F0ECB9FB7B8D
:104910004FF4867202FB03F3954A9818D7E90A56BA
:10492000D7E90C34D7E90E12CDE90212CDE90034F3
:104930002A46334690491DF09BF9FB7B4FF4867263
:1049400002FB03F38A4A13441946D7F88C00FEF79A
:1049500037FFFB7B4FF4867202FB03F3844A9818FF
:10496000D7E90A56D7E90C34D7E90E12CDE902127D
:10497000CDE900342A46334680491DF079F9FB7BA6
:104980004FF4867202FB03F3794A13441946D7F8B1
:104990008C00FEF715FF06F0A6B9FB7B784A1B02D8
:1049A000134406331978FB7B1B020733744A134404
:1049B0001A4638200DF04CF80346012B49D1FB7BF9
:1049C0004FF4867202FB03F3694A9818FB7B6C4A2A
:1049D0001B02134406331B781946FB7B684A1B02F3
:1049E000134407331B780A4666491DF041F9FB7BE7
:1049F0004FF4867202FB03F35D4A13441946D7F85D
:104A00008C00FEF7DDFEFB7B4FF4867202FB03F3A6
:104A1000574A9818FB7B5A4A1B02134406331B78EB
:104A20001946FB7B564A1B02134407331B780A4680
:104A300055491DF01DF9FB7B4FF4867202FB03F311
:104A40004B4A13441946D7F88C00FEF7B9FE06F01E
:104A50004AB9FB7B4FF4867202FB03F3444A1344CA
:104A6000444A1C4615460FCD20606160A260E36099
:104A7000FB7B4FF4867202FB03F33D4A1344194655
:104A8000D7F88C00FEF79CFE06F02DB93C2008F00C
:104A9000A6FA07F128033C21184608F0DBFA034682
:104AA000002B1CD0FB7B4FF4867202FB03F3304AD1
:104AB0001344304A1C4615460FCD20606160A26049
:104AC000E360FB7B4FF4867202FB03F3284A134436
:104AD0001946D7F88C00FEF773FE06F004B9FB7B8D
:104AE0004FF4867202FB03F3214A9818D7E90A565D
:104AF000D7E90C34D7E90E12CDE90212CDE9003422
:104B00002A46334621491DF0B3F8FB7B4FF48672E9
:104B100002FB03F3164A13441946D7F88C00FEF73C
:104B20004FFEFB7B4FF4867202FB03F3104A98188A
:104B3000D7E90A56D7E90C34D7E90E12CDE90212AB
:104B4000CDE900342A46334611491DF091F8FB7B2C
:104B50004FF4867202FB03F3054A13441946D7F853
:104B60008C00FEF72DFE06F0BEB800BF4CE600201C
:104B700060150020DC500208CC520208E452020802
:104B8000BC070020B85102083053020858530208ED
:104B900070530208FB7BC34A1B0213440633197887
:104BA000FB7B1B020733BF4A13441A463C200CF020
:104BB0004FFF0346012B49D1FB7B4FF4867202FB6A
:104BC00003F3B94A9818FB7BB64A1B021344063319
:104BD0001B781946FB7BB34A1B02134407331B782F
:104BE0000A46B2491DF044F8FB7B4FF4867202FB83
:104BF00003F3AD4A13441946D7F88C00FEF7E0FDE5
:104C0000FB7B4FF4867202FB03F3A74A9818FB7BE9
:104C1000A44A1B02134406331B781946FB7BA14AA6
:104C20001B02134407331B780A46A1491DF020F8E4
:104C3000FB7B4FF4867202FB03F39B4A1344194635
:104C4000D7F88C00FEF7BCFD06F04DB8FB7B4FF4A7
:104C5000867202FB03F3944A1344964A1C46154697
:104C60000FCD20606160A260E360FB7B4FF4867231
:104C700002FB03F38C4A13441946D7F88C00FEF765
:104C80009FFD06F030B807F12003194600200DF013
:104C90008BFB0346012B39D1B7F9203047F6FF7261
:104CA000934233D0FB7B4FF4867202FB03F37E4AC0
:104CB0001344B7F92020804918461CF0D9FFFB7B2C
:104CC0004FF4867202FB03F3774A13441946D7F870
:104CD0008C00FEF775FDFB7B4FF4867202FB03F33D
:104CE000714A1344B7F92020744918461CF0C0FFDC
:104CF000FB7B4FF4867202FB03F36B4A13441946A5
:104D0000D7F88C00FEF75CFD05F0EDBFFB7B4FF4A0
:104D1000867202FB03F3644A1344664A1C46154636
:104D20000FCD20606160A260E360FB7B4FF4867270
:104D300002FB03F35C4A13441946D7F88C00FEF7D4
:104D40003FFD05F0D0BF07F12003194600200DF00C
:104D5000FDFB0346012B39D1B7F9203047F6FF722E
:104D6000934233D0FB7B4FF4867202FB03F34E4A2F
:104D70001344B7F92020504918461CF079FFFB7BFB
:104D80004FF4867202FB03F3474A13441946D7F8DF
:104D90008C00FEF715FDFB7B4FF4867202FB03F3DC
:104DA000414A1344B7F92020454918461CF060FFDA
:104DB000FB7B4FF4867202FB03F33B4A1344194614
:104DC000D7F88C00FEF7FCFC05F08DBFFB7B4FF4A1
:104DD000867202FB03F3344A1344364A1C461546D6
:104DE0000FCD20606160A260E360FB7B4FF48672B0
:104DF00002FB03F32C4A13441946D7F88C00FEF744
:104E0000DFFC05F070BFFB7B264A1B021344063310
:104E10001B7807F14801032218460DF001FA0346FA
:104E2000012B53D1FB7B4FF4867202FB03F31E4A26
:104E30009818FB7B1B4A1B02134406331B781A4647
:104E4000B7F848301F491CF013FFFB7B4FF4867204
:104E500002FB03F3144A13441946D7F88C00FEF7FB
:104E6000AFFCFB7B4FF4867202FB03F30E4A9818EB
:104E7000FB7B0C4A1B02134406331B781A46B7F817
:104E8000483011491CF0F4FEFB7B4FF4867202FBA4
:104E900003F3054A13441946D7F88C00FEF790FC3B
:104EA00005F021BFBC0700206015002090520208C9
:104EB000BC530208DC500208E4530208EC53020819
:104EC00004540208B85102081C540208FB7B4FF43A
:104ED000867202FB03F3D24A1344D24A1C4615469B
:104EE0000FCD20606160A260E360FB7B4FF48672AF
:104EF00002FB03F3CA4A13441946D7F88C00FEF7A5
:104F00005FFC05F0F0BE07F12003194601200DF00B
:104F10004BFA0346012B39D1B7F9223047F6FF721D
:104F2000934233D0FB7B4FF4867202FB03F3BC4AFF
:104F30001344B7F92220BC4918461CF099FEFB7BAC
:104F40004FF4867202FB03F3B54A13441946D7F8AF
:104F50008C00FEF735FCFB7B4FF4867202FB03F3FB
:104F6000AF4A1344B7F92220B04918461CF080FE1E
:104F7000FB7B4FF4867202FB03F3A94A13441946E4
:104F8000D7F88C00FEF71CFC05F0ADBEFB7B4FF4A0
:104F9000867202FB03F3A24A1344A24A1C4615463A
:104FA0000FCD20606160A260E360FB7B4FF48672EE
:104FB00002FB03F39A4A13441946D7F88C00FEF714
:104FC000FFFB05F090BE07F12003194601200DF00C
:104FD000BDFA0346012B39D1B7F9223047F6FF72EB
:104FE000934233D0FB7B4FF4867202FB03F38C4A6F
:104FF0001344B7F922208C4918461CF039FEFB7B7C
:105000004FF4867202FB03F3854A13441946D7F81E
:105010008C00FEF7D5FBFB7B4FF4867202FB03F39B
:105020007F4A1344B7F92220814918461CF020FE1C
:10503000FB7B4FF4867202FB03F3794A1344194653
:10504000D7F88C00FEF7BCFB05F04DBEFB7B4FF4A0
:10505000867202FB03F3724A1344724A1C461546D9
:105060000FCD20606160A260E360FB7B4FF486722D
:1050700002FB03F36A4A13441946D7F88C00FEF783
:105080009FFB05F030BEFB7B6A4A1B0213440633CC
:105090001B7807F14801042218460DF0C1F80346B9
:1050A000012B3FD1FB7B4FF4867202FB03F35C4A7A
:1050B0009818FB7B5F4A1B02134406331B781A4681
:1050C000B7F848305C491CF0D3FDFB7B4FF4867287
:1050D00002FB03F3524A13441946D7F88C00FEF73B
:1050E0006FFBFB7B4FF4867202FB03F34C4A98186C
:1050F000FB7B504A1B02134406331B781A46B7F851
:1051000048304E491CF0B4FDFB7B4FF4867202FB25
:1051100003F3434A13441946D7F88C00FEF750FBBB
:1051200005F0E1BDFB7B4FF4867202FB03F33C4AC2
:1051300013443C4A1C4615460FCD20606160A260B6
:10514000E360FB7B4FF4867202FB03F3344A1344A3
:105150001946D7F88C00FEF733FB05F0C4BD07F104
:105160002003194602200DF01FF90346012B39D107
:10517000B7F9243047F6FF72934233D0FB7B4FF4EC
:10518000867202FB03F3264A1344B7F924202C4904
:1051900018461CF06DFDFB7B4FF4867202FB03F397
:1051A0001F4A13441946D7F88C00FEF709FBFB7B16
:1051B0004FF4867202FB03F3194A1344B7F9242013
:1051C000204918461CF054FDFB7B4FF4867202FB0D
:1051D00003F3134A13441946D7F88C00FEF7F0FA8C
:1051E00005F081BDFB7B4FF4867202FB03F30C4A92
:1051F00013440C4A1C4615460FCD20606160A26026
:10520000E360FB7B4FF4867202FB03F3044A134412
:105210001946D7F88C00FEF7D3FA05F064BD00BF3D
:1052200060150020DC50020840540208485402086F
:1052300060540208BC07002090520208785402080B
:105240009C540208A454020807F1200319460220C6
:105250000DF07CF90346012B39D1B7F9243047F61C
:10526000FF72934233D0FB7B4FF4867202FB03F351
:10527000A54A1344B7F92420A44918461CF0F8FCA9
:10528000FB7B4FF4867202FB03F39F4A13441946DB
:10529000D7F88C00FEF794FAFB7B4FF4867202FB82
:1052A00003F3994A1344B7F92420994918461CF08E
:1052B000DFFCFB7B4FF4867202FB03F3924A13443C
:1052C0001946D7F88C00FEF77BFA05F00CBDFB7B86
:1052D0004FF4867202FB03F38B4A13448D4A1C463B
:1052E00015460FCD20606160A260E360FB7B4FF448
:1052F000867202FB03F3844A13441946D7F88C00E4
:10530000FEF75EFA05F0EFBCFB7B834A1B021344F9
:1053100006331B7807F14801052218460CF080FF80
:105320000346012B3FD1FB7B4FF4867202FB03F354
:10533000754A9818FB7B784A1B02134406331B7886
:105340001A46B7F8483075491CF092FCFB7B4FF4C5
:10535000867202FB03F36C4A13441946D7F88C009B
:10536000FEF72EFAFB7B4FF4867202FB03F3664ACC
:105370009818FB7B684A1B02134406331B781A46B5
:10538000B7F8483066491CF073FCFB7B4FF486721B
:1053900002FB03F35C4A13441946D7F88C00FEF76E
:1053A0000FFA05F0A0BCFB7B4FF4867202FB03F3FF
:1053B000554A1344574A1C4615460FCD206061607C
:1053C000A260E360FB7B4FF4867202FB03F34E4A5C
:1053D00013441946D7F88C00FEF7F2F905F083BCA8
:1053E0000CF0E8FC07F1180318460DF09DF9034690
:1053F000012B63D14B4B1B78DBB203F00103002B75
:105400005CD0B7F91830002B00DA0733DB101BB281
:105410001A4613469B0013445B00002B00DA0F333F
:105420001B11A7F84E30FB7B4FF4867202FB03F38F
:10543000354A1344B7F9182092B23B4918461CF07C
:1054400017FCFB7B4FF4867202FB03F32E4A1344D6
:105450001946D7F88C00FEF7B3F9FB7B4FF4867240
:1054600002FB03F3284A9818B7F94E302F4A82FB03
:1054700003129210DB17D31A1BB21C46B7F94E2049
:105480002A4B83FB02139910D317C91A0B469B00B2
:105490000B445B00D31A1BB2224625491CF0E8FBE3
:1054A000FB7B4FF4867202FB03F3174A1344194641
:1054B000D7F88C00FEF784F905F015BCFB7B4FF4A0
:1054C000867202FB03F3104A13441A4A1D4614461F
:1054D0000FCC28606960AA60EB6007CC2861696125
:1054E000AA612388A278AB831346AB77FB7B4FF48A
:1054F000867202FB03F3044A13441946D7F88C0062
:10550000FEF75EF905F0EFBB601500209C54020821
:10551000BC540208DC500208BC070020D454020826
:10552000E454020818CF0020085502086766666632
:1055300014550208385502080CF03CFC07F118031A
:1055400018460DF0F1F80346012B63D1C54B1B78CB
:10555000DBB203F00203002B5CD0B7F91A30002B4A
:1055600000DA0733DB101BB21A4613469B001344C4
:105570005B00002B00DA0F331B11A7F84E30FB7BCA
:105580004FF4867202FB03F3B74A1344B7F91A20AB
:1055900092B2B64918461CF06BFBFB7B4FF4867247
:1055A00002FB03F3B04A13441946D7F88C00FEF708
:1055B00007F9FB7B4FF4867202FB03F3AA4A9818A3
:1055C000B7F94E30AA4A82FB03129210DB17D31AA6
:1055D0001BB21C46B7F94E20A54B83FB0213991052
:1055E000D317C91A0B469B000B445B00D31A1BB29E
:1055F0002246A0491CF03CFBFB7B4FF4867202FB69
:1056000003F3994A13441946D7F88C00FEF7D8F8EB
:1056100005F069BBFB7B4FF4867202FB03F3924AF1
:105620001344954A1D4614460FCC28606960AA6051
:10563000EB6007CC28616961AA612388A278AB83FB
:105640001346AB77FB7B4FF4867202FB03F3864A6B
:1056500013441946D7F88C00FEF7B2F805F043BBA7
:105660000CF0A8FB07F1180318460DF05DF803468F
:10567000012B63D17B4B1B78DBB203F00403002BBF
:105680005CD0B7F91C30002B00DA0733DB101BB2FB
:105690001A4613469B0013445B00002B00DA0F33BD
:1056A0001B11A7F84E30FB7B4FF4867202FB03F30D
:1056B0006D4A1344B7F91C2092B2704918461CF089
:1056C000D7FAFB7B4FF4867202FB03F3664A13445E
:1056D0001946D7F88C00FEF773F8FB7B4FF48672FF
:1056E00002FB03F3604A9818B7F94E30604A82FB18
:1056F00003129210DB17D31A1BB21C46B7F94E20C7
:105700005B4B83FB02139910D317C91A0B469B00FE
:105710000B445B00D31A1BB2224659491CF0A8FA6D
:10572000FB7B4FF4867202FB03F34F4A1344194686
:10573000D7F88C00FEF744F805F0D5BAFB7B4FF4A0
:10574000867202FB03F3484A13444E4A1D46144630
:105750000FCC28606960AA60EB6007CC28616961A2
:10576000AA612388A278AB831346AB77FB7B4FF407
:10577000867202FB03F33C4A13441946D7F88C00A7
:10578000FEF71EF805F0AFBA0CF014FB07F1180392
:1057900018460DF02FF80346012B79D1314B1B78B9
:1057A000DBB203F00803002B72D0B7F91830002BDE
:1057B00000DA0733DB101BB21A4613469B00134472
:1057C0005B00002B00DA0F331B11A7F84E30FB7B78
:1057D0004FF4867202FB03F3234A1344B7F91820EF
:1057E00092B2294918461CF043FAFB7B4FF48672AB
:1057F00002FB03F31C4A13441946D7F88C00FDF74B
:10580000DFFFFB7B4FF4867202FB03F3164A981806
:10581000B7F94E30164A82FB03129210DB17D31AE7
:105820001BB21C46B7F94E20114B83FB0213991093
:10583000D317C91A0B469B000B445B00D31A1BB24B
:10584000224612491CF014FAFB7B4FF4867202FBCD
:1058500003F3054A13441946D7F88C00FDF7B0FF4F
:1058600005F041BA18CF00206015002058550208F5
:10587000676666666455020888550208A8550208DE
:10588000B4550208D8550208F85502080456020813
:10589000FB7B4FF4867202FB03F3BF4A1344BF4AFB
:1058A0001D4614460FCC28606960AA60EB6007CCE7
:1058B00028616961AA612388A278AB831346AB771C
:1058C000FB7B4FF4867202FB03F3B34A1344194681
:1058D000D7F88C00FDF774FF05F005BA0CF06AFAF2
:1058E00007F1180318460CF085FF0346012B63D11E
:1058F000AB4B1B78DBB203F01003002B5CD0B7F985
:105900001A30002B00DA0733DB101BB21A4613469D
:105910009B0013445B00002B00DA0F331B11A7F828
:105920004E30FB7B4FF4867202FB03F39A4A13441A
:10593000B7F91A2092B29B4918461CF099F9FB7BE3
:105940004FF4867202FB03F3934A13441946D7F8C7
:105950008C00FDF735FFFB7B4FF4867202FB03F3EF
:105960008D4A9818B7F94E308F4A82FB0312921075
:10597000DB17D31A1BB21C46B7F94E208A4B83FBA8
:1059800002139910D317C91A0B469B000B445B00F6
:10599000D31A1BB2224685491CF06AF9FB7B4FF4EF
:1059A000867202FB03F37C4A13441946D7F88C0035
:1059B000FDF706FF05F097B9FB7B4FF4867202FBFB
:1059C00003F3754A13447A4A1D4614460FCC2860E7
:1059D0006960AA60EB6007CC28616961AA612388CD
:1059E000A278AB831346AB77FB7B4FF4867202FB46
:1059F00003F3694A13441946D7F88C00FDF7E0FE1B
:105A000005F071B90CF0D6F907F1180318460CF03F
:105A1000F1FE0346012B63D1614B1B78DBB203F02F
:105A20002003002B5CD0B7F91C30002B00DA0733C1
:105A3000DB101BB21A4613469B0013445B00002B7D
:105A400000DA0F331B11A7F84E30FB7B4FF4867240
:105A500002FB03F3504A1344B7F91C2092B2554994
:105A600018461CF005F9FB7B4FF4867202FB03F32A
:105A7000494A13441946D7F88C00FDF7A1FEFB7B79
:105A80004FF4867202FB03F3434A9818B7F94E307D
:105A9000454A82FB03129210DB17D31A1BB21C4635
:105AA000B7F94E20404B83FB02139910D317C91A44
:105AB0000B469B000B445B00D31A1BB222463E49A7
:105AC0001CF0D6F8FB7B4FF4867202FB03F3324ADC
:105AD00013441946D7F88C00FDF772FE05F003B9A0
