:020000040800F2
:10000000000003204DBE0008DB190208E9190208B0
:10001000511A0208711A0208911A02080000000021
:10002000000000000000000000000000812801081E
:10003000B11A020800000000912A0108BF1A020844
:10004000CD1A02089DBE00089DBE00089DBE000896
:100050009DBE00089DBE00089DBE00089DBE000814
:100060009DBE00089DBE00089DBE00089DBE000804
:100070009DBE00089DBE0008CD1D02089DBE000863
:100080009DBE00089DBE00089DBE00089DBE0008E4
:100090009DBE00089DBE00089DBE00089DBE0008D4
:1000A0009DBE0008E11D02089DBE00089DBE00081F
:1000B0009DBE00089DBE00089DBE00081D1E0208D2
:1000C000311E0208451E0208591E02089DBE000886
:1000D0009DBE0008291B02089DBE00089DBE0008A9
:1000E000E11A02089DBE00089DBE00089DBE0008E2
:1000F0009DBE00089DBE00089DBE00089DBE000874
:100100009DBE0008151B02089DBE00089DBE00088C
:10011000B11B02089DBE00089DBE00089DBE0008E0
:100120009DBE00089DBE00089DBE0008F51D02088A
:100130009DBE00089DBE00089DBE00089DBE000833
:100140009DBE00089DBE00089DBE00089DBE000823
:100150009DBE0008091E02089DBE00083D1C020845
:100160006D1E0208811E02089DBE00089DBE00088B
:100170009DBE00089DBE00089DBE00080000000056
:100180009DBE00089DBE0008C91C02089DBE000857
:100190009DBE00089DBE00089DBE00089DBE0008D3
:0C01A00000000000000000009DBE0008F0
:1001B00010B5054C237833B9044B13B10448AFF3A1
:1001C00000800123237010BD900700200000000074
:1001D000CCA5020808B5034B1BB103490348AFF394
:1001E000008008BD0000000094070020CCA5020894
:1001F00081F0004102E000BF83F0004330B54FEAD8
:1002000041044FEA430594EA050F08BF90EA020F44
:100210001FBF54EA000C55EA020C7FEA645C7FEAD7
:10022000655C00F0E2804FEA5454D4EB5555B8BFFA
:100230006D420CDD2C4480EA020281EA030382EA6B
:10024000000083EA010180EA020281EA0303362DFD
:1002500088BF30BD11F0004F4FEA01314FF4801CD0
:100260004CEA113102D0404261EB410113F0004FE2
:100270004FEA03334CEA133302D0524263EB430399
:1002800094EA050F00F0A780A4F10104D5F1200E37
:100290000DDB02FA0EFC22FA05F2801841F1000192
:1002A00003FA0EF2801843FA05F359410EE0A5F166
:1002B00020050EF1200E012A03FA0EFC28BF4CF097
:1002C000020C43FA05F3C01851EBE37101F000454D
:1002D00007D54FF0000EDCF1000C7EEB00006EEB5A
:1002E0000101B1F5801F1BD3B1F5001F0CD34908E4
:1002F0005FEA30004FEA3C0C04F101044FEA44523B
:1003000012F5800F80F09A80BCF1004F08BF5FEAC1
:10031000500C50F1000041EB045141EA050130BDA1
:100320005FEA4C0C404141EB010111F4801FA4F144
:100330000104E9D191F0000F04BF01460020B1FA99
:1003400081F308BF2033A3F10B03B3F120020CDAD1
:100350000C3208DD02F1140CC2F10C0201FA0CF0AF
:1003600021FA02F10CE002F11402D8BFC2F1200C14
:1003700001FA02F120FA0CFCDCBF41EA0C019040CA
:10038000E41AA2BF01EB0451294330BD6FEA040413
:100390001F3C1CDA0C340EDC04F11404C4F12002FE
:1003A00020FA04F001FA02F340EA030021FA04F310
:1003B00045EA030130BDC4F10C04C4F1200220FA67
:1003C00002F001FA04F340EA0300294630BD21FAA5
:1003D00004F0294630BD94F0000F83F4801306BF6B
:1003E00081F480110134013D4EE77FEA645C18BF5F
:1003F0007FEA655C29D094EA050F08BF90EA020FF6
:1004000005D054EA000C04BF1946104630BD91EAED
:10041000030F1EBF0021002030BD5FEA545C05D1F0
:100420004000494128BF41F0004130BD14F580042F
:100430003CBF01F5801130BD01F0004545F0FE41A3
:1004400041F470014FF0000030BD7FEA645C1ABFD8
:10045000194610467FEA655C1CBF0B46024650EA0F
:10046000013406BF52EA033591EA030F41F400213B
:1004700030BD00BF90F0000F04BF0021704730B5C1
:100480004FF4806404F132044FF000054FF0000196
:1004900050E700BF90F0000F04BF0021704730B557
:1004A0004FF4806404F1320410F0004548BF40422C
:1004B0004FF000013EE700BF42004FEAE2014FEA81
:1004C00031014FEA02701FBF12F07F4393F07F4F5C
:1004D00081F06051704732F07F4208BF704793F05F
:1004E0007F4F04BF41F40021704730B54FF4607472
:1004F00001F0004521F000411CE700BF50EA010275
:1005000008BF704730B54FF000050AE050EA01021D
:1005100008BF704730B511F0004502D5404261EB8D
:1005200041014FF4806404F132045FEA915C3FF4CE
:10053000D8AE4FF003025FEADC0C18BF03325FEA6B
:10054000DC0C18BF033202EBDC02C2F1200300FA1C
:1005500003FC20FA02F001FA03FE40EA0E0021FA41
:1005600002F11444BDE600BF70B54FF0FF0C4CF42F
:10057000E06C1CEA11541DBF1CEA135594EA0C0FE1
:1005800095EA0C0F00F0DEF82C4481EA030621EA1C
:100590004C5123EA4C5350EA013518BF52EA033557
:1005A00041F4801143F4801338D0A0FB02CE4FF009
:1005B0000005E1FB02E506F00042E0FB03E54FF039
:1005C0000006E1FB03569CF0000F18BF4EF0010E31
:1005D000A4F1FF04B6F5007F64F5407404D25FEA2D
:1005E0004E0E6D4146EB060642EAC62141EA5551E0
:1005F0004FEAC52040EA5E504FEACE2EB4F1FD0C22
:1006000088BFBCF5E06F1ED8BEF1004F08BF5FEA9F
:10061000500E50F1000041EB045170BD06F0004651
:1006200046EA010140EA020081EA0301B4EB5C04FE
:10063000C2BFD4EB0C0541EA045170BD41F48011F6
:100640004FF0000E013C00F3AB8014F1360FDEBF1B
:10065000002001F0004170BDC4F10004203C35DAF7
:100660000C341BDC04F11404C4F1200500FA05F37A
:1006700020FA04F001FA05F240EA020001F000421B
:1006800021F0004110EBD37021FA04F642EB060191
:100690005EEA430E08BF20EAD37070BDC4F10C04BB
:1006A000C4F1200500FA04F320FA05F001FA04F27F
:1006B00040EA020001F0004110EBD37041F100016B
:1006C0005EEA430E08BF20EAD37070BDC4F1200576
:1006D00000FA05F24EEA020E20FA04F301FA05F2DE
:1006E00043EA020321FA04F001F0004121FA04F286
:1006F00020EA020000EBD3705EEA430E08BF20EA56
:10070000D37070BD94F0000F0FD101F0004640008F
:1007100041EB010111F4801F08BF013CF7D041EA11
:10072000060195F0000F18BF704703F00046520015
:1007300043EB030313F4801F08BF013DF7D043EAE6
:100740000603704794EA0C0F0CEA135518BF95EA9C
:100750000C0F0CD050EA410618BF52EA4306D1D123
:1007600081EA030101F000414FF0000070BD50EA42
:10077000410606BF1046194652EA430619D094EACC
:100780000C0F02D150EA013613D195EA0C0F05D1B6
:1007900052EA03361CBF104619460AD181EA03010A
:1007A00001F0004141F0FE4141F470014FF00000C2
:1007B00070BD41F0FE4141F4780170BD70B54FF05D
:1007C000FF0C4CF4E06C1CEA11541DBF1CEA1355DD
:1007D00094EA0C0F95EA0C0F00F0A7F8A4EB0504BF
:1007E00081EA030E52EA03354FEA013100F08880B6
:1007F0004FEA03334FF0805545EA131343EA12637F
:100800004FEA022245EA111545EA10654FEA002633
:100810000EF000419D4208BF964244F1FD0404F5EC
:10082000407402D25B084FEA3202B61A65EB030548
:100830005B084FEA32024FF480104FF4002CB6EB05
:10084000020E75EB030E22BFB61A754640EA0C0085
:100850005B084FEA3202B6EB020E75EB030E22BFC5
:10086000B61A754640EA5C005B084FEA3202B6EB06
:10087000020E75EB030E22BFB61A754640EA9C00C5
:100880005B084FEA3202B6EB020E75EB030E22BF95
:10089000B61A754640EADC0055EA060E18D04FEA53
:1008A000051545EA16754FEA06164FEAC30343EAF3
:1008B00052734FEAC2025FEA1C1CC0D111F4801FC0
:1008C0000BD141EA00014FF000004FF0004CB6E7B9
:1008D00011F4801F04BF01430020B4F1FD0C88BF58
:1008E000BCF5E06F3FF6AFAEB5EB030C04BFB6EB63
:1008F000020C5FEA500C50F1000041EB045170BD56
:100900000EF0004E4EEA113114EB5C04C2BFD4EB82
:100910000C0541EA045170BD41F480114FF0000E06
:10092000013C90E645EA060E8DE60CEA135594EA82
:100930000C0F08BF95EA0C0F3FF43BAF94EA0C0F85
:100940000AD150EA01347FF434AF95EA0C0F7FF4FA
:1009500025AF104619462CE795EA0C0F06D152EA4E
:1009600003353FF4FDAE1046194622E750EA410632
:1009700018BF52EA43067FF4C5AE50EA41047FF443
:100980000DAF52EA43057FF4EBAE12E74FF0FF3CA8
:1009900006E000BF4FF0010C02E000BF4FF0010C79
:1009A0004DF804CD4FEA410C7FEA6C5C4FEA430CF2
:1009B00018BF7FEA6C5C1BD001B050EA410C0CBF41
:1009C00052EA430C91EA030F02BF90EA020F0020A3
:1009D000704710F1000F91EA030F58BF994208BF0A
:1009E00090422CBFD8176FEAE37040F001007047C7
:1009F0004FEA410C7FEA6C5C02D150EA013C07D11E
:100A00004FEA430C7FEA6C5CD6D152EA033CD3D068
:100A10005DF8040B704700BF8446104662468C4662
:100A20001946634600E000BF01B5FFF7B7FF002895
:100A300048BF10F1000F01BD4DF808EDFFF7F4FFBE
:100A40000CBF012000205DF808FB00BF4DF808ED49
:100A5000FFF7EAFF34BF012000205DF808FB00BF6C
:100A60004DF808EDFFF7E0FF94BF012000205DF88E
:100A700008FB00BF4DF808EDFFF7CEFF94BF012043
:100A800000205DF808FB00BF4DF808EDFFF7C4FF3C
:100A900034BF012000205DF808FB00BF4FEA410C85
:100AA0007FEA6C5C02D150EA013C0AD14FEA430C68
:100AB0007FEA6C5C02D152EA033C02D14FF00000A5
:100AC00070474FF0010070474FEA410212F50012E3
:100AD00015D211D56FF47873B3EB625212D94FEA85
:100AE000C12343F0004343EA505311F0004F23FA6F
:100AF00002F018BF404270474FF00000704750EAC4
:100B0000013005D111F0004008BF6FF00040704780
:100B10004FF00000704700BF034613F8012B002A76
:100B2000FBD1181A013870470000000000000000D7
:100B300001F0FF01102A2BDB10F0070F08D010F88E
:100B4000013B013A8B422DD010F0070F42B3F6D192
:100B5000F0B441EA012141EA014122F007047FF0AB
:100B600000070023F0E80256083C85EA010586EA02
:100B7000010685FA47F5A3FA87F586FA47F6A5FA3E
:100B800087F68EB9EED1F0BC01F0FF0102F007024A
:100B900032B110F8013B013A83EA010313B1F8D1F5
:100BA0000020704701387047002D06BF35460338D6
:100BB000073815F0010F07D1013015F4807F02BF0F
:100BC000013015F4C03F0130F0BC0138704700BF60
:100BD00080B582B000AF786038200CF0D8F80346BA
:100BE000002B0ED19C4B1B680D2201219B480CF061
:100BF000D7FA9B4B1B680D22012198480CF0D0FAC4
:100C00000DE0954B1B680C22012196480CF0C8FAA8
:100C1000934B1B680C22012192480CF0C1FA3C2036
:100C20000CF0B5F80346002B0ED18B4B1B680D2240
:100C300001218D480CF0B4FA894B1B680D2201216B
:100C400089480CF0ADFA0DE0834B1B680C220121A2
:100C500086480CF0A5FA824B1B680C2201218348C0
:100C60000CF09EFA30200BF01AF90346012B0ED13E
:100C7000794B1B680D2201217D480CF091FA784BCD
:100C80001B680D2201217A480CF08AFA02E07948AB
:100C90000AF05AFC32200BF002F90346012B0ED168
:100CA0006D4B1B680D22012173480CF079FA6C4BD7
:100CB0001B680D22012170480CF072FA02E06D48A9
:100CC0000AF042FC10F060FF01220021032011F025
:100CD00011F80346012B0DD15F4B1B6801226749B8
:100CE00018460CF0FDF85E4B1B680122634918465C
:100CF0000CF0F6F801220021042010F0FBFF03465F
:100D0000012B0DD1544B1B6802225C4918460CF094
:100D1000E7F8534B1B680222584918460CF0E0F8DC
:100D200001220021052010F0E5FF0346012B0DD123
:100D3000494B1B680322514918460CF0D1F8484B27
:100D40001B6803224D4918460CF0CAF8032011F025
:100D5000A3F90346012B0ED13F4B1B6801224849E2
:100D600018460CF0BDF83E4B1B680122444918465A
:100D70000CF0B6F80DE0384B1B68012241491846CB
:100D80000CF0AEF8364B1B6801223E4918460CF0B9
:100D9000A7F8042011F080F90346012B0ED12E4B49
:100DA0001B680222364918460CF09AF82C4B1B6837
:100DB0000222334918460CF093F80DE0264B1B68CD
:100DC0000222304918460CF08BF8254B1B68022292
:100DD0002C4918460CF084F8052011F05DF9034603
:100DE000012B0ED11C4B1B680322254918460CF021
:100DF00077F81B4B1B680322214918460CF070F84A
:100E00000DE0154B1B6803221E4918460CF068F8CC
:100E1000134B1B6803221B4918460CF061F8012094
:100E200022F0FAF801F03CFC012022F0D9F8164B30
:100E30005B69154A43F01003536132200BF00AFE40
:100E4000114B5B69104A23F0100353614FF47A7021
:100E50000BF000FEE8E700BF14000020E8A5020840
:100E60000C000020F8A5020808A6020818A602082F
:100E700028A6020850E6002038A6020848A6020864
:100E80005CA602086CA602080008024080B500AF0C
:100E90000121022000F060FC0346002B04D004482E
:100EA00001F0F8F8012300E00023184680BD00BFE0
:100EB00080A6020880B582B000AF0346FB71FB79C3
:100EC000002B04D10121032000F046FC0AE0FB794D
:100ED0009BB21946012000F03FFC0021032000F0E6
:100EE0003BFC00BF0837BD4680BD000080B500AFA9
:100EF0000E4B1B68132201210D480CF051F9012102
:100F0000062001F00DF80121052000F001FE01216D
:100F1000052001F005F80121052000F0F9FD01216F
:100F2000012000F06FFE00BF80BD00BF1400002054
:100F300004A7020880B500AF0C4B1B6812220121E8
:100F40000B480CF02DF90021052000F0E9FF0121EC
:100F5000052000F0DDFD0021062000F0E1FF012169
:100F6000012000F04FFE00BF80BD00BF1400002034
:100F700018A7020880B500AF012022F031F8FFF772
:100F8000B5FF0121052000F0C3FD012022F028F863
:100F9000FFF7D0FF01211E2000F0BAFD012022F052
:100FA0001FF800BF80BD80B500AF00F0B1FA034666
:100FB000002B01D001230BE00121052000F0A8FD4A
:100FC00000F0A6FA0346002B01D0022300E0002324
:100FD000184680BD80B58CB000AF786039607B6802
:100FE0009B7887F82F307B6803331B781B021AB27B
:100FF0007B6804331B781BB213431BB2BB857B6831
:1010000005331B781B021AB27B6806331B781BB2B0
:1010100013431BB27B857B6807331B781A067B68FA
:1010200008331B781B041A437B6809331B781B02A7
:1010300013437A680A32127813437B6297F82F3091
:10104000002B07D0364B1B681522012135480CF0C8
:10105000A7F806E0324B1B681522012132480CF03C
:101060009FF8BB8D03F00103002B06D02C4B1B68AF
:10107000072201212D480CF093F8BB8D03F00203E9
:10108000002B06D0264B1B680B22012128480CF0B0
:1010900087F8BB8D03F00803002B06D0204B1B689C
:1010A0000C22012123480CF07BF8BB8D03F01003C8
:1010B000002B19D01A4B1B68082201211E480CF086
:1010C0006FF807F10C0300221A605A609A60DA6028
:1010D0001A619A8207F10C03184600F09DF807F197
:1010E0000C03184600F01CF9BB8D03F02003002B05
:1010F00006D00B4B1B680A22012110480CF050F857
:101100003B687A8D1A80064B18687A8D7B6A0C4989
:101110000BF0E6FEBB8D18463037BD4680BD00BFE4
:10112000140000202CA7020844A702085CA70208AC
:1011300064A7020870A7020880A702088CA702080B
:1011400098A7020880B584B000AF78600023BB6028
:101150000023FB7307E0FB7B7A68134400221A70BC
:10116000FB7B0133FB73FB7B152BF4D991233B7283
:1011700001237B7207F108030421184600F056FB97
:10118000214B1B681B22012120480CF009F807F1B4
:1011900008030421184600F0F7FB0346002B01D09A
:1011A00001232DE003200BF055FC01221621786865
:1011B00000F022FC0346002B01D0022320E0124B5A
:1011C0001B680A22012112480BF0EAFF0023FB737F
:1011D0000CE00D4B1868FB7B7A6813441B781A46A9
:1011E0000C490BF07DFEFB7B0133FB73FB7B152B66
:1011F000EFD9054B1B6819460D200BF0E3FF0023C8
:1012000018461037BD4680BD14000020BCA7020858
:10121000D8A70208E4A7020880B584B000AF7860C0
:1012200007F1080300221A601A7194233B7201230C
:101230007B721523BB7207F108030521184600F0E5
:10124000F5FA0023FB7307E0FB7B7A681344002266
:101250001A70FB7B0133FB73FB7B152BF4D9294BF5
:101260001B681A22012128480BF09AFF07F1080396
:101270000521184600F088FB0346002B08D0214BBF
:101280001B681422012121480BF08AFF012335E05D
:1012900003200BF0DFFB01221621786800F0ACFB85
:1012A0000346002B08D0174B1B6813220121184856
:1012B0000BF076FF022321E0124B1B680A2201216A
:1012C00014480BF06DFF0023FB730CE00D4B186806
:1012D000FB7B7A6813441B781A460F490BF000FE1B
:1012E000FB7B0133FB73FB7B152BEFD9054B1B6895
:1012F0000222012109480BF053FF00231846103742
:10130000BD4680BD14000020ECA7020808A8020812
:1013100020A80208D8A70208E4A7020834A80208F7
:1013200080B584B000AF78607B6802331B781B0205
:101330001AB27B6803331B781BB213431BB2FB81C9
:10134000294B1B681022012128480BF029FFFB893B
:1013500003F00103002B06D0234B1B68162201214A
:1013600023480BF01DFFFB8903F00203002B06D07E
:101370001D4B1B68182201211E480BF011FFFB8931
:1013800003F00303002B06D0174B1B680F2201212B
:1013900019480BF005FFFB8903F00503002B06D06D
:1013A000114B1B681422012114480BF0F9FEFB8934
:1013B00003F00603002B06D00B4B1B681322012100
:1013C0000F480BF0EDFEFB8903F00703002B06D05E
:1013D000054B1B68202201210A480BF0E1FEFB8926
:1013E00018461037BD4680BD1400002038A80208FA
:1013F0004CA8020864A8020880A8020890A8020865
:10140000A8A80208BCA8020880B584B000AF786024
:1014100007F1080300221A601A7197233B72012317
:101420007B720023BB7207F108030521184600F008
:10143000FDF9314B1B681E22012130480BF0B0FE34
:1014400007F108030521184600F09EFA0346002B19
:1014500001D001234BE003200BF0FCFA0022102105
:10146000274817F005FC40F6B8334FF482727968CC
:1014700024481DF0B1FF0346FB73012210212048D0
:1014800017F0F6FBFB7B002B0DD01B4B1B682422B7
:1014900001211D480BF084FEFB7B0021184600F063
:1014A000E9FE022323E007F1080301220021184688
:1014B00000F0A2FA0346002B01D0032317E04FF4FB
:1014C0008271786800F0D5F9034683F00103DBB23E
:1014D000002B06D0084B1B68242201210B480BF07F
:1014E0005FFE4FF48271786800F070FB00231846AD
:1014F0001037BD4680BD00BF14000020E0A80208E0
:10150000000002400CEA002000A9020828A90208F5
:1015100080B500AF0021012000F044F803461846D2
:1015200080BD000080B500AF184B1B881946002015
:1015300000F012F9164B1B881946122000F00CF926
:10154000134B1B881946122000F006F9114B1B881B
:1015500019460B2000F000F90F4B1B881946132089
:1015600000F0FAF80D4B1B881946072000F0F4F83C
:101570000B4B1B881946082000F0EEF801210020D3
:1015800000F010F80346184680BD00BF00000020A0
:1015900002000020B0070020AE070020B2070020A4
:1015A000B4070020B0B596B004AF03460A46FB71FD
:1015B0001346BB7107F1280300221A605A609A6033
:1015C000DA601A615A611A7607F1200300221A6064
:1015D0001A71FB79002B0AD0554B1B68162201218A
:1015E00054480BF0DDFD902387F8283009E0504B7C
:1015F0001B681622012150480BF0D2FD922387F878
:101600002830012387F82930BB79002B0AD0484BBA
:101610001B681C22012149480BF0C2FD012387F8F9
:101620002A3009E0424B1B681C22012144480BF080
:10163000B7FD002387F82A30424B1A6807F10C03E4
:10164000194641481CF02BF83E4B1A6807F1080375
:1016500019463D481CF036F9354B18687B7A1C4614
:10166000BB7A1D463B7B7A7BB97B0291019200934A
:101670002B46224635490BF033FCBB7B19467B7B5E
:101680001A4613461B019B1A9B00CA183B7B19463E
:101690004FF4616303FB01F31A44BB7A19462C4BE8
:1016A00003FB01F31A447B7A19462A4B03FB01F32F
:1016B00013447B647B6C1B0EDBB287F82D307B6C94
:1016C0001B0CDBB287F82E307B6C1B0ADBB287F871
:1016D0002F307B6CDBB287F8303007F128031921FB
:1016E000184600F0A3F807F128031921184600F066
:1016F0004BF90346002B01D0012315E003200BF02A
:10170000A9F907F1200300220521184600F074F919
:101710000346002B01D0022306E007F12003052138
:10172000184600F053FA002318464837BD46B0BDAE
:101730001400002078A9020890A90208A8A90208AC
:10174000C8A90208BC07002074E80020E8A9020824
:1017500080510100008D270080B586B000AF0346A0
:101760000A46FB711346BB8007F1100300221A6082
:10177000C3F8032007F1080300221A601A719323AB
:101780003B7401237B74FB79BB74BB881B0A9BB23F
:10179000DBB2FB74BB88DBB23B7507F1100307219A
:1017A000184600F043F81D4B1868FA79BB881C49AD
:1017B0000BF096FB07F110030721184600F0E4F840
:1017C0000346002B08D0154B1B681C22012115482D
:1017D0000BF0E6FC01231CE003200BF03BF907F1C2
:1017E000080300220521184600F006F90346002BE5
:1017F00008D00A4B1B681D2201210B480BF0D0FCBE
:10180000022306E007F108030521184600F0DEF97F
:10181000002318461837BD4680BD00BF14000020C5
:1018200018AA020838AA020858AA020880B584B08B
:1018300000AF786039603B68023B1A4679684FF622
:10184000FF7000F043F80346FB81FB891B0A99B245
:101850003B68023B7A681344CAB21A703B68013B8A
:101860007A681344FA89D2B21A7000BF1037BD46A5
:1018700080BD80B584B000AF786039603B68023BC2
:101880001A4679684FF6FF7000F020F80346FB8196
:10189000FB891B0A9BB27B73FB893B733B68023B52
:1018A0007A6813441B787A7B9A4209D13B68013BE2
:1018B0007A6813441B783A7B9A4201D1012300E0F5
:1018C000002318461037BD4680BD000080B5ADF539
:1018D000087D00AF07F1080319603B1D1A6007F18E
:1018E0000E0302461A8007F11003264A18461146D5
:1018F0004FF400731A4626F026F94FF6FF73A7F847
:101900001E320023A7F81C322EE0B7F81C3207F174
:101910000802126813441B78A7F81A32B7F81E326F
:101920001B0AA7F81832B7F81822B7F81A32534032
:10193000A7F81632B7F81632DBB2A7F81432B7F8A8
:101940001E321B02A7F81232B7F8142207F1100357
:1019500033F81220B7F812325340A7F81E32B7F806
:101960001C320133A7F81C32B7F81C323A1D12683A
:101970009A42CADCB7F81E32184607F50877BD460A
:1019800080BD00BF78AA020880B586B002AF78603B
:1019900039600123FB733B689AB2642300931346BA
:1019A0007A68CC21104817F0A5FA0346FB73FB7B3D
:1019B000002B13D00D4B1B68262201210C480BF085
:1019C000EFFB0A4B1B681A2201210A480BF0E8FBC7
:1019D000FB7B184600F04EFCFB7B00E00023184622
:1019E0001037BD4680BD00BF98E4002014000020E1
:1019F00078AC0208A0AC020880B588B002AFF860ED
:101A0000B9601346FB713C4B1B680F2201213B4818
:101A10000BF0C6FB0123FB7507F1100300221A60CF
:101A20001A71BB68002B36D0BB689AB2642300934E
:101A30001346FA68CC21324817F06AFB0346FB755F
:101A4000FB7D002B0CD02C4B1B68252201212D483F
:101A50000BF0A6FBFB7D184600F00CFCFB7D46E07E
:101A6000BB68B3F5827F05D1FB6891221A70FB68D1
:101A700095221A70B968F868FFF7FBFE034683F0F9
:101A80000103DBB2002B06D01B4B1B682422012173
:101A90001D480BF085FBFB79002B27D0FB681B78DA
:101AA0003B7401237B747E23BB7407F11003052173
:101AB0001846FFF7BBFE07F11002642300930523CD
:101AC000CC210F4817F016FA0346FB75FB7D002B5F
:101AD0000CD0094B1B681C2201210C480BF060FB49
:101AE000FB7D184600F0C6FB022300E000231846E9
:101AF0001837BD4680BD00BF14000020BCAC0208F2
:101B000098E40020CCAC020828A90208F4AC020832
:101B100080B584B000AF03460A46FB8013467B7154
:101B20007B79002B06D0244B1B68FA882349184682
:101B30000BF0D6F9012021F053FA0023FB8124E0B9
:101B400064200AF087FF012021F04AFA7B79002BFC
:101B500018D0FA891A4BA3FB0213D9080B469B0035
:101B60000B445B00D31A9BB2002B0BD1124B1868AD
:101B7000FB89134AA2FB0323DB089BB21A461149D7
:101B80000BF0AEF9FB890133FB81F989FA88134622
:101B90009B0013445B009942D2DB7B79002B06D07B
:101BA000054B1B680222012107480BF0F9FA00BF20
:101BB0001037BD4680BD00BF1400002014AD0208E0
:101BC000CDCCCCCC2CAD020834AD020880B582B0AF
:101BD00000AF786039603B68052B0BD17B6802331E
:101BE0001B787E2B06D1054B1B680F220121044870
:101BF0000BF0D6FA00BF0837BD4680BD14000020A8
:101C000038AD0208F0B5ADF5497D06AF07F10C031C
:101C1000186007F1080319607F4BC7F804337F4B46
:101C2000C7F8003307F114037D4A07CA83E80700A9
:101C300007F53E731946012000F00EF907F53D73D4
:101C40001946022000F008F907F53C7319460B20ED
:101C500000F002F907F53B731946102000F0FCF87C
:101C600007F53A731946112000F0F6F86D4B1B6822
:101C70001A466D496D481BF012FD6A4B1B681A46E7
:101C80006B496A481BF01EFE694BDB781D46684BAA
:101C90005B781E46664B9B781A46634B1B78194649
:101CA000614B5B781C46604B9B7807F51A70039379
:101CB00002940191009233462A465E4926F06AFC5E
:101CC000D7F8F8327B60D7F8F83207EE903AB8EEE2
:101CD000E77AD7EDC17A67EE277A17EE900AFEF71A
:101CE000EBFB04460D46D7F8F462D7F8F43207EE62
:101CF000903AB8EEE77AD7EDC07A67EE277A17EE1A
:101D0000900AFEF7D9FB02460B4607F51A7107F554
:101D10002170CDE904230296CDE900457B680A468F
:101D2000454926F037FC07F10C031B68012B5FD1F6
:101D300007F1140107F13803132218460DF0B2FB26
:101D4000034687F8FF3297F8FF32002B41D13B4B17
:101D50001B68292201213A480BF022FA07F12002E0
:101D600007F11403114618460EF080FC034687F86D
:101D7000FF3297F8FF32002B25D1304B1B68302201
:101D8000012130480BF00CFA07F120031A6807F123
:101D90003803114618460EF014F9034687F8FF324F
:101DA00097F8FF32002B0ED1244B1B683122012102
:101DB00025480BF0F5F907F5217207F138031146B4
:101DC00018460BF08DF807F1380318460EF0CAF8E4
:101DD0000EE01A4B1B682F2201211C480BF0E0F982
:101DE000164B1B6897F8FF22194918460BF078F834
:101DF00007F108031B68012B08D1104B1868D7F8AE
:101E0000EC22D7F8E83213490BF06AF800BF07F567
:101E10004377BD46F0BD00BFDD2416403333434059
:101E2000A8AE0208BC07002030E6002074E80020BD
:101E300070E8002048AD020868AD020814000020D8
:101E4000A4AD0208D0AD020804AE020838AE020804
:101E500068AE020884AE020880B588B004AF0346BD
:101E60003960FB800023BB733B68294A1A6009F084
:101E7000E1FABB7B002B17D0FB7B012B0BD0FB7B4C
:101E8000032B08D0FB7B022B08D1224B93F83D306B
:101E9000DBB2202B02D11F4809F056FB05200AF0C7
:101EA000D9FDBB7B092B15D8FA880A23029302239C
:101EB000019307F10803009301233021154817F01F
:101EC00061FC0346FB73BB7B0133BB73FB7B002BC5
:101ED000CFD100E000BF0F4816F0DCFFFB7B002BEA
:101EE0000BD13B7A9BB21B029AB27B7A9BB2134412
:101EF000BB81BA893B681A6006E0074B1B68132256
:101F0000012106480BF04CF900BF1037BD4680BDDB
:101F1000F1D8FFFFDCE5002014000020B4AE020879
:101F200080B588B002AF03460A46FB8013467B713A
:101F30000023BB7507F10C033B6109F07BFABB7D05
:101F4000002B17D0FB7D012B0BD0FB7D032B08D082
:101F5000FB7D022B08D11B4B93F83D30DBB2202BCD
:101F600002D1184809F0F0FA05200AF073FDBB7D94
:101F7000092B15D8FB88DBB23B737B797B730A2373
:101F8000009302233A6930210E4816F0B3FF03464E
:101F9000FB75BB7D0133BB75FB7D002BCFD100E012
:101FA00000BF084816F076FFFB7D002B06D0064BDD
:101FB0001B681422012105480BF0F2F800BF183706
:101FC000BD4680BDDCE5002014000020C8AE02083C
:101FD00080B500AF012021F003F800F0E7FD0346D3
:101FE000002B04D0164800F055F8012325E001200D
:101FF00020F0F6FF134800F0F9F80346002B04D058
:10200000114800F047F8022317E0012020F0E8FF14
:102010000C4800F023F80346002B04D00B4800F0D6
:1020200039F8032309E00A4800F034F8094800F0C1
:1020300031F8094B01221A700023184680BD00BFF9
:10204000E0AE0208FCDC002000AF02082CAF020862
:1020500044AF020860AF0208B607002080B582B026
:1020600000AF7860786800F03FFC0346002B04D096
:10207000064800F00FF8012303E0054800F00AF8D5
:10208000002318460837BD4680BD00BF2CAF0208AC
:1020900044AF020880B584B000AF78600023FB73C2
:1020A000094B1B78002B04D0786800F011F801234D
:1020B000FB73064B1B68796818460AF011FFFB7B1F
:1020C00018461037BD4680BDB6070020140000201A
:1020D000F0B5A1B004AF7860394B1B681A46394996
:1020E00039481BF0DCFA364B1B681A46374936482C
:1020F0001BF0E8FB354BDB781D46344B5B781E4606
:10210000324B9B781A462F4B1B7819462D4B5B7828
:102110001C462C4B9B7807F10C0003930294019111
:10212000009233462A462A4926F034FA07F10C0376
:102130001846FEF7F1FC03461A4607F10C03134458
:10214000244A1188927819809A7007F10C037968F3
:10215000184626F06BFA07F10C031846FEF7DCFC74
:1021600003461A4607F10C0313441B4A1188927860
:1021700019809A7007F10C031846FEF7CDFC034650
:102180009AB207F10C031946144800F029FC0346E3
:10219000002B08D0124B1B681B22012111480AF0AA
:1021A000FFFF012307E00E4B1B681F2201210E4891
:1021B0000AF0F6FF002318467437BD46F0BD00BF95
:1021C000BC07002030E6002074E8002070E8002002
:1021D00084AF0208A4AF0208A8AF0208FCDC00200C
:1021E00014000020ACAF0208C8AF020880B592B05E
:1021F00000AF7860002387F84630002387F8473027
:1022000012E097F8462007F13C031849184626F0DB
:10221000C1F907F13C03184600F0ACFD0346002B62
:1022200002D1012387F8473097F8473083F0010344
:10223000DBB2002BE5D1012020F0D2FE07F13C02F9
:1022400007F108030A49184626F0A4F907F1080324
:102250001846FFF71FFF07F13C031946786826F080
:10226000F4F9002318464837BD4680BDE8AF0208A0
:10227000F0AF020880B582B000AF0346FB710B4699
:10228000BB7113467B717B79052B07D9FB79002B3A
:1022900004D01048FFF7FEFE00F0FEF8FB79002B9B
:1022A00003D10D48FFF7F6FE10E0BB79002B06D0F6
:1022B0007A79FB791146184600F05AF806E07A79E7
:1022C000FB791146184600F009F800BF0837BD46F3
:1022D00080BD00BF24B002085CB0020880B582B0A7
:1022E00000AF03460A46FB711346BB71BB79052B51
:1022F00008D91A48FFF7CEFEBA79FB7900211846B3
:10230000FFF7B8FFFB79012B07D11548FFF7C2FE95
:10231000BB79184600F09EF81BE0FB79022B07D131
:102320001048FFF7B7FEBB79184600F093F810E0AD
:10233000FB79032B07D10C48FFF7ACFEBB7918469D
:1023400000F088F805E0FB79002B02D10748FFF781
:10235000A1FE00BF0837BD4680BD00BF94B0020893
:10236000D0B00208E8B0020814B1020828B102088F
:1023700080B582B000AF03460A46FB711346BB71BD
:10238000BB79052B08D91D48FFF784FEBA79FB7984
:1023900001211846FFF76EFFFB79012B07D1184882
:1023A000FFF778FEBB79184600F032F821E0FB79A0
:1023B000022B07D11348FFF76DFEBB79184600F0DA
:1023C00027F816E0FB79032B07D10F48FFF762FED1
:1023D000BB79184600F01CF80BE0FB79002B08D104
:1023E0000A48FFF757FEBA79FB7901211846FFF733
:1023F00041FF00BF0837BD4680BD00BF3CB10208A9
:1024000078B1020890B10208BCB10208D0B102084C
:1024100080B584B000AF0346FB710C48FFF73AFE6D
:102420000B4816F037FD0A4816F054FC0346FB73C0
:10243000FB790133FB71FA79FB7B11461846FFF7F4
:1024400097FF00BF1037BD4680BD00BFE4B1020852
:1024500098E4002080B584B000AF0346FB710C48BF
:10246000FFF718FE0B481CF052FE0A481CF0E3FD73
:102470000346FB73FB790133FB71FA79FB7B114651
:102480001846FFF72BFF00BF1037BD4680BD00BFC9
:10249000E4B102080CEA002080B500AF0348FFF762
:1024A000F9FD15F08CF900BF80BD00BF08B202082D
:1024B00080B582B000AF012020F092FD01221021F2
:1024C0002B4816F0D5FB01210220FFF721FBFEF778
:1024D00051FD0323BB710023FB7119E0254B1B68E1
:1024E0001A22012124480AF05BFE224B1B6820229D
:1024F000012122480AF054FE1F48FFF7E9FD204859
:10250000FFF7E6FD012020F06BFDFB790133FB7145
:10251000FEF749FD0346002B03D0FA79BB799A42B6
:10252000DCD3FA79BB799A420BD1124B1B681A2281
:10253000012111480AF034FE0F48FFF7C9FD0123BD
:1025400011E001210020FFF707F90E48FFF7C0FD59
:10255000012020F045FD00211020FFF7FDF80A487A
:10256000FFF7B6FD002318460837BD4680BD00BF03
:1025700000000240140000201CB2020838B2020819
:102580005CB2020880B2020898B2020880B5DCB0E2
:1025900000AF07F1680318464FF482731A46002112
:1025A00025F0DCFA07F1500300221A605A609A60A5
:1025B000DA601A619A8207F150031846FEF7C2FDED
:1025C00007F14E0207F1500311461846FEF702FDCF
:1025D0000023A7F86E312E4B1B881A4607F14403DF
:1025E0002C49184625F0D6FF294B1B881A4607F1BF
:1025F00038032949184625F0CDFF07F14403184652
:1026000000F072F907F13803184600F06DF907F190
:1026100044023B1D2149184625F0BCFF3B1D1846CE
:10262000FFF738FD29E007F168031846FEF7ECFED6
:1026300007F1680107F144034FF48272184600F075
:1026400043FA07F150031846FEF77CFD07F14E02EE
:1026500007F1500311461846FEF7BCFC07F1500184
:1026600007F138031622184600F0BAF901210120BB
:10267000FFF7C8FA012020F0B3FC07F14E031B88D6
:10268000002BD0D100BF184607F5B877BD4680BDF6
:10269000B807002054B4020860B402086CB4020801
:1026A00080B5ADF5187D00AF07F5117300221A60F3
:1026B0005A609A60DA601A619A8207F5A073184628
:1026C0004FF482731A46002125F048FA07F13C03C3
:1026D00018464FF482731A46002125F03FFA04236E
:1026E00087F85D3207F1340300221A7007F13403D2
:1026F00001225A7007F134031E229A7007F1340345
:102700009E22DA70002387F85F32FFF761FC0346F0
:10271000002B02D06648FFF7BDFCFFF7C9FE034659
:10272000002B0AD06348FFF7B5FC6348FFF7B2FC03
:10273000012020F055FCFFF7B3FF97F85F2297F8D0
:102740005D329A4202D9002387F85F3297F85F32F0
:1027500007F13402D35C1846FEF7ACFB574B186800
:1027600097F85F3207F13402D35C1A4654490AF0F5
:10277000B7FBFEF7D7FE0346002B05D05148FFF705
:1027800089FC012020F02CFC07F511731846FEF798
:10279000D9FC07F13A0207F5117311461846FEF706
:1027A00019FC4948FFF776FC012020F019FCFEF7E0
:1027B0006DFB012020F014FC002387F85E325A23C1
:1027C00087F85C322CE04148FFF764FC01210120CE
:1027D000FFF79EF907F511731846FEF7B3FC07F1F2
:1027E0003A0207F5117311461846FEF7F3FB97F806
:1027F0005E22374BA3FB021319090B469B000B44C7
:102800009B00D31ADBB2002B05D13248FFF742FC04
:10281000012020F0E5FB97F85E32013387F85E3245
:1028200097F85E2297F85C329A420CD807F13A0288
:1028300007F5117311461846FEF7CCFB034603F06B
:102840000203002BBFD097F85E2297F85C329A42C1
:1028500007D92148FFF71EFC012020F0C1FBFFF73C
:102860001FFF1E48FFF716FC97F85F3207F134028E
:10287000D35C1A463B461A49184625F08BFE3B4668
:102880001846FFF707FCFFF781FE164B1B88013344
:102890009AB2144B1A80012020F0A2FB012020F0F4
:1028A0009FFB97F85F32013387F85F3245E700BF3F
:1028B00080B402081CB2020894B40208140000207C
:1028C000B4B40208D0B40208ECB4020808B5020897
:1028D000CDCCCCCC20B5020838B5020860B50208D2
:1028E0007CB50208B807002080B584B000AF7860DE
:1028F0000022314931480CF071FD0346002B09D00C
:102900002F4B1B68182201212E480AF049FC032393
:10291000BB7347E0122279682B480CF0C3FD0346D5
:10292000FB73FB7B052B09D1786800F0ABF90A2219
:10293000796825480CF0B6FD0346FB73FB7B002B42
:1029400024D01F4B1B68796818460AF0C9FA1C4B43
:102950001B681F2201211D480AF022FC184B1B682E
:10296000FA7B1B4918460AF0BBFA154B1B6802227A
:10297000012118480AF014FC114B1B681222012196
:1029800015480AF00DFC0223BB730BE00E480DF056
:10299000E9FA0B4B1B682222012110480AF000FCC7
:1029A0000023BB730022002104480CF017FDBB7B01
:1029B00018461037BD4680BD74EA0020A8EC002000
:1029C0001400002094B5020878EA0020B0B502088F
:1029D000D0B50208D8B50208DCB50208F0B5020887
:1029E00080B586B000AFF860B9601346FB80002266
:1029F0002D492E480CF0F2FC0346002B0BD02C4B3B
:102A00001B68182201212B480AF0CAFB00F09CFA2F
:102A10000323FB753DE03222F96827480CF042FDA4
:102A20000346002B0BD000F08FFA214B1B681F22AE
:102A3000012122480AF0B4FB0223FB7529E0FA8841
:102A400007F11003B9681C480DF05FF80346BB7529
:102A50003B69002B02D0BB7D002B0ED000F074FA36
:102A6000134B1B681722012115480AF099FB1248E5
:102A70000DF078FA0123FB750BE00F480DF072FAA8
:102A80000B4B1B68212201210E480AF089FB002311
:102A9000FB750022002105480CF0A0FCFB7D1846C8
:102AA0001837BD4680BD00BF74EA0020A8EC0020A6
:102AB0001400002094B5020878EA0020B0B502089E
:102AC00014B602082CB6020880B586B000AFF860D4
:102AD000B9601346FB8000222C492D480CF07EFC87
:102AE0000346002B0BD02B4B1B68182201212A48D0
:102AF0000AF056FB00F028FA0323FB753CE0322273
:102B0000F96826480CF0CEFC0346002B0BD000F0F1
:102B10001BFA204B1B681F22012121480AF040FBB1
:102B20000223FB7528E0FA8807F11003B9681B48F7
:102B30000CF0EBFF0346BB75FA883B699A4202D161
:102B4000BB7D002B0CD0134B1B68172201211548AD
:102B50000AF026FB11480DF005FA0123FB750BE086
:102B60000E480DF0FFF90B4B1B68222201210E4885
:102B70000AF016FB0023FB750022002104480CF02C
:102B80002DFCFB7D18461837BD4680BD74EA002039
:102B9000A8EC00201400002094B5020878EA002078
:102BA000B0B5020814B60208F0B5020880B5ADF55C
:102BB000047D02AF002387F8073200221E491F4818
:102BC0000CF00CFC0346002B08D01D4B1B68182290
:102BD00001211C480AF0E4FA012327E03A1D4FF4D2
:102BE0000073009313460022072113480DF03EFFA7
:102BF0000346002B0DD0124B1B681D2201211248E9
:102C00000AF0CEFA002200210C480CF0E7FB022368
:102C10000CE00B4B1B68152201210C480AF0C0FA8E
:102C20000022002105480CF0D9FB0023184607F5C7
:102C30000277BD4680BD00BF74EA0020A8EC0020EA
:102C40001400002094B502086CB602088CB6020885
:102C500080B584B000AF78607868FDF75DFF03460B
:102C60000133184624F050FF0346FB60FB68002B3D
:102C700003D07968F86825F0E8FCFB68184610373F
:102C8000BD4680BD80B586B000AF7860012020F0E1
:102C9000A7F97868FFF7DCFFF860F868FDF73CFFFC
:102CA00003463B6102E03B69013B3B613B69002B12
:102CB00006D03B69013BFA6813441B782F2BF2D1F5
:102CC0003B69002B02D03B69013B3B613B69002B18
:102CD0003DD03B69FA68134400221A70F8680DF081
:102CE000B7FD0346FB75FB7D002B1BD01B4B1B6800
:102CF000FA7D1B4918460AF0F3F8184B1B680222AC
:102D0000012118480AF04CFA144B1B6812220121C9
:102D100015480AF045FA114B1B68FA681349184622
:102D20000AF0DEF8FB7D052B07D1F868FFF7AAFF54
:102D3000F8680DF08DFD0346FB75FB7D002B06D179
:102D4000064B1B68FA680A4918460AF0C9F8F86881
:102D500024F0E2FE00BF1837BD4680BD14000020FD
:102D6000D0B50208D8B50208DCB50208A4B602083E
:102D7000BCB6020880B58AB000AF7860002387F83F
:102D800027300022154916480CF028FB0346002B7B
:102D900008D0144B1B681822012113480AF000FACE
:102DA000022316E007F10C03194678680DF05EFC6B
:102DB000034687F8263097F82630002B02D10123EE
:102DC00087F827300022002105480CF007FB97F810
:102DD000273018462837BD4680BD00BF74EA002062
:102DE000A8EC00201400002094B50208B0B590B003
:102DF00000AF404B404A1A6008F0A4FE3F4B5B6AAC
:102E00003E4A43F4E023536272B63C4B4FF00062FB
:102E10009A6062B600F0D0F81EF086FD08F08EF8D9
:102E200008F00EF908F0B4FD08F072FA08F0AAFAFA
:102E300008F02EFB08F05AFB08F0E6FB08F01AFC3D
:102E400008F050FC08F084FC08F04EFD08F0F4FC9B
:102E500008F074FD08F0ECFD10F0F0FC21F052FBDE
:102E6000274B1B68184600F0CBFB264B1B68184607
:102E700000F0C6FB244B5B69234A23F02003536117
:102E8000224B07F12C041D460FCD0FC42B68236085
:102E900007F12C030021184609F0B5FD02461C4B32
:102EA0001A6000F0D7F920F02DF81A4B07F118043A
:102EB0001D460FCD0FC42B68236007F118030021B6
:102EC000184609F0A0FD0246134B1A60134B3C1D37
:102ED0001D460FCD0FC42B6823603B1D00211846F3
:102EE00009F091FD012240210D4815F0C1FE09F0C5
:102EF00067FDFEE7340400205028004000ED00E0AC
:102F0000140000200C00002000080240F8B602085F
:102F100008DD00201CB702080CDD002040B70208C5
:102F20000018024080B582B000AF78607B681B68F3
:102F3000044A934201D11EF019FD00BF0837BD4677
:102F400080BD00BF0000014080B500AF104B5B6941
:102F50000F4A43F0100353610D4B5B690C4A43F079
:102F6000200353614FF4FA601EF01AFD084B5B69B1
:102F7000074A23F010035361054B5B69044A23F0B1
:102F8000200353614FF4FA601EF00AFDDEE700BF34
:102F90000008024080B500AFFFF7D6FF00BF80BD3C
:102FA00080B582B000AF78603960FFF7CDFF00BF19
:102FB0000837BD4680BD000080B500AF00F00CF9B9
:102FC00002460E4B1A600D4B1B68002B0CD14FF4C0
:102FD000806200210A4824F0C1FD094B094A1A60A9
:102FE000064B094A1A6007E0044B1B684FF48062E5
:102FF0001946034824F0A7FD00BF80BD10E1002062
:1030000010DD00202143AA5500001E0890B58FB0A6
:1030100000AF002387F82F3015F0F8F900F098F88A
:1030200078637B6B002B16D100237B6001233B610F
:103030001723FB6002237B6107F118023B1D114639
:10304000184615F045F80346002B02D015F0F8F9A4
:1030500043E0234B7B63234B234A1A6007F11C0395
:103060001946204800F046F8FB691E4AC2F8FC33B6
:103070000023BB621D4BF322DA6000233B631CE09C
:10308000184A3B6B13441B78DBB24FF00004C7E9CE
:1030900008347A6B3B6BD118D7E90823B86A15F06E
:1030A00061F9034687F82F3097F82F30002B0ED1A7
:1030B000BA6A3B6B134401333B63BB6A01334FF481
:1030C0008062B2FBF3F33A6B9A42D9D300E000BFBF
:1030D00015F0B6F9064A7B6B13603C37BD4690BDD0
:1030E00000001E0810DD00202143AA55003C0240CC
:1030F00010E1002080B582B000AF786039607B6855
:10310000104A934203D97B680F4A934209D97B68DE
:10311000B3F1005F11D37B6803F580630B4A9342E0
:103120000BD83B68002B08D04FF47F7279680020E1
:103130000AF072F902463B681A6000BF0837BD46C4
:1031400080BD00BFFFFF1D0800FC1F08FAFF022022
:1031500080B483B000AF0023BB801E4B1B683B6074
:103160000023FB800DE0B7F904309B023A6813445A
:103170001A46FB8813441B78FF2B07D1FB880133C9
:10318000FB80FB88B3F5806FEDD300E000BFFB88C8
:10319000B3F5806F06D2B7F904309BB201339BB20E
:1031A000BB8005E0B7F904309B023A6813440AE09B
:1031B000B7F904309B023A68134403F58063B3F116
:1031C000026FCDD3002318460C37BD465DF8047B53
:1031D000704700BF10E1002080B584B000AF7F23AE
:1031E000FB811A4BBB60B7F90E309B02BA681344DF
:1031F0001B68174A934219D1B7F90E309B02BA687F
:1032000013443A1D11461846FFF774FFB7F90E3004
:103210009B02BA681344D3F8FC237B689A4205D119
:10322000B7F90E309B02BA6813440AE0B7F90E30C2
:103230009BB2013B9BB2FB81B7F90E30002BD2DC75
:10324000002318461037BD4680BD00BF00001E0891
:103250002143AA55B0B586B000AF0023FB752EE020
:10326000FB7D3A4A4FF40C7101FB03F31344002237
:103270001A60FB7D364A002142F82310FB7D354A57
:10328000002142F82310FB7D334A002142F823102D
:10329000FB7D324A002142F82310FB7D304A002199
:1032A00042F82310FB7D2F4A002122F81310FB7DEA
:1032B0002D4A002122F81310FB7D0133FB75FB7DA5
:1032C000022BCDD9294B2A4A1A602A4B2A4A1A6066
:1032D0002A4B2B4A1A60254B1B68012229491846A4
:1032E0001DF0C8FC0346BB75BB7D002B01D0FFF76A
:1032F0002BFE204B1B680122224918461DF0BAFC08
:103300000346BB75BB7D002B01D0FFF71DFE1B4B99
:103310001B6801221B4918461DF0ACFC0346BB7517
:10332000BB7D002B01D0FFF70FFE174B3C461D461F
:103330000FCD0FC42B6823603B460021184609F0CF
:1033400062FB00BF1837BD46B0BD00BF380E00207D
:103350002CE4002020E4002014E10020C00D002017
:10336000CC0D0020280E0020300E00200C00002084
:1033700030E8002010000020CCE9002014000020DC
:103380008CE9002064EA0020D4B702082DE9F0415E
:10339000ADF5207D08AF3B1D1860002387F85F3234
:1033A00008F0EAFB0346012B40F09E80132387F8C8
:1033B0005E32654B1B681A46644965481AF06FF91E
:1033C000614B1B681A46634961481AF07BFA07F1A2
:1033D0000C031322604918460CF064F8034687F882
:1033E0005E3297F85E32002B09D107F50F7319464C
:1033F00059480DF03BF9034687F85E3205E097F82F
:103400005E32012B01D108F0B7FB97F85E32002B3A
:103410006AD1D7F83C2207F10C03114618460CF08C
:10342000D0FD034687F85E3297F85E32002B4BD111
:1034300097F85E32002B41D10021454819F07CFFFE
:10344000C7F85802454B1B68C7F85432414BDB782C
:103450009C46404B5B789E463E4B9B781A463B4BC6
:103460001B781946394B5B781C46384B9B781D46B8
:10347000D7F858321B0C9BB21E46D7F858329BB275
:103480003B60D7F854321B0C9BB2D7F8540280B281
:1034900007F10C08079006933B6805930496039583
:1034A000029401910092734662462D49404609F00C
:1034B00017FD07F10C03184600F0A2F807F10C0302
:1034C00018460CF04FFD0FE0264B1B6897F85E2264
:1034D0002549184609F004FD244B1B6897F85E2225
:1034E0002149184609F0FCFC00201FF095FD002042
:1034F0001FF076FD002000F0AFF803461A4697F85B
:103500005F32134387F85F32012000F0A5F80346CD
:103510001A4697F85F32134387F85F32022000F0B3
:103520009BF803461A4697F85F32134387F85F32D9
:1035300097F85F32002B02D10A2009F08BFA0023A2
:1035400087F85F32D3E700BFBC07002030E60020D9
:1035500074E8002070E80020E8B702085428004012
:10356000F4B70208140000203CB802080C00002048
:1035700080B584B000AF786039603B68002B0BD019
:103580003868FDF7C9FA0346FB81FB891A4639689A
:10359000786800F007F801E0FFF7D6FC00BF1037AD
:1035A000BD4680BD80B586B000AFF860B9601346F7
:1035B000FB80FB88FB82BB68002B18D0FB8A1A4675
:1035C000B968002009F028FF3861FB8ABA68134403
:1035D0003A690A49184624F0DDFFFB8A0A33FB8268
:1035E000FA8AFB680021B86809F0DAFD01E0FFF70C
:1035F000ABFC00BF1837BD4680BD00BF50B8020805
:1036000080B584B002AF78600C4B01930C4B0093F3
:10361000592301220B49786809F062FC0A4B1A68A9
:103620000A4B19680A4B1B6800930B4609497868D6
:1036300009F056FC00BF0837BD4680BD80B80208BF
:103640008CB8020858B80208107AFF1F147AFF1FBE
:10365000187AFF1F98B80208F0B5B7B008AF034654
:10366000FB73002387F8AF30FB7B022B01D9FFF7F8
:103670006BFCFB7B1B02BD4A9818FB7B0D22FF21D4
:1036800007F08CFA0346002B07F0CE81FB7BB84A8B
:1036900052F82330C7F88C30FB7B1B02B34A13442B
:1036A000B449184624F0D9FFC7F88800D7F8883005
:1036B000002B07F0F081012387F8AF30D7F888009E
:1036C000FDF72AFAC7F88400D7F88430B3F5807F75
:1036D00007F28C81FB7B1B02A74A1344D7F88810A2
:1036E000184624F0B2FF0423C7F8B4300423C7F807
:1036F000B03028E0FB7BA04A1B021A44D7F8B43054
:1037000013441878FA7BD7F8B43001339A4912027F
:103710000A4413441B78FC7B194607F091FA0346D0
:103720001946954A23021A44D7F8B03013440A4682
:103730001A70D7F8B4300233C7F8B430D7F8B030C5
:103740000133C7F8B030D7F8B420D7F884309A42A4
:10375000D0D3FB7B884A1B02134404331B78112B04
:1037600008D0FB7B844A1B02134404331B78402B94
:1037700040F03481FB7B804A1B02134404331B78E6
:10378000112B55D1FB7B7C4A1B02134403331B785E
:10379000522B0DD1FB7B784A1B02134405331B7857
:1037A0001946002007F074FA0346A7F8AC309DE0F4
:1037B000FB7B714A1B02134403331B78572B0DD13B
:1037C000FB7B6D4A1B02134405331B78194601200D
:1037D00007F05EFA0346A7F8AC3087E0FB7B664A49
:1037E0001B02134403331B78442B04D1D7F88430D5
:1037F000A7F8AC307AE0FB7B4FF4867202FB03F350
:103800005E4A13445E491A460B4603CB1060516072
:10381000FB7B4FF4867202FB03F3584A13441946AC
:10382000D7F88C00FFF7A4FE97F8AF3007F035B952
:10383000FB7B514A1B02134404331B78402B55D1A8
:10384000FB7B4D4A1B02134403331B78522B0DD1D3
:10385000FB7B494A1B02134405331B78194602209F
:1038600007F016FA0346A7F8AC303FE0FB7B424A6C
:103870001B02134403331B78572B0DD1FB7B3E4AAD
:103880001B02134405331B781946032007F000FA86
:103890000346A7F8AC3029E0FB7B374A1B021344F0
:1038A00003331B78442B04D1D7F88430A7F8AC300D
:1038B0001CE0FB7B4FF4867202FB03F32F4A134498
:1038C0002F491A460B4603CB10605160FB7B4FF427
:1038D000867202FB03F3294A13441946D7F88C0079
:1038E000FFF746FE97F8AF3007F0D7B8B7F8AC301F
:1038F00009331A46D7F88430934245D1D7F884303B
:10390000093B1A46D7F88810002009F085FDC7F852
:103910008000B7F8AC300133D7F88820134418463C
:1039200007F078FAF867D7F88020FB6F9A4255D0F5
:10393000FB7B4FF4867202FB03F3104A1344D7F863
:1039400080201049184624F025FEFB7B4FF4867238
:1039500002FB03F3094A13441946D7F88C00FFF71A
:1039600007FE97F8AF3007F098B800BFC00A0020F4
:103970001C000020B8B80208C00700206415002011
:10398000BCB80208C4B80208B7F8AC30D7F8842035
:103990009A4223D0FB7B4FF4867202FB03F3B64AB4
:1039A0001344B64A1C4615460FCD20606160A260E4
:1039B000E3600FCD20616161A261E361FB7B4FF4A5
:1039C000867202FB03F3AC4A13441946D7F88C0005
:1039D000FFF7CEFD97F8AF3007F05FB8FB7BA84A42
:1039E0001B02134403331B78522B42F0FA82FB7BF9
:1039F000A34A1B02134404331B78402B40F0C780BA
:103A0000FB7B9F4A1B02134406331B789BB21B02AD
:103A10009AB2FB7B9A491B020B4407331B789BB27B
:103A20001344A7F84A30FB7B954A1B021344053325
:103A30001B78012BC0F28E800B2B02DD402B40F057
:103A40008980B7F84A30B3F5005F30D3B7F84A3011
:103A5000B3F5405F2BD2FB7B4FF4867202FB03F37E
:103A6000854A9818FB7B864A1B02134405331B7852
:103A70001A46844924F08EFDFB7B4FF4867202FBCC
:103A800003F37D4A13441946D7F88C00FFF770FD05
:103A9000FB7B7B4A1B02134405331978B7F84A00B5
:103AA000002300930023522212F07AFE50E0B7F870
:103AB0004A30B3F5805F30D3B7F84A30B3F5005FD2
:103AC0002BD2FB7B4FF4867202FB03F36A4A9818F1
:103AD000FB7B6B4A1B02134405331B781A466A4969
:103AE00024F058FDFB7B4FF4867202FB03F3624A1D
:103AF00013441946D7F88C00FFF73AFDFB7B604A68
:103B00001B02134405331978B7F84A0000230093C9
:103B10000023522223F03AFE1AE0FB7B4FF4867218
:103B200002FB03F3544A1344B7F84A205749184696
:103B300024F030FDFB7B4FF4867202FB03F34E4A08
:103B400013441946D7F88C00FFF712FD06F0A3BF07
:103B500006F0A1BFFB7B4FF4867202FB03F3464ADB
:103B600013444B4A1C4615460FCD20606160A2608D
:103B7000E360FB7B4FF4867202FB03F33E4A13447F
:103B80001946D7F88C00FFF7F3FC06F084BFFB7BE7
:103B90003B4A1B02134404331B78182B40F0388136
:103BA000002387F8AB300A23A7F8AC30B7F8AC3065
:103BB00009331A46D7F88430934236D1D7F8843087
:103BC000093B1A46D7F88810002009F025FCC7F8F1
:103BD0008000B7F8AC300133D7F88820134418467A
:103BE00007F018F9F867D7F88020FB6F9A4255D094
:103BF000FB7B4FF4867202FB03F31F4A1344D7F892
:103C000080202449184624F0C5FCFB7B4FF48672C3
:103C100002FB03F3184A13441946D7F88C00FFF748
:103C2000A7FC97F8AF3006F038BFB7F8AC30D7F83C
:103C300084209A4232D0FB7B4FF4867202FB03F35E
:103C40000D4A1344144A1C46134607CB206061609A
:103C5000A2601B782373FB7B4FF4867202FB03F395
:103C6000054A13441946D7F88C00FFF781FC97F8F2
:103C7000AF3006F012BF00BF64150020DCB80208A8
:103C8000C0070020FCB802081CB902083CB90208B1
:103C900050B90208C4B8020860B90208FB7BB24AF6
:103CA0001B02134406331B78302B00F29480FB7BFD
:103CB000AD4A1B02134406331B78002B00F08B80A7
:103CC00007F0B8FB97F8AB30002B1BD097F8AA3061
:103CD000012B0DD097F8AA30032B09D097F8AA3002
:103CE000022B08D1A14B93F83D30DBB2202B02D13F
:103CF0009E4807F029FC052008F0ACFE97F8AB3091
:103D0000092B1FD8FB7B984A1B02134406331B78F0
:103D10009AB20A2302930223019307F1140300933A
:103D200001233021914815F02DFD034687F8AA3074
:103D300097F8AB30013387F8AB3097F8AA30002BF7
:103D4000C0D100E000BF894815F0A4F897F8AA3068
:103D5000002B23D13B7D9BB21B029AB27B7D9BB291
:103D60001344A7F84C30FB7B4FF4867202FB03F33D
:103D70007F4A1344B7F84C207E49184624F00AFCC9
:103D8000FB7B4FF4867202FB03F3794A1344194616
:103D9000D7F88C00FFF7ECFB06F07DBEFB7B4FF401
:103DA000867202FB03F3724A1344734A1C4615469B
:103DB0000FCD20606160A260E360FB7B4FF48672F0
:103DC00002FB03F36A4A13441946D7F88C00FFF745
:103DD000CFFB06F060BEFB7B4FF4867202FB03F361
:103DE000634A1344654A1C4615460FCD2060616046
:103DF000A260E360FB7B4FF4867202FB03F35C4A34
:103E000013441946D7F88C00FFF7B2FB06F043BE07
:103E1000FB7B554A1B02134404331B78332B40F0C1
:103E20001881002387F8A8300823A7F8AC30B7F82A
:103E3000AC3009331A46D7F88430934236D1D7F8DC
:103E40008430093B1A46D7F88810002009F0E4FABC
:103E5000C7F88000B7F8AC300133D7F88820134496
:103E6000184606F0D7FFF867D7F88020FB6F9A4214
:103E700042D0FB7B4FF4867202FB03F33C4A1344AF
:103E8000D7F880203E49184624F084FBFB7B4FF492
:103E9000867202FB03F3364A13441946D7F88C00A6
:103EA000FFF766FB97F8AF3006F0F7BDB7F8AC3018
:103EB000D7F884209A421FD0FB7B4FF4867202FB16
:103EC00003F32B4A13442F4A1C46134607CB2060AA
:103ED0006160A2601B782373FB7B4FF4867202FB48
:103EE00003F3234A13441946D7F88C00FFF740FB2D
:103EF00097F8AF3006F0D1BD07F09CFA97F8A830DC
:103F0000002B1BD097F8A930012B0DD097F8A930C2
:103F1000032B09D097F8A930022B08D1134B93F843
:103F20003D30DBB2202B02D1104807F00DFB0520FD
:103F300008F090FD97F8A830092B25D807F110025A
:103F40000A23009304236621084815F0E1F803468C
:103F500087F8A93097F8A830013387F8A83097F888
:103F6000A930002BCAD110E0C0070020DCE50020FA
:103F70006415002070B9020878B9020888B90208EF
:103F8000C4B8020860B9020800BFE24814F082FF1A
:103F900097F8A930002B32D13A7CDF4B1A707A7C2B
:103FA000DD4B5A70BA7CDC4B9A70FA7CDA4BDA70D3
:103FB000FB7B4FF4867202FB03F3D84A9818D64B6A
:103FC0001B781946D44B5B781C46D34B9B781A461A
:103FD000D14BDB780193009223460A46D04924F066
:103FE000D9FAFB7B4FF4867202FB03F3CB4A1344EE
:103FF0001946D7F88C00FFF7BBFA06F04CBDFB7BE7
:104000004FF4867202FB03F3C44A1344C54A1446B4
:104010009C4604F1200E654626460FCE2860696056
:10402000AA60EB6010340CF1100C7445F3D16246B9
:1040300023461B881380FB7B4FF4867202FB03F33D
:10404000B64A13441946D7F88C00FFF791FA06F0E8
:1040500022BDFB7BB44A1B02134404331B78112B93
:1040600041F0A287FB7BB04A1B02134405331B7847
:104070007F2B01F27B8701A252F823F07D420008DA
:10408000734300086D440008414500086D46000870
:104090004B4700083D48000845490008374A0008DA
:1040A000F74A0008B74B0008B74C0008774D0008E6
:1040B000374E00080F4F0008F94F0008B9500008AC
:1040C0006D5F00086D5F00086D5F0008915100088A
:1040D000E952000811540008395500088D560008AF
:1040E000B5570008DD5800087D590008E959000857
:1040F000555A0008C15A00082D5B0008995B00085A
:104100006D5F00086D5F00086D5F00086D5F00085F
:104110006D5F00086D5F00086D5F00086D5F00084F
:104120006D5F00086D5F00086D5F00086D5F00083F
:104130006D5F00086D5F00086D5F00086D5F00082F
:10414000855C00086D5F00084B5D00086D5F00082E
:10415000055E00086D5F00086D5F00086D5F000878
:104160006D5F00086D5F00086D5F00086D5F0008FF
:104170006D5F00086D5F00086D5F00086D5F0008EF
:104180006D5F00086D5F00086D5F00086D5F0008DF
:104190006D5F00086D5F00086D5F00086D5F0008CF
:1041A0006D5F00086D5F00086D5F00086D5F0008BF
:1041B0006D5F00086D5F00086D5F00086D5F0008AF
:1041C0006D5F00086D5F00086D5F00086D5F00089F
:1041D0006D5F00086D5F00086D5F00086D5F00088F
:1041E0006D5F00086D5F00086D5F00086D5F00087F
:1041F0006D5F00086D5F00086D5F00086D5F00086F
:10420000535E00086D5F00086D5F00086D5F000879
:104210006D5F00086D5F00086D5F00086D5F00084E
:104220006D5F00086D5F00086D5F00086D5F00083E
:104230006D5F00086D5F00086D5F00086D5F00082E
:104240006D5F00086D5F00086D5F00086D5F00081E
:104250006D5F00086D5F00086D5F00086D5F00080E
:104260006D5F00086D5F00086D5F00086D5F0008FE
:104270006D5F00086D5F0008E95E000807F120032C
:104280001946302007F073FF0346012B52D1FB7B08
:104290004FF4867202FB03F3204A9818B7F92030D6
:1042A0001A46B7F922301946B7F9243000930B4665
:1042B0001E4924F06FF9FB7B4FF4867202FB03F377
:1042C000164A13441946D7F88C00FFF751F9FB7BC7
:1042D0004FF4867202FB03F3104A9818B7F92030A6
:1042E0001A46B7F922301946B7F9243000930B4625
:1042F0000F4924F04FF9FB7B4FF4867202FB03F366
:10430000064A13441946D7F88C00FFF731F906F036
:10431000C2BB00BFDCE5002068EA00206415002075
:1043200098B90208ACB90208C0070020D0B9020849
:10433000E0B90208C14807F007F9FB7B4FF4867229
:1043400002FB03F3BE4A1344BE4A184611465423E7
:104350001A4623F0F8FBFB7B4FF4867202FB03F353
:10436000B74A13441946D7F88C00FFF701F906F055
:1043700092BBFB7BB44A1B02134406331978FB7BC8
:104380001B020733B04A13441A46302007F0C6FD1B
:104390000346012B49D1FB7B4FF4867202FB03F3EA
:1043A000A74A9818FB7BA84A1B02134406331B78C4
:1043B0001946FB7BA44A1B02134407331B780A46A9
:1043C000A24924F0E7F8FB7B4FF4867202FB03F36B
:1043D0009B4A13441946D7F88C00FFF7C9F8FB7BBA
:1043E0004FF4867202FB03F3954A9818FB7B964ABA
:1043F0001B02134406331B781946FB7B924A1B02AF
:10440000134407331B780A46914924F0C3F8FB7B19
:104410004FF4867202FB03F3894A13441946D7F816
:104420008C00FFF7A5F806F036BBFB7B4FF48672D5
:1044300002FB03F3824A1344864A1D4614460FCCFE
:1044400028606960AA60EB6007CC28616961AA6195
:10445000FB7B4FF4867202FB03F3794A134419463F
:10446000D7F88C00FFF784F806F015BB07F120039E
:104470001946322007F07BFE0346012B41D1FB7B1E
:104480004FF4867202FB03F36D4A9818B7F9203097
:104490001A46B7F922301946B7F9243000930B4673
:1044A0006D4924F077F8FB7B4FF4867202FB03F32F
:1044B000634A13441946D7F88C00FFF759F8FB7B81
:1044C0004FF4867202FB03F35D4A9818B7F9203067
:1044D0001A46B7F922301946B7F9243000930B4633
:1044E0005E4924F057F8FB7B4FF4867202FB03F31E
:1044F000534A13441946D7F88C00FFF739F806F0F1
:10450000CABA4E4807F020F8FB7B4FF4867202FBD4
:1045100003F34B4A1344524A184611464E231A4697
:1045200023F011FBFB7B4FF4867202FB03F3444A3A
:1045300013441946D7F88C00FFF71AF806F0ABBA07
:10454000FB7B414A1B02134406331978FB7B1B0299
:1045500007333D4A13441A46322007F0DFFC034676
:10456000012B49D1FB7B4FF4867202FB03F3344AE3
:104570009818FB7B344A1B02134406331B781946F8
:10458000FB7B314A1B02134407331B780A4635492B
:1045900024F000F8FB7B4FF4867202FB03F3284AF9
:1045A00013441946D7F88C00FEF7E2FFFB7B4FF46B
:1045B000867202FB03F3224A9818FB7B224A1B02F5
:1045C000134406331B781946FB7B1F4A1B02134416
:1045D00007331B780A46244923F0DCFFFB7B4FF4AA
:1045E000867202FB03F3164A13441946D7F88C006F
:1045F000FEF7BEFF06F04FBAFB7B4FF4867202FB5C
:1046000003F30F4A1344134A1D4614460FCC286087
:104610006960AA60EB6007CC28616961AA61FB7BD5
:104620004FF4867202FB03F3054A13441946D7F888
:104630008C00FEF79DFF06F02EBA00BF50E600206A
:104640006415002000BA0208C007002054BA02080E
:1046500064BA020890BA0208ACBA0208BCBA0208EE
:10466000DCBA02082CBB02083CBB020807F1280395
:104670003821184608F0C6FB0346002B1FD0A74878
:1046800006F062FFFB7B4FF4867202FB03F3A44A41
:104690001344A44A1C4615460FCD20606160A260F9
:1046A000E360FB7B4FF4867202FB03F39C4A1344E6
:1046B0001946D7F88C00FEF75BFF06F0ECB9FB7BE0
:1046C0004FF4867202FB03F3954A9818D7E90A560D
:1046D000D7E90C34D7E90E12CDE90212CDE9003446
:1046E0002A463346904923F055FFFB7B4FF48672F0
:1046F00002FB03F38A4A13441946D7F88C00FEF7ED
:1047000037FFFB7B4FF4867202FB03F3844A981851
:10471000D7E90A56D7E90C34D7E90E12CDE90212CF
:10472000CDE900342A463346804923F033FFFB7B32
:104730004FF4867202FB03F3794A13441946D7F803
:104740008C00FEF715FF06F0A6B9FB7B784A1B022A
:10475000134406331978FB7B1B020733744A134456
:104760001A4638200DF05EF80346012B49D1FB7B39
:104770004FF4867202FB03F3694A9818FB7B6C4A7C
:104780001B02134406331B781946FB7B684A1B0245
:10479000134407331B780A46664923F0FBFEFB7B74
:1047A0004FF4867202FB03F35D4A13441946D7F8AF
:1047B0008C00FEF7DDFEFB7B4FF4867202FB03F3F9
:1047C000574A9818FB7B5A4A1B02134406331B783E
:1047D0001946FB7B564A1B02134407331B780A46D3
:1047E000554923F0D7FEFB7B4FF4867202FB03F39F
:1047F0004B4A13441946D7F88C00FEF7B9FE06F071
:104800004AB9FB7B4FF4867202FB03F3444A13441C
:10481000444A1C4615460FCD20606160A260E360EB
:10482000FB7B4FF4867202FB03F33D4A13441946A7
:10483000D7F88C00FEF79CFE06F02DB93C2008F05E
:10484000A6FA07F128033C21184608F0DBFA0346D4
:10485000002B1CD0FB7B4FF4867202FB03F3304A23
:104860001344304A1C4615460FCD20606160A2609B
:10487000E360FB7B4FF4867202FB03F3284A134488
:104880001946D7F88C00FEF773FE06F004B9FB7BDF
:104890004FF4867202FB03F3214A9818D7E90A56AF
:1048A000D7E90C34D7E90E12CDE90212CDE9003474
:1048B0002A463346214923F06DFEFB7B4FF4867276
:1048C00002FB03F3164A13441946D7F88C00FEF78F
:1048D0004FFEFB7B4FF4867202FB03F3104A9818DD
:1048E000D7E90A56D7E90C34D7E90E12CDE90212FE
:1048F000CDE900342A463346114923F04BFEFB7BB9
:104900004FF4867202FB03F3054A13441946D7F8A5
:104910008C00FEF72DFE06F0BEB800BF50E600206A
:104920006415002078B9020868BB020880BB020841
:10493000C007002054BA0208CCBB0208F4BB02082E
:104940000CBC0208FB7BC34A1B02134406331978D4
:10495000FB7B1B020733BF4A13441A463C200CF072
:1049600061FF0346012B49D1FB7B4FF4867202FBAA
:1049700003F3B94A9818FB7BB64A1B02134406336B
:104980001B781946FB7BB34A1B02134407331B7881
:104990000A46B24923F0FEFDFB7B4FF4867202FB10
:1049A00003F3AD4A13441946D7F88C00FEF7E0FD37
:1049B000FB7B4FF4867202FB03F3A74A9818FB7B3C
:1049C000A44A1B02134406331B781946FB7BA14AF9
:1049D0001B02134407331B780A46A14923F0DAFD72
:1049E000FB7B4FF4867202FB03F39B4A1344194688
:1049F000D7F88C00FEF7BCFD06F04DB8FB7B4FF4FA
:104A0000867202FB03F3944A1344964A1C461546E9
:104A10000FCD20606160A260E360FB7B4FF4867283
:104A200002FB03F38C4A13441946D7F88C00FEF7B7
:104A30009FFD06F030B807F12003194600200DF065
:104A40009DFB0346012B39D1B7F9203047F6FF72A1
:104A5000934233D0FB7B4FF4867202FB03F37E4A12
:104A60001344B7F920208049184623F093FDFB7BBF
:104A70004FF4867202FB03F3774A13441946D7F8C2
:104A80008C00FEF775FDFB7B4FF4867202FB03F38F
:104A9000714A1344B7F920207449184623F07AFD6F
:104AA000FB7B4FF4867202FB03F36B4A13441946F7
:104AB000D7F88C00FEF75CFD05F0EDBFFB7B4FF4F3
:104AC000867202FB03F3644A1344664A1C46154689
:104AD0000FCD20606160A260E360FB7B4FF48672C3
:104AE00002FB03F35C4A13441946D7F88C00FEF727
:104AF0003FFD05F0D0BF07F12003194600200DF05F
:104B00000FFC0346012B39D1B7F9203047F6FF726D
:104B1000934233D0FB7B4FF4867202FB03F34E4A81
:104B20001344B7F920205049184623F033FDFB7B8E
:104B30004FF4867202FB03F3474A13441946D7F831
:104B40008C00FEF715FDFB7B4FF4867202FB03F32E
:104B5000414A1344B7F920204549184623F01AFD6D
:104B6000FB7B4FF4867202FB03F33B4A1344194666
:104B7000D7F88C00FEF7FCFC05F08DBFFB7B4FF4F3
:104B8000867202FB03F3344A1344364A1C46154628
:104B90000FCD20606160A260E360FB7B4FF4867202
:104BA00002FB03F32C4A13441946D7F88C00FEF796
:104BB000DFFC05F070BFFB7B264A1B021344063363
:104BC0001B7807F14801032218460DF013FA03463B
:104BD000012B53D1FB7B4FF4867202FB03F31E4A79
:104BE0009818FB7B1B4A1B02134406331B781A469A
:104BF000B7F848301F4923F0CDFCFB7B4FF4867299
:104C000002FB03F3144A13441946D7F88C00FEF74D
:104C1000AFFCFB7B4FF4867202FB03F30E4A98183D
:104C2000FB7B0C4A1B02134406331B781A46B7F869
:104C30004830114923F0AEFCFB7B4FF4867202FB37
:104C400003F3054A13441946D7F88C00FEF790FC8D
:104C500005F021BFC0070020641500202CBB02080E
:104C600058BC020878B9020880BC020888BC020857
:104C7000A0BC020854BA0208B8BC0208FB7B4FF47F
:104C8000867202FB03F3D24A1344D24A1C461546ED
:104C90000FCD20606160A260E360FB7B4FF4867201
:104CA00002FB03F3CA4A13441946D7F88C00FEF7F7
:104CB0005FFC05F0F0BE07F12003194601200DF05E
:104CC0005DFA0346012B39D1B7F9223047F6FF725E
:104CD000934233D0FB7B4FF4867202FB03F3BC4A52
:104CE0001344B7F92220BC49184623F053FCFB7B40
:104CF0004FF4867202FB03F3B54A13441946D7F802
:104D00008C00FEF735FCFB7B4FF4867202FB03F34D
:104D1000AF4A1344B7F92220B049184623F03AFCB1
:104D2000FB7B4FF4867202FB03F3A94A1344194636
:104D3000D7F88C00FEF71CFC05F0ADBEFB7B4FF4F2
:104D4000867202FB03F3A24A1344A24A1C4615468C
:104D50000FCD20606160A260E360FB7B4FF4867240
:104D600002FB03F39A4A13441946D7F88C00FEF766
:104D7000FFFB05F090BE07F12003194601200DF05E
:104D8000CFFA0346012B39D1B7F9223047F6FF722B
:104D9000934233D0FB7B4FF4867202FB03F38C4AC1
:104DA0001344B7F922208C49184623F0F3FBFB7B10
:104DB0004FF4867202FB03F3854A13441946D7F871
:104DC0008C00FEF7D5FBFB7B4FF4867202FB03F3EE
:104DD0007F4A1344B7F922208149184623F0DAFBB1
:104DE000FB7B4FF4867202FB03F3794A13441946A6
:104DF000D7F88C00FEF7BCFB05F04DBEFB7B4FF4F3
:104E0000867202FB03F3724A1344724A1C4615462B
:104E10000FCD20606160A260E360FB7B4FF486727F
:104E200002FB03F36A4A13441946D7F88C00FEF7D5
:104E30009FFB05F030BEFB7B6A4A1B02134406331E
:104E40001B7807F14801042218460DF0D3F80346F9
:104E5000012B3FD1FB7B4FF4867202FB03F35C4ACC
:104E60009818FB7B5F4A1B02134406331B781A46D3
:104E7000B7F848305C4923F08DFBFB7B4FF486721A
:104E800002FB03F3524A13441946D7F88C00FEF78D
:104E90006FFBFB7B4FF4867202FB03F34C4A9818BE
:104EA000FB7B504A1B02134406331B781A46B7F8A3
:104EB00048304E4923F06EFBFB7B4FF4867202FBB9
:104EC00003F3434A13441946D7F88C00FEF750FB0E
:104ED00005F0E1BDFB7B4FF4867202FB03F33C4A15
:104EE00013443C4A1C4615460FCD20606160A26009
:104EF000E360FB7B4FF4867202FB03F3344A1344F6
:104F00001946D7F88C00FEF733FB05F0C4BD07F156
:104F10002003194602200DF031F90346012B39D147
:104F2000B7F9243047F6FF72934233D0FB7B4FF43E
:104F3000867202FB03F3264A1344B7F924202C4956
:104F4000184623F027FBFB7B4FF4867202FB03F32A
:104F50001F4A13441946D7F88C00FEF709FBFB7B68
:104F60004FF4867202FB03F3194A1344B7F9242065
:104F70002049184623F00EFBFB7B4FF4867202FBA0
:104F800003F3134A13441946D7F88C00FEF7F0FADE
:104F900005F081BDFB7B4FF4867202FB03F30C4AE4
:104FA00013440C4A1C4615460FCD20606160A26078
:104FB000E360FB7B4FF4867202FB03F3044A134465
:104FC0001946D7F88C00FEF7D3FA05F064BD00BF90
:104FD0006415002078B90208DCBC0208E4BC0208B1
:104FE000FCBC0208C00700202CBB020814BD02084C
:104FF00038BD020840BD020807F12003194602200F
:105000000DF08EF90346012B39D1B7F9243047F65C
:10501000FF72934233D0FB7B4FF4867202FB03F3A3
:10502000A54A1344B7F92420A449184623F0B2FA3C
:10503000FB7B4FF4867202FB03F39F4A134419462D
:10504000D7F88C00FEF794FAFB7B4FF4867202FBD4
:1050500003F3994A1344B7F924209949184623F0D9
:1050600099FAFB7B4FF4867202FB03F3924A1344D6
:105070001946D7F88C00FEF77BFA05F00CBDFB7BD8
:105080004FF4867202FB03F38B4A13448D4A1C468D
:1050900015460FCD20606160A260E360FB7B4FF49A
:1050A000867202FB03F3844A13441946D7F88C0036
:1050B000FEF75EFA05F0EFBCFB7B834A1B0213444C
:1050C00006331B7807F14801052218460CF092FFC1
:1050D0000346012B3FD1FB7B4FF4867202FB03F3A7
:1050E000754A9818FB7B784A1B02134406331B78D9
:1050F0001A46B7F84830754923F04CFAFB7B4FF459
:10510000867202FB03F36C4A13441946D7F88C00ED
:10511000FEF72EFAFB7B4FF4867202FB03F3664A1E
:105120009818FB7B684A1B02134406331B781A4607
:10513000B7F84830664923F02DFAFB7B4FF48672AE
:1051400002FB03F35C4A13441946D7F88C00FEF7C0
:105150000FFA05F0A0BCFB7B4FF4867202FB03F351
:10516000554A1344574A1C4615460FCD20606160CE
:10517000A260E360FB7B4FF4867202FB03F34E4AAE
:1051800013441946D7F88C00FEF7F2F905F083BCFA
:105190000CF0FAFC07F1180318460DF0AFF90346BE
:1051A000012B63D14B4B1B78DBB203F00103002BC7
:1051B0005CD0B7F91830002B00DA0733DB101BB2D4
:1051C0001A4613469B0013445B00002B00DA0F3392
:1051D0001B11A7F84E30FB7B4FF4867202FB03F3E2
:1051E000354A1344B7F9182092B23B49184623F0C8
:1051F000D1F9FB7B4FF4867202FB03F32E4A134472
:105200001946D7F88C00FEF7B3F9FB7B4FF4867292
:1052100002FB03F3284A9818B7F94E302F4A82FB55
:1052200003129210DB17D31A1BB21C46B7F94E209B
:105230002A4B83FB02139910D317C91A0B469B0004
:105240000B445B00D31A1BB22246254923F0A2F976
:10525000FB7B4FF4867202FB03F3174A1344194693
:10526000D7F88C00FEF784F905F015BCFB7B4FF4F2
:10527000867202FB03F3104A13441A4A1D46144671
:105280000FCC28606960AA60EB6007CC2861696177
:10529000AA612388A278AB831346AB77FB7B4FF4DC
:1052A000867202FB03F3044A13441946D7F88C00B4
:1052B000FEF75EF905F0EFBB6415002038BD02086B
:1052C00058BD020878B90208C007002070BD020866
:1052D00080BD02081CCF0020A4BD02086766666678
:1052E000B0BD0208D4BD02080CF04EFC07F1180353
:1052F00018460DF003F90346012B63D1C54B1B780B
:10530000DBB203F00203002B5CD0B7F91A30002B9C
:1053100000DA0733DB101BB21A4613469B00134416
:105320005B00002B00DA0F331B11A7F84E30FB7B1C
:105330004FF4867202FB03F3B74A1344B7F91A20FD
:1053400092B2B649184623F025F9FB7B4FF48672DA
:1053500002FB03F3B04A13441946D7F88C00FEF75A
:1053600007F9FB7B4FF4867202FB03F3AA4A9818F5
:10537000B7F94E30AA4A82FB03129210DB17D31AF8
:105380001BB21C46B7F94E20A54B83FB02139910A4
:10539000D317C91A0B469B000B445B00D31A1BB2F0
:1053A0002246A04923F0F6F8FB7B4FF4867202FBFD
:1053B00003F3994A13441946D7F88C00FEF7D8F83E
:1053C00005F069BBFB7B4FF4867202FB03F3924A44
:1053D0001344954A1D4614460FCC28606960AA60A4
:1053E000EB6007CC28616961AA612388A278AB834E
:1053F0001346AB77FB7B4FF4867202FB03F3864ABE
:1054000013441946D7F88C00FEF7B2F805F043BBF9
:105410000CF0BAFB07F1180318460DF06FF80346BD
:10542000012B63D17B4B1B78DBB203F00403002B11
:105430005CD0B7F91C30002B00DA0733DB101BB24D
:105440001A4613469B0013445B00002B00DA0F330F
:105450001B11A7F84E30FB7B4FF4867202FB03F35F
:105460006D4A1344B7F91C2092B27049184623F0D4
:1054700091F8FB7B4FF4867202FB03F3664A1344F8
:105480001946D7F88C00FEF773F8FB7B4FF4867251
:1054900002FB03F3604A9818B7F94E30604A82FB6A
:1054A00003129210DB17D31A1BB21C46B7F94E2019
:1054B0005B4B83FB02139910D317C91A0B469B0051
:1054C0000B445B00D31A1BB22246594923F062F801
:1054D000FB7B4FF4867202FB03F34F4A13441946D9
:1054E000D7F88C00FEF744F805F0D5BAFB7B4FF4F3
:1054F000867202FB03F3484A13444E4A1D46144683
:105500000FCC28606960AA60EB6007CC28616961F4
:10551000AA612388A278AB831346AB77FB7B4FF459
:10552000867202FB03F33C4A13441946D7F88C00F9
:10553000FEF71EF805F0AFBA0CF026FB07F11803D2
:1055400018460DF041F80346012B79D1314B1B78F9
:10555000DBB203F00803002B72D0B7F91830002B30
:1055600000DA0733DB101BB21A4613469B001344C4
:105570005B00002B00DA0F331B11A7F84E30FB7BCA
:105580004FF4867202FB03F3234A1344B7F9182041
:1055900092B22949184622F0FDFFFB7B4FF4867238
:1055A00002FB03F31C4A13441946D7F88C00FDF79D
:1055B000DFFFFB7B4FF4867202FB03F3164A981859
:1055C000B7F94E30164A82FB03129210DB17D31A3A
:1055D0001BB21C46B7F94E20114B83FB02139910E6
:1055E000D317C91A0B469B000B445B00D31A1BB29E
:1055F0002246124922F0CEFFFB7B4FF4867202FB5B
:1056000003F3054A13441946D7F88C00FDF7B0FFA1
:1056100005F041BA1CCF002064150020F4BD02083B
:105620006766666600BE020824BE020844BE020821
:1056300050BE020874BE020894BE0208A0BE020852
:10564000FB7B4FF4867202FB03F3BF4A1344BF4A4D
:105650001D4614460FCC28606960AA60EB6007CC39
:1056600028616961AA612388A278AB831346AB776E
:10567000FB7B4FF4867202FB03F3B34A13441946D3
:10568000D7F88C00FDF774FF05F005BA0CF07CFA32
:1056900007F1180318460CF097FF0346012B63D15E
:1056A000AB4B1B78DBB203F01003002B5CD0B7F9D7
:1056B0001A30002B00DA0733DB101BB21A461346F0
:1056C0009B0013445B00002B00DA0F331B11A7F87B
:1056D0004E30FB7B4FF4867202FB03F39A4A13446D
:1056E000B7F91A2092B29B49184622F053FFFB7B70
:1056F0004FF4867202FB03F3934A13441946D7F81A
:105700008C00FDF735FFFB7B4FF4867202FB03F341
:105710008D4A9818B7F94E308F4A82FB03129210C7
:10572000DB17D31A1BB21C46B7F94E208A4B83FBFA
:1057300002139910D317C91A0B469B000B445B0048
:10574000D31A1BB22246854922F024FFFB7B4FF47B
:10575000867202FB03F37C4A13441946D7F88C0087
:10576000FDF706FF05F097B9FB7B4FF4867202FB4D
:1057700003F3754A13447A4A1D4614460FCC286039
:105780006960AA60EB6007CC28616961AA6123881F
:10579000A278AB831346AB77FB7B4FF4867202FB98
:1057A00003F3694A13441946D7F88C00FDF7E0FE6D
:1057B00005F071B90CF0E8F907F1180318460CF080
:1057C00003FF0346012B63D1614B1B78DBB203F06F
:1057D0002003002B5CD0B7F91C30002B00DA073314
:1057E000DB101BB21A4613469B0013445B00002BD0
:1057F00000DA0F331B11A7F84E30FB7B4FF4867293
:1058000002FB03F3504A1344B7F91C2092B25549E6
:10581000184622F0BFFEFB7B4FF4867202FB03F3B7
:10582000494A13441946D7F88C00FDF7A1FEFB7BCB
:105830004FF4867202FB03F3434A9818B7F94E30CF
:10584000454A82FB03129210DB17D31A1BB21C4687
:10585000B7F94E20404B83FB02139910D317C91A96
:105860000B469B000B445B00D31A1BB222463E49F9
:1058700022F090FEFB7B4FF4867202FB03F3324A68
:1058800013441946D7F88C00FDF772FE05F003B9F2
:10589000FB7B4FF4867202FB03F32B4A1344334A1B
:1058A0001D4614460FCC28606960AA60EB6007CCE7
:1058B00028616961AA612388A278AB831346AB771C
:1058C000FB7B4FF4867202FB03F31F4A1344194615
:1058D000D7F88C00FDF74CFE05F0DDB80CF0ECFAC3
:1058E000FB7B4FF4867202FB03F3174A9818204B98
:1058F0001B881A461F4922F04DFEFB7B4FF486722F
:1059000002FB03F3104A13441946D7F88C00FDF745
:105910002FFEFB7B4FF4867202FB03F30A4A9818B2
:10592000134B1B881A46144922F034FEFB7B4FF4BC
:10593000867202FB03F3044A13441946D7F88C001D
:10594000FDF716FE05F0A7B864150020C4BE0208D6
:105950001CCF0020E4BE020867666666F0BE02083F
:1059600014BF020834BF020840BF020864BF020827
:1059700020CF002084BF020890BF02080CF09CFAE0
:10598000FB7B4FF4867202FB03F3AF4A9818AF4BD0
:105990005B881A46AE4922F0FDFDFB7B4FF4867210
:1059A00002FB03F3A84A13441946D7F88C00FDF70D
:1059B000DFFDFB7B4FF4867202FB03F3A24A9818CB
:1059C000A24B5B881A46A34922F0E4FDFB7B4FF40F
:1059D000867202FB03F39C4A13441946D7F88C00E5
:1059E000FDF7C6FD05F057B80CF066FAFB7B4FF4E7
:1059F000867202FB03F3944A9818944B9B881A46CC
:105A0000954922F0C7FDFB7B4FF4867202FB03F33E
:105A10008D4A13441946D7F88C00FDF7A9FDFB7B8E
:105A20004FF4867202FB03F3874A9818874B9B88D2
:105A30001A468A4922F0AEFDFB7B4FF4867202FBC8
:105A400003F3814A13441946D7F88C00FDF790FD03
:105A500005F021B80CF030FAFB7B4FF4867202FBA4
:105A600003F3794A9818794BDB881A467C4922F06F
:105A700091FDFB7B4FF4867202FB03F3724A1344E1
:105A80001946D7F88C00FDF773FDFB7B4FF4867247
:105A900002FB03F36C4A98186C4BDB881A46714979
:105AA00022F078FDFB7B4FF4867202FB03F3664A1B
:105AB00013441946D7F88C00FDF75AFD04F0EBBFEC
:105AC0000CF0FAF9FB7B4FF4867202FB03F35E4A9B
:105AD00098185E4B1B891A46634922F05BFDFB7BDD
